:020000040800F2
:100000008806002061010008230900082109000872
:1000100000000000000000000000000000000000E0
:10002000000000000000000000000000E5090008DA
:100030000000000000000000C10900080D0A0008CF
:1000400073010008730100087301000873010008C0
:1000500073010008730100087301000873010008B0
:1000600073010008730100087301000873010008A0
:10007000610300087301000873010008C50B000844
:100080007301000873010008000000007D0B0008E8
:100090007301000873010008730100087301000870
:1000A0007301000873010008730100087301000860
:1000B00073010008000000007301000800F002F85E
:1000C00000F03EF80CA030C8083824182D18A246BD
:1000D000671EAB4654465D46AC4201D100F030F895
:1000E0007E460F3E0FCCB6460126334200D0FB1AA7
:1000F000A246AB4633431847040C0000240C000012
:10010000103A02D378C878C1FAD8520701D330C860
:1001100030C101D504680C60704700000023002442
:1001200000250026103A01D378C1FBD8520700D32E
:1001300030C100D50B6070471FB51FBD10B510BD95
:1001400000F0DAF81146FFF7F7FF00F0AFFD00F01E
:10015000F2F803B4FFF7F2FF03BC00F0FBF8000075
:100160000748804707480047FEE7FEE7FEE7FEE74F
:10017000FEE7FEE704480549054A064B70470000C4
:10018000F50A0008BD00000888000020880600204D
:100190008802002088020020002203098B422CD311
:1001A000030A8B4211D300239C464EE003460B43C7
:1001B0003CD4002243088B4231D303098B421CD329
:1001C000030A8B4201D394463FE0C3098B4201D31B
:1001D000CB01C01A524183098B4201D38B01C01A53
:1001E000524143098B4201D34B01C01A52410309CA
:1001F0008B4201D30B01C01A5241C3088B4201D379
:10020000CB00C01A524183088B4201D38B00C01A25
:10021000524143088B4201D34B00C01A5241411A4C
:1002200000D201465241104670475DE0CA0F00D02F
:100230004942031000D34042534000229C46030928
:100240008B422DD3030A8B4212D3FC22890112BAAE
:10025000030A8B420CD3890192118B4208D3890186
:1002600092118B4204D389013AD0921100E089099E
:10027000C3098B4201D3CB01C01A524183098B427F
:1002800001D38B01C01A524143098B4201D34B0168
:10029000C01A524103098B4201D30B01C01A5241CB
:1002A000C3088B4201D3CB00C01A524183088B4252
:1002B00001D38B00C01A5241D9D243088B4201D3DB
:1002C0004B00C01A5241411A00D2014663465241C6
:1002D0005B10104601D34042002B00D549427047C5
:1002E00063465B1000D3404201B50020C046C046C3
:1002F00002BD704770477047754600F025F8AE465E
:10030000050069465346C008C000854618B020B5B0
:10031000FFF730FF60BC00274908B6460026C0C57D
:10032000C0C5C0C5C0C5C0C5C0C5C0C5C0C5403DAD
:1003300049008D46704710B50446C046C046204669
:10034000FFF707FF10BD00000048704724000020A1
:100350007047000001491820ABBEFEE726000200EE
:1003600010B500F007F810BD0149086070470000A3
:100370000024014010B5082000F022F801280FD118
:100380000820FFF7F1FF00F015F80649086009683A
:10039000054A514308460549FFF7FEFE0449086037
:1003A00010BD000010000020E40C0000FF0F000052
:1003B000140000200148006880B2704740240140CA
:1003C00010B50146084840680840024606480068E3
:1003D000CCB220400346002A03D0002B01D00120DC
:1003E00010BD0020FCE700000024014010B50420EF
:1003F00000F0FAFA074908480068FFF7CDFE074900
:1004000008600846008880B27D21C900484304493D
:10041000086010BD40420F000000002004000020D2
:100420000800002001B5114A009912685143104A92
:1004300051610021916111460969012211430C4A61
:10044000116100BF0A490869C107C90F002904D01A
:100450000121090401400029F4D00549096949082E
:100460004900034A11610021916108BD0800002084
:1004700000E000E001B5114A009912685143104AAA
:1004800051610021916111460969012211430C4A11
:10049000116100BF0A490869C107C90F002904D0CA
:1004A0000121090401400029F4D0054909694908DE
:1004B0004900034A11610021916108BD0400002038
:1004C00000E000E010B500F05DF9FFF78FFF00F0ED
:1004D000FBF900F04BF810BD8162704770B50A4619
:1004E00000213DE001238B4014881C40002C00D1EA
:1004F00035E09478012C02D09478022C16D18468CF
:100500004E000325B540AC43846014794D00AC40E7
:1005100085682C4384604468D5788D40AC43446042
:100520004468D5788D40ADB22C43446005684E00D8
:100530000324B440A543056094784D00AC400568A1
:100540002C430460C4684E000325B540AC43C4602E
:1005500054794D00AC40C5682C43C46000BF491CB1
:100560001029BFD370BD8161704700001CB5012008
:10057000400400F027FA0120800400F023FAFF2154
:10058000013168460180012181700021C170032181
:1005900001710121417169460948FFF79FFF03215D
:1005A00068460180012181700021C1700321017121
:1005B0000121417169460920C006FFF78FFF1CBD6C
:1005C0000004004870B505460E460021084600F0BC
:1005D000A1F80120FFF74EFF002415E000210120C3
:1005E00000F098F80420204128400146022000F045
:1005F00091F80120FFF73EFF0121084600F08AF83C
:100600000120FFF737FF641C032CE7DB002415E013
:100610000021012000F07EF880202041304001467A
:10062000022000F077F80120FFF724FF012108469F
:1006300000F070F80120FFF71DFF641C082CE7DBB9
:100640000121002000F066F870BDF8B505460E46A1
:1006500017460021084600F05DF80120FFF70AFF69
:10066000002415E00021012000F054F8042020416E
:1006700028400146022000F04DF80120FFF7FAFE65
:100680000121084600F046F80120FFF7F3FE641C44
:10069000032CE7DB002415E00021012000F03AF8EC
:1006A0002020204130400146022000F033F8012094
:1006B000FFF7E0FE0121084600F02CF80120FFF7CB
:1006C000D9FE641C062CE7DB002418E00120A040C2
:1006D0003840C1B2022000F01DF80520FFF7CAFE25
:1006E0000021012000F016F80520FFF7C3FE0121CC
:1006F000084600F00FF80120FFF7BCFE641C042C34
:10070000E4DB0121002000F005F80120FFF7B2FE34
:10071000F8BD000070B505460C46002D04D0012D33
:1007200010D0022D2AD11BE0002C05D0FF21013171
:100730001348FFF718FF04E0FF2101311048FFF7CD
:10074000CBFE1BE0002C05D002210920C006FFF7DC
:100750000AFF04E002210920C006FFF7BDFE0DE0FC
:10076000002C05D001210920C006FFF7FCFE04E0A3
:1007700001210920C006FFF7AFFE00BF00BF70BD1A
:10078000000400484C49096849084900491C4A4A84
:10079000116011464968494A1140474A5160114663
:1007A0000968474A1140444A11601146096801220C
:1007B00092049143404A1160114649683F22120455
:1007C00091433D4A51601146496809090901516048
:1007D0001146096BFF2254329143374A1163114687
:1007E000496B49084900516300219160114609682D
:1007F00001221204914389182F4A1160002007E05A
:100800002D4909688907C90F002900D004E0401C60
:10081000052109028842F3D300BF274909688907E7
:10082000C90F002947D02749096810229143103188
:10083000244A116011460968C908C900491C1160A1
:100840001D494968F02291431B4A5160114649688D
:10085000072212029143184A516011464968032247
:10086000D2039143144A5160114649680F22920401
:1008700091430522D20489180F4A51601146096834
:1008800001221206914389180B4A116000BF0A49E0
:1008900009688901C90F0029F9D007494968890801
:1008A0008900891C044A516000BF0349496809074F
:1008B000890F0229F9D17047001002400CB8FF08D7
:1008C000FFFFF6FE002002400EB5012000F082F886
:1008D0000120800700F080F90021684601728170D4
:1008E0000E4801902F21684601800021417269461F
:1008F0000120800700F076F90121880700F069F9EE
:100900000121880700F0C0F900210F2000F00AF84B
:100910000120800700F0B2F90EBD0000E7030000DF
:100920007047704770B504460D462946204600F0D2
:100930000BF800BFE106C90E01208840014908609C
:1009400000BF70BD00E100E010B5002819DA1A4AB6
:1009500003071B0F083B9B089B00D2588307DC0E44
:10096000FF23A3409A438B071B0E8407E40EA3408A
:100970001A43114B0407240F083CA408A4001A5181
:1009800018E00E4A03231B02D21883089B00D2589A
:100990008307DC0EFF23A3409A438B071B0E8407BB
:1009A000E40EA3401A43054B032424021B198408B8
:1009B000A4001A5110BD00001CED00E000E100E0B1
:1009C00070470000024949690143014A516170477B
:1009D000001002400249C9690143014AD1617047D0
:1009E0000010024070470000042806D1064909693A
:1009F00004221143044A116105E0034909690422F4
:100A00009143014A1161704700E000E07047000027
:100A1000344909680122120491438918314A11604E
:100A2000002007E02F4909688903C90F002900D079
:100A300004E0401C012109048842F3D300BF294986
:100A400009688903C90F00294AD02749096810227B
:100A500091431031244A116011460968C908C90040
:100A6000491C11601F494968F02291431D4A516099
:100A7000114649680722120291431A4A51601146F1
:100A800049680322D2039143012212048918154AAE
:100A90005160114649680F229204914301221205C8
:100AA0008918104A516011460968012212069143C3
:100AB00089180C4A116000BF0A4909688901C90FE9
:100AC0000029F9D00749496889088900891C054A25
:100AD000516000BF034949680907890F0229F9D10C
:100AE00070470000001002400020024010B5FFF7E0
:100AF0008FFF10BD10B51D48006840084000401C25
:100B00001A49086008464068194908401749486072
:100B100008460068174908401449086008460068FC
:100B200001218904884311490860084640683F2133
:100B3000090488430D4948600846406800090001DF
:100B400048600846006BFF21543188430749086319
:100B50000846406B40084000486300208860FFF76B
:100B6000C5FF0120C0060449886010BD0010024086
:100B70000CB8FF08FFFFF6FE00ED00E07047000034
:100B800010B50121880700F083F8012815D1012153
:100B9000800700F01BF809480068401C07490860FE
:100BA000084600680A2803D30020086000F0A4F873
:100BB00003480068401C0249086010BD0C0000207A
:100BC0001800002010B5FFF7DBFF10BDCA4302611B
:100BD0007047CA43026170478168C908C9008160D3
:100BE0007047000010B51F4A904202D01E4A904242
:100BF00012D1026810239A438B781B0110242340E2
:100C00001A430260026860239A438B785B105B0191
:100C1000602423401A430260144A90420AD00268BA
:100C200003231B029A430B7A1B0203242402234052
:100C30001A4302604A68C2620A888262094A904284
:100C400008D00B4A904205D00A4A904202D00A4A84
:100C5000904201D14A7A0263426952085200521C02
:100C6000426110BD002C0140000400400010004013
:100C7000004001400044014000480140016849082B
:100C80004900491C01607047C2680A43C26070474E
:100C9000024610690840002805D0D06808400028A6
:100CA00001D0012070470020FCE7000008B5FFF7E5
:100CB00009FC28210420FFF785FC03210420FFF70D
:100CC00081FC01210420FFF77DFC11E009A00068F0
:100CD00000900D2202210520FFF7B7FC0D22032111
:100CE0000520FFF7B2FC7D20C000FFF79BFB00BF93
:100CF000ECE700000D0D0000704700001C0D00081F
:100D0000000000201800000000010008340D000859
:100D100018000020700600001C010008006CDC02B6
:100D200000000000000000000000000000000000C3
:040D300000000000BF
:04000005080000BD32
:00000001FF
