:020000040800F2
:100000002019002045010008890B0008730B000827
:1000100000000000000000000000000000000000E0
:10002000000000000000000000000000390C000883
:100030000000000000000000050C00083D0C000856
:100040005701000857010008570100085701000830
:100050005701000857010008570100085701000820
:100060005701000857010008570100085701000810
:100070005701000857010008570100085701000800
:100080005701000857010008000000005701000850
:1000900057010008570100085701000857010008E0
:1000A00057010008570100085701000857010008D0
:1000B00057010008000000005701000800F002F896
:1000C00000F030F80CA030C8083824182D18A246CB
:1000D000671EAB4654465D46AC4201D100F022F8A3
:1000E0007E460F3E0FCCB6460126334200D0FB1AA7
:1000F000A246AB4633431847DC190000FC19000048
:100100000023002400250026103A01D378C1FBD833
:10011000520700D330C100D50B6070471FB51FBD1B
:1001200010B510BD00F00DF91146FFF7F7FF01F013
:1001300041F800F025F903B4FFF7F2FF03BC00F02B
:1001400027F900000748804707480047FEE7FEE719
:10015000FEE7FEE7FEE7FEE704480549054A064BD1
:1001600070470000310D0008BD0000082009002084
:10017000201900202011002020110020134610B566
:100180000446CAB21946100282181004821820468A
:1001900000F00FF8204610BD01E004C0091F04293B
:1001A000FBD28B0701D50280801CC90700D00270EA
:1001B000704700290BD0C30702D00270401C491EB3
:1001C000022904D3830702D50280801C891EE3E73D
:1001D0000022EEE70022DFE7002203098B422CD346
:1001E000030A8B4211D300239C464EE003460B4387
:1001F0003CD4002243088B4231D303098B421CD3E9
:10020000030A8B4201D394463FE0C3098B4201D3DA
:10021000CB01C01A524183098B4201D38B01C01A12
:10022000524143098B4201D34B01C01A5241030989
:100230008B4201D30B01C01A5241C3088B4201D338
:10024000CB00C01A524183088B4201D38B00C01AE5
:10025000524143088B4201D34B00C01A5241411A0C
:1002600000D201465241104670475DE0CA0F00D0EF
:100270004942031000D34042534000229C460309E8
:100280008B422DD3030A8B4212D3FC22890112BA6E
:10029000030A8B420CD3890192118B4208D3890146
:1002A00092118B4204D389013AD0921100E089095E
:1002B000C3098B4201D3CB01C01A524183098B423F
:1002C00001D38B01C01A524143098B4201D34B0128
:1002D000C01A524103098B4201D30B01C01A52418B
:1002E000C3088B4201D3CB00C01A524183088B4212
:1002F00001D38B00C01A5241D9D243088B4201D39B
:100300004B00C01A5241411A00D201466346524185
:100310005B10104601D34042002B00D54942704784
:1003200063465B1000D3404201B50020C046C04682
:1003300002BD70477047704700487047C0080020F2
:1003400070477546FFF7F8FFAE460500694653460D
:10035000C008C000854618B020B5FFF7FDFE60BCA0
:1003600000274908B6460026C0C5C0C5C0C5C0C5DF
:10037000C0C5C0C5C0C5C0C5403D49008D46704719
:1003800010B50446C046C0462046FFF7D4FE10BD57
:1003900001491820ABBEFEE72600020030B58C18DC
:1003A0000278401C13071B0F01D10378401C12096F
:1003B00006D10278401C03E00578401C0D70491CF2
:1003C0005B1EF9D101E00B70491C521EFBD1A1420A
:1003D000E6D3002030BD002802D0082800D000BF9E
:1003E00070478162704770B50A4600213DE00123E5
:1003F0008B4014881C40002C00D135E09478012CEF
:1004000002D09478022C16D184684E000325B540A2
:10041000AC43846014794D00AC4085682C43846003
:100420004468D5788D40AC4344604468D5788D40AD
:10043000ADB22C43446005684E000324B440A5438C
:10044000056094784D00AC4005682C430460C46896
:100450004E000325B540AC43C46054794D00AC4018
:10046000C5682C43C46000BF491C1029BFD370BDB0
:10047000024613690B40002B01D0012300E000234A
:10048000184670478161704710B500F097F900F089
:1004900027F800F04BFE10BD70B50546002400BFE4
:1004A0000BE0A0000C490858002800D003E0A00091
:1004B00009490D5003E0601CC4B2052CF1DB00BFFC
:1004C000052C06DA01210548007801F09BFA01208D
:1004D00070BD0020FCE70000580800203C00002010
:1004E00010B5002407E0002019490855A100194A59
:1004F0005050601CC4B2052CF5DB002408E000203D
:100500006100154A50526100144A5052601CC4B236
:10051000082CF4DB08210920C00600F0E5FD0421C9
:100520000920C00600F0E0FD02210920C00600F00D
:10053000DBFD01210920C00600F0D6FD042108489A
:1005400000F0D2FD10210920C00600F0CDFD10BD45
:1005500040000020580800206C0800207C08002083
:1005600000040048FEB500200190002400900821FE
:100570000920C006FFF77CFF002801D101200443B9
:1005800004210920C006FFF773FF002801D10220D3
:10059000044302210920C006FFF76AFF002801D1A9
:1005A0000420044301210920C006FFF761FF002851
:1005B00001D10820044304214948FFF759FF0028CE
:1005C00001D11020044310210920C006FFF750FF7D
:1005D000002801D1202004430126002516E000F068
:1005E000EBFB2046304000280CD068003D49085AFB
:1005F0003D49884206DA68003A49085A401C6900B9
:10060000384A5052681CC5B27006060E082DE6DB4B
:1006100000251DE0A80035490858002800D115E044
:100620003348405D019032484455A8002F490B588B
:10063000304802682046019998470746002F01D1AB
:100640002B49485500983843009000BF681CC5B23C
:10065000052DDFDB012600250CE000F0ADFB204678
:100660003040002802D169001E4A5052681CC5B2B1
:100670007006060E082DF0DB002018E04100194A34
:10068000515A00290DD141001B4A515A164A914234
:100690000BDA4100184A515A491C4200164B995234
:1006A00003E000214200144B9952411CC8B20828B3
:1006B000E4DB0098002808D00E48008882B20121AF
:1006C0000E48007801F0C6F909E001210B480078D6
:1006D00001F0DAF901210948007800F06BFFFEBD56
:1006E000000400486C080020FFFF000058080020AC
:1006F00040000020480000207C0800203C00002032
:10070000FFB581B005461746002D48D0002F46D0D2
:100710000498002843D0642F3CDA01262D072D0FC2
:10072000224C2AE028463040002823D02078022896
:1007300008DA30461E49097808401E4909780843FE
:100740001C490870002020700498A080A7700298AF
:1007500060700298002803D120780421084320709B
:1007600000F022FFA0602078022108432070284674
:10077000704005467006060E0C34002DD2D10221C1
:100780000D48007801F080F902210B48007801F053
:1007900039F908E00121284600F0CAF803E00021F9
:1007A000284600F0C5F805B0F0BD00008C08002018
:1007B0004C0000204E0000203C0000201CB5012011
:1007C000800400F029FA0120400400F025FA0821F5
:1007D00068460180012181700021C17003210171EF
:1007E0000021417169462048FFF7FDFD1021684650
:1007F0000180012181700021C1700321017100215C
:10080000417169461848FFF7EEFD202168460180D6
:10081000012181700021C17003210171002141710A
:1008200069461148FFF7DFFDFF210131684601806D
:10083000012181700021C1700321017100214171EA
:1008400069460920C006FFF7CEFDFF2101310920CE
:10085000C006FFF7C6FD00210F2000F069F8002157
:10086000024801741CBD000000040048AC080020D0
:1008700070B504460D46E007C00F00280DD0012DCD
:1008800005D100BF08212848FFF7ABFD05E000BFF8
:1008900008212548FFF7F6FD00BF02202040002870
:1008A0000DD0012D05D100BF10211F48FFF799FD84
:1008B00005E000BF10211C48FFF7E4FD00BF042045
:1008C000204000280DD0012D05D100BF2021164861
:1008D000FFF787FD05E000BF20211348FFF7D2FD99
:1008E00000BF0820204000280DD0012D05D100BFF9
:1008F00008210D48FFF775FD05E000BF08210A48F3
:10090000FFF7C0FD00BF002D05D008480078204348
:100910000649087007E02046FF214840034909784E
:1009200008400249087070BD000400484C000020D7
:10093000F8B505460E46330000F048FA09171606CA
:10094000360E3636361836007D23DB0005220121AF
:100950002846FFF7D5FE28E07D23DB000522322163
:100960002846FFF7CDFE20E000BF00BF01272D077E
:100970002D0F104C15E02846384000280ED0082EC8
:1009800001D0267003E020780121484020702178B2
:100990003846FFF76DFF2846784005467806070E73
:1009A0000C34002DE7D100E000BF00BF0248007802
:1009B000F8BD00008C0800204C000020FEB5002788
:1009C00001250F200190494C20462030007C002852
:1009D0007ED17BE001982840002874D02078022145
:1009E000084000286CD000F0DFFD0646A168B14247
:1009F00059D82078C007C00F002815D0A0786421EE
:100A0000081AC0B2029020784008400020700021EF
:100A10002846FFF72DFF207804210840002819D12F
:100A20006078401E607015E06078002809D1207859
:100A300004210840002804D1207802214840207079
:100A400008E0A07802902078012108432070284611
:100A5000FFF70EFF20780221084000280CD0A18863
:100A6000029A514308466421FFF7B6FB80B200901A
:100A700000983018A0601AE0002000901C48007810
:100A80002840002801D0012000E00020014628462F
:100A9000FFF74EFF2846FF214840154909780840D6
:100AA0001349087003E02089801B80B20090002F5A
:100AB00005D00098002803D00098B84200DA009FC3
:100AC0000198684001906806050E0C34019800E01A
:100AD0000AE0002800D07DE7002F05D03A46022129
:100AE0000448007800F0B6FFFEBD00008C0800202E
:100AF0004E0000203C0000200149087070470000B3
:100B00003C00002070B506460C460120C003204082
:100B1000002814D01548007800F0DCFE054607E0F8
:100B2000284600F09DFE1148007800F0D3FE0546EF
:100B3000002DF5D120460121C903484070BD022097
:100B40002040002805D0FFF739FF20460221484009
:100B5000F4E7E007C00F002805D0FFF703FD2046AB
:100B600001214840EAE70020E8E700003C000020BF
:100B70007047704710B50446002C04D1FF2000F0E8
:100B80004DFDFFF728FC10BD7047000010B5002890
:100B900019DA1A4A03071B0F083B9B089B00D2581F
:100BA0008307DC0EFF23A3409A438B071B0E8407A9
:100BB000E40EA3401A43114B0407240F083CA40879
:100BC000A4001A5118E00E4A03231B02D21883080E
:100BD0009B00D2588307DC0EFF23A3409A438B0768
:100BE0001B0E8407E40EA3401A43054B0324240282
:100BF0001B198408A4001A5110BD00001CED00E070
:100C000000E100E070470000024909698143014AA0
:100C10001161704700100240024949690143014ACD
:100C20005161704700100240024909690143014ABD
:100C300011617047001002407047000002480068D0
:100C4000401C0149086070472400002034490968AD
:100C50000122120491438918314A1160002007E0F3
:100C60002F4909688903C90F002900D004E0401CFE
:100C7000012109048842F3D300BF29490968890387
:100C8000C90F00294AD02749096810229143103121
:100C9000244A116011460968C908C900491C11603D
:100CA0001F494968F02291431D4A51601146496825
:100CB0000722120291431A4A5160114649680322E1
:100CC000D2039143012212048918154A516011463A
:100CD00049680F2292049143012212058918104A93
:100CE00051601146096801221206914389180C4A85
:100CF000116000BF0A4909688901C90F0029F9D0AC
:100D00000749496889088900891C054A516000BF64
:100D1000034949680907890F0229F9D17047000082
:100D2000001002400020024010B5FFF78FFF10BDF9
:100D300010B51D48006840084000401C1A49086072
:100D40000846406819490840174948600846006845
:100D500017490840144908600846006801218904C1
:100D6000884311490860084640683F2109048843C8
:100D70000D4948600846406800090001486008467F
:100D8000006BFF2154318843074908630846406BD4
:100D900040084000486300208860FFF7C5FF01203D
:100DA000C0060449886010BD001002400CB8FF085E
:100DB000FFFFF6FE00ED00E010B50120C002FFF7D6
:100DC00033FF0120C002FFF71FFF10BD30B474468F
:100DD000641E2578641CAB4204D3635D5B00E3189A
:100DE00030BC18471D46F8E780F31088704780F341
:100DF0001088704780F31088704700BFFEE700003E
:100E00004C49096849084900491C4A4A1160114681
:100E10004968494A1140474A516011460968474AA2
:100E20001140444A1160114609680122920491431D
:100E3000404A1160114649683F22120491433D4ADD
:100E40005160114649680909090151601146096B51
:100E5000FF2254329143374A11631146496B4908C6
:100E60004900516300219160114609680122120472
:100E70009143304A1160002007E02E490968890734
:100E8000C90F002900D004E0401C05210902884256
:100E9000F3D300BF274909688907C90F002947D044
:100EA00027490968102291431031254A11601146E3
:100EB0000968C908C900491C11601E494968F02227
:100EC00091431C4A5160114649680722120291431E
:100ED000184A5160114649680322D2039143154ACA
:100EE0005160114649680F22920491430522D204B1
:100EF0008918104A5160114609680122120691436F
:100F000089180C4A116000BF0A4909688901C90F94
:100F10000029F9D00749496889088900891C054AD0
:100F2000516000BF034949680907890F0229F9D1B7
:100F300070470000001002400CB8FF08FFFFF6FEEB
:100F40000020024010B513480068C408601E124912
:100F5000884201D901200CE0601E1049486103213C
:100F6000081FFFF713FE00200C4988610320086169
:100F70000020002801D000BFFEE70848406908496A
:100F800008607D21C90006480068FFF725F905497A
:100F9000086010BD50000020FFFFFF0000E000E0EF
:100FA0002C0000203000002010B5044602480470D8
:100FB0000248FFF771FA10BD04000020C10F0008BD
:100FC000F0B585B006460F460124012004900020AC
:100FD0000390029001900090B606B60EBF06BF0EB9
:100FE000002550E0FFF7E8FEA006800E002800D1A3
:100FF00045E03046204000281FD068002449085AA8
:10100000022803D101202349087007E06800204925
:10101000085A022802DD02982043029068001C4909
:10102000085A1E282ADB00982043009000982028A8
:1010300024D002201749087020E0384620400028BC
:1010400010D03046204000280CD101982043019058
:1010500010480078012802D1039820430390002013
:101060000C49087020202040002807D0680008495B
:10107000085A022802DB03982043039000BF681C33
:10108000C5B26006040E082DACDB049805B0F0BDB7
:101090006C0800200500002070B506460C460120B3
:1010A000C0032040002814D00B48007800F012FC48
:1010B000054607E0284600F0D3FB0748007800F01B
:1010C00009FC0546002DF5D120460121C903484001
:1010D00070BD0020FCE700000400002010B5FFF701
:1010E0008FFEFFF72FFF10BD7CB504460D4609208B
:1010F000C006844204D101204004FFF78DFD05E0C5
:101100000948844202D10002FFF786FD6846058047
:10111000002181700321017101214171694620463E
:10112000FFF761F97CBD0000000400481CB50120F8
:101130004004FFF771FD01208004FFF76DFD0120E1
:101140008005FFF769FD9F210902684601800121A2
:1011500081700021C1700321017102214171694632
:101160000920C006FFF73FF9FF21F93168460180E9
:1011700069460E48FFF737F9032168460180694642
:101180000B48FFF730F9FF20F93008498861032048
:10119000074988611F2000020921C90688610121D1
:1011A000C9030920C006FFF76DF91CBD0004004803
:1011B0000014004810B5FF2000F030FAFFF78EFF52
:1011C0000020FFF7D7FCFFF75FF900F017FAFF20C8
:1011D00000F031FA0220FFF7CDFC00F037FC0020D0
:1011E00010BD000010B50446024804700248FFF725
:1011F00053F910BD06000020FD110008F0B585B0C0
:1012000006460F460124012004900020039002901E
:1012100001900090B606B60EBF06BF0E00254DE049
:10122000FFF7CAFDA006800E002800D142E030463C
:10123000204000281FD068002349085A022803DBF9
:1012400001202249087007E068001F49085A022857
:1012500002DD02982043029068001B49085A1E28AC
:1012600027DB0098204300900098202821D00220FE
:10127000164908701DE03846204000280DD0304641
:101280002040002809D111480078012802D1039894
:101290002043039000200D490870202020400028A2
:1012A00007D068000849085A022802DB0398204347
:1012B000039000BF681CC5B26006040E082DAFDBAA
:1012C000049805B0F0BD00006C0800200B00002061
:1012D00070B506460C460120C0032040002814D0FB
:1012E0000B48007800F0F6FA054607E0284600F0C3
:1012F000B7FA0748007800F0EDFA0546002DF5D161
:1013000020460121C903484070BD0020FCE70000D1
:1013100006000020F7B5074616463846019900F04A
:1013200053F80446002C02D0A6802046FEBD0C20B7
:1013300000F08EF90446002C17D027720198E08047
:10134000A68000202060608109480068002802D142
:101350000748046007E00648056800E02D68286833
:101360000028FBD12C602046E0E70020DEE70000EB
:101370001400002010B504460E48008800190D49DD
:101380000880084600887D21C900884211DB094891
:101390000088FEF72BFF08490968401806490860D5
:1013A0007D21C90003480088FEF720FF88B201496B
:1013B000088010BD1C00002020000020002801D063
:1013C0000021C180704700000246074B186807E003
:1013D000C3888B4203D1037A934200D102E00068B4
:1013E0000028F5D100BF70471400002010B500247C
:1013F000062000F02DF90A4908600622002108485D
:10140000006800F023FA2046641CFFF775FB2046B5
:10141000641CFFF7E7FE2046641CFFF7C5FD10BD06
:101420000000002070470000FEB500BF20480068A3
:10143000019020480068009000BF0024012080F344
:10144000108800BF00BF1C4887691C480668002040
:101450001A49086000BF00BF84F3108800BF00BFB6
:101460001748006880191649086008460068104946
:10147000086014490968C81B13490968FEF7ACFEE7
:101480000C4908600A4801880198081A7D21C900A2
:1014900048430849098841180098081A85B2002D68
:1014A00005D02846FFF766FF284600F015F8FEBD78
:1014B000340000203800002000E000E0240000207C
:1014C000280000202C0000203000002000200149CE
:1014D0000860704718000020F8B5064600BF0020DD
:1014E00000900120FFF786FC00BF2D48006880199E
:1014F0002B49086000BF0098FFF77CFC00BF29481B
:10150000006800284AD027480468002744E00025E6
:1015100000BF002000900120FFF76CFC00BFA088F6
:10152000B04202DC0020A08002E0A088801BA080E6
:10153000A08800280BD16089002808D0E088002806
:1015400005D0E188207A00F05DFA6089A080A0884B
:10155000002802D0E08800280AD1002F03D11149C9
:101560002068086001E0206838602546246801E0B2
:101570002746246800BF0098FFF73CFC00BF002D01
:1015800009D0A888002803D1E988287A00F03AFA1F
:10159000284600F0E1F800BF002CB8D1F8BD0000EB
:1015A0001800002014000020014800687047000067
:1015B0001800002070B504460D460E48007884429D
:1015C00015DA00BF00260120FFF70EFC00BF600007
:1015D00009490968085AA8436100074A126850522D
:1015E00000BF3046FFF700FC00BF012070BD0320A4
:1015F000FCE70000D01A00080000002010B500F041
:10160000DFF8002004490860FFF760FFFFF7EEFEF7
:1016100000F0F8F8012010BD0C00002010B50446C1
:10162000FF2C06D100BF0120FFF7DEFB00BF012029
:1016300010BD0720FCE710B50446FF2C06D100BF03
:101640000020FFF7D1FB00BF012010BD0720FCE701
:10165000F8B50546002600200090281D85B2A80791
:10166000800F002803D00421091A49198DB200BF48
:1016700000270120FFF7BBFB00BF3448007800289B
:1016800001D0102D02D83248046800E0314C00BF70
:1016900020880004C00F002802D0002000901CE029
:1016A0000098002810D03088218840184004400C51
:1016B0003168C90BC9030843306030884004400CCE
:1016C000A8420ADB344612E020884004400CA842BD
:1016D00000DB0CE001200090264620884004400CEE
:1016E00004192088002801D1002400E0D0E700BFC1
:1016F000002C23D021884904490C491B88B20828B2
:1017000006D3611908800122D2032A43228005E012
:101710000122D20321689143891821600B4909787D
:10172000002909D00A490968A14205D12188490444
:10173000490C0919064A1160241D00BF00BF384634
:10174000FFF755FB00BF2046F8BD00001100002048
:1017500054080020C802002070B505462C1F00BFA9
:101760001448854202D31448854201D3FFF745FB54
:1017700000BF00BF20880004C00F002801D1FFF780
:101780003CFB00BF00BF00260120FFF730FB00BF7D
:101790000121C90320688843206008480068A042EE
:1017A00001D90648046000BF3046FFF720FB00BFA8
:1017B00070BD000054000020540800205408002090
:1017C00000BF00BF00BF00BF00BF00BF002008492E
:1017D00088870848084908602720000109680880B0
:1017E000064807490886B120C00088867047000077
:1017F0001408002054000020540800200480000039
:101800009402002070B50120FFF722FF044600BFBC
:10181000002C01D1FFF7F1FA00BF00BF0025012025
:10182000FFF7E5FA00BF201F064908602046FFF7D2
:1018300093FF01200449087000BF2846FFF7D7FA3C
:1018400000BF70BD540800201100002070B5044690
:101850000D461646324629462046FEF78FFC70BDDF
:1018600070B50446002C01D1052070BD2046083813
:101870008079FF2801D00420F7E72546083D284657
:10188000FFF76AFF0120F0E7F8B505460C4616465B
:1018900000BF00270120FFF7A7FA00BF2868A04279
:1018A00004D120468038806F286005E020468038CB
:1018B000816F3046803881670021204680388167FB
:1018C000FF217830817100BF3846FFF78DFA00BFE5
:1018D000F8BD0000F8B5064600200090002500BFC6
:1018E00000270120FFF780FA00BF184804680FE0C6
:1018F000204608388079B04204D1002D01D1254618
:1019000000E007E0002D00D1009420468038846F6D
:10191000002CEDD100BF002C05D00121C9033046B9
:1019200000F070F804E00121C9033046FFF742FEE1
:10193000002D04D029460548009AFFF7A5FF00BFF7
:101940003846FFF751FA00BF2846F8BD0C000020CA
:1019500070B50024FFF768FDFFF70AF9FFF762FD95
:1019600000BF600023490968085A002800D006E03B
:10197000601CC0B20446204909788842F1DB00BFF0
:101980001D480078844234DA00BF00260120FFF7AA
:101990002BFA00BF6000174909680D5A002061004A
:1019A000144A1268505200BF3046FFF71DFA00BFBC
:1019B00012480470A00012490A5829462046904750
:1019C0000546FF200D49087000BF00BF0120FFF74A
:1019D0000BFA00BF600007490968085A28436100F4
:1019E000044A1268505200BF3046FFF7FDF900BFAD
:1019F00000BF70BD00000020D01A000810000020B9
:101A0000C41A000870B504460D460E48007884429A
:101A100015DA00BF00260120FFF7E6F900BF6000DD
:101A200009490968085A28436100074A1268505258
:101A300000BF3046FFF7D8F900BF012070BD03207A
:101A4000FCE70000D01A00080000002000BFFFF7EC
:101A50007FFFFCE7F7B506460F4600BF00250120D3
:101A6000FFF7C8F900BF39463046029AFFF752FC2B
:101A7000044600BF2846FFF7BDF900BF002C01D087
:101A80000120FEBD0820FCE7F8B506460F4600BF62
:101A900000250120FFF7AEF900BF39463046FFF7B9
:101AA00093FC0446002C02D02046FFF787FC00BFC1
:101AB0002846FFF79FF900BF002C01D00120F8BD98
:101AC0000620FCE7050B0008D11200089910000859
:101AD00003000000F41A000800000020580800006D
:101AE0009C030008101B000858080020C8100000C4
:101AF0000001000801110238FF923204FF6CDC0281
:101B000001FF01FF01FF01FF01FF01FF01FF0115BF
:04000005080000BD32
:00000001FF
