:020000040800F2
:10000000081B00208D010008751B000887190008D7
:1000100000000000000000000000000000000000E0
:10002000000000000000000000000000411D00086A
:100030000000000000000000CD1C0008451D000865
:100040009F0100089F0100089F0100089F01000810
:100050009F0100089F0100089F0100089F01000800
:100060009F010008C50E00089F0100089F010008BD
:10007000450800089F0100089F010008FD1E0008B8
:100080000D1F00089F01000800000000C11E0008AD
:100090009F0100089F0100089F0100089F010008C0
:1000A0009F0100089F0100089F0100089F010008B0
:1000B0009F010008000000009F01000800F002F806
:1000C00000F038F80CA030C8083824182D18A246C3
:1000D000671EAB4654465D46AC4201D100F02AF89B
:1000E0007E460F3E0FCCB6460126334200D0FB1AA7
:1000F000A246AB4633431847F05A0000105B00009D
:100100000023002400250026103A01D378C1FBD833
:10011000520700D330C100D50B60704710B5642979
:1001200002D100F065F810BD002010BD1FB51FBD45
:1001300010B510BD00F02DFB1146FFF7F7FF04F0DE
:10014000C3FA00F045FB03B4FFF7F2FF03BC00F075
:1001500047FB000070B505460C46164602E00FCC82
:100160000FC5103E102EFAD2082E02D303CC03C5C1
:10017000083E042E07D301CC01C5361F03E02178C9
:100180002970641C6D1C761EF9D270BD074880472B
:1001900007480047FEE7FEE7FEE7FEE7FEE7FEE76B
:1001A00004480549054A064B70470000391E0008FF
:1001B000BD000008080B0020081B002008130020C9
:1001C000081300200FB41CB5084B06AA7B446946EF
:1001D0000090059800F0ABFA04460020694600F054
:1001E000B9FA20461CBC08BC04B0184785050000BD
:1001F000F7B5002575291068009914A611D0C046DE
:10020000C046002802DA404211A608E000990968B9
:100210008A0701D50FA602E0490704D50EA60125DD
:1002200001E0C046C046009F0024243704E000F0EF
:1002300096FA30313955641C0028F8D12B463246E5
:100240002146009800F016FAFEBD000000000000F4
:100250002D0000002B00000020000000F3B5044634
:10026000002081B020622046E1688847002872D0D3
:10027000252802D06268A168ABE0594F00267F4470
:100280002046E16888472028054608DB312D06D244
:10029000781920380078002801D00643F0E7B0072D
:1002A00001D5042086430020E0610746A0612A2D85
:1002B0000AD0284602F03DFA002827D0B8000019DD
:1002C000303D0090856119E00298BA00121902C809
:1002D000916102902046E1688847012F054617D1B9
:1002E000E06900281FDA202086431CE000980A21DC
:1002F0008069484300994019303888612046E16898
:100300008847054602F015FA0028EFD1012F0AD0E0
:100310002E2D08D12046E168884705462020064357
:100320007F1C022FC3DBA069002803DA4042A061D2
:1003300001200643F00701D0102086436C2D0BD01E
:10034000682D09D04C2D3CD06A2D38D0742D38D072
:100350007A2D36D016E040E0E1682F4620468847E7
:10036000B842054609D16C2F29D001208002E168EE
:10037000064320468847054604E06C2F1DD0FF2029
:1003800001300643002D28D028464138192803D8CB
:100390000120C00206432035204626602946029AE5
:1003A0001646FFF7BBFE002810D001280BD0F61D23
:1003B000F008C0000830029055E74020E1E78020B7
:1003C000D5E70020D3E7361D02964CE76268284641
:1003D000A1689047206A401C44E7206AFEBD0000E7
:1003E00054590000034670B502460B439B070FD1DA
:1003F0000E4CE60100E008C208C91D1B9D433542B2
:10040000F9D0D9B21170521C00290DD01B0AF8E79F
:100410000B78491C1370521C002B05D00B78491C1B
:100420001370521C002BF3D170BD000001010101BB
:10043000134610B50446CAB21946100282181004B9
:100440008218204600F00FF8204610BD01E004C0DD
:10045000091F0429FBD28B0701D50280801CC90724
:1004600000D00270704700290BD0C30702D0027081
:10047000401C491E022904D3830702D50280801C38
:10048000891EE3E70022EEE70022DFE7024670B5AF
:100490000A4392072AD11E4DEE0104C808C9541B15
:1004A0009443344017D0D0B2D9B2401A2106014348
:1004B00010D190B299B2401A210401430AD110021E
:1004C0001902000A090A401A2102014302D1100E42
:1004D000190E401A70BD9A42DFD010BA19BA88427C
:1004E00001D9012070BD0020C04370BD02780B7897
:1004F000401C491C002A09D09A4207D102780B7887
:10050000401C491C002A01D09A42EFD0D01A70BD7D
:1005100001010101002203098B422CD3030A8B4203
:1005200011D300239C464EE003460B433CD40022EB
:1005300043088B4231D303098B421CD3030A8B42FD
:1005400001D394463FE0C3098B4201D3CB01C01ACB
:10055000524183098B4201D38B01C01A5241430996
:100560008B4201D34B01C01A524103098B4201D384
:100570000B01C01A5241C3088B4201D3CB00C01AF1
:10058000524183088B4201D38B00C01A5241430869
:100590008B4201D34B00C01A5241411A00D201468E
:1005A0005241104670475DE0CA0F00D04942031027
:1005B00000D34042534000229C4603098B422DD376
:1005C000030A8B4212D3FC22890112BA030A8B421E
:1005D0000CD3890192118B4208D3890192118B426D
:1005E00004D389013AD0921100E08909C3098B42F2
:1005F00001D3CB01C01A524183098B4201D38B0135
:10060000C01A524143098B4201D34B01C01A5241D7
:1006100003098B4201D30B01C01A5241C3088B421C
:1006200001D3CB00C01A524183088B4201D38B0007
:10063000C01A5241D9D243088B4201D34B00C01A91
:100640005241411A00D20146634652415B101046A6
:1006500001D34042002B00D54942704763465B10EE
:1006600000D3404201B50020C046C04602BD7047DD
:1006700070477047FFB504460D4681B024300090A6
:100680002168880604D51022E0699143216000E0CA
:100690000120A84201DD471B00E000270498A16962
:1006A0007A191018081AA0612078C00602D42046D2
:1006B000C046C046002608E003986268A168805DD5
:1006C0009047206A401C761C206204988642F3DB27
:1006D0002078C0060AD52046C046C04606E06268BB
:1006E000A16830209047206A401C206238467F1E57
:1006F0000028F4DC07E000986268A168405D90473C
:10070000206A401C206228466D1E0028F3DC20462B
:10071000C046C0462078000602D5022005B0F0BDD4
:100720000120FBE701694A1C02610878704700B5A7
:100730008FB00291002105910549019379440391FD
:10074000114604906846FFF789FD0FB000BD000018
:10075000E5FFFFFF0A681070521C0A6070470146EF
:100760008008081A02091018020A1018020C101842
:10077000C008820012185200891A01E0401C0A3990
:100780000A29FBD27047000000487047A40A0020E5
:1007900070477546FFF7F8FFAE46050069465346B9
:1007A000C008C000854618B020B5FFF7F9FC60BC52
:1007B00000274908B6460026C0C5C0C5C0C5C0C58B
:1007C000C0C5C0C5C0C5C0C5403D49008D467047C5
:1007D00010B50446C046C0462046FFF7B4FC10BD25
:1007E00001491820ABBEFEE72600020070B58C1848
:1007F0000578401C6B075B0F01D10378401C2A1160
:1008000006D10278401C03E00678401C0E70491C9B
:100810005B1EF9D12B0705D40023521E0DD40B709B
:10082000491CFAE70378401CCB1A921C03E01D78A0
:100830000D70491C5B1C521EF9D5A142D8D3002073
:1008400070BD00000D480088401C0C4908800C4811
:1008500000680421084000280CD009484030006896
:10086000084909784900084A505206480078401C57
:1008700004490870FF200249086070473A000020D0
:100880000024014035000020540900202349C96894
:10089000182291430278D20018231A4011431F4AAC
:1008A000D1601146C9682022914342785201202329
:1008B0001A401143194AD1601146C9680422914374
:1008C0008278920004231A401143144AD1601146E1
:1008D000C96852149143C2785203DB021A40114393
:1008E0000E4AD1601146C9680322920291434279AF
:1008F000920203239B021A401143084AD160114619
:10090000C968FF22C132914302799201FF23C133AA
:100910001A401143014AD160704700000024014091
:10092000044A926A0243034B9A621A4652690A4386
:100930005A617047002401400021017041708170AC
:10094000C1700171417170470348806840084000E0
:10095000401C0149886070470024014002494968F1
:100960000143014A516070470024014010B5002046
:10097000002100220F4B9B685B005B080124E40709
:100980001B190C4CA36000BF0A4B9B68DA0F491C73
:100990000F231B03994201D0002AF5D1054B9B6818
:1009A000DB0F002B03D1034B4033186800E000201D
:1009B00010BD000000240140024601200006104046
:1009C000002805D00748816801231B06994301E0F0
:1009D0000448016808461040002801D001207047F3
:1009E0000020FCE70024014010B50120400201F086
:1009F0009FF90120400201F073F910BD00B51148C4
:100A0000007800281DD002F009FA01460E4800883F
:100A1000814202DB0C48018007E00C4800888142DB
:100A200002DC0A48018000E000BF074A1288074B39
:100A30001B88D018C20F1218D203120C044B1A8054
:100A400000BF00BD800000207C0000207E00002050
:100A500018000020002803D00121034A117002E091
:100A60000021014A1170704780000020002802D048
:100A7000082800D000BF704710B5302004F07AFD80
:100A8000E6490860E6A1E5480068FFF7ABFC0020F6
:100A9000E249096808610120E049096808750020F9
:100AA000DE4909688861DD490968C861DB49096870
:100AB0000862DA4909684862302004F05BFDDB49CE
:100AC0000860DBA1D9480068FFF78CFCDB48D749F8
:100AD000096808610120D54909680875CF48006890
:100AE000D249096888610020D0490968C861CF49A6
:100AF000096808620120CD4909684862302004F085
:100B000039FDCF490860CAA1CD480068FFF76AFCEB
:100B1000CA48CB49096808610120C94909680875B4
:100B2000C2480068C649096888610020C44909684C
:100B3000C861C349096808620220C149096848625E
:100B4000302004F017FDBF490860BFA1BD48006810
:100B5000FFF748FCB948BB49096808610120B94959
:100B600009680875B6480068B649096888610020B8
:100B7000B4490968C861B349096808620320B149EA
:100B800009684862302004F0F5FCB2490860B2A15F
:100B9000B0480068FFF726FCA848AE49096808611C
:100BA0000120AC4909680875A5480068A949096889
:100BB00088610020A7490968C861A64909680862D8
:100BC0000320A44909684862302004F0D3FCA549F9
:100BD0000860A5A1A3480068FFF704FC9748A14955
:100BE0000968086101209F490968087594480068F0
:100BF0009C490968886100209A490968C861994937
:100C0000096808620320974909684862302004F0A7
:100C1000B1FC9849086098A196480068FFF7E2FB8C
:100C20008648944909680861012092490968087555
:100C3000834800688F490968886100208D490968E8
:100C4000C8618C490968086203208A4909684862BA
:100C5000102004F08FFC7A490968C861794800685F
:100C600077490968C96908607A4800687449096861
:100C7000C96948607B48006871490968C96988602A
:100C80007C4800686E490968C969C86004206C49DD
:100C900009680862302004F06DFC7A4908607AA186
:100CA00078480068FFF79EFB644876490968086148
:100CB00001207449096808755C4800687149096831
:100CC000886100206F490968C8616E490968086237
:100CD00002206C4909684862302004F04BFC6D49E1
:100CE00008606DA16B480068FFF77CFB53486949B9
:100CF0000968086101206749096808754B48006860
:100D0000644909688861002062490968C8616149CD
:100D10000968086202205F4909684862302004F0CF
:100D200029FC6049086060A15E480068FFF75AFB33
:100D300042485C490968086101205A4909680875F8
:100D40003A48006857490968886100205549096890
:100D5000C86154490968086202205249096848621A
:100D6000302004F007FC5349086053A15148006843
:100D7000FFF738FB31484F490968086101204D49A8
:100D800009680875294800684A490968886100208F
:100D900048490968C861474909680862022045490D
:100DA00009684862142004F0E5FB20490968C8611D
:100DB000234800681D490968C9690860314800680E
:100DC0001A490968C96948603248006817490968C2
:100DD000C96988603348006814490968C969C860EE
:100DE0003448006811490968C969086105200F493C
:100DF00009680862042004F0BDFB08490968C8615D
:100E00000A48006805490968C96908600120034962
:100E1000096808620148006810BD0000C000002099
:100E2000526F6F74204D656E75000000C400002085
:100E3000626173696373657400000000E94E000825
:100E4000C8000020CC00002046696E4531323334A2
:100E500000000000D000002020687370313233346D
:100E600000000000D40000206D656761313233342A
:100E700000000000D80000207375707231323334E6
:100E800000000000DC0000202041747420736574B1
:100E900000000000E00000202053544120736574DE
:100EA00000000000E40000202020202020456E6487
:100EB00000000000E8000020202020456E64202073
:100EC00000000000034840680121084301494860D0
:100ED000704700000000024030B504460B200004BB
:100EE00000F07AF80546002D19D10E48006902215C
:100EF0008843801C0B490861084644610069402111
:100F000088434030074908610B20000400F064F872
:100F100005460448006902218843024908612846C1
:100F200030BD000000200240034800698021884352
:100F300080300149086170470020024070B50446C6
:100F40000D460120400300F047F80646002E1BD155
:100F50000E48006940084000401C0C49086125808B
:100F60000120400300F038F80646002E06D1280C78
:100F700060800120400300F02FF806460348006916
:100F80004008400001490861304670BD0020024021
:100F900000200A4AD16804220A40002A01D0022017
:100FA0000AE010220A40002A01D0032004E0CA0708
:100FB000D20F002A00D0012070470000002002401C
:100FC0000248034948600348486070472301674569
:100FD00000200240AB89EFCD00B5034600BFFFF70C
:100FE000D7FF5B1E012801D1002BF8D1002B00D1C7
:100FF000042000BD10B594B02C4B0A220AA93E2053
:1010000001F07CFE0446002C11D1282228496846B4
:10101000FFF7A0F80A2269463E2001F0B5FE234BF7
:101020000A220AA93E2001F069FE044600BF0A9880
:1010300040B22049087020490B9808801F490C983D
:1010400008701F490D98087008460178002002F0CA
:10105000FFFA1B480078002818D0012810D0022879
:1010600002D0032818D105E016480068164909681F
:10107000886211E0154800681349096888620BE02E
:101080001348006810490968886205E01148006843
:101090000D490968886200BF00BF0F490E980860BB
:1010A0000F9840B20D49087014B010BDEEEEEEEE90
:1010B000305B000816000020180000201A000020F5
:1010C0001B000020CC000020C8000020D000002021
:1010D000D8000020D40000201C00002017000020B1
:1010E00030B595B000242A4B0A220BA93E2001F00E
:1010F00005FE0546002D01D115B030BD2549002261
:101100008A560B98904200D00124234909880C98F4
:10111000884200D00124214909780D98884200D0E6
:1011200001241F4909780E98884200D001241D49E6
:101130000F980968884200D001241B4900228A5672
:101140001098904200D00124002C1ED0282217496C
:1011500001A8FEF7FFFF0F480021415601910E48FC
:10116000008802900D48007803900D4800780490A4
:101170000C48006805900C480021415606910A224F
:1011800001A93E2001F000FE00BF00BFB4E700004F
:10119000EEEEEEEE16000020180000201A000020EF
:1011A0001B0000201C00002017000020085B000826
:1011B0008162704770B50A4600213DE001238B40F3
:1011C00014881C40002C00D135E09478012C02D00A
:1011D0009478022C16D184684E000325B540AC43A8
:1011E000846014794D00AC4085682C438460446869
:1011F000D5788D40AC4344604468D5788D40ADB21D
:101200002C43446005684E000324B440A5430560A8
:1012100094784D00AC4005682C430460C4684E00CF
:101220000325B540AC43C46054794D00AC40C5685B
:101230002C43C46000BF491C1029BFD370BDF0B55A
:101240000023002407290DDC8E001546B5402B46EF
:10125000056A8F000F26BE40B5430562056A1D432F
:1012600005620EE04D07EE0E1546B5402C46456A68
:101270004E07F70E0F26BE40B5434562456A25432B
:101280004562F0BD024613690B40002B01D00123DB
:1012900000E00023184670478161704710B500F0E8
:1012A00097F900F027F802F0EDFD10BD70B5054686
:1012B000002400BF0BE0A0000C490858002800D013
:1012C00003E0A00009490D5003E0601CC4B2052CE6
:1012D000F1DB00BF052C06DA01210548007804F097
:1012E00023FB012070BD0020FCE700003C0A002029
:1012F0001C01002010B5002407E000201949085502
:10130000A100194A5050601CC4B2052CF5DB002422
:1013100008E000206100154A50526100144A505202
:10132000601CC4B2082CF4DB08210920C00602F0BE
:1013300063FD04210920C00602F05EFD02210920A0
:10134000C00602F059FD01210920C00602F054FD3B
:101350000421084802F050FD10210920C00602F0C7
:101360004BFD10BD200100203C0A0020500A002047
:10137000600A002000040048FEB50020019000240F
:10138000009008210920C006FFF77CFF002801D14A
:101390000120044304210920C006FFF773FF002841
:1013A00001D10220044302210920C006FFF76AFF91
:1013B000002801D10420044301210920C006FFF7C1
:1013C00061FF002801D10820044304214948FFF7A8
:1013D00059FF002801D11020044310210920C00624
:1013E000FFF750FF002801D12020044301260025EB
:1013F00016E001F07DF92046304000280CD068004E
:101400003D49085A3D49884206DA68003A49085A77
:10141000401C6900384A5052681CC5B27006060E5E
:10142000082DE6DB00251DE0A800354908580028F6
:1014300000D115E03348405D019032484455A80082
:101440002F490B58304802682046019998470746B3
:10145000002F01D12B49485500983843009000BF18
:10146000681CC5B2052DDFDB012600250CE001F06C
:101470003FF920463040002802D169001E4A5052F0
:10148000681CC5B27006060E082DF0DB002018E0BF
:101490004100194A515A00290DD141001B4A515AA5
:1014A000164A91420BDA4100184A515A491C42002F
:1014B000164B995203E000214200144B9952411CF3
:1014C000C8B20828E4DB0098002808D00E4800883D
:1014D00082B201210E48007804F06BFA09E0012184
:1014E0000B48007804F07FFA01210948007803F0E6
:1014F000F3FFFEBD00040048500A0020FFFF00007B
:101500003C0A00202001002028010020600A002061
:101510001C010020FFB581B005461746002D48D0BC
:10152000002F46D00498002843D0642F3CDA0126CF
:101530002D072D0F224C2AE028463040002823D0CA
:101540002078022808DA30461E49097808401E49EA
:10155000097808431C490870002020700498A08076
:10156000A770029860700298002803D120780421A7
:101570000843207003F0AAFFA060207802210843EE
:1015800020702846704005467006060E0C34002D6B
:10159000D2D102210D48007804F025FA02210B482F
:1015A000007804F0C1F908E00121284600F0CAF8EB
:1015B00003E00021284600F0C5F805B0F0BD0000AA
:1015C000700A00202C0100202E0100201C010020A8
:1015D0001CB50120800400F08BFB0120400400F0CA
:1015E00087FB082168460180012181700021C170BC
:1015F000032101710021417169462048FFF7DAFD9E
:10160000102168460180012181700021C1700321F1
:1016100001710021417169461848FFF7CBFD202177
:1016200068460180012181700021C1700321017190
:101630000021417169461148FFF7BCFDFF210131CE
:1016400068460180012181700021C1700321017170
:101650000021417169460920C006FFF7ABFDFF215B
:1016600001310920C006FFF7A3FD00210F2000F083
:1016700069F80021024801741CBD00000004004804
:10168000900A002070B504460D46E007C00F002800
:101690000DD0012D05D100BF08212848FFF788FD96
:1016A00005E000BF08212548FFF7F6FD00BF022036
:1016B000204000280DD0012D05D100BF10211F486A
:1016C000FFF776FD05E000BF10211C48FFF7E4FDA1
:1016D00000BF0420204000280DD0012D05D100BFFF
:1016E00020211648FFF764FD05E000BF20211348C4
:1016F000FFF7D2FD00BF0820204000280DD0012DAB
:1017000005D100BF08210D48FFF752FD05E000BFDD
:1017100008210A48FFF7C0FD00BF002D05D008488A
:10172000007820430649087007E02046FF21484022
:101730000349097808400249087070BD0004004858
:101740002C010020F8B505460E46330000F0DAFF04
:1017500009171606360E3636361836007D23DB009E
:10176000052201212846FFF7D5FE28E07D23DB0076
:10177000052232212846FFF7CDFE20E000BF00BF42
:1017800001272D072D0F104C15E028463840002862
:101790000ED0082E01D0267003E0207801214840A9
:1017A000207021783846FFF76DFF284678400546BF
:1017B0007806070E0C34002DE7D100E000BF00BF13
:1017C00002480078F8BD0000700A00202C010020BB
:1017D000FEB5002701250F200190494C20462030FE
:1017E000007C00287ED17BE001982840002874D03E
:1017F00020780221084000286CD003F067FE0646DE
:10180000A168B14259D82078C007C00F002815D070
:10181000A0786421081AC0B20290207840084000E5
:10182000207000212846FFF72DFF20780421084072
:10183000002819D16078401E607015E0607800289B
:1018400009D1207804210840002804D12078022101
:101850004840207008E0A0780290207801210843D9
:1018600020702846FFF70EFF20780221084000284C
:101870000CD0A188029A514308466421FEF74AFE23
:1018800080B2009000983018A0601AE0002000900C
:101890001C4800782840002801D0012000E00020EA
:1018A00001462846FFF74EFF2846FF2148401549CC
:1018B000097808401349087003E02089801B80B232
:1018C0000090002F05D00098002803D00098B8425F
:1018D00000DA009F0198684001906806050E0C34FC
:1018E000019800E00AE0002800D07DE7002F05D035
:1018F0003A4602210448007804F05BF8FEBD00007F
:10190000700A00202E0100201C01002001490870EF
:10191000704700001C01002070B506460C460120EF
:10192000C0032040002814D01548007803F064FF5D
:10193000054607E0284603F025FF1148007803F02C
:101940005BFF0546002DF5D120460121C903484023
:1019500070BD02202040002805D0FFF739FF204647
:1019600002214840F4E7E007C00F002805D0FFF748
:1019700003FD204601214840EAE70020E8E7000097
:101980001C0100207047704710B50446002C04D19C
:10199000FF2003F0D5FDFFF769F810BD014800787E
:1019A0007047000080000020034948600860002163
:1019B000014A117270470000300A00200148007A85
:1019C00070470000300A00200548007A002805D141
:1019D000034840680249086001200872704700000F
:1019E000300A00200548007A002805D003484068E6
:1019F000024908600020087270470000300A002089
:101A000010B504460C4800688069002812D00220F6
:101A100000F034F8002C05D0074800680649096832
:101A20008969886204480068806903490860012068
:101A300000F024F810BD0000300A002010B50E4858
:101A40000068006A002816DD022000F017F80A4836
:101A50000068806A002805D007480068806A064947
:101A6000086005E004480068C06900680249086031
:101A7000012000F003F810BD300A002010B5044624
:101A800009480068006900280DD007480068007DFB
:101A9000002808D00448006820300473024A106807
:101AA00012681169884710BD300A00200548006897
:101AB000002803D003480068406A70470020C043F4
:101AC000FBE70000300A002070B513480068846905
:101AD000002C00D170BD0220FFF7D0FF002515E0DB
:101AE000A900E06940580C49096888420DD1681C7A
:101AF000216AFEF719FD0E46B100E069405806491B
:101B000008600120FFF7BAFF03E06D1C206AA842BD
:101B1000E6DC00BF00BFDDE7300A002070B51448E6
:101B200000688469002C00D170BD0220FFF7A6FF79
:101B3000002517E0A900E06940580D49096888426E
:101B40000FD16A1E236AD0181946FEF7EDFC0E4627
:101B5000B100E0694058064908600120FFF78EFF98
:101B600003E06D1C206AA842E4DC00BF00BFDBE795
:101B7000300A002070470000C206D20E01219140B9
:101B8000014A11607047000000E100E070B50446B2
:101B90000D462946204600F00BF800BFE106C90EAD
:101BA000012088400149086000BF70BD00E100E0ED
:101BB00010B5002819DA1A4A03071B0F083B9B08C7
:101BC0009B00D2588307DC0EFF23A3409A438B0768
:101BD0001B0E8407E40EA3401A43114B0407240F85
:101BE000083CA408A4001A5118E00E4A03231B0263
:101BF000D21883089B00D2588307DC0EFF23A34032
:101C00009A438B071B0E8407E40EA3401A43054B2F
:101C1000032424021B198408A4001A5110BD0000DB
:101C20001CED00E000E100E010B5002819DA1A4AC6
:101C300003071B0F083B9B089B00D2588307DC0E51
:101C4000FF23A3409A438B071B0E8407E40EA34097
:101C50001A43114B0407240F083CA408A4001A518E
:101C600018E00E4A03231B02D21883089B00D258A7
:101C70008307DC0EFF23A3409A438B071B0E8407C8
:101C8000E40EA3401A43054B032424021B198408C5
:101C9000A4001A5110BD00001CED00E000E100E0BE
:101CA0001CB50120800500F023F840216846018022
:101CB000012181700021C170032101710021417156
:101CC00069460920C006FFF775FA1CBD7047000081
:101CD000024909698143014A1161704700100240BD
:101CE0000249C9688143014AD1607047001002402F
:101CF000024949690143014A51617047001002409D
:101D00000249C9690143014AD1617047001002408C
:101D1000024909690143014A1161704700100240FC
:101D2000024989690143014A9161704700100240EC
:101D30000249C9680143014AD1607047001002405E
:101D40007047000002480068401C01490860704765
:101D500004010020344909680122120491438918C2
:101D6000314A1160002007E02F4909688903C90F33
:101D7000002900D004E0401C012109048842F3D36B
:101D800000BF294909688903C90F00294AD027499A
:101D90000968102291431031244A116011460968E4
:101DA000C908C900491C11601F494968F0229143C4
:101DB0001D4A5160114649680722120291431A4A8E
:101DC0005160114649680322D20391430122120453
:101DD0008918154A5160114649680F2292049143AF
:101DE000012212058918104A516011460968012222
:101DF0001206914389180C4A116000BF0A4909680C
:101E00008901C90F0029F9D0074949688908890063
:101E1000891C054A516000BF034949680907890FB9
:101E20000229F9D170470000001002400020024052
:101E300010B5FFF78FFF10BD10B51D4800684008B2
:101E40004000401C1A49086008464068194908408B
:101E50001749486008460068174908401449086057
:101E60000846006801218904884311490860084632
:101E700040683F21090488430D494860084640688E
:101E80000009000148600846006BFF215431884377
:101E9000074908630846406B40084000486300203B
:101EA0008860FFF7C5FF0120C0060449886010BDA7
:101EB000001002400CB8FF08FFFFF6FE00ED00E046
:101EC0000D48006902210840002806D0481F0A4931
:101ED000086120200921C906886107480069C007F8
:101EE000C00F002807D00120C0430349086120200B
:101EF0000921C906886270470020004010B500F033
:101F0000D1FC002001218907086110BD70B50024B3
:101F1000DF4800690221084000280ED0481FDC4934
:101F200008610124DB480078002806D0DA48806880
:101F300004218843001DD8498860D5480069C0073E
:101F4000C00F00287ED00120C043D1490861D3488A
:101F50000078401CD149087008460078032872D1E7
:101F6000CF48007804286FD1CE4800880428FAD1E1
:101F7000CD4800880128F6D100BFCC480088CB4965
:101F80004988CB4A914201DA012100E00021084052
:101F900080B2002824D0C5484088C4498988C44AF2
:101FA000914201DA012100E00021084080B20028BE
:101FB00002D0BE48408837E0BC480088BB498988C9
:101FC000BB4A914201DA012100E00021084080B2C1
:101FD000002802D0B548808826E0B448008823E075
:101FE000B2480088B1498988B14A914201DA012199
:101FF00000E00021084080B2002802D0AB480088F1
:1020000012E0AA484088A9498988A94A914201DA80
:10201000012100E00021084080B2002802D0A3483E
:10202000808801E0A14840880546A9006918A14AB6
:1020300012889300D21888180A21FEF76BFA064618
:102040009C4902E0DFE0DFE0CCE00E809748C088EA
:102050009949098840189849088008460088401026
:1020600008800846008893490988884229DB9248FD
:10207000008890490988401A9049088008460088DD
:102080008F490860084600688E4948438C490860BB
:102090008D498B480068FEF73DFA894908608B48F6
:1020A0000078C0008A4940184088844909888842DD
:1020B00008DA86480078C00085494018C0888549FC
:1020C00008605DE081480078C0008149085A7B497A
:1020D0000988884208DD7D480078C0007C494018A6
:1020E00080887C4908604BE0744800887949086022
:1020F00076480078C00076494018C088734909784E
:10210000C900734A89188988401A72490968484386
:10211000704908606D480078C000801840886B4A9C
:102120001278D2006A4B9A5A811A6A480068FEF700
:10213000F1F96849086065480078C00064494018B2
:10214000C08864490968884208D260480078C000A5
:102150005F494018C0885F49086011E05B4800781B
:10216000C0005B49401880885A490968884207D9ED
:1021700056480078C0005649401880885549086084
:102180005448006854490988884215D95348007852
:10219000002808D140210920C006FFF77DF8012062
:1021A0004F4908701DE040210920C006FFF700F8E4
:1021B00000204B49087014E048480078002808D1F6
:1021C00040210920C006FEF7F3FF002044490870B3
:1021D00007E040210920C006FFF75EF801204049D2
:1021E000087000BF3F4800682949C86200202B4999
:1021F00008702B4908702C4908802A490880002C57
:102200000AD13949088007E024480078022803D120
:10221000364800681E49C862002C03D01F48007869
:10222000314908801A48006904210840002802D07A
:10223000C84317490861164800690821084000286A
:1022400002D0C843124908611148006910210840B2
:1022500000281BD0C8430E490861104800780228A6
:1022600014D111480088401C0F4908801E4800887E
:10227000401C1D49088007480078002806D0064801
:10228000806804218843001D0349886070BD0000F8
:1022900000040040340000200024014028000020F9
:1022A000350000203A0000203800002054090020AA
:1022B000FFFF000004000020140000200C0000209C
:1022C00010000020E40C0000FF0F00001B000020A5
:1022D0003E00002008000020180000201A00002006
:1022E000490100202C000020360000203000002092
:1022F000CA4302617047000010B51F4A904202D0E5
:102300001E4A904212D1026810239A438B781B0117
:10231000102423401A430260026860239A438B789A
:102320005B105B01602423401A430260144A904210
:102330000AD0026803231B029A430B7A1B02032470
:10234000240223401A4302604A68C2620A888262F9
:10235000094A904208D00B4A904205D00A4A90425E
:1023600002D00A4A904201D14A7A02634269520875
:102370005200521C426110BD002C0140000400407C
:10238000001000400040014000440140004801406E
:10239000016849084900491C01607047C2680A4346
:1023A000C2607047416C0122D20391438918416495
:1023B0007047000010B5026A52085200026282693A
:1023C000920892008261826970239A430B781B0104
:1023D000702423401A438261026A02239A43CB7815
:1023E0005B00022423401A430262026A5208520030
:1023F0004B78DB07DB0F1A4302621D4A904208D07C
:102400001C4A904205D01C4A904202D01B4A90427E
:102410002BD1026A08239A430B79DB00082423405E
:102420001A430262026A04239A438B789B000424B5
:1024300023401A4302624268A3019A434260426801
:102440005B009A43426042685B109A434B791B02DF
:10245000A40123401A434260426863009A438B7987
:102460005B02640023401A4342600A89426310BD44
:10247000002C014000400140004401400048014060
:1024800010B5826908239A43CB00082423401A43DD
:10249000826110BD10B5026A10239A4302628269FC
:1024A00003231B029A438261826907231B039A4319
:1024B0000B781B030724240323401A438261026A1A
:1024C00020239A430262026A9A43CB785B0120245C
:1024D00023401A430262026A10239A434B781B017D
:1024E000102423401A4302621B4A904231D1026AEF
:1024F00080239A430262026A9A430B79DB018024AB
:1025000023401A430262026A40239A430262026A2B
:102510009A438B789B01402423401A43026242680D
:1025200003159A4342604268C3149A43426042686A
:1025300003159A434B799B02041523401A434260CA
:102540004268C3149A438B79DB02C41423401A43B4
:1025500042600A89826310BD002C014010B5826977
:102560000123DB029A43CB020124E40223401A43F5
:10257000826110BD10B5026AFF2301339A430262E3
:10258000C26992089200C261C26970239A430B78B3
:102590001B01702423401A43C261026A01235B02BB
:1025A0009A430262026A9A43CB785B020124640276
:1025B00023401A430262026A63109A434B781B025B
:1025C000641023401A4302621B4A904231D1026ACE
:1025D000C3149A430262026A9A430B79DB02C41461
:1025E00023401A430262026A03159A430262026A96
:1025F0009A438B789B02041523401A430262426877
:1026000083149A434260426843149A43426042688A
:1026100083149A434B791B03841423401A4342606A
:10262000426843149A438B795B03441423401A4352
:1026300042600A89C26310BD002C014010B5C26916
:1026400008239A43CB00082423401A43C26110BDDB
:1026500010B5026A01231B039A430262C269032375
:102660001B029A43C261C26907231B039A430B787A
:102670001B030724240323401A43C261026A012377
:102680005B039A430262026A9A43CB785B0301249C
:10269000640323401A430262026A63109A434B7830
:1026A0001B03641023401A430262094A90420BD173
:1026B0004268A3009A43426042689A434B799B0365
:1026C000A40023401A4342600A89026410BD00003E
:1026D000002C014010B5C2690123DB029A43CB02F2
:1026E0000124E40223401A43C26110BD41637047D4
:1026F00010B50120C002FFF70BFB0120C002FFF75D
:10270000E7FA10BD30B47446641E2578641CAB42F1
:1027100004D3635D5B00E31830BC18471D46F8E73F
:1027200080F31088704780F31088704780F310881A
:10273000704730380A2801D20120704700207047C6
:1027400070B5044600260A25324800680A2802D9D6
:1027500030480068451BAC421AD22F4800786428E4
:1027600000D101262C480078401C40B22A4908704C
:10277000084600214156642902DD6420264908707C
:102780002548002141562548007800F01BFF1EE037
:10279000AC421CD92049002008566430002800D1E2
:1027A00001261D480078401E40B21B4908700020D9
:1027B00008566321C943884202DA08461649087060
:1027C0001548002141561548007800F0FBFE1149DC
:1027D0000968601A002801DB014600E041420A292D
:1027E00009DC0F480078401CC0B20D4908700A2867
:1027F00004DD012602E0002009490870094800783C
:10280000401CC0B207490870962800DB01263046FC
:1028100070BD00001C000020170000201B000020DD
:10282000810000208200002070B5054619488542CD
:1028300004DD411C2846FDF777FE8DB20A212846AB
:10284000FDF772FECEB20A212846FDF76DFECCB22E
:102850002146072000F074F9032417E00A212846D6
:10286000FDF762FE85B2002D0AD00A212846FDF749
:102870005BFECEB2E11CC8B2314600F061F904E063
:10288000E11CC8B2002100F08BF9641E002CE5DCCD
:1028900070BD00000F27000001490870704700005C
:1028A00041010020F8B5FF20F9308E4988610320EE
:1028B0008D4988611F2000020921C90688618B4863
:1028C0000078002800D1F8BD89488A490978455C1C
:1028D0000026894887490978405C012806D10A21E9
:1028E0002846FDF721FE8548465C25E0824881495F
:1028F0000978405C022810D11A2D07DB28461A38C7
:102900001A21FDF711FE7E48465C15E01A21284683
:10291000FDF70AFE7B48465C0EE07748754909786A
:10292000405C032808D12846E917890F0918891047
:102930008900691A744A565C012774480078012896
:1029400006D0022806D003280ED0042822D115E094
:1029500001271FE06E480078002804D16548007800
:10296000032800DC002715E06A480078002804D11D
:1029700060480078042800DB00270BE066480078F8
:10298000FF2806D05B48007863490978884200D167
:10299000002700BF00BF002456480078002807D158
:1029A0005E480078002803D00120C003044316E0ED
:1029B00050480078022807D159480078002803D0F1
:1029C0000120C00304430AE04A480078042806D1E5
:1029D00054480078002802D00120C0030443002F8F
:1029E00045D0F007C00F002803D0FF20013004437A
:1029F00000E000BF02203040002803D00120400248
:102A0000044300E000BF04203040002803D0012030
:102A10008002044300E000BF08203040002803D0BB
:102A20000120C002044300E000BF10203040002815
:102A300003D001200003044300E000BF2020304009
:102A4000002800D000E000BF40203040002800D027
:102A500000E000BF0120C0032040002804D1012075
:102A6000C0030921C90688610920C0068462214883
:102A700000780300FFF746FE0805090D1115191E21
:102A800022260820174988621DE010201549886217
:102A900019E020201349886215E04020114988621E
:102AA00011E080200F4988620DE0FF2001300D49C0
:102AB000886208E001200C49886204E002200A498B
:102AC000886200E000BF00BF0A490978481CC117AE
:102AD000490F0918C910C900411A064A117000BFF0
:102AE000F1E6000000040048001400484001002006
:102AF0002F0100203F01002037010020945B0008D7
:102B0000B85B00089E5B0008D25B00084101002012
:102B10004201002043010020440100204801002020
:102B2000490100204A010020082804DA024A115411
:102B30000222024B1A5470472F0100203701002057
:102B4000082804DA024A11540122024B1A54704731
:102B50002F010020370100200849087000280BD100
:102B6000FF21F931064A91610321064A91611F2133
:102B700009020922D206916170470000400100203D
:102B80000004004800140048014908707047000024
:102B900042010020014908707047000043010020F5
:102BA000082804DA024A11540322024B1A547047CF
:102BB0002F0100203701002030B5054600243CE0FD
:102BC000285D412809DB285D5A2806DC285D41384C
:102BD000C1B22046FFF7A8FF2DE0285D612809DB80
:102BE000285D7A2806DC285D4738C1B22046FFF709
:102BF0009BFF20E0285D302809DB285D392806DCB2
:102C0000285D3038C1B22046FFF79AFF13E0285DF7
:102C1000202804D100212046FFF7C2FF0BE0285DE9
:102C20002D2804D101212046FFF7BAFF03E000213F
:102C30002046FFF7B5FF601CC4B2082C02DA285DFD
:102C40000028BDD130BDFEB507460D461646002E04
:102C500001D1384600E0381DC0B20290002E01D1EB
:102C6000032000E007200190002440E002980019B2
:102C7000C0B2009001990098884200DD3CE0285DD8
:102C8000412809DB285D5A2806DC285D4138C1B29D
:102C90000098FFF749FF28E0285D612809DB285DDF
:102CA0007A2806DC285D4738C1B20098FFF73CFF60
:102CB0001BE0285D302809DB285D392806DC285D0B
:102CC0003038C1B20098FFF73BFF0EE0285D2028A6
:102CD00004D100210098FFF763FF06E0285D2D284E
:102CE00003D101210098FFF75BFF601CC4B2042CE4
:102CF00002DA285D0028B9D100BFFEBDFFB585B05E
:102D000006461746402E01D2002F03D10020C043B3
:102D100009B0F0BDB0020121C90640180490491461
:102D2000049844180394039C002517E0241F0122F3
:102D30006946204602F0A7FE00990898814206D114
:102D4000002D01DD241D0CE0681C85B205E0009813
:102D5000401C002801D0681C85B200BF0498844242
:102D6000E4D800BF002D01D10020D1E7BD4201DA37
:102D7000284600E0384602900194029A069901988C
:102D800002F081FE0298C3E7F7B584B00746164605
:102D9000402F05D2002E03D0FF200130864203DDF4
:102DA0000020C04307B0F0BDB8020121C906451894
:102DB0004814281803902C46002002900EE00122AF
:102DC00001A9204602F05FFE0198401C002800D1B6
:102DD00008E0241D0298001D029000BF201D0399E9
:102DE0008842ECD900BFB10002980818012189027D
:102DF000884207D9FEF7E4F82846FEF76DF8FEF79B
:102E000093F82C46FEF7DCF832462046059902F08E
:102E10004BFEFEF789F80020C4E700000148008857
:102E200080B270470800002000BFFEE74C490968E7
:102E300049084900491C4A4A116011464968494AF3
:102E40001140474A516011460968474A1140444AB7
:102E5000116011460968012292049143404A1160B1
:102E6000114649683F22120491433D4A5160114680
:102E700049680909090151601146096BFF22543262
:102E80009143374A11631146496B49084900516320
:102E90000021916011460968012212049143304AD1
:102EA0001160002007E02E4909688907C90F002931
:102EB00000D004E0401C052109028842F3D300BF82
:102EC000274909688907C90F002947D02749096898
:102ED000102291431031254A116011460968C90832
:102EE000C900491C11601E494968F02291431C4ADF
:102EF000516011464968072212029143184A5160F5
:102F0000114649680322D2039143154A5160114684
:102F100049680F22920491430522D2048918104A6D
:102F200051601146096801221206914389180C4A22
:102F3000116000BF0A4909688901C90F0029F9D049
:102F40000749496889088900891C054A516000BF02
:102F5000034949680907890F0229F9D17047000020
:102F6000001002400CB8FF08FFFFF6FE00200240F0
:102F700010B513480068C408601E1249884201D980
:102F800001200CE0601E104948610321081FFEF774
:102F90004BFE00200C4988610320086100200028B6
:102FA00001D000BFFEE708484069084908607D215C
:102FB000C90006480068FDF7ADFA0549086010BD74
:102FC0004C010020FFFFFF0000E000E00C010020AA
:102FD0001001002010B5044607480470FEF760FE9B
:102FE0000A2210210448007802F0E3FCFEF702F800
:102FF0000248FEF75BF910BD6A00002001300008AE
:10300000F7B584B001240120039000250020029030
:103010000190002704988006800E04900598800691
:10302000800E059000264FE0FFF762FBA006800EA1
:10303000002800D144E00498204000281ED07000F1
:10304000CF49085A022803D10120CE49087007E071
:103050007000CB49085A022802DD029820430290F2
:103060007000C749085A1E2829DB38462043074606
:10307000202F24D00220C349087020E0059820406A
:10308000002810D00498204000280CD1019820433B
:103090000190BC480078012802D12846204305460B
:1030A0000020B849087020202040002807D0700078
:1030B000B349085A022802DB28462043054600BFD0
:1030C000701CC6B26006040E082EADDBAE48007858
:1030D00001287AD108202840002828D0AB48007861
:1030E000002824D0AA480078002820D0A9480078D9
:1030F00001214840A7490870FDF7F2FF0020A649CA
:103100000870A6490870A6490870A24800780028EF
:1031100003D1A4A0FFF750FD02E0A5A0FFF74CFDEE
:10312000FF22F5322021A548007802F021FC04207E
:103130002840002828D095480078002824D09448BA
:103140000078002820D09348007801214840914918
:103150000870FDF7C5FF00208F4908708F4908707F
:103160008F4908708B480078002803D18DA0FFF7A5
:1031700023FD02E08EA0FFF71FFDFF22F532202184
:103180008E48007802F0F4FB0220284000283ED050
:103190008B48007800283AD000208A4908707C4883
:1031A000007800281DD101207949087000207A4953
:1031B00008707A4908707A490870764800780028C3
:1031C00004D178A0FFF7F8FC03E0D6E078A0FFF781
:1031D000F3FCFF22F53220217848007802F0C8FB8A
:1031E00015E000206A49087001206B4908706B499E
:1031F000087000206A490870012073490870202176
:103200006E48007802F0EFFB01206E490870102034
:103210002840002806D06B480078002802D0002003
:103220006A490870E807C00F002808D000206849E4
:103230000870052201216148007802F099FB2020E6
:103240002840002800D000BF10203840002809D0B6
:1032500002203840002805D003204B49087003980D
:1032600007B0F0BD10203840002830D04648007824
:1032700001282CD153480078002828D00020554937
:1032800008700120444908700020534908805349C0
:1032900008705349087002214848007802F0A3FBE7
:1032A00001204A49087000203B490870FEF776FB70
:1032B00000280CD14B4908804B4908800120FDF7BC
:1032C000C9FB642204213D48007802F072FB102102
:1032D00001980840002850D03A48007800284CD087
:1032E0003A480078002803D001204049087042E0A5
:1032F00000202949087037480078002802D00128AA
:1033000037D10FE0002036490870FFF787FD3249BA
:103310000880002236A11046FFF795FC01202D49B8
:10332000087027E000202E490870FFF777FD2A4A31
:1033300012888118C80F4018C003000C2E4A108054
:10334000254909882822501A002801DB014600E09F
:1033500041421E2903DA01202049087002E00020C2
:103360001E490870642204211448007802F021FBF1
:1033700000E000BF00BFFDF7B3FE039870E7000058
:10338000500A002083000020220000207800002046
:10339000770000201A0000202100002020000020DB
:1033A000730000204C2D6F6E2020202000000000B4
:1033B00020202020442D6F6E000000006A000020B5
:1033C0007A0000207B0000207500002072000020A1
:1033D000820000206B0000206E00002070000020A2
:1033E000710000207C0000207E000020760000207C
:1033F0002073657400000000180000201FB5012034
:103400008004FEF775FC01204002FEF789FC0120D4
:10341000FEF786FC022168460181032181720021AA
:10342000417302A91548FDF7C5FEFDF7DDFA6846B0
:10343000FDF782FA00216846017041708170C17009
:1034400001714171FDF722FA02210802FDF768FAC5
:103450000420FDF783FA02210C20FEF797FBFDF70D
:1034600085FAFDF771FA00BF0120FDF7A5FA0028E3
:10347000FAD00120024908701FBD00000004004876
:103480003400002010B504461148047020210920A2
:10349000C00600F0D3FC20200921C906886188629B
:1034A000FFF7ACFF00F06AF900F092F900F026F99E
:1034B00008480178002000F0CBF8012211460448AA
:1034C000007802F076FA0448FDF7F0FE10BD000027
:1034D000240000201B000020DD340008FEB5064655
:1034E0000F460124012002900020019000901C2032
:1034F00006400740002520E0FFF7FAF81C20204096
:10350000002800D115E030462040002810D0680087
:103510000C49085A012803D101982043019007E083
:1035200068000849085A022802DD009820430090EC
:1035300000BF681CC5B26006040E082DDCDB0298D3
:10354000FEBD0000500A00207047000070B506461E
:103550000C460120C0032040002814D016480078F3
:1035600002F04AF9054607E0284602F00BF9124836
:10357000007802F041F90546002DF5D120460121E1
:10358000C903484070BDE007C00F002812D00B48A7
:103590000078002804D00A49098888B2FFF744F966
:1035A000C82201210448007802F003FA20460121D4
:1035B0004840E7E70020E5E7240000202000002045
:1035C0000800002070B505460C46002C10DB032DCA
:1035D00006D10A2060431B49081A1B4908802BE0CA
:1035E00014206043B9210901081A1749088023E013
:1035F000604244B2032D0FD1124813490880DF21E5
:10360000C900614308466421FCF78EFF0E49098812
:1036100040180D4908800FE0B92000010A490880D0
:103620006D210901614308466421FCF77DFF0649CD
:103630000988401804490880034801880348FFF7B7
:1036400055F870BD680B00002600002000200040E7
:1036500070B505460C46244800268657002D0DD02F
:1036600022490978491CC9B2204A11700846C91775
:10367000890F091889108900411ACCB2002C1DD07D
:10368000012C13D0022C09D0032C1FD14B20000198
:103690001749086040001749086017E04B204001B7
:1036A000134908604000134908600FE04B204001B7
:1036B0000F49086040000F49086007E04B20800177
:1036C0000B49086040000B49086000BF00BF0A4872
:1036D00000214156002901DA00268657314620464E
:1036E000FFF770FF70BD0000160000201B000020D7
:1036F0002C000020300000201700002000B587B00B
:10370000FF200130FEF7FCFA002168460176817443
:1037100001824B20800105906846417604A9164835
:10372000FEF7EAFD062168460171002141728172AF
:103730008171012141710021C17101720F21890143
:10374000818101A90C48FEF735FE0B48FEF72AFEE1
:1037500003210948FEF7CCFD03210748FEF71EFEB2
:103760001320FEF709FA00211320FEF70FFA024892
:10377000FEF70EFE07B000BD002000400EB5012090
:10378000FEF7BEFA012168460172002181700180B6
:103790000E48019068464172694601208007FEF795
:1037A000ABFD01218807FEF7A3FD01218807FEF785
:1037B000F5FD0F20FEF7E0F901210F20FEF7E6F9F5
:1037C00001208007FEF7E4FD0EBD000080BB000075
:1037D00000B589B001204004FEF78AFA0120800478
:1037E000FEF786FA0120FEF79BFA0220FEF788FA20
:1037F000012207210920C006FDF721FD02216846AC
:1038000081770021C17780218183002108A8417040
:103810000321017007A90920C006FDF7CBFC012296
:1038200000213C48FDF70BFD02216846817700210D
:10383000C17701218183002108A841700321017013
:1038400007A93448FDF7B6FC00216846017681746B
:1038500001824B20000105906846417604A92E485C
:10386000FEF74AFD06216846017101214171C171CF
:103870001421818101A92848FEF79CFD00212648DA
:10388000FEF7FEFD06216846017101214171C171FB
:10389000F021818101A92048FEF7FCFD00211E488E
:1038A000FEF75CFE06216846017101214171C1717C
:1038B000F021818101A91848FEF75CFE002116481D
:1038C000FEF7BCFE06216846017101214171C171FC
:1038D000FF21E131818101A90F48FEF7B9FE0021E6
:1038E0000D48FEF7F7FE0C48FEF75CFD1F210A4865
:1038F000FEF7FEFC1F210848FEF750FD1020FEF7E2
:103900003BF901211020FEF741F90348FEF740FD85
:1039100009B000BD000400480004004070B586B046
:1039200006460C460120C0032040002815D0FE4862
:10393000007801F061FF054607E0284601F022FF0C
:10394000F948007801F058FF0546002DF5D12046D2
:103950000121C903484006B070BDE007C00F002830
:103960001DD0FFF75BFA0546FEF7EAFE002812D0ED
:103970000121ED48007802F036F8EC48002141566C
:10398000002901DA002002E0E84900200856E84951
:103990000870FDF7A5FB204601214840DBE7202009
:1039A0002040002842D0E3480078062805DAE148A4
:1039B0000078401CDF49087014E00020DE490870E0
:1039C0000120DE490870DE490870DE4908702021B8
:1039D000D548007802F007F80020D6490870012089
:1039E000D9490870D5480078002801D1012000E0AD
:1039F0000020D249087008460078002803D1D3A0DF
:103A0000FFF7DAF80EE0D4480078002805D100224C
:103A1000D2A11046FFF717F904E00122D1A100203E
:103A2000FFF711F920462021484094E70420204068
:103A300000281BD00022CDA11046FFF704F9CD4885
:103A40000078002807D0FF22F5320821B648007818
:103A500001F08EFF06E0FF22F5320221B248007825
:103A600001F086FF20460421484074E708202040EA
:103A700000287CD0C0480078002801D1012000E057
:103A80000020BD49087008460078002866D0BB4871
:103A9000007800285BD0BA480078062846DAB84893
:103AA0000078401CB6490870B64800887D21C900DE
:103AB00088420BDBB3480088B349884206DAB14834
:103AC0000288B2A101A8FCF77DFB29E0AD4800887F
:103AD00064280CDBAB4800887D21C900884206DAE7
:103AE000A8480288AAA101A8FCF76CFB18E0A54829
:103AF00000880A280ADBA3480088642806DAA1485F
:103B00000288A4A101A8FCF75DFB09E09D4800889C
:103B10000A2805DA9B480288A0A101A8FCF752FBFD
:103B2000002201A91046FFF78EF81CE000209449FE
:103B30000870012082490870002090490870FCF745
:103B400089FF08217848007801F04DFF0BE0002242
:103B500094A11046FFF777F805E008E000227CA169
:103B60001046FFF770F8204608214840F3E602208F
:103B70002040002872D08D480078002801D1012013
:103B800000E0002089490870002271A11046FFF76B
:103B90005AF88648007800280DD18548007800281A
:103BA00003D06AA0FFF708F84EE0002268A1104693
:103BB000FFF749F848E07E480078002803D07DA050
:103BC000FEF7FAFF40E06F4800887D21C900884277
:103BD0000BDB6C4800886C49884206DA6948028829
:103BE0006AA101A8FCF7EEFA29E06648008864287B
:103BF0000CDB644800887D21C900884206DA6148F0
:103C0000028863A101A8FCF7DDFA18E05D4800888E
:103C10000A280ADB5B480088642806DA59480288CB
:103C20005CA101A8FCF7CEFA09E0564800880A28F2
:103C300005DA5448028859A101A8FCF7C3FA00220A
:103C400001A91046FEF7FFFF5D480078062806DA56
:103C50005B480078401C5A49087015E018E00120C4
:103C600052490870002057490870012034490870F3
:103C70000020554908804E490870514908700221BA
:103C80002948007801F0AFFE20460221484062E654
:103C900010202040002845D029480078002842D034
:103CA000384800887D21C90088420BDB35480088F0
:103CB0003549884206DA3348028834A101A8FCF766
:103CC00081FA29E02F48008864280CDB2D48008801
:103CD0007D21C900884206DA2A4802882CA101A861
:103CE000FCF770FA18E0274800880A280ADB254804
:103CF0000088642806DA2348028826A101A8FCF778
:103D000061FA09E01F4800880A2805DA1D48028880
:103D100022A101A8FCF756FA002201A91046FEF7DD
:103D200092FF53E05DE052E06A000020170000209F
:103D3000160000207300002077000020750000208E
:103D400021000020200000207B00002020202020D7
:103D500020202020000000001A0000204C2D6F6E53
:103D600000000000442D6F6E000000002073657499
:103D70000000000072000020740000207600002087
:103D80008400002018000020102700002564000097
:103D9000202564002020256400000000202020252C
:103DA000640000006175746F000000008500002051
:103DB000700000202D2D2D2D2D2D2D2D000000000B
:103DC000710000206B0000206E00002000BF0A225E
:103DD00010210548007801F0ECFD204610214840F4
:103DE000B9E50020B7E500006A00002010B5FFF734
:103DF0001DF8FFF7BDF810BD7CB504460D4609203F
:103E0000C006844204D101204004FDF771FF05E0A3
:103E10000948844202D10002FDF76AFF6846058026
:103E20000021817003210171012141716946204601
:103E3000FDF7C0F97CBD0000000400487CB50446D5
:103E40000D460920C006844204D101204004FDF73C
:103E50004FFF05E00A48844202D10002FDF748FF07
:103E600068460580012181700021C1700321017124
:103E70000121417169462046FDF79CF97CBD000097
:103E8000000400481CB501204004FDF731FF01206B
:103E90008004FDF72DFF01208005FDF729FF9F21FC
:103EA000090268460180012181700021C17003214F
:103EB00001710221417169460920C006FDF77AF9B6
:103EC000FF21F9316846018069460E48FDF772F915
:103ED00003216846018069460B48FDF76BF9FF2016
:103EE000F930084988610320074988611F200002D2
:103EF0000921C90688610121C9030920C006FDF70F
:103F0000CBF91CBD000400480014004810B504465D
:103F10000C4804700C48006800280FD10B49C87188
:103F20000846007980000A49085C0849487108463B
:103F3000007980000749085C044988710648FDF74C
:103F4000B5F910BDA0000020AC000020A4000020A6
:103F5000745B0008845B00085D3F0008F7B584B01F
:103F600001250120039000260020029001900024EA
:103F700004988006800E049005988006800E0590B7
:103F800000274FE0FEF7B4FBA806800E002800D102
:103F900044E00498284000281ED07800FE49085AC2
:103FA000022803DB0120FD49087007E07800FA4988
:103FB000085A022802DD0298284302907800F64948
:103FC000085A0A2829DB204628430446202C24D0FE
:103FD0000220F249087020E005982840002810D0FF
:103FE0000498284000280CD1019828430190EB4800
:103FF0000078012802D13046284306460020E749D0
:10400000087020202840002807D07800E249085A8C
:10401000022802DB30462843064600BF781CC7B2A0
:104020006806050E082FADDBDD48007802287DD13B
:10403000DC490868DCA1FCF729FA002802D101203C
:10404000DC490870D7490868DBA1FCF71FFA002893
:1040500002D10220D749087004203040002835D012
:10406000D0490868D0A1FCF711FA002818D1D5482A
:104070000078002812D1D44800214156002905DDDE
:104080000078401E40B2D049087002E00020CE49BE
:104090000870CD4900200856CC490870FDF720F87B
:1040A000C0490868C4A1FCF7F1F900280ED1C8483E
:1040B00000680A2805D9C6480068401EC44908603F
:1040C00002E00A20C2490860FDF70AF808203040E3
:1040D000002837D0B3490868B3A1FCF7D7F9002806
:1040E00018D1B8480078002812D1B7480078401C91
:1040F00040B2B5490870084600214156642902DDE6
:104100006420B1490870B04900200856AF490870D2
:10411000FCF7E6FFA3490868A7A1FCF7B7F9002858
:1041200010D1AB480068401CA94900E0D0E008600D
:1041300008460068A749884202D90846A449086091
:10414000FCF7CEFF10202040002809D0022020409C
:10415000002805D0032092490870039807B0F0BDED
:10416000002C6FD08D48007802286BD104202040AD
:10417000002831D08B4908688BA1FCF787F900280B
:1041800013D19048007800280FD19348C0790028B7
:1041900008D101209049C871012202218F4800787E
:1041A00001F0E6FB00208E4908707E49086882A174
:1041B000FCF76CF900280FD18748C079002808D196
:1041C00001208549C871012202218448007801F04C
:1041D000CFFB00208249087008202040002831D001
:1041E0007049086870A1FCF751F9002813D175488F
:1041F000007800280FD17848C079002808D1012024
:104200007549C871012202217448007801F0B0FBA1
:104210000120734908706349086867A1FCF736F903
:1042200000280FD16C48C079002808D101206A49C4
:10423000C871012202216948007801F099FB012030
:104240006749087008210198084000281DD0002007
:1042500064490860644908605F490871084600794C
:1042600080006249085C5C4948710020C8710221E5
:104270005A48007801F0B7FB5348002141565C488A
:104280000078FFF79FF9FCF72BFF04210198084005
:1042900000281DD0002053490860534908604E494A
:1042A00008710846007980005049085C4A49487105
:1042B0000020C87102214948007801F094FB42486F
:1042C000002141564A480078FFF77CF9FCF708FFC7
:1042D0003348007801285DD100203649087020203D
:1042E0003040002800D000BF36480078002852D166
:1042F000002E23D00420304000280CD03D480088F8
:10430000002805DD3B480088401E3A49088002E04D
:1043100000203849088008203040002804D0354863
:104320000088401C33490880324800882949884267
:1043300002DD08462F490880FCF7D2FE002C5ED033
:104340001648007802285AD10420204000280FD0B7
:104350002148C079002808D101201F49C8710122D5
:1043600002211E48007801F003FB00201C49087060
:1043700008202040002842D01748C079002808D1E2
:1043800001201549C871012202211448007801F06A
:10439000EFFA31E078E032E0500A0020BD00002062
:1043A00022000020300A00202041747420736574BC
:1043B00000000000BC0000202053544120736574AD
:1043C00000000000770000201600002017000020E9
:1043D0001C0000200F270000A4000020A0000020E7
:1043E000B0000020AC000020B4000020745B000886
:1043F0001B00002018000020012024490870102014
:104400002040002808D002202040002804D00320AB
:104410001F4908700398A1E6082101980840002868
:1044200016D000201B4908601B4908601B49087111
:104430000846007980001A49085C18494871002034
:10444000C87102211748007801F0CDFAFCF748FE48
:10445000042101980840002816D000200D4908606A
:104460000D4908600D4908710846007980000C4923
:10447000085C0A4948710020C87102210948007887
:1044800001F0B1FAFCF72CFE039867E6B0000020BB
:1044900022000020AC000020B4000020A400002076
:1044A000745B0008A000002070B506460C46012091
:1044B000C0032040002814D07448007801F09CF913
:1044C000054607E0284601F05DF97048007801F0E4
:1044D00093F90546002DF5D120460121C903484036
:1044E00070BD0220204000287ED069480068401C32
:1044F0006749086067480068401C6649086066486C
:1045000000798000654908586149096888421BD8CC
:1045100000205F4908605F4908605F480079032810
:1045200004DA5D480079401C5B4908715A480079FB
:1045300080005B49085C5849487108460079800052
:104540005849085C544988715748007800282DD193
:10455000514840794F490968884227D200204D4987
:10456000086052480078002807D04B4880795049AD
:10457000098840184E49088010E0474880794C4926
:104580000988884207DA4448807949490988081A25
:104590004749088002E000204549088044480088D7
:1045A0004449884202DD0846414908803E48007877
:1045B000012832D140480068401C3F490860084645
:1045C0000068C82829D900200860384800780028E9
:1045D00010D03A480078401C40B23849087008466C
:1045E00000214156642900E04DE011DB642033498D
:1045F00008700DE0314800214156012905DD0078A1
:10460000401E40B22D49087002E000202B4908707E
:104610002A49002008562A490870234800780228B1
:104620002DD11D4840791B490968884227D20020B6
:10463000184908601D480078002807D0164880797E
:104640002049096840181F49086010E01248807925
:104650001C490968884207D20F48807919490968BE
:10466000081A1849086002E0002016490860154839
:1046700000681049884202D908461249086020465D
:10468000022148402CE700202AE70000A00000207B
:10469000AC000020B4000020A4000020645B0008EF
:1046A000745B0008845B0008BC000020B0000020A0
:1046B000180000200F270000B8000020160000207E
:1046C000170000201C00002010B5FF2000F038FF6C
:1046D000FFF78CFB0020FDF757F9FCF7DFFD00F03A
:1046E0001FFFFF2000F039FF0220FDF74DF901F018
:1046F0005CF9002010BD000070B504460848047045
:10470000FCF7BAF905462846FDF74EF9FA220221D0
:104710000348007801F04DF90248FCF7C7FD70BD71
:104720008600002029470008F7B584B00124012045
:104730000390002500200290019000270498800635
:10474000800E049005988006800E059000264CE0AF
:10475000FDF7CEFFA006800E002800D141E00498AE
:10476000204000281ED07000AD49085A022803DB03
:104770000120AC49087007E07000A949085A0228D6
:1047800002DD0298204302907000A549085A1E28B5
:1047900026DB384620430746202F21D00220A1499E
:1047A00008701DE00598204000280DD00498204096
:1047B000002809D19B480078012802D128462043CF
:1047C000054600209749087020202040002807D087
:1047D00070009349085A022802DB28462043054608
:1047E00000BF701CC6B26006040E082EB0DB0820A5
:1047F000284000282ED0FDF7E1F800282AD0FDF748
:1048000055F980B200900098022801D1FDF716F901
:104810000098032801D1FDF781F98349086883A135
:10482000FBF734FE00280BD1834800214156834812
:104830000078FEF7C7FE82480078401C8049087067
:104840007948006880697F490968884201D1FCF78E
:1048500047FC00BF04202840002829D0FDF7AEF80F
:10486000002825D0FDF722F980B200900098022898
:1048700001D1FDF7E3F80098032801D1FDF724F9F1
:104880006949086869A1FBF701FE002806D16A485A
:104890000021415669480078FEF794FE624800689E
:1048A000806968490968884201D1FCF719FC00BF9A
:1048B00002202840002821D0FDF780F800281DD0D4
:1048C000FDF7F4F880B200900098012805D1FDF7BB
:1048D000FBF8FDF7B3F8FDF7B1F80098022804D112
:1048E000FDF7F2F8FDF7AAF807E00098032804D1D5
:1048F0000120FDF785F8FDF7E7F800BF20202840EC
:10490000002800D000BF1020384000282BD0022003
:104910003840002827D003204B49087000204B491D
:1049200008704B49087000224AA11046FEF78BF927
:1049300001224AA10020FEF786F94A4800780028A3
:1049400005D0012248A10020FEF77DF904E00122F4
:1049500047A10020FEF777F9FF22F5328021464873
:10496000007801F005F80220384000281DD03648B4
:104970000078012819D1FDF721F8002815D1FDF79D
:1049800023F8002032490870FDF790F880B20090BB
:104990000098002805D1FDF751F8FDF74FF8FDF715
:1049A0004DF802202849087000BF274800780328E6
:1049B00033D108202840002808D02A480078012157
:1049C00048402849087000202C49087004202840DD
:1049D000002808D023480078012148402149087068
:1049E00000202649087002202840002815D01D48C4
:1049F000007800280ED000201A4908702048009046
:104A0000FCF7DEFA0098FCF767FAFCF78DFAFCF782
:104A1000F1FA00BF072019490870039807B0F0BDEC
:104A2000500A00208C000020300A002020417474BD
:104A30002073657400000000160000201B00002099
:104A400087000020C8000020220000202000002055
:104A5000210000202072537400000000202020203C
:104A6000000000008900002020206F6B0000000083
:104A700020206E6F00000000860000208A000020C9
:104A800000F8000870B586B006460C460120C00349
:104A90002040002815D0EA48007800F0ADFE054619
:104AA00007E0284600F06EFEE548007800F0A4FE1E
:104AB0000546002DF5D120460121C903484006B026
:104AC00070BD8020204000285DD0DE48007800289E
:104AD00001D1012000E00020DA4908700022DAA1AB
:104AE0001046FEF7B0F80022D9A11046FEF7ABF849
:104AF000D948007806281EDAD7480078401CD649E5
:104B00000870D048007800280FD0D44800780028DA
:104B100005D00122D2A10020FEF795F82FE0012256
:104B2000D1A10020FEF78FF829E00122C6A10020C4
:104B3000FEF789F823E0C948007800280DD000204E
:104B4000C6490870CA4DFCF73BFA2846FCF7C4F981
:104B5000FCF7EAF9FCF74EFA00BF0020BE490870E6
:104B60000120C4490870C4490870C44908708021F4
:104B7000B348007800F037FFC1A0FEF71DF82046CB
:104B8000802148409BE740202040002855D0BF4866
:104B90000078002801D1012000E00020BB49087006
:104BA000BB4800687D21C90088420BD3B848006823
:104BB000B849884206D2B648B7A1026801A8FBF7F7
:104BC00001FB29E0B248006864280CD3B0480068B3
:104BD0007D21C900884206D2AD48B0A1026801A873
:104BE000FBF7F0FA18E0AA4800680A280AD3A84898
:104BF0000068642806D2A648A9A1026801A8FBF7AC
:104C0000E1FA09E0A24800680A2805D2A048A6A156
:104C1000026801A8FBF7D6FA012201A90020FEF7DD
:104C200012F8A3480078002803D10122A1A1FEF7C1
:104C30000AF820464021484041E70820204000284B
:104C400015D0FCF7BBFE00280DD0FCF7CBFE0120F1
:104C50008A4908708849087098490868FDF7ACFFD0
:104C600001208449087020460821484027E7102089
:104C70002040002847D092480078002801D1012028
:104C800000E000208E49087000226FA11046FDF759
:104C9000DAFF8B480078002806D088480022016897
:104CA0001046FDF7D0FF2AE086480078642806D138
:104CB00084480022825679A101A8FBF783FA814833
:104CC000002141560A290ADB00214156642906DAEF
:104CD0000022825672A101A8FBF774FA0AE0794813
:104CE000002141560A2905DA002282566EA101A848
:104CF000FBF768FA002201A91046FDF7A4FF204641
:104D000010214840DBE604202040002826D06E48D1
:104D10000078002801D1012000E000206A490870D5
:104D20006A480078012804D0022807D003280FD150
:104D300009E065480078FDF727FF0AE0624800783F
:104D4000FDF728FF05E060480078FDF705FF00E06B
:104D500000BF00BF204604214840B0E602202040AA
:104D600000285ED05A48007800281CD159480021FC
:104D70004156042917DB5848564900228A56805C60
:104D80005649544A0023D356C85410460078401E52
:104D900040B211460870084600214156042902DA43
:104DA00001204B4908704E48007800281CD14D481E
:104DB00000214156002917DB47484A4900228A56FC
:104DC000805C4649474A0023D356C85410460078B1
:104DD000401E40B211460870084600214156002985
:104DE00002DA01203E4908703C48FDF7E5FE3848EC
:104DF000007800280AD13A480078002806D1FA2223
:104E000002210F48007800F0D4FD06E0FF22F532C1
:104E100020210B48007800F0CCFD204602214840BC
:104E20004DE620202040002808D0012012490870BB
:104E30001249087020462021484040E600203EE606
:104E4000860000208D00002020202020000000008F
:104E500020727374000000008A0000208900002086
:104E600020206F6B0000000020206E6F000000000B
:104E700000F800082200002020000020210000206F
:104E80002020202020202020000000008E00002074
:104E90001C0000200F27000025640000202564006E
:104EA0002020256400000000202020256400000050
:104EB0008B00002020456E6400000000300A0020B6
:104EC0008F000020160000209000002088000020A5
:104ED0009300002091000020585B000895000020FE
:104EE000940000209200002070B5044625462C2036
:104EF000005D01287ED1A4A12846FBF7C7FA00284F
:104F000010D10022A0A11046FDF79DFE0220A1496C
:104F10000870084601780020FEF79AFB012000F097
:104F200081FD2CE19CA12846FBF7B0FA002810D1A6
:104F3000002299A11046FDF786FE032095490870CE
:104F4000084601780020FEF783FB012000F06AFD8F
:104F500015E194A12846FBF799FA002810D1002208
:104F600090A11046FDF76FFE00208A4908700846A0
:104F700001780020FEF76CFB012000F053FDFEE0FD
:104F80008BA12846FBF782FA002810D1002288A1C5
:104F90001046FDF758FE01207E490870084601784A
:104FA0000020FEF755FB012000F03CFDE7E083A167
:104FB0002846FBF76BFA00280CD100227FA110468F
:104FC000FDF741FEFF22F53210217F48007800F006
:104FD000CFFCD4E07DA12846FBF758FA002813D176
:104FE00000227AA11046FDF72EFE00207A490870B3
:104FF000012000E054E07949087001224021724804
:10500000007800F0B5FCBAE075A12846FBF73EFA3F
:10501000002806D172A0FDF7CFFD022000F002FDAE
:10502000ADE072A12846FBF731FA002806D16FA047
:10503000FDF7C2FD022000F0F5FCA0E06EA12846BD
:10504000FBF724FA002806D16BA0FDF7B5FD02207E
:1050500000F0E8FC93E06BA12846FBF717FA002864
:105060000AD15D4908706A49087066A0FDF7A4FD81
:10507000022000F0D7FC82E066A12846FBF706FA82
:1050800000287CD1544908706149087061A0FDF77F
:1050900093FDFA2208214C48007800F08AFC6EE06B
:1050A0002C20005D02286AD137A12846FBF7EEF9D3
:1050B000002802D100F00AFD61E037A12846FBF785
:1050C000E5F9002802D100F001FD58E035A128469D
:1050D000FBF7DCF9002802D100F0F8FC4FE034A126
:1050E0002846FBF7D3F9002802D100F0EFFC46E098
:1050F0003BA12846FBF7CAF9002802D100F0E6FCE4
:105100003DE03AA12846FBF7C1F9002802D100F0A2
:10511000DDFC34E038A12846FBF7B8F9002802D1BD
:1051200000F0D4FC2BE037A12846FBF7AFF90028AC
:1051300007D10120284908703549087000F0C6FCE5
:105140001DE01EA12846FBF7A1F9002807D1102178
:105150001D48007800F047FC00F0B8FC0FE01BA1F0
:105160002846FBF793F9002809D14021164800781A
:1051700000F039FC00201949087000F0A7FC00215C
:105180002C20015570BD000046696E453132333424
:10519000000000001B00002020687370313233349F
:1051A000000000006D65676131323334000000009B
:1051B0007375707231323334000000002041747412
:1051C00020736574000000008600002020535441C5
:1051D0002073657400000000200000208B00002078
:1051E000205345542073746400000000205345543C
:1051F0005345545000000000205345544F5345542C
:10520000000000002020202020456E6400000000E7
:1052100021000020202020456E6420200000000096
:10522000F7B5074616463846019900F053F804468C
:10523000002C02D0A6802046FEBD0C2000F09AF97A
:105240000446002C17D027720198E080A680002029
:105250002060608109480068002802D10748046086
:1052600007E00648056800E02D6828680028FBD1A3
:105270002C602046E0E70020DEE70000F40000207C
:1052800010B504460E48008800190D4908800846EC
:1052900000887D21C900884211DB09480088FBF79E
:1052A00043F9084909684018064908607D21C9008A
:1052B00003480088FBF738F988B20149088010BD1F
:1052C000FC00002000010020002801D00021C18046
:1052D000704700000246074B186807E0C3888B42FE
:1052E00003D1037A934200D102E000680028F5D18F
:1052F00000BF7047F400002010B500240A2000F021
:1053000039F90E4908600A2200210C48006800F0B3
:105310002FFA2046641CFCF7F9FA2046641CFFF7BC
:10532000EBF92046641CFEF7F1FD2046641CFDF7F6
:1053300051FE2046641CFEF7A5F810BD00000020B9
:1053400010B5FEF701F9FBF759FB10BDFEB500BF24
:1053500020480068019020480068009000BF0024A9
:10536000012080F3108800BF00BF1C4887691C48DB
:10537000066800201A49086000BF00BF84F3108847
:1053800000BF00BF1748006880191649086008462A
:1053900000681049086014490968C81B1349096866
:1053A000FBF7B8F80C4908600A4801880198081A08
:1053B0007D21C90048430849098841180098081A06
:1053C00085B2002D05D02846FFF75AFF284600F089
:1053D00015F8FEBD140100201801002000E000E0D7
:1053E00004010020080100200C0100201001002011
:1053F0000020014908607047F8000020F8B5064613
:1054000000BF002000900120FDF790F900BF2D485B
:10541000006880192B49086000BF0098FDF786F9E5
:1054200000BF2948006800284AD0274804680027A0
:1054300044E0002500BF002000900120FDF776F930
:1054400000BFA088B04202DC0020A08002E0A0885B
:10545000801BA080A08800280BD16089002808D07C
:10546000E088002805D0E188207A00F05DFA6089A4
:10547000A080A088002802D0E08800280AD1002F50
:1054800003D111492068086001E020683860254692
:10549000246801E02746246800BF0098FDF746F91C
:1054A00000BF002D09D0A888002803D1E988287AF8
:1054B00000F03AFA284600F0E1F800BF002CB8D11D
:1054C000F8BD0000F8000020F4000020014800684A
:1054D00070470000F800002070B504460D460E48E5
:1054E0000078844215DA00BF00260120FDF718F984
:1054F00000BF600009490968085AA8436100074ACB
:105500001268505200BF3046FDF70AF900BF012073
:1055100070BD0320FCE70000045B000800000020D1
:1055200010B500F0DFF8002004490860FFF760FFC5
:10553000FFF7E2FE00F0F8F8012010BDEC000020BB
:1055400010B50446FF2C06D100BF0120FDF7E8F896
:1055500000BF012010BD0720FCE710B50446FF2C5A
:1055600006D100BF0020FDF7DBF800BF012010BD11
:105570000720FCE7F8B50546002600200090281D0E
:1055800085B2A807800F002803D00421091A491901
:105590008DB200BF00270120FDF7C5F800BF3448D9
:1055A0000078002801D0102D02D83248046800E0AD
:1055B000314C00BF20880004C00F002802D000201A
:1055C00000901CE00098002810D0308821884018F6
:1055D0004004400C3168C90BC9030843306030886F
:1055E0004004400CA8420ADB344612E02088400404
:1055F000400CA84200DB0CE00120009026462088E9
:105600004004400C04192088002801D1002400E047
:10561000D0E700BF002C23D021884904490C491B46
:1056200088B2082806D3611908800122D2032A43D0
:10563000228005E00122D20321689143891821606C
:105640000B490978002909D00A490968A14205D106
:1056500021884904490C0919064A1160241D00BF1C
:1056600000BF3846FDF75FF800BF2046F8BD0000D8
:10567000F100002050090020C403002070B5054649
:105680002C1F00BF1448854202D31448854201D321
:10569000FDF7CAFB00BF00BF20880004C00F002830
:1056A00001D1FDF7C1FB00BF00BF00260120FDF7BF
:1056B0003AF800BF0121C9032068884320600848E8
:1056C0000068A04201D90648046000BF3046FDF7DB
:1056D0002AF800BF70BD00005001002050090020D2
:1056E0005009002000BF00BF00BF00BF00BF00BFC7
:1056F00000200849888708480849086027200001D9
:1057000009680880064807490886B120C0008886D5
:1057100070470000100900205001002050090020AF
:10572000048000009003002070B50120FFF722FFE5
:10573000044600BF002C01D1FDF776FB00BF00BF7F
:1057400000250120FCF7EFFF00BF201F064908607D
:105750002046FFF793FF01200449087000BF284648
:10576000FCF7E1FF00BF70BD50090020F1000020F0
:1057700070B504460D461646324629462046FAF7CD
:1057800057FE70BD70B50446002C01D1052070BDD8
:10579000204608388079FF2801D00420F7E7254605
:1057A000083D2846FFF76AFF0120F0E7F8B50546F7
:1057B0000C46164600BF00270120FCF7B1FF00BFD2
:1057C0002868A04204D120468038806F286005E018
:1057D00020468038816F304680388167002120461E
:1057E00080388167FF217830817100BF3846FCF72F
:1057F00097FF00BFF8BD0000F8B5064600200090F6
:10580000002500BF00270120FCF78AFF00BF1848D1
:1058100004680FE0204608388079B04204D1002D9A
:1058200001D1254600E007E0002D00D1009420467C
:105830008038846F002CEDD100BF002C05D00121F1
:10584000C903304600F070F804E00121C903304676
:10585000FFF742FE002D04D029460548009AFFF7C5
:10586000A5FF00BF3846FCF75BFF00BF2846F8BD28
:10587000EC00002070B50024FFF768FDFCF782F80B
:10588000FFF75EFD00BF600023490968085A002841
:1058900000D006E0601CC0B2044620490978884266
:1058A000F1DB00BF1D480078844234DA00BF0026D7
:1058B0000120FCF735FF00BF6000174909680D5A49
:1058C00000206100144A1268505200BF3046FCF7B5
:1058D00027FF00BF12480470A00012490A58294649
:1058E000204690470546FF200D49087000BF00BFC5
:1058F0000120FCF715FF00BF600007490968085A3E
:1059000028436100044A1268505200BF3046FCF739
:1059100007FF00BF00BF70BD00000020045B00084F
:10592000F0000020F05A000870B504460D460E48FD
:105930000078844215DA00BF00260120FCF7F0FE53
:1059400000BF600009490968085A28436100074AF6
:105950001268505200BF3046FCF7E2FE00BF012043
:1059600070BD0320FCE70000045B0008000000207D
:10597000F7B50746154600BF00260120FCF7D6FE06
:1059800000BF2A4638460199FFF74AFC0446002C1E
:1059900000D0658100BF3046FCF7C8FE00BF002C78
:1059A00001D00120FEBD0820FCE700BFFFF762FF29
:1059B000FCE7F7B506460F4600BF00250120FCF7BF
:1059C000B5FE00BF39463046029AFFF729FC04466F
:1059D00000BF2846FCF7AAFE00BF002C01D0012022
:1059E000FEBD0820FCE7F8B506460F4600BF0025BF
:1059F0000120FCF79BFE00BF39463046FFF76AFCEA
:105A00000446002C02D02046FFF75EFC00BF28466B
:105A1000FCF78CFE00BF002C01D00120F8BD062051
:105A2000FCE7000010B504460120FCF735FF1248E2
:105A30000078A04201D0104804700F480078012877
:105A400004D0022806D003280CD107E00220FCF77E
:105A500023FF08E00320FCF71FFF04E00120FCF710
:105A60001BFF00E000BF00BFFF22F5320421034806
:105A70000078FFF77DFF10BD880000208600002021
:105A800001460868704730B503460C4615460022AB
:105A900007E01846FFF7F4FF910060501B1D501CF3
:105AA00082B2AA42F5DB30BDF8B505460E46174670
:105AB000002407E0A00031582846FBF73FFA2D1DCF
:105AC000601C84B2BC42F5DBF8BD000010B50421B7
:105AD00006480078FFF787FF0120FCF7DDFE012074
