:020000040800F2
:10000000A81300205D02000879400008553F000851
:1000100000000000000000000000000000000000E0
:10002000000000000000000000000000A5450008DE
:10003000000000000000000019450008FD4A00080B
:100040006F0200086F0200086F0200086F020008CC
:100050006F020008E53800086F0200081139000837
:100060006F0200086F0200086F0200086F020008AC
:10007000F12500086F0200086F020008914D00088A
:100080006F0200086F02000800000000FD4B00082E
:100090006F0200086F0200086F0200086F0200087C
:1000A0006F0200086F0200086F0200086F0200086C
:1000B0006F020008000000006F02000800F002F864
:1000C00000F0BDF80CA030C8083824182D18A2463E
:1000D000671EAB4654465D46AC4201D100F0AFF816
:1000E0007E460F3E0FCCB6460126334200D0FB1AA7
:1000F000A246AB4633431847F85F00001860000083
:10010000103A02D378C878C1FAD8520701D330C860
:1001100030C101D504680C60704700000023002442
:1001200000250026103A01D378C1FBD8520700D32E
:1001300030C100D50B60704710B56E2902D101F0B7
:1001400043F810BD702902D101F08FFB10BD662964
:1001500002D105F0DDFE10BD652902D105F0D8FE03
:1001600010BD672902D105F0D3FE10BD612902D16F
:1001700005F0D6FE10BD03681B0A01D38023194386
:10018000692902D100F0C0F810BD642902D100F045
:10019000BBF810BD752902D100F0B6F810BD6F296B
:1001A00002D101F00DFB10BD782902D101F04AFB0C
:1001B00010BDE92902D101F0A9FA10BDE42902D14C
:1001C00001F0A4FA10BDF52902D101F09FFA10BD8B
:1001D000EF2902D101F000FB10BDF82902D101F096
:1001E0003FFB10BD0368DB0901D38023194363295A
:1001F00002D101F0CEFD10BD732902D101F0D1FD75
:1002000010BDE32902D101F0DBFD10BDF32902D1BD
:1002100001F0DEFD10BD002010BD1FB501F0BCFBDC
:1002200004000020002105F001FD401C606000205A
:10023000002105F0E5FCE0601FBD10B510BD02F027
:1002400027F91146FFF7E9FF05F020F902F04EF912
:1002500003B4FFF7F2FF03BC02F0C4F9074880477C
:1002600007480047FEE7FEE7FEE7FEE7FEE7FEE79A
:1002700004480549054A064B70470000914B0008A9
:10028000BD000008A8010020A8130020A80300203A
:10029000A80300207CB51D4616460C00009001D036
:1002A0000019401E084B7B442A466946019030469F
:1002B00001F0ADF9002C054603D06946002001F09D
:1002C000B9F928467CBD0000951300000FB47CB539
:1002D0000C0009AA009001D00019401E094B7B4474
:1002E00069460190089801F092F9002C054603D068
:1002F0006946002001F09EF928467CBC08BC04B089
:10030000184700005D130000F7B500257529106837
:10031000009914A611D000F0C4FE002802DA404271
:1003200011A608E0009909688A0701D50FA602E026
:10033000490704D50EA6012501E000F0BBFE009F91
:100340000024243704E001F0D5FA30313955641C1B
:100350000028F8D12B4632462146009800F0DCFEFA
:10036000FEBD0000000000002D0000002B0000007A
:1003700020000000F3B50446002081B02062204632
:10038000E1688847002872D0252802D06268A168F9
:10039000ABE0594F00267F442046E168884720287B
:1003A000054608DB312D06D2781920380078002860
:1003B00001D00643F0E7B00701D5042086430020B2
:1003C000E0610746A0612A2D0AD0284604F072FE9B
:1003D000002827D0B8000019303D0090856119E051
:1003E0000298BA00121902C8916102902046E16891
:1003F0008847012F054617D1E06900281FDA202021
:1004000086431CE000980A218069484300994019FE
:10041000303888612046E1688847054604F04AFE86
:100420000028EFD1012F0AD02E2D08D12046E168F7
:1004300088470546202006437F1C022FC3DBA069A6
:10044000002803DA4042A06101200643F00701D0F2
:10045000102086436C2D0BD0682D09D04C2D3CD03C
:100460006A2D38D0742D38D07A2D36D016E040E081
:10047000E1682F4620468847B842054609D16C2FCF
:1004800029D001208002E1680643204688470546BE
:1004900004E06C2F1DD0FF2001300643002D28D032
:1004A00028464138192803D80120C00206432035C8
:1004B000204626602946029A1646FFF73DFE002890
:1004C00010D001280BD0F61DF008C00008300290B3
:1004D00055E74020E1E78020D5E70020D3E7361D2F
:1004E00002964CE762682846A1689047206A401C43
:1004F00044E7206AFEBD0000965B000070B506462A
:1005000000F0A4FD0468054630460A22002101F0EF
:10051000B9F92C6070BD000030B5441C03E00178CF
:10052000401C00290DD08107F9D10B4BDD0104C817
:10053000D11A91432940FAD0001B0A0603D0C01EED
:1005400030BD001B30BD0A0401D0801E30BD090241
:10055000FCD0401E30BD00000101010101E004C0DB
:10056000091F0429FBD28B0701D50280801CC90713
:1005700000D00270704700290BD0C30702D0027070
:10058000401C491E022904D3830702D50280801C27
:10059000891EE3E70022EEE70022DFE700220309DD
:1005A0008B422CD3030A8B4211D300239C464EE08E
:1005B00003460B433CD4002243088B4231D303094A
:1005C0008B421CD3030A8B4201D394463FE0C309FC
:1005D0008B4201D3CB01C01A524183098B4201D314
:1005E0008B01C01A524143098B4201D34B01C01AFF
:1005F000524103098B4201D30B01C01A5241C30877
:100600008B4201D3CB00C01A524183088B4201D3E5
:100610008B00C01A524143088B4201D34B00C01AD1
:100620005241411A00D201465241104670475DE0E6
:10063000CA0F00D04942031000D340425340002269
:100640009C4603098B422DD3030A8B4212D3FC2212
:10065000890112BA030A8B420CD3890192118B4291
:1006600008D3890192118B4204D389013AD09211A7
:1006700000E08909C3098B4201D3CB01C01A524162
:1006800083098B4201D38B01C01A524143098B422B
:1006900001D34B01C01A524103098B4201D30B0114
:1006A000C01A5241C3088B4201D3CB00C01A524139
:1006B00083088B4201D38B00C01A5241D9D2430820
:1006C0008B4201D34B00C01A5241411A00D201465D
:1006D000634652415B10104601D34042002B00D5C7
:1006E0004942704763465B1000D3404201B5002089
:1006F000C046C04602BD7047704770470246C80FEB
:10070000C00781434B0030B54B405B009B0D20D0B0
:100710001923DB06C91801231B05994220DB03249A
:10072000A40704251346AB400BD3002B04D1EB06E2
:1007300013409B00E34204D40124640700231219F0
:100740005941FF231B0599420BD2C9000143500FA9
:1007500009E0CB0204D501430803024305D0054854
:1007600030BDFF21C905084330BD084607210905F2
:10077000884330BD0000C07FF0B5F94D0C091E095B
:100780002C402E402F468BB0A7437DD0B543FCD0E4
:10079000002E7AD0002CFCD00D465D40ED0F254395
:1007A000AC1BFF25AD0464190894C502440DC902B1
:1007B0002143500DDC0204430120C00701430443E0
:1007C000D2020191200C110C00958C4601042346A5
:1007D0008B430A9161460904E24D8A430991010A5B
:1007E0007D4449198039097805464D4301266D1825
:1007F000F605751B6943C90C640B891C4C436418CE
:10080000B5012C1B250C2E04B4434C434D43210C45
:10081000691889090591009DE90701D00121C907DF
:1008200004912C4601996708CD072F434C08059D7C
:10083000E10B4D432D0C29466646754302950D4646
:1008400045432E46029D7D1BB44100950D465D43F8
:1008500001942C0C2F040D465543AE462D0C3D4300
:10086000029503947546049C2D04641B049406D2DF
:10087000029C039D641C002675410395029401AC03
:1008800070CC009F7D1B01E03EE162E1B4410904B0
:100890000095079101940599A4086143090C0C4641
:1008A0004443650BE7040C4666467443A646640B56
:1008B0003C43039502947446049DE4042C1B049469
:1008C00006D2029C039D641C002675410395029488
:1008D00001AC70CC009F7D1BB44101940C465C437D
:1008E0000095650FE7000C465443A646640F3C4351
:1008F000039502947446049DE4002C1B049406D2D4
:10090000029C039D641C002675410395029401AC72
:1009100070CC009F7D1BB441AE09AF06049DC90099
:10092000AD092F43049DA406AD060495079D3443ED
:1009300069180791059DE10B4D432D0C294666462C
:10094000754302950D4645432E46029D7D1BB441DD
:1009500000950D465D4301942C0C2F040D46554324
:10096000AE462D0C3D43029503947546049C2D0420
:10097000641B049406D2029C039D641C00267541EE
:100980000395029401AC70CC009F7D1BB44101948F
:100990008C050694079C890A611800950791019CB3
:1009A0000599A4086143090C0D464543680BEF0403
:1009B0000D46644665436C0B3C43049FED047D1B70
:1009C000AC4602D20025641C6841009E019D371B85
:1009D00085410846584301950C46460FC5005443CF
:1009E000600F28436546E4002C1B02D20025401C02
:1009F0006E41019D3F1AB5412846BD098006284336
:100A00008446A009BF064E020699A406761807433D
:100A1000079D002068410A99079019430020099B0F
:100A200000906046FF1913434041E20F64003A43CF
:100A3000A4460446D71A8C41A04203D90120009055
:100A400020463A46C70F941840416246D20F2243CF
:100A5000644664000494009CBE466400D71AA44611
:100A6000044602978C417746002F01D1A04204D959
:100A70006046401C8446029A2046C40FA64694183D
:100A80004041049A0546D20F224364466400D31ABB
:100A90008D417146002901D1A84202D928461A4643
:100AA000641C10430122002800D01643610200207C
:100AB000079B891904465C410223002C02DB49187C
:100AC00013466441089DCE0A2D145D194B05670538
:100AD000E10A2C050D1908993E43C9076940002B0E
:100AE00008D0934006D30022761C5141002B01D13F
:100AF000760876001C4A002D43DB154241D0AA43FC
:100B00003FD030460BB0F0BD06180D464D41174C96
:100B10007642AC411AD395181C465C41134A6D428B
:100B2000A24113D3012252054C00D4420AD15C00E9
:100B3000D4420BD04B4002D592021143E2E7490068
:100B40004908DFE75940C90FC90718E000200849E4
:100B5000D8E7054801420DD10342F7D0F2E7000083
:100B60000000FF075D5700000000F07F0000E0FF7D
:100B70000000F87F114859400143C0124140002055
:100B8000C0E70123089A9B069A4205DC032252071C
:100B90008918C90FC907B5E7052252078918074AFE
:100BA0001143D2125140ADE770B515461C460246BE
:100BB0000B4628462146FFF7DFFD70BDFFFFFF7F94
:100BC000F0B58B4C0F09254689B0BD437BD01D097C
:100BD0002646AE43FAD00E465E402740F60F3E430F
:100BE000254071D024012142FBD0FF24AD19A4047B
:100BF0002D1B039501252D05DB02DB0AC9022B43C2
:100C0000C90A29431E010901040F130F05012143DD
:100C10001701880B820391432D098C46A90B1E43B3
:100C20008A039543B30B9A0396433F09BA0B940387
:100C3000A74302962E467E430497B6464E19D7190F
:100C40000C460196544305977E43371B7646BF1BDF
:100C50003601B646BE0B361900967646BC043719E7
:100C6000009C01D3641C00946400002F01D0012675
:100C70003443029E049F754366467E430496760085
:100C800034196E0034190094029C019E1C196643AD
:100C9000751BAE46069465464519059C05956C4343
:100CA000594375460891691A0191049E01465143C2
:100CB000A41B0491611A009C0791E10605D061090B
:100CC0000122114302E072E06EE06109089D0027F5
:100CD0002C0A2D066918049D7C412A0A2D066918E4
:100CE000019D6241AC0DAD026D185441079A910D02
:100CF000920255196141029A644658435443069B37
:100D0000059A5A43121A131B9A0E9B015B187A41DB
:100D1000010B0005C3185141220A200644195A410B
:100D20009A4200D2491C01204002814203D315237C
:100D30000226F64302E014230326F6432020C51AB8
:100D4000A9401746AF40DA400A4320460399D840ED
:100D50000914731819055118039A3843D2075140E2
:100D6000AC4009D00122944006D30022401C5141DE
:100D7000002C01D1400840001E4A934212D30122A8
:100D800003989206904207DB0520400709181A488D
:100D90000143C012414004E0032040070818C10F7E
:100DA000C907002009B0F0BD0020F107FAE70518D7
:100DB0000C464C4111486D42A04115D394181A4677
:100DC0005A410E48644290410ED301204A0040052A
:100DD000824209D35A00824206D35940C90F084AB9
:100DE000C90700201143DDE700200649DAE70000CB
:100DF0000000FF07FE070000FFFFFF7F0000E0FF8D
:100E00000000F07F0000F87F0121C905012341188F
:100E100042001B06D3185B0E0AD0C1100722D2066F
:100E2000891840075242D14201D5520089187047B3
:100E3000090208D50146002A03D0C10FC9070020C6
:100E4000704710467047420202D0002002497047A6
:100E5000072109050143F4E70000F87FF0B5FF25FD
:100E60002D04C609C209FF2704462E400137CB09CD
:100E70003E4348402A402B400746002A6BD0002BB7
:100E800069D0AA4267D0AB4265D0002800DA32466A
:100E90000125ED0529432C4309022002090AD21A33
:100EA0004B0C7F24E31A434C000A7C44E35C7D2412
:100EB0002404121914145B00A218884201D3521C96
:100EC00000E0400049420C465C4324115C43DB01D6
:100ED0006415E318040A5C43C502200D0C46444324
:100EE0006419250A5D432303EC0C0D46654300039A
:100EF0000019EB184C42A34201D35B18401CD405E7
:100F00002018002B07D05B00C91804D3401C00290F
:100F100001D1400840003F2189048A4209D3002AB8
:100F200008DC1106090F04D0032149074018C00F3F
:100F3000C007F0BD01224100120689187F22520627
:100F40009142F6D205214907C84201D59010F0BD63
:100F5000FF20C005F0BD002F00DA32461648AA4235
:100F600007D2AB4205D21902090E17D0F80FC007FD
:100F7000F0BDFF2563002D06AB42F9D84900A94218
:100F8000F6D8AB4201D1A942F2D0A94201D1002149
:100F900001E061004908D0050843F0BD1102090EC7
:100FA000FBD0FF200243D005F0BD0A4601461046A3
:100FB00054E70000135100000000C07F0102C21579
:100FC00004D00123DB071943002A0ADB9E239A1A67
:100FD00002D40846D0407047FF22410012069142D9
:100FE00001D900207047C017C04370471F22030C6F
:100FF00002D10F2200041CD0030E01D10002083AD6
:10100000030F01D10001121F830F01D18000921E36
:10101000002801DB4000521ED2055118021251185F
:101020001922904004D3491C002801D149084900E5
:1010300008467047C10FC90700D0404201229207FD
:101040001143D3E701218907D0E70000004870472A
:101050004401002070B5044685690068C10601D5C9
:10106000302600E02026C00707D070BD62683046F9
:10107000A1689047206A401C20626D1EF6D570BDA5
:1010800070B5044685690078C00707D170BD6268F5
:10109000A16820209047206A401C20626D1EF6D572
:1010A00070BD09684A0501D540B27047C905FCD535
:1010B00000B2704709684A0501D5C0B27047C9053A
:1010C000FCD580B2704770B50C460546012A05D0A4
:1010D0002878800600D5EA69002302E0012305E0B4
:1010E0005B1C934202D2E05C0028F9D1A869E618A3
:1010F000C01AA861286AC01828622846FFF7AAFF0C
:1011000004E06A682078A968641C9047B442F8D368
:101110002846FFF7B5FF70BDFFB504460D4681B008
:10112000243000902168880604D51022E06991439C
:10113000216000E00120A84201DD471B00E00027FC
:101140000498A1697A191018081AA0612078C006BD
:1011500002D42046FFF77EFF002608E0039862686D
:10116000A168805D9047206A401C761C206204982C
:101170008642F3DB2078C0060AD52046FFF76AFFD7
:1011800006E06268A16830209047206A401C206217
:1011900038467F1E0028F4DC07E000986268A168EA
:1011A000405D9047206A401C206228466D1E002842
:1011B000F3DC2046FFF764FF2078000602D502200A
:1011C00005B0F0BD0120FBE711680268006A530515
:1011D00001D5087009E0D30501D5088005E01306A4
:1011E00002D5C21705C100E0086001207047000069
:1011F0007047FFB50C461E468FB003CA0890099190
:101200004F007D0D00D16D1E002108460020C04614
:101210000321099A89050840002A03DA8200801810
:1012200040080840800D01280A9002DD0020C043DC
:101230000A90089807430DD0EF48F0492818484312
:101240000714189800281DD07542291E1DDD0A9824
:1012500042421BE01898012802D00020302104E00F
:101260000020F24305E02154401CB042FBDB304635
:101270000022189B002121540F998B600A6048605E
:1012800013B0F0BDBD1B6D1CDFE70A9A002900DA20
:1012900069420BA800F0F4FD0BAB07CB03AB07C30F
:1012A0000899099800F050FE6B4607C30146D448E0
:1012B0000918002D00910ADDD14903980A9A494284
:1012C000401803A90390684601F071F807E00399FC
:1012D0000A9A081803A90390684601F030F86B4693
:1012E00007C30004000C03D00020C043410800E005
:1012F0001046189A002A03D00022009215461EE0DC
:10130000751E05D400F04CFB303262556D1EF9D5C8
:1013100001220843079602D000227F1C04E02078B7
:10132000302801D100227F1E002A069789D01EE0B6
:10133000112D07DA00F034FB303262556D1C024685
:101340000A43F5D1084303D00098002819D00EE0D5
:101350000021681E05E0235C625C63542254401E39
:10136000491C8142F7DBA81B401E07950690079A8F
:1013700018990020A0540F98079B069A81600CC012
:101380007EE71126002018905BE7D21DF0B50D46D0
:101390000446D10893B0C90003C90C900D9103F025
:1013A00073FE02460D98C00F01D02D2007E0206883
:1013B000810701D52B2002E04007C00F4001032A1E
:1013C0000F9001D0072A05DB03462946204600F08E
:1013D00091FC0EE12078800601D5E76900E0062740
:1013E0002846652D04D0662814D0672D69D12DE0DC
:1013F0000020112F009001DB112300E07B1C0CAAC0
:1014000003A910A8FFF7F5FE1199002610987D1C7E
:101410000E9142E001203B460CAAC0070B90012030
:10142000009003A910A8FFF7E4FE119D12981099EF
:10143000002600280E9501D1781C0D18781B02D4C7
:1014400046427D1C761EE81B00903AE0012F00DA30
:1014500001270020112F009001DD112300E03B4601
:101460000CAA03A910A8FFF7C4FE11993D461098D5
:1014700000260E91217809070BD40E99A94200DAB3
:101480000D4603A9012D04DD4A19203AD27F302AE6
:1014900006D0B84201DA011D04DA012100910FE003
:1014A0006D1EEFE7002802DC86192D1A03E0411CAF
:1014B000A94200DD0D46801B401C00900120C007A2
:1014C0000B902078000705D40098A84202DB00208A
:1014D000C043009069460020C8720B98012102AFFA
:1014E0000337C907884225D0022010902B20119085
:1014F0000B9800280BDA40420B902D20119006E04B
:101500000B9800F0F7F930317F1E0B90397010996D
:10151000481E00291090F3DC0B980028F0D1119898
:101520007F1E38702088000501D5452000E0652029
:101530007F1E387001A8C01BC01D0B900F9800289B
:1015400000D0012041190098C01709180B980818FD
:10155000A169081A401EA0612078C00602D4204666
:10156000FFF778FD0F98002805D06268A1689047C2
:10157000206A401C20622078C00625D52046FFF74F
:1015800069FD21E0002E07DB0E98B04204DD03A8C0
:101590006268805DA16802E06268A16830209047BF
:1015A000206A761C401C20620098401E0028009093
:1015B0000AD100F0F1F9C06862680168405CA16876
:1015C0009047206A401C206228466D1E0028D9DC06
:1015D00007E062683878A1687F1C9047206A401C49
:1015E00020620B99481E00290B90F2DC2046FFF781
:1015F00047FD032044E6000001FCFFFF104D000002
:10160000E1DFFFFF01694A1C02610878704700B5FD
:101610008FB002910021059105490193794403910E
:10162000114604906846FEF7A5FE0FB000BD00000D
:10163000E5FFFFFF0A681070521C0A6070470CC972
:1016400008399A4202D2531C0B6010707047000098
:10165000F7B50446154686B02B487844002703C8E2
:101660003E460090019111E007986A467100415A88
:1016700002A800F0CDFE411C07D02178890603D5D1
:10168000E269391891420ED83F18761C20788006FE
:1016900002D5E069B84206DDAE42E5DB079871008D
:1016A000405A0028E0D1A069C01BA0612046FFF786
:1016B000D1FC154878445A3803C8009000200191A5
:1016C00016E041006A460798415A02A800F0A0FEC1
:1016D0000590401C0AD0002505E0626802A8A168B8
:1016E000405D90476D1C05988542F6D30498401CD8
:1016F000B0420490E5DB206AC01920622046FFF763
:10170000BFFC09B0F0BD0000A6490000F7B5D21D2E
:101710000025D20815A6D200F52905CA11D0002A45
:1017200005DA00214042914111A60A4608E00099DD
:1017300009688B0701D50FA602E0490701D50EA65F
:1017400001251146009F0024243704E000F028F909
:1017500030323A55641C02460A43F7D12B463246D2
:1017600021460098FFF7D8FCFEBD000000000000F5
:101770002D0000002B0000002000000070B5044682
:101780000021243408E05507D2086D0F3035655428
:101790005D072A43DB08491C15461D43F3D1046845
:1017A000002310A2250708D5A40601D4002904D0DF
:1017B000C46901230CA2641EC461FFF7ADFC70BDB7
:1017C00010B5044621461068FFF774FC002302465A
:1017D0002046FFF7D3FF10BDD21DD108C9000CC9A8
:1017E000CCE700000000000030000000F8B50F4614
:1017F0000188090502D5224C7C4402E0204C7C443F
:101800000E3405460021243508E016071209360F6C
:10181000A65D6E541E0732431B09491C16461E4323
:10182000F3D1224604780023240705D5702F06D073
:10183000002901D002231132FFF76EFCF8BD01230D
:101840001032F9E770B504460D4621461068FFF7DF
:1018500031FC0023024629462046FFF7C7FF70BD32
:10186000D21DD308DB000CCBC0E730B403682024C2
:101870001268234303600823C36130BC0023B5E72B
:1018800010480000F7B50F460026009C2578641C20
:10189000002D05D000F078F80068405DC007F5D154
:1018A0002B2D02D02D2D18D0641E3946029A2046C9
:1018B00000F092FA002F04D03968A14201D10099BA
:1018C00039607105022400290BDA4042002803DD4B
:1018D000FFF7BCFB0460A007FEBD012080020643A9
:1018E000E3E70028F8DAFFF7B1FB04600048FEBD2B
:1018F000FFFFFF7F01468008081A02091018020A3C
:101900001018020C1018C008820012185200891A10
:1019100001E0401C0A390A29FBD2704710B5FF23A9
:101920001B0644009C421DD84C009C421AD803461A
:10193000124A0B4307D4401A02D3EFF3008010BDC4
:10194000EFF3008010BD081A06D2EFF300800121EA
:101950009043C907084302E0EFF30080904380F30F
:10196000008810BD0D231B041A4204D0114600202C
:1019700000F06EFD10BD00F083FD10BD0000009072
:10198000004870474401002010B500F005F8001D24
:1019900010BD00BF9942000000487047640100205C
:1019A0000B4670B5024689078008084319469D0812
:1019B000141AA94125090807054308092C194841AB
:1019C000250A01060D43010A2C194141200C0D0482
:1019D00028430D0C00194D41002140194D41C0080C
:1019E00069070843E908840F8D0025438400241803
:1019F0004D4124196D41121BAB4107E00925ED4310
:101A00002C11521963410024401C61411C460A25D7
:101A10000026551BB441F1D270BD0000D21DF0B5B7
:101A200004460D46D0088DB0C000466807683146B0
:101A3000384603F029FB0246F00F01D02D2307E0C2
:101A40002068810701D52B2302E04007C00F430126
:101A50006846002B037001D0012000E00020032A1B
:101A60000A9001D0072A04DB2946204600F042F9FB
:101A70002DE12078800601D40D2500E0E569700095
:101A8000400D0D2D01904BDA300D00210B900846D2
:101A90000020C046032189050840002E05DA820097
:101AA0008018C20F1018401008408015012801DD71
:101AB0000020C043A9000023182906D39C460A46EB
:101AC0000123183A1B07D34003E001221205CA4044
:101AD00094460C31202902D33A46203900E03246A0
:101AE0008A40002802DD002A06D119E0002817D11B
:101AF0000121C9078A4213D3194663467F185E4104
:101B0000002806D10120C007824202D1084687433F
:101B10009E430B98310D814202D00198401C0190E8
:101B20002088000502D57149794402E06F49794463
:101B300019396B460A9830221A540A980A7C401CBC
:101B40001A54401C0A900198002801DC302000E063
:101B500031201872019A0120002A02D0644BD21859
:101B600004E072003A4302D0614A521C0192002DF7
:101B700002DC2278120703D56A462E20507202201A
:101B80000022864694460CE032033601120F6D1E89
:101B90008B5C02AA13546246521C401C9446052AD0
:101BA00001DA002DF0DC002202AE08E03B0F3F011D
:101BB000CB5C521C6D1E3354401C082A01DA002DE8
:101BC000F4DC23689A0601D511E0401E704504DD5F
:101BD0003218203AD27F302AF7D0002807DD321899
:101BE000203AD27F2E2A02D11A0700D4401E002D9F
:101BF00003DD3E223254401C6D1E497C3154019954
:101C0000401C002906DA2D21471C3154019840421E
:101C1000019003E02B21471C315401987D21C9001C
:101C2000884206DBFEF7C4FC3030F0557F1C019182
:101C300001E0642808DB01986421FEF7B9FC30302C
:101C4000F0557F1C019101E00A2806DB01980A216A
:101C5000FEF7AEFC3030F0557F1C01980A21FEF7EC
:101C6000A7FC3031F1550A98A1697F1C7A19101828
:101C7000081AA0612078C00602D42046FFF7EAF9CE
:101C8000216A6E460A980818206204E0626830787B
:101C9000A168761C90470A98401E0A90401CF5D116
:101CA0002078C00602D52046FFF7D4F902AE09E03D
:101CB0003078761C3E280DD06268A1689047206A73
:101CC000401C20627F1EF3D22046FFF7D9F90DB0E9
:101CD0000320F0BD206A4019206203E06268A16819
:101CE000302090476D1EEDD3F8E700001B45000043
:101CF00001FCFFFFF8B51F46044601230068DB0224
:101D0000032601461840072A05DB002801D017A545
:101D100006E017A504E0002801D016A500E016A5EE
:101D2000102081432160A069C01E002FA06101D056
:101D3000401EA0612046FFF78DF9002F09D03846DC
:101D40006268A1689047206A401C2062C01C206223
:101D500006E0206AFAE762682878A1686D1C90475F
:101D6000761EF8D22046FFF78BF9F8BD4E414E00A3
:101D70006E616E00494E4600696E660010B543699B
:101D8000002B02D0C046C04601E0FFF79CF90120BD
:101D900010BD1278014624310A7000224A700122D7
:101DA000ECE711680022D243E8E710B54369002B45
:101DB00002D0C046C04601E0FFF74AFC012010BD3A
:101DC00012880146243182840022C2840122ECE779
:101DD00011680022D243E8E7F7B5154682B0002724
:101DE000029C2078641C0197302802D0002D15D069
:101DF00015E020780127641C782804D0582802D0E8
:101E0000002D09D00BE0002D01D0102D07D1207836
:101E100000271025641C02E0082500E00A250026A2
:101E2000009610E00099012769430818294671437C
:101E3000020C80B200908E183804864201D3012033
:101E400001902078641C294600F041FB0028E9DA63
:101E50000398002805D0002F01D0641E00E0029CEA
:101E600004600198002806D0FFF7F0F80221016015
:101E7000C81E05B0F0BD009930040843F9E7000022
:101E8000F7B516468AB02F4878446C4603467C3333
:101E9000C06F5A689B680DC42A487844763003ACFA
:101EA0000DC80DC43720C001081837211B30FEF7BC
:101EB0007FFB05460C46803D1B3C02D56442012059
:101EC00000E00020002709900FE0E0070BD00C2075
:101ED0001C497843794432464C394118684600F031
:101EE0002EFA6B4607C364107F1C002CEDD1154FF2
:101EF0007F442C3F15E0E80711D02001C0190EC81F
:101F00000691089307920068F04201D19819089051
:101F1000324606A903A800F012FA03AB07C36D10FE
:101F2000641C002DE7D1324669460998002803A8B1
:101F300002D000F03CFA01E000F001FA0A9B07C36E
:101F40000DB0F0BDD0410000034640000A4610B578
:101F5000400D0BD00121C9070F24A40200191C0356
:101F600064082143540D2143D20207E000210120DF
:101F7000F2E7D40F490021435200401E0029F8DA4D
:101F8000DB0FDB07184310BDFFB50D46144685B0C7
:101F90004868516803F052F800910190A868A16860
:101FA00003F04CF802910390A868616803F046F8CA
:101FB000029A12188242029201D2012000E000200F
:101FC000019A0B18D2180028019202D08A4202D935
:101FD00003E08A4201D2012000E0002000990818A5
:101FE00000906868A16803F029F8029A12188242EA
:101FF000029201D2012000E00020019A0B18D218B1
:102000000028019202D08A4202D903E08A4201D21A
:10201000012000E00020009908180090286821683D
:1020200040004900400849084018F549471814E0A5
:1020300001994000C90F084300900198029940009F
:10204000C90F08430190029803994000C90F084343
:102050000290039840007F1E039000980028E7DA62
:102060000898002801D0E74E00E00026B74228DAA1
:10207000F71BF806C00E15D0029B2021091A039AFF
:102080008B401A430392029A019BC2408B401A4331
:102090000292019A009BC2408B4000991A43019220
:1020A000C14000917A110BD06B460320811A01D5F3
:1020B000002101E0890059588700401ED951F5D50B
:1020C000374603980299002800D001200143089860
:1020D0000291002808460CD0002800D00120019968
:1020E000019A490508430121D20AC902D20201928C
:1020F00000E001210E9B0122D207012B02D0002B10
:1021000003D013E0002807D116E0904204D8904293
:102110000CD1019B0B4209D0019B5918019105D1AB
:102120000099491C009101D17F1C0092002803D026
:10213000102108460020C04628682168019B009AAB
:102140004840C10F0598C90739430EC009B0F0BD1A
:10215000FFB587B0099A0898089953689268406853
:10216000896896460022039317469446089A126897
:102170005300099A5B081268520052089A1AA24B3F
:10218000D4180A9A002A01D0352200E04022069293
:102190000022012315460492DB07059324E0002D5D
:1021A00005D175460346039E4D1BB34109D37546C1
:1021B0006646039B491B049D9841059B7519AC46D7
:1021C0005F4163463B4308D0059B049EDD077608CC
:1021D0002E435B080496059301E0521E641EC50F52
:1021E000ED0749184041521C069B9A42D7DB002D4F
:1021F00004D17546039A6B1A824101D203200CE088
:10220000039A0B466B404240134303D0014303D073
:10221000012002E0022000E000206146019100213F
:10222000009702910A99002905D0614640020143B6
:10223000744B019102E08007002302909C423ADA3D
:102240001A1BD006C00E15D0029D2021019C091A30
:10225000C5408C402543029C8C4000D0012425437E
:10226000019C02953D46C4408D4039462C43C140F7
:102270000194009154111DD06D46022100220229C3
:102280000CD10320001B07E0002804DB8600AE59B8
:10229000002E00D00122401C0328F5DB081B02D5CC
:1022A00088002A5004E08000285810438A00A85073
:1022B000491EE3D51C460A98002802980CD0002835
:1022C00000D001200199019A490508430121D20A51
:1022D000C902D202019200E00121109B0122D20723
:1022E000012B02D0002B03D013E0002807D116E009
:1022F000904204D890420CD1019B0B4209D0019B23
:102300005918019105D10099491C009101D1641C13
:102310000092002803D0102108460020C0460898EB
:102320000999019A0068096848400099C30F079805
:10233000DB0723430360826041600BB0F0BD1FB533
:10234000002300920A46014601A8FFF71DFE01ABDB
:1023500007CB04B010BDF0B585B0012300920A464A
:10236000014601A8FFF710FE01990F220298920280
:10237000CF0F4900039E49088C1AFF07002100284F
:1023800000DB0C46450021486D08844206D30D460B
:102390000E460446102108460020C0462005E90AE2
:1023A000084369053843F20A05B01143F0BD1FB573
:1023B000002300920A46014601A8FFF7C9FE01ABBF
:1023C00007CBC6E71FB5012300920A46014601A8C4
:1023D000FFF7BEFE01AB0F2407CBA402C30F4000E2
:1023E000DB074008001B002900DB00204900000536
:1023F0004908CC0A204349051843D20A1143A8E7EB
:1024000002C0FFFF013C0000FF3F0000FF0700008B
:1024100070B516460C460546FFF7B6FA0368FF206E
:102420000230C05C012807D0FF2C0ED8185D0028B0
:102430000BD001202C7070BDFF333246214608338B
:102440001868C3182846984770BD0020C04370BD67
:10245000C80212D54803400F002804D0C803C04367
:10246000012188407047EFF300800001000903213B
:102470000907084380F30088704700207047000078
:1024800010B5024800F07EF810BD00000000C07FCB
:102490007546FFF775FAAE46050069465346C00813
:1024A000C000854618B020B5FDF7E2FE60BC0027ED
:1024B0004908B6460026C0C5C0C5C0C5C0C5C0C510
:1024C000C0C5C0C5C0C5403D49008D4670473A28CB
:1024D00000D23038202302469A43412A01D31046C5
:1024E0003738884201D30020C043704710B50446F6
:1024F000C046C0462046FDF7ABFE10BD024670B593
:102500000A4392072AD11E4DEE0104C808C9541B84
:102510009443344017D0D0B2D9B2401A21060143B7
:1025200010D190B299B2401A210401430AD110028D
:102530001902000A090A401A2102014302D1100EB1
:10254000190E401A70BD9A42DFD010BA19BA8842EB
:1025500001D9012070BD0020C04370BD02780B7806
:10256000401C491C002A09D09A4207D102780B78F6
:10257000401C491C002A01D09A42EFD0D01A70BDED
:102580000101010110B50C461107090F092904D0FA
:102590000A290AD008290CD104E011460820FFF7C7
:1025A00057FF06E0510606D501E0510601D501208E
:1025B000C007214610BDD10607D501010909CC0885
:1025C0004907000E0006044309E0410F20024907B5
:1025D000000A0143200E00061D22D1410143084696
:1025E000E7E7704701491820ABBEFEE7260002006E
:1025F00010B500F05FF810BD014908607047000099
:10260000002401401949CA6818239A4303789B079C
:10261000DB0E1A43CA60CA6820239A434378DB075B
:102620009B0E1A43CA60CA6804239A438378DB0767
:102630005B0F1A43CA60CA684B149A43C378DB071E
:102640009B0C1A43CA60CA6803239B029A434379CE
:102650009B071B0D1A43CA60CA68FF230079C13368
:1026600040079A43C00D0243CA60704700240140EE
:10267000034A936A03439362506908435061704769
:10268000002401400021017041708170C17001710E
:10269000417170470248816801221143816070478F
:1026A0000024014002494A6802434A607047000022
:1026B00000240140F8B5082000F04AF801281ED196
:1026C0000820FFF799FF00F03DF80D4C0D4E234612
:1026D000803B2061197FE7684A00B55AB0527D1BE4
:1026E0002818491CE0600907090F19770003000C3E
:1026F0000549206048430549FDF750FF6060F8BD7B
:102700008C000020D4000020E40C0000FF0F00002B
:102710000B4B002099685A05114399600F22120350
:102720009968401CC90F904201D00029F8D19868DF
:10273000002803DB024840300068704700207047E3
:10274000002401400148006880B2704740240140E5
:1027500006494A68096802400140002A03D000295E
:1027600001D0012070470020704700000024014084
:1027700010B501246402204601F0F0FE204601F06D
:10278000CDFE10BD0248816804221143816070476C
:102790000024014010B50420C04302F0A3F907480B
:1027A00005490068FDF7FAFE05497D22086080B200
:1027B000D2005043486010BD00127A000000002093
:1027C0000400002001B50B490098496848430A49B4
:1027D000486100238B610869012210430861086980
:1027E000C20701D0C003FAD508694008400008615B
:1027F0008B6108BD0400002000E000E001B50B493A
:102800000098096848430A49486100238B610869B8
:102810000122104308610869C20701D0C003FAD53C
:1028200008694008400008618B6108BD0400002071
:1028300000E000E010B501F0CDFAFFF7ABFF01F0CA
:1028400039F801F039FB01F035FA00F0A9FF01F089
:102850005BFB00F03CFC0448012141720021603028
:10286000C163C16B016410BD2C00002010B5234C66
:10287000607A002823D0207A042829D006DC012899
:1028800009D002280FD0032815D119E0102826D02E
:10289000202810D12AE01AA1002000F02CF9207A7B
:1028A0004008400006E016A1002000F024F9207A3C
:1028B000FD2121E0207200F04AFA0020607210BD74
:1028C0000FA1002000F017F9207A80088000F1E7BE
:1028D0000BA1002000F00FF9207AFB210CE008A1E9
:1028E000002000F008F9207AEF2105E004A1002083
:1028F00000F001F9207ADF210840DBE70C0000201E
:10290000202020200000000015480122416C920385
:102910008B1A914218D00BDC124A891A1AD0891AE4
:1029200014D05200914202D13221C18601877047F2
:10293000991A0DD00122D203891A0DD0520091426A
:10294000F5D17D210901F0E76421EEE70A21ECE7EA
:10295000FA21EAE70221E8E7FF21F531E5E7000087
:102960000C00002000080000F8B506460B0002F03D
:102970007DFB351C1E2225282C2F3234363A3D4152
:1029800045487B484B835153538C8F585A1C5E608B
:1029900062282C65677236743D4176787B7E818330
:1029A0008689538C8F585A926A00032260E00D2268
:1029B00002250D2447E00B22002504E00C2203250C
:1029C000F7E70B2202E001243DE003220625FAE7A7
:1029D0000B2204251CE003222EE003225CE00A22E5
:1029E0001BE00C242FE003220A2518E00B2253E001
:1029F000002428E0032201250E2424E003220925D7
:102A0000EFE70B220025D4E703220E2505241AE068
:102A1000092418E008220FE00B220025E1E7022438
:102A200011E0092208E00C22002503240BE00B2210
:102A300018E00A2224E00A220625D2E7092217E03C
:102A400003220FE00824330002F010FB08282C308A
:102A500034383C404447002215E0032210E00222B3
:102A600000E00A220625EDE703220625CEE7012233
:102A700006259EE7022203E009220625C8E70B226D
:102A80000625B5E70A220025DCE707220825A8E786
:102A900004220925C3E700220025A9E714211327F2
:102AA00012261AE0112110270F2616E00E210D27FD
:102AB0000C2612E00B210A2709260EE00621072723
:102AC00008260AE003210427052606E00021012745
:102AD000022602E0172118271926052001F060F8C8
:102AE0002A463946052001F05BF82246314605208A
:102AF00001F056F8F8BDF8B500240E460746042547
:102B00002046002F0FD1002C06D0012C06D0022C1D
:102B100006D0032C06D006E0072004E0062002E0E1
:102B2000052000E00420315D0A46613A192A02D9E5
:102B30002032192A6FD841390B0002F097FA3A6D0A
:102B4000707376797C7F8285888B8E9194979A9D1D
:102B5000A0A3A6A9ACAFB2B5B8F2F2F2F2F2F21E9F
:102B60002124272A2D303336393C3F4245484B4EED
:102B70005154575A5D60636669F2C0B21A2198E0F9
:102B8000C0B21B2195E0C0B21C2192E0C0B21D2151
:102B90008FE0C0B21E218CE0C0B21F2189E0C0B21C
:102BA000202186E0C0B2212183E0C0B2222180E052
:102BB000C0B223217DE0C0B224217AE0C0B2252139
:102BC00077E0C0B2262174E0C0B2272171E0C0B224
:102BD00028216EE0C0B229216BE0C0B22A2168E052
:102BE000C0B22B2165E0C0B22C2162E0C0B22D2121
:102BF0005FE0C0B22E215CE0C0B22F2159E0C0B22C
:102C0000302156E0C0B2312153E0C0B2322150E051
:102C1000C0B233214DE04FE0C0B2002149E0C0B264
:102C2000012146E0C0B2022143E0C0B2032140E0EE
:102C3000C0B204213DE0C0B205213AE0C0B2062195
:102C400037E0C0B2072134E0C0B2082131E0C0B2A1
:102C500009212EE0C0B20A212BE0C0B20B2128E0EE
:102C6000C0B20C2125E0C0B20D2122E0C0B20E217D
:102C70001FE0C0B20F211CE0C0B2102119E0C0B2A9
:102C8000112116E0C0B2122113E0C0B2132110E0EE
:102C9000C0B214210DE0C0B215210AE0C0B2162165
:102CA00007E0C0B2172104E0C0B2182101E0C0B2B1
:102CB0001921FFF759FE34E00A46303A092A26D88E
:102CC000130002F0D3F90A06090C0F1215181B1E87
:102CD000212EC0B2002122E0C0B201211FE0C0B20B
:102CE00002211CE0C0B2032119E0C0B2042116E0A9
:102CF000C0B2052113E0C0B2062110E0C0B2072126
:102D00000DE0C0B208210AE0C0B2092107E02D2978
:102D10000CD07C290AD02F2908D0C0B20A2100F09B
:102D2000CFFB641CAC4200DAEAE6F8BD2D2908D0DE
:102D30002F2909D07C29F4D1C0B2022100F038FC3F
:102D4000EFE7C0B20121F9E7C0B20021F6E710B504
:102D500000221521052000F023FF00221621052066
:102D600000F01EFF10BDF3B587B00D460846FDF715
:102D7000D3FB024614286ADA0027009701970297CE
:102D80000397049738463B463C463946059704E08E
:102D90006E5C2E2E00D10C46491C9142F8DB944209
:102DA00014DA0022694604E0AE5C401C8E54C0B2C6
:102DB000521CA242F8DB0F5403A902E0C8545B1C6A
:102DC000DBB2641C285D0028F8D1CF546846FDF7BB
:102DD00095FB05466846FDF79FFB044603A8FDF7F3
:102DE0008DFB064603A8FDF797FB079900297ED0C7
:102DF00003282ED002284AD0012879D0002826D1D5
:102E00007D21C9002846FDF7D3FB0A21FDF7D0FB41
:102E1000C9B2002000F054FB64212846FDF7C8FB2E
:102E20000A21FDF7C5FBC9B2012000F049FB0A21C8
:102E30002846FDF7BDFB0C460A21FDF7B9FBC9B2D8
:102E4000022000F03DFBE1B2032000F039FB09B0A5
:102E5000F0BD002D19D00A212846FDF7A9FBC9B203
:102E6000002000F02DFB0321002000F0A1FB6421D5
:102E70003046FDF79DFB0A21FDF79AFBC9B2012000
:102E800000F01EFB0A213046D3E70A21E8E7012CB7
:102E900002D0022C0AD01BE0002D05D00A212846C2
:102EA000FDF786FBC9B210E00A210EE0002D25D007
:102EB0000A212846FDF77CFB0C460A21FDF778FB2A
:102EC000C9B2002000F0FCFAE1B2012000F0F8FAEB
:102ED0000A213046FDF76CFB0C460A21FDF768FB22
:102EE000C9B2022000F0ECFAE1B2032001E03FE0B9
:102EF00009E000F0E5FA0321012036E00A21002074
:102F000000F0DEFAD0E7032C04D0022C0DD0012C07
:102F100019D020E064212846FDF74AFB0A21FDF77D
:102F200047FBC9B2002000F0CBFA0A212846FDF782
:102F30003FFB0C460A21FDF73BFBC9B2012000F024
:102F4000BFFAE1B204E00A212846FDF731FBC9B21D
:102F5000022000F0B5FA0A213046FDF729FBC9B27C
:102F6000032000F0ADFA0321022000F021FB6EE700
:102F700003281FD002283BD0012875D00028F6D1A5
:102F800064212846FDF714FB0A21FDF711FBC9B2A5
:102F9000062000F095FA0A212846FDF709FB0C46A9
:102FA0000A21FDF705FBC9B2052000F089FAE1B25C
:102FB00004204AE7002D19D00A212846FDF7F8FA27
:102FC000C9B2072000F07CFA0321072000F0F0FAD4
:102FD00064213046FDF7ECFA0A21FDF7E9FAC9B29F
:102FE000062000F06DFA0A213046D6E70A21E8E70C
:102FF000012C02D0022C0BD01CE0002D06D00A219F
:103000002846FDF7D5FAC9B2062011E00A21FBE7F0
:10301000002D22D00A212846FDF7CAFA0C460A21C3
:10302000FDF7C6FAC9B2002000F04AFAE1B2012069
:1030300000F046FA0A213046FDF7BAFA0C460A219A
:10304000FDF7B6FAC9B2052000F03AFAE1B2042061
:1030500000F036FA0321062087E70A21002000F05D
:103060002FFA0A21E3E7FFE7032C04D0022C0DD04E
:10307000012C19D020E064212846FDF799FA0A2195
:10308000FDF796FAC9B2072000F01AFA0A2128467D
:10309000FDF78EFA0C460A21FDF78AFAC9B206201E
:1030A00000F00EFAE1B204E00A212846FDF780FAAA
:1030B000C9B2052000F004FA0A213046FDF778FA7B
:1030C000C9B2042000F0FCF9032105204DE710B53A
:1030D00000F00AFD10BD0000F0B591B00D460446A9
:1030E0001646202102A8FDF757FA6F007F08002E30
:1030F00006D0012E0BD0022E50D0032E15D154E055
:103100002846FDF781FEE0A20191009005E02846E7
:10311000FDF77AFEDEA2019100901E2102A8FDF7C4
:10312000D5F8002870DB1E286ED20121C905681A67
:103130000F90D948DA4B28180E90D84832462818F4
:103140000D90E8180C9068004008411A0B91D24984
:1031500002AE41180A91D1494118C018019100905E
:10316000002A29D0012A6ED0022A6DD0032A4BD121
:10317000FF20C005C54268D2CA48854271DBCA48F3
:103180000F9981426DD335210E98C9048842F9D335
:10319000D9210D9849048842F4D3B2E02846FDF7BE
:1031A00033FEC2A201910090B7E72846FDF72CFE3E
:1031B000C0A201910090B0E7FF20C005C5422ED209
:1031C000B848854203DBB8490F9888420FD2314690
:1031D0002046FFF7C8FD002C04D00A21002000F093
:1031E0006FF929E00A21072000F06AF932E0352062
:1031F0000E99C004814278D3D9210D9849048842A0
:1032000003D20A21002007E055E025210C9889030C
:10321000884250D20A21072000F052F9D5E0A74891
:1032200087421FDA2046711CFFF79DFD002C0DD050
:103230000121002000F0BCF90A21012000F040F932
:103240000A2102207FE045E095E0F9E00121072016
:1032500000F0AEF90A21062000F032F90A2105201B
:1032600071E0BCE090490B9888426FD22046711CF7
:10327000FFF779FD002C08D00A21012000F020F989
:103280000121002000F094F9DAE70A21062000F07D
:1032900017F90121072000F08BF9DFE7D921019808
:1032A000490488427AD22046B11CB3E0002000E0F5
:1032B000072000F07DF911B0F0BD2046B11CB6E04A
:1032C0000021012000F0FCF8A8E00021062000F019
:1032D000F7F8CFE0FF20C005C54272481ED28542F4
:1032E00003DB71480F99814201D231464FE035200E
:1032F0000E99C004814272D3D9210D9849048842A5
:1033000004D325210C9889038842D4D231465DE04C
:103310000A21002017E00A21072014E0874216DA6C
:103320002046711CFFF71FFD002C06D00121002054
:1033300000F0C6F80A21012005E00121072000F075
:10334000BFF80A21062000F0BBF8B4E774E0564944
:103350000B98884270D22046711CFFF704FD002CA8
:1033600004D00A21012000F0ABF84AE00A2106202F
:1033700000F0A6F87CE031462046FFF7F4FCFF2081
:10338000C005C54226D24748854208DA02A9204630
:10339000FFF7E9FC002C23D00A21C8E76CE0424883
:1033A0000F99814204D335210E98C904884202D274
:1033B00002A9204649E0D9210D984904884204D346
:1033C00025210C9889038842BFD202A92046FFF725
:1033D000CAFC70E73948874204DA711CD7E72DE050
:1033E0000A21ABE730490B98884204D335200A996B
:1033F000C004814207D2711C2046FFF7B4FC002CA8
:1034000036D0012152E7D92101984904884207D2D8
:10341000B11C2046FFF7A7FC002C2BD0042145E768
:1034200025210098890388428FD8B11C2046FFF7D8
:103430009AFC002C01D148E711E041E73146B8E79A
:103440001E48874207DA2046711CFFF78CFC002CCF
:1034500000D160E75CE714480B99814205D3352120
:103460000A98C904884200D318E72046711CC4E7B3
:1034700001211DE704211BE72521009889038842CB
:1034800000D81AE717E70000252E3066000000007C
:10349000252E3166000000000000E0BE000038BDAF
:1034A000000086BBBD3786350000A040252E326661
:1034B00000000000252E336600000000CDCCCC3D7E
:1034C000F8B506460B0001F0D1FD0B0B0D101418DA
:1034D0001C1E292C2E07210000221546144615E03B
:1034E0000B221CE00022154609E00A2206250524CD
:1034F0000CE0082218E00D2408E0012206250C2427
:1035000004E0092200E00B2206250924330001F023
:10351000ADFD080D1115191D2125292C00220025AE
:10352000E9E70B2200E009220625E4E7142113272E
:1035300012261AE0112110270F2616E00E210D2762
:103540000C2612E00B210A2709260EE00621072788
:1035500008260AE003210427052606E000210127AA
:10356000022602E0172118271926052000F018FB73
:103570002A463946052000F013FB22463146052035
:1035800000F00EFBF8BD0FB43EB5002102910446D9
:1035900000910191092108AB6846079AFCF77AFE71
:1035A00069462046FFF7A7FA3EBC08BC04B018479E
:1035B000F3B583B0049F002002463B0001F056FDA6
:1035C00005040A0E1914190004230193002302268E
:1035D00000930EE000230193062302E003230193EE
:1035E00000230026009304E00023019306230C2609
:1035F0000093039F3B0001F039FD08050A0F1418E2
:103600001C21262A14211325122408201FE0112131
:1036100010250F2404201AE00E210D250C24022071
:1036200015E00B210A25092411E0062107250824AD
:103630000DE0032104250524022208E000210125D4
:103640000224042203E01721182519240822049BD0
:10365000032B0BD00520019A00F0A2FA2946052081
:10366000009A00F09DFA3246214605E0042F02D26E
:103670000246152100E01621052000F091FA05B060
:10368000F0BD000070B50C46012862D10A2C06D2AC
:103690000A212046FCF782FF0320FFF711FF204696
:1036A0000A385A280ED20A212046FCF777FF0D4629
:1036B0000A21FCF773FF0220FFF702FF29460320CF
:1036C000FFF7FEFE2046E12164388900884218D2C7
:1036D00064212046FCF762FF0A21FCF75FFF01200E
:1036E000FFF7EEFE0A212046FCF758FF0D460A219F
:1036F000FCF754FF0220FFF7E3FE29460320FFF703
:10370000DFFE7D21C900184A601A904221D8204668
:10371000FCF744FF0A21FCF741FF0020FFF7D0FE31
:1037200064212046FCF73AFF0A21FCF737FF01200D
:10373000FFF7C6FE0A212046FCF730FF0C460A219F
:10374000FCF72CFF0220FFF7BBFE21460320FFF70A
:10375000B7FE00221521052000F022FA00221621D2
:10376000052000F01DFA70BD2723000010B50446A7
:1037700086B00846FDF748FB0191009006A20A2199
:1037800002A8FCF7A3FD0A2803DA02A92046FFF7E6
:10379000EAFA06B010BD0000252E316600000000D8
:1037A00010B500F0FFFA0E4C002322460A210D4806
:1037B00000F066F80B48012322460A21103000F081
:1037C0005FF80848022322460A21203000F058F80A
:1037D0000448032322460A21303000F051F810BD7E
:1037E0000000C8420401002070B504460068A168CA
:1037F000884242D20121090309266268CD00F606FB
:103800009042207B1AD2002803D10122304600F0DA
:10381000BFFA207B012804D101221021304600F09C
:10382000B7FA207B022804D101222946304600F055
:10383000AFFA207B03281FD1012219E0002803D111
:103840000022304600F0A4FA207B012804D1002297
:103850001021304600F09CFA207B022804D100227F
:103860002946304600F094FA207B032804D1002238
:103870002021304600F08CFA70BD0020206070BD21
:10388000F8B50D4604461F4609491046FDF7E6FA0D
:1038900006462846FDF7D6FB314602F04DFAFDF705
:1038A0008DFBA5606060002020602773F8BD0000DC
:1038B0000000C84210B500F0C2F810BD0848C17938
:1038C0004030102909D0202904D0402907D17D217A
:1038D000C90003E0FF21F53100E0FA214180704783
:1038E0000C00002010B5022000F05CF8012804D183
:1038F00000F032FB022000F019F8012000F052F82D
:10390000012804D100F046FB012000F00FF810BDA3
:1039100010B5FF240134204600F044F8012804D1FA
:1039200000F056FB204600F001F810BD0149486147
:10393000704700000004014083790179184A002B88
:1039400004D0002910D0012913D016E0002906D098
:10395000012903D1516800688143516070471168A3
:103960000068814311607047116803681943116052
:1039700003E05168036819435160417900290AD076
:10398000012903D09168036819439160D1680068E8
:103990000143D160704791680068014391607047AE
:1039A00000040140034A0146526900200A4200D047
:1039B000012070470004014081627047F0B5002289
:1039C000032501230C8893401C422DD08B78012BBA
:1039D00001D0022B15D1846853002E469E40B4437B
:1039E00084600C799C4083681C4384604368CC7875
:1039F0009440A34343604368CC789440A4B22343EB
:103A00004360066853002C469C40A64306608E78AF
:103A100007689E403E430660C668A643C6604C7970
:103A20009C40C3681C43C460521C102AC9D3F0BD1B
:103A30000069084000D001207047816170471FB5C0
:103A40000120400400F072FD0120400200F07EFDE4
:103A5000012000F07BFD4021684601810321817235
:103A600000244473092002A9C006FFF7A7FFFEF750
:103A70007FFE6846FEF706FE684604704470847058
:103A80000121C17004714471FEF7BCFD0721402083
:103A9000FEF7EEFD02210C2000F0F0FA0820FEF700
:103AA00001FEFEF735FEFEF7F5FDFEF76BFE1FBDCE
:103AB00010B5002400222146052000F071F8641C96
:103AC000A4B2312CF6D310BD10B52921042000F08A
:103AD00023F80321042000F01FF80121042000F046
:103AE0001BF8FFF7E5FF10BD1CB50120800400F0B6
:103AF0001DFDE0206A461080012090700020D070EB
:103B000003211171507169460248FFF757FFFFF713
:103B1000DBFF1CBD00040048F8B50D460646002139
:103B2000084600F0A5F80120FEF768FE00240427EF
:103B30000021012000F09CF83946E140314002208C
:103B400000F096F80120FEF759FE0121084600F02A
:103B50008FF80120FEF752FE641C032CE8DB0024E2
:103B600080260021012000F083F83146E140294001
:103B7000022000F07DF80120FEF740FE01210846FA
:103B800000F076F80120FEF739FE641C092CE8DB12
:103B90000121002000F06CF80120FEF72FFEF8BD97
:103BA000F8B50E46074600211546084600F060F8B5
:103BB0000120FEF723FE00240421E14039400220C9
:103BC00000F056F80520FEF719FE0021012000F054
:103BD0004FF80520FEF712FE0121084600F048F8D4
:103BE0000120FEF70BFE641C032CE5DB00242027DC
:103BF0003946E1403140022000F03AF80520FEF756
:103C0000FDFD0021012000F033F80520FEF7F6FD50
:103C10000121084600F02CF80120FEF7EFFD641C9E
:103C2000062CE5DB002401263046A0402840C1B226
:103C3000022000F01DF80520FEF7E0FD0021012024
:103C400000F016F80520FEF7D9FD0121084600F026
:103C50000FF83046FEF7D2FD641C042CE4DB012192
:103C6000002000F005F80120FEF7C8FDF8BD0000B7
:103C700010B50F4A002807D001280BD002280FD119
:103C8000002913D0202108E0002901D0802104E080
:103C9000802107E0002904D040211046FFF7CDFE27
:103CA00010BD40211046FFF787FE10BD2021F9E727
:103CB00000040048F0B5012085B0400400F036FC57
:103CC0000120800400F032FC012000F03FFC0225BE
:103CD00069460D8000248C70032609200E71C006F1
:103CE000FFF76CFE012769460F808C7009200E716A
:103CF000C006FFF763FEE801694608808C700E710C
:103D00001448FFF75BFE0121002000F04DFC00216C
:103D1000084600F049FC0821012000F045FC6946F6
:103D200002958F730C734D7302A8FFF705FE02A86E
:103D30000297FFF701FEE801029002A8FFF7FCFDE1
:103D40000121052000F09AF90121072000F096F9E1
:103D500005B0F0BD0004004810B5FFF769FE10BDC6
:103D600010B5002806D00948002901D0022106E03C
:103D7000022108E00920C006002903D08021FFF7B6
:103D80005CFE10BD8021FFF717FE10BD0004004847
:103D900010B5002A02D0FFF750FE10BDFFF70CFE51
:103DA00010BD00001CB50120400400F0BFFB084816
:103DB0006A461080012090700020D070032111719C
:103DC000507109206946C006FFF7F8FD1CBD0000D0
:103DD00030900000344801680122114301604168BD
:103DE000324A114041600168314A11400160016866
:103DF000012292049143016041683F2212049143E1
:103E000041604168090909014160016BFF22543298
:103E100091430163416B490849004163002181607E
:103E200001680122120411430160002105221202DF
:103E300003689B0702D4491C9142F9D301688907A2
:103E400030D51C490A6810231A430A600A68D20850
:103E5000D200521C0A604168F022914341604168DF
:103E6000072212029143416041680322D203914329
:103E7000416041680F22920491430522D2048918BF
:103E8000416001681A051143016001688901FCD590
:103E9000416889088900891C416041680907890FC8
:103EA0000229FAD170470000001002400CB8FF0848
:103EB000FFFFF6FE002002403EB5012000F03EFB71
:103EC0000124A407204600F06DFF00216A4611720C
:103ED00091700C4801902F20108051726946204645
:103EE00000F066FF0121204600F059FF0121204625
:103EF00000F0A9FF00210F2000F0C0F8204600F0DC
:103F00009DFF3EBDE70300007CB50120400400F0AA
:103F10000DFB0120800400F009FB80216846018030
:103F2000012686700024C4700325057144710920A0
:103F30006946C006FFF742FD02216846018086708F
:103F4000C4700571447169460148FFF737FD7CBDB7
:103F5000000400487047000010B50A20FEF732FC4C
:103F600009200221C006FFF7F7FE0949002804D006
:103F7000087B40084000087310BD0A7B0120024303
:103F80000A734A7B02434A738873087110BD0000AC
:103F9000F400002010B50A20FEF714FC09200121CE
:103FA000C006FFF7D9FE0949002804D0087BFD228E
:103FB0001040087310BD0A7B022002430A734A7B3B
:103FC00002434A7301208873087110BDF400002079
:103FD00010B50A20FEF7F6FBFF2101310A48FFF772
:103FE000BBFE0A49002804D0087BFB22104008735E
:103FF00010BD0A7B042002430A734A7B02434A73C2
:1040000001208873087110BD00040048F4000020EE
:1040100010B514480122806C9204811A124C134886
:104020000ED091421CD18179C07901430CD000237C
:104030001A460A210E48FFF723FC022322460BE012
:104040008179C0790143F2D0002322460A21084831
:10405000FFF716FC022300220A210648FFF710FC96
:1040600010BD00000C0000200000C8422C00002001
:104070000401002024010020704700008207D30EB5
:10408000FF229A408907090E10B5994000280BDAE3
:1040900003071B0F083B9C080B4BA400E318DC69CB
:1040A00094430C43DC6107E08408084BA400E31848
:1040B0001C6894430C431C60C106C90E0120884053
:1040C0000349086010BD000000ED00E000E400E0DE
:1040D00000E100E0F8B5FEF73AFED64E0222337951
:1040E00010272021012B18D0042408250320022B9F
:1040F00077D0042B4CD17379082B73D0102B7CD044
:10410000202B71D0402B43D1B27B082A6DD06DDCBF
:10411000002A6CD0042A6BD194E07079012408281D
:104120003BD010280DD020283FD0402830D1F07A45
:1041300000282ED0012819D010281FD0202825D1E2
:1041400027E0B07A00280ED0012802D0022808D13A
:1041500009E0144632720222B7A10020FFF713FAD9
:10416000B472B07A13E034720122F5E7377202229A
:10417000B3A10020FFF707FAF77207E00C4631728F
:104180000222B1A10020FFF7FEF9F472F07A7075F7
:10419000F8BD34720122A8A1F4E734720122A6A16D
:1041A0000020FFF7F0F97475F8BD307B002820D0AF
:1041B000012804D010280AD0202810D119E0377225
:1041C00002229FA10020FFF7DEF9377307E00C46BB
:1041D000317202229CA10020FFF7D5F93473307BA5
:1041E000D5E78EE04CE008E05FE033E025E043E017
:1041F0002FE03472012290A1EDE7717B002917D0E6
:10420000022904D004290AD008290FD110E0307205
:1042100001228BA10020FFF7B6F9747306E0357216
:10422000012289A10020FFF7AEF97573707BAEE71C
:1042300014463272022280A1ECE7102A12D0202A02
:1042400018D119E0347201227FA10020FFF79BF9F9
:10425000B5730FE03772022279A10020FFF793F9BE
:10426000B77307E00C463172022277A10020FFF7F6
:104270008AF9B473B07B8AE73072012270A1F5E746
:10428000F17B042909D008298ED1307201226CA15A
:104290000020FFF778F9F473F8BD347201226AA1A7
:1042A0000020FFF770F9F573F8BD327C082A12D0B0
:1042B00004DC002A21D0042A1DD104E0102A12D0E7
:1042C000202A18D119E0347201225FA10020FFF7E3
:1042D0005AF935740FE03772022259A10020FFF716
:1042E00052F9377407E00C463172022256A10020C1
:1042F000FFF749F93474307C49E73072012250A14C
:10430000F5E77379082B51D0102B0CD0202B65D0FA
:10431000402BC9D1B27C082A32D024DC002A41D0FB
:10432000042A3DD124E0717C002917D0022904D051
:1043300004290AD008290FD110E03072012240A1CF
:104340000020FFF720F9747406E0347201223EA1C8
:104350000020FFF718F97574707C18E71446327264
:10436000022235A1ECE7102A12D0202A18D119E038
:104370003472012236A10020FFF705F9B5740FE071
:10438000377202222EA10020FFF7FDF8B77407E074
:104390000C46317202222CA10020FFF7F4F8B4740D
:1043A000B07CF4E63072012225A1F5E7317D0029C9
:1043B00003D0042909D008290ED13072012220A18E
:1043C0000020FFF7E0F8347506E0347201221EA1E8
:1043D0000020FFF7D8F83575307DD8E6F27C082A42
:1043E0001BD004DC002A21D0042A1DD104E0102AAD
:1043F0000AD0202A18D119E03472022214A1002018
:10440000FFF7C1F8F5740FE00C463172022212A1D9
:104410000020FFF7B8F8F47406E03772022208A112
:104420000020FFF7B0F8F774F07CB0E6307201229C
:1044300003A1EDE70C00002020502D2564000000B2
:1044400048312D25640000004C6F2D2564000000CC
:104450004C6F312D256400004C6F322D2564000017
:10446000F8B52C4D2879012807D0022804D16879A5
:10447000082801D1287D6875F8BD68790828FBD027
:10448000244C0026012720341028F5D12046603026
:10449000016A686E01F0E0FB21466031496A01F073
:1044A00021FC08D2A771E670A770688FE98E884258
:1044B0000CD1012107E0A671A670E770A88FE98EE4
:1044C000884203D100210120FFF74AFC11488030C7
:1044D000016AA86E01F0C0FB0E498031496A01F003
:1044E00001FC08D2E77166712771E88F298F884235
:1044F000C2D1012109E0E67126710648677140309A
:104500000088298F8842B7D100210020FFF728FCBE
:10451000F8BD00000C000020704700000249CA6886
:104520008243CA60704700000010024002494A6995
:1045300002434A6170470000001002400249CA6904
:104540000243CA61704700000010024002498A69B4
:1045500002438A6170470000001002400249CA68A5
:104560000243CA60704700000010024010B50A4CB8
:104570002068FCF767FD094901F0DEFB084901F0FE
:104580005FFCA06061694A00120E02D001F058FC85
:10459000A060606210BD00008C000020FCA9713D8D
:1045A0005C8FDA42704700000007000F8A07120F85
:1045B00090400E4A032903D89168014391607047E7
:1045C0000B1F032B03D8D1680143D16070470B4602
:1045D000083B032B03D811690143116170470C3963
:1045E0000329FBD851690143516170470000014024
:1045F000F8B5324E0246707D0024082807DA0128FB
:1046000002D0022803D101E0746E00E0B46E0121F3
:10461000F06C2A4D4906431A8035884223D006DCC7
:104620002749401A23D088420ED126480BE07F202C
:10463000400618181DD03F218906401815D04900A2
:10464000C84201D12048E8620127FF07002A12D0A2
:104650002046E96A01F046FB20D22046A96A01F013
:10466000FBFA04461AE01948EDE71948EBE7194848
:10467000E9E71948E7E7E86A2146784001F032FBAC
:104680000CD22046A96A01F0DBFB0446400040083A
:10469000E96A01F0A9FB01D2EC6A7C4021460020C6
:1046A00000F0A4FC707D082804DA012803D0022859
:1046B00000D1B466F8BD7466F8BD00000C0000209F
:1046C000000040000000D2420000F8416666863FCC
:1046D00000E044443D0AD73D1F857341F8B5FEF71D
:1046E00036FBA74CA74E207802280FD00125ED02FB
:1046F0002F01E90103281BD0042871D1A078030001
:1047000000F0B4FC05F6F7F6FDEEF60000233246A5
:104710000A219D48FFF7B4F8022332460A219B483C
:10472000FFF7AEF89AA10120FEF7E5F998A1DCE0C9
:104730006078030000F09AFC08DC050724455F92CE
:10474000AADC95A1D6E0002332460A218E48FFF765
:1047500097F8022300220A218C48FFF791F820796C
:10476000012809D0022809D0042839D18CA10120C0
:10477000FEF7C1F98CA1B8E08DA1F8E78EA1F6E7AC
:1047800000231A460A218048FFF77AF802233246AE
:104790000A217E48FFF774F8607908280FD01028A6
:1047A00009D0202809D040281AD17DA10120FEF788
:1047B000A2F983A199E07EA1F8E77FA1F6E782A1A3
:1047C000F4E7608D802814D0FF38401E0BD0FF38EE
:1047D000401E06D0FF38FF38022801D17CA103E03B
:1047E00086E07DA100E07EA10120FEF784F97EA194
:1047F0007BE07FA1F8E766A10120FEF77CF90121AB
:10480000606C8903421A88421AD00CDC401B1ED00F
:10481000401B13D00121090388421DD13221012000
:10482000FEF730FF18E0501A0CD0C01B0CD001214D
:104830000904884210D17D210901F0E70A21EEE741
:104840006421ECE7FA21EAE7FF21F531E7E70121EE
:1048500089070120FEF78AFF67A146E0A06C401A95
:104860000CD0401A08D00121C904401A0CD04900CC
:1048700088423DD162A102E063A100E064A1012071
:10488000FEF739F964A130E065A1F8E70121E06C99
:104890004906421A88421BD00DDC6349401A1BD0DE
:1048A000401A17D04900884222D160A10120FEF7AA
:1048B00022F960A119E07F20400610180ED03F2198
:1048C000890640180FD04900C84211D15BA1EDE71D
:1048D0005CA1EBE75DA1E9E75EA1E7E75FA1E5E7A2
:1048E0001EE00CE005E05FA1E0E70020FEF703F921
:1048F000F8BD5EA10120FEF7FEF85EA1F5E7E079C4
:10490000102805D0202805D04028F1D15BA102E075
:104910005CA100E05DA10120FEF7EDF85DA1E4E7F8
:10492000A08D411BA84224D00CDC802815D0FF3874
:10493000401E14D0FF38401E17D0FF38FF38022821
:1049400011D114E0481B16D001210903401A14D0DC
:104950004900884207D151A102E052A100E053A1D1
:104960000120FEF7C8F853A1BFE754A1F8E755A10D
:10497000F6E756A1F4E757A1F2E758A1F0E70000E7
:104980000C0000200000C842040100202401002087
:1049900020202020000000004E6F524D000000003B
:1049A00020485359000000004F757431000000008A
:1049B000454153590000000057434D50000000008E
:1049C0004F75743200000000204F46460000000082
:1049D0003163326F00000000316332630000000079
:1049E000316F3263000000004E4F4E430000000064
:1049F000316F326F0000000020524553000000006C
:104A00004752454E00000000472D6F4E0000000049
:104A1000522D6F4E00000000434C6F52000000000A
:104A2000205245440000000000004000204B674633
:104A300000000000556E697400000000696E484770
:104A4000000000002062417200000000204B505224
:104A500000000000204D505200000000205053493B
:104A6000000000004D4D4847000000002050524F0C
:104A7000000000004D6F64650000000031303030F0
:104A800000000000203235300000000020353030BA
:104A900000000000442D535000000000202020386A
:104AA00000000000202020310000000020202032E3
:104AB000000000002048595300000000202020334F
:104AC00000000000202020340000000020202035BD
:104AD00000000000202020360000000020202037A9
:104AE00000000000042204490428086902D0904311
:104AF000086170471043FBE700E000E070470000EA
:104B000010B52149086801221204104308600020F2
:104B10000B689B0302D4401C9042F9D308688003C1
:104B200030D51A4803681024234303600368DB0868
:104B3000DB005B1C03604868F023984348604868CA
:104B400007231B029843486048680323DB0398430C
:104B50008018486048680F2292049043220480180D
:104B60004860086812011043086008688001FCD59D
:104B7000486880088000801C486048680007800FF3
:104B80000228FAD110BD00000010024000200240AF
:104B900010B5164801680122114301604168144AAA
:104BA000114041600168134A11400160016801220F
:104BB00092049143016041683F2212049143416095
:104BC0004168090909014160016BFF225432914398
:104BD0000163416B49084900416300218160FFF78F
:104BE0008FFF01200449C006886010BD00100240FC
:104BF0000CB8FF08FFFFF6FE00ED00E07047000074
:104C0000F8B501218C07204600F021F901287DD15B
:104C10000121204600F0C0F8564B7D25987BED0021
:104C20000124554A002100282ED01868401C186025
:104C30001E79012E02D0032E12D109E0A8420FD90D
:104C40005973D87B02263043D8730320187107E0CC
:104C50004A4EB04204D9D87B04263043D8731E7123
:104C6000187B002810D11879012804D0032807D018
:104C7000042807D105E0D87B2043D873D18501E013
:104C8000D4771C7199731960107A002807D0D08DE1
:104C9000401CD085D08DA84205D9547203E0507ACB
:104CA000002800D1D185364803685B1C0360354B72
:104CB0001868401C1860344803685B1C0360334864
:104CC00003685B1C03602C482030437A074660373A
:104CD000002B02D0FB6B5B1CFB63538E5B1C9DB2F5
:104CE000254B558640335E88B54201D154775186B5
:104CF000958E6D1CADB22E46FF3E9586F53E03D1D6
:104D000091860578ED430570857800E031E0002D4F
:104D100006D0558FD68EB54203D26D1C558700E064
:104D20005187C578002D06D0958FD68EB54203D217
:104D30006D1C958700E091870579002D06D0D58FF1
:104D4000168FB54203D26D1CD58700E0D187457917
:104D5000002D06D01D88128F954203D26D1C1D8038
:104D600000E01980BA6B521CBA630A2A01D3B963F6
:104D70000472F8BDF40000200C000020B80B000005
:104D8000040100201401002024010020340100202F
:104D900010B5FFF735FF10BDC94301617047C94326
:104DA000016170478168C908C900816070470000CF
:104DB0001C4B10B5984202D01B4A904210D1026899
:104DC0001024A2438C78E407E40E224302600268B8
:104DD0006024A2438C786407A40F6401224302601C
:104DE000124A904208D0026803242402A2430C7A9B
:104DF000A407A40D224302604A68C2620A88826244
:104E0000984208D00A4A904205D00A4A904202D0FD
:104E1000094A904201D1497A016341690122114353
:104E2000416110BD002C0140000400400010004012
:104E30000040014000440140004801400168012257
:104E4000114301607047C2680A43C260704702693B
:104E50000A4204D0C068084201D0012070470020F7
:104E60007047000010B51C490122C96C52068B1A0C
:104E700091421DD00CDC194A891A1FD0891A1CD006
:104E80005200914219D1FBF7BFFF154A154B1EE0A6
:104E90007F214906591816D03F229206891809D059
:104EA0005200D14209D1FBF7AFFF0F4A0F4B0EE082
:104EB0000F4900E00F4900F03FFF10BDFBF7A4FFD2
:104EC0000D4A0E4B03E0FBF79FFF0D4A0D4BFBF71E
:104ED00077FEFBF713FC10BD0C0000200000400023
:104EE0006AF6402B3064953F2E90A0F831E6D23F11
:104EF0000AD7233C0000F040FCA9F1D24D62503F9C
:104F00008FC2F5285C8FC23F10B504462B480B4674
:104F1000C06C01214906421A884225D00DDC28497F
:104F2000401A32D0401A26D04900884245D118464E
:104F3000FBF76AFF234A244B2CE07F204006101821
:104F40002DD03F218906401818D04900C84234D1DD
:104F50001846FBF759FF1D4A1D4BFBF731FEFBF7C7
:104F6000CDFB0146012225E01A49184600F0E4FE77
:104F7000014603221EE0012219461BE0164918468D
:104F800000F0DAFE0146002214E01846FBF73CFF71
:104F9000124A134BFBF714FEFBF7B0FBE8E7184689
:104FA000FBF732FF0F4A104BFBF70AFEFBF7A6FB9D
:104FB000014602222046FEF78FF810BD0C000020AB
:104FC000000040006AF6402B3064953F2E90A0F818
:104FD00031E6D23F0AD7233C0000F040FCA9F1D2D1
:104FE0004D62503F8FC2F5285C8FC23F10B5114A09
:104FF0000123D26C5B06D41A9A4208D009DC0E4B0E
:10500000D21A04D0D21A0FD05B009A4211D10322D7
:105010000DE07F225206A21808D03F239B06D2182B
:1050200005D05B00DA4204D1012200E00222FEF743
:1050300053F810BD0C00002000004000F8B5040C2F
:105040008BB2264682B25E43104658430D0C370C95
:10505000360400218019164679416E43370C360418
:105060008019264679416E438919F8BD30B47446DB
:10507000641E2578641CAB4200D21D46635D5B0054
:10508000E31830BC184700004900CA020243100070
:1050900000D004204A0D01D001221043044A490DDA
:1050A000914201D102210843012800D10520704717
:1050B000FF07000030380A2801D201207047002085
:1050C00070470000F8B5464D00202F468037EC6C45
:1050D0007C63396BA14273D06E7D082E07DA012EF6
:1050E00002D0022E03D101E0686E00E0A86E01221A
:1050F00052068B1A914221D010DC3A4A891A39D0D3
:10510000891A20D0520091421DD1FBF77DFE364A0C
:10511000364BFBF731FBFBF7F1FA14E07F21490630
:1051200059182CD03F229206891809D05200D1423A
:1051300009D1FBF769FE2E4A2E4BEAE72E4900E023
:105140002E49FBF78BFE01214906621A8C422BD0B7
:105150001ADC244AA11A34D0891A2AD0520091426A
:1051600027D1FBF751FE204A204BFBF729FDFBF727
:10517000C5FA1EE0FBF748FE214A224BC9E7FBF7C0
:1051800043FE214A214BC4E77F21490651181DD017
:105190003F229206891809D05200D14209D1FBF76B
:1051A00033FE134A134BE0E7134900E0134900F0C4
:1051B000C3FD082E12DA012E0DD0022E0ED10CE006
:1051C0000DE0FBF721FE0E4A0E4BCEE7FBF71CFE6F
:1051D0000D4A0E4BC9E7686600E0A8663C63F8BD5F
:1051E0000C000020000040006AF6402B3064953F20
:1051F0002E90A0F831E6D23F0AD7233C0000F040C1
:10520000FCA9F1D24D62503F8FC2F5285C8FC23F9E
:1052100010B514480122C16C52068C1A124B803012
:10522000914208D009DC114A891A04D0891A12D097
:105230005200914200D1836210BD7F2149060C4A81
:10524000611806D03F239B06C91806D05B00D942DF
:10525000F2D1826210BD074901E07F21C905816258
:1052600010BD00000C0000206F12833A00004000C7
:105270000AD7233CCDCCCC3DF0B5674A0126F602D7
:10528000918DB40310468F1BA5108030E310B142FE
:1052900075D012DC802920D0FF39491E3CD0FF395F
:1052A000491E4CD0FF39FF3902292CD1D16C5B4A01
:1052B0000F1B5B4EA14254D124E0B91B74D00126D0
:1052C0003603891B6DD07600B1421CD1D16C554A92
:1052D0000F1B554EA14277D114E0D16C534A0F1BDE
:1052E000534EA1420ED070DD5249791811D03F22A1
:1052F000920689180AD01F22D206D14203D103E0B8
:10530000A94200D10262F0BD0662F0BD7F21C9054D
:1053100000E049490162F0BDD16C484A0F1B484E7C
:10532000A142EFD067DD4349791806D03F229206AB
:105330008918E0D101218907ECE74249EAE7D16CFD
:10534000414A0F1B414EA142DCD054DD3949791846
:1053500005D03F2292068918CDD13D49DAE73D4973
:10536000D8E748DD3349791807D03F2292068918DB
:10537000C1D18121C905CDE701E03749CAE7D16C28
:105380003F260F1B354A3606A142BBD033DD2949E3
:10539000791807D03F2292068918ACD13049B9E775
:1053A00002E015E02F49B5E7D16C2F4A0F1B2F4EB5
:1053B000A142A7D01FDD1F49791807D03F229206CE
:1053C000891898D12A49A5E714E014E02949A1E7F2
:1053D000D16C294A0F1B294EA14293D00BDD1549F0
:1053E000791805D03F229206891884D1244991E783
:1053F00024498FE704DCC91A84D0C91A84D07FE716
:105400000C49791806D03F229206891891D1412182
:1054100009067FE71C497DE70C0000206F12833BE3
:10542000CDCCCC3E6F12033CCDCC4C3F6F12833AB7
:10543000CDCCCC3D000000FE0AD7233C6F12033BCD
:10544000CDCC4C3E0AD7A33CA69B443B9A99993EAF
:10545000000040408FC2F53C0AD7233D0AD7A33B4A
:105460000000A040CDCC4C3DA69BC43B9A99193F6F
:105470000000C0408FC2753D4260E53B3333333F8F
:105480000000E040295C8F3D0AD7A33DFDF7D2F92B
:105490000A4C00250A48FEF7A7F90A48FEF7A4F9C6
:1054A0000948FEF7A1F90948FEF79EF9207A00287D
:1054B000F0D000F00DF82572ECE700002C00002081
:1054C00004010020140100202401002034010020E8
:1054D000F8B5FC4E0025317837462037012910D029
:1054E000F9480124C07B02294FD0F74A0329527B97
:1054F0007ED0042948D1F44FC0077AD0012A79D050
:10550000CDE2F2A10120FEF73EF8F2A10020FEF765
:105510003AF8307EFBF796FD024600230A21EF4859
:10552000FEF7AEF9707EFBF78DFD024601230A21DE
:10553000EB48FEF7A5F9B07EFBF784FD0246022397
:105540000A21E848FEF79CF9F07EFBF77BFD024656
:1055500003230A21E448FEF793F9DA488030C16B4F
:105560004164416C026C8A1A7D21C9008A420BD9C0
:105570007D72C563DDA10020FEF705F8DBA10120E7
:10558000FEF701F802203070F8BDF178002908D04C
:105590000129F9D1CC4C80077ED5207B03287CD013
:1055A0003CE17978002966D0C00710D0B577D1A149
:1055B0000120FDF7E8FF7C72C2488030C563C16BF3
:1055C0000164C1484573C17B49084900C173BE48A5
:1055D000C17B890734D5007B05282CD1FDF7B7FBAB
:1055E000B577C4A10120FDF7CEFFC4A1002002E0E1
:1055F00058E1F1E24CE2FDF7C6FF7D20C000FDF767
:10560000E1F8B477707D08282CD006DC012809D099
:1056100002280AD004280DD121E0102825D0202806
:1056200008D125E00122716E01E0B16E0122002057
:10563000FDF752FD7D70A448FD22C17B1140C1736E
:10564000A0488030C16B4164416C026C8A1A7D2194
:10565000C9008A4298D97D72C563B477F8BD01222A
:10566000F16EE4E70122316FE1E70122716FDEE7BD
:105670000122B16FDBE7FEF7CBFCFDF7F7F8F07F17
:10568000002801D0F577B477FEF770FF8D488030A1
:10569000406AFFF7E7FB01E0C4E0AEE089498031F2
:1056A0004862FFF70FFDFFF7B3FDFFF7E5FDFEF7DB
:1056B000D7FE707F002809D0B07F002806D081482F
:1056C0007577803081680120FFF71EFC7E48C07B23
:1056D000C00719D07C48407B012801D1FEF7FAFCB5
:1056E0007948407B022802D10120FEF781FF7648ED
:1056F000407B042802D10020FEF77AFF72484573F0
:10570000C17B49084900C1736F48C17B8907A5D592
:10571000007B012804D1032030707470FEF7DEFF97
:105720006948007B062818D16648F577B577803040
:105730000068FBF787FC724900F0FEFA714900F03F
:105740007FFB60498031886048616FA10120FDF7CF
:105750001AFF7D20C000FDF735F85B48007B032869
:105760000CD16BA10120FDF70EFF6BA10020FDF70E
:105770000AFF7D20C000FDF725F8F4705248007B39
:10578000052834D1FDF7E3FAB5775AA10120FDF7DA
:10579000FAFE63A10020FDF7F6FE7D20C000FDF7B4
:1057A00011F8B4777C70707D082815D006DC0128CC
:1057B00009D002280AD0042819D10AE010280ED0F6
:1057C000202814D10EE00122716E0DE00122B16E8D
:1057D0000AE00122F16E07E00122316F04E00122AC
:1057E000716F01E0B16F01220020FDF775FC3649B1
:1057F000FD22C87B1040C873F8BD45A10120FDF70C
:10580000C2FE45A10020FDF7BEFE2E488030856116
:10581000C5617D20C000FCF7D5FFF570E07BFD2160
:105820000840E073274C80342068FBF70BFC3449B8
:1058300000F082FA334900F003FBA06061694A007E
:10584000120E02D000F0FCFAA060A16900F0CCFAC0
:1058500001D2A068A061E169A06800F043FA01D21A
:10586000A068E061707F002819D0B07F002816D0B2
:105870007577387800280AD001221046A169FDF713
:105880002BFC01220020E169FDF726FC07E020A1A6
:105890000120FDF778FE20A10020FDF774FEFEF741
:1058A000DFFDF8BD084FC00773D0012A06D170781C
:1058B000072837D0401C7070FEF710FF787B022855
:1058C00033D077E00C000020F4000020524C30313F
:1058D000000000005F4E504E000000000401002058
:1058E0001401002024010020340100202020202069
:1058F000000000004C6F634B000000004F46460064
:10590000FCA9713D5C8FDA4230303030000000007D
:105910005045414B00000000626F746D00000000B4
:105920004F4E000002203070C5E770780300FFF78B
:105930009DFB083F3F050D151F29343F3079042892
:1059400002D04000307133E0347131E0707940288A
:1059500002D0400070712BE00820FBE7708D012120
:105960008902884201D1802000E0400070851FE05C
:105970000121706C4904884201D1801100E040008F
:10598000706415E00121B06C4905884202D1C01055
:1059900001E05CE04000B0640AE09849F06C086304
:1059A00001210907884201D1801100E04000F06424
:1059B000FEF794FE787B042844D170780300FFF74B
:1059C00055FB083F3F050D151E2A343F307901284D
:1059D00002D04008307133E00420FBE770790828DA
:1059E00002D0400870712BE04020FBE7708D8028CA
:1059F00002D04008708523E001208002FAE70121EF
:105A0000706CC902884201D1800100E040087064D6
:105A1000FCF77AFF14E00121B06C8904884201D1BF
:105A2000C00000E04008B0640AE07449F06C08630C
:105A300001218905884201D1800100E04008F0641D
:105A4000FEF74CFE7D73F87B40084000F873F87B4E
:105A50003D4680070CD5287B012805D102203070F7
:105A60007470B470FEF73AFEE97BFD200140E973E3
:105A7000E87B400700D414E7287B012805D10420E7
:105A800030707470B470FEF729FEE87BFB21B2E041
:105A9000B078072807D0401CB070FEF71FFE787B57
:105AA000022804D04AE002203070B470F5E7B078E4
:105AB0000300FFF7DBFA084141050D17232D38419C
:105AC000B079082802D04000B07135E0B47133E0FD
:105AD000F079402804D04000F071FDF7EFFE2BE094
