:020000040800F2
:10000000D81300205D02000895500008514E0008EA
:1000100000000000000000000000000000000000E0
:1000200000000000000000000000000091590008DE
:10003000000000000000000005590008D56300081A
:100040006F0200086F0200086F0200086F020008CC
:100050006F020008314500086F0200085D45000886
:100060006F0200086F0200086F0200086F020008AC
:10007000993100086F0200086F020008D16600087D
:100080006F0200086F02000800000000D56400083D
:100090006F0200086F0200086F0200086F0200087C
:1000A0006F0200086F0200086F0200086F0200086C
:1000B0006F020008000000006F02000800F002F864
:1000C00000F0BDF80CA030C8083824182D18A2463E
:1000D000671EAB4654465D46AC4201D100F0AFF816
:1000E0007E460F3E0FCCB6460126334200D0FB1AA7
:1000F000A246AB4633431847487F0000687F0000A4
:10010000103A02D378C878C1FAD8520701D330C860
:1001100030C101D504680C60704700000023002442
:1001200000250026103A01D378C1FBD8520700D32E
:1001300030C100D50B60704710B56E2902D101F0B7
:100140004EF810BD702902D101F099FB10BD66294F
:1001500002D107F06DFE10BD652902D107F068FEDF
:1001600010BD672902D107F063FE10BD612902D1DD
:1001700007F066FE10BD03681B0A01D380231943F4
:10018000692902D100F0C0F810BD642902D100F045
:10019000BBF810BD752902D100F0B6F810BD6F296B
:1001A00002D101F017FB10BD782902D101F054FBF8
:1001B00010BDE92902D101F0B3FA10BDE42902D142
:1001C00001F0AEFA10BDF52902D101F0A9FA10BD77
:1001D000EF2902D101F00AFB10BDF82902D101F08C
:1001E00049FB10BD0368DB0901D380231943632950
:1001F00002D101F036FE10BD732902D101F039FEA3
:1002000010BDE32902D101F043FE10BDF32902D154
:1002100001F046FE10BD002010BD1FB501F01CFC12
:1002200004000020002107F02BFC401C606000202F
:10023000002107F00FFCE0601FBD10B510BD02F0FB
:10024000B1F91146FFF7E9FF06F010FF02F040FC9C
:1002500003B4FFF7F2FF03BC02F0CEFC074880476F
:1002600007480047FEE7FEE7FEE7FEE7FEE7FEE79A
:1002700004480549054A064B7047000069640008B8
:10028000BD000008D8010020D8130020D8030020AA
:10029000D80300207CB51D4616460C00009001D006
:1002A0000019401E084B7B442A466946019030469F
:1002B00001F0B7F9002C054603D06946002001F093
:1002C000C3F928467CBD0000A91300000FB47CB51B
:1002D0000C0009AA009001D00019401E094B7B4474
:1002E00069460190089801F09CF9002C054603D05E
:1002F0006946002001F0A8F928467CBC08BC04B07F
:100300001847000071130000F7B500257529106823
:10031000009914A611D000F0CFFE002802DA404266
:1003200011A608E0009909688A0701D50FA602E026
:10033000490704D50EA6012501E000F0C6FE009F86
:100340000024243704E001F035FB30313955641CBA
:100350000028F8D12B4632462146009800F0E7FEEF
:10036000FEBD0000000000002D0000002B0000007A
:1003700020000000F3B50446002081B02062204632
:10038000E1688847002872D0252802D06268A168F9
:10039000ABE0594F00267F442046E168884720287B
:1003A000054608DB312D06D2781920380078002860
:1003B00001D00643F0E7B00701D5042086430020B2
:1003C000E0610746A0612A2D0AD0284606F07EFB90
:1003D000002827D0B8000019303D0090856119E051
:1003E0000298BA00121902C8916102902046E16891
:1003F0008847012F054617D1E06900281FDA202021
:1004000086431CE000980A218069484300994019FE
:10041000303888612046E1688847054606F056FB7B
:100420000028EFD1012F0AD02E2D08D12046E168F7
:1004300088470546202006437F1C022FC3DBA069A6
:10044000002803DA4042A06101200643F00701D0F2
:10045000102086436C2D0BD0682D09D04C2D3CD03C
:100460006A2D38D0742D38D07A2D36D016E040E081
:10047000E1682F4620468847B842054609D16C2FCF
:1004800029D001208002E1680643204688470546BE
:1004900004E06C2F1DD0FF2001300643002D28D032
:1004A00028464138192803D80120C00206432035C8
:1004B000204626602946029A1646FFF73DFE002890
:1004C00010D001280BD0F61DF008C00008300290B3
:1004D00055E74020E1E78020D5E70020D3E7361D2F
:1004E00002964CE762682846A1689047206A401C43
:1004F00044E7206AFEBD0000E67A000070B50646BB
:1005000000F0A4FD0468054630460A22002101F0EF
:1005100019FA2C6070BD000030B5441C03E001786E
:10052000401C00290DD08107F9D10B4BDD0104C817
:10053000D11A91432940FAD0001B0A0603D0C01EED
:1005400030BD001B30BD0A0401D0801E30BD090241
:10055000FCD0401E30BD00000101010101E004C0DB
:10056000091F0429FBD28B0701D50280801CC90713
:1005700000D00270704700290BD0C30702D0027070
:10058000401C491E022904D3830702D50280801C27
:10059000891EE3E70022EEE70022DFE700220309DD
:1005A0008B422CD3030A8B4211D300239C464EE08E
:1005B00003460B433CD4002243088B4231D303094A
:1005C0008B421CD3030A8B4201D394463FE0C309FC
:1005D0008B4201D3CB01C01A524183098B4201D314
:1005E0008B01C01A524143098B4201D34B01C01AFF
:1005F000524103098B4201D30B01C01A5241C30877
:100600008B4201D3CB00C01A524183088B4201D3E5
:100610008B00C01A524143088B4201D34B00C01AD1
:100620005241411A00D201465241104670475DE0E6
:10063000CA0F00D04942031000D340425340002269
:100640009C4603098B422DD3030A8B4212D3FC2212
:10065000890112BA030A8B420CD3890192118B4291
:1006600008D3890192118B4204D389013AD09211A7
:1006700000E08909C3098B4201D3CB01C01A524162
:1006800083098B4201D38B01C01A524143098B422B
:1006900001D34B01C01A524103098B4201D30B0114
:1006A000C01A5241C3088B4201D3CB00C01A524139
:1006B00083088B4201D38B00C01A5241D9D2430820
:1006C0008B4201D34B00C01A5241411A00D201465D
:1006D000634652415B10104601D34042002B00D5C7
:1006E0004942704763465B1000D3404201B5002089
:1006F000C046C04602BD7047704770470246C80FEB
:10070000C00781434B0030B54B405B009B0D20D0B0
:100710001923DB06C91801231B05994220DB03249A
:10072000A40704251346AB400BD3002B04D1EB06E2
:1007300013409B00E34204D40124640700231219F0
:100740005941FF231B0599420BD2C9000143500FA9
:1007500009E0CB0204D501430803024305D0054854
:1007600030BDFF21C905084330BD084607210905F2
:10077000884330BD0000C07FF0B5F94D0C091E095B
:100780002C402E402F468BB0A7437DD0B543FCD0E4
:10079000002E7AD0002CFCD00D465D40ED0F254395
:1007A000AC1BFF25AD0464190894C502440DC902B1
:1007B0002143500DDC0204430120C00701430443E0
:1007C000D2020191200C110C00958C4601042346A5
:1007D0008B430A9161460904E24D8A430991010A5B
:1007E0007D4449198039097805464D4301266D1825
:1007F000F605751B6943C90C640B891C4C436418CE
:10080000B5012C1B250C2E04B4434C434D43210C45
:10081000691889090591009DE90701D00121C907DF
:1008200004912C4601996708CD072F434C08059D7C
:10083000E10B4D432D0C29466646754302950D4646
:1008400045432E46029D7D1BB44100950D465D43F8
:1008500001942C0C2F040D465543AE462D0C3D4300
:10086000029503947546049C2D04641B049406D2DF
:10087000029C039D641C002675410395029401AC03
:1008800070CC009F7D1B01E03EE162E1B4410904B0
:100890000095079101940599A4086143090C0C4641
:1008A0004443650BE7040C4666467443A646640B56
:1008B0003C43039502947446049DE4042C1B049469
:1008C00006D2029C039D641C002675410395029488
:1008D00001AC70CC009F7D1BB44101940C465C437D
:1008E0000095650FE7000C465443A646640F3C4351
:1008F000039502947446049DE4002C1B049406D2D4
:10090000029C039D641C002675410395029401AC72
:1009100070CC009F7D1BB441AE09AF06049DC90099
:10092000AD092F43049DA406AD060495079D3443ED
:1009300069180791059DE10B4D432D0C294666462C
:10094000754302950D4645432E46029D7D1BB441DD
:1009500000950D465D4301942C0C2F040D46554324
:10096000AE462D0C3D43029503947546049C2D0420
:10097000641B049406D2029C039D641C00267541EE
:100980000395029401AC70CC009F7D1BB44101948F
:100990008C050694079C890A611800950791019CB3
:1009A0000599A4086143090C0D464543680BEF0403
:1009B0000D46644665436C0B3C43049FED047D1B70
:1009C000AC4602D20025641C6841009E019D371B85
:1009D00085410846584301950C46460FC5005443CF
:1009E000600F28436546E4002C1B02D20025401C02
:1009F0006E41019D3F1AB5412846BD098006284336
:100A00008446A009BF064E020699A406761807433D
:100A1000079D002068410A99079019430020099B0F
:100A200000906046FF1913434041E20F64003A43CF
:100A3000A4460446D71A8C41A04203D90120009055
:100A400020463A46C70F941840416246D20F2243CF
:100A5000644664000494009CBE466400D71AA44611
:100A6000044602978C417746002F01D1A04204D959
:100A70006046401C8446029A2046C40FA64694183D
:100A80004041049A0546D20F224364466400D31ABB
:100A90008D417146002901D1A84202D928461A4643
:100AA000641C10430122002800D01643610200207C
:100AB000079B891904465C410223002C02DB49187C
:100AC00013466441089DCE0A2D145D194B05670538
:100AD000E10A2C050D1908993E43C9076940002B0E
:100AE00008D0934006D30022761C5141002B01D13F
:100AF000760876001C4A002D43DB154241D0AA43FC
:100B00003FD030460BB0F0BD06180D464D41174C96
:100B10007642AC411AD395181C465C41134A6D428B
:100B2000A24113D3012252054C00D4420AD15C00E9
:100B3000D4420BD04B4002D592021143E2E7490068
:100B40004908DFE75940C90FC90718E000200849E4
:100B5000D8E7054801420DD10342F7D0F2E7000083
:100B60000000FF07AD7600000000F07F0000E0FF0E
:100B70000000F87F114859400143C0124140002055
:100B8000C0E70123089A9B069A4205DC032252071C
:100B90008918C90FC907B5E7052252078918074AFE
:100BA0001143D2125140ADE770B515461C460246BE
:100BB0000B4628462146FFF7DFFD70BDFFFFFF7F94
:100BC000F0B58B4C0F09254689B0BD437BD01D097C
:100BD0002646AE43FAD00E465E402740F60F3E430F
:100BE000254071D024012142FBD0FF24AD19A4047B
:100BF0002D1B039501252D05DB02DB0AC9022B43C2
:100C0000C90A29431E010901040F130F05012143DD
:100C10001701880B820391432D098C46A90B1E43B3
:100C20008A039543B30B9A0396433F09BA0B940387
:100C3000A74302962E467E430497B6464E19D7190F
:100C40000C460196544305977E43371B7646BF1BDF
:100C50003601B646BE0B361900967646BC043719E7
:100C6000009C01D3641C00946400002F01D0012675
:100C70003443029E049F754366467E430496760085
:100C800034196E0034190094029C019E1C196643AD
:100C9000751BAE46069465464519059C05956C4343
:100CA000594375460891691A0191049E01465143C2
:100CB000A41B0491611A009C0791E10605D061090B
:100CC0000122114302E072E06EE06109089D0027F5
:100CD0002C0A2D066918049D7C412A0A2D066918E4
:100CE000019D6241AC0DAD026D185441079A910D02
:100CF000920255196141029A644658435443069B37
:100D0000059A5A43121A131B9A0E9B015B187A41DB
:100D1000010B0005C3185141220A200644195A410B
:100D20009A4200D2491C01204002814203D315237C
:100D30000226F64302E014230326F6432020C51AB8
:100D4000A9401746AF40DA400A4320460399D840ED
:100D50000914731819055118039A3843D2075140E2
:100D6000AC4009D00122944006D30022401C5141DE
:100D7000002C01D1400840001E4A934212D30122A8
:100D800003989206904207DB0520400709181A488D
:100D90000143C012414004E0032040070818C10F7E
:100DA000C907002009B0F0BD0020F107FAE70518D7
:100DB0000C464C4111486D42A04115D394181A4677
:100DC0005A410E48644290410ED301204A0040052A
:100DD000824209D35A00824206D35940C90F084AB9
:100DE000C90700201143DDE700200649DAE70000CB
:100DF0000000FF07FE070000FFFFFF7F0000E0FF8D
:100E00000000F07F0000F87F0121C905012341188F
:100E100042001B06D3185B0E0AD0C1100722D2066F
:100E2000891840075242D14201D5520089187047B3
:100E3000090208D50146002A03D0C10FC9070020C6
:100E4000704710467047420202D0002002497047A6
:100E5000072109050143F4E70000F87FF0B5FF25FD
:100E60002D04C609C209FF2704462E400137CB09CD
:100E70003E4348402A402B400746002A6BD0002BB7
:100E800069D0AA4267D0AB4265D0002800DA32466A
:100E90000125ED0529432C4309022002090AD21A33
:100EA0004B0C7F24E31A434C000A7C44E35C7D2412
:100EB0002404121914145B00A218884201D3521C96
:100EC00000E0400049420C465C4324115C43DB01D6
:100ED0006415E318040A5C43C502200D0C46444324
:100EE0006419250A5D432303EC0C0D46654300039A
:100EF0000019EB184C42A34201D35B18401CD405E7
:100F00002018002B07D05B00C91804D3401C00290F
:100F100001D1400840003F2189048A4209D3002AB8
:100F200008DC1106090F04D0032149074018C00F3F
:100F3000C007F0BD01224100120689187F22520627
:100F40009142F6D205214907C84201D59010F0BD63
:100F5000FF20C005F0BD002F00DA32461648AA4235
:100F600007D2AB4205D21902090E17D0F80FC007FD
:100F7000F0BDFF2563002D06AB42F9D84900A94218
:100F8000F6D8AB4201D1A942F2D0A94201D1002149
:100F900001E061004908D0050843F0BD1102090EC7
:100FA000FBD0FF200243D005F0BD0A4601461046A3
:100FB00054E70000637000000000C07F0102C2150A
:100FC00004D00123DB071943002A0ADB9E239A1A67
:100FD00002D40846D0407047FF22410012069142D9
:100FE00001D900207047C017C04370471F22030C6F
:100FF00002D10F2200041CD0030E01D10002083AD6
:10100000030F01D10001121F830F01D18000921E36
:10101000002801DB4000521ED2055118021251185F
:101020001922904004D3491C002801D149084900E5
:1010300008467047C10FC90700D0404201229207FD
:101040001143D3E701218907D0E70000004870472A
:101050007401002010B5FFF7F9FF006810BD10B54E
:101060000446FFF7F3FF046010BD70B504468569C0
:101070000068C10601D5302600E02026C00707D051
:1010800070BD62683046A1689047206A401C2062AB
:101090006D1EF6D570BD70B5044685690078C00731
:1010A00007D170BD6268A16820209047206A401C6B
:1010B00020626D1EF6D570BD09684A0501D540B2A3
:1010C0007047C905FCD500B2704709684A0501D5CB
:1010D000C0B27047C905FCD580B2704770B50C46E8
:1010E0000546012A05D02878800600D5EA69002344
:1010F00002E0012305E05B1C934202D2E05C002881
:10110000F9D1A869E618C01AA861286AC01828622F
:101110002846FFF7AAFF04E06A682078A968641CE3
:101120009047B442F8D32846FFF7B5FF70BDFFB52E
:1011300004460D4681B0243000902168880604D50D
:101140001022E0699143216000E00120A84201DD06
:10115000471B00E000270498A1697A191018081AA3
:10116000A0612078C00602D42046FFF77EFF00264B
:1011700008E003986268A168805D9047206A401C7F
:10118000761C206204988642F3DB2078C0060AD5DC
:101190002046FFF76AFF06E06268A16830209047AA
:1011A000206A401C206238467F1E0028F4DC07E0DD
:1011B00000986268A168405D9047206A401C2062E8
:1011C00028466D1E0028F3DC2046FFF764FF2078D8
:1011D000000602D5022005B0F0BD0120FBE7116832
:1011E0000268006A530501D5087009E0D30501D5EE
:1011F000088005E0130602D5C21705C100E00860AB
:10120000012070477047FFB50C461E468FB003CAD9
:10121000089009914F007D0D00D16D1E00210846F8
:101220000020C0460321099A89050840002A03DAF4
:101230008200801840080840800D01280A9002DDD5
:101240000020C0430A90089807430DD0EF48F049AA
:10125000281848430714189800281DD07542291EE5
:101260001DDD0A9842421BE01898012802D0002098
:10127000302104E00020F24305E02154401CB0423C
:10128000FBDB30460022189B002121540F998B6014
:101290000A60486013B0F0BDBD1B6D1CDFE70A9A01
:1012A000002900DA69420BA800F074FE0BAB07CBF3
:1012B00003AB07C30899099800F0D0FE6B4607C33B
:1012C0000146D4480918002D00910ADDD149039840
:1012D0000A9A4942401803A90390684601F0F1F8C0
:1012E00007E003990A9A081803A90390684601F0D9
:1012F000B0F86B4607C30004000C03D00020C043C5
:10130000410800E01046189A002A03D000220092FB
:1013100015461EE0751E05D400F0A2FB3032625562
:101320006D1EF9D501220843079602D000227F1CCA
:1013300004E02078302801D100227F1E002A069781
:1013400089D01EE0112D07DA00F08AFB3032625599
:101350006D1C02460A43F5D1084303D000980028CB
:1013600019D00EE00021681E05E0235C625C635426
:101370002254401E491C8142F7DBA81B401E0795E2
:101380000690079A18990020A0540F98079B069A78
:1013900081600CC07EE71126002018905BE7D21D0B
:1013A000F0B50D460446D10893B0C90003C90C90AE
:1013B0000D9105F009FB02460D98C00F01D02D20BC
:1013C00007E02068810701D52B2002E04007C00F0D
:1013D0004001032A0F9001D0072A05DB0346294666
:1013E000204600F0EFFC0EE12078800601D5E76989
:1013F00000E006272846652D04D0662814D0672D06
:1014000069D12DE00020112F009001DB112300E0B5
:101410007B1C0CAA03A910A8FFF7F5FE1199002662
:1014200010987D1C0E9142E001203B460CAAC0079B
:101430000B900120009003A910A8FFF7E4FE119D76
:1014400012981099002600280E9501D1781C0D18CD
:10145000781B02D446427D1C761EE81B00903AE0C1
:10146000012F00DA01270020112F009001DD112348
:1014700000E03B460CAA03A910A8FFF7C4FE11998F
:101480003D46109800260E91217809070BD40E993D
:10149000A94200DA0D4603A9012D04DD4A19203ABC
:1014A000D27F302A06D0B84201DA011D04DA0121C8
:1014B00000910FE06D1EEFE7002802DC86192D1A5F
:1014C00003E0411CA94200DD0D46801B401C00903A
:1014D0000120C0070B902078000705D40098A8428F
:1014E00002DB0020C043009069460020C8720B98C0
:1014F000012102AF0337C907884225D0022010908E
:101500002B2011900B9800280BDA40420B902D20D5
:10151000119006E00B9800F04DFA30317F1E0B90D1
:1015200039701099481E00291090F3DC0B980028A0
:10153000F0D111987F1E38702088000501D5452014
:1015400000E065207F1E387001A8C01BC01D0B90F5
:101550000F98002800D0012041190098C0170918E1
:101560000B980818A169081A401EA0612078C006CF
:1015700002D42046FFF779FD0F98002805D0626855
:10158000A1689047206A401C20622078C00625D5BB
:101590002046FFF76AFD21E0002E07DB0E98B042DF
:1015A00004DD03A86268805DA16802E06268A1684A
:1015B00030209047206A761C401C20620098401E14
:1015C000002800900AD100F047FAC06862680168FC
:1015D000405CA1689047206A401C206228466D1E2E
:1015E0000028D9DC07E062683878A1687F1C904742
:1015F000206A401C20620B99481E00290B90F2DCE7
:101600002046FFF748FD032044E6000001FCFFFFF1
:10161000104D0000E1DFFFFF01694A1C02610878FC
:10162000704700B58FB002910021059105490193E3
:1016300079440391114604906846FEF79BFE0FB073
:1016400000BD0000E5FFFFFF0A681070521C0A6031
:1016500070470CC908399A4202D2531C0B601070B3
:1016600070470000F7B50446154686B02B4878440D
:10167000002703C83E460090019111E007986A4692
:101680007100415A02A800F04DFF411C07D021789B
:10169000890603D5E269391891420ED83F18761CA5
:1016A0002078800602D5E069B84206DDAE42E5DB6F
:1016B00007987100405A0028E0D1A069C01BA061C2
:1016C0002046FFF7D2FC154878445A3803C80090EA
:1016D0000020019116E041006A460798415A02A88D
:1016E00000F020FF0590401C0AD0002505E062684C
:1016F00002A8A168405D90476D1C05988542F6D30D
:101700000498401CB0420490E5DB206AC0192062B6
:101710002046FFF7C0FC09B0F0BD0000E268000001
:10172000F7B5D21D0025D20815A6D200F52905CAA5
:1017300011D0002A05DA00214042914111A60A4643
:1017400008E0009909688B0701D50FA602E0490758
:1017500001D50EA601251146009F0024243704E080
:1017600000F07EF930323A55641C02460A43F7D144
:101770002B46324621460098FFF7D9FCFEBD0000FB
:10178000000000002D0000002B00000020000000E1
:1017900070B504460021243408E05507D2086D0FC7
:1017A000303565545D072A43DB08491C15461D4347
:1017B000F3D10468002310A2250708D5A40601D49C
:1017C000002904D0C46901230CA2641EC461FFF780
:1017D000AEFC70BD10B5044621461068FFF775FCDD
:1017E000002302462046FFF7D3FF10BDD21DD108CB
:1017F000C9000CC9CCE70000000000003000000068
:10180000F8B50F460188090502D5224C7C4402E058
:10181000204C7C440E3405460021243508E0160790
:101820001209360FA65D6E541E0732431B09491C70
:1018300016461E43F3D1224604780023240705D51B
:10184000702F06D0002901D002231132FFF76FFC60
:10185000F8BD01231032F9E770B504460D46214664
:101860001068FFF732FC0023024629462046FFF7A6
:10187000C7FF70BDD21DD308DB000CCBC0E730B46E
:10188000036820241268234303600823C36130BC2B
:101890000023B5E74C6700000FB4002300B589B002
:1018A0000CA900910B99CB60224B7B44224A7A44CD
:1018B0000792042206930192204A0292204A7A4417
:1018C0006B4608920246002006F0C2FA09B008BC36
:1018D00004B0184770B5064615460C46324686B029
:1018E0000020C04301900020049004A800910291C0
:1018F0006946FFF7D1FF024604982118002D05D054
:10190000002801D0084600E02046286004980028FE
:101910000DD0002A02DD0098884208D03246081B0C
:101920006946019004A800940294FFF7B5FF06B041
:1019300070BD0000FB05000017060000FFFFFF7FE1
:1019400019020000F7B50F460026009C2578641C9C
:10195000002D05D000F078F80068405DC007F5D193
:101960002B2D02D02D2D18D0641E3946029A204608
:1019700000F0BCFA002F04D03968A14201D10099CF
:1019800039607105022400290BDA4042002803DD8A
:10199000FFF75CFB0460A007FEBD01208002064348
:1019A000E3E70028F8DAFFF751FB04600048FEBDCA
:1019B000FFFFFF7F01468008081A02091018020A7B
:1019C0001018020C1018C008820012185200891A50
:1019D00001E0401C0A390A29FBD2704710B5FF23E9
:1019E0001B0644009C421DD84C009C421AD803465A
:1019F000124A0B4307D4401A02D3EFF3008010BD04
:101A0000EFF3008010BD081A06D2EFF30080012129
:101A10009043C907084302E0EFF30080904380F34E
:101A2000008810BD0D231B041A4204D0114600206B
:101A300000F098FD10BD00F0ADFD10BD000000905D
:101A4000004870477401002010B500F005F8001D33
:101A500010BD00BF2D6000000048704794010020B9
:101A60000B4670B5024689078008084319469D0851
:101A7000141AA94125090807054308092C194841EA
:101A8000250A01060D43010A2C194141200C0D04C1
:101A900028430D0C00194D41002140194D41C0084B
:101AA00069070843E908840F8D0025438400241842
:101AB0004D4124196D41121BAB4107E00925ED434F
:101AC0002C11521963410024401C61411C460A2517
:101AD0000026551BB441F1D270BD10B50446FFF786
:101AE000B3FF0068005DC007C00F10BDD21DF0B588
:101AF00004460D46D0088DB0C000466807683146E0
:101B0000384604F061FF0246F00F01D02D2307E0B4
:101B10002068810701D52B2302E04007C00F430155
:101B20006846002B037001D0012000E00020032A4A
:101B30000A9001D0072A04DB2946204600F042F92A
:101B40002DE12078800601D40D2500E0E5697000C4
:101B5000400D0D2D01904BDA300D00210B90084601
:101B60000020C046032189050840002E05DA8200C6
:101B70008018C20F1018401008408015012801DDA0
:101B80000020C043A9000023182906D39C460A461A
:101B90000123183A1B07D34003E001221205CA4073
:101BA00094460C31202902D33A46203900E03246CF
:101BB0008A40002802DD002A06D119E0002817D14A
:101BC0000121C9078A4213D3194663467F185E4133
:101BD000002806D10120C007824202D1084687436F
:101BE0009E430B98310D814202D00198401C019018
:101BF0002088000502D57149794402E06F49794493
:101C000019396B460A9830221A540A980A7C401CEB
:101C10001A54401C0A900198002801DC302000E092
:101C200031201872019A0120002A02D0644BD21888
:101C300004E072003A4302D0614A521C0192002D26
:101C400002DC2278120703D56A462E205072022049
:101C50000022864694460CE032033601120F6D1EB8
:101C60008B5C02AA13546246521C401C9446052AFF
:101C700001DA002DF0DC002202AE08E03B0F3F014C
:101C8000CB5C521C6D1E3354401C082A01DA002D17
:101C9000F4DC23689A0601D511E0401E704504DD8E
:101CA0003218203AD27F302AF7D0002807DD3218C8
:101CB000203AD27F2E2A02D11A0700D4401E002DCE
:101CC00003DD3E223254401C6D1E497C3154019983
:101CD000401C002906DA2D21471C3154019840424E
:101CE000019003E02B21471C315401987D21C9004C
:101CF000884206DBFEF75CFC3030F0557F1C01911A
:101D000001E0642808DB01986421FEF751FC3030C3
:101D1000F0557F1C019101E00A2806DB01980A2199
:101D2000FEF746FC3030F0557F1C01980A21FEF783
:101D30003FFC3031F1550A98A1697F1C7A191018BF
:101D4000081AA0612078C00602D42046FFF78DF95A
:101D5000216A6E460A980818206204E062683078AA
:101D6000A168761C90470A98401E0A90401CF5D145
:101D70002078C00602D52046FFF777F902AE09E0C9
:101D80003078761C3E280DD06268A1689047206AA2
:101D9000401C20627F1EF3D22046FFF77CF90DB075
:101DA0000320F0BD206A4019206203E06268A16848
:101DB000302090476D1EEDD3F8E700009B630000D4
:101DC00001FCFFFFF8B51F46044601230068DB0253
:101DD000032601461840072A05DB002801D017A575
:101DE00006E017A504E0002801D016A500E016A51E
:101DF000102081432160A069C01E002FA06101D086
:101E0000401EA0612046FFF730F9002F09D0384668
:101E10006268A1689047206A401C2062C01C206252
:101E200006E0206AFAE762682878A1686D1C90478E
:101E3000761EF8D22046FFF72EF9F8BD4E414E002F
:101E40006E616E00494E4600696E660010B54369CA
:101E5000002B02D0C046C04601E0FFF73FF9012049
:101E600010BD1278014624310A7000224A70012206
:101E7000ECE711680022D243E8E710B54369002B74
:101E800002D0C046C04601E0FFF7ECFB012010BDC8
:101E900012880146243182840022C2840122ECE7A8
:101EA00011680022D243E8E74268002A08D001689E
:101EB0000B78491C002B03D0521E06C018467047F1
:101EC0000121C160881E70474268002A0BD0C36898
:101ED0000168002B07D183688B4204D0491E521C35
:101EE00006C0002070470020C0437047F7B5154674
:101EF00082B00027029C2078641C0197302802D011
:101F0000002D15D015E020780127641C782804D016
:101F1000582802D0002D09D00BE0002D01D0102D43
:101F200007D1207800271025641C02E0082500E076
:101F30000A250026009610E0009901276943081839
:101F400029467143020C80B200908E1838048642F4
:101F500001D3012001902078641C294600F041FB48
:101F60000028E9DA0398002805D0002F01D0641E6C
:101F700000E0029C04600198002806D0FFF766F894
:101F800002210160C81E05B0F0BD0099300408436D
:101F9000F9E70000F7B516468AB02F4878446C463A
:101FA00003467C33C06F5A689B680DC42A48784446
:101FB000763003AC0DC80DC43720C0010818372196
:101FC0001B30FEF7F5FA05460C46803D1B3C02D55A
:101FD0006442012000E00020002709900FE0E007A4
:101FE0000BD00C201C497843794432464C394118B7
:101FF000684600F02EFA6B4607C364107F1C002C65
:10200000EDD1154F7F442C3F15E0E80711D020019A
:10201000C0190EC80691089307920068F04201D1DA
:1020200098190890324606A903A800F012FA03ABEB
:1020300007C36D10641C002DE7D13246694609982C
:10204000002803A802D000F03CFA01E000F001FAF9
:102050000A9B07C30DB0F0BD0C60000003464000B2
:102060000A4610B5400D0BD00121C9070F24A40268
:1020700000191C0364082143540D2143D20207E0D8
:1020800000210120F2E7D40F490021435200401EF5
:102090000029F8DADB0FDB07184310BDFFB50D464A
:1020A000144685B04868516804F068FC00910190BE
:1020B000A868A16804F062FC02910390A8686168B6
:1020C00004F05CFC029A12188242029201D20120B2
:1020D00000E00020019A0B18D2180028019202D0CB
:1020E0008A4202D903E08A4201D2012000E00020A6
:1020F0000099081800906868A16804F03FFC029AF3
:1021000012188242029201D2012000E00020019ABE
:102110000B18D2180028019202D08A4202D903E09B
:102120008A4201D2012000E00020009908180090A6
:102130002868216840004900400849084018F549CE
:10214000471814E001994000C90F08430090019816
:1021500002994000C90F084301900298039940007A
:10216000C90F08430290039840007F1E0390009817
:102170000028E7DA0898002801D0E74E00E00026A2
:10218000B74228DAF71BF806C00E15D0029B2021B3
:10219000091A039A8B401A430392029A019BC24088
:1021A0008B401A430292019A009BC2408B400099D7
:1021B0001A430192C14000917A110BD06B46032063
:1021C000811A01D5002101E0890059588700401E7D
:1021D000D951F5D5374603980299002800D001203F
:1021E000014308980291002808460CD0002800D02E
:1021F00001200199019A490508430121D20AC90227
:10220000D202019200E001210E9B0122D207012B94
:1022100002D0002B03D013E0002807D116E0904233
:1022200004D890420CD1019B0B4209D0019B591854
:10223000019105D10099491C009101D17F1C0092A8
:10224000002803D0102108460020C04628682168D5
:10225000019B009A4840C10F0598C90739430EC039
:1022600009B0F0BDFFB587B0099A0898089953687E
:102270009268406889689646002203931746944600
:10228000089A12685300099A5B08126852005208B3
:102290009A1AA24BD4180A9A002A01D0352200E0DB
:1022A000402206920022012315460492DB07059383
:1022B00024E0002D05D175460346039E4D1BB34116
:1022C00009D375466646039B491B049D9841059BAF
:1022D0007519AC465F4163463B4308D0059B049E9D
:1022E000DD0776082E435B080496059301E0521E35
:1022F000641EC50FED0749184041521C069B9A42C7
:10230000D7DB002D04D17546039A6B1A824101D2A6
:1023100003200CE0039A0B466B404240134303D06A
:10232000014303D0012002E0022000E000206146CA
:1023300001910021009702910A99002905D0614678
:1023400040020143744B019102E080070023029098
:102350009C423ADA1A1BD006C00E15D0029D2021ED
:10236000019C091AC5408C402543029C8C4000D03A
:1023700001242543019C02953D46C4408D403946C9
:102380002C43C1400194009154111DD06D4602218F
:10239000002202290CD10320001B07E0002804DBE7
:1023A0008600AE59002E00D00122401C0328F5DB28
:1023B000081B02D588002A5004E0800028581043EA
:1023C0008A00A850491EE3D51C460A9800280298A6
:1023D0000CD0002800D001200199019A490508433A
:1023E0000121D20AC902D202019200E00121109B10
:1023F0000122D207012B02D0002B03D013E00028CA
:1024000007D116E0904204D890420CD1019B0B42B8
:1024100009D0019B5918019105D10099491C0091DF
:1024200001D1641C0092002803D01021084600202E
:10243000C04608980999019A0068096848400099BF
:10244000C30F0798DB0723430360826041600BB032
:10245000F0BD1FB5002300920A46014601A8FFF710
:102460001DFE01AB07CB04B010BDF0B585B0012354
:1024700000920A46014601A8FFF710FE01990F22BB
:1024800002989202CF0F4900039E49088C1AFF0759
:102490000021002800DB0C46450021486D088442DD
:1024A00006D30D460E460446102108460020C046BD
:1024B0002005E90A084369053843F20A05B01143CB
:1024C000F0BD1FB5002300920A46014601A8FFF7A0
:1024D000C9FE01AB07CBC6E71FB5012300920A4630
:1024E000014601A8FFF7BEFE01AB0F2407CBA402F3
:1024F000C30F4000DB074008001B002900DB002061
:10250000490000054908CC0A204349051843D20A6E
:102510001143A8E702C0FFFF013C0000FF3F00009D
:10252000FF07000070B516460C460546FFF78CFA0B
:102530000368FF200230C05C012807D0FF2C0ED8B2
:10254000185D00280BD001202C7070BDFF3332467F
:10255000214608331868C3182846984770BD0020E4
:10256000C04370BDC80212D54803400F002804D0F4
:10257000C803C043012188407047EFF30080000189
:10258000000903210907084380F3008870470020F1
:102590007047000010B5024800F0E6FA10BD0000D8
:1025A0000000C07F7546FFF74BFAAE46050069464E
:1025B0005346C008C000854618B020B5FDF758FE48
:1025C00060BC00274908B6460026C0C5C0C5C0C5C6
:1025D000C0C5C0C5C0C5C0C5C0C5403D49008D46C9
:1025E00070473A2800D23038202302469A43412AC5
:1025F00001D310463738884201D30020C0437047CA
:10260000FFB58BB00878FF2806D0491C2D2805D0CF
:1026100000230020009009E000200EE00123F8E7ED
:10262000009A0A2462438018491C00900878FF2809
:10263000F6D1002B02D0009840420090002503956F
:102640002C460D9800782D2801D02B2815D10D99F6
:10265000491C2D280D9102D0002003900DE001208F
:10266000FBE7401C214600270A223B460D902846E6
:1026700000F0AAFA35183C464C410D980678FF2E1A
:10268000EFD1002108460020C0460399002902D05E
:102690008100401840080002870F012F01DD00274C
:1026A000FF430E9900984618284620430BD0FF2080
:1026B000F530C64210DA0398C1070B9841600B99B8
:1026C0000020086018E00398C1070B9841600B993F
:1026D000002008600FB0F0BDFF20F530864210DD0D
:1026E000F648784406C80B9806C00B9803994068D2
:1026F000C90708430B994860FEF7A8FC0221016056
:10270000E8E7311E01DA7A4200E03A46002900DAB1
:10271000714207A8FFF73EFC07AB07CB04AB07C32A
:10272000E748009000200146214304D12C4605468D
:10273000E34920390091210C0904014306D1290CF9
:1027400024040C4300992D0410390091210E090630
:10275000014306D1290E24020C4300992D020839A9
:102760000091210F0907014306D1290F24010C43D1
:1027700000992D01091F0091A10F8907014306D17E
:10278000A90FA4000C430099AD00891E0091E10F30
:10279000C907084304D100986D196441401E009098
:1027A0003A466846002E04A90295019402DDFFF71F
:1027B0005CFE01E0FFF790FE044603980D460028FA
:1027C00002D00120C0074440BE4E600040082843AC
:1027D00003D06000400DB04214D1FEF737FC022157
:1027E00001606000400DB0420CD1B748784406C883
:1027F0000B9806C00B98E10FC907406808430B9976
:10280000486067E70B9844600B98056062E7FFB586
:102810001F4695B0002000250C909E685C68ED4333
:102820001390FFF719F9C0680168405C1490B9690A
:1028300016986D1C88470A90396A88470028F6D197
:102840000A98401C0AD00D20C0018443002E12DDDE
:102850000A982B2809D02D280DD103E00020C04371
:1028600019B0F0BD012080020443B96916986D1CAF
:102870008847761E0A90600504A901D52D2000E046
:102880002B206A46491C107410A8002E0D910B9045
:102890003BDD0A98692805D0492803D06E2801D06D
:1028A0004E281DD13B46039002200296179A169996
:1028B000C0430095019405F0DBFAC11CD0D10FE0B4
:1028C000B96916986D1C88470A900120761E40024F
:1028D0000443179805601398401C002E139014DDD4
:1028E0000A983028ECD0782801D058280DD11398B8
:1028F00001280AD13B460296179A1699001F0095A7
:10290000019405F0ADFAC11CAAD114990A98884225
:1029100046D18020044308E00C981799401E0C9083
:10292000012040020443681C0860B9696D1C1698B8
:10293000761E884730280A90EED031E014998842FC
:1029400005D1200603D480200443761E1EE00A9899
:1029500004F0BCF8002826D0012008A94002044356
:102960000D980331761E88420BD20A980D993038A3
:1029700008700D98401C0D90200607D50C98401E3D
:1029800003E0200602D40C98401C0C90A00502D550
:102990001799681C0860B96916986D1C88470A90D9
:1029A000002ECBDC59E0002E57DD0A98652801D0B7
:1029B000452852D1A00550D50320B96900028443AF
:1029C0006D1C1698761E8847002E0A900CDD2B2869
:1029D00004D02D2808D1FF2001300443B96916988E
:1029E0006D1C8847761E0A90E00501D52D2100E078
:1029F0002B210B9801700B98401C0B90009025E048
:102A0000012012A9400204430B980131761E88422E
:102A10000ED20A980B9930380006000E087003D1C8
:102A200000990B9888420AD90B98401C0B9006E03D
:102A3000E00501D5254801E0244840420C90B969E1
:102A400016986D1C88470A9017980560002E04DDC3
:102A50000A9804F03BF80028D2D1F9691698884703
:102A60000D99FF2004AA08700B99087000200E90A1
:102A70000F900C9B10A90EA8FFF7C2FDA00502D471
:102A80000120C043ECE62420044209D0E00713D122
:102A900038680F9A0E99031D3B60006806C00BE072
:102AA0000EA9684603F0BAFFE00705D13868009A1E
:102AB000011D3960006802602846D1E67A5900009D
:102AC0003E400000FF07000070580000F1D8FFFFF3
:102AD00010B50446C046C0462046FDF7B9FB10BD00
:102AE000024670B50A4392072AD11E4DEE0104C872
:102AF00008C9541B9443344017D0D0B2D9B2401AFD
:102B00002106014310D190B299B2401A2104014329
:102B10000AD110021902000A090A401A21020143CF
:102B200002D1100E190E401A70BD9A42DFD010BAB1
:102B300019BA884201D9012070BD0020C04370BD80
:102B400002780B78401C491C002A09D09A4207D110
:102B500002780B78401C491C002A01D09A42EFD021
:102B6000D01A70BD0101010110B50C461107090F03
:102B7000092904D00A290AD008290CD104E01146F9
:102B80000820FFF7EFFC06E0510606D501E05106EC
:102B900001D50120C007214610BDD10607D501018E
:102BA0000909CC084907000E0006044309E0410F5B
:102BB00020024907000A0143200E00061D22D141D0
:102BC00001430846E7E770474343514330B55C187B
:102BD000010C130C0D4692B25D4380B251432C1987
:102BE000054655430A0C09044D1962415843010C2E
:102BF00000044019514130BD01491820ABBEFEE729
:102C000026000200FFB51F4689B0139812994005AF
:102C1000C00FC00705900020079005460446461ED9
:102C2000049002903C20491C12910690B9690A98C0
:102C3000884703901498401E14901498002841DD92
:102C400003982E2816D01021FFF7CBFC002834DB88
:102C500001210491079901431AD0069900290CDB40
:102C6000069AC11700F006FA054306980C43001FA8
:102C7000069006E0012002900EE0002801D001201D
:102C80000543012007900298002805D1361D03E076
:102C90000298002800D0361F1298401C1290B96983
:102CA0000A98884703901498401E149004980028AE
:102CB000C3D00B9912980860BFE70398702808D01A
:102CC000502806D0F9690A9888470498002815D03A
:102CD00051E00020039001200290049800280AD0BF
:102CE0001298401C1290B9690A9888471499491E95
:102CF0000029149106DCF9690A9888470120C0432D
:102D00000DB0F0BD2B2804D02D280DD10020C043DC
:102D100002901298401C1290B9690A988847149939
:102D2000491E00291491E6DD411CE4D00A21FFF779
:102D300058FC0028DFDB03990A225143081803904E
:102D40001298401C1290B9690A9888470A21FFF727
:102D500048FC14990B9A491E149112991160149908
:102D6000002901DD0028E6DAF9690A988847029906
:102D70000398484386191398242108400490284654
:102D8000204304D0A10F8907090002D006E005986E
:102D90009BE0A90FA4000C43AD00B61EE10FC907CC
:102DA000080002D16D196441761E0498002803D0F2
:102DB0000B2002905D4803E0282002907D20C04354
:102DC0008642039007DA811B029808184128029076
:102DD00001DD41200290029A01200021521E00F0E4
:102DE00049F9024628400B462140084301D0012002
:102DF00000E0002007900020521EC04343412A40BB
:102E000023401A4301D0012000E0002007990690DA
:102E1000014352D0002108460020C0460321059AF4
:102E200089050840002A05D082008018C20F1018BA
:102E3000401008408015012802DD0020C04301E059
:102E4000012815D0401C38D00798002835D00698A6
:102E500000280DD1029A0120002100F00BF9284032
:102E60002140084301D0012000E00020002824D0A8
:102E7000029A0120002100F0FDF8034640198C461B
:102E800061412A1A8C410FD30298402807DD04982B
:102E9000039E002801D0343E02E0173E00E0761C7D
:102EA00001240025E40708E05B1E62460024E44399
:102EB0006241DD43D44305400C4003980121081AC8
:102EC000B04206DA1A4905980843019000200090A4
:102ED0000EE060006205010BE80A1043059A0090BD
:102EE00068460A4313490A433146019203F0E4FD60
:102EF000049800280AD01398C00714D13868019AA2
:102F00000099031D3B60006806C00CE002A86946FA
:102F100003F084FD1398C00705D13868029A011D9B
:102F20003960006802601298EAE6000002FCFFFFC8
:102F30000000F07F0000F03FFFB51D4687B01198FC
:102F4000484A109C129E40051399C00F761EC00778
:102F50000243019200220092FF22D2051043202258
:102F600091434929059003D017464E2928D04FE0B8
:102F70003DA002AA0BC801270BC2A9690898641CCE
:102F80008847761E014607D402A8C05D002803D0FA
:102F90002022914381420AD0E96908988847032F8B
:102FA00036D0082F34D00120C0430BB0F0BD7F1CB9
:102FB000032F01D0082FE0D10999601C0860DCE7DD
:102FC000A9690898641C8847761E2DD4B843412807
:102FD0002AD1A9690898641C8847761E24D4B8436E
:102FE0004E2821D1A9690898641C884701990122BB
:102FF000D204114301910599D20011430591099919
:10300000761E0C6001D4282806D0E9690898884704
:103010001198C00712D023E0A9690898641C88475A
:10302000761E01D4002803DAE96908988847BAE7D0
:103030002928F1D10998641C0460E9E7119824213A
:10304000084207D02868019A0099031D2B60006888
:1030500006C005E028680599021D2A600068016025
:103060002046A2E70000F07F494E46494E49545998
:103070000000000010B5202A04DB0146203A9140F0
:10308000002010BD914020239C1A0346E3401943C1
:10309000904010BDF8B5224C4E00069DA6420AD8BD
:1030A000A64201D1002806D15E00A64203D8A6425E
:1030B0000AD1002A08D00D24240425422CD0294608
:1030C0000020FFF74FFAF8BD0C461C430CD4994280
:1030D00002D0EFF30080F8BD904202D0EFF3008001
:1030E000F8BDEFF30080F8BD09242407E5008B420A
:1030F00006D0EFF30080A043591A06D2284304E01B
:10310000101A05D3EFF30080A04380F30088F8BDC8
:10311000EFF30080A043F1E7009500F033F8F8BD2D
:103120000000E0FF70B505464800440D124B00203A
:10313000002C0AD0634008D09A4206DA6642B242B6
:1031400003DD12054019514170BD002C08D0002B41
:1031500009D0C90FC907002AF6DB084A114370BD20
:10316000C90FC90770BD28460A03104302D00020CA
:10317000034970BD284670BDFF0700000000F07FC6
:103180000000F87F10B500200249029AFFF7ECFC1E
:1031900010BD00000000F87F10B500F05FF810BD12
:1031A0000149086070470000002401401949CA68BD
:1031B00018239A4303789B07DB0E1A43CA60CA6838
:1031C00020239A434378DB079B0E1A43CA60CA68E0
:1031D00004239A438378DB075B0F1A43CA60CA68EB
:1031E0004B149A43C378DB079B0C1A43CA60CA6826
:1031F00003239B029A4343799B071B0D1A43CA6022
:10320000CA68FF230079C13340079A43C00D0243C7
:10321000CA60704700240140034A936A03439362E3
:10322000506908435061704700240140002101703B
:1032300041708170C17001714171704702488168AD
:1032400001221143816070470024014002494A680D
:1032500002434A60704700000024014010B5082076
:1032600000F040F8012816D10820FFF799FF00F080
:1032700033F8094CE062216A8A1E904204D3891C0B
:10328000884201D8206A00E020620449484304498A
:10329000FDF784F9606210BD8C000020E40C000092
:1032A000FF0F00000B4B002099685A0511439960ED
:1032B0000F2212039968401CC90F904201D00029C7
:1032C000F8D19868002803DB024840300068704756
:1032D00000207047002401400148006880B2704718
:1032E0004024014006494A68096802400140002A1A
:1032F00003D0002901D00120704700207047000052
:103300000024014010B501246402204602F01CFB99
:10331000204602F0F9FA10BD0248816804221143E8
:10332000816070470024014010B50420C04303F0C1
:1033300045F8074805490068FDF730F905497D2241
:10334000086080B2D2005043486010BD00127A007D
:10335000000000200400002001B50B4900984968D6
:1033600048430A49486100238B61086901221043E0
:1033700008610869C20701D0C003FAD5086940088E
:10338000400008618B6108BD0400002000E000E0FF
:1033900001B50B490098096848430A494861002370
:1033A0008B6108690122104308610869C20701D0D6
:1033B000C003FAD508694008400008618B6108BD68
:1033C0000400002000E000E010B501F081FCFFF7F0
:1033D000ABFF01F073F801F0EDFC01F0E9FB00F048
:1033E000E3FF01F00FFD00F067FC04480121817745
:1033F000002160304166416E816610BD2C000020C6
:10340000F8B5324EB07E3446603425460027803D04
:10341000002823D02EA1002000F055F97776B7764A
:10342000A87D042812D006DC012809D0022809D082
:10343000032813D108E010280AD020280ED109E073
:10344000616808E0A16806E0E16804E0216902E043
:10345000616900E0A169002003F068FAA87A0028F9
:1034600029D00120B0721AA1002000F02CF9AF720F
:10347000687A042820D009DC012810D0022813D053
:10348000032818D180436872E16811E0102818D031
:10349000202810D1DF2108406872A16908E04008A7
:1034A00040006872616803E0FD2108406872A1680D
:1034B000002003F03BFAF8BDFB2108406872216947
:1034C000F6E7EF21084068726169F1E72C000020FF
:1034D000202020200000000015480122416E9203A8
:1034E0008B1A4030914218D00BDC124A891A1AD03C
:1034F000891A14D05200914202D132218181C181B6
:103500007047991A0DD00122D203891A0DD05200AA
:103510009142F5D17D210901F0E76421EEE70A210E
:10352000ECE7FA21EAE70221E8E7FF21F531E5E7D8
:103530000C00002000080000F8B506460B0003F060
:1035400035FA351C1E2225282C2F3234363A3D41BF
:1035500045487B484B835153538C8F585A1C5E60AF
:1035600062282C65677236743D4176787B7E818354
:103570008689538C8F585A926A00032260E00D228C
:1035800002250D2447E00B22002504E00C22032530
:10359000F7E70B2202E001243DE003220625FAE7CB
:1035A0000B2204251CE003222EE003225CE00A2209
:1035B0001BE00C242FE003220A2518E00B2253E025
:1035C000002428E0032201250E2424E003220925FB
:1035D000EFE70B220025D4E703220E2505241AE08D
:1035E000092418E008220FE00B220025E1E702245D
:1035F00011E0092208E00C22002503240BE00B2235
:1036000018E00A2224E00A220625D2E7092217E060
:1036100003220FE00824330003F0C8F908282C30F7
:1036200034383C404447002215E0032210E00222D7
:1036300000E00A220625EDE703220625CEE7012257
:1036400006259EE7022203E009220625C8E70B2291
:103650000625B5E70A220025DCE707220825A8E7AA
:1036600004220925C3E700220025A9E71421132716
:1036700012261AE0112110270F2616E00E210D2721
:103680000C2612E00B210A2709260EE00621072747
:1036900008260AE003210427052606E00021012769
:1036A000022602E0172118271926052001F0F6F955
:1036B0002A463946052001F0F1F922463146052017
:1036C00001F0ECF9F8BDF8B500240E4607460425D4
:1036D0002046002F0FD1002C06D0012C06D0022C42
:1036E00006D0032C06D006E0072004E0062002E006
:1036F000052000E00420315D0A46613A192A02D90A
:103700002032192A6FD841390B0003F04FF93A6D76
:10371000707376797C7F8285888B8E9194979A9D41
:10372000A0A3A6A9ACAFB2B5B8F2F2F2F2F2F21EC3
:103730002124272A2D303336393C3F4245484B4E11
:103740005154575A5D60636669F2C0B21A2198E01D
:10375000C0B21B2195E0C0B21C2192E0C0B21D2175
:103760008FE0C0B21E218CE0C0B21F2189E0C0B240
:10377000202186E0C0B2212183E0C0B2222180E076
:10378000C0B223217DE0C0B224217AE0C0B225215D
:1037900077E0C0B2262174E0C0B2272171E0C0B248
:1037A00028216EE0C0B229216BE0C0B22A2168E076
:1037B000C0B22B2165E0C0B22C2162E0C0B22D2145
:1037C0005FE0C0B22E215CE0C0B22F2159E0C0B250
:1037D000302156E0C0B2312153E0C0B2322150E076
:1037E000C0B233214DE04FE0C0B2002149E0C0B289
:1037F000012146E0C0B2022143E0C0B2032140E013
:10380000C0B204213DE0C0B205213AE0C0B20621B9
:1038100037E0C0B2072134E0C0B2082131E0C0B2C5
:1038200009212EE0C0B20A212BE0C0B20B2128E012
:10383000C0B20C2125E0C0B20D2122E0C0B20E21A1
:103840001FE0C0B20F211CE0C0B2102119E0C0B2CD
:10385000112116E0C0B2122113E0C0B2132110E012
:10386000C0B214210DE0C0B215210AE0C0B2162189
:1038700007E0C0B2172104E0C0B2182101E0C0B2D5
:103880001921FFF759FE34E00A46303A092A26D8B2
:10389000130003F08BF80A06090C0F1215181B1EF3
:1038A000212EC0B2002122E0C0B201211FE0C0B22F
:1038B00002211CE0C0B2032119E0C0B2042116E0CD
:1038C000C0B2052113E0C0B2062110E0C0B207214A
:1038D0000DE0C0B208210AE0C0B2092107E02D299D
:1038E0000CD07C290AD02F2908D0C0B20A2100F0C0
:1038F000BBFB641CAC4200DAEAE6F8BD2D2908D017
:103900002F2909D07C29F4D1C0B2022100F03FFC5C
:10391000EFE7C0B20121F9E7C0B20021F6E70000ED
:10392000F1220549002803D04879104048717047BA
:1039300088791040887170476C01002010B5002212
:103940001521052001F0AAF800221621052001F01A
:10395000A5F810BDF3B587B00D460846FCF7DCFDB1
:10396000024614286ADA0027009701970297039706
:10397000049738463B463C463946059704E06E5C62
:103980002E2E00D10C46491C9142F8DB944214DAE9
:103990000022694604E0AE5C401C8E54C0B2521C4A
:1039A000A242F8DB0F5403A902E0C8545B1CDBB24F
:1039B000641C285D0028F8D1CF546846FCF79EFDB2
:1039C00005466846FCF7A8FD044603A8FCF796FDEB
:1039D000064603A8FCF7A0FD079900297ED003281E
:1039E0002ED002284AD0012879D0002826D17D2166
:1039F000C9002846FCF7DCFD0A21FCF7D9FDC9B255
:103A0000002000F031FB64212846FCF7D1FD0A219B
:103A1000FCF7CEFDC9B2012000F026FB0A212846A2
:103A2000FCF7C6FD0C460A21FCF7C2FDC9B2022014
:103A300000F01AFBE1B2032000F016FB09B0F0BD64
:103A4000002D19D00A212846FCF7B2FDC9B200208A
:103A500000F00AFB0821012000F06AFB64213046D7
:103A6000FCF7A6FD0A21FCF7A3FDC9B2012000F076
:103A7000FBFA0A213046D3E70A21E8E7012C02D0FD
:103A8000022C0AD01BE0002D05D00A212846FCF7A5
:103A90008FFDC9B210E00A210EE0002D24D00A21CA
:103AA0002846FCF785FD0C460A21FCF781FDC9B2CA
:103AB000002000F0D9FAE1B2012000F0D5FA0A2185
:103AC0003046FCF775FD0C460A21FCF771FDC9B2C2
:103AD000022000F0C9FAE1B2032001E03EE008E074
:103AE00000F0C2FA042135E00A21002000F0BCFAFF
:103AF000D1E7032C04D0022C0DD0012C19D020E0EA
:103B000064212846FCF754FD0A21FCF751FDC9B297
:103B1000002000F0A9FA0A212846FCF749FD0C46CE
:103B20000A21FCF745FDC9B2012000F09DFAE1B27F
:103B300004E00A212846FCF73BFDC9B2022000F050
:103B400093FA0A213046FCF733FDC9B2032000F096
:103B50008BFA0221012000F0EBFA6FE703281FD057
:103B600002283BD0012874D00028F6D164212846D1
:103B7000FCF71EFD0A21FCF71BFDC9B2062000F070
:103B800073FA0A212846FCF713FD0C460A21FCF7BC
:103B90000FFDC9B2052000F067FAE1B204204BE73F
:103BA000002D19D00A212846FCF702FDC9B20720D2
:103BB00000F05AFA0821002000F0BAFA64213046D9
:103BC000FCF7F6FC0A21FCF7F3FCC9B2062000F072
:103BD0004BFA0A213046D6E70A21E8E7012C02D049
:103BE000022C0BD01CE0002D06D00A212846FCF741
:103BF000DFFCC9B2062011E00A21FBE7002D21D02D
:103C00000A212846FCF7D4FC0C460A21FCF7D0FC1C
:103C1000C9B2002000F028FAE1B2012000F024FA35
:103C20000A213046FCF7C4FC0C460A21FCF7C0FC14
:103C3000C9B2052000F018FAE1B2042000F014FA2D
:103C4000042137E00A21002000F00EFA0A21E4E7FF
:103C5000FFE7032C04D0022C0DD0012C19D020E05A
:103C600064212846FCF7A4FC0A21FCF7A1FCC9B298
:103C7000072000F0F9F90A212846FCF799FC0C46C8
:103C80000A21FCF795FCC9B2062000F0EDF9E1B27B
:103C900004E00A212846FCF78BFCC9B2052000F09D
:103CA000E3F90A213046FCF783FCC9B2042000F096
:103CB000DBF9022100204EE710B500F093FE10BDA5
:103CC000F7B590B00D460446202102A8FCF764FC2D
:103CD0006F0012987F0802AE002806D001280BD092
:103CE000022853D0032819D157E02846FDF78CF855
:103CF000CFA20191009005E02846FDF785F8CEA2FD
:103D0000019100901E2102A8FCF7E0FA3218002170
:103D1000203AD17700286FDB1E286DD20122D20510
:103D2000A91A0F91C649129869180E91C549C64B38
:103D300069180D91E9180C91690049088A1A0B92CB
:103D4000BF4A8A180A92BF4A8A18C918019200917C
:103D5000002829D001286ED002286DD003284BD12D
:103D6000FF20C005C54268D2B848854271DBB8481B
:103D70000F9981426DD335210E98C9048842F9D339
:103D8000D9210D9849048842F4D3CBE02846FDF7A9
:103D90003BF8B0A201910090B4E72846FDF734F853
:103DA000AEA201910090ADE7FF20C005C5422ED222
:103DB000A648854203DBA6490F9888420FD202A984
:103DC0002046FFF7C7FD002C04D00A21002000F098
:103DD0004BF929E00A21072000F046F932E03521AD
:103DE0000E98C90488427CD3D9210D984904884291
:103DF00003D20A21002007E060E025210C98890306
:103E000088425BD20A21072000F02EF98FE0954806
:103E100087421FDA711C2046FFF79CFD002C0DD055
:103E20000121002000F0B3F90A21012000F01CF963
:103E30000A21022095E05BE0B8E0E8E001210720DC
:103E400000F0A5F90A21062000F00EF90A2105204C
:103E500087E05AE07E490B98884217D2711C2046B1
:103E6000FFF778FD002C08D00A21012000F0FCF8B3
:103E70000121002000F08BF9DAE70A21062000F08A
:103E8000F3F80121072000F082F9DFE735210A98D5
:103E9000C904884278D2711C2046FFF75BFD002CD4
:103EA00070D176E0B11C2046FFF754FD002C16D1EE
:103EB0001CE0002000E0072000F069F913B0F0BD1D
:103EC0002521009889038842F8D8B11C2046FFF7C5
:103ED00041FD002C06D00021012000F0C5F804218E
:103EE000E7E710E00021062000F0BEF80421E2E739
:103EF000FF20C005C54255481ED2854203DB544809
:103F00000F99814261D202A969E002A983E00A21E6
:103F1000002026E00A21072023E0D9210D9849043A
:103F2000884204D325210C9889038842C6D202A96D
:103F30002046FFF70FFDC1E7874215DA711C2046C6
:103F4000FFF708FD002C06D00121002000F08CF8BE
:103F50000A21012005E00121072000F085F80A214F
:103F6000062000F081F8A9E739490B98884212D25F
:103F7000711C2046FFF7EEFC002C06D00A21012020
:103F800000F072F8012194E70BE00A21062000F00E
:103F90006BF801218FE735200A99C004814200D2D5
:103FA00079E7D92149048A428AD27BE702A92046CF
:103FB000FFF7D0FCFF20C005C5420CD22348854244
:103FC000A1DB23480F9981429FD335210E98C90464
:103FD0008842A2D299E72348874209DA711C204619
:103FE000FFF7B8FC002C01D00A21AEE70A21B3E7A5
:103FF00017490B988842D3D335200A99C0048142CF
:10400000CED3D921019849048842CDD24AE7154838
:10401000874207DA711C2046FFF79CFC002C00D178
:1040200078E774E70A490B988842B9D32EE7000075
:10403000252E316600000000252E326600000000AB
:104040000000E0BE000038BD000086BBBD378635ED
:104050000000A040252E336600000000252E3466A7
:1040600000000000CDCCCC3DF8B506460B0002F0B8
:104070009DFC0B0B0D1014181C1E292C2E07210063
:1040800000221546144615E00B221CE000221546BE
:1040900009E00A22062505240CE0082218E00D2478
:1040A00008E0012206250C2404E0092200E00B228E
:1040B00006250924330002F079FC080D1115191D9D
:1040C0002125292C00220025E9E70B2200E0092206
:1040D0000625E4E71421132712261AE011211027E0
:1040E0000F2616E00E210D270C2612E00B210A27C1
:1040F00009260EE00621072708260AE003210427E7
:10410000052606E000210127022602E017211827D4
:104110001926052000F0C2FC2A463946052000F089
:10412000BDFC22463146052000F0B8FCF8BD000079
:1041300030B50E22551A0A4A012854790AD013467E
:104140009B7900280AD0022805D0032801D10B430F
:10415000937130BDAC430C43547130BDAB43F6E7B3
:104160006C0100200FB43EB500210291044600917D
:104170000191092108AB6846079AFCF78BF869465C
:104180002046FFF7A0FA3EBC08BC04B01847F3B5C0
:1041900083B0049F002002463B0002F007FC0504A8
:1041A0000A0E191419000423019300230226009318
:1041B0000EE000230193062302E003230193002372
:1041C0000026009304E00023019306230C260093AD
:1041D000039F3B0002F0EAFB08050A0F14181C219C
:1041E000262A14211325122408201FE0112110254E
:1041F0000F2404201AE00E210D250C24022015E0C6
:104200000B210A25092411E00621072508240DE0C9
:10421000032104250524022208E0002101250224AF
:10422000042203E01721182519240822049B032BDC
:104230000BD00520019A00F031FC29460520009A98
:1042400000F02CFC3246214605E0042F02D2024643
:10425000152100E01621052000F020FC05B0F0BD7E
:1042600070B50C46012862D10A2C06D20A212046DC
:10427000FCF794F90320FFF7F7FE20460A385A2886
:104280000ED20A212046FCF789F90D460A21FCF7D7
:1042900085F90220FFF7E8FE29460320FFF7E4FE38
:1042A0002046E12164388900884218D264212046E2
:1042B000FCF774F90A21FCF771F90120FFF7D4FE2D
:1042C0000A212046FCF76AF90D460A21FCF766F937
:1042D0000220FFF7C9FE29460320FFF7C5FE7D2116
:1042E000C900184A601A904221D82046FCF756F9B6
:1042F0000A21FCF753F90020FFF7B6FE642120469F
:10430000FCF74CF90A21FCF749F90120FFF7ACFE54
:104310000A212046FCF742F90C460A21FCF73EF937
:104320000220FFF7A1FE21460320FFF79DFE002299
:104330001521052000F0B2FB00221621052000F017
:10434000ADFB70BD2723000010B5094A54798C439A
:1043500001280AD013469B798B43002803D00228FA
:1043600003D0032800D1937110BD547110BD00001B
:104370006C01002010B5044686B00846FCF744FDE9
:104380000191009006A20A2102A8FBF79FFF0A28CC
:1043900003DA02A92046FFF7DDFA06B010BD0000DF
:1043A000252E31660000000010B500F079FC0E4C9F
:1043B000002322460A210D4800F066F80B4801232D
:1043C00022460A21103000F05FF8084802232246F6
:1043D0000A21203000F058F80448032322460A211D
:1043E000303000F051F810BD0000C8420C01002030
:1043F00070B504460068A168884242D201210903D1
:1044000009266268CD00F6069042207B1AD2002869
:1044100003D10122304600F039FC207B012804D171
:1044200001221021304600F031FC207B022804D10B
:1044300001222946304600F029FC207B03281FD1A9
:10444000012219E0002803D10022304600F01EFCB2
:10445000207B012804D100221021304600F016FCF8
:10446000207B022804D100222946304600F00EFCB1
:10447000207B032804D100222021304600F006FCD6
:1044800070BD0020206070BDF8B50D4604461F4683
:1044900009491046FCF7E2FC06462846FCF7D2FD27
:1044A000314603F0D9FBFCF789FDA5606060002070
:1044B00020602773F8BD00000000C84210B500F06E
:1044C0003CFA10BD10B5064C15216279052000F0AC
:1044D000E5FAA2791621052000F0E0FA10BD0000EF
:1044E0006C0100200848017A4030202909D0402979
:1044F00004D0802907D17D21C90003E0FF21F531D7
:1045000000E0FA21018370470C00002010B5074835
:10451000417F002909D0817F002906D00021417701
:104520008030816A012002F08FF910BD0C0000205C
:1045300010B5022000F05CF8012804D100F0BCFCAA
:10454000022000F019F8012000F052F8012804D1EF
:1045500000F0D0FC012000F00FF810BD10B5FF24D2
:104560000134204600F044F8012804D100F0E0FCBA
:10457000204600F001F810BD014948617047000075
:104580000004014083790179184A002B04D00029E6
:1045900010D0012913D016E0002906D0012903D13B
:1045A0005168006881435160704711680068814319
:1045B00011607047116803681943116003E0516886
:1045C000036819435160417900290AD0012903D0B9
:1045D0009168036819439160D16800680143D16014
:1045E0007047916800680143916070470004014082
:1045F000034A0146526900200A4200D00120704758
:1046000000040140F0B50B2706463F04384600F091
:104610005DF800280FD1084C20690225284320614D
:1046200066612069402108432061384600F04EF859
:104630002169A9432161F0BD0020024002480169BF
:10464000802211430161704700200240F0B501272C
:1046500005467F030C46384600F038F8002813D191
:104660000A4E30690121084330612C80384600F041
:104670002DF8002804D1200C6880384600F026F878
:104680003169490849003161F0BD00000020024055
:1046900007490020C9684A0701D502207047CA06A9
:1046A00001D503207047C907FCD0012070470000E6
:1046B00000200240034802494160034941607047BD
:1046C0002301674500200240AB89EFCD00B50346CA
:1046D000FFF7DEFF5B1E012803D0002B00D1042072
:1046E00000BD002BF4D1FAE710B5254842682549F2
:1046F0004A6082688A60C268CA6002690A61426967
:104700004A6182698A61C1694A071E49520F80392C
:104710004A71C26978231A408A71C3690F22D20193
:1047200013400A4640321380C3697F24E4022340C9
:104730004B66C369840123408B66C3697F24A4054B
:104740002340CB66036ADB06DB0ECB71036AE024F1
:1047500023400B72036AFF24240223405380026A21
:1047600003231B041A400A67026A07239B041A40AA
:104770004A67006A032252051040886710BD000096
:1047800000F000088C000020F8B5474E474D00248B
:104790007068696803F0E4FA4000454F4008B84289
:1047A00000DD0124B068A96803F0DAFA400040088F
:1047B000B84200DD0124F068E96803F0D1FA400056
:1047C0004008B84200DD01243069296903F0C8FAC5
:1047D00040004008B84200DD01247069696903F0B7
:1047E000BFFA40004008B84200DD0124B069A96961
:1047F00003F0B6FA40004008B84200DD01242B4F18
:10480000803F7979B87901433846403002881143B6
:104810007A6E1143BA6E1143FA6E1143F967FA7951
:104820003B7A40881A430243386F0243786F024351
:10483000B86F02432A60F069884200D00124306AD0
:10484000904201D1002C2ED0FFF734FF3046FFF705
:10485000D9FE69681448001DFFF7F8FE1248A968E0
:104860000830FFF7F3FE1048E9680C30FFF7EEFE62
:104870000D4829691030FFF7E9FE0B4869691430CB
:10488000FFF7E4FE0848A9691830FFF7DFFE064885
:10489000F96F1C30FFF7DAFE034829682030FFF774
:1048A000D5FEFFF7CBFEF8BD00F000088C0000201D
:1048B000BD37863581627047F0B50022032501239C
:1048C0000C8893401C422DD08B78012B01D0022BF9
:1048D00015D1846853002E469E40B44384600C7901
:1048E0009C4083681C4384604368CC789440A34315
:1048F00043604368CC789440A4B223434360066885
:1049000053002C469C40A64306608E7807689E4064
:104910003E430660C668A643C6604C799C40C368A7
:104920001C43C460521C102AC9D3F0BD0069084062
:1049300000D001207047816170471FB501204004FD
:1049400000F0EAFF0120400200F0F6FF012000F035
:10495000F3FF4021684601810321817200244473E2
:10496000092002A9C006FFF7A7FFFEF7CBFC6846A7
:10497000FEF75CFC68460470447084700121C170CD
:1049800004714471FEF712FC07214020FEF744FC3D
:1049900002210C2000F080FB0820FEF757FCFEF7F8
:1049A00081FCFEF74BFCFEF7B7FC1FBD10B50024E1
:1049B00000222146052000F071F8641CA4B2312CBD
:1049C000F6D310BD10B52921042000F023F80321EF
:1049D000042000F01FF80121042000F01BF8FFF76D
:1049E000E5FF10BD1CB50120800400F095FFE0201C
:1049F0006A461080012090700020D0700321117150
:104A0000507169460248FFF757FFFFF7DBFF1CBDF7
:104A100000040048F8B50D4606460021084600F09F
:104A2000A5F80120FEF7B4FC002404270021012092
:104A300000F09CF83946E1403140022000F096F841
:104A40000120FEF7A5FC0121084600F08FF80120A7
:104A5000FEF79EFC641C032CE8DB0024802600216A
:104A6000012000F083F83146E1402940022000F0A7
:104A70007DF80120FEF78CFC0121084600F076F855
:104A80000120FEF785FC641C092CE8DB01210020D5
:104A900000F06CF80120FEF77BFCF8BDF8B50E467F
:104AA000074600211546084600F060F80120FEF791
:104AB0006FFC00240421E1403940022000F056F848
:104AC0000520FEF765FC0021012000F04FF80520CD
:104AD000FEF75EFC0121084600F048F80120FEF7D1
:104AE00057FC641C032CE5DB002420273946E140F9
:104AF0003140022000F03AF80520FEF749FC002181
:104B0000012000F033F80520FEF742FC01210846A1
:104B100000F02CF80120FEF73BFC641C062CE5DBC2
:104B2000002401263046A0402840C1B2022000F0F7
:104B30001DF80520FEF72CFC0021012000F016F8DE
:104B40000520FEF725FC0121084600F00FF830464D
:104B5000FEF71EFC641C042CE4DB0121002000F0A5
:104B600005F80120FEF714FCF8BD000010B50F4A4F
:104B7000002807D001280BD002280FD1002913D01C
:104B8000202108E0002901D0802104E0802107E0F5
:104B9000002904D040211046FFF7CDFE10BD402172
:104BA0001046FFF787FE10BD2021F9E700040048FA
:104BB000F0B5012085B0400400F0AEFE0120800475
:104BC00000F0AAFE012000F0B7FE022569460D8024
:104BD00000248C70032609200E71C006FFF76CFEBE
:104BE000012769460F808C7009200E71C006FFF7FF
:104BF00063FEE801694608808C700E711448FFF767
:104C00005BFE0121002000F0C5FE0021084600F0F7
:104C1000C1FE0821012000F0BDFE694602958F7398
:104C20000C734D7302A8FFF7ADFC02A80297FFF7C3
:104C3000A9FCE801029002A8FFF7A4FC01210520CD
:104C400000F02AFA0121072000F026FA05B0F0BD95
:104C50000004004810B5FFF769FE10BD10B500282C
:104C600006D00948002901D0022106E0022108E00F
:104C70000920C006002903D08021FFF75CFE10BD8B
:104C80008021FFF717FE10BD0004004810B5002A70
:104C900002D0FFF750FE10BDFFF70CFE10BD000064
:104CA0001CB50120400400F037FE08486A46108019
:104CB000012090700020D0700321117150710920E3
:104CC0006946C006FFF7F8FD1CBD000030900000EB
:104CD000344801680122114301604168324A1140A1
:104CE00041600168314A114001600168012292046B
:104CF0009143016041683F22120491434160416841
:104D0000090909014160016BFF225432914301639B
:104D1000416B49084900416300218160016801221B
:104D200012041143016000210522120203689B074F
:104D300002D4491C9142F9D30168890730D51C4936
:104D40000A6810231A430A600A68D208D200521C6B
:104D50000A604168F02291434160416807221202D3
:104D60009143416041680322D2039143416041680D
:104D70000F22920491430522D204891841600168F0
:104D80001A051143016001688901FCD54168890851
:104D90008900891C416041680907890F0229FAD1FD
:104DA00070470000001002400CB8FF08FFFFF6FE3D
:104DB000002002403EB5012000F0B6FD0124A4070A
:104DC000204601F08FFC00216A46117291700C4858
:104DD00001902F20108051726946204601F088FC16
:104DE0000121204601F07BFC0121204601F0CBFC93
:104DF00000210F2000F050F9204601F0BFFC3EBD1D
:104E0000E70300007CB50120400400F085FD01208F
:104E1000800400F081FD80216846018001268670B3
:104E20000024C47003250571447109206946C00639
:104E3000FFF742FD0221684601808670C47005714B
:104E4000447169460148FFF737FD7CBD0004004806
:104E50007047000016490122496E920300208B1A08
:104E600091421AD00DDC134A891A1CD0891A16D027
:104E70005200914200D132200D4940318881C881D1
:104E80007047991A0DD00122D203891A0DD0520011
:104E90009142F1D17D200001EEE76420ECE70A2089
:104EA000EAE7FA20E8E70220E6E7FF20F530E3E74B
:104EB0000C0000200008000010B50A20FEF74CFA94
:104EC00009200221C006FFF7C5FE0949002804D0C9
:104ED000087B40084000087310BD0A7B0120024394
:104EE0000A734A7B02434A738873087110BD00003D
:104EF000FC00002010B50A20FEF72EFA092001213F
:104F0000C006FFF7A7FE0949002804D0087BFD2250
:104F10001040087310BD0A7B022002430A734A7BCB
:104F200002434A7301208873087110BDFC00002001
:104F300010B50A20FEF710FAFF2101310A48FFF7E9
:104F400089FE0A49002804D0087BFB221040087320
:104F500010BD0A7B042002430A734A7B02434A7352
:104F600001208873087110BD00040048FC00002077
:104F700070B5434D0121286F0904424C401A02D0FC
:104F8000401A02D100E001202076A079002804D048
:104F900001210220FFF7CCF803E001210220FFF7F6
:104FA000D3F9E079002804D001210320FFF7C0F8ED
:104FB00003E001210320FFF7C7F90121A86E89044E
:104FC000314D401A05D0884229D1207E012827D0B2
:104FD0003EE0207E012817D1A079002808D00023C8
:104FE0002A460A212948FFF74FFA0223002207E048
:104FF00000231A460A212548FFF746FA02232A46CB
:105000000A212348FFF740FA207E002807D1E079E3
:1050100000282CD122E00A211D48FFF735FA70BD87
:10502000A079002808D000231A460A211748FFF764
:105030002BFA02232A4607E000232A460A211348B6
:10504000FFF722FA022300220A211148FFF71CFA77
:10505000207E0028E3D1E079002808D000231A46FA
:105060000A210A48FFF710FA02232A46D3E7002351
:105070002A460A210548FFF707FA02230022CAE759
:105080000C0000202C0000200000C8420C01002071
:105090002C010020704700008207D30EFF229A40A7
:1050A0008907090E10B5994000280BDA03071B0F7A
:1050B000083B9C080B4BA400E318DC6994430C43A9
:1050C000DC6107E08408084BA400E3181C689443E3
:1050D0000C431C60C106C90E0120884003490860CA
:1050E00010BD000000ED00E000E400E000E100E0A1
:1050F000F8B50020FEF714FCD64E02227379102773
:105100002021012B18D0042408250320022B77D05E
:10511000042B4CD1B379082B73D0102B7CD0202BCF
:1051200071D0402B43D1F27B082A6DD06DDC002A70
:105130006CD0042A6BD194E0B079012408283BD0CC
:1051400010280DD020283FD0402830D1307B0028B7
:105150002ED0012819D010281FD0202825D127E0D3
:10516000F07A00280ED0012802D0022808D109E0E8
:10517000144672720222B8A10020FEF7F3FFF47207
:10518000F07A13E074720122F5E777720222B4A17B
:105190000020FEF7E7FF377307E00C46717202222A
:1051A000B1A10020FEF7DEFF3473307BB075F8BD8F
:1051B00074720122A8A1F4E774720122A6A1002052
:1051C000FEF7D0FFB475F8BD707B002820D0012811
:1051D00004D010280AD0202810D119E077720222BA
:1051E0009FA10020FEF7BEFF777307E00C467172A7
:1051F00002229DA10020FEF7B5FF7473707BD5E7F6
:105200008EE04CE008E05FE033E025E043E02FE093
:105210007472012290A1EDE7B17B002917D0022919
:1052200004D004290AD008290FD110E0707201229D
:105230008BA10020FEF796FFB47306E07572012281
:1052400089A10020FEF78EFFB573B07BAEE7144650
:105250007272022280A1ECE7102A12D0202A18D103
:1052600019E07472012280A10020FEF77BFFF57324
:105270000FE0777202227AA10020FEF773FFF77326
:1052800007E00C467172022277A10020FEF76AFF48
:10529000F473F07B8AE77072012271A1F5E7317C2B
:1052A000042909D008298ED1707201226CA1002036
:1052B000FEF758FF3474F8BD747201226AA1002011
:1052C000FEF750FF3574F8BD727C082A12D004DC5A
:1052D000002A21D0042A1DD104E0102A12D0202A4D
:1052E00018D119E0747201225FA10020FEF73AFF85
:1052F00075740FE07772022259A10020FEF732FF89
:10530000777407E00C467172022257A10020FEF765
:1053100029FF7474707C49E77072012250A1F5E78F
:10532000B379082B51D0102B0CD0202B65D0402BFB
:10533000C9D1F27C082A32D024DC002A41D0042AC8
:105340003DD124E0B17C002917D0022904D00429E2
:105350000AD008290FD110E07072012240A100206C
:10536000FEF700FFB47406E0747201223EA1002033
:10537000FEF7F8FEB574B07C18E71446727202228C
:1053800035A1ECE7102A12D0202A18D119E0747246
:10539000012237A10020FEF7E5FEF5740FE07772D9
:1053A00002222FA10020FEF7DDFEF77407E00C4675
:1053B000717202222CA10020FEF7D4FEF474F07C5E
:1053C000F4E67072012226A1F5E7717D002903D071
:1053D000042909D008290ED17072012220A10020D1
:1053E000FEF7C0FE747506E0747201221EA1002053
:1053F000FEF7B8FE7575707DD8E6327D082A1BD0A1
:1054000004DC002A21D0042A1DD104E0102A0AD08D
:10541000202A18D119E07472022215A10020FEF78B
:10542000A1FE35750FE00C467172022212A1002018
:10543000FEF798FE347506E07772022208A100207C
:10544000FEF790FE3775307DB0E67072012204A140
:10545000EDE700000C00002020502D256400000026
:1054600048312D25640000004C6F2D25640000009C
:105470004C6F312D256400004C6F322D25640000E7
:10548000F8B5E34D002128882C46203C0E460F46F7
:10549000802814D0FF38401E0DD0FF38401E04D0A5
:1054A000FF38FF3802280CD102E00120A07504E08B
:1054B0000120A07504E0A7750120E07501E0A77543
:1054C000E775D34A403A5079012804D002280CD01D
:1054D000042814D108E0022107E010280AD020286F
:1054E0000CD040280BD107E0012190790828F4D195
:1054F000062604E0052602E0042600E00326002933
:105500006ED0012937D0022970D1E07E002802D068
:1055100001286BD11BE0688AA98988420AD3E77009
:10552000A771A07D002801D0002100E00121012009
:10553000FFF794FBB6484030C16B406802F01CFB9B
:10554000B3494031096C02F05DFB4FD279E0288A03
:10555000A98988420BD3A7700120A071A07D0028E3
:1055600001D0012100E000210120FFF777FBA848CE
:10557000403041682FE0E07E002802D0012835D17C
:1055800016E0688AA98988420AD3E770A771A07DCE
:10559000002801D0002100E001210120FFF75EFB7F
:1055A0009B484030C168006C02F0AEFB76D248E008
:1055B000288AA98988420BD3A7700120A071A07DF9
:1055C000002801D0012100E000210120FFF746FB67
:1055D0008F4840300169006C02F014FB5ED274E029
:1055E000E07E002803D0012858D12EE02CE0688A04
:1055F000A98988420AD3E770A771A07D002801D04D
:10560000002100E001210120FFF728FB8048403005
:10561000C16BC06802F0B0FA7D494031096C02F0FC
:1056200073FB3BD27A484030C16B006902F0A4FAA8
:1056300077494031096C02F0E5FA2FD2688A0028D8
:105640002CD10120A070E07628E0288AA989884220
:105650000BD3A7700120A071A07D002801D00121EB
:1056600000E000210120FFF7F9FA69484030C16BE2
:10567000C06802F081FA66494031096C02F0C2FA52
:1056800002D2288A002820D0614840300169006C8D
:1056900002F0B8FA02D2288A002816D0032E71D060
:1056A000042E3AD0052E2BD1207F002811D00128BE
:1056B00026D1A88AE989884227D327710120E07181
:1056C000E07D00281DD001211CE00120E070E7767C
:1056D000E4E7E88AE98988420AD36771E771E07DE7
:1056E000002801D0002100E001210020FFF7B6FAD8
:1056F000474D4035E96BA86871E0012020712077A3
:10570000F8BD00210020FFF7A9FA41484030816828
:1057100032E0012060712777F8BD207F00280DD08E
:105720000128F9D1A88AE989884222D3277101206A
:10573000E071E07D002818D0012117E0E88AE989AE
:1057400088420AD36771E771E07D002801D000210B
:1057500000E001210020FFF781FA2D484030416927
:10576000006C02F0D1FAD7D2C7E700210020FFF782
:1057700075FA274840308169006C02F043FACBD2B9
:10578000C7E7FFE7207F00280DD00128C4D1A88AF1
:10579000E98988422ED327710120E071E07D00283D
:1057A00024D0012123E0E88AE98988420BD367717C
:1057B000E771E07D002801D0002100E001210020F8
:1057C000FFF74CFAF8BD124D4035E96B686902F0FD
:1057D000D3F9296C02F098FAF4D2E96BA86902F0C7
:1057E000CBF9296C02F00EFAECD286E700210020FA
:1057F000FFF734FA064D4035E96B686902F0BCF9F1
:10580000296C02F0FFF984D3A969286CB5E7000080
:105810004C000020144A5168144B1548994202D894
:105820005168814200DD50609168994201D88142FF
:1058300000DD9060D168994201D8814200DDD060DE
:105840001169994201D8814200DD10615169994284
:1058500001D8814200DD50619169994201D88142AD
:1058600000DD9061704700008C000020004083C480
:105870000040834410B50648FEF7BAFD0548FEF720
:10588000B7FD0548FEF7B4FD0448FEF7B1FD10BDB5
:105890000C0100201C0100202C0100203C010020F4
:1058A00010B5134C607EFBF7CDFB024600230A21A6
:1058B0001048FEF7E9FDA07EFBF7C4FB024601237A
:1058C0000A210D48FEF7E0FDE07EFBF7BBFB024638
:1058D00002230A210948FEF7D7FD207FFBF7B2FB20
:1058E000024603230A210648FEF7CEFD10BD000044
:1058F0000C0000200C0100201C0100202C010020C5
:105900003C010020704700000249CA688243CA6017
:10591000704700000010024002494A6902434A6190
:1059200070470000001002400249CA690243CA6180
:10593000704700000010024002498A6902438A61F0
:1059400070470000001002400249CA680243CA6062
:10595000704700000010024010B50A4C206AFBF7A7
:1059600071FB094902F078F9084902F0F9F9A062DF
:10597000216B4A00120E02D002F0F2F9A0622064FC
:1059800010BD00008C0000206C09793DF628E24231
:10599000704700000007000F8A07120F90400E4A60
:1059A000032903D891680143916070470B1F032BB3
:1059B00003D8D1680143D16070470B46083B032BE5
:1059C00003D811690143116170470C390329FBD8D1
:1059D000516901435161704700000140FEB5A6497D
:1059E00000240194887D0D4680352746082812D072
:1059F00006DC012809D0022809D0042810D108E0CB
:105A000010280AD020280BD109E06C6808E0AC68A7
:105A100006E0EC6804E02C6902E06C6900E0AC6927
:105A200095480121C06E4906421A884220D006DC02
:105A30009249401A20D088420ED191480BE07F2035
:105A4000400610181AD03F218906401812D049008C
:105A5000C84201D18B48E8648B49087B00287DD07F
:105A6000854E3146203140360091022808D053E05F
:105A70008648F0E78648EEE78648ECE78648EAE79E
:105A8000F288E869904201D2401CE8617A49087EB8
:105A9000C97D88424FD3E86964281BD9904219D246
:105AA0007549002008762046E96C02F0ABF807D271
:105AB0002046696C02F060F804460BE0087692E03C
:105AC00076A10020FEF74EFB00990120487607469C
:105AD0000020F083F188E869884217D166490020E8
