:020000040800F2
:10000000E01C002079020008B13C0008AF3C000869
:1000100000000000000000000000000000000000E0
:100020000000000000000000000000002D3F00085C
:100030000000000000000000513D0008313F0008B2
:100040008B0200088B0200088B0200088B0200085C
:100050008B0200088B0200088B0200088B0200084C
:100060008B0200088B0200088B0200088B0200083C
:100070005B3100088B0200088B0200088B0200082D
:100080008B0200088B020008000000008B020008B1
:100090008B0200088B0200088B0200088B0200080C
:1000A0008B0200088B0200088B020008AD4000089C
:1000B0008B020008000000008B02000800F002F82C
:1000C00000F0AFF80CA030C8083824182D18A2464C
:1000D000671EAB4654465D46AC4201D100F0A1F824
:1000E0007E460F3E0FCCB6460126334200D0FB1AA7
:1000F000A246AB46334318478CD20000ACD2000076
:100100000023002400250026103A01D378C1FBD833
:10011000520700D330C100D50B60704710B56E296F
:1001200002D100F0B7FF10BD702902D101F02FFB02
:1001300010BD662902D10CF0D1FF10BD652902D196
:100140000CF0CCFF10BD672902D10CF0C7FF10BD29
:10015000612902D10CF0CAFF10BD03681B0A01D34C
:1001600080231943692902D100F02CF910BD6429BC
:1001700002D100F027F910BD752902D100F022F953
:1001800010BD6F2902D101F0ADFA10BD782902D15E
:1001900001F0EAFA10BDE92902D101F049FA10BDD7
:1001A000E42902D101F044FA10BDF52902D101F091
:1001B0003FFA10BDEF2902D101F0A0FA10BDF829D5
:1001C00002D101F0DFFA10BD0368DB0901D38023FF
:1001D0001943632902D101F0ADF910BD732902D191
:1001E00001F0B0F910BDE32902D101F00AFE10BD03
:1001F000F32902D101F00DFE10BD002010BD1FB586
:1002000001F0FAFB0400002000210CF059FD401C15
:100210006060002000210CF03DFDE0601FBD10B5C6
:1002200010BD02F0E9F91146FFF7E9FF09F028FFD8
:1002300002F0A0FC03B4FFF7F2FF03BC04F0B2F835
:1002400070B505460C46164602E00FCC0FC5103EB1
:10025000102EFAD2082E02D303CC03C5083E042E7A
:1002600007D301CC01C5361F03E021782970641C37
:100270006D1C761EF9D270BD0748804707480047BD
:10028000FEE7FEE7FEE7FEE7FEE7FEE70448054976
:10029000054A064B7047000025400008BD000008D5
:1002A000E00C0020E01C0020E0140020E0140020FE
:1002B000704700007CB51D4616460C00009001D02A
:1002C0000019401E084B7B442A466946019030467F
:1002D00001F005F9002C054603D06946002001F025
:1002E00011F928467CBD0000451200000FB40549F5
:1002F00010B503AA029801F029F910BC08BC04B09B
:1003000018470000680200200FB41CB5084B06AA6D
:100310007B4469460090059801F0E1F8044600200E
:10032000694601F0EFF820461CBC08BC04B0184731
:10033000F11100000FB47CB50C0009AA009001D0A7
:100340000019401E094B7B4469460190089801F052
:10035000C6F8002C054603D06946002001F0D2F80B
:1003600028467CBC08BC04B018470000C51100003A
:1003700070B50C460546012A05D02878800600D5C0
:10038000EA69002302E0012305E05B1C934202D2EC
:10039000E05C0028F9D1A869E618C01AA861286AAB
:1003A000C0182862284600F0E4FD04E06A6820785E
:1003B000A968641C9047B442F8D3284600F0EFFDCA
:1003C00070BD0000F7B5002575291068009914A6C6
:1003D00011D000F0F5FD002802DA404211A608E035
:1003E000009909688A0701D50FA602E0490704D5DC
:1003F0000EA6012501E000F0ECFD009F002424374B
:1004000004E001F05FFA30313955641C0028F8D15E
:100410002B4632462146009800F0E4FDFEBD000068
:10042000000000002D0000002B0000002000000054
:10043000F3B50446002081B020622046E168884779
:10044000002872D0252802D06268A168ABE0594F1D
:1004500000267F442046E16888472028054608DBBF
:10046000312D06D2781920380078002801D00643B3
:10047000F0E7B00701D5042086430020E06107467D
:10048000A0612A2D0AD0284603F085FF002827D036
:10049000B8000019303D0090856119E00298BA005B
:1004A000121902C8916102902046E1688847012F25
:1004B000054617D1E06900281FDA202086431CE09A
:1004C00000980A21806948430099401930388861B2
:1004D0002046E1688847054603F05DFF0028EFD11C
:1004E000012F0AD02E2D08D12046E1688847054605
:1004F000202006437F1C022FC3DBA069002803DAFB
:100500004042A06101200643F00701D0102086433D
:100510006C2D0BD0682D09D04C2D3CD06A2D38D0D5
:10052000742D38D07A2D36D016E040E0E1682F46A1
:1005300020468847B842054609D16C2F29D00120B2
:100540008002E168064320468847054604E06C2F98
:100550001DD0FF2001300643002D28D02846413809
:10056000192803D80120C002064320352046266002
:100570002946029A1646FFF7D1FD002810D001281F
:100580000BD0F61DF008C0000830029055E740205F
:10059000E1E78020D5E70020D3E7361D02964CE73F
:1005A00062682846A1689047206A401C44E7206A98
:1005B000FEBD0000EECD000070B5064600F0CAFC9E
:1005C0000468054630460A22002101F043F92C60F8
:1005D00070BD30B505460B462A461C781078521C73
:1005E0005B1C002801D0A042F7D0002C03D00028CB
:1005F00002D06D1CEFE7284630BD0000034670B501
:1006000002460B439B070FD10E4CE60100E008C2E7
:1006100008C91D1B9D433542F9D0D9B21170521C37
:1006200000290DD01B0AF8E70B78491C1370521CE7
:10063000002B05D00B78491C1370521C002BF3D1F2
:1006400070BD00000101010130B5441C03E00178D8
:10065000401C00290DD08107F9D10B4BDD0104C8E6
:10066000D11A91432940FAD0001B0A0603D0C01EBC
:1006700030BD001B30BD0A0401D0801E30BD090210
:10068000FCD0401E30BD000001010101134610B531
:100690000446CAB219461002821810048218204675
:1006A00000F00FF8204610BD01E004C0091F042926
:1006B000FBD28B0701D50280801CC90700D00270D5
:1006C000704700290BD0C30702D00270401C491E9E
:1006D000022904D3830702D50280801C891EE3E728
:1006E0000022EEE70022DFE7F8B507460B46394661
:1006F0001943890713D1164CE601042A0FD302CB04
:100700000D1B8D43354202D102C0121FF5E7CBB25B
:100710000370401C521E002B13D0090AF7E7002A71
:1007200014D01978521E5B1C0170401C002908D09F
:10073000002A0BD01978521E5B1C0170401C002946
:10074000EDD1002A02D01146FFF7CAFF3846F8BDA6
:1007500001010101024670B50A4392072AD11E4DDC
:10076000EE0104C808C9541B9443344017D0D0B2DA
:10077000D9B2401A2106014310D190B299B2401A61
:10078000210401430AD110021902000A090A401A81
:100790002102014302D1100E190E401A70BD9A4277
:1007A000DFD010BA19BA884201D9012070BD0020EB
:1007B000C04370BD02780B78401C491C002A09D048
:1007C0009A4207D102780B78401C491C002A01D0BC
:1007D0009A42EFD0D01A70BD010101010022030935
:1007E0008B422CD3030A8B4211D300239C464EE04C
:1007F00003460B433CD4002243088B4231D3030908
:100800008B421CD3030A8B4201D394463FE0C309B9
:100810008B4201D3CB01C01A524183098B4201D3D1
:100820008B01C01A524143098B4201D34B01C01ABC
:10083000524103098B4201D30B01C01A5241C30834
:100840008B4201D3CB00C01A524183088B4201D3A3
:100850008B00C01A524143088B4201D34B00C01A8F
:100860005241411A00D201465241104670475DE0A4
:10087000CA0F00D04942031000D340425340002227
:100880009C4603098B422DD3030A8B4212D3FC22D0
:10089000890112BA030A8B420CD3890192118B424F
:1008A00008D3890192118B4204D389013AD0921165
:1008B00000E08909C3098B4201D3CB01C01A524120
:1008C00083098B4201D38B01C01A524143098B42E9
:1008D00001D34B01C01A524103098B4201D30B01D2
:1008E000C01A5241C3088B4201D3CB00C01A5241F7
:1008F00083088B4201D38B00C01A5241D9D24308DE
:100900008B4201D34B00C01A5241411A00D201461A
:10091000634652415B10104601D34042002B00D584
:100920004942704763465B1000D3404201B5002046
:10093000C046C04602BD7047704770470246C80FA8
:10094000C00781434B0030B54B405B009B0D20D06E
:100950001923DB06C91801231B05994220DB032458
:10096000A40704251346AB400BD3002B04D1EB06A0
:1009700013409B00E34204D40124640700231219AE
:100980005941FF231B0599420BD2C9000143500F67
:1009900009E0CB0204D501430803024305D0054812
:1009A00030BDFF21C905084330BD084607210905B0
:1009B000884330BD0000C07FF0B50C46871A9C41CB
:1009C0000D46861A9D4103D2C01BA141D219634135
:1009D0000D0D1F0DC94EEC1BAE435CD07F057F0D86
:1009E0000026002F51D02D05AC46A943DD0201237E
:1009F000ED0A1B051D4320231B1B24D41746E7408B
:100A0000381871412F46E740CC199D4028183146CF
:100A100061410C0D27D161449A4013D50023401C3D
:100A2000594152000ED14008400001224B005205AE
:100A3000D34207D305204007C14201D5B04900E0A9
:100A4000B0493046F0BD6B00002A00D001229A1850
:100A50001F23203C1B1B01D5002302E0E540281882
:100A600071410C0DD7D0012424050919C407CD0705
:100A700040084908E40F28436144002CD5D00024E5
:100A8000401C61419A40D0D1CDE76A05520DD9D1C1
:100A9000C90FC907D5E79C4D4E00002801D001249D
:100AA00000E0002434195F00002A01D0012600E094
:100AB0000026BE19954FAC420CD8AE420AD8B442BB
:100AC00006D001256D05EC42BCD010461946F0BD9C
:100AD0009942FCD000203946F0BDF0B51FB40C4659
:100AE0000F46811A9F412546861A9D4106D201254F
:100AF000ED076F40401ABC4152187B41210D1E0D7D
:100B00008D1BAC467D4D8D437ED075056D0D7CD023
:100B10000D05AE46AC431B031B0B794D52429D4164
:100B2000202366469B1B14D31746F740381800262F
:100B30000090744160462F460741E41900989D409B
:100B40002818664116D4714671189A4025D501239C
:100B500020E093182A466A415200002B00D0521C14
:100B60001E23203E9B1B002B61DD3541EE1728180C
:100B70006641E8D5001876415B1C9A4000D3401CC2
:100B80004B05F3181524E34010D3002B52D07146C7
:100B90007118D30FC01802D3491C05B0F0BD012352
:100BA000DB079A42F9D140084000F6E701225205DE
:100BB000B21801D1002853D00123CC0ADB0299439B
:100BC000891E002A08D1020C03D0020C000410393F
:100BD00002E00246002020390023550B05D1120205
:100BE0000823550B01D152010D23550C01D11201DF
:100BF0001B1DD50C01D192009B1C150D01D152007B
:100C00005B1C2025EE1A01E02CE022E00546F540B1
:100C100015439840CA1AE10769181305C918002A34
:100C2000BBDA032040070818C10FC9070FE071465F
:100C30006118B2E7F10740080843711071444A0097
:100C40000CD001235B059A42A7D2C90FC907002027
:100C5000A3E74905490D26D1002001E00028F4D181
:100C600000219AE7284D6600002801D0012100E00C
:100C7000002171185F00002A01D0012600E0002643
:100C8000BE19224FA94210D8AE420ED8B14208D0A8
:100C900001256D05E94206D01946A80241401046DB
:100CA0007BE79C4201D0214677E70020394674E774
:100CB00010B50C465C4005D50124E4076340FFF7FE
:100CC0000CFF10BDFFF778FE10BD30B40C465C4041
:100CD00004D50124E407634030BC6DE630BCFCE67B
:100CE00070B50124E40761400D465D4002D4FFF772
:100CF00063FE70BD6340FFF7F0FE70BDFF070000AC
:100D00000000F0FF0000F07F0000E0FF0000F87F2F
:100D10000121C9050123411842001B06D3185B0EAF
:100D20000AD0C1100722D206891840075242D14288
:100D300001D5520089187047090208D50146002ADA
:100D400003D0C10FC9070020704710467047420208
:100D500002D0002002497047072109050143F4E74A
:100D60000000F87FF0B5FF252D04C609C209FF2752
:100D700004462E400137CB093E4348402A402B40D1
:100D80000746002A6BD0002B69D0AA4267D0AB423D
:100D900065D0002800DA32460125ED0529432C43B1
:100DA00009022002090AD21A4B0C7F24E31A434C91
:100DB000000A7C44E35C7D242404121914145B00B3
:100DC000A218884201D3521C00E0400049420C4660
:100DD0005C4324115C43DB016415E318040A5C43A3
:100DE000C502200D0C4644436419250A5D432303C4
:100DF000EC0C0D46654300030019EB184C42A3426E
:100E000001D35B18401CD4052018002B07D05B00D1
:100E1000C91804D3401C002901D1400840003F21DB
:100E200089048A4209D3002A08DC1106090F04D07C
:100E3000032149074018C00FC007F0BD012241003F
:100E4000120689187F2252069142F6D205214907DF
:100E5000C84201D59010F0BDFF20C005F0BD002FA5
:100E600000DA32461648AA4207D2AB4205D219022E
:100E7000090E17D0F80FC007F0BDFF2563002D063F
:100E8000AB42F9D84900A942F6D8AB4201D1A942F8
:100E9000F2D0A94201D1002101E061004908D0054A
:100EA0000843F0BD1102090EFBD0FF200243D0051C
:100EB000F0BD0A460146104654E700009FC40000FA
:100EC0000000C07F0102C21504D00123DB071943D3
:100ED000002A0ADB9E239A1A02D40846D0407047A3
:100EE000FF2241001206914201D900207047C0172D
:100EF000C04370471F22030C02D10F2200041CD0F4
:100F0000030E01D10002083A030F01D10001121FA4
:100F1000830F01D18000921E002801DB4000521E89
:100F2000D2055118021251181922904004D3491CBD
:100F3000002801D14908490008467047C10FC90778
:100F400000D04042012292071143D3E701218907D3
:100F5000D0E7704700487047800C002010B5FFF7BD
:100F6000F9FF006810BD10B50446FFF7F3FF0460F9
:100F700010BD70B5044685690068C10601D53026EC
:100F800000E02026C00707D070BD62683046A16827
:100F90009047206A401C20626D1EF6D570BD70B56A
:100FA000044685690078C00707D170BD6268A168F2
:100FB00020209047206A401C20626D1EF6D570BD2F
:100FC00009684A0501D540B27047C905FCD500B291
:100FD000704709684A0501D5C0B27047C905FCD5FC
:100FE00080B27047FFB504460D4681B024300090B2
:100FF0002168880604D51022E0699143216000E051
:101000000120A84201DD471B00E000270498A169E8
:101010007A191018081AA0612078C00602D4204658
:10102000FFF7A7FF002608E003986268A168805DCB
:101030009047206A401C761C206204988642F3DBAD
:101040002078C0060AD52046FFF793FF06E06268C5
:10105000A16830209047206A401C206238467F1EDD
:101060000028F4DC07E000986268A168405D9047C2
:10107000206A401C206228466D1E0028F3DC2046B2
:10108000FFF78DFF2078000602D5022005B0F0BDE5
:101090000120FBE711680268006A530501D508705A
:1010A00009E0D30501D5088005E0130602D5C21773
:1010B00005C100E008600120704700007047FFB5DF
:1010C0000C461E468FB003CA089009914F007D0D53
:1010D00000D16D1E002108460020C0460321099A58
:1010E00089050840002A03DA820080184008084079
:1010F000800D01280A9002DD0020C0430A90089864
:1011000007430DD0F048F1492818484307141898B0
:1011100000281DD07542291E1DDD0A9842421BE0A1
:101120001898012802D00020302104E00020F2436A
:1011300005E02154401CB042FBDB30460022189BE6
:10114000002121540F998B600A60486013B0F0BDF4
:10115000BD1B6D1CDFE70A9A002900DA69420BA863
:1011600000F0D0FE0BAB07CB03AB07C3089909987F
:1011700000F034FF6B4607C30146D5480918002D1F
:1011800000910BDDD24903980A9A49424018002386
:1011900003A90390684601F091F908E003990A9ABF
:1011A0000023081803A90390684601F031F96B4643
:1011B00007C30004000C03D00020C043410800E036
:1011C0001046189A002A03D00022009215461EE00D
:1011D000751E05D400F014FC303262556D1EF9D531
:1011E00001220843079602D000227F1C04E02078E9
:1011F000302801D100227F1E002A069787D01EE0EA
:10120000112D07DA00F0FCFB303262556D1C0246EE
:101210000A43F5D1084303D00098002819D00EE006
:101220000021681E05E0235C625C63542254401E6A
:10123000491C8142F7DBA81B401E07950690079AC0
:1012400018990020A0540F98079B069A81600CC043
:101250007CE711260020189059E7D21DF0B50D4605
:101260000446D10893B0C90003C90C900D9102F057
:10127000E9FF02460D98C00F01D02D2007E020683D
:10128000810701D52B2002E04007C00F4001032A4F
:101290000F9001D0072A05DB03462946204600F0BF
:1012A00061FD0EE12078800601D5E76900E00627A0
:1012B0002846652D04D0662814D0672D69D12DE00D
:1012C0000020112F009001DB112300E07B1C0CAAF1
:1012D00003A910A8FFF7F3FE1199002610987D1CB2
:1012E0000E9142E001203B460CAAC0070B90012062
:1012F000009003A910A8FFF7E2FE119D1298109923
:10130000002600280E9501D1781C0D18781B02D4F8
:1013100046427D1C761EE81B00903AE0012F00DA61
:1013200001270020112F009001DD112300E03B4632
:101330000CAA03A910A8FFF7C2FE11993D46109808
:1013400000260E91217809070BD40E99A94200DAE4
:101350000D4603A9012D04DD4A19203AD27F302A17
:1013600006D0B84201DA011D04DA012100910FE034
:101370006D1EEFE7002802DC86192D1A03E0411CE0
:10138000A94200DD0D46801B401C00900120C007D3
:101390000B902078000705D40098A84202DB0020BB
:1013A000C043009069460020C8720B98012102AF2B
:1013B0000337C907884225D0022010902B201190B6
:1013C0000B9800280BDA40420B902D20119006E07C
:1013D0000B9800F077FA30317F1E0B90397010991E
:1013E000481E00291090F3DC0B980028F0D11198CA
:1013F0007F1E38702088000501D5452000E065205B
:101400007F1E387001A8C01BC01D0B900F980028CC
:1014100000D0012041190098C01709180B9808182E
:10142000A169081A401EA0612078C00602D4204697
:10143000FFF79FFD0F98002805D06268A1689047CC
:10144000206A401C20622078C00625D52046FFF780
:1014500090FD21E0002E07DB0E98B04204DD03A8CA
:101460006268805DA16802E06268A16830209047F0
:10147000206A761C401C20620098401E00280090C4
:101480000AD100F0B9FAC06862680168405CA168DE
:101490009047206A401C206228466D1E0028D9DC37
:1014A00007E062683878A1687F1C9047206A401C7A
:1014B00020620B99481E00290B90F2DC2046FFF7B2
:1014C0006EFD032042E6000001FCFFFF104D00000E
:1014D000E1DFFFFF01694A1C02610878704700B52F
:1014E0008FB0029100210591054901937944039140
:1014F000114604906846FEF79BFF0FB000BD000048
:10150000E5FFFFFF0A681070521C0A6070470CC9A3
:1015100008399A4202D2531C0B601070704710B504
:101520004369002B02D0C046C04601E0FEF720FF11
:10153000012010BD1278014624310A7000224A7041
:101540000122ECE711680022D243E8E7084B70B5AE
:101550000D467B44FFF7C3FF0446284600F0FEFF1C
:10156000002802D00020C04370BD204670BD00009E
:10157000373F0000F7B50446154686B02B4878443F
:10158000002703C83E460090019111E007986A4683
:101590007100415A02A800F0E5FF411C07D02178F4
:1015A000890603D5E269391891420ED83F18761C96
:1015B0002078800602D5E069B84206DDAE42E5DB60
:1015C00007987100405A0028E0D1A069C01BA061B3
:1015D0002046FFF7CEFC154878445A3803C80090DF
:1015E0000020019116E041006A460798415A02A87E
:1015F00000F0B8FF0590401C0AD0002505E06268A5
:1016000002A8A168405D90476D1C05988542F6D3FD
:101610000498401CB0420490E5DB206AC0192062A7
:101620002046FFF7BCFC09B0F0BD000016BD00006D
:10163000F7B5D21D0025D20815A6D200F52905CA96
:1016400011D0002A05DA00214042914111A60A4634
:1016500008E0009909688B0701D50FA602E0490749
:1016600001D50EA601251146009F0024243704E071
:1016700000F0C6F930323A55641C02460A43F7D1ED
:101680002B46324621460098FFF7ACFCFEBD000019
:10169000000000002D0000002B00000020000000D2
:1016A00070B504460021243408E05507D2086D0FB8
:1016B000303565545D072A43DB08491C15461D4338
:1016C000F3D10468002310A2250708D5A40601D48D
:1016D000002904D0C46901230CA2641EC461FFF771
:1016E00081FC70BD10B5044621461068FFF771FCFF
:1016F000002302462046FFF7D3FF10BDD21DD108BC
:10170000C9000CC9CCE70000000000003000000058
:10171000F8B50F460188090502D5224C7C4402E049
:10172000204C7C440E3405460021243508E0160781
:101730001209360FA65D6E541E0732431B09491C61
:1017400016461E43F3D1224604780023240705D50C
:10175000702F06D0002901D002231132FFF742FC7E
:10176000F8BD01231032F9E770B504460D46214655
:101770001068FFF72EFC0023024629462046FFF79B
:10178000C7FF70BDD21DD308DB000CCBC0E730B45F
:10179000036820241268234303600823C36130BC1C
:1017A0000023B5E780BB00000FB4002300B589B06B
:1017B0000CA900910B99CB60224B7B44224A7A44BE
:1017C0000792042206930192204A0292204A7A4408
:1017D0006B460892024600200BF090FC09B008BC52
:1017E00004B0184770B5064615460C46324686B01A
:1017F0000020C04301900020049004A800910291B1
:101800006946FFF7D1FF024604982118002D05D044
:10181000002801D0084600E02046286004980028EF
:101820000DD0002A02DD0098884208D03246081BFD
:101830006946019004A800940294FFF7B5FF06B032
:1018400070BD00005D06000079060000FFFFFF7F0D
:10185000A9020000F7B50F460026009C2578641CFD
:10186000002D05D000F0C0F80068405DC007F5D13C
:101870002B2D02D02D2D18D0641E3946029A2046F9
:1018800000F0EDFA002F04D03968A14201D100998F
:1018900039607105022400290BDA4042002803DD7B
:1018A000FFF758FB0460A007FEBD0120800206433D
:1018B000E3E70028F8DAFFF74DFB04600048FEBDBF
:1018C000FFFFFF7F01468008081A02091018020A6C
:1018D0001018020C1018C008820012185200891A41
:1018E00001E0401C0A390A29FBD27047F8B5224CA6
:1018F0004E00069DA6420AD8A64201D1002806D174
:101900005E00A64203D8A6420AD1002A08D00D24C0
:10191000240425422CD02946002000F043FEF8BDC7
:101920000C461C430CD4994202D0EFF30080F8BD62
:10193000904202D0EFF30080F8BDEFF30080F8BDD5
:1019400009242407E5008B4206D0EFF30080A04372
:10195000591A06D2284304E0101A05D3EFF3008089
:10196000A04380F30088F8BDEFF30080A043F1E7C7
:10197000009500F02FFEF8BD0000E0FF10B5FF233A
:101980001B0644009C421DD84C009C421AD80346BA
:10199000124A0B4307D4401A02D3EFF3008010BD64
:1019A000EFF3008010BD081A06D2EFF3008001218A
:1019B0009043C907084302E0EFF30080904380F3AF
:1019C000008810BD0D231B041A4204D011460020CC
:1019D00000F0E8FD10BD00F007FE10BD0000009013
:1019E00000487047800C002010B500F005F8001D7D
:1019F00010BD00BFCDB2000000487047A00C002011
:101A00000B4670B5024689078008084319469D08B1
:101A1000141AA94125090807054308092C1948414A
:101A2000250A01060D43010A2C194141200C0D0421
:101A300028430D0C00194D41002140194D41C008AB
:101A400069070843E908840F8D00254384002418A2
:101A50004D4124196D41121BAB4107E00925ED43AF
:101A60002C11521963410024401C61411C460A2577
:101A70000026551BB441F1D270BD10B50446FFF7E6
:101A8000B3FF0068005DC007C00F10BDD21DF0B5E8
:101A900004460D46D0088DB0C00046680768314640
:101AA000384602F0CFFB0246F00F01D02D2307E0AD
:101AB0002068810701D52B2302E04007C00F4301B6
:101AC0006846002B037001D0012000E00020032AAB
:101AD0000A9001D0072A04DB2946204600F042F98B
:101AE0002DE12078800601D40D2500E0E569700025
:101AF000400D0D2D01904BDA300D00210B90084662
:101B00000020C046032189050840002E05DA820026
:101B10008018C20F1018401008408015012801DD00
:101B20000020C043A9000023182906D39C460A467A
:101B30000123183A1B07D34003E001221205CA40D3
:101B400094460C31202902D33A46203900E032462F
:101B50008A40002802DD002A06D119E0002817D1AA
:101B60000121C9078A4213D3194663467F185E4193
:101B7000002806D10120C007824202D108468743CF
:101B80009E430B98310D814202D00198401C019078
:101B90002088000502D57149794402E06F497944F3
:101BA00019396B460A9830221A540A980A7C401C4C
:101BB0001A54401C0A900198002801DC302000E0F3
:101BC00031201872019A0120002A02D0644BD218E9
:101BD00004E072003A4302D0614A521C0192002D87
:101BE00002DC2278120703D56A462E2050720220AA
:101BF0000022864694460CE032033601120F6D1E19
:101C00008B5C02AA13546246521C401C9446052A5F
:101C100001DA002DF0DC002202AE08E03B0F3F01AC
:101C2000CB5C521C6D1E3354401C082A01DA002D77
:101C3000F4DC23689A0601D511E0401E704504DDEE
:101C40003218203AD27F302AF7D0002807DD321828
:101C5000203AD27F2E2A02D11A0700D4401E002D2E
:101C600003DD3E223254401C6D1E497C31540199E3
:101C7000401C002906DA2D21471C315401984042AE
:101C8000019003E02B21471C315401987D21C900AC
:101C9000884206DBFEF7ACFD3030F0557F1C019129
:101CA00001E0642808DB01986421FEF7A1FD3030D3
:101CB000F0557F1C019101E00A2806DB01980A21FA
:101CC000FEF796FD3030F0557F1C01980A21FEF793
:101CD0008FFD3031F1550A98A1697F1C7A191018CF
:101CE000081AA0612078C00602D42046FFF741F907
:101CF000216A6E460A980818206204E0626830780B
:101D0000A168761C90470A98401E0A90401CF5D1A5
:101D10002078C00602D52046FFF72BF902AE09E075
:101D20003078761C3E280DD06268A1689047206A02
:101D3000401C20627F1EF3D22046FFF730F90DB021
:101D40000320F0BD206A4019206203E06268A168A8
:101D5000302090476D1EEDD3F8E700003FB700003C
:101D600001FCFFFFF8B51F46044601230068DB02B3
:101D7000032601461840072A05DB002801D017A5D5
:101D800006E017A504E0002801D016A500E016A57E
:101D9000102081432160A069C01E002FA06101D0E6
:101DA000401EA0612046FFF7E4F8002F09D0384616
:101DB0006268A1689047206A401C2062C01C2062B3
:101DC00006E0206AFAE762682878A1686D1C9047EF
:101DD000761EF8D22046FFF7E2F8F8BD4E414E00DD
:101DE0006E616E00494E4600696E660010B543692B
:101DF000002B02D0C046C04601E0FFF7BBFB01202C
:101E000010BD12880146243182840022C28401223E
:101E1000ECE711680022D243E8E74268002A08D0C4
:101E200001680B78491C002B03D0521E06C01846CF
:101E300070470121C160881E70474268002A0BD09C
:101E4000C3680168002B07D183688B4204D0491E08
:101E5000521C06C0002070470020C0437047F7B5F1
:101E6000154682B00027029C2078641C0197302818
:101E700002D0002D15D015E020780127641C7828A9
:101E800004D0582802D0002D09D00BE0002D01D03D
:101E9000102D07D1207800271025641C02E00825AA
:101EA00000E00A250026009610E00099012769430A
:101EB000081829467143020C80B200908E1838042D
:101EC000864201D3012001902078641C294600F04D
:101ED000B2FB0028E9DA0398002805D0002F01D0D2
:101EE000641E00E0029C04600198002806D0FFF701
:101EF00031F802210160C81E05B0F0BD0099300420
:101F00000843F9E7F7B516468AB0334878446C467B
:101F100003467C33C06F5A689B680DC42E487844D2
:101F2000763003AC0DC80DC43720C0010818372126
:101F30001B30FEF75DFC05460C46803D1B3C02D580
:101F40006442012000E000200027099010E0E00733
:101F50000CD00C2020497843794432464C39411842
:101F60006846012300F054FA6B4607C364107F1CD7
:101F7000002CECD1184F7F442E3F16E0E80712D01A
:101F80002001C0190EC80691089307920068F0421C
:101F900001D1981908903246012306A903A800F040
:101FA00037FA03AB07C36D10641C002DE6D1099806
:101FB000002806D032466946012303A800F07EFAC5
:101FC00005E001233246694603A800F021FA0A9B86
:101FD00007C30DB0F0BD0000E0B3000003464000B1
:101FE0000A4610B5400D0BD00121C9070F24A402E9
:101FF00000191C0364082143540D2143D20207E059
:1020000000210120F2E7D40F490021435200401E75
:102010000029F8DADB0FDB07184310BDFFB50D46CA
:10202000144685B04868516802F0E5F800910190C7
:10203000A868A16802F0DFF802910390A8686168BF
:1020400002F0D9F8029A12188242029201D20120BB
:1020500000E00020019A0B18D2180028019202D04B
:102060008A4202D903E08A4201D2012000E0002026
:102070000099081800906868A16802F0BCF8029AFC
:1020800012188242029201D2012000E00020019A3F
:102090000B18D2180028019202D08A4202D903E01C
:1020A0008A4201D2012000E0002000990818009027
:1020B0002868216840004900400849084018FA494A
:1020C000471814E001994000C90F08430090019897
:1020D00002994000C90F08430190029803994000FB
:1020E000C90F08430290039840007F1E0390009898
:1020F0000028E7DA0898002801D0EC4E00E000261E
:10210000B74201DA012000E00020002804902AD024
:10211000F71BF806C00E15D0029B2021091A039A5E
:102120008B401A430392029A019BC2408B401A4390
:102130000292019A009BC2408B4000991A4301927F
:10214000C14000917B110DD06F460320C11A03D509
:1021500000218200B95003E08A008100BA587A5009
:10216000401EF3D5374603980299002800D001207D
:10217000014308980291002808460CD0002800D09E
:1021800001200199019A490508430121D20AC90297
:10219000D202019200E001210E9B0122D207012B05
:1021A00002D0002B03D013E0002807D120E090429A
:1021B00004D890420CD1019B0B4209D0019B5918C5
:1021C000019105D10099491C009101D17F1C009219
:1021D00000280DD0102108460020C0460498002891
:1021E00006D00F98002803D0082108460020C046DA
:1021F00028682168019B009A4840C10F0598C907CB
:1022000039430EC009B0F0BDFFB587B0099A0898F0
:10221000089953689268406889689646002203933B
:1022200017469446089A12685300099A5B08126888
:10223000520052089A1A9E4BD4180A9A002A01D0CA
:10224000352200E040220692002201231546049226
:10225000DB07059324E0002D05D175460346039E58
:102260004D1BB34109D375466646039B491B049D2C
:102270009841059B7519AC465F4163463B4308D0C6
:10228000059B049EDD0776082E435B0804960593A4
:1022900001E0521E641EC50FED0749184041521C53
:1022A000069B9A42D7DB002D04D17546039A6B1A20
:1022B000824101D203200CE0039A0B466B4042405E
:1022C000134303D0014303D0012002E0022000E0C9
:1022D0000020614601910021009702910A9900298E
:1022E00005D0614640020143704B019102E0800736
:1022F000002302909C4201DA012000E00020070048
:102300003AD01A1BD006C00E15D0029D2021019C88
:10231000091AC5408C402543029C8C4000D0012402
:102320002543019C0295009DC4408D4000992C439B
:102330000194C140009154111DD06D46022100222C
:1023400002290CD10320001B07E0002804DB8600D3
:10235000AE59002E00D00122401C0328F5DB081BDB
:1023600002D588002A5004E08000285810438A00D3
:10237000A850491EE3D51C460A98002802980CD0A4
:10238000002800D001200199019A49050843012144
:10239000D20AC902D202019200E00121109B01225F
:1023A000D207012B02D0002B03D013E0002807D165
:1023B0001FE0904204D890420CD1019B0B4209D0FF
:1023C000019B5918019105D10099491C009101D137
:1023D000641C009200280CD0102108460020C04642
:1023E000002F06D01198002803D0082108460020AD
:1023F000C04608980999019A009B006809684840FE
:10240000C10F0798C907214382600AC00BB0F0BD15
:1024100000B585B0019300920A460146002302A848
:10242000FFF7FCFD02A807C805B000BDFFB50A46CE
:102430001F4685B00799019301230091014602A828
:10244000FFF7ECFD02990398049ECA0F4900D207DA
:1024500000920F22490892028C1A0021002800DB0A
:102460000C46450013486D08844214D3079A002A8D
:1024700004DA441E0026104DF64302E004460D46E1
:102480000E46102108460020C046002F03D004212C
:1024900008460020C0462005E90A08430099084381
:1024A0006905F20A1143ADE602C0FFFF013C0000DE
:1024B000FF3F0000FF070000FFFFFF7F00B585B072
:1024C000019300920A460146002302A8FFF79CFEF2
:1024D00002A807C8A8E7FFB50A461F4685B00799B6
:1024E000019301230091014602A8FFF78DFE029996
:1024F0000398049ECA0F4900D20700920F22490890
:1025000092028C1A0021002800DB0C46450011487D
:102510006D08844214D3079A002A04DA441E002668
:102520000D4DF64302E004460D460E4610210846C6
:102530000020C046002F03D0042108460020C046DA
:102540002005E90A0843009908436905F20A114386
:1025500058E60000FF070000FFFFFF7FC0688021F2
:102560000840704770B516460C460546FFF73CFA22
:102570000368FF200230C05C012807D0FF2C0ED872
:10258000185D00280BD001202C7070BDFF3332463F
:10259000214608331868C3182846984770BD0020A4
:1025A000C04370BDC80212D54803400F002804D0B4
:1025B000C803C043012188407047EFF30080000149
:1025C000000903210907084380F3008870470020B1
:1025D0007047000010B500200249029A00F0D2FABC
:1025E00010BD00000000F87F10B5024800F0CAFAE4
:1025F00010BD00000000C07F7546FFF7F1F9AE4640
:10260000050069465346C008C000854618B020B58D
:10261000FDF73CFE60BC00274908B6460026C0C551
:10262000C0C5C0C5C0C5C0C5C0C5C0C5C0C5403D8A
:1026300049008D4670473A2800D2303820230246A0
:102640009A43412A01D310463738884201D30020EB
:10265000C0437047FFB58BB00878FF2806D0491CEF
:102660002D2805D000230020009009E000200EE076
:102670000123F8E7009A0A2462438018491C00905D
:102680000878FF28F6D1002B02D000984042009035
:10269000002503952C460D9800782D2801D02B2875
:1026A00015D10D99491C2D280D9102D000200390C1
:1026B0000DE00120FBE7401C214600270A223B4693
:1026C0000D90284600F08DFA35183C464C410D9887
:1026D0000678FF2EEFD1002108460020C04603995E
:1026E000002902D08100401840080002860F012E08
:1026F00001DD0026F6430E9900984718284620432E
:102700000BD0FF20F530C7421ADA0398C1070B98A7
:10271000002E41600ADD012009E00398C1070B98F3
:1027200041600B99002008600FB0F0BD00200B99AC
:102730000860FEF70FFC02210160182108461AE02C
:10274000FF20F530874219DD002E02DAFC4878447C
:1027500001E0FC48784406C80B9806C00B98039922
:102760004068C90708430B994860FEF7F3FB022154
:102770000160142108460020C046D5E70021084624
:102780000020C04639000A9001D5724200E032466E
:10279000002900DA794207A8FFF7B4FB07AB07CBA3
:1027A00004AB07C3E848009000200146214304D150
:1027B0002C460546E44920390091210C09040143C7
:1027C00006D1290C24040C4300992D0410390091E2
:1027D000210E0906014306D1290E24020C4300995B
:1027E0002D0208390091210F0907014306D1290F55
:1027F00024010C4300992D01091F0091A10F8907A5
:10280000014306D1A90FA4000C430099AD00891E15
:102810000091E10FC907084304D100986D19644184
:10282000401E0090002F0295019406DD3246684656
:10283000012304A9FFF7FAFD05E0012332466846AB
:1028400004A9FFF748FE044603980D46002802D06D
:102850000120C0074440002108460020C0460A99D4
:10286000BA4E48400007800F07D160004008284357
:1028700003D06000400DB04214D1FEF76BFB022183
:1028800001606000400DB0420CD1B148784406C8E8
:102890000B9806C00B98E10FC907406808430B99D5
:1028A000486041E70B9844600B9805603CE7FFB532
:1028B0001F4695B0002000250C909E685C68ED4393
:1028C0001390FFF799F8C0680168405C1490B969EB
:1028D00016986D1C88470A90396A88470028F6D1F7
:1028E0000A98401C0AD00D20C0018443002E12DD3E
:1028F0000A982B2809D02D280DD103E00020C043D1
:1029000019B0F0BD012080020443B96916986D1C0E
:102910008847761E0A90600504A901D52D2000E0A5
:102920002B206A46491C107410A8002E0D910B90A4
:102930003BDD0A98692805D0492803D06E2801D0CC
:102940004E281DD13B46039002200296179A1699F5
:10295000C043009501940AF0E1FBC11CD0D10FE007
:10296000B96916986D1C88470A900120761E4002AE
:102970000443179805601398401C002E139014DD33
:102980000A983028ECD0782801D058280DD1139817
:1029900001280AD13B460296179A1699001F009506
:1029A00001940AF0B3FBC11CAAD114990A98884279
:1029B00046D18020044308E00C981799401E0C90E3
:1029C000012040020443681C0860B9696D1C169818
:1029D000761E884730280A90EED031E0149988425C
:1029E00005D1200603D480200443761E1EE00A98F9
:1029F00001F0D1FC002826D0012008A940020443A0
:102A00000D980331761E88420BD20A980D99303802
:102A100008700D98401C0D90200607D50C98401E9C
:102A200003E0200602D40C98401C0C90A00502D5AF
:102A30001799681C0860B96916986D1C88470A9038
:102A4000002ECBDC59E0002E57DD0A98652801D016
:102A5000452852D1A00550D50320B969000284430E
:102A60006D1C1698761E8847002E0A900CDD2B28C8
:102A700004D02D2808D1FF2001300443B9691698ED
:102A80006D1C8847761E0A90E00501D52D2100E0D7
:102A90002B210B9801700B98401C0B90009025E0A7
:102AA000012012A9400204430B980131761E88428E
:102AB0000ED20A980B9930380006000E087003D128
:102AC00000990B9888420AD90B98401C0B9006E09D
:102AD000E00501D51F4801E01E4840420C90B9694D
:102AE00016986D1C88470A9017980560002E04DD23
:102AF0000A9801F050FC0028D2D1F969169888474D
:102B00000D99FF2004AA08700B99087000200E9000
:102B10000F900C9B10A90EA8FFF79CFDA00502D4F6
:102B20000120C043ECE62420044215D0E0071FD169
:102B300038680F9A0E99031D3B60006806C017E0C5
:102B40005AAC00004CAC00003E400000FF07000003
:102B500014AB0000F1D8FFFF0EA9684601F09CFB02
:102B6000E00705D13868009A011D396000680260ED
:102B70002846C5E610B50446C046C0462046FDF7C7
:102B800059FB10BD10B50C461107090F092904D0D7
:102B90000A290AD008290CD104E011460820FFF7C1
:102BA00001FD06E0510606D501E0510601D50120E0
:102BB000C007214610BDD10607D501010909CC087F
:102BC0004907000E0006044309E0410F20024907AF
:102BD000000A0143200E00061D22D1410143084690
:102BE000E7E74343514330B55C18010C130C0D4625
:102BF00092B25D4380B251432C19054655430A0CED
:102C000009044D1962415843010C00044019514117
:102C100030BD0000FFB51F4689B0139812994005DA
:102C2000C00FC00705900020079005460446461EC9
:102C3000049002903C20491C12910690B9690A98B0
:102C4000884703901498401E14901498002841DD82
:102C500003982E2816D01021FFF7EDFC002834DB56
:102C600001210491079901431AD0069900290CDB30
:102C7000069AC11700F006FA054306980C43001F98
:102C8000069006E0012002900EE0002801D001200D
:102C90000543012007900298002805D1361D03E066
:102CA0000298002800D0361F1298401C1290B96973
:102CB0000A98884703901498401E1490049800289E
:102CC000C3D00B9912980860BFE70398702808D00A
:102CD000502806D0F9690A9888470498002815D02A
:102CE00051E00020039001200290049800280AD0AF
:102CF0001298401C1290B9690A9888471499491E85
:102D00000029149106DCF9690A9888470120C0431C
:102D10000DB0F0BD2B2804D02D280DD10020C043CC
:102D200002901298401C1290B9690A988847149929
:102D3000491E00291491E6DD411CE4D00A21FFF769
:102D40007AFC0028DFDB03990A225143081803901C
:102D50001298401C1290B9690A9888470A21FFF717
:102D60006AFC14990B9A491E1491129911601499D6
:102D7000002901DD0028E6DAF9690A9888470299F6
:102D80000398484386191398242108400490284644
:102D9000204304D0A10F8907090002D006E005985E
:102DA0009BE0A90FA4000C43AD00B61EE10FC907BC
:102DB000080002D16D196441761E0498002803D0E2
:102DC0000B2002905D4803E0282002907D20C04344
:102DD0008642039007DA811B029808184128029066
:102DE00001DD41200290029A01200021521E00F0D4
:102DF00049F9024628400B462140084301D00120F2
:102E000000E0002007900020521EC04343412A40AA
:102E100023401A4301D0012000E0002007990690CA
:102E2000014352D0002108460020C0460321059AE4
:102E300089050840002A05D082008018C20F1018AA
:102E4000401008408015012802DD0020C04301E049
:102E5000012815D0401C38D00798002835D0069896
:102E600000280DD1029A0120002100F00BF9284022
:102E70002140084301D0012000E00020002824D098
:102E8000029A0120002100F0FDF8034640198C460B
:102E900061412A1A8C410FD30298402807DD04981B
:102EA000039E002801D0343E02E0173E00E0761C6D
:102EB00001240025E40708E05B1E62460024E44389
:102EC0006241DD43D44305400C4003980121081AB8
:102ED000B04206DA1A490598084301900020009094
:102EE0000EE060006205010BE80A1043059A0090AD
:102EF00068460A4313490A433146019201F041FAF8
:102F0000049800280AD01398C00714D13868019A91
:102F10000099031D3B60006806C00CE002A86946EA
:102F200001F0BAF91398C00705D13868029A011D5B
:102F30003960006802601298EAE6000002FCFFFFB8
:102F40000000F07F0000F03FFFB51D4687B01198EC
:102F5000484A109C129E40051399C00F761EC00768
:102F60000243019200220092FF22D2051043202248
:102F700091434929059003D017464E2928D04FE0A8
:102F80003DA002AA0BC801270BC2A9690898641CBE
:102F90008847761E014607D402A8C05D002803D0EA
:102FA0002022914381420AD0E96908988847032F7B
:102FB00036D0082F34D00120C0430BB0F0BD7F1CA9
:102FC000032F01D0082FE0D10999601C0860DCE7CD
:102FD000A9690898641C8847761E2DD4B8434128F7
:102FE0002AD1A9690898641C8847761E24D4B8435E
:102FF0004E2821D1A9690898641C884701990122AB
:10300000D204114301910599D20011430591099908
:10301000761E0C6001D4282806D0E96908988847F4
:103020001198C00712D023E0A9690898641C88474A
:10303000761E01D4002803DAE96908988847BAE7C0
:103040002928F1D10998641C0460E9E7119824212A
:10305000084207D02868019A0099031D2B60006878
:1030600006C005E028680599021D2A600068016015
:103070002046A2E70000F07F494E46494E49545988
:103080000000000010B5202A04DB0146203A9140E0
:10309000002010BD914020239C1A0346E3401943B1
:1030A000904010BD70B505464800440D124B0020FD
:1030B000002C0AD0634008D09A4206DA6642B24237
:1030C00003DD12054019514170BD002C08D0002BC2
:1030D00009D0C90FC907002AF6DB084A114370BDA1
:1030E000C90FC90770BD28460A03104302D000204B
:1030F000034970BD284670BDFF0700000000F07F47
:103100000000F87F70B58C180578401C6B075B0FCA
:1031100001D10378401C2A1106D10278401C03E03B
:103120000678401C0E70491C5B1EF9D12B0705D494
:103130000023521E0DD40B70491CFAE70378401C83
:10314000CB1A921C03E01D780D70491C5B1C521EAB
:10315000F9D5A142D8D3002070BD10B501F02AF9ED
:1031600010BD0000014908607047000000240140C4
:103170002349C968182291430278D20018231A40C3
:1031800011431F4AD1601146C968202291434278F9
:10319000520120231A401143194AD1601146C968CF
:1031A000042291438278920004231A401143144A66
:1031B000D1601146C96852149143C2785203DB02B0
:1031C0001A4011430E4AD1601146C9680322920287
:1031D00091434279920203239B021A401143084A09
:1031E000D1601146C968FF22C13291430279920130
:1031F000FF23C1331A401143014AD16070470000D8
:1032000000240140044A926A0243034B9A621A4620
:1032100052690A435A61704700240140002101703D
:1032200041708170C17001714171704703488068BD
:1032300040084000401C014988607047002401405C
:10324000024949680143014A516070470024014026
:1032500010B50020002100220F4B9B685B005B082B
:103260000124E4071B190C4CA36000BF0A4B9B68A8
:10327000DA0F491C0F231B03994201D0002AF5D114
:10328000054B9B68DB0F002B03D1034B40331868C1
:1032900000E0002010BD000000240140014800684B
:1032A00080B270474024014010B50146084840688C
:1032B0000840024606480068CCB220400346002A77
:1032C00003D0002B01D0012010BD0020FCE700003E
:1032D0000024014010B50120400200F063FD0120F0
:1032E000400200F03FFD10BD034880680421884380
:1032F000001D0149886070470024014030B5044634
:103300000B20000400F082F80546002D19D10E486C
:10331000006902218843801C0B490861084644610A
:103320000069402188434030074908610B200004B0
:1033300000F06CF805460448006902218843024900
:103340000861284630BD00000020024003480069A3
:103350008021884380300149086170470020024085
:1033600070B504460D460120400300F04FF80646B4
:10337000002E23D11248006940084000401C10492B
:1033800008612088A9B2884200D02580012040032E
:1033900000F03CF80646002E0AD16088290C8842CD
:1033A00001D0280C60800120400300F02FF8064671
:1033B000034800694008400001490861304670BD7B
:1033C0000020024000200A4AD16804220A40002A54
:1033D00001D002200AE010220A40002A01D0032076
:1033E00004E0CA07D20F002A00D001207047000075
:1033F0000020024002480349486003484860704783
:103400002301674500200240AB89EFCD00B503469C
:1034100000BFFFF7D7FF5B1E012801D1002BF8D1B9
:10342000002B00D1042000BD8162704770B50A46B0
:1034300000213DE001238B4014881C40002C00D16A
:1034400035E09478012C02D09478022C16D184684F
:103450004E000325B540AC43846014794D00AC4068
:1034600085682C4384604468D5788D40AC434460C3
:103470004468D5788D40ADB22C43446005684E0059
:103480000324B440A543056094784D00AC40056822
:103490002C430460C4684E000325B540AC43C460AF
:1034A00054794D00AC40C5682C43C46000BF491C32
:1034B0001029BFD370BDF0B50023002407290DDC0F
:1034C0008E001546B5402B46056A8F000F26BE407C
:1034D000B5430562056A1D4305620EE04D07EE0E19
:1034E0001546B5402C46456A4E07F70E0F26BE40DE
:1034F000B5434562456A25434562F0BD02461369FE
:103500000B40002B01D0012300E000231846704738
:103510008161704710B502F075F800F0F7F900F01E
:10352000AFF802F0D1F802F0CBF910BD70B5044647
:10353000A0020121C9064518FFF75CFF2846FFF7E6
:10354000DDFEFFF703FF70BD70B50446A002012643
:10355000F60680194518002004E02E5C1670521CF7
:10356000461CB0B29842F8DB70BDF7B584B00E4689
:103570001446049880000121C906401803900025D4
:10358000A004040C2046E117890F09188910029144
:10359000E117890F091889108900611A8FB200207C
:1035A00000901CE0002007E02D020421091A491EAA
:1035B000715C0D43411CC8B20428F5DBFFF71AFF0C
:1035C00029460398FFF7CCFE0190FFF7BFFE361D9A
:1035D0000398001D03900098401C80B2009002994F
:1035E00000988842DEDB0198002801D007B0F0BDCA
:1035F000002F1ED00025002006E02D02391A491E9A
:10360000715C0D43411CC8B2B842F6DB002003E0F8
:103610002D0200BF411CC8B20421C91B8142F7DC46
:10362000FFF7E8FE29460398FFF79AFE0190FFF79F
:103630008DFE00BFDAE7000070B50546002400BF2C
:103640000BE0A0000C490858002800D003E0A000BF
:1036500009490D5003E0601CC4B2052CF1DB00BF2A
:10366000052C06DA01210548007807F035FC012019
:1036700070BD0020FCE70000E00A002034020020BA
:1036800010B5002407E0002012490855A100124A95
:103690005050601CC4B2052CF5DB002408E000206B
:1036A00061000E4A505261000D4A5052601CC4B273
:1036B000082CF4DB02210920C00606F0D7FB01210B
:1036C0000920C00606F0D2FBFF210131054806F0B3
:1036D000CDFB10BD38020020E00A0020F40A0020D3
:1036E000040B002000040048FEB5002001900024D7
:1036F000009002210920C006FFF700FF002801D139
:103700000120044301210920C006FFF7F7FE00282D
:1037100001D102200443FF2101314548FFF7EEFEAD
:10372000002801D1042004430126002516E000F002
:1037300058FD2046304000280CD068003D49085A0A
:103740003D49884206DA68003A49085A401C690037
:10375000384A5052681CC5B27006060E082DE6DBCA
:1037600000251DE0A80035490858002800D115E0C3
:103770003348405D019032484455A8002F490B580A
:10378000304802682046019998470746002F01D12A
:103790002B49485500983843009000BF681CC5B2BB
:1037A000052DDFDB012600250CE000F01AFD204688
:1037B0003040002802D169001E4A5052681CC5B230
:1037C0007006060E082DF0DB002018E04100194AB3
:1037D000515A00290DD141001B4A515A164A9142B3
:1037E0000BDA4100184A515A491C4200164B9952B3
:1037F00003E000214200144B9952411CC8B2082832
:10380000E4DB0098002808D00E48008882B201212D
:103810000E48007807F0A5FB09E001210B4800786D
:1038200007F0B9FB01210948007806F0B9FFFEBD99
:1038300000040048F40A0020FFFF0000E00A002016
:103840003802002040020020040B00203402002037
:10385000FFB581B005461746002D48D0002F46D051
:103860000498002843D0642F3CDA01266D066D0EC3
:10387000224C2AE028463040002823D02078022815
:1038800008DA30461E49097808401E49097808437D
:103890001C490870002020700498A080A77002982E
:1038A00060700298002803D120780421084320701A
:1038B00006F070FFA060207802210843207028469F
:1038C000704005467006060E0C34002DD2D1022140
:1038D0000D48007807F05FFB02210B48007807F0E5
:1038E000FBFA08E00121284600F0C0F803E00021BF
:1038F000284600F0BBF805B0F0BD0000140B002016
:1039000044020020460200203402002010B50024AA
:1039100000BF012109030920C00606F0D3FA00BF49
:1039200000BF012109030920C006FFF7F1FD00BF18
:1039300000BF10210920C00606F0C4FA00BF00BF76
:1039400010210920C006FFF7E3FD00BF00BF0121E1
:10395000C9030920C00606F0B5FA00BF00BF012167
:10396000C9030920C006FFF7D3FD00BF00BF202117
:103970000920C00606F0A6FA00BF00BF20210920DA
:10398000C006FFF7C5FD00BF0021204600F06EF81D
:1039900000210148017010BD740B002070B5044671
:1039A0000D46E007C00F002810D0012D06D100BF42
:1039B00009030920C006FFF7ABFD07E000BF0121A6
:1039C00009030920C006FFF72FFD00BF0220204099
:1039D00000280FD0012D06D100BF10210920C006FC
:1039E000FFF796FD06E000BF10210920C006FFF793
:1039F0001BFD00BF04202040002810D0012D06D15F
:103A000000BFE9030920C006FFF782FD07E000BF01
:103A10000121C9030920C006FFF706FD00BF0820E9
:103A2000204000280FD0012D06D100BF2021092001
:103A3000C006FFF76DFD06E000BF20210920C0068B
:103A4000FFF7F2FC00BF002D05D0074800782043A7
:103A50000549087007E02046FF21484002490978DF
:103A600008400149087070BD44020020F8B50546C1
:103A70000E46330000F0D7FB09171606360E363611
:103A8000361836007D23DB00052201212846FFF78A
:103A9000DFFE28E07D23DB00052232212846FFF7E8
:103AA000D7FE20E000BF00BF01276D066D0E104C51
:103AB00015E02846384000280ED0082E01D0267088
:103AC00003E0207801214840207021783846FFF734
:103AD00065FF2846784005467806070E0C34002D11
:103AE000E7D100E000BF00BF02480078F8BD000049
:103AF000140B002044020020FEB5002701257F2082
:103B00000190494C20466030007800287ED17BE04F
:103B100001982840002874D020780221084000280D
:103B20006CD006F037FE0646A168B14259D820781D
:103B3000C007C00F002815D0A0786421081AC0B2B1
:103B40000290207840084000207000212846FFF7AE
:103B500025FF207804210840002819D16078401EF4
:103B6000607015E06078002809D1207804210840B1
:103B7000002804D1207802214840207008E0A07875
:103B8000029020780121084320702846FFF706FFA5
:103B900020780221084000280CD0A188029A5143C5
:103BA00008466421FCF71AFE80B200900098301895
:103BB000A0601AE0002000901C48007828400028EF
:103BC00001D0012000E0002001462846FFF74EFF0B
:103BD0002846FF21484015490978084013490870D4
:103BE00003E02089801B80B20090002F05D0009850
:103BF000002803D00098B84200DA009F019868407E
:103C000001906806050E0C34019800E00AE00028D7
:103C100000D07DE7002F05D03A4602210448007805
:103C200007F09FF9FEBD0000140B002046020020A3
:103C3000340200200149087070470000340200205F
:103C400070B506460C460120C0032040002814D061
:103C50001548007806F050FF054607E0284606F0B4
:103C600011FF1148007806F047FF0546002DF5D1F9
:103C700020460121C903484070BD02202040002891
:103C800005D0FFF739FF204602214840F4E7E0075E
:103C9000C00F002805D0FFF727FD2046012148402E
:103CA000EAE70020E8E70000340200207047704790
:103CB0007047000070B504460D462946204600F0C6
:103CC0000BF800BFE106C90E0120884001490860D9
:103CD00000BF70BD00E100E010B5002819DA1A4AF3
:103CE00003071B0F083B9B089B00D2588307DC0E81
:103CF000FF23A3409A438B071B0E8407E40EA340C7
:103D00001A43114B0407240F083CA408A4001A51BD
:103D100018E00E4A03231B02D21883089B00D258D6
:103D20008307DC0EFF23A3409A438B071B0E8407F7
:103D3000E40EA3401A43054B032424021B198408F4
:103D4000A4001A5110BD00001CED00E000E100E0ED
:103D500070470000024909698143014A11617047B7
:103D6000001002400249C9688143014AD16070478E
:103D700000100240024949690143014A51617047FC
:103D800000100240024909690143014A116170476C
:103D900000100240024989690143014A916170475C
:103DA000001002400249C9680143014AD1607047CE
:103DB000001002407CB509A103C90191009000F0F8
:103DC00013F80646074840684005400F69460D5CF9
:103DD0003046E840044620467CBD0000000000005C
:103DE0000102030400100240F8B524484068860729
:103DF000B60F002E06D0012E06D0022E06D0032EBE
:103E000036D133E01E4E35E01D4E33E01B4840688E
:103E10008002000F841C19484068C003850F1748B2
:103E2000C06A0007000F471C002D06D1394615480F
:103E3000FCF7D4FC6043064617E0012D06D1394655
:103E40000F48FCF7CBFC604306460EE0022D06D17E
:103E500039460B48FCF7C2FC6043064605E039468C
:103E60000948FCF7BBFC6043064603E0064E01E050
:103E7000034E00BF00BF3046F8BD000000100240F6
:103E800000127A0000093D00006CDC0210B51149F7
:103E9000096B8907890F002902D1FFF78BFF17E013
:103EA0000C49096B8907890F012902D1FFF79CFF93
:103EB0000EE00849096B8907890F022901D188039F
:103EC00006E00449096B8907890F032900D10248DC
:103ED00010BD00000010024000127A0010B5114918
:103EE000096B8903890F002902D1FFF763FF17E0EF
:103EF0000C49096B8903890F012902D1FFF774FF6F
:103F00000EE00849096B8903890F022901D1880352
:103F100006E00449096B8903890F032900D102488F
:103F200010BD00000010024000127A00704700002F
:103F300002480068401C01490860704718020020D0
:103F4000344909680122120491438918314A1160E9
:103F5000002007E02F4909688903C90F002900D014
:103F600004E0401C012109048842F3D300BF294921
:103F700009688903C90F00294AD027490968102216
:103F800091431031244A116011460968C908C900DB
:103F9000491C11601F494968F02291431D4A516034
:103FA000114649680722120291431A4A516011468C
:103FB00049680322D2039143012212048918154A49
:103FC0005160114649680F22920491430122120563
:103FD0008918104A5160114609680122120691435E
:103FE00089180C4A116000BF0A4909688901C90F84
:103FF0000029F9D00749496889088900891C054AC0
:10400000516000BF034949680907890F0229F9D1A6
:1040100070470000001002400020024010B5FFF77A
:104020008FFF10BD10B51D48006840084000401CBF
:104030001A4908600846406819490840174948600D
:104040000846006817490840144908600846006897
:1040500001218904884311490860084640683F21CE
:10406000090488430D49486008464068000900017A
:1040700048600846006BFF215431884307490863B4
:104080000846406B40084000486300208860FFF706
:10409000C5FF0120C0060449886010BD0010024021
:1040A0000CB8FF08FFFFF6FE00ED00E010B508F0C9
:1040B000EFFB10BD01627047FEB504460E46206856
:1040C000400840002060256822480540307B718907
:1040D0000843716808430543256065681E4805402C
:1040E000308905436560A5681C480540F089054393
:1040F000A5601B48844203D1FFF7C8FE074609E0CC
:104100001848844203D1FFF7E9FE074602E0FFF7B3
:1041100051FE07463268910019227A431046FCF797
:104120005DFB019064210198FCF758FB050129090A
:10413000642041430198411A009100990901084601
:1041400032306421FCF74AFB0007000F0543E560AD
:10415000FEBD0000F3E90000FFCF0000FFFC0000FF
:104160000038014000440040016849084900491CEA
:1041700001607047012901D1012200E000220123E2
:104180009B02994201D1012300E000231A4301233D
:104190009B05994201D1012300E000231A43002A24
:1041A00003D082680A43826008E0402903D1426854
:1041B0000A43426002E002680A4302607047024616
:1041C000D0690840002801D0012070470020FCE79A
:1041D0000146486AC005C00D7047CA05D20D82620B
:1041E000704710B50120C002FFF7CCFD0120C002CE
:1041F000FFF7B0FD10BDF8B5040C8BB2264682B2B5
:104200005E43104658430D0C370C360400218019CC
:10421000164679416E43370C36048019264679419B
:104220006E438919F8BD30B47446641E2578641C49
:10423000AB4204D3635D5B00E31830BC18471D46F6
:10424000F8E700004900CA020243100000D0042031
:104250004A0D01D001221043044A490D914201D177
:1042600002210843012800D105207047FF07000004
:1042700010B50721024A00200907FEF713FF10BD01
:1042800001030000034A10B500201107FEF70AFFE2
:1042900010BD000001FDFFFF10B504460868496825
:1042A00000F002F8206010BDF8B504460D466A46DD
:1042B00001F0FEF800987E30009000281CDC0022FF
:1042C00013462046294608F011FD15D0264E002140
:1042D00030460020C046074620462946FCF72EFB04
:1042E00004463740394630460020C04660002FD192
:1042F0000220FCF738FE2BE00098FF282EDB00217F
:1043000008460020C04603218905084006460022D1
:1043100013462046294608F01BFD01D8012500E080
:1043200000250220FCF71FFEFF24E405002E09D023
:10433000002D02D00120800501E00120C005B0421F
:1043400000D00A4C042108460020C046002D01D0B0
:104350002046F8BD0120C0076040F8BD2046294630
:10436000FCF7ECFAF8BD000008080000FFFF7F7FB3
:1043700080F31088704780F31088704780F31088AE
:10438000704710B504460A460068616805F0C8FD2C
:104390006160206010BD30380A2801D201207047CA
:1043A0000020704700BF7047014800787047000048
:1043B0006002002010B50820FEF776FF012818D112
:1043C0000820FEF7CFFEFEF769FF0A49086008469D
:1043D000006800F01BF8084908600968074A514363
:1043E00008460749FCF7FAF9064908600120064922
:1043F000087010BD5C02002054020020E40C000094
:10440000FF0F00005802002060020020F0B585B0C8
:104410000546124E12480068FCF798FD314601909F
:104420007F20C00508F0F2FD0090019908F05EFDC4
:1044300003902846FCF78AFD3146019008F056FDAE
:104440000290039908F0B8FC0746FCF73BFD0446D0
:1044500003480460204605B0F0BD0000CDCCCC3D43
:10446000640200200020024908700248006870477A
:10447000600200205402002030B583B00446FCF7EF
:104480006DFD0546002000900246019021466846D9
:10449000FDF7A8F92846FCF766FD0199009803B0DE
:1044A00030BD0000F0B58BB0002774E008F04CF987
:1044B0000746002F0CD14EA0FBF718FF07F054FA67
:1044C00056A1012000F0D0FB56A1002000F0CCFB4B
:1044D000022F60D15548564B009056485649026805
:1044E000564805F055FD56485649574A574B0793CD
:1044F000089209910A9056485649574A574B0393D8
:1045000004920591069056485649574A574B0092D7
:1045100001910290474848490268484800F025F94F
:1045200053A0FBF7E3FE002416E0A100434A5058D5
:10453000FCF7EEFB05460E46A1003F4A5058FCF73B
:10454000E7FB02460B460196009509910890611C15
:1045500052A0FBF7CBFE641C072CE6DB3348006857
:10456000FCF7D6FB04460D4631480068FCF7D0FB4B
:1045700002460B4601950094099108904DA0FBF767
:10458000B5FE01205049087050A100F06DFB4FA10D
:10459000002000F069FB4C480078002886D02348B2
:1045A000234B0090234824490268244805F0F0FC7E
:1045B00023482449244A254B0793089209910A90DD
:1045C00023482449244A254B0393049205910690DD
:1045D00023482449244A254B009201910290154812
:1045E00015490268154800F0C0F80BB0F0BD000096
:1045F000E6A0BCE5BC8FE99499E8AFAFEFBC81E8D9
:10460000AFB7E9878DE696B0E58F91E98081E695B1
:10461000B0E68DAEE380825C720A00002045303047
:104620000000000020455252000000006001002000
:104630005C010020940100204001002024010020A2
:10464000900100208C0100208801002084010020BE
:10465000800100207C0100207801002074010020EE
:10466000700100206C01002068010020640100201E
:10467000E6A0A1E58786E68890E58A9FEFBC81E603
:104680008EA5E694B6E588B0E79A84E6B094E58E08
:104690008BE580BCEFBC9A0A0000000025643A203C
:1046A000252E3566206B50612025302E6620416412
:1046B000630A0000E6A0A1E58786E69BB2E7BABFE1
:1046C0003D256658256600005000002020204F4BF5
:1046D0000000000030B502461346D517AD0FED18A7
:1046E000AD10AD00551BECB2002903D113029B1A8B
:1046F00098B20AE0002003E00D78491C2B1898B20C
:104700001346551EAAB2002BF6D1002C05D0042367
:104710001B1B1D02EB1A1B1898B230BDF7B582B0F7
:104720000E4614460027E01CC117890F091889039B
:104730000C0C12E0042301AA31460298FEF704FF94
:10474000301D86B2002505E001A8405DC01987B282
:10475000681CC5B2042DF7DB00BF2046611E8CB279
:104760000028E7D1384605B0F0BDFFB583B0074655
:104770000598022801DA07B0F0BD002452E0A2003B
:10478000B958621C9200B85808F040FC0290A3008F
:10479000049AD158621C9300049AD05808F036FC51
:1047A00001900021029808F04DFB00D139E00299F8
:1047B0000198FCF7D7FA0546A0003958284608F0BA
:1047C00095FBA200009004988158009808F012FC14
:1047D00006462300FFF727FD0604090E13181D22C5
:1047E000069805600C98066019E00D9805600E9813
:1047F000066014E00F980560109806600FE01198AD
:104800000560129806600AE0139805601498066027
:1048100005E0159805601698066000E000BF00BF2F
:1048200000BF641C0598401EA042A8DC00BFA2E7A0
:10483000F3B585B00F46002413E0012304AA2146F6
:1048400065480078FEF780FE6846007CFF2806D0A9
:104850006148007800F0A0FD002007B0F0BD601CAA
:1048600084B2012080028442E7DB08240120049006
:1048700090E0594800783E38400058490E5A0823C5
:1048800002AA21460598FEF75FFE68460089544952
:10489000884200D183E069464989514AD21E91423B
:1048A00001DB114607E069464989C81CC117890F19
:1048B0000918891089008DB27F20C000001BA84212
:1048C00000DA6CE07F20C000801BA84202DA0020E2
:1048D000049064E02046083084B2684600890028CD
:1048E00055D068460089B84251D068464289214671
:1048F0000598FFF713FF69468989884247D16846C2
:10490000C0893749884204D100222146059807F022
:1049100099FB0020009068464289018900232E48B7
:10492000007808F059F800282ED03046083086B2BA
:1049300033462948009502782146059808F033F956
:1049400068464289314624480078FFF7E7FE694609
:104950008989884215D16846828931461E48007887
:1049600007F05CFB69468989884202D000200490E8
:1049700015E06846028931461748007800F0F2FFDA
:1049800005E0002004900AE00020049007E0601990
:1049900084B200BF7F20C000844200DA69E700BF14
:1049A0006846007C002804D10B48007800F0F4FC35
:1049B0000EE0002F0CD100BF01210748007807F05E
:1049C0007DFB059800F0E8FC03490598087000BFDE
:1049D0006846007C41E70000140200200C02002021
:1049E000FFFF0000F3B583B004980300FFF71BFC42
:1049F000351C2024282C3034383C4044484C50543A
:104A0000585C6064686C7074787C8084888C909446
:104A1000989CA0A4A8ACB0B4B8BCC0C4C8CCD0D436
:104A2000D8DCE0E4E8ECF000032406250D26CFE016
:104A30000B2406250B26CBE00B2400250126C7E01E
:104A40000C2403250D26C3E00B2406250126BFE018
:104A5000032406250126BBE00B2404250926B7E024
:104A6000032406250C26B3E0032400250026AFE02E
:104A70000A2400250C26ABE003240A250226A7E021
:104A80000B2400250026A3E0032401250E269FE029
:104A9000032409250C269BE00B2400250D2697E016
:104AA00003240625052693E00B2400250D268FE020
:104AB00003240E2505268BE009240625092687E018
:104AC0000B240625002683E00B2400250C267FE01E
:104AD0000B2400250C267BE0072408250C2677E014
:104AE00004240925022673E0092406250C266FE01C
:104AF0000C24002503266BE0032406250D2667E021
:104B00000B240625082663E00A24062500265FE01C
:104B10000A2406250C265BE00B240625012657E017
:104B200003240625012653E0092406250D264FE01F
:104B30000324062508264BE000240025082647E02C
:104B40000A2400250C2643E00324062500263FE026
:104B50000B24002500263BE0032401250E2637E028
:104B600002240625082633E00A24062508262FE01D
:104B70000324062505262BE0012406250D2627E023
:104B800002240625002623E00924062509261FE025
:104B90000B24062500261BE00A240025082617E022
:104BA0000B2400250C2613E0072408250C260FE013
:104BB0000424092502260BE0092406250C2607E01B
:104BC0000C240025032603E000240025002600BF56
:104BD00000BF03980300FFF726FB08050B11171D04
:104BE00023292F351427132002901220019029E049
:104BF0001127102002900F20019023E00E270D2096
:104C000002900C2001901DE00B270A200290092041
:104C1000019017E00627072002900820019011E07C
:104C2000032704200290052001900BE000270120BB
:104C300002900220019005E0172718200290192009
:104C4000019000BF00BF22463946052000F09CFDC0
:104C50002A460520029900F097FD32460520019969
:104C600000F092FD05B0F0BDFEB507460E460020EF
:104C7000019004200090019DD0E12C46002F0BD123
:104C8000002D00D10724012D00D10624022D00D1D2
:104C90000524032D00D10424705D612802DB705DC2
:104CA0007A2805DD705D412870DB705D5A286DDC67
:104CB000705D41380300FFF7B6FA3AA1A6ABB0B574
:104CC000BABFC4C9CED3D8DDEFF4F9FEEAE9E8E70C
:104CD000E6E5E4E3E22222222222221E23282D32CC
:104CE000373C41464B50555A5F646A6F74797E83F6
:104CF000888D92979C22E0B21A21FFF773FE0CE197
:104D0000E0B21B21FFF76EFE07E1E0B21C21FFF7C6
:104D100069FE02E1E0B21D21FFF764FEFDE0E0B2B2
:104D20001E21FFF75FFEF8E0E0B21F21FFF75AFEF9
:104D3000F3E0E0B22021FFF755FEEEE0E0B22121E2
:104D4000FFF750FEE9E0E0B22221FFF74BFEE4E07E
:104D5000E0B22321FFF746FEDFE0E0B22421FFF7B7
:104D600041FEDAE0E0B22521FFF73CFED5E0E0B2FB
:104D70002621FFF737FED0E0E0B22721FFF732FE11
:104D8000CBE0E0B22821FFF72DFEC6E0C6E0E0B29E
:104D90002921FFF727FEC0E0E0B22A21FFF722FE1B
:104DA000BBE0E0B22B21FFF71DFEB6E0E0B22C2104
:104DB000FFF718FEB1E0E0B22D21FFF713FEACE0E3
:104DC000E0B22E21FFF70EFEA7E0E0B22F21FFF7A1
:104DD00009FEA2E0E0B23021FFF704FE9DE0E0B260
:104DE0003121FFF7FFFD98E0E0B23221FFF7FAFD35
:104DF00093E0E0B23321FFF7F5FD8EE0E0B2002151
:104E0000FFF7F0FD89E0E0B20121FFF7EBFD84E060
:104E1000E0B20221FFF7E6FD7FE0E0B20321FFF7F9
:104E2000E1FD7AE0E0B20421FFF7DCFD75E0E0B2DD
:104E30000521FFF7D7FD70E0E0B20621FFF7D2FDB4
:104E40006BE0E0B20721FFF7CDFD66E0E0B208219C
:104E5000FFF7C8FD61E0E0B20921FFF7C3FD5CE0A8
:104E6000E0B20A21FFF7BEFD57E0E0B20B21FFF7E9
:104E7000B9FD52E0E0B20C21FFF7B4FD4DE047E090
:104E800041E03BE035E02FE029E023E01DE017E0C2
:104E900011E00BE005E0FFE7E0B20D21FFF7A2FD16
:104EA0003BE0E0B20E21FFF79DFD36E0E0B20F21BE
:104EB000FFF798FD31E0E0B21021FFF793FD2CE001
:104EC000E0B21121FFF78EFD27E0E0B21221FFF7DB
:104ED00089FD22E0E0B21321FFF784FD1DE0E0B27E
:104EE0001421FFF77FFD18E0E0B21521FFF77AFDEE
:104EF00013E0E0B21621FFF775FD0EE0E0B21721D6
:104F0000FFF770FD09E0E0B21821FFF76BFD04E048
:104F1000E0B21921FFF766FD00BF7EE0705D30282A
:104F200040DB705D39283DDC705D30380300FFF7F1
:104F30007AF90A060B10151A1F24292E3338E0B20D
:104F4000002100F07CF82CE0E0B2012100F077F8BD
:104F500027E0E0B2022100F072F822E0E0B2032183
:104F600000F06DF81DE0E0B2042100F068F818E0F0
:104F7000E0B2052100F063F813E0E0B2062100F092
:104F80005EF80EE0E0B2072100F059F809E0E0B267
:104F9000082100F054F804E0E0B2092100F04FF8D5
:104FA00000BF3AE0705D2D280BD0705D7C2808D0E2
:104FB000705D2F2805D0705D2A2802D0705D5E28B4
:104FC00027D1705D2F2814D004DC2A2816D02D2874
:104FD0001ED104E05E2816D07C2819D104E0E0B28E
:104FE000012100F05FF913E0E0B2022100F05AF96C
:104FF0000EE0E0B2002100F055F909E0E0B2052131
:1050000000F050F904E0E0B2042100F04BF900BFD9
:1050100003E0E0B20A2100F012F86D1C009885420E
:1050200000DA2AE6FEBD10B500221521052000F0A9
:10503000ABFB00221621052000F0A6FB10BDF3B546
:1050400083B004980300FFF7EEF80B0B0F13171B48
:105050001F23272B2F07330000240025002627E0DD
:105060000B2400250D2623E0002400250C261FE03C
:105070000A24062505261BE0082406250D2617E030
:10508000012406250C2613E00924062509260FE035
:105090000B24062509260BE0002400250D2607E039
:1050A0000B2406250D2603E0092406250D2600BF46
:1050B00000BF03980300FFF7B6F808050B11171D92
:1050C00023292F351427132002901220019029E064
:1050D0001127102002900F20019023E00E270D20B1
:1050E00002900C2001901DE00B270A20029009205D
:1050F000019017E00627072002900820019011E098
:10510000032704200290052001900BE000270120D6
:1051100002900220019005E0172718200290192024
:10512000019000BF00BF22463946052000F02CFB4D
:105130002A460520029900F027FB324605200199F6
:1051400000F022FB05B0F0BD70B505460C46012D00
:1051500035D0022D23D0042D11D0082D3FD1002CA5
:1051600006D023480078082108432149087005E04B
:105170001F480078082188431D49087030E0002C42
:1051800006D01B480078042108431949087005E03F
:1051900017480078042188431549087020E0002C46
:1051A00006D013480078022108431149087005E031
:1051B0000F480078022188430D49087010E0002C48
:1051C00006D00B480078012108430949087005E022
:1051D00007480078400840000549087000E000BF1B
:1051E00000BF034802781521052000F0CDFA70BDFC
:1051F0004702002070B505460C46012D36D0022D21
:1052000004D0042D12D0082D40D11FE0002C06D070
:1052100023480078022108432149087005E020480E
:105220000078022188431E49087030E0002C06D027
:105230001B480078042108431949087005E0184804
:105240000078042188431649087020E0002C06D01D
:1052500013480078082108431149087005E01048F8
:105260000078082188430E49087010E0002C06D011
:105270000B480078012108430949087005E00848F7
:105280000078400840000649087000E000BF00BFF9
:10529000034802781621052000F076FA70BD000060
:1052A00048020020F3B583B004980300FEF7BBFF6B
:1052B00006040A10151A2026042700200290022056
:1052C00001901BE00027062002900020019015E0CD
:1052D000032700200290019010E000270020029098
:1052E00001900BE00027062002900C20019005E0C1
:1052F0000427092002900220019000BF00BF0398FC
:105300000300FEF790FF0805090D1115191D212551
:105310001424132512261BE0112410250F2617E054
:105320000E240D250C2613E00B240A2509260FE078
:105330000624072508260BE003240425052607E09C
:1053400000240125022603E017241825192600BF92
:1053500000BF3A462146052000F016FA29460520EE
:10536000029A00F011FA31460520019A00F00CFA79
:10537000049803280DD10398032805DA0822152183
:10538000052000F001FA04E008221621052000F0B3
:10539000FBF905B0F0BD000010B504462046FEF74D
:1053A000C5F8082120463E384000044A1152002129
:1053B00020463E384000024A115210BD0C02002027
:1053C0001002002070B504463E250CE00022214664
:1053D000284600F0F7FB061E03D00C480570304647
:1053E00070BD681CC5B23F2DF0DD0120C003204018
:1053F000002806D10121C90321430846FFF7E2FF37
:10540000EEE700200149087000BFE9E7150200201F
:1054100010B500F079F800200849087008480178B4
:1054200006480078FBF7E4F9C8B20449087005485B
:105430000978405C0449087010BD0000CF000020CE
:10544000CE000020C8000020C6000020F0B58FB0BC
:1054500007460C46342102A8FBF744F93846FBF70F
:1054600057FC234607A201910090322102A8FAF7C7
:1054700061FF02A8FFF700F80546FBF75FFA0FB0DF
:10548000F0BD000025302E2A6600000070B50446ED
:105490000D46E1B20548FEF7A0FE00BF802103489B
:1054A000FEF78DFE0028F9D0204670BD003801407F
:1054B00070B51446002222604B000F4A5B089342ED
:1054C00019DA02461A4316D001221205934201DB73
:1054D000226807E03622FDF7E5FD4B005B08352228
:1054E000D2432260054D1B0D5B19D2182260044A7D
:1054F0001140044A891870BD0000F07F02FCFFFFD4
:10550000FFFF0F800000E03F1CB5324909780029F9
:1055100001D1314A11702F490978022901D12E4A4F
:1055200011702C490978012901D12B4A11702B499E
:105530000978012902D10021294A117027490978E7
:10554000032902D10221264A11702449097802292F
:1055500002D10121224A117020490978002902D183
:1055600003211F4A117000211E4A11701E4A11703A
:1055700000201EA206CA0192009100BF1FE016493A
:105580000978182251431B4A8A18154909780623BD
:1055900059435118095C002910D06946095C164A24
:1055A00012781143144A117069460A5C0E490B784F
:1055B0000978491C0C4C21701049CA54401C06281B
:1055C000DDDB08490978002903D10C490978054A2F
:1055D00011701CBD0C0000207C0000200D0000207C
:1055E0007D000020C6000020CE000020010204083B
:1055F000102000007E000020C7000020C80000200E
:1056000000BFFEE71FB501204004FEF7B3FB0120F9
:105610004002FEF7BFFB0120FEF7BCFB40216846BD
:105620000181032181720021417302A90920C00672
:10563000FDF7FCFEFDF74EFE6846FDF7EFFD00218D
:1056400068460170417081700121C17000210171B3
:105650004171FDF78DFD07214020FDF7D3FD0221AB
:105660000C20FEF727FB0820FDF7EAFDFDF7F0FD13
:10567000FDF7DCFDFDF738FE1FBD10B5002406E088
:1056800000222146052000F07FF8601C84B2312CF6
:10569000F6DB10BD10B52921042000F02FF80321FE
:1056A000042000F02BF80121042000F027F8FFF778
:1056B000E4FF10BD002101E000BF491C0A22424363
:1056C0008A42F9D8704700001CB501208004FEF71B
:1056D00051FBE02168460180012181700021C170E9
:1056E000032101710021417169460348FDF79EFEC7
:1056F000FFF7D0FF1CBD00000004004870B5054650
:105700000E460021084600F0A9F80120FFF7D2FF5D
:10571000002415E00021012000F0A0F80420204121
:1057200028400146022000F099F80120FFF7C2FF4F
:105730000121084600F092F80120FFF7BBFF641C2E
:10574000032CE7DB002415E00021012000F086F89F
:105750008020204130400146022000F07FF80120E7
:10576000FFF7A8FF0121084600F078F80120FFF7B5
:10577000A1FF641C092CE7DB0121002000F06EF87A
:105780000120FFF797FF70BDF8B505460E46174696
:105790000021084600F062F80120FFF78BFF00248B
:1057A00018E00420204128400146022000F056F86D
:1057B0000520FFF77FFF0021012000F04FF80520B2
:1057C000FFF778FF0121084600F048F80120FFF7B5
:1057D00071FF641C032CE4DB002418E0202020412E
:1057E00030400146022000F039F80520FFF762FF43
:1057F0000021012000F032F80520FFF75BFF0121B6
:10580000084600F02BF80120FFF754FF641C062C1B
:10581000E4DB002418E00120A0403840C1B202209F
:1058200000F01CF80520FFF745FF0021012000F0E3
:1058300015F80520FFF73EFF0121084600F00EF89D
:105840000120FFF737FF641C042CE4DB012100205A
:1058500000F004F80120FFF72DFFF8BD70B50546F4
:105860000C46002D04D0012D0ED0022D24D117E0BE
:10587000002C04D080211148FDF74AFE03E080216E
:105880000E48FDF7D1FD17E0002C04D040210B4855
:10589000FDF73EFE03E040210848FDF7C5FD0BE0A3
:1058A000002C04D020210548FDF732FE03E0202122
:1058B0000248FDF7B9FD00BF00BF70BD00040048FD
:1058C00000B587B001204004FEF754FA01208003A0
:1058D000FEF760FA01220921C806FDF7ECFD01225E
:1058E0000A210920C006FDF7E6FD02216846817500
:1058F00009028182032101760021C17501214176CF
:1059000005A90920C006FDF791FD0121890268461D
:10591000818205A90920C006FDF788FDE12040022B
:1059200001900C216846017400214182C18181816E
:105930000020029001A90A48FEF7BEFB202108487A
:10594000FEF718FC10210648FEF714FC00211B206E
:10595000FEF7B0F90248FEF707FC07B000BD0000F3
:105960000038014070470000FFB585B00546164677
:1059700045498E4202DB4449083106E0F01CC1175C
:10598000890F091889108900083189B20491002013
:10599000039002273D480078401CC4B200BF402C51
:1059A00000DB3E2439480078844212D021463E393B
:1059B000C8B24100364A515A01229202511A42009D
:1059C000344B9A5A89186A46128A914200DB06E0E3
:1059D00000BF601CC4B2781EC0B2071EDFD100BF7A
:1059E000002F4DD020463E3840002949085A012159
:1059F0008902081A6946098A884237DA082301AA07
:105A000000212046FDF7A0FD684600891E490B31A4
:105A1000884206D10020049004AA0421204607F001
:105A20009DF820460699FEF703FF00281DD000953B
:105A3000324616480078089B069906F0CDFF0028EC
:105A400002D0124800780390002D02D1089804700B
:105A50000BE000BF01210D48007806F02FFB204627
:105A6000FFF79AFC0948047000BF09E00095324630
:105A70002046089B069906F0AFFF002800D003944B
:105A8000039809B0F0BD0000F4FF000014020020EC
:105A90000C02002010020020FEB50026002000901D
:105AA000454908703E241EE0082301AA0021204633
:105AB000FDF74AFD68468088404988420BD13E4840
:105AC0000078002802D13C4804700AE001212046F9
:105AD00006F0F4FA05E0684600893849884200D0AB
