:020000040800F2
:1000000000200020890300084D0300085503000864
:1000100000000000000000000000000000000000E0
:100020000000000000000000000000005D03000868
:1000300000000000000000006703000871030008D2
:10004000D9030008D9030008D9030008D903000820
:10005000D9030008D9030008D9030008D903000810
:10006000D9030008D9030008D9030008D903000800
:10007000D9030008D9030008D9030008D9030008F0
:10008000D9030008D903000800000000D9030008C4
:10009000D9030008D9030008D9030008D9030008D0
:1000A000D9030008D9030008D9030008D9030008C0
:1000B000D903000800000000D90300080000000078
:1000C00010B5064C2378002B07D1054B002B02D02E
:1000D000044800E000BF0123237010BD0C00002085
:1000E00000000000E00E0008044B10B5002B03D008
:1000F0000349044800E000BF10BDC04600000000F6
:1001000010000020E00E0008002243088B4274D348
:1001100003098B425FD3030A8B4244D3030B8B4208
:1001200028D3030C8B420DD3FF22090212BA030C11
:100130008B4202D31212090265D0030B8B4219D3F2
:1001400000E0090AC30B8B4201D3CB03C01A524112
:10015000830B8B4201D38B03C01A5241430B8B425A
:1001600001D34B03C01A5241030B8B4201D30B0343
:10017000C01A5241C30A8B4201D3CB02C01A52416A
:10018000830A8B4201D38B02C01A5241430A8B422D
:1001900001D34B02C01A5241030A8B4201D30B0216
:1001A000C01A5241CDD2C3098B4201D3CB01C01A30
:1001B000524183098B4201D38B01C01A524143093A
:1001C0008B4201D34B01C01A524103098B4201D328
:1001D0000B01C01A5241C3088B4201D3CB00C01A95
:1001E000524183088B4201D38B00C01A524143080D
:1001F0008B4201D34B00C01A5241411A00D2014632
:10020000524110467047FFE701B5002000F006F8A4
:1002100002BDC0460029F7D076E770477047C04658
:1002200080B582B000AF094B5A69084B8021890222
:100230000A435A61054B5A6980239B0213407B6035
:100240007B68C046BD4602B080BDC046001002407B
:1002500080B500AF00F0C2F800F004F8FFF7E0FF4F
:10026000C046FDE790B591B000AF10243B191800CF
:1002700030231A00002100F007FE3B001800102375
:100280001A00002100F000FE21007B1802221A60F3
:100290007B180122DA607B1810221A617B18022277
:1002A0001A627B1800225A627B18A02292039A627B
:1002B0007B180022DA627B18180000F0A7F9031EF1
:1002C00001D000F019F83B0007221A603B0002221F
:1002D0005A603B0000229A603B000022DA603B003B
:1002E0000121180000F0ACFC031E01D000F004F85E
:1002F000C046BD4611B090BD80B500AF72B6C046D5
:10030000C046FDE780B582B000AF0F4B9A690E4B37
:1003100001210A439A610C4B9B69012213407B60C7
:100320007B68094BDA69084B802149050A43DA6189
:10033000054BDA6980235B0513403B603B68C04690
:10034000BD4602B080BDC0460010024080B500AF7F
:10035000C046FDE780B500AFC046FDE780B500AF01
:10036000C046BD4680BD80B500AFC046BD4680BD1D
:1003700080B500AF00F07AF8C046BD4680BD80B5BC
:1003800000AFC046BD4680BD0D488546FFF7F7FF6C
:100390000C480D490D4A002302E0D458C4500433E0
:1003A000C4188C42F9D30A4A0A4C002301E01360B6
:1003B0000432A242FBD300F06FFDFFF749FFFEE7D6
:1003C00000200020000000200C000020300F00085A
:1003D0000C0000202C000020FEE7000080B500AFDC
:1003E000074B1A68064B10210A431A60032000F0DD
:1003F00009F8FFF787FF00231800BD4680BDC046FF
:100400000020024090B583B000AF7860144B1C68A8
:10041000144B1B781900FA239800FFF775FE0300B0
:1004200019002000FFF770FE0300180000F0E1F84B
:10043000031E01D001230FE07B68032B0BD87968E2
:1004400001235B420022180000F0BEF8064B7A68D8
:100450001A60002300E001231800BD4603B090BDE0
:1004600000000020080000200400002080B500AF3C
:10047000054B1B781A00054B1B68D218034B1A60FA
:10048000C046BD4680BDC0460800002028000020B0
:1004900080B500AF024B1B681800BD4680BDC0464A
:1004A0002800002090B583B000AF02003960FB1D2A
:1004B0001A70FB1D1B787F2B28D82F4AFB1D1B7839
:1004C0005BB29B08C0339B009B58FA1D1278110049
:1004D00003220A40D200FF2191400A00D2431A4071
:1004E00011003B689B01FF221A40FB1D1B7818007E
:1004F00003230340DB009A401F48FB1D1B785BB2BF
:100500009B080A43C0339B001A5031E01B4AFB1D75
:100510001B7819000F230B40083B9B0806339B00F8
:10052000D31804331B68FA1D1278110003220A4005
:10053000D200FF2191400A00D2431A4011003B68CB
:100540009B01FF221A40FB1D1B7818000323034068
:10055000DB009A400948FB1D1B781C000F23234039
:10056000083B9B080A4306339B00C31804331A60F8
:10057000C046BD4603B090BD00E100E000ED00E0E4
:1005800080B582B000AF78607B685A1E80235B0420
:100590009A4201D3012310E00A4B7A68013A5A606B
:1005A00001235B4203211800FFF77CFF054B00226B
:1005B0009A60044B07221A6000231800BD4602B05F
:1005C00080BDC04610E000E080B584B000AFB960E7
:1005D0007A600F217B18021C1A70BA687B181B788E
:1005E0005BB211001800FFF75DFFC046BD4604B0C6
:1005F00080BD80B582B000AF78607B681800FFF7DF
:10060000BFFF03001800BD4602B080BD80B588B0B2
:1006100000AF78607B68002B01D1012301E37B6888
:100620001B680122134000D18DE0C34B5B680C2294
:100630001340042B0ED0C04B5B680C221340082BD8
:1006400016D1BD4B5A6880235B021A4080235B029F
:100650009A420DD1B84B1A6880239B02134000D1F7
:1006600070E07B685B68002B00D06BE00123D8E270
:100670007B685B68012B07D1AF4B1A68AE4B8021BA
:1006800049020A431A602FE07B685B68002B0CD19B
:10069000A94B1A68A84BA9490A401A60A64B1A68C8
:1006A000A54BA7490A401A601EE07B685B68052BD2
:1006B0000ED1A14B1A68A04B8021C9020A431A60CF
:1006C0009D4B1A689C4B802149020A431A600BE03B
:1006D000994B1A68984B99490A401A60964B1A68C8
:1006E000954B97490A401A607B685B68002B14D0D1
:1006F000FFF7CEFE0300BB6108E0FFF7C9FE020072
:10070000BB69D31A642B01D903238AE28A4B1A6886
:1007100080239B021340F0D015E0FFF7B9FE0300E1
:10072000BB6108E0FFF7B4FE0200BB69D31A642B7B
:1007300001D9032375E2804B1A6880239B02134082
:10074000F0D100E0C0467B681B680222134000D154
:1007500069E0794B5B680C2213400BD0764B5B68E9
:100760000C221340082B1CD1734B5A6880235B0268
:10077000134016D1704B1B680222134005D07B68D2
:10078000DB68012B01D001234BE26B4B1B68F82285
:10079000934319007B681B69DA00674B0A431A60B0
:1007A00041E07B68DB68002B24D0634B1A68624B06
:1007B00001210A431A60FFF76BFE0300BB6108E0EA
:1007C000FFF766FE0200BB69D31A022B01D903238F
:1007D00027E2594B1B6802221340F1D0564B1B688D
:1007E000F822934319007B681B69DA00524B0A43D5
:1007F0001A6018E0504B1A684F4B01218A431A6067
:10080000FFF746FE0300BB6108E0FFF741FE020070
:10081000BB69D31A022B01D9032302E2464B1B68A2
:1008200002221340F1D17B681B680822134036D0A6
:100830007B68DB69002B19D03F4B5A6A3E4B012184
:100840000A435A62FFF724FE0300BB6108E0FFF78A
:100850001FFE0200BB69D31A022B01D90323E0E17A
:10086000354B5B6A02221340F1D018E0324B5A6AD2
:10087000314B01218A435A62FFF70AFE0300BB6134
:1008800008E0FFF705FE0200BB69D31A022B01D96D
:100890000323C6E1284B5B6A02221340F1D17B6837
:1008A0001B680422134000D1B4E01F203B18002233
:1008B0001A70214BDA6980235B05134010D11E4B5F
:1008C000DA691D4B802149050A43DA611A4BDA695E
:1008D00080235B051340FB60FB683B1801221A7004
:1008E000184B1A6880235B0013401AD1154B1A6805
:1008F000144B802149000A431A60FFF7C9FD030029
:10090000BB6108E0FFF7C4FD0200BB69D31A642B8A
:1009100001D9032385E10B4B1A6880235B00134048
:10092000F0D07B689B68012B0ED1034B1A6A024BF7
:1009300001210A431A6235E000100240FFFFFEFF6A
:10094000FFFFFBFF007000407B689B68002B0CD111
:10095000B64B1A6AB54B01218A431A62B34B1A6A25
:10096000B24B04218A431A621CE07B689B68052B0A
:100970000CD1AE4B1A6AAD4B04210A431A62AB4B41
:100980001A6AAA4B01210A431A620BE0A74B1A6AA2
:10099000A64B01218A431A62A44B1A6AA34B042175
:1009A0008A431A627B689B68002B14D0FFF770FDA6
:1009B0000300BB6109E0FFF76BFD0200BB69D31ABE
:1009C0009B4A934201D903232BE1984B1B6A0222D5
:1009D0001340F0D013E0FFF75BFD0300BB6109E0BB
:1009E000FFF756FD0200BB69D31A914A934201D921
:1009F000032316E18D4B1B6A02221340F0D11F2303
:100A0000FB181B78012B05D1884BDA69874B894984
:100A10000A40DA617B681B681022134063D07B6850
:100A20005B69012B2AD1814B5A6B804B04210A430D
:100A30005A637E4B5A6B7D4B01210A435A63FFF781
:100A400027FD0300BB6108E0FFF722FD0200BB6940
:100A5000D31A022B01D90323E3E0744B5B6B022210
:100A60001340F1D0714B5B6BF822934319007B6804
:100A70009B69DA006D4B0A435A6334E07B685B691B
:100A8000053311D1694B5A6B684B04218A435A6371
:100A9000664B5B6BF822934319007B689B69DA0015
:100AA000624B0A435A631EE0604B5A6B5F4B042152
:100AB0000A435A635D4B5A6B5C4B01218A435A636C
:100AC000FFF7E6FC0300BB6108E0FFF7E1FC020072
:100AD000BB69D31A022B01D90323A2E0534B5B6BF2
:100AE00002221340F1D17B681B6A002B00D197E0F2
:100AF0004E4B5B680C221340082B00D16BE07B68E7
:100B00001B6A022B4CD1494B1A68484B4A490A4090
:100B10001A60FFF7BDFC0300BB6108E0FFF7B8FCFB
:100B20000200BB69D31A022B01D9032379E03F4BA2
:100B30001A6880239B041340F0D13C4BDB6A0F22E0
:100B4000934319007B68DA6A384B0A43DA62374B01
:100B50005B683A4A134019007B689A6A7B685B6A53
:100B60001A43324B0A435A60304B1A682F4B80218C
:100B700049040A431A60FFF78BFC0300BB6108E0DD
:100B8000FFF786FC0200BB69D31A022B01D90323AD
:100B900047E0264B1A6880239B041340F0D03FE0C7
:100BA000224B1A68214B24490A401A60FFF770FC57
:100BB0000300BB6108E0FFF76BFC0200BB69D31ABE
:100BC000022B01D903232CE0184B1A6880239B04C5
:100BD0001340F0D124E07B681B6A012B01D1012373
:100BE0001FE0124B5B687B61104BDB6A3B617A69EB
:100BF00080235B021A407B685B6A9A420ED13B6994
:100C00000F221A407B68DB6A9A4207D17A69F02387
:100C10009B031A407B689B6A9A4201D0012300E043
:100C200000231800BD4608B080BDC0460010024039
:100C300088130000FFFFFFEFFFFFFFFEFFFFC2FF73
:100C400080B584B000AF786039607B68002B01D13B
:100C50000123B3E05B4B1B68012213403A689A42C0
:100C600011D9584B1B68012293431900554B3A6820
:100C70000A431A60534B1B68012213403A689A4298
:100C800001D001239AE07B681B680222134015D033
:100C90007B681B680422134006D04B4B5A684A4BB2
:100CA000E021C9000A435A60474B5B68F022934336
:100CB00019007B689A68444B0A435A607B681B683A
:100CC0000122134040D07B685B68012B07D13E4B6B
:100CD0001A6880239B02134014D101236EE07B68C5
:100CE0005B68022B07D1384B1A6880239B041340A2
:100CF00008D1012362E0344B1B680222134001D16A
:100D000001235BE0304B5B680322934319007B684F
:100D10005A682D4B0A435A60FFF7BAFB0300FB6089
:100D200009E0FFF7B5FB0200FB68D31A274A93429C
:100D300001D9032342E0244B5B680C221A407B68F4
:100D40005B689B009A42ECD11E4B1B68012213404A
:100D50003A689A4211D21B4B1B6801229343190037
:100D6000184B3A680A431A60164B1B68012213405D
:100D70003A689A4201D0012320E07B681B68042274
:100D8000134009D0104B5B68114A134019007B686F
:100D9000DA680D4B0A435A6000F020F801000A4B54
:100DA0005B681B090F2213400A4AD35C0A00DA4031
:100DB000094B1A600320FFF725FB00231800BD46EE
:100DC00004B080BD002002400010024088130000E3
:100DD000FFF8FFFFF80E00080000002080B586B085
:100DE00000AF0023FB600023BB6000237B61002376
:100DF0007B6000233B61204B5B68FB60FB680C223F
:100E00001340042B02D0082B03D02CE01B4B3B617A
:100E10002CE0FB689B0C0F221340194AD35C7B60CB
:100E2000154BDB6A0F221340164AD35CBB60FA688D
:100E300080235B02134009D0B9681048FFF764F9BA
:100E400003001A007B6853437B6109E079680A005C
:100E50005201521A93019B1ADB005B181B027B6143
:100E60007B693B6102E0054B3B61C0463B69180072
:100E7000BD4606B080BDC0460010024000127A0098
:100E8000080F0008180F000803008218934200D1D1
:100E9000704719700133F9E770B500260C4C0D4D01
:100EA000641BA410A64209D1002600F019F80A4CD0
:100EB0000A4D641BA410A64205D170BDB300EB58C7
:100EC00098470136EEE7B300EB5898470136F2E752
:100ED000280F0008280F00082C0F0008280F000812
:100EE000F8B5C046F8BC08BC9E467047F8B5C04689
:080EF000F8BC08BC9E467047E7
:100EF80000000000000000000102030406070809C2
:100F080002030405060708090A0B0C0D0E0F101042
:100F18000102030405060708090A0B0C0D0E0F1041
:040F2800E9000008D4
:040F2C00C1000008F8
:0C0F300000127A00040000000100000024
:040000050800038963
:00000001FF
