:020000040800F2
:10000000881600207902000879530008AD510008D5
:1000100000000000000000000000000000000000E0
:100020000000000000000000000000007D5D0008EE
:100030000000000000000000DD5B0008E56700082C
:100040008B0200088B0200088B0200088B0200085C
:100050008B020008214700088B0200084D4700086A
:100060008B0200088B0200088B0200088B0200083C
:10007000E33200088B0200088B020008DD6A0008EA
:100080008B0200088B02000800000000E5680008F1
:100090008B0200088B0200088B0200088B0200080C
:1000A0008B0200088B0200088B020008AF6B00086F
:1000B0008B020008000000008B02000800F002F82C
:1000C00000F0AFF80CA030C8083824182D18A2464C
:1000D000671EAB4654465D46AC4201D100F0A1F824
:1000E0007E460F3E0FCCB6460126334200D0FB1AA7
:1000F000A246AB4633431847548A0000748A000076
:100100000023002400250026103A01D378C1FBD833
:10011000520700D330C100D50B60704710B56E296F
:1001200002D101F0C5F810BD702902D101F03BFCED
:1001300010BD662902D108F001FC10BD652902D16D
:1001400008F0FCFB10BD672902D108F0F7FB10BDD9
:10015000612902D108F0FAFB10BD03681B0A01D324
:1001600080231943692902D100F016F910BD6429D2
:1001700002D100F011F910BD752902D100F00CF97F
:1001800010BD6F2902D101F0B9FB10BD782902D151
:1001900001F0F6FB10BDE92902D101F055FB10BDBD
:1001A000E42902D101F050FB10BDF52902D101F084
:1001B0004BFB10BDEF2902D101F0ACFB10BDF829BB
:1001C00002D101F0EBFB10BD0368DB0901D38023F2
:1001D0001943632902D101F0B9FA10BD732902D184
:1001E00001F0BCFA10BDE32902D101F0CEFE10BD32
:1001F000F32902D101F0D1FE10BD002010BD1FB5C2
:1002000001F0BEFC04000020002108F089F9401C28
:1002100060600020002108F06DF9E0601FBD10B59E
:1002200010BD02F03FFA1146FFF7E9FF07F0FCFAB4
:1002300002F0CEFC03B4FFF7F2FF03BC06F06BFF45
:1002400070B505460C46164602E00FCC0FC5103EB1
:10025000102EFAD2082E02D303CC03C5083E042E7A
:1002600007D301CC01C5361F03E021782970641C37
:100270006D1C761EF9D270BD0748804707480047BD
:10028000FEE7FEE7FEE7FEE7FEE7FEE70448054976
:10029000054A064B7047000079680008BD00000859
:1002A0008804002088160020880600208806002088
:1002B000704700007CB51D4616460C00009001D02A
:1002C0000019401E084B7B442A466946019030467F
:1002D00001F011FA002C054603D06946002001F018
:1002E0001DFA28467CBD00005D1400000FB40549CE
:1002F00010B503AA029801F035FA10BC08BC04B08E
:1003000018470000600100200FB47CB50C0009AA5A
:10031000009001D00019401E094B7B4469460190B2
:10032000089801F0E8F9002C054603D06946002042
:1003300001F0F4F928467CBC08BC04B01847000062
:100340000914000070B50C460546012A05D028782E
:10035000800600D5EA69002302E0012305E05B1C6A
:10036000934202D2E05C0028F9D1A869E618C01ACD
:10037000A861286AC0182862284600F008FF04E037
:100380006A682078A968641C9047B442F8D328466C
:1003900000F013FF70BD0000F7B500257529106847
:1003A000009914A611D000F019FF002802DA40428B
:1003B00011A608E0009909688A0701D50FA602E096
:1003C000490704D50EA6012501E000F010FF009FAB
:1003D0000024243704E001F081FB30313955641CDE
:1003E0000028F8D12B4632462146009800F008FF3D
:1003F000FEBD0000000000002D0000002B000000EA
:1004000020000000F3B50446002081B020622046A1
:10041000E1688847002872D0252802D06268A16868
:10042000ABE0594F00267F442046E16888472028EA
:10043000054608DB312D06D27819203800780028CF
:1004400001D00643F0E7B00701D504208643002021
:10045000E0610746A0612A2D0AD0284606F054FE26
:10046000002827D0B8000019303D0090856119E0C0
:100470000298BA00121902C8916102902046E16800
:100480008847012F054617D1E06900281FDA202090
:1004900086431CE000980A2180694843009940196E
:1004A000303888612046E1688847054606F02CFE12
:1004B0000028EFD1012F0AD02E2D08D12046E16867
:1004C00088470546202006437F1C022FC3DBA06916
:1004D000002803DA4042A06101200643F00701D062
:1004E000102086436C2D0BD0682D09D04C2D3CD0AC
:1004F0006A2D38D0742D38D07A2D36D016E040E0F1
:10050000E1682F4620468847B842054609D16C2F3E
:1005100029D001208002E16806432046884705462D
:1005200004E06C2F1DD0FF2001300643002D28D0A1
:1005300028464138192803D80120C0020643203537
:10054000204626602946029A1646FFF7E7FD002856
:1005500010D001280BD0F61DF008C0000830029022
:1005600055E74020E1E78020D5E70020D3E7361D9E
:1005700002964CE762682846A1689047206A401CB2
:1005800044E7206AFEBD00006285000070B50646A3
:1005900000F0EEFD0468054630460A22002101F015
:1005A00065FA2C6070BD30B505460B462A461C78AE
:1005B0001078521C5B1C002801D0A042F7D0002C00
:1005C00003D0002802D06D1CEFE7284630BD0000A4
:1005D00030B5441C03E00178401C00290DD0810790
:1005E000F9D10B4BDD0104C8D11A91432940FAD04F
:1005F000001B0A0603D0C01E30BD001B30BD0A041C
:1006000001D0801E30BD0902FCD0401E30BD00006C
:100610000101010101E004C0091F0429FBD28B077D
:1006200001D50280801CC90700D0027070470029E4
:100630000BD0C30702D00270401C491E022904D30C
:10064000830702D50280801C891EE3E70022EEE7C3
:100650000022DFE7F8B507460B46394619438907FC
:1006600013D1164CE601042A0FD302CB0D1B8D4388
:10067000354202D102C0121FF5E7CBB20370401C15
:10068000521E002B13D0090AF7E7002A14D019785C
:10069000521E5B1C0170401C002908D0002A0BD0A0
:1006A0001978521E5B1C0170401C0029EDD1002AF4
:1006B00002D01146FFF7CAFF3846F8BD010101011B
:1006C000002203098B422CD3030A8B4211D300234F
:1006D0009C464EE003460B433CD4002243088B4229
:1006E00031D303098B421CD3030A8B4201D39446B6
:1006F0003FE0C3098B4201D3CB01C01A52418309A9
:100700008B4201D38B01C01A524143098B4201D362
:100710004B01C01A524103098B4201D30B01C01A8D
:100720005241C3088B4201D3CB00C01A5241830807
:100730008B4201D38B00C01A524143088B4201D334
:100740004B00C01A5241411A00D201465241104694
:1007500070475DE0CA0F00D04942031000D3404209
:10076000534000229C4603098B422DD3030A8B423F
:1007700012D3FC22890112BA030A8B420CD38901DD
:1007800092118B4208D3890192118B4204D38901C3
:100790003AD0921100E08909C3098B4201D3CB0101
:1007A000C01A524183098B4201D38B01C01A5241B6
:1007B00043098B4201D34B01C01A524103098B42BA
:1007C00001D30B01C01A5241C3088B4201D3CB00A5
:1007D000C01A524183088B4201D38B00C01A524188
:1007E000D9D243088B4201D34B00C01A5241411A5F
:1007F00000D20146634652415B10104601D340428D
:10080000002B00D54942704763465B1000D340423D
:1008100001B50020C046C04602BD70477047704712
:100820000246C80FC00781434B0030B54B405B0008
:100830009B0D20D01923DB06C91801231B05994203
:1008400020DB0324A40704251346AB400BD3002B65
:1008500004D1EB0613409B00E34204D40124640757
:10086000002312195941FF231B0599420BD2C900DD
:100870000143500F09E0CB0204D5014308030243B2
:1008800005D0054830BDFF21C905084330BD0846E5
:1008900007210905884330BD0000C07FF0B5F94D40
:1008A0000C091E092C402E402F468BB0A7437DD04B
:1008B000B543FCD0002E7AD0002CFCD00D465D4014
:1008C000ED0F2543AC1BFF25AD0464190894C50248
:1008D000440DC9022143500DDC0204430120C0072E
:1008E00001430443D2020191200C110C00958C4667
:1008F000010423468B430A9161460904E24D8A4371
:100900000991010A7D4449198039097805464D430A
:1009100001266D18F605751B6943C90C640B891C0B
:100920004C436418B5012C1B250C2E04B4434C43D6
:100930004D43210C691889090591009DE90701D0F3
:100940000121C90704912C4601996708CD072F435F
:100950004C08059DE10B4D432D0C29466646754319
:1009600002950D4645432E46029D7D1BB4410095E0
:100970000D465D4301942C0C2F040D465543AE46A5
:100980002D0C3D43029503947546049C2D04641B75
:10099000049406D2029C039D641C002675410395B5
:1009A000029401AC70CC009F7D1B01E03EE162E14E
:1009B000B44109040095079101940599A408614385
:1009C000090C0C464443650BE7040C466646744329
:1009D000A646640B3C43039502947446049DE404CC
:1009E0002C1B049406D2029C039D641C00267541B6
:1009F0000395029401AC70CC009F7D1BB44101941F
:100A00000C465C430095650FE7000C465443A64630
:100A1000640F3C43039502947446049DE4002C1B30
:100A2000049406D2029C039D641C00267541039524
:100A3000029401AC70CC009F7D1BB441AE09AF069F
:100A4000049DC900AD092F43049DA406AD0604957D
:100A5000079D344369180791059DE10B4D432D0C0B
:100A600029466646754302950D4645432E46029D2E
:100A70007D1BB44100950D465D4301942C0C2F0461
:100A80000D465543AE462D0C3D43029503947546E5
:100A9000049C2D04641B049406D2029C039D641CD8
:100AA000002675410395029401AC70CC009F7D1B1C
:100AB000B44101948C050694079C890A611800953D
:100AC0000791019C0599A4086143090C0D46454313
:100AD000680BEF040D46644665436C0B3C43049F72
:100AE000ED047D1BAC4602D20025641C6841009ECB
:100AF000019D371B85410846584301950C46460F1A
:100B0000C5005443600F28436546E4002C1B02D205
:100B10000025401C6E41019D3F1AB5412846BD0984
:100B2000800628438446A009BF064E020699A40603
:100B300076180743079D002068410A9907901943DA
:100B40000020099B00906046FF1913434041E20FCB
:100B500064003A43A4460446D71A8C41A04203D904
:100B60000120009020463A46C70F94184041624643
:100B7000D20F2243644664000494009CBE46640085
:100B8000D71AA446044602978C417746002F01D11C
:100B9000A04204D96046401C8446029A2046C40FF5
:100BA000A64694184041049A0546D20F2243644653
:100BB0006400D31A8D417146002901D1A84202D99F
:100BC00028461A46641C10430122002800D0164310
:100BD00061020020079B891904465C410223002C16
:100BE00002DB491813466441089DCE0A2D145D1995
:100BF0004B056705E10A2C050D1908993E43C90705
:100C00006940002B08D0934006D30022761C514146
:100C1000002B01D1760876001C4A002D43DB1542DB
:100C200041D0AA433FD030460BB0F0BD06180D4668
:100C30004D41174C7642AC411AD395181C465C4185
:100C4000134A6D42A24113D3012252054C00D442F3
:100C50000AD15C00D4420BD04B4002D59202114322
:100C6000E2E749004908DFE75940C90FC90718E022
:100C700000200849D8E7054801420DD10342F7D0CA
:100C8000F2E700000000FF07958000000000F07F01
:100C90000000E0FF0000F87F114859400143C012F6
:100CA00041400020C0E70123089A9B069A4205DCD8
:100CB000032252078918C90FC907B5E70522520751
:100CC0008918074A1143D2125140ADE770B5154655
:100CD0001C4602460B4628462146FFF7DFFD70BD45
:100CE000FFFFFF7FF0B58B4C0F09254689B0BD4350
:100CF0007BD01D092646AE43FAD00E465E40274003
:100D0000F60F3E43254071D024012142FBD0FF2441
:100D1000AD19A4042D1B039501252D05DB02DB0A6B
:100D2000C9022B43C90A29431E010901040F130FED
:100D3000050121431701880B820391432D098C463D
:100D4000A90B1E438A039543B30B9A0396433F09AD
:100D5000BA0B9403A74302962E467E430497B646E9
:100D60004E19D7190C460196544305977E43371BFD
:100D70007646BF1B3601B646BE0B36190096764640
:100D8000BC043719009C01D3641C00946400002F3C
:100D900001D001263443029E049F754366467E437C
:100DA0000496760034196E0034190094029C019E5A
:100DB0001C196643751BAE46069465464519059C8D
:100DC00005956C43594375460891691A0191049E33
:100DD00001465143A41B0491611A009C0791E1064E
:100DE00005D061090122114302E072E06EE0610961
:100DF000089D00272C0A2D066918049D7C412A0AAB
:100E00002D066918019D6241AC0DAD026D1854416B
:100E1000079A910D920255196141029A644658430E
:100E20005443069B059A5A43121A131B9A0E9B01B0
:100E30005B187A41010B0005C3185141220A2006B4
:100E400044195A419A4200D2491C01204002814271
:100E500003D315230226F64302E014230326F643A8
:100E60002020C51AA9401746AF40DA400A43204661
:100E70000399D8400914731819055118039A384377
:100E8000D2075140AC4009D00122944006D3002241
:100E9000401C5141002C01D1400840001E4A9342A1
:100EA00012D3012203989206904207DB05204007E7
:100EB00009181A480143C012414004E003204007CA
:100EC0000818C10FC907002009B0F0BD0020F107C4
:100ED000FAE705180C464C4111486D42A04115D364
:100EE00094181A465A410E48644290410ED301208C
:100EF0004A004005824209D35A00824206D3594033
:100F0000C90F084AC90700201143DDE70020064940
:100F1000DAE700000000FF07FE070000FFFFFF7F89
:100F20000000E0FF0000F07F0000F87F0121C9050C
:100F30000123411842001B06D3185B0E0AD0C110D2
:100F40000722D206891840075242D14201D55200E9
:100F500089187047090208D50146002A03D0C10F3D
:100F6000C9070020704710467047420202D0002097
:100F700002497047072109050143F4E70000F87FA3
:100F8000F0B5FF252D04C609C209FF2704462E40EF
:100F90000137CB093E4348402A402B400746002AF0
:100FA0006BD0002B69D0AA4267D0AB4265D0002835
:100FB00000DA32460125ED0529432C4309022002BF
:100FC000090AD21A4B0C7F24E31A434C000A7C44D2
:100FD000E35C7D242404121914145B00A2188842D7
:100FE00001D3521C00E0400049420C465C432411EE
:100FF0005C43DB016415E318040A5C43C502200D61
:101000000C4644436419250A5D432303EC0C0D464A
:10101000654300030019EB184C42A34201D35B184F
:10102000401CD4052018002B07D05B00C91804D33E
:10103000401C002901D1400840003F2189048A4218
:1010400009D3002A08DC1106090F04D0032149073F
:101050004018C00FC007F0BD0122410012068918D8
:101060007F2252069142F6D205214907C84201D596
:101070009010F0BDFF20C005F0BD002F00DA324611
:101080001648AA4207D2AB4205D21902090E17D060
:10109000F80FC007F0BDFF2563002D06AB42F9D85D
:1010A0004900A942F6D8AB4201D1A942F2D0A942E7
:1010B00001D1002101E061004908D0050843F0BDDD
:1010C0001102090EFBD0FF200243D005F0BD0A46F5
:1010D0000146104654E700004B7A00000000C07F34
:1010E0000102C21504D00123DB071943002A0ADBE1
:1010F0009E239A1A02D40846D0407047FF2241002E
:101100001206914201D900207047C017C0437047B2
:101110001F22030C02D10F2200041CD0030E01D1A8
:101120000002083A030F01D10001121F830F01D101
:101130008000921E002801DB4000521ED20551188B
:10114000021251181922904004D3491C002801D1E1
:101150004908490008467047C10FC90700D04042FE
:10116000012292071143D3E701218907D0E7704795
:10117000004870472804002010B5FFF7F9FF006809
:1011800010BD10B50446FFF7F3FF046010BD70B545
:10119000044685690068C10601D5302600E0202696
:1011A000C00707D070BD62683046A1689047206ACA
:1011B000401C20626D1EF6D570BD70B50446856971
:1011C0000078C00707D170BD6268A16820209047F1
:1011D000206A401C20626D1EF6D570BD09684A0564
:1011E00001D540B27047C905FCD500B27047096807
:1011F0004A0501D5C0B27047C905FCD580B2704719
:10120000FFB504460D4681B0243000902168880661
:1012100004D51022E0699143216000E00120A8423A
:1012200001DD471B00E000270498A1697A19101816
:10123000081AA0612078C00602D42046FFF7A7FF55
:10124000002608E003986268A168805D9047206AE4
:10125000401C761C206204988642F3DB2078C0068E
:101260000AD52046FFF793FF06E06268A1683020A8
:101270009047206A401C206238467F1E0028F4DC1C
:1012800007E000986268A168405D9047206A401CB2
:10129000206228466D1E0028F3DC2046FFF78DFFF4
:1012A0002078000602D5022005B0F0BD0120FBE742
:1012B00011680268006A530501D5087009E0D3057A
:1012C00001D5088005E0130602D5C21705C100E06C
:1012D00008600120704700007047FFB50C461E46AD
:1012E0008FB003CA089009914F007D0D00D16D1E8B
:1012F000002108460020C0460321099A89050840BC
:10130000002A03DA8200801840080840800D012876
:101310000A9002DD0020C0430A90089807430DD0D0
:10132000EF48F049281848430714189800281DD0A2
:101330007542291E1DDD0A9842421BE018980128BB
:1013400002D00020302104E00020F24305E02154C7
:10135000401CB042FBDB30460022189B0021215488
:101360000F998B600A60486013B0F0BDBD1B6D1C07
:10137000DFE70A9A002900DA69420BA800F086FE2E
:101380000BAB07CB03AB07C30899099800F0E2FE4B
:101390006B4607C30146D4480918002D00910ADDA9
:1013A000D14903980A9A4942401803A90390684614
:1013B00001F003F907E003990A9A081803A90390BA
:1013C000684601F0C2F86B4607C30004000C03D066
:1013D0000020C043410800E01046189A002A03D0BC
:1013E0000022009215461EE0751E05D400F0CCFBCD
:1013F000303262556D1EF9D501220843079602D09E
:1014000000227F1C04E02078302801D100227F1EBA
:10141000002A069789D01EE0112D07DA00F0B4FBF0
:10142000303262556D1C02460A43F5D1084303D0A1
:101430000098002819D00EE00021681E05E0235C0A
:10144000625C63542254401E491C8142F7DBA81B96
:10145000401E07950690079A18990020A0540F98EF
:10146000079B069A81600CC07EE711260020189029
:101470005BE7D21DF0B50D460446D10893B0C90014
:1014800003C90C900D9105F0BDFD02460D98C00FEB
:1014900001D02D2007E02068810701D52B2002E034
:1014A0004007C00F4001032A0F9001D0072A05DB37
:1014B00003462946204600F019FD0EE120788006FB
:1014C00001D5E76900E006272846652D04D0662887
:1014D00014D0672D69D12DE00020112F009001DB81
:1014E000112300E07B1C0CAA03A910A8FFF7F5FE4E
:1014F0001199002610987D1C0E9142E001203B4678
:101500000CAAC0070B900120009003A910A8FFF7B8
:10151000E4FE119D12981099002600280E9501D125
:10152000781C0D18781B02D446427D1C761EE81BE1
:1015300000903AE0012F00DA01270020112F0090DF
:1015400001DD112300E03B460CAA03A910A8FFF718
:10155000C4FE11993D46109800260E912178090786
:101560000BD40E99A94200DA0D4603A9012D04DD22
:101570004A19203AD27F302A06D0B84201DA011D3A
:1015800004DA012100910FE06D1EEFE7002802DC74
:1015900086192D1A03E0411CA94200DD0D46801B6F
:1015A000401C00900120C0070B902078000705D454
:1015B0000098A84202DB0020C0430090694600204A
:1015C000C8720B98012102AF0337C907884225D0A2
:1015D000022010902B2011900B9800280BDA40422B
:1015E0000B902D20119006E00B9800F077FA303127
:1015F0007F1E0B9039701099481E00291090F3DC63
:101600000B980028F0D111987F1E387020880005B3
:1016100001D5452000E065207F1E387001A8C01B61
:10162000C01D0B900F98002800D001204119009890
:10163000C01709180B980818A169081A401EA06164
:101640002078C00602D42046FFF7A1FD0F9800289D
:1016500005D06268A1689047206A401C206220780B
:10166000C00625D52046FFF792FD21E0002E07DBBE
:101670000E98B04204DD03A86268805DA16802E0B4
:101680006268A16830209047206A761C401C206266
:101690000098401E002800900AD100F071FAC0683E
:1016A00062680168405CA1689047206A401C206223
:1016B00028466D1E0028D9DC07E062683878A168EA
:1016C0007F1C9047206A401C20620B99481E00290D
:1016D0000B90F2DC2046FFF770FD032044E600008B
:1016E00001FCFFFF104D0000E1DFFFFF01694A1C14
:1016F00002610878704700B58FB002910021059112
:101700000549019379440391114604906846FEF718
:1017100079FE0FB000BD0000E5FFFFFF0A68107002
:10172000521C0A6070470CC908399A4202D2531CF5
:101730000B601070704710B54369002B02D0C04693
:10174000C04601E0FEF7FEFD012010BD1278014603
:1017500024310A7000224A700122ECE7116800224D
:10176000D243E8E7084B70B50D467B44FFF7C3FF53
:101770000446284600F052FF002802D00020C04353
:1017800070BD204670BD0000075F0000F7B504463D
:10179000154686B02B487844002703C83E46009083
:1017A000019111E007986A467100415A02A800F0C1
:1017B00039FF411C07D02178890603D5E269391821
:1017C00091420ED83F18761C2078800602D5E06939
:1017D000B84206DDAE42E5DB07987100405A0028AA
:1017E000E0D1A069C01BA0612046FFF7D0FC1548DE
:1017F00078445A3803C800900020019116E0410057
:101800006A460798415A02A800F00CFF0590401C58
:101810000AD0002505E0626802A8A168405D9047F3
:101820006D1C05988542F6D30498401CB042049084
:10183000E5DB206AC01920622046FFF7BEFC09B034
:10184000F0BD0000C6720000F7B5D21D0025D20819
:1018500015A6D200F52905CA11D0002A05DA002103
:101860004042914111A60A4608E0009909688B0799
:1018700001D50FA602E0490701D50EA601251146A4
:10188000009F0024243704E000F07EF930323A55FE
:10189000641C02460A43F7D12B4632462146009883
:1018A000FFF7AEFCFEBD0000000000002D000000B0
:1018B0002B0000002000000070B5044600212434F5
:1018C00008E05507D2086D0F303565545D072A438F
:1018D000DB08491C15461D43F3D10468002310A200
:1018E000250708D5A40601D4002904D0C469012322
:1018F0000CA2641EC461FFF783FC70BD10B50446E2
:1019000021461068FFF773FC002302462046FFF7CC
:10191000D3FF10BDD21DD108C9000CC9CCE700000F
:101920000000000030000000F8B50F4601880905EE
:1019300002D5224C7C4402E0204C7C440E34054607
:101940000021243508E016071209360FA65D6E54F3
:101950001E0732431B09491C16461E43F3D122467B
:1019600004780023240705D5702F06D0002901D064
:1019700002231132FFF744FCF8BD01231032F9E7CE
:1019800070B504460D4621461068FFF730FC002371
:10199000024629462046FFF7C7FF70BDD21DD30877
:1019A000DB000CCBC0E730B403682024126823436B
:1019B00003600823C36130BC0023B5E73071000029
:1019C0000FB4002300B589B00CA900910B99CB602E
:1019D000224B7B44224A7A440792042206930192C6
:1019E000204A0292204A7A446B460892024600201E
:1019F00006F0B4FF09B008BC04B0184770B506463D
:101A000015460C46324686B00020C04301900020A7
:101A1000049004A8009102916946FFF7D1FF0246A5
:101A200004982118002D05D0002801D0084600E0B8
:101A300020462860049800280DD0002A02DD009876
:101A4000884208D03246081B6946019004A80094D9
:101A50000294FFF7B5FF06B070BD0000CD05000091
:101A6000E9050000FFFFFF7F19020000F7B50F46F0
:101A70000026009C2578641C002D05D000F078F825
:101A80000068405DC007F5D12B2D02D02D2D18D058
:101A9000641E3946029A204600F0A5FA002F04D0B1
:101AA0003968A14201D100993960710502240029E9
:101AB0000BDA4042002803DDFFF75AFB0460A00761
:101AC000FEBD012080020643E3E70028F8DAFFF7B5
:101AD0004FFB04600048FEBDFFFFFF7F014680080A
:101AE000081A02091018020A1018020C1018C0086F
:101AF000820012185200891A01E0401C0A390A2992
:101B0000FBD2704710B5FF231B0644009C421DD832
:101B10004C009C421AD80346124A0B4307D4401A81
:101B200002D3EFF3008010BDEFF3008010BD081A60
:101B300006D2EFF3008001219043C907084302E079
:101B4000EFF30080904380F3008810BD0D231B0449
:101B50001A4204D01146002000F084FD10BD00F0B0
:101B600099FD10BD00000090004870472804002037
:101B700010B500F005F8001D10BD00BFA5690000FC
:101B800000487047480400200B4670B5024689079C
:101B90008008084319469D08141AA9412509080719
:101BA000054308092C194841250A01060D43010A7D
:101BB0002C194141200C0D0428430D0C00194D41F6
:101BC000002140194D41C00869070843E908840F06
:101BD0008D002543840024184D4124196D41121BAA
:101BE000AB4107E00925ED432C1152196341002454
:101BF000401C61411C460A250026551BB441F1D208
:101C000070BD10B50446FFF7B3FF0068005DC00764
:101C1000C00F10BDD21DF0B504460D46D0088DB0E2
:101C2000C000466807683146384605F0EBF90246C1
:101C3000F00F01D02D2307E02068810701D52B2369
:101C400002E04007C00F43016846002B037001D03B
:101C5000012000E00020032A0A9001D0072A04DBBB
:101C60002946204600F042F92DE12078800601D473
:101C70000D2500E0E5697000400D0D2D01904BDA57
:101C8000300D00210B9008460020C0460321890535
:101C90000840002E05DA82008018C20F101840108C
:101CA00008408015012801DD0020C043A900002361
:101CB000182906D39C460A460123183A1B07D3402D
:101CC00003E001221205CA4094460C31202902D3B8
:101CD0003A46203900E032468A40002802DD002AD8
:101CE00006D119E0002817D10121C9078A4213D370
:101CF000194663467F185E41002806D10120C007BF
:101D0000824202D1084687439E430B98310D81429F
:101D100002D00198401C01902088000502D571492D
:101D2000794402E06F49794419396B460A983022A8
:101D30001A540A980A7C401C1A54401C0A900198B4
:101D4000002801DC302000E031201872019A0120C7
:101D5000002A02D0644BD21804E072003A4302D049
:101D6000614A521C0192002D02DC2278120703D531
:101D70006A462E20507202200022864694460CE0CD
:101D800032033601120F6D1E8B5C02AA1354624699
:101D9000521C401C9446052A01DA002DF0DC00227A
:101DA00002AE08E03B0F3F01CB5C521C6D1E33546A
:101DB000401C082A01DA002DF4DC23689A0601D5BC
:101DC00011E0401E704504DD3218203AD27F302ADF
:101DD000F7D0002807DD3218203AD27F2E2A02D110
:101DE0001A0700D4401E002D03DD3E223254401C51
:101DF0006D1E497C31540199401C002906DA2D21C1
:101E0000471C315401984042019003E02B21471CAC
:101E1000315401987D21C900884206DBFEF75AFC47
:101E20003030F0557F1C019101E0642808DB0198F7
:101E30006421FEF74FFC3030F0557F1C019101E02A
:101E40000A2806DB01980A21FEF744FC3030F055E1
:101E50007F1C01980A21FEF73DFC3031F1550A98AC
:101E6000A1697F1C7A191018081AA0612078C00691
:101E700002D42046FFF78BF9216A6E460A980818AB
:101E8000206204E062683078A168761C90470A9866
:101E9000401E0A90401CF5D12078C00602D520468D
:101EA000FFF775F902AE09E03078761C3E280DD0B8
:101EB0006268A1689047206A401C20627F1EF3D2AE
:101EC0002046FFF77AF90DB00320F0BD206A4019D3
:101ED000206203E06268A168302090476D1EEDD358
:101EE000F8E700007F6D000001FCFFFFF8B51F461A
:101EF000044601230068DB02032601461840072A36
:101F000005DB002801D017A506E017A504E000288E
:101F100001D016A500E016A5102081432160A0691C
:101F2000C01E002FA06101D0401EA0612046FFF717
:101F30002EF9002F09D038466268A1689047206AC0
:101F4000401C2062C01C206206E0206AFAE762683A
:101F50002878A1686D1C9047761EF8D22046FFF7BE
:101F60002CF9F8BD4E414E006E616E00494E4600A0
:101F7000696E660010B54369002B02D0C046C046AA
:101F800001E0FFF703FC012010BD12880146243157
:101F900082840022C2840122ECE711680022D2432D
:101FA000E8E74268002A08D001680B78491C002B3A
:101FB00003D0521E06C0184670470121C160881E1A
:101FC00070474268002A0BD0C3680168002B07D114
:101FD00083688B4204D0491E521C06C00020704703
:101FE0000020C0437047F7B5154682B00027029C19
:101FF0002078641C0197302802D0002D15D015E000
:1020000020780127641C782804D0582802D0002D9D
:1020100009D00BE0002D01D0102D07D1207800272A
:102020001025641C02E0082500E00A250026009621
:1020300010E0009901276943081829467143020CF2
:1020400080B200908E183804864201D3012001909E
:102050002078641C294600F044FB0028E9DA039844
:10206000002805D0002F01D0641E00E0029C04600F
:102070000198002806D0FFF77BF802210160C81EF6
:1020800005B0F0BD009930040843F9E7F7B51646EE
:102090008AB02F4878446C4603467C33C06F5A6838
:1020A0009B680DC42A487844763003AC0DC80DC433
:1020B0003720C001081837211B30FEF70BFB0546FF
:1020C0000C46803D1B3C02D56442012000E000200C
:1020D000002709900FE0E0070BD00C201C49784343
:1020E000794432464C394118684600F02EFA6B4666
:1020F00007C364107F1C002CEDD1154F7F442C3F8B
:1021000015E0E80711D02001C0190EC80691089308
:1021100007920068F04201D198190890324606A94A
:1021200003A800F012FA03AB07C36D10641C002D66
:10213000E7D1324669460998002803A802D000F08A
:102140003CFA01E000F001FA0A9B07C30DB0F0BDB4
:10215000206A0000034640000A4610B5400D0BD02F
:102160000121C9070F24A40200191C03640821439C
:10217000540D2143D20207E000210120F2E7D40FE1
:10218000490021435200401E0029F8DADB0FDB072B
:10219000184310BDFFB50D46144685B04868516818
:1021A00004F00AFF00910190A868A16804F004FF00
:1021B00002910390A868616804F0FEFE029A12186A
:1021C0008242029201D2012000E00020019A0B1805
:1021D000D2180028019202D08A4202D903E08A4232
:1021E00001D2012000E000200099081800906868E2
:1021F000A16804F0E1FE029A12188242029201D212
:10220000012000E00020019A0B18D218002801924A
:1022100002D08A4202D903E08A4201D2012000E0C2
:1022200000200099081800902868216840004900A3
:10223000400849084018F549471814E00199400042
:10224000C90F08430090019802994000C90F084344
:102250000190029803994000C90F08430290039827
:1022600040007F1E039000980028E7DA08980028B5
:1022700001D0E74E00E00026B74228DAF71BF80647
:10228000C00E15D0029B2021091A039A8B401A43D5
:102290000392029A019BC2408B401A430292019A18
:1022A000009BC2408B4000991A430192C1400091AB
:1022B0007A110BD06B460320811A01D5002101E071
:1022C000890059588700401ED951F5D537460398E3
:1022D0000299002800D001200143089802910028AB
:1022E00008460CD0002800D001200199019A490528
:1022F00008430121D20AC902D202019200E0012161
:102300000E9B0122D207012B02D0002B03D013E039
:10231000002807D116E0904204D890420CD1019BCE
:102320000B4209D0019B5918019105D10099491C14
:10233000009101D17F1C0092002803D01021084693
:102340000020C04628682168019B009A4840C10FC0
:102350000598C90739430EC009B0F0BDFFB587B075
:10236000099A08980899536892684068896896465F
:102370000022039317469446089A12685300099A5C
:102380005B081268520052089A1AA24BD4180A9A93
:10239000002A01D0352200E04022069200220123CB
:1023A00015460492DB07059324E0002D05D1754600
:1023B0000346039E4D1BB34109D375466646039BF6
:1023C000491B049D9841059B7519AC465F416346C6
:1023D0003B4308D0059B049EDD0776082E435B082F
:1023E0000496059301E0521E641EC50FED074918BF
:1023F0004041521C069B9A42D7DB002D04D1754602
:10240000039A6B1A824101D203200CE0039A0B4617
:102410006B404240134303D0014303D0012002E04C
:10242000022000E000206146019100210097029106
:102430000A99002905D0614640020143744B01917D
:1024400002E08007002302909C423ADA1A1BD00671
:10245000C00E15D0029D2021019C091AC5408C4058
:102460002543029C8C4000D001242543019C029509
:102470003D46C4408D4039462C43C14001940091F3
:1024800054111DD06D460221002202290CD10320D7
:10249000001B07E0002804DB8600AE59002E00D0A8
:1024A0000122401C0328F5DB081B02D588002A50B6
:1024B00004E08000285810438A00A850491EE3D544
:1024C0001C460A98002802980CD0002800D0012051
:1024D0000199019A490508430121D20AC902D20291
:1024E000019200E00121109B0122D207012B02D0B2
:1024F000002B03D013E0002807D116E0904204D847
:1025000090420CD1019B0B4209D0019B59180191BB
:1025100005D10099491C009101D1641C009200284A
:1025200003D0102108460020C04608980999019A56
:102530000068096848400099C30F0798DB072343E8
:102540000360826041600BB0F0BD1FB500230092B4
:102550000A46014601A8FFF71DFE01AB07CB04B0F8
:1025600010BDF0B585B0012300920A46014601A8CE
:10257000FFF710FE01990F2202989202CF0F490037
:10258000039E49088C1AFF070021002800DB0C4637
:10259000450021486D08844206D30D460E46044688
:1025A000102108460020C0462005E90A08436905B5
:1025B0003843F20A05B01143F0BD1FB50023009265
:1025C0000A46014601A8FFF7C9FE01AB07CBC6E7E3
:1025D0001FB5012300920A46014601A8FFF7BEFE7F
:1025E00001AB0F2407CBA402C30F4000DB07400858
:1025F000001B002900DB0020490000054908CC0A27
:10260000204349051843D20A1143A8E702C0FFFF3F
:10261000013C0000FF3F0000FF070000C068802170
:102620000840704770B516460C460546FFF7A0FAFD
:102630000368FF200230C05C012807D0FF2C0ED8B1
:10264000185D00280BD001202C7070BDFF3332467E
:10265000214608331868C3182846984770BD0020E3
:10266000C04370BDC80212D54803400F002804D0F3
:10267000C803C043012188407047EFF30080000188
:10268000000903210907084380F3008870470020F0
:102690007047000010B5024800F0E6FA10BD0000D7
:1026A0000000C07F7546FFF75FFAAE460500694639
:1026B0005346C008C000854618B020B5FDF7E6FDBA
:1026C00060BC00274908B6460026C0C5C0C5C0C5C5
:1026D000C0C5C0C5C0C5C0C5C0C5403D49008D46C8
:1026E00070473A2800D23038202302469A43412AC4
:1026F00001D310463738884201D30020C0437047C9
:10270000FFB58BB00878FF2806D0491C2D2805D0CE
:1027100000230020009009E000200EE00123F8E7EC
:10272000009A0A2462438018491C00900878FF2808
:10273000F6D1002B02D0009840420090002503956E
:102740002C460D9800782D2801D02B2815D10D99F5
:10275000491C2D280D9102D0002003900DE001208E
:10276000FBE7401C214600270A223B460D902846E5
:1027700000F0A9FA35183C464C410D980678FF2E1A
:10278000EFD1002108460020C0460399002902D05D
:102790008100401840080002870F012F01DD00274B
:1027A000FF430E9900984618284620430BD0FF207F
:1027B000F530C64210DA0398C1070B9841600B99B7
:1027C0000020086018E00398C1070B9841600B993E
:1027D000002008600FB0F0BDFF20F530864210DD0C
:1027E000F648784406C80B9806C00B9803994068D1
:1027F000C90708430B994860FEF7BAFC0221016043
:10280000E8E7311E01DA7A4200E03A46002900DAB0
:10281000714207A8FFF73AFC07AB07CB04AB07C32D
:10282000E748009000200146214304D12C4605468C
:10283000E34920390091210C0904014306D1290CF8
:1028400024040C4300992D0410390091210E09062F
:10285000014306D1290E24020C4300992D020839A8
:102860000091210F0907014306D1290F24010C43D0
:1028700000992D01091F0091A10F8907014306D17D
:10288000A90FA4000C430099AD00891E0091E10F2F
:10289000C907084304D100986D196441401E009097
:1028A0003A466846002E04A90295019402DDFFF71E
:1028B00058FE01E0FFF78CFE044603980D46002801
:1028C00002D00120C0074440BE4E600040082843AB
:1028D00003D06000400DB04214D1FEF749FC022144
:1028E00001606000400DB0420CD1B748784406C882
:1028F0000B9806C00B98E10FC907406808430B9975
:10290000486067E70B9844600B98056062E7FFB585
:102910001F4695B0002000250C909E685C68ED4332
:102920001390FFF72DF9C0680168405C1490B969F5
:1029300016986D1C88470A90396A88470028F6D196
:102940000A98401C0AD00D20C0018443002E12DDDD
:102950000A982B2809D02D280DD103E00020C04370
:1029600019B0F0BD012080020443B96916986D1CAE
:102970008847761E0A90600504A901D52D2000E045
:102980002B206A46491C107410A8002E0D910B9044
:102990003BDD0A98692805D0492803D06E2801D06C
:1029A0004E281DD13B46039002200296179A169995
:1029B000C0430095019405F0E1FFC11CD0D10FE0A8
:1029C000B96916986D1C88470A900120761E40024E
:1029D0000443179805601398401C002E139014DDD3
:1029E0000A983028ECD0782801D058280DD11398B7
:1029F00001280AD13B460296179A1699001F0095A6
:102A0000019405F0B3FFC11CAAD114990A98884219
:102A100046D18020044308E00C981799401E0C9082
:102A2000012040020443681C0860B9696D1C1698B7
:102A3000761E884730280A90EED031E014998842FB
:102A400005D1200603D480200443761E1EE00A9898
:102A500004F05AFB002826D0012008A940020443B4
:102A60000D980331761E88420BD20A980D993038A2
:102A700008700D98401C0D90200607D50C98401E3C
:102A800003E0200602D40C98401C0C90A00502D54F
:102A90001799681C0860B96916986D1C88470A90D8
:102AA000002ECBDC59E0002E57DD0A98652801D0B6
:102AB000452852D1A00550D50320B96900028443AE
:102AC0006D1C1698761E8847002E0A900CDD2B2868
:102AD00004D02D2808D1FF2001300443B96916988D
:102AE0006D1C8847761E0A90E00501D52D2100E077
:102AF0002B210B9801700B98401C0B90009025E047
:102B0000012012A9400204430B980131761E88422D
:102B10000ED20A980B9930380006000E087003D1C7
:102B200000990B9888420AD90B98401C0B9006E03C
:102B3000E00501D5254801E0244840420C90B969E0
:102B400016986D1C88470A9017980560002E04DDC2
:102B50000A9804F0D9FA0028D2D1F9691698884762
:102B60000D99FF2004AA08700B99087000200E90A0
:102B70000F900C9B10A90EA8FFF7C2FDA00502D470
:102B80000120C043ECE62420044209D0E00713D121
:102B900038680F9A0E99031D3B60006806C00BE071
:102BA0000EA9684604F058FAE00705D13868009A83
:102BB000011D3960006802602846D1E68663000086
:102BC0003E400000FF0700007C620000F1D8FFFFDC
:102BD00010B50446C046C0462046FDF72BFB10BD8D
:102BE000024670B50A4392072AD11E4DEE0104C871
:102BF00008C9541B9443344017D0D0B2D9B2401AFC
:102C00002106014310D190B299B2401A2104014328
:102C10000AD110021902000A090A401A21020143CE
:102C200002D1100E190E401A70BD9A42DFD010BAB0
:102C300019BA884201D9012070BD0020C04370BD7F
:102C400002780B78401C491C002A09D09A4207D10F
:102C500002780B78401C491C002A01D09A42EFD020
:102C6000D01A70BD0101010110B50C461107090F02
:102C7000092904D00A290AD008290CD104E01146F8
:102C80000820FFF7EFFC06E0510606D501E05106EB
:102C900001D50120C007214610BDD10607D501018D
:102CA0000909CC084907000E0006044309E0410F5A
:102CB00020024907000A0143200E00061D22D141CF
:102CC00001430846E7E74343514330B55C18010C24
:102CD000130C0D4692B25D4380B251432C19054648
:102CE00055430A0C09044D1962415843010C000474
:102CF0004019514130BD0000FFB51F4689B01398FF
:102D000012994005C00FC0070590002007900546A6
:102D10000446461E049002903C20491C12910690E5
:102D2000B9690A98884703901498401E1490149823
:102D3000002841DD03982E2816D01021FFF7D1FC82
:102D4000002834DB01210491079901431AD0069928
:102D500000290CDB069AC11700F006FA0543069815
:102D60000C43001F069006E0012002900EE00028B0
:102D700001D001200543012007900298002805D1C9
:102D8000361D03E00298002800D0361F1298401C20
:102D90001290B9690A98884703901498401E1490BD
:102DA00004980028C3D00B9912980860BFE70398D5
:102DB000702808D0502806D0F9690A9888470498E6
:102DC000002815D051E000200390012002900498C3
:102DD00000280AD01298401C1290B9690A988847B6
:102DE0001499491E0029149106DCF9690A9888474C
:102DF0000120C0430DB0F0BD2B2804D02D280DD1EB
:102E00000020C04302901298401C1290B9690A98A1
:102E100088471499491E00291491E6DD411CE4D02D
:102E20000A21FFF75EFC0028DFDB03990A225143E9
:102E3000081803901298401C1290B9690A988847A4
:102E40000A21FFF74EFC14990B9A491E149112990E
:102E500011601499002901DD0028E6DAF9690A9861
:102E600088470299039848438619139824210840FB
:102E700004902846204304D0A10F8907090002D0FE
:102E800006E005989BE0A90FA4000C43AD00B61E18
:102E9000E10FC907080002D16D196441761E04983C
:102EA000002803D00B2002905D4803E02820029008
:102EB0007D20C0438642039007DA811B02980818E0
:102EC0004128029001DD41200290029A0120002158
:102ED000521E00F049F9024628400B4621400843A3
:102EE00001D0012000E0002007900020521EC043C6
:102EF00043412A4023401A4301D0012000E0002032
:102F000007990690014352D0002108460020C04690
:102F10000321059A89050840002A05D082008018FF
:102F2000C20F1018401008408015012802DD002053
:102F3000C04301E0012815D0401C38D00798002874
:102F400035D0069800280DD1029A0120002100F00A
:102F50000BF928402140084301D0012000E0002067
:102F6000002824D0029A0120002100F0FDF8034639
:102F700040198C4661412A1A8C410FD3029840288F
:102F800007DD0498039E002801D0343E02E0173E7E
:102F900000E0761C01240025E40708E05B1E624681
:102FA0000024E4436241DD43D44305400C400398D0
:102FB0000121081AB04206DA1A490598084301901F
:102FC000002000900EE060006205010BE80A10434B
:102FD000059A009068460A4313490A433146019214
:102FE00004F088F8049800280AD01398C00714D178
:102FF0003868019A0099031D3B60006806C00CE028
:1030000002A8694604F028F81398C00705D138686B
:10301000029A011D3960006802601298EAE6000019
:1030200002FCFFFF0000F07F0000F03FFFB51D46EF
:1030300087B01198484A109C129E40051399C00F02
:10304000761EC0070243019200220092FF22D205A1
:103050001043202291434929059003D017464E2959
:1030600028D04FE03DA002AA0BC801270BC2A969D6
:103070000898641C8847761E014607D402A8C05DE4
:10308000002803D02022914381420AD0E9690898A0
:103090008847032F36D0082F34D00120C0430BB00F
:1030A000F0BD7F1C032F01D0082FE0D10999601CCF
:1030B0000860DCE7A9690898641C8847761E2DD44F
:1030C000B84341282AD1A9690898641C8847761E0C
:1030D00024D4B8434E2821D1A9690898641C884794
:1030E00001990122D204114301910599D2001143A3
:1030F00005910999761E0C6001D4282806D0E9694B
:10310000089888471198C00712D023E0A969089849
:10311000641C8847761E01D4002803DAE969089800
:103120008847BAE72928F1D10998641C0460E9E7C7
:1031300011982421084207D02868019A0099031D9C
:103140002B60006806C005E028680599021D2A600A
:10315000006801602046A2E70000F07F494E464922
:103160004E4954590000000010B5202A04DB0146E6
:10317000203A9140002010BD914020239C1A034624
:10318000E3401943904010BDF8B5224C4E00069D17
:10319000A6420AD8A64201D1002806D15E00A64266
:1031A00003D8A6420AD1002A08D00D2424042542BF
:1031B0002CD029460020FFF755FAF8BD0C461C43D9
:1031C0000CD4994202D0EFF30080F8BD904202D0B7
:1031D000EFF30080F8BDEFF30080F8BD0924240769
:1031E000E5008B4206D0EFF30080A043591A06D2C7
:1031F000284304E0101A05D3EFF30080A04380F3C6
:103200000088F8BDEFF30080A043F1E7009500F0DF
:1032100033F8F8BD0000E0FF70B505464800440DE6
:10322000124B0020002C0AD0634008D09A4206DAE4
:103230006642B24203DD12054019514170BD002CB7
:1032400008D0002B09D0C90FC907002AF6DB084AAD
:10325000114370BDC90FC90770BD28460A0310434A
:1032600002D00020034970BD284670BDFF07000052
:103270000000F07F0000F87F10B500200249029A9C
:10328000FFF7F2FC10BD00000000F87F70B58C184D
:103290000578401C6B075B0F01D10378401C2A1195
:1032A00006D10278401C03E00678401C0E70491CD1
:1032B0005B1EF9D12B0705D40023521E0DD40B70D1
:1032C000491CFAE70378401CCB1A921C03E01D78D6
:1032D0000D70491C5B1C521EF9D5A142D8D30020A9
:1032E00070BD10B500F060F810BD00000149086025
:1032F00070470000002401401949CA6818239A4306
:1033000003789B07DB0E1A43CA60CA6820239A43DE
:103310004378DB079B0E1A43CA60CA6804239A43AA
:103320008378DB075B0F1A43CA60CA684B149A4361
:10333000C378DB079B0C1A43CA60CA6803239B024D
:103340009A4343799B071B0D1A43CA60CA68FF233F
:103350000079C13340079A43C00D0243CA607047E9
:1033600000240140034A936A03439362506908436F
:10337000506170470024014000210170417081704C
:10338000C170017141717047024881680122114387
:10339000816070470024014002494A6802434A6044
:1033A0007047000000240140F8B5082000F04EF8F6
:1033B000012822D10820FFF799FF00F041F80F4CB7
:1033C0000F4E2546803DE0636A7FA76B5100735A1C
:1033D0007052FB1A1E186421501CA663FDF770F989
:1033E000697764213046FDF76BF980B20549A06228
:1033F00048430549FDF764F9E062F8BD8C00002000
:1034000064010020E40C0000FF0F00000B4B0020C3
:1034100099685A05114399600F2212039968401C5C
:10342000C90F904201D00029F8D19868002803DB29
:103430000248403000687047002070470024014077
:103440000148006880B270474024014006494A683C
:10345000096802400140002A03D0002901D0012060
:1034600070470020704700000024014010B501247F
:103470006402204602F0D4FB204602F0B1FB10BDEE
:103480000248816804221143816070470024014092
:1034900010B50420C04303F099F9074805490068B6
:1034A000FDF70EF905497D22086080B2D200504335
:1034B000486010BD00127A000000002004000020C7
:1034C00001B50B490098496848430A4948610023FF
:1034D0008B6108690122104308610869C20701D0A5
:1034E000C003FAD508694008400008618B6108BD37
:1034F0000400002000E000E001B50B4900980968D5
:1035000048430A49486100238B610869012210433E
:1035100008610869C20701D0C003FAD508694008EC
:10352000400008618B6108BD0400002000E000E05D
:1035300010B501F02DFDFFF7ABFF01F079F801F0B8
:1035400099FD01F095FC00F0E9FF01F009FE00F0A3
:103550006FFC01F095F8064801F0DCF905480121FF
:103560000171002140308167816FC16710BD00008B
:103570006C0200204C000020F8B5324EF07E34463C
:10358000603425460027803D002823D02EA100204E
:1035900000F055F9B776F776A87D042812D006DC3E
:1035A000012809D0022809D0032813D108E01028E7
:1035B0000AD020280ED109E0E16808E0216906E080
:1035C000616904E0A16902E0E16900E0216A00208C
:1035D00003F060FCA87A002829D00120F0721AA11B
:1035E000002000F02CF9AF72687A042820D009DCA2
:1035F000012810D0022813D0032818D18043687204
:10360000616911E0102818D0202810D1DF2108406E
:103610006872216A08E0400840006872E16803E0CF
:10362000FD21084068722169002003F033FCF8BDD9
:10363000FB2108406872A169F6E7EF210840687233
:10364000E169F1E72C00002020202020000000008C
:1036500015480122C16E92038B1A4030914218D056
:103660000BDC124A891A1AD0891A14D052009142DE
:1036700002D13221418281827047991A0DD00122F4
:10368000D203891A0DD052009142F5D17D21090152
:10369000F0E76421EEE70A21ECE7FA21EAE70221EC
:1036A000E8E7FF21F531E5E70C0000200008000005
:1036B000F8B506460B0003F097FC351C1E222528A2
:1036C0002C2F3234363A3D4145487B484B83515389
:1036D000538C8F585A1C5E6062282C656772367452
:1036E0003D4176787B7E81838689538C8F585A92B0
:1036F0006A00032260E00D2202250D2447E00B2220
:10370000002504E00C220325F7E70B2202E0012448
:103710003DE003220625FAE70B2204251CE00322E4
:103720002EE003225CE00A221BE00C242FE003229F
:103730000A2518E00B2253E0002428E0032201258B
:103740000E2424E003220925EFE70B220025D4E70D
:1037500003220E2505241AE0092418E008220FE0B0
:103760000B220025E1E7022411E0092208E00C22E7
:10377000002503240BE00B2218E00A2224E00A2291
:103780000625D2E7092217E003220FE008243300C0
:1037900003F02AFC08282C3034383C4044470022EF
:1037A00015E0032210E0022200E00A220625EDE7E0
:1037B00003220625CEE7012206259EE7022203E02A
:1037C00009220625C8E70B220625B5E70A220025AF
:1037D000DCE707220825A8E704220925C3E7002221
:1037E0000025A9E71421132712261AE0112110271A
:1037F0000F2616E00E210D270C2612E00B210A27BA
:1038000009260EE00621072708260AE003210427DF
:10381000052606E000210127022602E017211827CD
:103820001926052001F09AFA2A463946052001F0AA
:1038300095FA22463146052001F090FAF8BDF8B518
:1038400000240E46074604252046002F0FD1002CE9
:1038500006D0012C06D0022C06D0032C06D006E0A0
:10386000072004E0062002E0052000E00420315D8E
:103870000A46613A192A02D92032192A6FD84139E9
:103880000B0003F0B1FB3A6D707376797C7F828513
:10389000888B8E9194979A9DA0A3A6A9ACAFB2B540
:1038A000B8F2F2F2F2F2F21E2124272A2D3033363A
:1038B000393C3F4245484B4E5154575A5D60636610
:1038C00069F2C0B21A2198E0C0B21B2195E0C0B2E3
:1038D0001C2192E0C0B21D218FE0C0B21E218CE0FD
:1038E000C0B21F2189E0C0B2202186E0C0B22121F0
:1038F00083E0C0B2222180E0C0B223217DE0C0B2CB
:1039000024217AE0C0B2252177E0C0B2262174E0FC
:10391000C0B2272171E0C0B228216EE0C0B22921D7
:103920006BE0C0B22A2168E0C0B22B2165E0C0B2D2
:103930002C2162E0C0B22D215FE0C0B22E215CE0FC
:10394000C0B22F2159E0C0B2302156E0C0B23121BF
:1039500053E0C0B2322150E0C0B233214DE04FE01D
:10396000C0B2002149E0C0B2012146E0C0B202214C
:1039700043E0C0B2032140E0C0B204213DE0C0B248
:1039800005213AE0C0B2062137E0C0B2072134E099
:10399000C0B2082131E0C0B209212EE0C0B20A2134
:1039A0002BE0C0B20B2128E0C0B20C2125E0C0B250
:1039B0000D2122E0C0B20E211FE0C0B20F211CE099
:1039C000C0B2102119E0C0B2112116E0C0B212211C
:1039D00013E0C0B2132110E0C0B214210DE0C0B258
:1039E00015210AE0C0B2162107E0C0B2172104E099
:1039F000C0B2182101E0C0B21921FFF759FE34E02E
:103A00000A46303A092A26D8130003F0EDFA0A06CE
:103A1000090C0F1215181B1E212EC0B2002122E026
:103A2000C0B201211FE0C0B202211CE0C0B20321DC
:103A300019E0C0B2042116E0C0B2052113E0C0B203
:103A4000062110E0C0B207210DE0C0B208210AE053
:103A5000C0B2092107E02D290CD07C290AD02F29DA
:103A600008D0C0B20A2100F0B9FB641CAC4200DAF5
:103A7000EAE6F8BD2D2908D02F2909D07C29F4D1F8
:103A8000C0B2022100F03DFCEFE7C0B20121F9E72E
:103A9000C0B20021F6E70000F1220549002803D05A
:103AA0004879104048717047887910408871704794
:103AB0001803002010B500221521052001F04EF951
:103AC00000221621052001F049F910BDF3B587B099
:103AD0000D460846FCF77CFD024614286ADA0027EA
:103AE0000097019702970397049738463B463C4658
:103AF0003946059704E06E5C2E2E00D10C46491C19
:103B00009142F8DB944214DA0022694604E0AE5C8C
:103B1000401C8E54C0B2521CA242F8DB0F5403A9C1
:103B200002E0C8545B1CDBB2641C285D0028F8D19D
:103B3000CF546846FCF72AFD05466846FCF748FD69
:103B4000044603A8FCF722FD064603A8FCF740FD47
:103B5000079900297ED003282ED002284AD00128B8
:103B600079D0002826D17D21C9002846FCF7B2FD76
:103B70000A21FCF7AFFDC9B2002000F02FFB642141
:103B80002846FCF7A7FD0A21FCF7A4FDC9B20120D5
:103B900000F024FB0A212846FCF79CFD0C460A2174
:103BA000FCF798FDC9B2022000F018FBE1B2032037
:103BB00000F014FB09B0F0BD002D19D00A212846F1
:103BC000FCF788FDC9B2002000F008FB08210120A5
:103BD00000F068FB64213046FCF77CFD0A21FCF70D
:103BE00079FDC9B2012000F0F9FA0A213046D3E785
:103BF0000A21E8E7012C02D0022C0AD01BE0002D9C
:103C000005D00A212846FCF765FDC9B210E00A215B
:103C10000EE0002D24D00A212846FCF75BFD0C465F
:103C20000A21FCF757FDC9B2002000F0D7FAE1B233
:103C3000012000F0D3FA0A213046FCF74BFD0C4678
:103C40000A21FCF747FDC9B2022000F0C7FAE1B231
:103C5000032001E03EE008E000F0C0FA042135E076
:103C60000A21002000F0BAFAD1E7032C04D0022C7C
:103C70000DD0012C19D020E064212846FCF72AFD44
:103C80000A21FCF727FDC9B2002000F0A7FA0A219B
:103C90002846FCF71FFD0C460A21FCF71BFDC9B2A4
:103CA000012000F09BFAE1B204E00A212846FCF76B
:103CB00011FDC9B2022000F091FA0A213046FCF74A
:103CC00009FDC9B2032000F089FA0221012000F0A9
:103CD000E9FA6FE703281FD002283BD0012874D0EF
:103CE0000028F6D164212846FCF7F4FC0A21FCF7F1
:103CF000F1FCC9B2062000F071FA0A212846FCF74F
:103D0000E9FC0C460A21FCF7E5FCC9B2052000F0ED
:103D100065FAE1B204204BE7002D19D00A212846AC
:103D2000FCF7D8FCC9B2072000F058FA082100209F
:103D300000F0B8FA64213046FCF7CCFC0A21FCF70D
:103D4000C9FCC9B2062000F049FA0A213046D6E77C
:103D50000A21E8E7012C02D0022C0BD01CE0002D38
:103D600006D00A212846FCF7B5FCC9B2062011E0AE
:103D70000A21FBE7002D21D00A212846FCF7AAFCE6
:103D80000C460A21FCF7A6FCC9B2002000F026FA76
:103D9000E1B2012000F022FA0A213046FCF79AFC39
:103DA0000C460A21FCF796FCC9B2052000F016FA71
:103DB000E1B2042000F012FA042137E00A210020C9
:103DC00000F00CFA0A21E4E7FFE7032C04D0022CF0
:103DD0000DD0012C19D020E064212846FCF77AFC94
:103DE0000A21FCF777FCC9B2072000F0F7F90A2195
:103DF0002846FCF76FFC0C460A21FCF76BFCC9B2A5
:103E0000062000F0EBF9E1B204E00A212846FCF7B5
:103E100061FCC9B2052000F0E1F90A213046FCF747
:103E200059FCC9B2042000F0D9F9022100204EE764
:103E300010B500F037FF10BDF7B590B00D46044641
:103E4000202102A8FCF704FC680040080A901298A0
:103E5000002702AE002806D001280BD0022850D03F
:103E6000032818D154E02846FDF760F8CDA201914F
:103E7000009005E02846FDF759F8CCA2019100908A
:103E80001E2102A8FCF740FA31182039CF7700280C
:103E900077DB1E2875D20122D205A91A0F91C549D8
:103EA000C54B69180E911298E918C44F0D91E91984
:103EB0000C91690049088A1A0B92BE4ACF198A18D8
:103EC0000192CA180092002829D001286FD0022838
:103ED0006ED0032855D1FF20C005C54269D2B8482D
:103EE000854267DBB7490F98884263D335200E9926
:103EF000C0048142F9D3D9210D9849048842F4D3F2
:103F0000CBE02846FDF712F8AFA201910090B7E789
:103F10002846FDF70BF8AEA201910090B0E7FF2014
:103F2000C005C5422ED2A648854203DBA5480F999D
:103F300081420FD202A92046FFF7C8FD002C04D011
:103F40000A21002000F04AF92AE00A21072000F0A7
:103F500045F934E035210E98C90488427CD3D92034
:103F60000D994004814202D20A21002006E0252159
:103F70000C98890388425DD20A21072000F02EF9AF
:103F800090E057E094490A9888421FDA711C204655
:103F9000FFF79CFD002C0ED00121002000F0B1F9AC
:103FA0000A21012000F01AF90A21022096E05AE0C5
:103FB000AEE0E1E064E00121072000F0A2F90A216F
:103FC000062000F00BF90A21052087E07D490B98B7
:103FD000884217D2711C2046FFF778FD002C08D0CC
:103FE0000A21012000F0FAF80121002000F089F9EF
:103FF000DAE70A21062000F0F1F80121072000F09D
:1040000080F9E0E735210198C904884279D2711C12
:104010002046FFF75BFD002C71D177E0B11C2046F4
:10402000FFF754FD002C15D11BE0002000E0072015
:1040300000F067F913B0F0BD252080038742F9D85E
:10404000B11C2046FFF742FD002C06D000210120C4
:1040500000F0C4F80421E8E710E00021062000F099
:10406000BDF80421E3E7FF20C005C5421FD2544834
:10407000854203DB53480F99814258D202A961E07F
:1040800002A97EE00A21002028E00A21072025E07D
:10409000D9210D984904884204D325210C9889031D
:1040A0008842C7D202A92046FFF710FDC2E7444963
:1040B0000A98884215DA711C2046FFF707FD002C8C
:1040C00006D00121002000F089F80A21012005E036
:1040D0000121072000F082F80A21062000F07EF876
:1040E000A8E738490B9888428CD2711C2046FFF70C
:1040F000EDFC002C06D00A21012000F06FF8012110
:1041000093E74AE00A21062000F068F801218EE7D3
:1041100002A92046FFF7DAFCFF20C005C5420CD2F9
:1041200027488542AADB27480F998142A8D3352129
:104130000E98C9048842ABD2A2E727490A98884260
:1041400009DA711C2046FFF7C1FC002C01D00A21BE
:10415000B8E70A21BDE71B490B98884200D256E711
:1041600035210198C9048842F9D3D921009849041E
:10417000884200D360E751E717490A98884207DA76
:10418000711C2046FFF7A2FC002C00D17DE779E7E7
:104190000C490B988842E2D334E7D92149048A427A
:1041A000E8D23BE7252E316600000000252E32665E
:1041B000000000000000E0BE000038BD000086BB2B
:1041C000BD3786350000A040252E33660000000074
:1041D000252E346600000000CDCCCC3DF8B5064657
:1041E0000B0002F001FF0B0B0D1014181C1E292CE4
:1041F0002E07210000221546144615E00B221CE074
:104200000022154609E00A22062505240CE00822B2
:1042100018E00D2408E0012206250C2404E0092200
:1042200000E00B2206250924330002F0DDFE080D14
:104230001115191D2125292C00220025E9E70B2243
:1042400000E009220625E4E71421132712261AE0CC
:10425000112110270F2616E00E210D270C2612E043
:104260000B210A2709260EE00621072708260AE067
:1042700003210427052606E000210127022602E08B
:10428000172118271926052000F068FD2A4639460F
:10429000052000F063FD22463146052000F05EFD5A
:1042A000F8BD000030B50E22551A0A4A012854798B
:1042B0000AD013469B7900280AD0022805D003288B
:1042C00001D10B43937130BDAC430C43547130BDED
:1042D000AB43F6E7180300200FB43EB5002102916E
:1042E000044600910191092108AB6846079AFBF743
:1042F000E1FF69462046FFF7A2FA3EBC08BC04B0C5
:104300001847F3B583B0049F002002463B0002F03B
:104310006BFE05040A0E19141900042301930023EF
:10432000022600930EE000230193062302E00323FC
:10433000019300230026009304E000230193062349
:104340000C260093039F3B0002F04EFE08050A0F67
:1043500014181C21262A14211325122408201FE0DA
:10436000112110250F2404201AE00E210D250C2404
:10437000022015E00B210A25092411E0062107255A
:1043800008240DE0032104250524022208E0002171
:1043900001250224042203E01721182519240822EC
:1043A000049B032B0BD00520019A00F0D7FC294673
:1043B0000520009A00F0D2FC3246214605E0042F89
:1043C00002D20246152100E01621052000F0C6FCAD
:1043D00005B0F0BD70B50C46012862D10A2C06D29A
:1043E0000A212046FCF76CF90320FFF7F7FE204670
:1043F0000A385A280ED20A212046FCF761F90D46E8
:104400000A21FCF75DF90220FFF7E8FE29460320A8
:10441000FFF7E4FE2046E12164388900884218D283
:1044200064212046FCF74CF90A21FCF749F90120E8
:10443000FFF7D4FE0A212046FCF742F90D460A2177
:10444000FCF73EF90220FFF7C9FE29460320FFF7DB
:10445000C5FE7D21C900184A601A904221D8204625
:10446000FCF72EF90A21FCF72BF90020FFF7B6FE26
:1044700064212046FCF724F90A21FCF721F90120E8
:10448000FFF7ACFE0A212046FCF71AF90C460A2178
:10449000FCF716F90220FFF7A1FE21460320FFF7E3
:1044A0009DFE00221521052000F058FC0022162157
:1044B000052000F053FC70BD2723000010B5094A09
:1044C00054798C4301280AD013469B798B430028EA
:1044D00003D0022803D0032800D1937110BD54717A
:1044E00010BD00001803002010B5044686B0084631
:1044F000FCF71CFD0191009006A20A2102A8FBF71F
:1045000003FF0A2803DA02A92046FFF7DFFA06B004
:1045100010BD0000252E31660000000010B500F02F
:104520001FFD0E4C002322460A210D4800F066F8BC
:104530000B48012322460A21103000F05FF808489A
:10454000022322460A21203000F058F804480323B1
:1045500022460A21303000F051F810BD0000C84258
:10456000B802002070B504460068A168884242D2B3
:104570000121090309266268CD00F6069042207BDE
:104580001AD2002803D10122304600F0DFFC207B44
:10459000012804D101221021304600F0D7FC207BF5
:1045A000022804D101222946304600F0CFFC207BAE
:1045B00003281FD1012219E0002803D10022304630
:1045C00000F0C4FC207B012804D1002210213046D9
:1045D00000F0BCFC207B022804D100222946304692
:1045E00000F0B4FC207B032804D1002220213046B7
:1045F00000F0ACFC70BD0020206070BDF8B50D4629
:1046000004461F4609491046FCF7BAFC06462846F0
:10461000FCF7AAFD314604F099F8FCF761FDA560AE
:104620006060002020602773F8BD00000000C842D1
:1046300010B500F0E1FA10BD78B50E46054600242D
:1046400004E0684600782855641CA4B2B44204D241
:10465000684600F019F80028F3D1204678BD000024
:1046600010B506490A884B88521CD2B2934204D036
:104670000B88CC1FF93CE0540A8010BD20040020B8
:1046800010B500F01FFD10BD08490A884B889A42FA
:1046900001D1002070474A88054B9A5C0270488817
:1046A000401CC0B248800120704700002004002058
:1046B0002003002010B5064C15216279052000F07A
:1046C0004DFBA2791621052000F048FB10BD00002B
:1046D000180300200848017A4030202909D04029D9
:1046E00004D0802907D17D21C90003E0FF21F531E5
:1046F00000E0FA21C18370470C00002010B5074884
:10470000817F002909D0C17F002906D0002181774F
:104710008030416B012002F04BFB10BD0C000020EB
:1047200010B5022000F05CF8012804D100F072FD01
:10473000022000F019F8012000F052F8012804D1FD
:1047400000F086FD012000F00FF810BD10B5FF2429
:104750000134204600F044F8012804D100F096FD11
:10476000204600F001F810BD014948617047000083
:104770000004014083790179184A002B04D00029F4
:1047800010D0012913D016E0002906D0012903D149
:104790005168006881435160704711680068814327
:1047A00011607047116803681943116003E0516894
:1047B000036819435160417900290AD0012903D0C7
:1047C0009168036819439160D16800680143D16022
:1047D0007047916800680143916070470004014090
:1047E000034A0146526900200A4200D00120704766
:1047F00000040140F0B50B2706463F04384600F0A0
:1048000055F800280FD1084C206902252843206163
:1048100066612069402108432061384600F046F86F
:104820002169A9432161F0BD0020024002480169CD
:10483000802211430161704700200240F0B501273A
:1048400006467F030D46384600F030F800280CD1AC
:10485000064C20690121084320613580384600F06C
:1048600025F82169490849002161F0BD0020024076
:1048700007490020C9684A0701D502207047CA06C7
:1048800001D503207047C907FCD001207047000004
:1048900000200240034802494160034941607047DB
:1048A0002301674500200240AB89EFCD00B50346E8
:1048B000FFF7DEFF5B1E012803D0002B00D1042090
:1048C00000BD002BF4D1FAE770B50D46064640292D
:1048D00001D3022070BD0121A802C9064418A00519
:1048E00004D148422018C912884201D3022007E0AF
:1048F000FFF7D0FF2046FFF77DFFFFF797FF00206F
:104900000028E7D13068A84202D1002070603072E0
:10491000002070BD3F21016000214160017270479D
:1049200030B5402801D3022030BD01248002E406C6
:1049300004190020A41809E022181288451C0A5402
:104940009D4202D2120A0D186A70801C9842F3D35D
:10495000002030BD70B515460E4604462A46314645
:10496000204600F00BF8002807D0052805D1204686
:104970002168FFF7A9FF0028F0D070BDFEB50646FC
:10498000007A1746002801D00520FEBD30680122BC
:104990008002D2068218012370689B021B1A9F4274
:1049A00002D901203072EFE78018002401910090B5
:1049B00026E0601CB842019805D2001941780278BF
:1049C0000802104302E0005D0002FF3000990290EF
:1049D0000D19E80706D11F20C00601212818090477
:1049E000884201D3022008E0FFF754FF28460299CD
:1049F000FFF724FFFFF71AFF00200028C5D1A41CF1
:104A0000BC42D6D37068C01970600020FEBD0000A3
:104A1000F0B589B00024474803F086FC2846464D8F
:104A2000E96803F023FF4000444F4008B84200DD2E
:104A300001243046296903F019FF40004008B842BC
:104A400000DD01243046696903F010FF4000400892
:104A5000B84200DD01243046A96903F007FF400099
:104A60004008B84200DD01243046E96903F0FEFE4B
:104A700040004008B84200DD01243046296A03F0B6
:104A8000F5FE40004008B84200DD01242A49803983
:104A900048798A7910430A464032D3881843CB6E4E
:104AA00018430B6F18434B6F18436860CB790F7A2C
:104AB00012893B4313438A6FC96F13430B43296821
:104AC0000B433146AB60864200D001241A4F0846A2
:104AD00080379E4200D00124796803F0E3FD00D0C6
:104AE00001243046B96803F0DDFD00D001242846DA
:104AF000ED681049002C4D6007698F604669CE60F3
:104B000082690A61C2694A61026A8A614268CA614D
:104B1000806808620BD0202210316846FBF790FBBA
:104B2000044833463A462946006803F0C9FC09B0F8
:104B3000F0BD0000780200208C000020BD378635D3
:104B400081627047F0B50022032501230C88934051
:104B50001C422DD08B78012B01D0022B15D18468FB
:104B600053002E469E40B44384600C799C40836879
:104B70001C4384604368CC789440A34343604368FB
:104B8000CC789440A4B223434360066853002C467B
:104B90009C40A64306608E7807689E403E430660B0
:104BA000C668A643C6604C799C40C3681C43C46079
:104BB000521C102AC9D3F0BD10B50F23072909D8FC
:104BC0008900046A8A408B409C430462016A114355
:104BD000016210BD4907C90E446A8A408B409C435C
:104BE0004462416A1143416210BD0069084000D02F
:104BF00001207047816170471FB50120400400F01B
:104C0000F7FF0120400201F003F8012001F000F855
:104C100040216846018103218172002444730920E8
:104C200002A9C006FFF78EFFFEF720FC6846FEF7DC
:104C3000A3FB68460470447084700121C170047144
:104C40004471FEF759FB07214020FEF78BFB022140
:104C50000C2000F093FB0820FEF79EFBFEF7D6FB2E
:104C6000FEF792FBFEF70CFC1FBD10B500240022DE
:104C70002146052000F072F8641CA4B2312CF6D352
:104C800010BD10B52921042000F024F803210420D0
:104C900000F020F80121042000F01CF8FFF7E5FFE8
:104CA00010BD00001CB50120800400F0A1FFE02031
:104CB0006A461080012090700020D070032111718D
:104CC000507169460248FFF73DFFFFF7DAFF1CBD50
:104CD00000040048F8B50D4606460021084600F0DD
:104CE000A5F80120FEF708FC00240427002101207C
:104CF00000F09CF83946E1403140022000F096F87F
:104D00000120FEF7F9FB0121084600F08FF8012091
:104D1000FEF7F2FB641C032CE8DB00248026002154
:104D2000012000F083F83146E1402940022000F0E4
:104D30007DF80120FEF7E0FB0121084600F076F83F
:104D40000120FEF7D9FB641C092CE8DB01210020BF
:104D500000F06CF80120FEF7CFFBF8BDF8B50E4669
:104D6000074600211546084600F060F80120FEF7CE
:104D7000C3FB00240421E1403940022000F056F832
:104D80000520FEF7B9FB0021012000F04FF80520B7
:104D9000FEF7B2FB0121084600F048F80120FEF7BB
:104DA000ABFB641C032CE5DB002420273946E140E3
:104DB0003140022000F03AF80520FEF79DFB00216B
:104DC000012000F033F80520FEF796FB012108468C
:104DD00000F02CF80120FEF78FFB641C062CE5DBAD
:104DE000002401263046A0402840C1B2022000F035
:104DF0001DF80520FEF780FB0021012000F016F8C9
:104E00000520FEF779FB0121084600F00FF8304637
:104E1000FEF772FB641C042CE4DB0121002000F08F
:104E200005F80120FEF768FBF8BD000010B50F4A39
:104E3000002807D001280BD002280FD1002913D059
:104E4000202108E0002901D0802104E0802107E032
:104E5000002904D040211046FFF7CCFE10BD4021B0
:104E60001046FFF76DFE10BD2021F9E70004004851
:104E7000F0B5012085B0400400F0BAFE01208004A6
:104E800000F0B6FE012000F0C3FE022569460D8049
:104E900000248C70032609200E71C006FFF752FE15
:104EA000012769460F808C7009200E71C006FFF73C
:104EB00049FEE801694608808C700E711448FFF7BE
:104EC00041FE0121002000F05BFF0021084600F0B8
:104ED00057FF0821012000F053FF694602958F73A8
:104EE0000C734D7302A8FFF745FC02A80297FFF769
:104EF00041FCE801029002A8FFF73CFC01210520DB
:104F000000F03CFA0121072000F038FA05B0F0BDAE
:104F10000004004810B5FFF768FE10BD10B500286A
:104F200006D00948002901D0022106E0022108E04C
:104F30000920C006002903D08021FFF75BFE10BDC9
:104F40008021FFF7FDFD10BD0004004810B5002AC8
:104F500002D0FFF74FFE10BDFFF7F2FD10BD0000BD
:104F60001CB50120400400F043FE08486A4610804A
:104F7000012090700020D070032111715071092020
:104F80006946C006FFF7DEFD1CBD00003090000042
:104F9000344801680122114301604168324A1140DE
:104FA00041600168314A11400160016801229204A8
:104FB0009143016041683F2212049143416041687E
:104FC000090909014160016BFF22543291430163D9
:104FD000416B490849004163002181600168012259
:104FE00012041143016000210522120203689B078D
:104FF00002D4491C9142F9D30168890730D51C4974
:105000000A6810231A430A600A68D208D200521CA8
:105010000A604168F0229143416041680722120210
:105020009143416041680322D2039143416041684A
:105030000F22920491430522D2048918416001682D
:105040001A051143016001688901FCD5416889088E
:105050008900891C416041680907890F0229FAD13A
:1050600070470000001002400CB8FF08FFFFF6FE7A
:10507000002002403EB5012000F0C2FD0124A4073B
:10508000204601F035FD00216A46117291700C48EE
:1050900001902F20108051726946204601F02EFDAC
:1050A0000121204601F021FD0121204601F071FD82
:1050B00000210F2000F062F9204601F065FD3EBDA1
:1050C000E703000030B5012087B0400400F090FDF8
:1050D0000120800300F09CFD0921CD060122284615
:1050E000FFF76AFD01220A212846FFF765FD02212C
:1050F0006846817009020180032101710024C47097
:105100000121417169462846FFF71CFD01218902F2
:105110006846018069462846FFF714FDE1204002F9
:1051200002900C2168460175C48244820482039473
:105130000A4C02A9204601F041FD2021204601F041
:1051400090FD1021204601F08CFD03211B2000F072
:1051500015F9204601F080FD07B030BD0038014050
:105160007CB50120400400F043FD0120800400F0E4
:105170003FFD802168460180012686700024C470AE
:1051800003250571447109206946C006FFF7DAFC62
:105190000221684601808670C470057144716946B9
:1051A0000148FFF7CFFC7CBD0004004870470000B9
:1051B00016490122C96E920300208B1A91421AD01F
:1051C0000DDC134A891A1CD0891A16D0520091425C
:1051D00000D132200D494031488288827047991AA7
:1051E0000DD00122D203891A0DD052009142F1D183
:1051F0007D200001EEE76420ECE70A20EAE7FA20D0
:10520000E8E70220E6E7FF20F530E3E70C000020A6
:105210000008000010B50A20FEF752F9092002210B
:10522000C006FFF777FE0949002804D0087B400834
:105230004000087310BD0A7B012002430A734A7BB9
:1052400002434A738873087110BD0000A802002051
:1052500010B50A20FEF734F909200121C006FFF736
:1052600059FE0949002804D0087BFD22104008732C
:1052700010BD0A7B022002430A734A7B02434A7331
:1052800001208873087110BDA802002010B50A2003
:10529000FEF716F9FF2101310A48FFF73BFE0A49E4
:1052A000002804D0087BFB221040087310BD0A7B45
:1052B000042002430A734A7B02434A730120887325
:1052C000087110BD00040048A802002070B5294DE7
:1052D0000121A86F09042C46401A0026203400281A
:1052E0000AD0884200D16676E079002807D00121F3
:1052F0000220FEF7D7FF06E001206076F4E70121E7
:105300000220FFF7DBF8207A002804D001210320D7
:10531000FEF7C8FF03E001210320FFF7CFF80122C9
:10532000286F9204811A6420002908D0891A11D0AC
:105330005200891A1BD05200914215D112E0617EB1
:10534000012905D000290FD1217A00290FD109E0C8
:10535000E179FAE7617E012907D0002904D1217A99
:10536000002904D06E76E87670BDE179F8E76876BA
:10537000EE7670BD0C000020704700008207D30E4F
:10538000FF229A408907090E10B5994000280BDAD0
:1053900003071B0F083B9C080B4BA400E318DC69B8
:1053A00094430C43DC6107E08408084BA400E31835
:1053B0001C6894430C431C60C106C90E0120884040
:1053C0000349086010BD000000ED00E000E400E0CB
:1053D00000E100E0F8B50020FEF75EFBD64E0222A9
:1053E000737910272021012B18D0042408250320CD
:1053F000022B77D0042B4CD1B379082B73D0102B10
:105400007CD0202B71D0402B43D1F27B082A6DD069
:105410006DDC002A6CD0042A6BD194E0B0790124B1
:1054200008283BD010280DD020283FD0402830D16C
:10543000307B00282ED0012819D010281FD020281A
:1054400025D127E0F07A00280ED0012802D00228CA
:1054500008D109E0144672720222B8A10020FEF7BA
:105460003BFFF472F07A13E074720122F5E7777271
:105470000222B4A10020FEF72FFF377307E00C468D
:1054800071720222B1A10020FEF726FF3473307B37
:10549000B075F8BD74720122A8A1F4E774720122FC
:1054A000A6A10020FEF718FFB475F8BD707B002898
:1054B00020D0012804D010280AD0202810D119E0CB
:1054C000777202229FA10020FEF706FF777307E0A4
:1054D0000C46717202229DA10020FEF7FDFE74733E
:1054E000707BD5E78EE04CE008E05FE033E025E03C
:1054F00043E02FE07472012290A1EDE7B17B002917
:1055000017D0022904D004290AD008290FD110E0AD
:10551000707201228BA10020FEF7DEFEB47306E05C
:105520007572012289A10020FEF7D6FEB573B07B0B
:10553000AEE714467272022280A1ECE7102A12D064
:10554000202A18D119E07472012280A10020FEF7F0
:10555000C3FEF5730FE0777202227AA10020FEF7F6
:10556000BBFEF77307E00C467172022277A10020A0
:10557000FEF7B2FEF473F07B8AE77072012271A12C
:10558000F5E7317C042909D008298ED170720122F7
:105590006CA10020FEF7A0FE3474F8BD74720122E5
:1055A0006AA10020FEF798FE3574F8BD727C082AC7
:1055B00012D004DC002A21D0042A1DD104E0102AD4
:1055C00012D0202A18D119E0747201225FA10020A4
:1055D000FEF782FE75740FE07772022259A1002057
:1055E000FEF77AFE777407E00C467172022257A12B
:1055F0000020FEF771FE7474707C49E7707201221E
:1056000050A1F5E7B379082B51D0102B0CD0202BEB
:1056100065D0402BC9D1F27C082A32D024DC002A84
:1056200041D0042A3DD124E0B17C002917D00229C1
:1056300004D004290AD008290FD110E07072012289
:1056400040A10020FEF748FEB47406E07472012207
:105650003EA10020FEF740FEB574B07C18E714466A
:105660007272022235A1ECE7102A12D0202A18D13A
:1056700019E07472012237A10020FEF72DFEF574A7
:105680000FE0777202222FA10020FEF725FEF774AB
:1056900007E00C46717202222CA10020FEF71CFECE
:1056A000F474F07CF4E67072012226A1F5E7717DB6
:1056B000002903D0042909D008290ED170720122D3
:1056C00020A10020FEF708FE747506E07472012226
:1056D0001EA10020FEF700FE7575707DD8E6327DB4
:1056E000082A1BD004DC002A21D0042A1DD104E0A2
:1056F000102A0AD0202A18D119E07472022215A1AA
:105700000020FEF7E9FD35750FE00C4671720222AC
:1057100012A10020FEF7E0FD347506E07772022248
:1057200008A10020FEF7D8FD3775307DB0E6707215
:10573000012204A1EDE700000C00002020502D25DF
:105740006400000048312D25640000004C6F2D25B9
:10575000640000004C6F312D256400004C6F322D29
:1057600025640000F8B5E04D0023E8882C46203C75
:105770001E461F46802814D0FF38401E0DD0FF382B
:10578000401E04D0FF38FF3802280CD102E001206F
:10579000E07504E00120E07504E0E7750120207663
:1057A00001E0E7752776D0484038417980790129B2
:1057B00004D002290CD0042913D108E0022307E009
:1057C000102809D020280BD040280AD106E0012358
:1057D0000828F5D1062604E0052602E0042600E0AC
:1057E0000326C149002B08780A8B8446488AC98A57
:1057F00066D0012B33D0022B71D16346002B02D02F
:10580000012B6CD119E082420AD32771E771E07D48
:10581000002801D0002100E001210120FFF77EFBDC
:10582000B1484030C16CC06802F0F6FEAE4940316C
:10583000096D02F061FF52D271E081420BD3E77033
:105840000120E071E07D002801D0012100E000216D
:105850000120FFF763FBA4484030C1682BE063469A
:10586000002B02D0012B3AD114E082420AD32771D7
:10587000E771E07D002801D0002100E00121012036
:10588000FFF74CFB984840304169006D02F0B6FFCD
:1058900070D244E081420BD3E7700120E071E07DDB
:1058A000002801D0012100E000210120FFF736FB94
:1058B0008D4840308169006D02F01EFF5AD270E0C1
:1058C0006346002B02D0012B54D12CE082420BD333
:1058D0002771E771E07D002802D0002101E021E07E
:1058E00001210120FFF71AFB7F484030C16C40695D
:1058F00002F092FE7C494031096D02F07FFF39D2FF
:1059000079484030C16C806902F086FE76494031AA
:10591000096D02F0F1FE2DD2288B00282AD101203A
:10592000E070287026E081420BD3E7700120E0711F
:10593000E07D002801D0012100E000210120FFF7D7
:10594000EDFA69484030C16C406902F065FE664975
:105950004031096D02F0D0FE02D2E88A002820D042
:10596000614840308169006D02F0C6FE02D2E88ACB
:10597000002816D0032E71D0042E3AD0052E2BD13C
:105980006878002811D0012826D1688BA98A88421E
:1059900027D3677101202072207E00281DD00121AD
:1059A0001CE0012020712F70E4E7A88BA98A8842AF
:1059B0000AD3A7712772207E002801D0002100E0C1
:1059C00001210020FFF7AAFA474E4036F16C3069FA
:1059D00071E0012060716870F8BD00210020FFF7C0
:1059E0009DFA41484030016932E00120A0716F709A
:1059F000F8BD687800280DD00128F9D1688BA98AF4
:105A0000884222D3677101202072207E002818D09E
:105A1000012117E0A88BA98A88420AD3A7712772AF
:105A2000207E002801D0002100E001210020FFF7A6
:105A300075FA2D484030C169006D02F0DFFED7D203
:105A4000C7E700210020FFF769FA27484030016AC4
:105A5000006D02F051FECBD2C7E7FFE7687800285F
:105A60000DD00128C4D1688BA98A88422ED36771D2
:105A700001202072207E002824D0012123E0A88B61
:105A8000A98A88420BD3A7712772207E002801D0F3
:105A9000002100E001210020FFF740FAF8BD124E7E
:105AA0004036F16CF06902F0B7FD316D02F0A6FEF0
:105AB000F4D2F16C306A02F0AFFD316D02F01CFEE1
:105AC000ECD286E700210020FFF728FA064E403688
:105AD000F16CF06902F0A0FD316D02F00DFE84D38F
