:020000040800F2
:1000000080160020790200087552000899500008F7
:1000100000000000000000000000000000000000E0
:10002000000000000000000000000000355E000835
:100030000000000000000000955C0008B5680008A2
:100040008B0200088B0200088B0200088B0200085C
:100050008B020008054600088B02000831460008A4
:100060008B0200088B0200088B0200088B0200083C
:10007000033200088B0200088B020008E16B0008C5
:100080008B0200088B02000800000000B569000820
:100090008B0200088B0200088B0200088B0200080C
:1000A0008B0200088B0200088B020008B36C00086A
:1000B0008B020008000000008B02000800F002F82C
:1000C00000F0AFF80CA030C8083824182D18A2464C
:1000D000671EAB4654465D46AC4201D100F0A1F824
:1000E0007E460F3E0FCCB6460126334200D0FB1AA7
:1000F000A246AB4633431847A0870000C0870000E4
:100100000023002400250026103A01D378C1FBD833
:10011000520700D330C100D50B60704710B56E296F
:1001200002D101F06DF810BD702902D101F0CFFBB2
:1001300010BD662902D108F08FFA10BD652902D1E1
:1001400008F08AFA10BD672902D108F085FA10BDBF
:10015000612902D108F088FA10BD03681B0A01D397
:1001600080231943692902D100F008F910BD6429E0
:1001700002D100F003F910BD752902D100F0FEF89C
:1001800010BD6F2902D101F04DFB10BD782902D1BD
:1001900001F08AFB10BDE92902D101F0E9FA10BD96
:1001A000E42902D101F0E4FA10BDF52902D101F0F1
:1001B000DFFA10BDEF2902D101F040FB10BDF82994
:1001C00002D101F07FFB10BD0368DB0901D380235E
:1001D0001943632902D101F061FA10BD732902D1DC
:1001E00001F064FA10BDE32902D101F062FE10BDF6
:1001F000F32902D101F065FE10BD002010BD1FB52E
:1002000001F052FC04000020002108F023F8401CFB
:1002100060600020002108F007F8E0601FBD10B505
:1002200010BD02F0CFF91146FFF7E9FF07F09AFA87
:1002300002F05EFC03B4FFF7F2FF03BC06F07FFFA1
:1002400070B505460C46164602E00FCC0FC5103EB1
:10025000102EFAD2082E02D303CC03C5083E042E7A
:1002600007D301CC01C5361F03E021782970641C37
:100270006D1C761EF9D270BD0748804707480047BD
:10028000FEE7FEE7FEE7FEE7FEE7FEE70448054976
:10029000054A064B7047000049690008BD00000888
:1002A00080040020801600208006002080060020A8
:1002B000704700007CB51D4616460C00009001D02A
:1002C0000019401E084B7B442A466946019030467F
:1002D00001F0B9F9002C054603D06946002001F071
:1002E000C5F928467CBD0000AD1300000FB47CB5F5
:1002F0000C0009AA009001D00019401E094B7B4454
:1003000069460190089801F09EF9002C054603D03B
:100310006946002001F0AAF928467CBC08BC04B05C
:10032000184700007513000070B50C460546012AF9
:1003300005D02878800600D5EA69002302E0012371
:1003400005E05B1C934202D2E05C0028F9D1A86969
:10035000E618C01AA861286AC0182862284600F06A
:10036000BEFE04E06A682078A968641C9047B44225
:10037000F8D3284600F0C9FE70BD0000F7B500258F
:1003800075291068009914A611D000F0CFFE00283E
:1003900002DA404211A608E0009909688A0701D5EF
:1003A0000FA602E0490704D50EA6012501E000F0E2
:1003B000C6FE009F0024243704E001F023FB303107
:1003C0003955641C0028F8D12B4632462146009846
:1003D00000F0BEFEFEBD0000000000002D00000089
:1003E0002B00000020000000F3B50446002081B07F
:1003F00020622046E1688847002872D0252802D074
:100400006268A168ABE0594F00267F442046E1684E
:1004100088472028054608DB312D06D27819203878
:100420000078002801D00643F0E7B00701D504208A
:1004300086430020E0610746A0612A2D0AD02846A5
:1004400006F076FE002827D0B8000019303D009055
:10045000856119E00298BA00121902C891610290F0
:100460002046E1688847012F054617D1E06900283A
:100470001FDA202086431CE000980A218069484347
:1004800000994019303888612046E1688847054660
:1004900006F04EFE0028EFD1012F0AD02E2D08D1F4
:1004A0002046E16888470546202006437F1C022F2E
:1004B000C3DBA069002803DA4042A06101200643A3
:1004C000F00701D0102086436C2D0BD0682D09D089
:1004D0004C2D3CD06A2D38D0742D38D07A2D36D0A2
:1004E00016E040E0E1682F4620468847B8420546BE
:1004F00009D16C2F29D001208002E16806432046F3
:100500008847054604E06C2F1DD0FF2001300643CC
:10051000002D28D028464138192803D80120C002D0
:1005200006432035204626602946029A1646FFF7E4
:10053000F5FD002810D001280BD0F61DF008C000F2
:100540000830029055E74020E1E78020D5E7002001
:10055000D3E7361D02964CE762682846A1689047AB
:10056000206A401C44E7206AFEBD0000CA820000E9
:1005700070B5064600F0A4FD0468054630460A2220
:10058000002101F007FA2C6070BD000030B5441C5A
:1005900003E00178401C00290DD08107F9D10B4BF5
:1005A000DD0104C8D11A91432940FAD0001B0A0684
:1005B00003D0C01E30BD001B30BD0A0401D0801E18
:1005C00030BD0902FCD0401E30BD00000101010118
:1005D00001E004C0091F0429FBD28B0701D502806A
:1005E000801CC90700D00270704700290BD0C307D8
:1005F00002D00270401C491E022904D3830702D591
:100600000280801C891EE3E70022EEE70022DFE77C
:10061000002203098B422CD3030A8B4211D30023FF
:100620009C464EE003460B433CD4002243088B42D9
:1006300031D303098B421CD3030A8B4201D3944666
:100640003FE0C3098B4201D3CB01C01A5241830959
:100650008B4201D38B01C01A524143098B4201D313
:100660004B01C01A524103098B4201D30B01C01A3E
:100670005241C3088B4201D3CB00C01A52418308B8
:100680008B4201D38B00C01A524143088B4201D3E5
:100690004B00C01A5241411A00D201465241104645
:1006A00070475DE0CA0F00D04942031000D34042BA
:1006B000534000229C4603098B422DD3030A8B42F0
:1006C00012D3FC22890112BA030A8B420CD389018E
:1006D00092118B4208D3890192118B4204D3890174
:1006E0003AD0921100E08909C3098B4201D3CB01B2
:1006F000C01A524183098B4201D38B01C01A524167
:1007000043098B4201D34B01C01A524103098B426A
:1007100001D30B01C01A5241C3088B4201D3CB0055
:10072000C01A524183088B4201D38B00C01A524138
:10073000D9D243088B4201D34B00C01A5241411A0F
:1007400000D20146634652415B10104601D340423D
:10075000002B00D54942704763465B1000D34042EE
:1007600001B50020C046C04602BD704770477047C3
:100770000246C80FC00781434B0030B54B405B00B9
:100780009B0D20D01923DB06C91801231B059942B4
:1007900020DB0324A40704251346AB400BD3002B16
:1007A00004D1EB0613409B00E34204D40124640708
:1007B000002312195941FF231B0599420BD2C9008E
:1007C0000143500F09E0CB0204D501430803024363
:1007D00005D0054830BDFF21C905084330BD084696
:1007E00007210905884330BD0000C07FF0B5F94DF1
:1007F0000C091E092C402E402F468BB0A7437DD0FC
:10080000B543FCD0002E7AD0002CFCD00D465D40C4
:10081000ED0F2543AC1BFF25AD0464190894C502F8
:10082000440DC9022143500DDC0204430120C007DE
:1008300001430443D2020191200C110C00958C4617
:10084000010423468B430A9161460904E24D8A4321
:100850000991010A7D4449198039097805464D43BB
:1008600001266D18F605751B6943C90C640B891CBC
:100870004C436418B5012C1B250C2E04B4434C4387
:100880004D43210C691889090591009DE90701D0A4
:100890000121C90704912C4601996708CD072F4310
:1008A0004C08059DE10B4D432D0C294666467543CA
:1008B00002950D4645432E46029D7D1BB441009591
:1008C0000D465D4301942C0C2F040D465543AE4656
:1008D0002D0C3D43029503947546049C2D04641B26
:1008E000049406D2029C039D641C00267541039566
:1008F000029401AC70CC009F7D1B01E03EE162E1FF
:10090000B44109040095079101940599A408614335
:10091000090C0C464443650BE7040C4666467443D9
:10092000A646640B3C43039502947446049DE4047C
:100930002C1B049406D2029C039D641C0026754166
:100940000395029401AC70CC009F7D1BB4410194CF
:100950000C465C430095650FE7000C465443A646E1
:10096000640F3C43039502947446049DE4002C1BE1
:10097000049406D2029C039D641C002675410395D5
:10098000029401AC70CC009F7D1BB441AE09AF0650
:10099000049DC900AD092F43049DA406AD0604952E
:1009A000079D344369180791059DE10B4D432D0CBC
:1009B00029466646754302950D4645432E46029DDF
:1009C0007D1BB44100950D465D4301942C0C2F0412
:1009D0000D465543AE462D0C3D4302950394754696
:1009E000049C2D04641B049406D2029C039D641C89
:1009F000002675410395029401AC70CC009F7D1BCD
:100A0000B44101948C050694079C890A61180095ED
:100A10000791019C0599A4086143090C0D464543C3
:100A2000680BEF040D46644665436C0B3C43049F22
:100A3000ED047D1BAC4602D20025641C6841009E7B
:100A4000019D371B85410846584301950C46460FCA
:100A5000C5005443600F28436546E4002C1B02D2B6
:100A60000025401C6E41019D3F1AB5412846BD0935
:100A7000800628438446A009BF064E020699A406B4
:100A800076180743079D002068410A99079019438B
:100A90000020099B00906046FF1913434041E20F7C
:100AA00064003A43A4460446D71A8C41A04203D9B5
:100AB0000120009020463A46C70F941840416246F4
:100AC000D20F2243644664000494009CBE46640036
:100AD000D71AA446044602978C417746002F01D1CD
:100AE000A04204D96046401C8446029A2046C40FA6
:100AF000A64694184041049A0546D20F2243644604
:100B00006400D31A8D417146002901D1A84202D94F
:100B100028461A46641C10430122002800D01643C0
:100B200061020020079B891904465C410223002CC6
:100B300002DB491813466441089DCE0A2D145D1945
:100B40004B056705E10A2C050D1908993E43C907B5
:100B50006940002B08D0934006D30022761C5141F7
:100B6000002B01D1760876001C4A002D43DB15428C
:100B700041D0AA433FD030460BB0F0BD06180D4619
:100B80004D41174C7642AC411AD395181C465C4136
:100B9000134A6D42A24113D3012252054C00D442A4
:100BA0000AD15C00D4420BD04B4002D592021143D3
:100BB000E2E749004908DFE75940C90FC90718E0D3
:100BC00000200849D8E7054801420DD10342F7D07B
:100BD000F2E700000000FF07917E00000000F07FB8
:100BE0000000E0FF0000F87F114859400143C012A7
:100BF00041400020C0E70123089A9B069A4205DC89
:100C0000032252078918C90FC907B5E70522520701
:100C10008918074A1143D2125140ADE770B5154605
:100C20001C4602460B4628462146FFF7DFFD70BDF5
:100C3000FFFFFF7FF0B58B4C0F09254689B0BD4300
:100C40007BD01D092646AE43FAD00E465E402740B3
:100C5000F60F3E43254071D024012142FBD0FF24F2
:100C6000AD19A4042D1B039501252D05DB02DB0A1C
:100C7000C9022B43C90A29431E010901040F130F9E
:100C8000050121431701880B820391432D098C46EE
:100C9000A90B1E438A039543B30B9A0396433F095E
:100CA000BA0B9403A74302962E467E430497B6469A
:100CB0004E19D7190C460196544305977E43371BAE
:100CC0007646BF1B3601B646BE0B361900967646F1
:100CD000BC043719009C01D3641C00946400002FED
:100CE00001D001263443029E049F754366467E432D
:100CF0000496760034196E0034190094029C019E0B
:100D00001C196643751BAE46069465464519059C3D
:100D100005956C43594375460891691A0191049EE3
:100D200001465143A41B0491611A009C0791E106FE
:100D300005D061090122114302E072E06EE0610911
:100D4000089D00272C0A2D066918049D7C412A0A5B
:100D50002D066918019D6241AC0DAD026D1854411C
:100D6000079A910D920255196141029A64465843BF
:100D70005443069B059A5A43121A131B9A0E9B0161
:100D80005B187A41010B0005C3185141220A200665
:100D900044195A419A4200D2491C01204002814222
:100DA00003D315230226F64302E014230326F64359
:100DB0002020C51AA9401746AF40DA400A43204612
:100DC0000399D8400914731819055118039A384328
:100DD000D2075140AC4009D00122944006D30022F2
:100DE000401C5141002C01D1400840001E4A934252
:100DF00012D3012203989206904207DB0520400798
:100E000009181A480143C012414004E0032040077A
:100E10000818C10FC907002009B0F0BD0020F10774
:100E2000FAE705180C464C4111486D42A04115D314
:100E300094181A465A410E48644290410ED301203C
:100E40004A004005824209D35A00824206D35940E3
:100E5000C90F084AC90700201143DDE700200649F1
:100E6000DAE700000000FF07FE070000FFFFFF7F3A
:100E70000000E0FF0000F07F0000F87F0121C905BD
:100E80000123411842001B06D3185B0E0AD0C11083
:100E90000722D206891840075242D14201D552009A
:100EA00089187047090208D50146002A03D0C10FEE
:100EB000C9070020704710467047420202D0002048
:100EC00002497047072109050143F4E70000F87F54
:100ED000F0B5FF252D04C609C209FF2704462E40A0
:100EE0000137CB093E4348402A402B400746002AA1
:100EF0006BD0002B69D0AA4267D0AB4265D00028E6
:100F000000DA32460125ED0529432C43090220026F
:100F1000090AD21A4B0C7F24E31A434C000A7C4482
:100F2000E35C7D242404121914145B00A218884287
:100F300001D3521C00E0400049420C465C4324119E
:100F40005C43DB016415E318040A5C43C502200D11
:100F50000C4644436419250A5D432303EC0C0D46FB
:100F6000654300030019EB184C42A34201D35B1800
:100F7000401CD4052018002B07D05B00C91804D3EF
:100F8000401C002901D1400840003F2189048A42C9
:100F900009D3002A08DC1106090F04D003214907F0
:100FA0004018C00FC007F0BD012241001206891889
:100FB0007F2252069142F6D205214907C84201D547
:100FC0009010F0BDFF20C005F0BD002F00DA3246C2
:100FD0001648AA4207D2AB4205D21902090E17D011
:100FE000F80FC007F0BDFF2563002D06AB42F9D80E
:100FF0004900A942F6D8AB4201D1A942F2D0A94298
:1010000001D1002101E061004908D0050843F0BD8D
:101010001102090EFBD0FF200243D005F0BD0A46A5
:101020000146104654E70000477800000000C07FEA
:101030000102C21504D00123DB071943002A0ADB91
:101040009E239A1A02D40846D0407047FF224100DE
:101050001206914201D900207047C017C043704763
:101060001F22030C02D10F2200041CD0030E01D159
:101070000002083A030F01D10001121F830F01D1B2
:101080008000921E002801DB4000521ED20551183C
:10109000021251181922904004D3491C002801D192
:1010A0004908490008467047C10FC90700D04042AF
:1010B000012292071143D3E701218907D0E7704746
:1010C000004870472004002010B5FFF7F9FF0068C2
:1010D00010BD10B50446FFF7F3FF046010BD70B5F6
:1010E000044685690068C10601D5302600E0202647
:1010F000C00707D070BD62683046A1689047206A7B
:10110000401C20626D1EF6D570BD70B50446856921
:101110000078C00707D170BD6268A16820209047A1
:10112000206A401C20626D1EF6D570BD09684A0514
:1011300001D540B27047C905FCD500B270470968B7
:101140004A0501D5C0B27047C905FCD580B27047C9
:10115000FFB504460D4681B0243000902168880612
:1011600004D51022E0699143216000E00120A842EB
:1011700001DD471B00E000270498A1697A191018C7
:10118000081AA0612078C00602D42046FFF7A7FF06
:10119000002608E003986268A168805D9047206A95
:1011A000401C761C206204988642F3DB2078C0063F
:1011B0000AD52046FFF793FF06E06268A168302059
:1011C0009047206A401C206238467F1E0028F4DCCD
:1011D00007E000986268A168405D9047206A401C63
:1011E000206228466D1E0028F3DC2046FFF78DFFA5
:1011F0002078000602D5022005B0F0BD0120FBE7F3
:1012000011680268006A530501D5087009E0D3052A
:1012100001D5088005E0130602D5C21705C100E01C
:1012200008600120704700007047FFB50C461E465D
:101230008FB003CA089009914F007D0D00D16D1E3B
:10124000002108460020C0460321099A890508406C
:10125000002A03DA8200801840080840800D012827
:101260000A9002DD0020C0430A90089807430DD081
:10127000EF48F049281848430714189800281DD053
:101280007542291E1DDD0A9842421BE0189801286C
:1012900002D00020302104E00020F24305E0215478
:1012A000401CB042FBDB30460022189B0021215439
:1012B0000F998B600A60486013B0F0BDBD1B6D1CB8
:1012C000DFE70A9A002900DA69420BA800F072FEF3
:1012D0000BAB07CB03AB07C30899099800F0CEFE10
:1012E0006B4607C30146D4480918002D00910ADD5A
:1012F000D14903980A9A4942401803A903906846C5
:1013000001F0EFF807E003990A9A081803A903907F
:10131000684601F0AEF86B4607C30004000C03D02A
:101320000020C043410800E01046189A002A03D06C
:101330000022009215461EE0751E05D400F0B8FB91
:10134000303262556D1EF9D501220843079602D04E
:1013500000227F1C04E02078302801D100227F1E6B
:10136000002A069789D01EE0112D07DA00F0A0FBB5
:10137000303262556D1C02460A43F5D1084303D052
:101380000098002819D00EE00021681E05E0235CBB
:10139000625C63542254401E491C8142F7DBA81B47
:1013A000401E07950690079A18990020A0540F98A0
:1013B000079B069A81600CC07EE7112600201890DA
:1013C0005BE7D21DF0B50D460446D10893B0C900C5
:1013D00003C90C900D9105F029FE02460D98C00F2F
:1013E00001D02D2007E02068810701D52B2002E0E5
:1013F0004007C00F4001032A0F9001D0072A05DBE8
:1014000003462946204600F005FD0EE120788006BF
:1014100001D5E76900E006272846652D04D0662837
:1014200014D0672D69D12DE00020112F009001DB31
:10143000112300E07B1C0CAA03A910A8FFF7F5FEFE
:101440001199002610987D1C0E9142E001203B4628
:101450000CAAC0070B900120009003A910A8FFF769
:10146000E4FE119D12981099002600280E9501D1D6
:10147000781C0D18781B02D446427D1C761EE81B92
:1014800000903AE0012F00DA01270020112F009090
:1014900001DD112300E03B460CAA03A910A8FFF7C9
:1014A000C4FE11993D46109800260E912178090737
:1014B0000BD40E99A94200DA0D4603A9012D04DDD3
:1014C0004A19203AD27F302A06D0B84201DA011DEB
:1014D00004DA012100910FE06D1EEFE7002802DC25
:1014E00086192D1A03E0411CA94200DD0D46801B20
:1014F000401C00900120C0070B902078000705D405
:101500000098A84202DB0020C043009069460020FA
:10151000C8720B98012102AF0337C907884225D052
:10152000022010902B2011900B9800280BDA4042DB
:101530000B902D20119006E00B9800F063FA3031EB
:101540007F1E0B9039701099481E00291090F3DC13
:101550000B980028F0D111987F1E38702088000564
:1015600001D5452000E065207F1E387001A8C01B12
:10157000C01D0B900F98002800D001204119009841
:10158000C01709180B980818A169081A401EA06115
:101590002078C00602D42046FFF7A1FD0F9800284E
:1015A00005D06268A1689047206A401C20622078BC
:1015B000C00625D52046FFF792FD21E0002E07DB6F
:1015C0000E98B04204DD03A86268805DA16802E065
:1015D0006268A16830209047206A761C401C206217
:1015E0000098401E002800900AD100F05DFAC06803
:1015F00062680168405CA1689047206A401C2062D4
:1016000028466D1E0028D9DC07E062683878A1689A
:101610007F1C9047206A401C20620B99481E0029BD
:101620000B90F2DC2046FFF770FD032044E600003B
:1016300001FCFFFF104D0000E1DFFFFF01694A1CC4
:1016400002610878704700B58FB0029100210591C2
:101650000549019379440391114604906846FEF7C9
:10166000C3FE0FB000BD0000E5FFFFFF0A68107069
:10167000521C0A6070470CC908399A4202D2531CA6
:101680000B601070704710B54369002B02D0C04644
:10169000C04601E0FEF748FE012010BD1278014669
:1016A00024310A7000224A700122ECE711680022FE
:1016B000D243E8E7F7B50446154686B02B48784490
:1016C000002703C83E460090019111E007986A4642
:1016D0007100415A02A800F035FF411C07D0217863
:1016E000890603D5E269391891420ED83F18761C55
:1016F0002078800602D5E069B84206DDAE42E5DB1F
:1017000007987100405A0028E0D1A069C01BA06171
:101710002046FFF7E4FC154878445A3803C8009087
:101720000020019116E041006A460798415A02A83C
:1017300000F008FF0590401C0AD0002505E0626813
:1017400002A8A168405D90476D1C05988542F6D3BC
:101750000498401CB0420490E5DB206AC019206266
:101760002046FFF7D2FC09B0F0BD0000EA7000008F
:10177000F7B5D21D0025D20815A6D200F52905CA55
:1017800011D0002A05DA00214042914111A60A46F3
:1017900008E0009909688B0701D50FA602E0490708
:1017A00001D50EA601251146009F0024243704E030
:1017B00000F07EF930323A55641C02460A43F7D1F4
:1017C0002B46324621460098FFF7C2FCFEBD0000C2
:1017D000000000002D0000002B0000002000000091
:1017E00070B504460021243408E05507D2086D0F77
:1017F000303565545D072A43DB08491C15461D43F7
:10180000F3D10468002310A2250708D5A40601D44B
:10181000002904D0C46901230CA2641EC461FFF72F
:1018200097FC70BD10B5044621461068FFF787FC91
:10183000002302462046FFF7D3FF10BDD21DD1087A
:10184000C9000CC9CCE70000000000003000000017
:10185000F8B50F460188090502D5224C7C4402E008
:10186000204C7C440E3405460021243508E0160740
:101870001209360FA65D6E541E0732431B09491C20
:1018800016461E43F3D1224604780023240705D5CB
:10189000702F06D0002901D002231132FFF758FC27
:1018A000F8BD01231032F9E770B504460D46214614
:1018B0001068FFF744FC0023024629462046FFF744
:1018C000C7FF70BDD21DD308DB000CCBC0E730B41E
:1018D000036820241268234303600823C36130BCDB
:1018E0000023B5E7546F00000FB4002300B589B0A2
:1018F0000CA900910B99CB60224B7B44224A7A447D
:101900000792042206930192204A0292204A7A44C6
:101910006B4608920246002006F0AEFE09B008BCF5
:1019200004B0184770B5064615460C46324686B0D8
:101930000020C04301900020049004A8009102916F
:101940006946FFF7D1FF024604982118002D05D003
:10195000002801D0084600E02046286004980028AE
:101960000DD0002A02DD0098884208D03246081BBC
:101970006946019004A800940294FFF7B5FF06B0F1
:1019800070BD0000CD050000E9050000FFFFFF7FEE
:1019900019020000F7B50F460026009C2578641C4C
:1019A000002D05D000F078F80068405DC007F5D143
:1019B0002B2D02D02D2D18D0641E3946029A2046B8
:1019C00000F0A5FA002F04D03968A14201D1009996
:1019D00039607105022400290BDA4042002803DD3A
:1019E000FFF76EFB0460A007FEBD012080020643E6
:1019F000E3E70028F8DAFFF763FB04600048FEBD68
:101A0000FFFFFF7F01468008081A02091018020A2A
:101A10001018020C1018C008820012185200891AFF
:101A200001E0401C0A390A29FBD2704710B5FF2398
:101A30001B0644009C421DD84C009C421AD8034609
:101A4000124A0B4307D4401A02D3EFF3008010BDB3
:101A5000EFF3008010BD081A06D2EFF300800121D9
:101A60009043C907084302E0EFF30080904380F3FE
:101A7000008810BD0D231B041A4204D0114600201B
:101A800000F080FD10BD00F095FD10BD000000903D
:101A9000004870472004002010B500F005F8001D34
:101AA00010BD00BFB167000000487047400400202F
:101AB0000B4670B5024689078008084319469D0801
:101AC000141AA94125090807054308092C1948419A
:101AD000250A01060D43010A2C194141200C0D0471
:101AE00028430D0C00194D41002140194D41C008FB
:101AF00069070843E908840F8D00254384002418F2
:101B00004D4124196D41121BAB4107E00925ED43FE
:101B10002C11521963410024401C61411C460A25C6
:101B20000026551BB441F1D270BD10B50446FFF735
:101B3000B3FF0068005DC007C00F10BDD21DF0B537
:101B400004460D46D0088DB0C0004668076831468F
:101B5000384605F06BFA0246F00F01D02D2307E05E
:101B60002068810701D52B2302E04007C00F430105
:101B70006846002B037001D0012000E00020032AFA
:101B80000A9001D0072A04DB2946204600F042F9DA
:101B90002DE12078800601D40D2500E0E569700074
:101BA000400D0D2D01904BDA300D00210B900846B1
:101BB0000020C046032189050840002E05DA820076
:101BC0008018C20F1018401008408015012801DD50
:101BD0000020C043A9000023182906D39C460A46CA
:101BE0000123183A1B07D34003E001221205CA4023
:101BF00094460C31202902D33A46203900E032467F
:101C00008A40002802DD002A06D119E0002817D1F9
:101C10000121C9078A4213D3194663467F185E41E2
:101C2000002806D10120C007824202D1084687431E
:101C30009E430B98310D814202D00198401C0190C7
:101C40002088000502D57149794402E06F49794442
:101C500019396B460A9830221A540A980A7C401C9B
:101C60001A54401C0A900198002801DC302000E042
:101C700031201872019A0120002A02D0644BD21838
:101C800004E072003A4302D0614A521C0192002DD6
:101C900002DC2278120703D56A462E2050720220F9
:101CA0000022864694460CE032033601120F6D1E68
:101CB0008B5C02AA13546246521C401C9446052AAF
:101CC00001DA002DF0DC002202AE08E03B0F3F01FC
:101CD000CB5C521C6D1E3354401C082A01DA002DC7
:101CE000F4DC23689A0601D511E0401E704504DD3E
:101CF0003218203AD27F302AF7D0002807DD321878
:101D0000203AD27F2E2A02D11A0700D4401E002D7D
:101D100003DD3E223254401C6D1E497C3154019932
:101D2000401C002906DA2D21471C315401984042FD
:101D3000019003E02B21471C315401987D21C900FB
:101D4000884206DBFEF76EFC3030F0557F1C0191B7
:101D500001E0642808DB01986421FEF763FC303061
:101D6000F0557F1C019101E00A2806DB01980A2149
:101D7000FEF758FC3030F0557F1C01980A21FEF721
:101D800051FC3031F1550A98A1697F1C7A1910185D
:101D9000081AA0612078C00602D42046FFF79FF9F8
:101DA000216A6E460A980818206204E0626830785A
:101DB000A168761C90470A98401E0A90401CF5D1F5
:101DC0002078C00602D52046FFF789F902AE09E067
:101DD0003078761C3E280DD06268A1689047206A52
:101DE000401C20627F1EF3D22046FFF78EF90DB013
:101DF0000320F0BD206A4019206203E06268A168F8
:101E0000302090476D1EEDD3F8E70000A36B000073
:101E100001FCFFFFF8B51F46044601230068DB0202
:101E2000032601461840072A05DB002801D017A524
:101E300006E017A504E0002801D016A500E016A5CD
:101E4000102081432160A069C01E002FA06101D035
:101E5000401EA0612046FFF742F9002F09D0384606
:101E60006268A1689047206A401C2062C01C206202
:101E700006E0206AFAE762682878A1686D1C90473E
:101E8000761EF8D22046FFF740F9F8BD4E414E00CD
:101E90006E616E00494E4600696E660010B543697A
:101EA000002B02D0C046C04601E0FFF703FC012032
:101EB00010BD12880146243182840022C28401228E
:101EC000ECE711680022D243E8E74268002A08D014
:101ED00001680B78491C002B03D0521E06C018461F
:101EE00070470121C160881E70474268002A0BD0EC
:101EF000C3680168002B07D183688B4204D0491E58
:101F0000521C06C0002070470020C0437047F7B540
:101F1000154682B00027029C2078641C0197302867
:101F200002D0002D15D015E020780127641C7828F8
:101F300004D0582802D0002D09D00BE0002D01D08C
:101F4000102D07D1207800271025641C02E00825F9
:101F500000E00A250026009610E000990127694359
:101F6000081829467143020C80B200908E1838047C
:101F7000864201D3012001902078641C294600F09C
:101F800040FB0028E9DA0398002805D0002F01D093
:101F9000641E00E0029C04600198002806D0FFF750
:101FA0008FF802210160C81E05B0F0BD0099300411
:101FB0000843F9E7F7B516468AB02F4878446C46CF
:101FC00003467C33C06F5A689B680DC42A48784426
:101FD000763003AC0DC80DC43720C0010818372176
:101FE0001B30FEF71FFB05460C46803D1B3C02D50F
:101FF0006442012000E00020002709900FE0E00784
:102000000BD00C201C497843794432464C39411896
:10201000684600F02EFA6B4607C364107F1C002C44
:10202000EDD1154F7F442C3F15E0E80711D020017A
:10203000C0190EC80691089307920068F04201D1BA
:1020400098190890324606A903A800F012FA03ABCB
:1020500007C36D10641C002DE7D13246694609980C
:10206000002803A802D000F03CFA01E000F001FAD9
:102070000A9B07C30DB0F0BD446800000346400052
:102080000A4610B5400D0BD00121C9070F24A40248
:1020900000191C0364082143540D2143D20207E0B8
:1020A00000210120F2E7D40F490021435200401ED5
:1020B0000029F8DADB0FDB07184310BDFFB50D462A
:1020C000144685B04868516804F08AFF0091019079
:1020D000A868A16804F084FF02910390A868616871
:1020E00004F07EFF029A12188242029201D201206D
:1020F00000E00020019A0B18D2180028019202D0AB
:102100008A4202D903E08A4201D2012000E0002085
:102110000099081800906868A16804F061FF029AAD
:1021200012188242029201D2012000E00020019A9E
:102130000B18D2180028019202D08A4202D903E07B
:102140008A4201D2012000E0002000990818009086
:102150002868216840004900400849084018F549AE
:10216000471814E001994000C90F084300900198F6
:1021700002994000C90F084301900298039940005A
:10218000C90F08430290039840007F1E03900098F7
:102190000028E7DA0898002801D0E74E00E0002682
:1021A000B74228DAF71BF806C00E15D0029B202193
:1021B000091A039A8B401A430392029A019BC24068
:1021C0008B401A430292019A009BC2408B400099B7
:1021D0001A430192C14000917A110BD06B46032043
:1021E000811A01D5002101E0890059588700401E5D
:1021F000D951F5D5374603980299002800D001201F
:10220000014308980291002808460CD0002800D00D
:1022100001200199019A490508430121D20AC90206
:10222000D202019200E001210E9B0122D207012B74
:1022300002D0002B03D013E0002807D116E0904213
:1022400004D890420CD1019B0B4209D0019B591834
:10225000019105D10099491C009101D17F1C009288
:10226000002803D0102108460020C04628682168B5
:10227000019B009A4840C10F0598C90739430EC019
:1022800009B0F0BDFFB587B0099A0898089953685E
:1022900092684068896896460022039317469446E0
:1022A000089A12685300099A5B0812685200520893
:1022B0009A1AA24BD4180A9A002A01D0352200E0BB
:1022C000402206920022012315460492DB07059363
:1022D00024E0002D05D175460346039E4D1BB341F6
:1022E00009D375466646039B491B049D9841059B8F
:1022F0007519AC465F4163463B4308D0059B049E7D
:10230000DD0776082E435B080496059301E0521E14
:10231000641EC50FED0749184041521C069B9A42A6
:10232000D7DB002D04D17546039A6B1A824101D286
:1023300003200CE0039A0B466B404240134303D04A
:10234000014303D0012002E0022000E000206146AA
:1023500001910021009702910A99002905D0614658
:1023600040020143744B019102E080070023029078
:102370009C423ADA1A1BD006C00E15D0029D2021CD
:10238000019C091AC5408C402543029C8C4000D01A
:1023900001242543019C02953D46C4408D403946A9
:1023A0002C43C1400194009154111DD06D4602216F
:1023B000002202290CD10320001B07E0002804DBC7
:1023C0008600AE59002E00D00122401C0328F5DB08
:1023D000081B02D588002A5004E0800028581043CA
:1023E0008A00A850491EE3D51C460A980028029886
:1023F0000CD0002800D001200199019A490508431A
:102400000121D20AC902D202019200E00121109BEF
:102410000122D207012B02D0002B03D013E00028A9
:1024200007D116E0904204D890420CD1019B0B4298
:1024300009D0019B5918019105D10099491C0091BF
:1024400001D1641C0092002803D01021084600200E
:10245000C04608980999019A00680968484000999F
:10246000C30F0798DB0723430360826041600BB012
:10247000F0BD1FB5002300920A46014601A8FFF7F0
:102480001DFE01AB07CB04B010BDF0B585B0012334
:1024900000920A46014601A8FFF710FE01990F229B
:1024A00002989202CF0F4900039E49088C1AFF0739
:1024B0000021002800DB0C46450021486D088442BD
:1024C00006D30D460E460446102108460020C0469D
:1024D0002005E90A084369053843F20A05B01143AB
:1024E000F0BD1FB5002300920A46014601A8FFF780
:1024F000C9FE01AB07CBC6E71FB5012300920A4610
:10250000014601A8FFF7BEFE01AB0F2407CBA402D2
:10251000C30F4000DB074008001B002900DB002040
:10252000490000054908CC0A204349051843D20A4E
:102530001143A8E702C0FFFF013C0000FF3F00007D
:10254000FF07000070B516460C460546FFF7A4FAD3
:102550000368FF200230C05C012807D0FF2C0ED892
:10256000185D00280BD001202C7070BDFF3332465F
:10257000214608331868C3182846984770BD0020C4
:10258000C04370BDC80212D54803400F002804D0D4
:10259000C803C043012188407047EFF30080000169
:1025A000000903210907084380F3008870470020D1
:1025B0007047000010B5024800F0E6FA10BD0000B8
:1025C0000000C07F7546FFF763FAAE460500694616
:1025D0005346C008C000854618B020B5FDF756FE2A
:1025E00060BC00274908B6460026C0C5C0C5C0C5A6
:1025F000C0C5C0C5C0C5C0C5C0C5403D49008D46A9
:1026000070473A2800D23038202302469A43412AA4
:1026100001D310463738884201D30020C0437047A9
:10262000FFB58BB00878FF2806D0491C2D2805D0AF
:1026300000230020009009E000200EE00123F8E7CD
:10264000009A0A2462438018491C00900878FF28E9
:10265000F6D1002B02D0009840420090002503954F
:102660002C460D9800782D2801D02B2815D10D99D6
:10267000491C2D280D9102D0002003900DE001206F
:10268000FBE7401C214600270A223B460D902846C6
:1026900000F0A9FA35183C464C410D980678FF2EFB
:1026A000EFD1002108460020C0460399002902D03E
:1026B0008100401840080002870F012F01DD00272C
:1026C000FF430E9900984618284620430BD0FF2060
:1026D000F530C64210DA0398C1070B9841600B9998
:1026E0000020086018E00398C1070B9841600B991F
:1026F000002008600FB0F0BDFF20F530864210DDED
:10270000F648784406C80B9806C00B9803994068B1
:10271000C90708430B994860FEF7D2FC022101600B
:10272000E8E7311E01DA7A4200E03A46002900DA91
:10273000714207A8FFF73EFC07AB07CB04AB07C30A
:10274000E748009000200146214304D12C4605466D
:10275000E34920390091210C0904014306D1290CD9
:1027600024040C4300992D0410390091210E090610
:10277000014306D1290E24020C4300992D02083989
:102780000091210F0907014306D1290F24010C43B1
:1027900000992D01091F0091A10F8907014306D15E
:1027A000A90FA4000C430099AD00891E0091E10F10
:1027B000C907084304D100986D196441401E009078
:1027C0003A466846002E04A90295019402DDFFF7FF
:1027D0005CFE01E0FFF790FE044603980D460028DA
:1027E00002D00120C0074440BE4E6000400828438C
:1027F00003D06000400DB04214D1FEF761FC02210D
:1028000001606000400DB0420CD1B748784406C862
:102810000B9806C00B98E10FC907406808430B9955
:10282000486067E70B9844600B98056062E7FFB566
:102830001F4695B0002000250C909E685C68ED4313
:102840001390FFF731F9C0680168405C1490B969D2
:1028500016986D1C88470A90396A88470028F6D177
:102860000A98401C0AD00D20C0018443002E12DDBE
:102870000A982B2809D02D280DD103E00020C04351
:1028800019B0F0BD012080020443B96916986D1C8F
:102890008847761E0A90600504A901D52D2000E026
:1028A0002B206A46491C107410A8002E0D910B9025
:1028B0003BDD0A98692805D0492803D06E2801D04D
:1028C0004E281DD13B46039002200296179A169976
:1028D000C0430095019405F0DFFEC11CD0D10FE08C
:1028E000B96916986D1C88470A900120761E40022F
:1028F0000443179805601398401C002E139014DDB4
:102900000A983028ECD0782801D058280DD1139897
:1029100001280AD13B460296179A1699001F009586
:10292000019405F0B1FEC11CAAD114990A988842FD
:1029300046D18020044308E00C981799401E0C9063
:10294000012040020443681C0860B9696D1C169898
:10295000761E884730280A90EED031E014998842DC
:1029600005D1200603D480200443761E1EE00A9879
:1029700004F0DEFB002826D0012008A94002044311
:102980000D980331761E88420BD20A980D99303883
:1029900008700D98401C0D90200607D50C98401E1D
:1029A00003E0200602D40C98401C0C90A00502D530
:1029B0001799681C0860B96916986D1C88470A90B9
:1029C000002ECBDC59E0002E57DD0A98652801D097
:1029D000452852D1A00550D50320B969000284438F
:1029E0006D1C1698761E8847002E0A900CDD2B2849
:1029F00004D02D2808D1FF2001300443B96916986E
:102A00006D1C8847761E0A90E00501D52D2100E057
:102A10002B210B9801700B98401C0B90009025E027
:102A2000012012A9400204430B980131761E88420E
:102A30000ED20A980B9930380006000E087003D1A8
:102A400000990B9888420AD90B98401C0B9006E01D
:102A5000E00501D5254801E0244840420C90B969C1
:102A600016986D1C88470A9017980560002E04DDA3
:102A70000A9804F05DFB0028D2D1F96916988847BE
:102A80000D99FF2004AA08700B99087000200E9081
:102A90000F900C9B10A90EA8FFF7C2FDA00502D451
:102AA0000120C043ECE62420044209D0E00713D102
:102AB00038680F9A0E99031D3B60006806C00BE052
:102AC0000EA9684604F0DCFAE00705D13868009AE0
:102AD000011D3960006802602846D1E6B26100003D
:102AE0003E400000FF070000A8600000F1D8FFFF93
:102AF00010B50446C046C0462046FDF79BFB10BDFE
:102B0000024670B50A4392072AD11E4DEE0104C851
:102B100008C9541B9443344017D0D0B2D9B2401ADC
:102B20002106014310D190B299B2401A2104014309
:102B30000AD110021902000A090A401A21020143AF
:102B400002D1100E190E401A70BD9A42DFD010BA91
:102B500019BA884201D9012070BD0020C04370BD60
:102B600002780B78401C491C002A09D09A4207D1F0
:102B700002780B78401C491C002A01D09A42EFD001
:102B8000D01A70BD0101010110B50C461107090FE3
:102B9000092904D00A290AD008290CD104E01146D9
:102BA0000820FFF7EFFC06E0510606D501E05106CC
:102BB00001D50120C007214610BDD10607D501016E
:102BC0000909CC084907000E0006044309E0410F3B
:102BD00020024907000A0143200E00061D22D141B0
:102BE00001430846E7E74343514330B55C18010C05
:102BF000130C0D4692B25D4380B251432C19054629
:102C000055430A0C09044D1962415843010C000454
:102C10004019514130BD0000FFB51F4689B01398DF
:102C200012994005C00FC007059000200790054687
:102C30000446461E049002903C20491C12910690C6
:102C4000B9690A98884703901498401E1490149804
:102C5000002841DD03982E2816D01021FFF7D1FC63
:102C6000002834DB01210491079901431AD0069909
:102C700000290CDB069AC11700F006FA05430698F6
:102C80000C43001F069006E0012002900EE0002891
:102C900001D001200543012007900298002805D1AA
:102CA000361D03E00298002800D0361F1298401C01
:102CB0001290B9690A98884703901498401E14909E
:102CC00004980028C3D00B9912980860BFE70398B6
:102CD000702808D0502806D0F9690A9888470498C7
:102CE000002815D051E000200390012002900498A4
:102CF00000280AD01298401C1290B9690A98884797
:102D00001499491E0029149106DCF9690A9888472C
:102D10000120C0430DB0F0BD2B2804D02D280DD1CB
:102D20000020C04302901298401C1290B9690A9882
:102D300088471499491E00291491E6DD411CE4D00E
:102D40000A21FFF75EFC0028DFDB03990A225143CA
:102D5000081803901298401C1290B9690A98884785
:102D60000A21FFF74EFC14990B9A491E14911299EF
:102D700011601499002901DD0028E6DAF9690A9842
:102D800088470299039848438619139824210840DC
:102D900004902846204304D0A10F8907090002D0DF
:102DA00006E005989BE0A90FA4000C43AD00B61EF9
:102DB000E10FC907080002D16D196441761E04981D
:102DC000002803D00B2002905D4803E028200290E9
:102DD0007D20C0438642039007DA811B02980818C1
:102DE0004128029001DD41200290029A0120002139
:102DF000521E00F049F9024628400B462140084384
:102E000001D0012000E0002007900020521EC043A6
:102E100043412A4023401A4301D0012000E0002012
:102E200007990690014352D0002108460020C04671
:102E30000321059A89050840002A05D082008018E0
:102E4000C20F1018401008408015012802DD002034
:102E5000C04301E0012815D0401C38D00798002855
:102E600035D0069800280DD1029A0120002100F0EB
:102E70000BF928402140084301D0012000E0002048
:102E8000002824D0029A0120002100F0FDF803461A
:102E900040198C4661412A1A8C410FD30298402870
:102EA00007DD0498039E002801D0343E02E0173E5F
:102EB00000E0761C01240025E40708E05B1E624662
:102EC0000024E4436241DD43D44305400C400398B1
:102ED0000121081AB04206DA1A4905980843019000
:102EE000002000900EE060006205010BE80A10432C
:102EF000059A009068460A4313490A4331460192F5
:102F000004F00CF9049800280AD01398C00714D1D3
:102F10003868019A0099031D3B60006806C00CE008
:102F200002A8694604F0ACF81398C00705D13868C8
:102F3000029A011D3960006802601298EAE60000FA
:102F400002FCFFFF0000F07F0000F03FFFB51D46D0
:102F500087B01198484A109C129E40051399C00FE3
:102F6000761EC0070243019200220092FF22D20582
:102F70001043202291434929059003D017464E293A
:102F800028D04FE03DA002AA0BC801270BC2A969B7
:102F90000898641C8847761E014607D402A8C05DC5
:102FA000002803D02022914381420AD0E969089881
:102FB0008847032F36D0082F34D00120C0430BB0F0
:102FC000F0BD7F1C032F01D0082FE0D10999601CB0
:102FD0000860DCE7A9690898641C8847761E2DD430
:102FE000B84341282AD1A9690898641C8847761EED
:102FF00024D4B8434E2821D1A9690898641C884775
:1030000001990122D204114301910599D200114383
:1030100005910999761E0C6001D4282806D0E9692B
:10302000089888471198C00712D023E0A96908982A
:10303000641C8847761E01D4002803DAE9690898E1
:103040008847BAE72928F1D10998641C0460E9E7A8
:1030500011982421084207D02868019A0099031D7D
:103060002B60006806C005E028680599021D2A60EB
:10307000006801602046A2E70000F07F494E464903
:103080004E4954590000000010B5202A04DB0146C7
:10309000203A9140002010BD914020239C1A034605
:1030A000E3401943904010BDF8B5224C4E00069DF8
:1030B000A6420AD8A64201D1002806D15E00A64247
:1030C00003D8A6420AD1002A08D00D2424042542A0
:1030D0002CD029460020FFF755FAF8BD0C461C43BA
:1030E0000CD4994202D0EFF30080F8BD904202D098
:1030F000EFF30080F8BDEFF30080F8BD092424074A
:10310000E5008B4206D0EFF30080A043591A06D2A7
:10311000284304E0101A05D3EFF30080A04380F3A6
:103120000088F8BDEFF30080A043F1E7009500F0C0
:1031300033F8F8BD0000E0FF70B505464800440DC7
:10314000124B0020002C0AD0634008D09A4206DAC5
:103150006642B24203DD12054019514170BD002C98
:1031600008D0002B09D0C90FC907002AF6DB084A8E
:10317000114370BDC90FC90770BD28460A0310432B
:1031800002D00020034970BD284670BDFF07000033
:103190000000F07F0000F87F10B500200249029A7D
:1031A000FFF7F2FC10BD00000000F87F70B58C182E
:1031B0000578401C6B075B0F01D10378401C2A1176
:1031C00006D10278401C03E00678401C0E70491CB2
:1031D0005B1EF9D12B0705D40023521E0DD40B70B2
:1031E000491CFAE70378401CCB1A921C03E01D78B7
:1031F0000D70491C5B1C521EF9D5A142D8D300208A
:1032000070BD10B500F060F810BD00000149086005
:1032100070470000002401401949CA6818239A43E6
:1032200003789B07DB0E1A43CA60CA6820239A43BF
:103230004378DB079B0E1A43CA60CA6804239A438B
:103240008378DB075B0F1A43CA60CA684B149A4342
:10325000C378DB079B0C1A43CA60CA6803239B022E
:103260009A4343799B071B0D1A43CA60CA68FF2320
:103270000079C13340079A43C00D0243CA607047CA
:1032800000240140034A936A034393625069084350
:10329000506170470024014000210170417081702D
:1032A000C170017141717047024881680122114368
:1032B000816070470024014002494A6802434A6025
:1032C0007047000000240140F8B5082000F04EF8D7
:1032D000012822D10820FFF799FF00F041F80F4C98
:1032E0000F4E2546803DE0636A7FA76B5100735AFD
:1032F0007052FB1A1E186421501CA663FDF788F952
:10330000697764213046FDF783F980B20549A062F0
:1033100048430549FDF77CF9E062F8BD8C000020C8
:103320005C010020E40C0000FF0F00000B4B0020AC
:1033300099685A05114399600F2212039968401C3D
:10334000C90F904201D00029F8D19868002803DB0A
:103350000248403000687047002070470024014058
:103360000148006880B270474024014006494A681D
:10337000096802400140002A03D0002901D0012041
:1033800070470020704700000024014010B5012460
:103390006402204602F0A0FC204602F07DFC10BD35
:1033A0000248816804221143816070470024014073
:1033B00010B50420C04303F071FA074805490068BE
:1033C000FDF726F905497D22086080B2D2005043FE
:1033D000486010BD00127A000000002004000020A8
:1033E00001B50B490098496848430A4948610023E0
:1033F0008B6108690122104308610869C20701D086
:10340000C003FAD508694008400008618B6108BD17
:103410000400002000E000E001B50B4900980968B5
:1034200048430A49486100238B610869012210431F
:1034300008610869C20701D0C003FAD508694008CD
:10344000400008618B6108BD0400002000E000E03E
:1034500010B501F013FDFFF7ABFF01F085F801F0A7
:103460007FFD01F07BFC00F0F5FF01F0EFFD00F0C7
:103470007BFC01F08DF80A4801F0BEF909480121F2
:103480004170002140304167416F8167064804F078
:10349000E7FD05483021008848430149486010BDD8
:1034A000640200204C00002070020020F8B5334E6A
:1034B000B07D3446603425460027803D002823D067
:1034C0002FA1002000F057F97775B775A87D042863
:1034D00012D006DC012809D0022809D0032813D114
:1034E00008E010280AD020280ED109E0E16808E0A1
:1034F000216906E0616904E0A16902E0E16900E098
:10350000216A002003F044FDA87A00282AD0012077
:10351000F072F0761AA1002000F02DF9AF72687AEF
:10352000042820D009DC012810D0022813D0032859
:1035300018D180436872616911E0102818D02028E2
:1035400010D1DF2108406872216A08E0400840007D
:103550006872E16803E0FD2108406872216900207B
:1035600003F016FDF8BDFB2108406872A169F6E77B
:10357000EF2108406872E169F1E700002C000020AB
:10358000202020200000000015480122C16E920377
:103590008B1A4030914218D00BDC124A891A1AD08B
:1035A000891A14D05200914202D132210182418203
:1035B0007047991A0DD00122D203891A0DD05200FA
:1035C0009142F5D17D210901F0E76421EEE70A215E
:1035D000ECE7FA21EAE70221E8E7FF21F531E5E728
:1035E0000C00002000080000F8B506460B0003F0B0
:1035F0000FFD351C1E2225282C2F3234363A3D4132
:1036000045487B484B835153538C8F585A1C5E60FE
:1036100062282C65677236743D4176787B7E8183A3
:103620008689538C8F585A926A00032260E00D22DB
:1036300002250D2447E00B22002504E00C2203257F
:10364000F7E70B2202E001243DE003220625FAE71A
:103650000B2204251CE003222EE003225CE00A2258
:103660001BE00C242FE003220A2518E00B2253E074
:10367000002428E0032201250E2424E0032209254A
:10368000EFE70B220025D4E703220E2505241AE0DC
:10369000092418E008220FE00B220025E1E70224AC
:1036A00011E0092208E00C22002503240BE00B2284
:1036B00018E00A2224E00A220625D2E7092217E0B0
:1036C00003220FE00824330003F0A2FC08282C306A
:1036D00034383C404447002215E0032210E0022227
:1036E00000E00A220625EDE703220625CEE70122A7
:1036F00006259EE7022203E009220625C8E70B22E1
:103700000625B5E70A220025DCE707220825A8E7F9
:1037100004220925C3E700220025A9E71421132765
:1037200012261AE0112110270F2616E00E210D2770
:103730000C2612E00B210A2709260EE00621072796
:1037400008260AE003210427052606E000210127B8
:10375000022602E0172118271926052001F070FA29
:103760002A463946052001F06BFA224631460520EB
:1037700001F066FAF8BDF8B500240E4607460425A8
:103780002046002F0FD1002C06D0012C06D0022C91
:1037900006D0032C06D006E0072004E0062002E055
:1037A000052000E00420315D0A46613A192A02D959
:1037B0002032192A6FD841390B0003F029FC3A6DE9
:1037C000707376797C7F8285888B8E9194979A9D91
:1037D000A0A3A6A9ACAFB2B5B8F2F2F2F2F2F21E13
:1037E0002124272A2D303336393C3F4245484B4E61
:1037F0005154575A5D60636669F2C0B21A2198E06D
:10380000C0B21B2195E0C0B21C2192E0C0B21D21C4
:103810008FE0C0B21E218CE0C0B21F2189E0C0B28F
:10382000202186E0C0B2212183E0C0B2222180E0C5
:10383000C0B223217DE0C0B224217AE0C0B22521AC
:1038400077E0C0B2262174E0C0B2272171E0C0B297
:1038500028216EE0C0B229216BE0C0B22A2168E0C5
:10386000C0B22B2165E0C0B22C2162E0C0B22D2194
:103870005FE0C0B22E215CE0C0B22F2159E0C0B29F
:10388000302156E0C0B2312153E0C0B2322150E0C5
:10389000C0B233214DE04FE0C0B2002149E0C0B2D8
:1038A000012146E0C0B2022143E0C0B2032140E062
:1038B000C0B204213DE0C0B205213AE0C0B2062109
:1038C00037E0C0B2072134E0C0B2082131E0C0B215
:1038D00009212EE0C0B20A212BE0C0B20B2128E062
:1038E000C0B20C2125E0C0B20D2122E0C0B20E21F1
:1038F0001FE0C0B20F211CE0C0B2102119E0C0B21D
:10390000112116E0C0B2122113E0C0B2132110E061
:10391000C0B214210DE0C0B215210AE0C0B21621D8
:1039200007E0C0B2172104E0C0B2182101E0C0B224
:103930001921FFF759FE34E00A46303A092A26D801
:10394000130003F065FB0A06090C0F1215181B1E65
:10395000212EC0B2002122E0C0B201211FE0C0B27E
:1039600002211CE0C0B2032119E0C0B2042116E01C
:10397000C0B2052113E0C0B2062110E0C0B2072199
:103980000DE0C0B208210AE0C0B2092107E02D29EC
:103990000CD07C290AD02F2908D0C0B20A2100F00F
:1039A000B9FB641CAC4200DAEAE6F8BD2D2908D068
:1039B0002F2909D07C29F4D1C0B2022100F03DFCAE
:1039C000EFE7C0B20121F9E7C0B20021F6E700003D
:1039D000F1220549002803D048791040487170470A
:1039E00088791040887170471003002010B50022BC
:1039F0001521052001F024F900221621052001F0EF
:103A00001FF910BDF3B587B00D460846FCF7BEFDA3
:103A1000024614286ADA0027009701970297039755
:103A2000049738463B463C463946059704E06E5CB1
:103A30002E2E00D10C46491C9142F8DB944214DA38
:103A40000022694604E0AE5C401C8E54C0B2521C99
:103A5000A242F8DB0F5403A902E0C8545B1CDBB29E
:103A6000641C285D0028F8D1CF546846FCF780FD1F
:103A700005466846FCF78AFD044603A8FCF778FD76
:103A8000064603A8FCF782FD079900297ED003288B
:103A90002ED002284AD0012879D0002826D17D21B5
:103AA000C9002846FCF7BEFD0A21FCF7BBFDC9B2E0
:103AB000002000F02FFB64212846FCF7B3FD0A210B
:103AC000FCF7B0FDC9B2012000F024FB0A21284612
:103AD000FCF7A8FD0C460A21FCF7A4FDC9B20220A0
:103AE00000F018FBE1B2032000F014FB09B0F0BDB8
:103AF000002D19D00A212846FCF794FDC9B20020F8
:103B000000F008FB0821012000F068FB642130462A
:103B1000FCF788FD0A21FCF785FDC9B2012000F001
:103B2000F9FA0A213046D3E70A21E8E7012C02D04E
:103B3000022C0AD01BE0002D05D00A212846FCF7F4
:103B400071FDC9B210E00A210EE0002D24D00A2137
:103B50002846FCF767FD0C460A21FCF763FDC9B255
:103B6000002000F0D7FAE1B2012000F0D3FA0A21D8
:103B70003046FCF757FD0C460A21FCF753FDC9B24D
:103B8000022000F0C7FAE1B2032001E03EE008E0C5
:103B900000F0C0FA042135E00A21002000F0BAFA52
:103BA000D1E7032C04D0022C0DD0012C19D020E039
:103BB00064212846FCF736FD0A21FCF733FDC9B223
:103BC000002000F0A7FA0A212846FCF72BFD0C463E
:103BD0000A21FCF727FDC9B2012000F09BFAE1B2EF
:103BE00004E00A212846FCF71DFDC9B2022000F0BE
:103BF00091FA0A213046FCF715FDC9B2032000F006
:103C000089FA0221012000F0E9FA6FE703281FD0AA
:103C100002283BD0012874D00028F6D16421284620
:103C2000FCF700FD0A21FCF7FDFCC9B2062000F0FC
:103C300071FA0A212846FCF7F5FC0C460A21FCF72C
:103C4000F1FCC9B2052000F065FAE1B204204BE7AF
:103C5000002D19D00A212846FCF7E4FCC9B2072040
:103C600000F058FA0821002000F0B8FA642130462C
:103C7000FCF7D8FC0A21FCF7D5FCC9B2062000F0FD
:103C800049FA0A213046D6E70A21E8E7012C02D09A
:103C9000022C0BD01CE0002D06D00A212846FCF790
:103CA000C1FCC9B2062011E00A21FBE7002D21D09A
:103CB0000A212846FCF7B6FC0C460A21FCF7B2FCA8
:103CC000C9B2002000F026FAE1B2012000F022FA89
:103CD0000A213046FCF7A6FC0C460A21FCF7A2FCA0
:103CE000C9B2052000F016FAE1B2042000F012FA81
:103CF000042137E00A21002000F00CFA0A21E4E751
:103D0000FFE7032C04D0022C0DD0012C19D020E0A9
:103D100064212846FCF786FC0A21FCF783FCC9B223
:103D2000072000F0F7F90A212846FCF77BFC0C4637
:103D30000A21FCF777FCC9B2062000F0EBF9E1B2EA
:103D400004E00A212846FCF76DFCC9B2052000F00A
:103D5000E1F90A213046FCF765FCC9B2042000F005
:103D6000D9F9022100204EE710B500F00DFF10BD7B
:103D7000F7B590B00D460446202102A8FCF746FC9A
:103D8000680040080A901298002702AE002806D06A
:103D900001280BD0022850D0032818D154E028461F
:103DA000FDF76CF8CDA20191009005E02846FDF7E3
:103DB00065F8CCA2019100901E2102A8FCF796FAAA
:103DC00031182039CF77002877DB1E2875D20122E1
:103DD000D205A91A0F91C549C54B69180E911298C1
:103DE000E918C44F0D91E9190C91690049088A1A24
:103DF0000B92BE4ACF198A180192CA180092002865
:103E000029D001286FD002286ED0032855D1FF2079
:103E1000C005C54269D2B848854267DBB7490F98EB
:103E2000884263D335200E99C0048142F9D3D92149
:103E30000D9849048842F4D3CBE02846FDF71EF8DC
:103E4000AFA201910090B7E72846FDF717F8AEA2A0
:103E500001910090B0E7FF20C005C5422ED2A648D0
:103E6000854203DBA5480F9981420FD202A9204663
:103E7000FFF7C8FD002C04D00A21002000F04AF909
:103E80002AE00A21072000F045F934E035210E9898
:103E9000C90488427CD3D9200D994004814202D2C2
:103EA0000A21002006E025210C98890388425DD272
:103EB0000A21072000F02EF990E057E094490A9873
:103EC00088421FDA711C2046FFF79CFD002C0ED0A3
:103ED0000121002000F0B1F90A21012000F01AF9B7
:103EE0000A21022096E05AE0AEE0E1E064E0012120
:103EF000072000F0A2F90A21062000F00BF90A21A0
:103F0000052087E07D490B98884217D2711C204616
:103F1000FFF778FD002C08D00A21012000F0FAF804
:103F20000121002000F089F9DAE70A21062000F0DB
:103F3000F1F80121072000F080F9E0E73521019830
:103F4000C904884279D2711C2046FFF75BFD002C22
:103F500071D177E0B11C2046FFF754FD002C15D13C
:103F60001BE0002000E0072000F067F913B0F0BD6F
:103F7000252080038742F9D8B11C2046FFF742FD77
:103F8000002C06D00021012000F0C4F80421E8E74D
:103F900010E00021062000F0BDF80421E3E7FF2037
:103FA000C005C5421FD25448854203DB53480F99D0
:103FB000814258D202A961E002A97EE00A210020D4
:103FC00028E00A21072025E0D9210D9849048842DC
:103FD00004D325210C9889038842C7D202A9204620
:103FE000FFF710FDC2E744490A98884215DA711CB0
:103FF0002046FFF707FD002C06D00121002000F02D
:1040000089F80A21012005E00121072000F082F84B
:104010000A21062000F07EF8A8E738490B9888426C
:104020008CD2711C2046FFF7EDFC002C06D00A2133
:10403000012000F06FF8012193E74AE00A210620F1
:1040400000F068F801218EE702A92046FFF7DAFCAC
:10405000FF20C005C5420CD227488542AADB27486D
:104060000F998142A8D335210E98C9048842ABD25A
:10407000A2E727490A98884209DA711C2046FFF70F
:10408000C1FC002C01D00A21B8E70A21BDE71B4979
:104090000B98884200D256E735210198C90488421E
:1040A000F9D3D92100984904884200D360E751E749
:1040B00017490A98884207DA711C2046FFF7A2FCCC
:1040C000002C00D17DE779E70C490B988842E2D3B8
:1040D00034E7D92149048A42E8D23BE7252E3166EC
:1040E00000000000252E3266000000000000E0BE47
:1040F000000038BD000086BBBD3786350000A040FB
:10410000252E336600000000252E346600000000D6
:10411000CDCCCC3DF8B506460B0002F079FF0B0B79
:104120000D1014181C1E292C2E07210000221546E4
:10413000144615E00B221CE00022154609E00A2275
:10414000062505240CE0082218E00D2408E00122D1
:1041500006250C2404E0092200E00B220625092490
:10416000330002F055FF080D1115191D2125292CCA
:1041700000220025E9E70B2200E009220625E4E7FA
:104180001421132712261AE0112110270F2616E0FA
:104190000E210D270C2612E00B210A2709260EE01E
:1041A0000621072708260AE003210427052606E042
:1041B00000210127022602E01721182719260520D1
:1041C00000F03EFD2A463946052000F039FD224622
:1041D0003146052000F034FDF8BD000030B50E2258
:1041E000551A0A4A012854790AD013469B790028A7
:1041F0000AD0022805D0032801D10B43937130BDAA
:10420000AC430C43547130BDAB43F6E710030020C0
:104210000FB43EB50021029104460091019109219D
:1042200008AB6846079AFCF745F869462046FFF751
:10423000A2FA3EBC08BC04B01847F3B583B0002016
:10424000019000900498030002F0E2FE0604070AC1
:10425000150E1215042200270CE00022062701E0AB
:1042600003220027002606E0002206270C2602E093
:104270000422092702260398030002F0C9FE08055C
:104280000A1015191D223527142113251224082080
:1042900003E0112110250F240420019016E00E21C7
:1042A0000D250C240220F8E70B210A2509240DE036
:1042B00006210725082409E00321042505240220FE
:1042C00003E0002101250224042000900498032823
:1042D0000FD0052000F0B4FC3A462946052000F036
:1042E000AFFC324621460CE017211825192408207E
:1042F000EBE70398042802D21521019A01E0009A05
:104300001621052000F09CFC05B0F0BD70B50C46F0
:10431000012862D10A2C06D20A212046FCF778F93E
:104320000320FFF7F7FE20460A385A280ED20A214A
:104330002046FCF76DF90D460A21FCF769F90220C9
:10434000FFF7E8FE29460320FFF7E4FE2046E121BF
:1043500064388900884218D264212046FCF758F955
:104360000A21FCF755F90120FFF7D4FE0A21204667
:10437000FCF74EF90D460A21FCF74AF90220FFF737
:10438000C9FE29460320FFF7C5FE7D21C900184A52
:10439000601A904221D82046FCF73AF90A21FCF72E
:1043A00037F90020FFF7B6FE64212046FCF730F90C
:1043B0000A21FCF72DF90120FFF7ACFE0A21204667
:1043C000FCF726F90C460A21FCF722F90220FFF738
:1043D000A1FE21460320FFF79DFE002215210520A6
:1043E00000F02EFC00221621052000F029FC70BDF3
:1043F0002723000010B5094A54798C4301280AD0BC
:1044000013469B798B43002803D0022803D003284E
:1044100000D1937110BD547110BD00001003002035
:1044200010B5044686B00846FCF728FD01910090BF
:1044300006A20A2102A8FBF759FF0A2803DA02A9FB
:104440002046FFF7DFFA06B010BD0000252E3166CA
:104450000000000010B500F0F9FC0E4C00232246CD
:104460000A210D4800F066F80B48012322460A2174
:10447000103000F05FF80848022322460A2120305D
:1044800000F058F80448032322460A21303000F097
:1044900051F810BD0000C842B002002070B50446BB
:1044A0000068A168884242D2012109030926626896
:1044B000CD00F6069042207B1AD2002803D10122BB
:1044C000304600F0B9FC207B012804D101221021E4
:1044D000304600F0B1FC207B022804D1012229469D
:1044E000304600F0A9FC207B03281FD1012219E0EF
:1044F000002803D10022304600F09EFC207B0128DA
:1045000004D100221021304600F096FC207B0228C6
:1045100004D100222946304600F08EFC207B03287F
:1045200004D100222021304600F086FC70BD00201E
:10453000206070BDF8B50D4604461F460949104677
:10454000FCF7C6FC06462846FCF7B6FD314603F0EC
:1045500097FFFCF76DFDA560606000202060277369
:10456000F8BD00000000C84210B500F0B7FA10BD59
:1045700010B506490A884B88521CD2B2934204D027
:104580000B88CC1FF93CE0540A8010BD18040020B1
:1045900010B500F00DFD10BD10B5064C1521627967
:1045A000052000F04DFBA2791621052000F048FB04
:1045B00010BD0000100300200848017A4030202977
:1045C00009D0402904D0802907D17D21C90003E00A
:1045D000FF21F53100E0FA21818370470C000020B3
:1045E00010B50748817F002909D0C17F002906D076
:1045F000002181778030416B012002F057FC10BD13
:104600000C00002010B5022000F05CF8012804D155
:1046100000F07EFD022000F019F8012000F052F8B1
:10462000012804D100F092FD012000F00FF810BD28
:1046300010B5FF240134204600F044F8012804D1CD
:1046400000F0A2FD204600F001F810BD01494861CC
:10465000704700000004014083790179184A002B5B
:1046600004D0002910D0012913D016E0002906D06B
:10467000012903D151680068814351607047116876
:104680000068814311607047116803681943116025
:1046900003E05168036819435160417900290AD049
:1046A000012903D09168036819439160D1680068BB
:1046B0000143D16070479168006801439160704781
:1046C00000040140034A0146526900200A4200D01A
:1046D0000120704700040140F0B50B2706463F0457
:1046E000384600F055F800280FD1084C2069022503
:1046F00028432061666120694021084320613846D3
:1047000000F046F82169A9432161F0BD0020024074
:104710000248016980221143016170470020024074
:10472000F0B5012706467F030D46384600F030F805
:1047300000280CD1064C20690121084320613580F6
:10474000384600F025F82169490849002161F0BD8B
:104750000020024007490020C9684A0701D502200D
:104760007047CA0601D503207047C907FCD0012055
:10477000704700000020024003480249416003499D
:10478000416070472301674500200240AB89EFCDAF
:1047900000B50346FFF7DEFF5B1E012803D0002BA8
:1047A00000D1042000BD002BF4D1FAE770B50D460E
:1047B0000646402901D3022070BD0121A802C90686
:1047C0004418A00504D148422018C912884201D3D8
:1047D000022007E0FFF7D0FF2046FFF77DFFFFF73D
:1047E00097FF00200028E7D13068A84202D10020BE
:1047F00070603072002070BD3F2101600021416077
:104800000172704730B5402801D3022030BD012429
:104810008002E40604190020A41809E02218128876
:10482000451C0A549D4202D2120A0D186A70801C5F
:104830009842F3D3002030BD70B515460E460446AD
:104840002A463146204600F00BF8002807D00528FC
:1048500005D120462168FFF7A9FF0028F0D070BDE0
:10486000FEB50646007A1746002801D00520FEBD99
:10487000306801228002D2068218012370689B02F0
:104880001B1A9F4202D901203072EFE780180024E2
:104890000191009026E0601CB842019805D20019F1
:1048A000417802780802104302E0005D0002FF3008
:1048B000009902900D19E80706D11F20C0060121BA
:1048C00028180904884201D3022008E0FFF754FFAA
:1048D00028460299FFF724FFFFF71AFF002000285F
:1048E000C5D1A41CBC42D6D37068C019706000202A
:1048F000FEBD000070B58CB00024474803F0B0FB4B
:10490000464D0198E96803F03FFE4000444E4008E0
:10491000B04200DD01240298296903F035FE400011
:104920004008B04200DD01240398696903F02CFEC1
:1049300040004008B04200DD01240498A96903F05A
:1049400023FE40004008B04200DD01240598E969DB
:1049500003F01AFE40004008B04200DD0124069832
:10496000296A03F011FE40004008B04200DD012436
:104970002A488038417982790346114340339A8826
:104980001143C26E1143026F1143426F11436960BC
:10499000C279067ADB8832431A43836FC06F1A43A9
:1049A000024328680243AA600798884200D0012485
:1049B0001A4E08988036904200D001240998316838
:1049C00003F00AFD00D001240A98716803F004FD89
:1049D00000D0012408A8427B10486038C17B8A427D
:1049E00000D00124EA680C4842602A6982606A6942
:1049F000C260AA690261EA6942612A6A82616A68E0
:104A0000C261AA68026220304173002C02D02038B3
:104A100003F0F2FB0CB070BD700200208C0000208F
:104A2000BD37863581627047F0B50022032501232A
:104A30000C8893401C422DD08B78012B01D0022B87
:104A400015D1846853002E469E40B44384600C798F
:104A50009C4083681C4384604368CC789440A343A3
:104A600043604368CC789440A4B223434360066813
:104A700053002C469C40A64306608E7807689E40F3
:104A80003E430660C668A643C6604C799C40C36836
:104A90001C43C460521C102AC9D3F0BD10B50F23AB
:104AA000072909D88900046A8A408B409C43046224
:104AB000016A1143016210BD4907C90E446A8A4068
:104AC0008B409C434462416A1143416210BD0069BE
:104AD000084000D001207047816170471FB5012058
:104AE000400401F0E1F80120400201F0EDF801205E
:104AF00001F0EAF840216846018103218172002417
:104B00004473092002A9C006FFF78EFFFEF73EFCA2
:104B10006846FEF7C1FB684604704470847001214A
:104B2000C17004714471FEF777FB07214020FEF746
:104B3000A9FB02210C2000F09FFB0820FEF7BCFB24
:104B4000FEF7F4FBFEF7B0FBFEF72AFC1FBD10B525
:104B5000002400222146052000F072F8641CA4B253
:104B6000312CF6D310BD10B52921042000F024F813
:104B70000321042000F020F80121042000F01CF89B
:104B8000FFF7E5FF10BD00001CB50120800401F017
:104B90008BF8E0206A461080012090700020D070D1
:104BA00003211171507169460248FFF73DFFFFF77D
:104BB000DAFF1CBD00040048F8B50D46064600218A
:104BC000084600F0A5F80120FEF726FC0024042783
:104BD0000021012000F09CF83946E14031400220DC
:104BE00000F096F80120FEF717FC0121084600F0BE
:104BF0008FF80120FEF710FC641C032CE8DB002476
:104C000080260021012000F083F83146E140294050
:104C1000022000F07DF80120FEF7FEFB012108468E
:104C200000F076F80120FEF7F7FB641C092CE8DBA6
:104C30000121002000F06CF80120FEF7EDFBF8BD2B
:104C4000F8B50E46074600211546084600F060F804
:104C50000120FEF7E1FB00240421E140394002205D
:104C600000F056F80520FEF7D7FB0021012000F0E8
:104C70004FF80520FEF7D0FB0121084600F048F868
:104C80000120FEF7C9FB641C032CE5DB0024202770
:104C90003946E1403140022000F03AF80520FEF7A5
:104CA000BBFB0021012000F033F80520FEF7B4FB28
:104CB0000121084600F02CF80120FEF7ADFB641C32
:104CC000062CE5DB002401263046A0402840C1B276
:104CD000022000F01DF80520FEF79EFB00210120B8
:104CE00000F016F80520FEF797FB0121084600F0BA
:104CF0000FF83046FEF790FB641C042CE4DB012126
:104D0000002000F005F80120FEF786FBF8BD00004A
:104D100010B50F4A002807D001280BD002280FD168
:104D2000002913D0202108E0002901D0802104E0CF
:104D3000802107E0002904D040211046FFF7CCFE77
:104D400010BD40211046FFF76DFE10BD2021F9E790
:104D50000004004810B500F0A1F910BDF0B5012025
:104D600085B0400400F0A0FF0120800400F09CFF0B
:104D7000012000F0A9FF022569460D8000248C70F7
:104D8000032609200E71C006FFF74EFE0127694673
:104D90000F808C7009200E71C006FFF745FEE801F8
:104DA000694608808C700E711448FFF73DFE0121A2
:104DB000002001F041F80021084601F03DF80821EB
:104DC000012001F039F8694602958F730C734D7319
:104DD00002A8FFF741FC02A80297FFF73DFCE8019B
:104DE000029002A8FFF738FC0121052000F044FAE8
:104DF0000121072000F040FA05B0F0BD0004004892
:104E000010B5FFF764FE10BD10B5002806D00948A4
:104E1000002901D0022106E0022108E00920C00695
:104E2000002903D08021FFF757FE10BD8021FFF736
:104E3000F9FD10BD0004004810B5002A02D0FFF7AC
:104E40004BFE10BDFFF7EEFD10BD00001CB50120AC
:104E5000400400F029FF08486A4610800120907045
:104E60000020D07003211171507109206946C006DD
:104E7000FFF7DAFD1CBD00003090000034480168E7
:104E80000122114301604168324A114041600168CA
:104E9000314A11400160016801229204914301608E
:104EA00041683F22120491434160416809090901A8
:104EB0004160016BFF22543291430163416B490809
:104EC00049004163002181600168012212041143FD
:104ED000016000210522120203689B0702D4491CCD
:104EE0009142F9D30168890730D51C490A6810231B
:104EF0001A430A600A68D208D200521C0A6041684C
:104F0000F0229143416041680722120291434160BF
:104F100041680322D2039143416041680F22920409
:104F200091430522D2048918416001681A05114392
:104F3000016001688901FCD5416889088900891CE4
:104F4000416041680907890F0229FAD170470000C2
:104F5000001002400CB8FF08FFFFF6FE00200240E0
:104F60003EB5012000F0A8FE0124A407204601F070
:104F700041FE00216A46117291700C4801902F2069
:104F8000108051726946204601F03AFE0121204608
:104F900001F02DFE0121204601F07DFE00210F20B1
:104FA00000F06AF9204601F071FE3EBDE703000003
:104FB00030B5012087B0400400F076FE0120800368
:104FC00000F082FE0921CD0601222846FFF766FD8A
:104FD00001220A212846FFF761FD022168468170FF
:104FE00009020180032101710024C4700121417173
:104FF00069462846FFF718FD0121890268460180AD
:1050000069462846FFF710FDE120400202900C217E
:1050100068460175C4824482048203940A4C02A942
:10502000204601F04DFE2021204601F09CFE10217B
:10503000204601F098FE03211B2000F01DF92046B8
:1050400001F08CFE07B030BD003801407CB5012076
:10505000400400F029FE0120800400F025FE80219C
:1050600068460180012686700024C47003250571FE
:10507000447109206946C006FFF7D6FC0221684644
:1050800001808670C4700571447169460148FFF75C
:10509000CBFC7CBD00040048704700000249014879
:1050A00008607047AAAA000000300040164901229B
:1050B000C96E920300208B1A91421AD00DDC134A5C
:1050C000891A1CD0891A16D05200914200D1322080
:1050D0000D494031088248827047991A0DD001224B
:1050E000D203891A0DD052009142F1D17D200001E6
:1050F000EEE76420ECE70A20EAE7FA20E8E702207E
:10510000E6E7FF20F530E3E70C0000200008000090
:1051100010B50A20FEF764F909200221C006FFF746
:105120006FFE0949002804D0087B4008400008733E
:1051300010BD0A7B012002430A734A7B02434A7373
:105140008873087110BD0000A002002010B50A206D
:10515000FEF746F909200121C006FFF751FE094973
:10516000002804D0087BFD221040087310BD0A7B84
:10517000022002430A734A7B02434A730120887368
:10518000087110BDA002002010B50A20FEF728F912
:10519000FF2101310A48FFF733FE0A49002804D0F5
:1051A000087BFB221040087310BD0A7B04200243D9
:1051B0000A734A7B02434A7301208873087110BD49
:1051C00000040048A002002070B5294D0121A86FFD
:1051D00009042C46401A0026203400280AD08842B0
:1051E00000D12675E079002807D001210220FEF7C2
:1051F000F5FF06E001202075F4E701210220FFF70A
:10520000F9F8207A002804D001210320FEF7E6FFF8
:1052100003E001210320FFF7EDF80122286F92043B
:10522000811A6420002908D0891A11D05200891AE5
:105230001BD05200914215D112E0217D012905D0E9
:1052400000290FD1217A00290FD109E0E179FAE78D
:10525000217D012907D0002904D1217A002904D019
:105260006E76E87670BDE179F8E76876EE7670BD27
:105270000C000020704700008207D30EFF229A40E6
:105280008907090E10B5994000280BDA03071B0F98
:10529000083B9C080B4BA400E318DC6994430C43C7
:1052A000DC6107E08408084BA400E3181C68944301
:1052B0000C431C60C106C90E0120884003490860E8
:1052C00010BD000000ED00E000E400E000E100E0BF
:1052D000F8B50020FEF77CFBD64E0222737910272A
:1052E0002021012B18D0042408250320022B77D07D
:1052F000042B4CD1B379082B73D0102B7CD0202BEE
:1053000071D0402B43D1F27B082A6DD06DDC002A8E
:105310006CD0042A6BD194E0B079012408283BD0EA
:1053200010280DD020283FD0402830D1307B0028D5
:105330002ED0012819D010281FD0202825D127E0F1
:10534000F07A00280ED0012802D0022808D109E006
:10535000144672720222B8A10020FEF759FFF472BF
:10536000F07A13E074720122F5E777720222B4A199
:105370000020FEF74DFF377307E00C4671720222E2
:10538000B1A10020FEF744FF3473307BB075F8BD47
:1053900074720122A8A1F4E774720122A6A1002070
:1053A000FEF736FFB475F8BD707B002820D00128C9
:1053B00004D010280AD0202810D119E077720222D8
:1053C0009FA10020FEF724FF777307E00C4671725F
:1053D00002229DA10020FEF71BFF7473707BD5E7AE
:1053E0008EE04CE008E05FE033E025E043E02FE0B2
:1053F0007472012290A1EDE7B17B002917D0022938
:1054000004D004290AD008290FD110E070720122BB
:105410008BA10020FEF7FCFEB47306E0757201223A
:1054200089A10020FEF7F4FEB573B07BAEE7144609
:105430007272022280A1ECE7102A12D0202A18D121
:1054400019E07472012280A10020FEF7E1FEF573DD
:105450000FE0777202227AA10020FEF7D9FEF773DF
:1054600007E00C467172022277A10020FEF7D0FE01
:10547000F473F07B8AE77072012271A1F5E7317C49
:10548000042909D008298ED1707201226CA1002054
:10549000FEF7BEFE3474F8BD747201226AA10020CA
:1054A000FEF7B6FE3574F8BD727C082A12D004DC13
:1054B000002A21D0042A1DD104E0102A12D0202A6B
:1054C00018D119E0747201225FA10020FEF7A0FE3E
:1054D00075740FE07772022259A10020FEF798FE42
:1054E000777407E00C467172022257A10020FEF784
:1054F0008FFE7474707C49E77072012250A1F5E749
:10550000B379082B51D0102B0CD0202B65D0402B19
:10551000C9D1F27C082A32D024DC002A41D0042AE6
:105520003DD124E0B17C002917D0022904D0042900
:105530000AD008290FD110E07072012240A100208A
:10554000FEF766FEB47406E0747201223EA10020EC
:10555000FEF75EFEB574B07C18E714467272022244
:1055600035A1ECE7102A12D0202A18D119E0747264
:10557000012237A10020FEF74BFEF5740FE0777291
:1055800002222FA10020FEF743FEF77407E00C462D
:10559000717202222CA10020FEF73AFEF474F07C16
:1055A000F4E67072012226A1F5E7717D002903D08F
:1055B000042909D008290ED17072012220A10020EF
:1055C000FEF726FE747506E0747201221EA100200B
:1055D000FEF71EFE7575707DD8E6327D082A1BD059
:1055E00004DC002A21D0042A1DD104E0102A0AD0AC
:1055F000202A18D119E07472022215A10020FEF7AA
:1056000007FE35750FE00C467172022212A10020D0
:10561000FEF7FEFD347506E07772022208A1002035
:10562000FEF7F6FD3775307DB0E67072012204A1F9
:10563000EDE700000C00002020502D256400000044
:1056400048312D25640000004C6F2D2564000000BA
:105650004C6F312D256400004C6F322D2564000005
:10566000FEB5FF4F00220092B8883C460125203C41
:105670001646802811D0FF38401E0BD0FF38401E40
:1056800004D0FF38FF38022809D101E0A67402E0F7
:10569000A67403E0A574E67401E0A574E574F0480F
:1056A000403841798079012904D0022928D0042981
:1056B00011D124E0022223E0102804D0202806D0B3
:1056C000402808D101E0052004E0042002E0032086
:1056D00000E006200090E24B3D20403BC15C40339F
:1056E000D88A0190188A9B8A002A9C4679D0DC4B84
:1056F000203B1B79012A46D0022A73D103E0012204
:105700000828E6D0D8E7002902D00129F5D121E008
:105710000199814201D3267101E0002B0DD1A07CBB
:10572000002805D000210120FFF76EFBE67104E0A0
:1057300001210846FFF768FBE571C9484030C16C9C
:10574000C06802F003FEC6494031096D02F06EFEEA
:1057500048D2A9E0844501D3E67002E0E078002851
:105760000DD1A07C002805D001210846FFF74CFB95
:10577000E57104E000210120FFF746FBE671B8481F
:105780004030C16848E0002902D001292AD11CE03C
:105790000199814201D3267101E0002B0DD1A07C3B
:1057A000002805D000210120FFF72EFBE67104E060
:1057B00001210846FFF728FBE571A94840304169FF
:1057C000006D02F0B5FE0DD26EE0844510D3E67098
:1057D000A07C002807D001210846FFF715FBE571E2
:1057E00006E01EE062E000210120FFF70DFBE671FC
:1057F000E07800280DD1A07C002805D001210846C2
:10580000FFF702FBE57104E000210120FFF7FCFA3D
:10581000E671934840308169006D02F007FE45D281
:105820009AE0002902D001297CD140E0019981420F
:105830000ED32671A07C002805D000210120FFF79F
:10584000E3FAE67104E001210846FFF7DDFAE571AD
:10585000207900280DD1A07C002805D0002101204E
:10586000FFF7D2FAE67104E001210846FFF7CCFA0F
:10587000E5717B484030C16C406902F067FD7849B2
:105880004031096D02F054FE4CD275484030C16C75
:10589000806902F05BFD72494031096D02F0C6FD7E
:1058A00040D2F88A00283DD1E57065773AE084451A
:1058B0000ED3E670A07C002805D001210846FFF732
:1058C000A3FAE57104E000210120FFF79DFAE671DB
:1058D000E07800280DD1A07C002805D001210846E1
:1058E000FFF792FAE57104E000210120FFF78CFA3E
:1058F000E6715B484030C16C406902F027FD5849B1
:105900004031096D02F092FD02D2B88A002823D0FE
:10591000534840308169006D02F088FD02D2B88A98
:10592000002819D00098032878D0042863D00528CF
:1059300075D1A07F002812D0012870D1388B798AC8
:10594000884241D36671E07C002838D001210020D4
:10595000FFF75AFA257237E025716677E2E7788B10
:10596000798A88420ED3A671E07C002805D00021F8
:105970000846FFF749FA267204E001210020FFF7EC
:1059800043FA2572A07900280DD1E07C002805D0CB
:1059900000210846FFF738FA267204E001210020B2
:1059A000FFF732FA25722E4E4036F16C306902F064
:1059B000CDFC316D02F03AFD31D26571C5E00021B8
:1059C0000846FFF721FA2672607900280DD1E07CA5
:1059D000002805D001210020FFF716FA257204E007
:1059E00000210846FFF710FA26721D484030016971
:1059F0005CE0A571CCE0A07F002811D001280ED179
:105A0000388B798A88423ED36671E07C002835D095
:105A100001210020FFF7F8F9257234E04BE095E012
:105A2000788B798A88420ED3A671E07C002805D055
:105A300000210846FFF7E8F9267204E00121002062
:105A4000FFF7E2F92572A079002810D1E07C002848
:105A500008D000210846FFF7D7F9267207E00000BA
:105A60004C00002001210020FFF7CEF925724C48A0
:105A7000C169006D02F05CFD68D29EE70021084616
:105A8000FFF7C2F92672607900280DD1E07C00286A
:105A900005D001210020FFF7B7F9257204E00021AD
:105AA0000846FFF7B1F926723D48016A006D02F021
:105AB000BDFC4BD29DE7A07F00280FD0012845D127
:105AC000388B798A884247D36671E07C00283ED0C3
:105AD00001210020FFF798F925723DE0788B798A43
