:020000040800F2
:10000000281300205D020008CD35000811350008D6
:1000100000000000000000000000000000000000E0
:10002000000000000000000000000000613A00082D
:1000300000000000000000000D3A0008013F000829
:100040006F0200086F0200086F0200086F020008CC
:100050006F020008792E00086F020008A52E000824
:100060006F0200086F0200086F0200086F020008AC
:10007000E51E00086F0200086F0200081141000829
:100080006F0200086F020008000000000140000835
:100090006F0200086F0200086F0200086F0200087C
:1000A0006F0200086F0200086F0200086F0200086C
:1000B0006F020008000000006F02000800F002F864
:1000C00000F0BDF80CA030C8083824182D18A2463E
:1000D000671EAB4654465D46AC4201D100F0AFF816
:1000E0007E460F3E0FCCB6460126334200D0FB1AA7
:1000F000A246AB4633431847084900002849000090
:10010000103A02D378C878C1FAD8520701D330C860
:1001100030C101D504680C60704700000023002442
:1001200000250026103A01D378C1FBD8520700D32E
:1001300030C100D50B60704710B56E2902D100F0B8
:10014000BDFC10BD702902D101F009F810BD66296F
:1001500002D104F0A5FB10BD652902D104F0A0FB7B
:1001600010BD672902D104F09BFB10BD612902D1AB
:1001700004F09EFB10BD03681B0A01D380231943C2
:10018000692902D100F0C0F810BD642902D100F045
:10019000BBF810BD752902D100F0B6F810BD6F296B
:1001A00002D100F087FF10BD782902D100F0C4FF12
:1001B00010BDE92902D100F023FF10BDE42902D1CE
:1001C00000F01EFF10BDF52902D100F019FF10BD8F
:1001D000EF2902D100F07AFF10BDF82902D100F01A
:1001E000B9FF10BD0368DB0901D3802319436329DC
:1001F00002D101F048FA10BD732902D101F04BFA87
:1002000010BDE32902D101F055FA10BDF32902D146
:1002100001F058FA10BD002010BD1FB501F036F8EE
:1002200004000020002104F0F3F9401C606000206D
:10023000002104F0D7F9E0601FBD10B510BD01F03A
:10024000A1FD1146FFF7E9FF04F00EF801F0C8FD2B
:1002500003B4FFF7F2FF03BC01F03EFE07488047FE
:1002600007480047FEE7FEE7FEE7FEE7FEE7FEE79A
:1002700004480549054A064B70470000953F0008B1
:10028000BD000008280100202813002028030020BA
:10029000280300207CB51D4616460C00009001D0B6
:1002A0000019401E084B7B442A466946019030469F
:1002B00000F027FE002C054603D06946002000F020
:1002C00033FE28467CBD0000890C00000FB47CB5CD
:1002D0000C0009AA009001D00019401E094B7B4474
:1002E00069460190089800F00CFE002C054603D0EA
:1002F0006946002000F018FE28467CBC08BC04B00B
:1003000018470000510C0000F7B50025752910684A
:10031000009914A611D000F03EFB002802DA4042FA
:1003200011A608E0009909688A0701D50FA602E026
:10033000490704D50EA6012501E000F035FB009F1A
:100340000024243704E000F04FFF30313955641C9D
:100350000028F8D12B4632462146009800F056FB83
:10036000FEBD0000000000002D0000002B0000007A
:1003700020000000F3B50446002081B02062204632
:10038000E1688847002872D0252802D06268A168F9
:10039000ABE0594F00267F442046E168884720287B
:1003A000054608DB312D06D2781920380078002860
:1003B00001D00643F0E7B00701D5042086430020B2
:1003C000E0610746A0612A2D0AD0284603F044FFC9
:1003D000002827D0B8000019303D0090856119E051
:1003E0000298BA00121902C8916102902046E16891
:1003F0008847012F054617D1E06900281FDA202021
:1004000086431CE000980A218069484300994019FE
:10041000303888612046E1688847054603F01CFFB4
:100420000028EFD1012F0AD02E2D08D12046E168F7
:1004300088470546202006437F1C022FC3DBA069A6
:10044000002803DA4042A06101200643F00701D0F2
:10045000102086436C2D0BD0682D09D04C2D3CD03C
:100460006A2D38D0742D38D07A2D36D016E040E081
:10047000E1682F4620468847B842054609D16C2FCF
:1004800029D001208002E1680643204688470546BE
:1004900004E06C2F1DD0FF2001300643002D28D032
:1004A00028464138192803D80120C00206432035C8
:1004B000204626602946029A1646FFF73DFE002890
:1004C00010D001280BD0F61DF008C00008300290B3
:1004D00055E74020E1E78020D5E70020D3E7361D2F
:1004E00002964CE762682846A1689047206A401C43
:1004F00044E7206AFEBD00002645000070B50646B0
:1005000000F01EFA0468054630460A22002100F079
:1005100033FE2C6070BD000030B5441C03E0017850
:10052000401C00290DD08107F9D10B4BDD0104C817
:10053000D11A91432940FAD0001B0A0603D0C01EED
:1005400030BD001B30BD0A0401D0801E30BD090241
:10055000FCD0401E30BD00000101010101E004C0DB
:10056000091F0429FBD28B0701D50280801CC90713
:1005700000D00270704700290BD0C30702D0027070
:10058000401C491E022904D3830702D50280801C27
:10059000891EE3E70022EEE70022DFE700220309DD
:1005A0008B422CD3030A8B4211D300239C464EE08E
:1005B00003460B433CD4002243088B4231D303094A
:1005C0008B421CD3030A8B4201D394463FE0C309FC
:1005D0008B4201D3CB01C01A524183098B4201D314
:1005E0008B01C01A524143098B4201D34B01C01AFF
:1005F000524103098B4201D30B01C01A5241C30877
:100600008B4201D3CB00C01A524183088B4201D3E5
:100610008B00C01A524143088B4201D34B00C01AD1
:100620005241411A00D201465241104670475DE0E6
:10063000CA0F00D04942031000D340425340002269
:100640009C4603098B422DD3030A8B4212D3FC2212
:10065000890112BA030A8B420CD3890192118B4291
:1006600008D3890192118B4204D389013AD09211A7
:1006700000E08909C3098B4201D3CB01C01A524162
:1006800083098B4201D38B01C01A524143098B422B
:1006900001D34B01C01A524103098B4201D30B0114
:1006A000C01A5241C3088B4201D3CB00C01A524139
:1006B00083088B4201D38B00C01A5241D9D2430820
:1006C0008B4201D34B00C01A5241411A00D201465D
:1006D000634652415B10104601D34042002B00D5C7
:1006E0004942704763465B1000D3404201B5002089
:1006F000C046C04602BD7047704770470121C9051A
:100700000123411842001B06D3185B0E0AD0C1100A
:100710000722D206891840075242D14201D5520021
:1007200089187047090208D50146002A03D0C10F75
:10073000C9070020704710467047420202D00020CF
:1007400002497047072109050143F4E70000F87FDB
:10075000F0B5FF252D04C609C209FF2704462E4027
:100760000137CB093E4348402A402B400746002A28
:100770006BD0002B69D0AA4267D0AB4265D000286D
:1007800000DA32460125ED0529432C4309022002F7
:10079000090AD21A4B0C7F24E31A434C000A7C440A
:1007A000E35C7D242404121914145B00A21888420F
:1007B00001D3521C00E0400049420C465C43241126
:1007C0005C43DB016415E318040A5C43C502200D99
:1007D0000C4644436419250A5D432303EC0C0D4683
:1007E000654300030019EB184C42A34201D35B1888
:1007F000401CD4052018002B07D05B00C91804D377
:10080000401C002901D1400840003F2189048A4250
:1008100009D3002A08DC1106090F04D00321490777
:100820004018C00FC007F0BD012241001206891810
:100830007F2252069142F6D205214907C84201D5CE
:100840009010F0BDFF20C005F0BD002F00DA324649
:100850001648AA4207D2AB4205D21902090E17D098
:10086000F80FC007F0BDFF2563002D06AB42F9D895
:100870004900A942F6D8AB4201D1A942F2D0A9421F
:1008800001D1002101E061004908D0050843F0BD15
:100890001102090EFBD0FF200243D005F0BD0A462D
:1008A0000146104654E700002F4100000000C07FC1
:1008B0000102C21504D00123DB071943002A0ADB19
:1008C0009E239A1A02D40846D0407047FF22410066
:1008D0001206914201D900207047C017C0437047EB
:1008E0001F22030C02D10F2200041CD0030E01D1E1
:1008F0000002083A030F01D10001121F830F01D13A
:100900008000921E002801DB4000521ED2055118C3
:10091000021251181922904004D3491C002801D119
:100920004908490008467047C10FC90700D0404236
:10093000012292071143D3E701218907D0E7000084
:1009400000487047C800002070B5044685690068FB
:10095000C10601D5302600E02026C00707D070BDB3
:1009600062683046A1689047206A401C20626D1E74
:10097000F6D570BD70B5044685690078C00707D10B
:1009800070BD6268A16820209047206A401C2062E8
:100990006D1EF6D570BD09684A0501D540B2704795
:1009A000C905FCD500B2704709684A0501D5C0B237
:1009B0007047C905FCD580B2704770B50C46054636
:1009C000012A05D02878800600D5EA69002302E0D4
:1009D000012305E05B1C934202D2E05C0028F9D1C0
:1009E000A869E618C01AA861286AC01828622846B3
:1009F000FFF7AAFF04E06A682078A968641C9047A2
:100A0000B442F8D32846FFF7B5FF70BDFFB50446E2
:100A10000D4681B0243000902168880604D510224C
:100A2000E0699143216000E00120A84201DD471BFD
:100A300000E000270498A1697A191018081AA0612B
:100A40002078C00602D42046FFF77EFF002608E08B
:100A500003986268A168805D9047206A401C761CFC
:100A6000206204988642F3DB2078C0060AD520462F
:100A7000FFF76AFF06E06268A16830209047206AAD
:100A8000401C206238467F1E0028F4DC07E00098F6
:100A90006268A168405D9047206A401C2062284639
:100AA0006D1E0028F3DC2046FFF764FF2078000667
:100AB00002D5022005B0F0BD0120FBE711680268F5
:100AC000006A530501D5087009E0D30501D50880F7
:100AD00005E0130602D5C21705C100E00860012039
:100AE000704700007047FFB50C461E468FB003CA22
:100AF000089009914F007D0D00D16D1E0021084620
:100B00000020C0460321099A89050840002A03DA1B
:100B10008200801840080840800D01280A9002DDFC
:100B20000020C0430A90089807430DD0EF48F049D1
:100B3000281848430714189800281DD07542291E0C
:100B40001DDD0A9842421BE01898012802D00020BF
:100B5000302104E00020F24305E02154401CB04263
:100B6000FBDB30460022189B002121540F998B603B
:100B70000A60486013B0F0BDBD1B6D1CDFE70A9A28
:100B8000002900DA69420BA800F0F4FD0BAB07CB9B
:100B900003AB07C30899099800F050FE6B4607C3E2
:100BA0000146D4480918002D00910ADDD149039867
:100BB0000A9A4942401803A90390684601F071F867
:100BC00007E003990A9A081803A90390684601F000
:100BD00030F86B4607C30004000C03D00020C0436C
:100BE000410800E01046189A002A03D00022009223
:100BF00015461EE0751E05D400F04CFB30326255E0
:100C00006D1EF9D501220843079602D000227F1CF1
:100C100004E02078302801D100227F1E002A0697A8
:100C200089D01EE0112D07DA00F034FB3032625516
:100C30006D1C02460A43F5D1084303D000980028F2
:100C400019D00EE00021681E05E0235C625C63544D
:100C50002254401E491C8142F7DBA81B401E079509
:100C60000690079A18990020A0540F98079B069A9F
:100C700081600CC07EE71126002018905BE7D21D32
:100C8000F0B50D460446D10893B0C90003C90C90D5
:100C90000D9103F0CBFA02460D98C00F01D02D2024
:100CA00007E02068810701D52B2002E04007C00F34
:100CB0004001032A0F9001D0072A05DB034629468D
:100CC000204600F091FC0EE12078800601D5E7690E
:100CD00000E006272846652D04D0662814D0672D2D
:100CE00069D12DE00020112F009001DB112300E0DD
:100CF0007B1C0CAA03A910A8FFF7F5FE119900268A
:100D000010987D1C0E9142E001203B460CAAC007C2
:100D10000B900120009003A910A8FFF7E4FE119D9D
:100D200012981099002600280E9501D1781C0D18F4
:100D3000781B02D446427D1C761EE81B00903AE0E8
:100D4000012F00DA01270020112F009001DD11236F
:100D500000E03B460CAA03A910A8FFF7C4FE1199B6
:100D60003D46109800260E91217809070BD40E9964
:100D7000A94200DA0D4603A9012D04DD4A19203AE3
:100D8000D27F302A06D0B84201DA011D04DA0121EF
:100D900000910FE06D1EEFE7002802DC86192D1A86
:100DA00003E0411CA94200DD0D46801B401C009061
:100DB0000120C0070B902078000705D40098A842B6
:100DC00002DB0020C043009069460020C8720B98E7
:100DD000012102AF0337C907884225D002201090B5
:100DE0002B2011900B9800280BDA40420B902D20FD
:100DF000119006E00B9800F0F7F930317F1E0B9050
:100E000039701099481E00291090F3DC0B980028C7
:100E1000F0D111987F1E38702088000501D545203B
:100E200000E065207F1E387001A8C01BC01D0B901C
:100E30000F98002800D0012041190098C017091808
:100E40000B980818A169081A401EA0612078C006F6
:100E500002D42046FFF778FD0F98002805D062687D
:100E6000A1689047206A401C20622078C00625D5E2
:100E70002046FFF769FD21E0002E07DB0E98B04207
:100E800004DD03A86268805DA16802E06268A16871
:100E900030209047206A761C401C20620098401E3B
:100EA000002800900AD100F0F1F9C068626801687A
:100EB000405CA1689047206A401C206228466D1E55
:100EC0000028D9DC07E062683878A1687F1C904769
:100ED000206A401C20620B99481E00290B90F2DC0E
:100EE0002046FFF747FD032044E6000001FCFFFF1A
:100EF000104D0000E1DFFFFF01694A1C0261087824
:100F0000704700B58FB0029100210591054901930A
:100F100079440391114604906846FFF72BFA0FB00D
:100F200000BD0000E5FFFFFF0A681070521C0A6058
:100F300070470CC908399A4202D2531C0B601070DA
:100F400070470000F7B50446154686B02B48784434
:100F5000002703C83E460090019111E007986A46B9
:100F60007100415A02A800F0CDFE411C07D0217843
:100F7000890603D5E269391891420ED83F18761CCC
:100F80002078800602D5E069B84206DDAE42E5DB96
:100F900007987100405A0028E0D1A069C01BA061E9
:100FA0002046FFF7D1FC154878445A3803C8009012
:100FB0000020019116E041006A460798415A02A8B4
:100FC00000F0A0FE0590401C0AD0002505E06268F4
:100FD00002A8A168405D90476D1C05988542F6D334
:100FE0000498401CB0420490E5DB206AC0192062DE
:100FF0002046FFF7BFFC09B0F0BD0000C239000079
:10100000F7B5D21D0025D20815A6D200F52905CACC
:1010100011D0002A05DA00214042914111A60A466A
:1010200008E0009909688B0701D50FA602E049077F
:1010300001D50EA601251146009F0024243704E0A7
:1010400000F028F930323A55641C02460A43F7D1C1
:101050002B46324621460098FFF7D8FCFEBD000023
:10106000000000002D0000002B0000002000000008
:1010700070B504460021243408E05507D2086D0FEE
:10108000303565545D072A43DB08491C15461D436E
:10109000F3D10468002310A2250708D5A40601D4C3
:1010A000002904D0C46901230CA2641EC461FFF7A7
:1010B000ADFC70BD10B5044621461068FFF774FC06
:1010C000002302462046FFF7D3FF10BDD21DD108F2
:1010D000C9000CC9CCE7000000000000300000008F
:1010E000F8B50F460188090502D5224C7C4402E080
:1010F000204C7C440E3405460021243508E01607B8
:101100001209360FA65D6E541E0732431B09491C97
:1011100016461E43F3D1224604780023240705D542
:10112000702F06D0002901D002231132FFF76EFC88
:10113000F8BD01231032F9E770B504460D4621468B
:101140001068FFF731FC0023024629462046FFF7CE
:10115000C7FF70BDD21DD308DB000CCBC0E730B495
:10116000036820241268234303600823C36130BC52
:101170000023B5E72C380000F7B50F460026009C89
:101180002578641C002D05D000F078F80068405DDB
:10119000C007F5D12B2D02D02D2D18D0641E394655
:1011A000029A204600F092FA002F04D03968A1423A
:1011B00001D1009939607105022400290BDA4042FF
:1011C000002803DDFFF7BCFB0460A007FEBD012083
:1011D00080020643E3E70028F8DAFFF7B1FB04607A
:1011E0000048FEBDFFFFFF7F01468008081A020984
:1011F0001018020A1018020C1018C00882001218E9
:101200005200891A01E0401C0A390A29FBD27047B2
:1012100010B5FF231B0644009C421DD84C009C4285
:101220001AD80346124A0B4307D4401A02D3EFF3ED
:10123000008010BDEFF3008010BD081A06D2EFF356
:10124000008001219043C907084302E0EFF30080CA
:10125000904380F3008810BD0D231B041A4204D074
:101260001146002000F06EFD10BD00F083FD10BDA2
:101270000000009000487047C800002010B500F042
:1012800005F8001D10BD00BF8933000000487047FD
:10129000E80000200B4670B5024689078008084325
:1012A00019469D08141AA94125090807054308098C
:1012B0002C194841250A01060D43010A2C19414108
:1012C000200C0D0428430D0C00194D41002140193C
:1012D0004D41C00869070843E908840F8D00254384
:1012E000840024184D4124196D41121BAB4107E0C5
:1012F0000925ED432C11521963410024401C614122
:101300001C460A250026551BB441F1D270BD0000D1
:10131000D21DF0B504460D46D0088DB0C000466819
:1013200007683146384602F081FF0246F00F01D0CF
:101330002D2307E02068810701D52B2302E0400719
:10134000C00F43016846002B037001D0012000E06C
:101350000020032A0A9001D0072A04DB29462046F0
:1013600000F042F92DE12078800601D40D2500E03F
:10137000E5697000400D0D2D01904BDA300D002114
:101380000B9008460020C046032189050840002E26
:1013900005DA82008018C20F10184010084080152E
:1013A000012801DD0020C043A9000023182906D32D
:1013B0009C460A460123183A1B07D34003E001224A
:1013C0001205CA4094460C31202902D33A462039EE
:1013D00000E032468A40002802DD002A06D119E0EA
:1013E000002817D10121C9078A4213D31946634641
:1013F0007F185E41002806D10120C007824202D139
:10140000084687439E430B98310D814202D00198D4
:10141000401C01902088000502D57149794402E002
:101420006F49794419396B460A9830221A540A9840
:101430000A7C401C1A54401C0A900198002801DCC8
:10144000302000E031201872019A0120002A02D0D9
:10145000644BD21804E072003A4302D0614A521C35
:101460000192002D02DC2278120703D56A462E2055
:10147000507202200022864694460CE03203360168
:10148000120F6D1E8B5C02AA13546246521C401C44
:101490009446052A01DA002DF0DC002202AE08E0B5
:1014A0003B0F3F01CB5C521C6D1E3354401C082A7D
:1014B00001DA002DF4DC23689A0601D511E0401E04
:1014C000704504DD3218203AD27F302AF7D0002848
:1014D00007DD3218203AD27F2E2A02D11A0700D413
:1014E000401E002D03DD3E223254401C6D1E497CFF
:1014F00031540199401C002906DA2D21471C315432
:1015000001984042019003E02B21471C315401987F
:101510007D21C900884206DBFFF74AF83030F055DC
:101520007F1C019101E0642808DB01986421FFF72A
:101530003FF83030F0557F1C019101E00A2806DBAE
:1015400001980A21FFF734F83030F0557F1C0198DC
:101550000A21FFF72DF83031F1550A98A1697F1C57
:101560007A191018081AA0612078C00602D4204603
:10157000FFF7EAF9216A6E460A980818206204E02B
:1015800062683078A168761C90470A98401E0A90DD
:10159000401CF5D12078C00602D52046FFF7D4F9CB
:1015A00002AE09E03078761C3E280DD06268A16852
:1015B0009047206A401C20627F1EF3D22046FFF72E
:1015C000D9F90DB00320F0BD206A4019206203E074
:1015D0006268A168302090476D1EEDD3F8E70000E7
:1015E0003735000001FCFFFFF8B51F460446012314
:1015F0000068DB02032601461840072A05DB0028A5
:1016000001D017A506E017A504E0002801D016A513
:1016100000E016A5102081432160A069C01E002FA4
:10162000A06101D0401EA0612046FFF78DF9002F78
:1016300009D038466268A1689047206A401C206241
:10164000C01C206206E0206AFAE762682878A16878
:101650006D1C9047761EF8D22046FFF78BF9F8BD37
:101660004E414E006E616E00494E4600696E660046
:1016700010B54369002B02D0C046C04601E0FFF719
:101680009CF9012010BD1278014624310A70002215
:101690004A700122ECE711680022D243E8E710B556
:1016A0004369002B02D0C046C04601E0FFF74AFC68
:1016B000012010BD12880146243182840022C28498
:1016C0000122ECE711680022D243E8E7F7B515469E
:1016D00082B00027029C2078641C0197302802D039
:1016E000002D15D015E020780127641C782804D03F
:1016F000582802D0002D09D00BE0002D01D0102D6C
:1017000007D1207800271025641C02E0082500E09E
:101710000A250026009610E0009901276943081861
:1017200029467143020C80B200908E18380486421C
:1017300001D3012001902078641C294600F041FB70
:101740000028E9DA0398002805D0002F01D0641E94
:1017500000E0029C04600198002806D0FFF7F0F832
:1017600002210160C81E05B0F0BD00993004084395
:10177000F9E70000F7B516468AB02F4878446C4662
:1017800003467C33C06F5A689B680DC42A4878446E
:10179000763003AC0DC80DC43720C00108183721BE
:1017A0001B30FEF705FF05460C46803D1B3C02D56D
:1017B0006442012000E00020002709900FE0E007CC
:1017C0000BD00C201C497843794432464C394118DF
:1017D000684600F02EFA6B4607C364107F1C002C8D
:1017E000EDD1154F7F442C3F15E0E80711D02001C3
:1017F000C0190EC80691089307920068F04201D103
:1018000098190890324606A903A800F012FA03AB13
:1018100007C36D10641C002DE7D132466946099854
:10182000002803A802D000F03CFA01E000F001FA21
:101830000A9B07C30DB0F0BDEC3100000346400029
:101840000A4610B5400D0BD00121C9070F24A40290
:1018500000191C0364082143540D2143D20207E000
:1018600000210120F2E7D40F490021435200401E1D
:101870000029F8DADB0FDB07184310BDFFB50D4672
:10188000144685B04868516802F0ABFC00910190A5
:10189000A868A16802F0A5FC02910390A86861689D
:1018A00002F09FFC029A12188242029201D2012099
:1018B00000E00020019A0B18D2180028019202D0F3
:1018C0008A4202D903E08A4201D2012000E00020CE
:1018D0000099081800906868A16802F082FC029ADA
:1018E00012188242029201D2012000E00020019AE7
:1018F0000B18D2180028019202D08A4202D903E0C4
:101900008A4201D2012000E00020009908180090CE
:101910002868216840004900400849084018F549F6
:10192000471814E001994000C90F0843009001983E
:1019300002994000C90F08430190029803994000A2
:10194000C90F08430290039840007F1E039000983F
:101950000028E7DA0898002801D0E74E00E00026CA
:10196000B74228DAF71BF806C00E15D0029B2021DB
:10197000091A039A8B401A430392029A019BC240B0
:101980008B401A430292019A009BC2408B400099FF
:101990001A430192C14000917A110BD06B4603208B
:1019A000811A01D5002101E0890059588700401EA5
:1019B000D951F5D5374603980299002800D0012067
:1019C000014308980291002808460CD0002800D056
:1019D00001200199019A490508430121D20AC9024F
:1019E000D202019200E001210E9B0122D207012BBD
:1019F00002D0002B03D013E0002807D116E090425C
:101A000004D890420CD1019B0B4209D0019B59187C
:101A1000019105D10099491C009101D17F1C0092D0
:101A2000002803D0102108460020C04628682168FD
:101A3000019B009A4840C10F0598C90739430EC061
:101A400009B0F0BDFFB587B0099A089808995368A6
:101A50009268406889689646002203931746944628
:101A6000089A12685300099A5B08126852005208DB
:101A70009A1AA24BD4180A9A002A01D0352200E003
:101A8000402206920022012315460492DB070593AB
:101A900024E0002D05D175460346039E4D1BB3413E
:101AA00009D375466646039B491B049D9841059BD7
:101AB0007519AC465F4163463B4308D0059B049EC5
:101AC000DD0776082E435B080496059301E0521E5D
:101AD000641EC50FED0749184041521C069B9A42EF
:101AE000D7DB002D04D17546039A6B1A824101D2CF
:101AF00003200CE0039A0B466B404240134303D093
:101B0000014303D0012002E0022000E000206146F2
:101B100001910021009702910A99002905D06146A0
:101B200040020143744B019102E0800700230290C0
:101B30009C423ADA1A1BD006C00E15D0029D202115
:101B4000019C091AC5408C402543029C8C4000D062
:101B500001242543019C02953D46C4408D403946F1
:101B60002C43C1400194009154111DD06D460221B7
:101B7000002202290CD10320001B07E0002804DB0F
:101B80008600AE59002E00D00122401C0328F5DB50
:101B9000081B02D588002A5004E080002858104312
:101BA0008A00A850491EE3D51C460A9800280298CE
:101BB0000CD0002800D001200199019A4905084362
:101BC0000121D20AC902D202019200E00121109B38
:101BD0000122D207012B02D0002B03D013E00028F2
:101BE00007D116E0904204D890420CD1019B0B42E1
:101BF00009D0019B5918019105D10099491C009108
:101C000001D1641C0092002803D010210846002056
:101C1000C04608980999019A0068096848400099E7
:101C2000C30F0798DB0723430360826041600BB05A
:101C3000F0BD1FB5002300920A46014601A8FFF738
:101C40001DFE01AB07CB04B010BDF0B585B001237C
:101C500000920A46014601A8FFF710FE01990F22E3
:101C600002989202CF0F4900039E49088C1AFF0781
:101C70000021002800DB0C46450021486D08844205
:101C800006D30D460E460446102108460020C046E5
:101C90002005E90A084369053843F20A05B01143F3
:101CA000F0BD1FB5002300920A46014601A8FFF7C8
:101CB000C9FE01AB07CBC6E71FB5012300920A4658
:101CC000014601A8FFF7BEFE01AB0F2407CBA4021B
:101CD000C30F4000DB074008001B002900DB002089
:101CE000490000054908CC0A204349051843D20A97
:101CF0001143A8E702C0FFFF013C0000FF3F0000C6
:101D0000FF07000070B516460C460546FFF7B6FA09
:101D10000368FF200230C05C012807D0FF2C0ED8DA
:101D2000185D00280BD001202C7070BDFF333246A7
:101D3000214608331868C3182846984770BD00200C
:101D4000C04370BDC80212D54803400F002804D01C
:101D5000C803C043012188407047EFF300800001B1
:101D6000000903210907084380F300887047002019
:101D70007047000010B5024800F07EF810BD00006A
:101D80000000C07F7546FFF775FAAE46050069464C
:101D90005346C008C000854618B020B5FEF768FA63
:101DA00060BC00274908B6460026C0C5C0C5C0C5EE
:101DB000C0C5C0C5C0C5C0C5C0C5403D49008D46F1
:101DC00070473A2800D23038202302469A43412AED
:101DD00001D310463738884201D30020C0437047F2
:101DE00010B50446C046C0462046FEF731FA10BD85
:101DF000024670B50A4392072AD11E4DEE0104C86F
:101E000008C9541B9443344017D0D0B2D9B2401AF9
:101E10002106014310D190B299B2401A2104014326
:101E20000AD110021902000A090A401A21020143CC
:101E300002D1100E190E401A70BD9A42DFD010BAAE
:101E400019BA884201D9012070BD0020C04370BD7D
:101E500002780B78401C491C002A09D09A4207D10D
:101E600002780B78401C491C002A01D09A42EFD01E
:101E7000D01A70BD0101010110B50C461107090F00
:101E8000092904D00A290AD008290CD104E01146F6
:101E90000820FFF757FF06E0510606D501E051067E
:101EA00001D50120C007214610BDD10607D501018B
:101EB0000909CC084907000E0006044309E0410F58
:101EC00020024907000A0143200E00061D22D141CD
:101ED00001430846E7E7704701491820ABBEFEE71B
:101EE0002600020010B500F05FF810BD014908603F
:101EF00070470000002401401949CA6818239A431A
:101F000003789B07DB0E1A43CA60CA6820239A43F2
:101F10004378DB079B0E1A43CA60CA6804239A43BE
:101F20008378DB075B0F1A43CA60CA684B149A4375
:101F3000C378DB079B0C1A43CA60CA6803239B0261
:101F40009A4343799B071B0D1A43CA60CA68FF2353
:101F50000079C13340079A43C00D0243CA607047FD
:101F600000240140034A936A034393625069084383
:101F70005061704700240140002101704170817060
:101F8000C17001714171704702488168012211439B
:101F9000816070470024014002494A6802434A6058
:101FA000704700000024014070B5082000F048F898
:101FB00001281ED10820FFF799FF00F03BF80D4CD7
:101FC000A16D401821462031A0650A79521CD2B279
:101FD0000A710A2A06D100250D710A21FEF7DEFAE0
:101FE000A565E0640449E06C48430449FEF7D6FA6D
:101FF000206570BD0C000020E40C0000FF0F000005
:102000000B4B002099685A05114399600F22120367
:102010009968401CC90F904201D00029F8D19868F6
:10202000002803DB024840300068704700207047FA
:10203000002401400148006880B2704740240140FC
:1020400006494A68096802400140002A03D0002975
:1020500001D001207047002070470000002401409B
:1020600010B501246402204601F0F2FC204601F084
:10207000CFFC10BD02488168042211438160704783
:102080000024014010B50420C04301F02DFF074893
:1020900005490068FEF782FA05497D22086080B292
:1020A000D2005043486010BD00127A0000000020AA
:1020B0000400002001B50B490098496848430A49CB
:1020C000486100238B610869012210430861086997
:1020D000C20701D0C003FAD5086940084000086172
:1020E0008B6108BD0400002000E000E001B50B4951
:1020F0000098096848430A49486100238B610869D0
:102100000122104308610869C20701D0C003FAD553
:1021100008694008400008618B6108BD0400002088
:1021200000E000E010B501F033F9FFF7ABFF00F07D
:102130009FFE01F09FF901F09BF800F00FFE01F007
:10214000C1F900F0C1FB0448012181710021203850
:102150000166016E416610BD2C00002010B5234CB5
:10216000207C002823D0E07B042829D006DC01282D
:1021700009D002280FD0032815D119E0102826D045
:10218000202810D12AE01AA1002000F0FCF8E07B02
:102190004008400006E016A1002000F0F4F8E07BC3
:1021A000FD2121E0E07300F01AFA0020207410BD38
:1021B0000FA1002000F0E7F8E07B80088000F1E745
:1021C0000BA1002000F0DFF8E07BFB210CE008A170
:1021D000002000F0D8F8E07BEF2105E004A100200A
:1021E00000F0D1F8E07BDF210840DBE70C000020A5
:1021F0002020202000000000F8B506460B0002F069
:1022000008F8351C1E2225282C2F3234363A3D4141
:1022100045487B484B835153538C8F585A1C5E6002
:1022200062282C65677236743D4176787B7E8183A7
:102230008689538C8F585A926A00032260E00D22DF
:1022400002250D2447E00B22002504E00C22032583
:10225000F7E70B2202E001243DE003220625FAE71E
:102260000B2204251CE003222EE003225CE00A225C
:102270001BE00C242FE003220A2518E00B2253E078
:10228000002428E0032201250E2424E0032209254E
:10229000EFE70B220025D4E703220E2505241AE0E0
:1022A000092418E008220FE00B220025E1E70224B0
:1022B00011E0092208E00C22002503240BE00B2288
:1022C00018E00A2224E00A220625D2E7092217E0B4
:1022D00003220FE00824330001F09BFF08282C3074
:1022E00034383C404447002215E0032210E002222B
:1022F00000E00A220625EDE703220625CEE70122AB
:1023000006259EE7022203E009220625C8E70B22E4
:102310000625B5E70A220025DCE707220825A8E7FD
:1023200004220925C3E700220025A9E71421132769
:1023300012261AE0112110270F2616E00E210D2774
:102340000C2612E00B210A2709260EE0062107279A
:1023500008260AE003210427052606E000210127BC
:10236000022602E0172118271926052000F0F6FEA4
:102370002A463946052000F0F1FE22463146052066
:1023800000F0ECFEF8BDF8B500240E460746042523
:102390002046002F0FD1002C06D0012C06D0022C95
:1023A00006D0032C06D006E0072004E0062002E059
:1023B000052000E00420315D0A46613A192A02D95D
:1023C0002032192A6FD841390B0001F022FF3A6DF3
:1023D000707376797C7F8285888B8E9194979A9D95
:1023E000A0A3A6A9ACAFB2B5B8F2F2F2F2F2F21E17
:1023F0002124272A2D303336393C3F4245484B4E65
:102400005154575A5D60636669F2C0B21A2198E070
:10241000C0B21B2195E0C0B21C2192E0C0B21D21C8
:102420008FE0C0B21E218CE0C0B21F2189E0C0B293
:10243000202186E0C0B2212183E0C0B2222180E0C9
:10244000C0B223217DE0C0B224217AE0C0B22521B0
:1024500077E0C0B2262174E0C0B2272171E0C0B29B
:1024600028216EE0C0B229216BE0C0B22A2168E0C9
:10247000C0B22B2165E0C0B22C2162E0C0B22D2198
:102480005FE0C0B22E215CE0C0B22F2159E0C0B2A3
:10249000302156E0C0B2312153E0C0B2322150E0C9
:1024A000C0B233214DE04FE0C0B2002149E0C0B2DC
:1024B000012146E0C0B2022143E0C0B2032140E066
:1024C000C0B204213DE0C0B205213AE0C0B206210D
:1024D00037E0C0B2072134E0C0B2082131E0C0B219
:1024E00009212EE0C0B20A212BE0C0B20B2128E066
:1024F000C0B20C2125E0C0B20D2122E0C0B20E21F5
:102500001FE0C0B20F211CE0C0B2102119E0C0B220
:10251000112116E0C0B2122113E0C0B2132110E065
:10252000C0B214210DE0C0B215210AE0C0B21621DC
:1025300007E0C0B2172104E0C0B2182101E0C0B228
:102540001921FFF759FE34E00A46303A092A26D805
:10255000130001F05EFE0A06090C0F1215181B1E6F
:10256000212EC0B2002122E0C0B201211FE0C0B282
:1025700002211CE0C0B2032119E0C0B2042116E020
:10258000C0B2052113E0C0B2062110E0C0B207219D
:102590000DE0C0B208210AE0C0B2092107E02D29F0
:1025A0000CD07C290AD02F2908D0C0B20A2100F013
:1025B00065FA641CAC4200DAEAE6F8BD2D2908D0C1
:1025C0002F2909D07C29F4D1C0B2022100F0CEFA23
:1025D000EFE7C0B20121F9E7C0B20021F6E710B57C
:1025E00000221521052000F0B9FD0022162105204A
:1025F00000F0B4FD10BDF3B587B00E460846FDF7F8
:102600008BFF142870D23046FDF786FF0023014669
:10261000019302930393049305931C461D461846A9
:10262000069304E0325C2E2A00D10546401C884205
:10263000F8DB002001A904E0325C7F1C0A54FFB2E1
:10264000401CA842F8DB0020C8550846FDF756FF9D
:10265000009001A8FDF760FF074604A902E00855B5
:10266000641CE4B26D1C705D0028F8D10855084662
:10267000FDF744FF044604A8FDF74EFF0799002923
:102680007AD003280AD002282FD001282CD1032F7A
:1026900059D0022F62D0012F70D077E00A21009824
:1026A000FDF786FFC9B2002000F0E8F90321002001
:1026B00000F05CFA64212046FDF77AFF0A21FDF75D
:1026C00077FFC9B2012000F0D9F90A212046FDF7B1
:1026D0006FFF0C460A21FDF76BFFC9B2022000F024
:1026E000CDF9E1B2032091E05CE0012F02D0022F8E
:1026F00006D015E00A210098FDF75AFFC9B20CE098
:102700000A210098FDF754FF0D460A21FDF750FFFE
:10271000C9B2002000F0B2F9E9B2012000F0AEF930
:102720000A212046FDF744FF0C460A21FDF740FF31
:10273000C9B2022000F0A2F9E1B2032000F09EF934
:10274000032101202CE064210098FDF731FF0A21CC
:10275000FDF72EFFC9B2002000F090F90A21009881
:10276000FDF726FF0D460A21FDF722FFC9B2012021
:1027700000F084F9E9B206E016E0FFE70A210098CC
:10278000FDF716FFC9B2022000F078F90A212046B1
:10279000FDF70EFFC9B2032000F070F903210220FB
:1027A00000F0E4F909B0F0BD03280AD0022830D0C7
:1027B0000128F7D1032F5AD0022F63D0012F70D0F8
:1027C00077E00A210098FDF7F3FEC9B2072000F078
:1027D00055F90321072000F0C9F964212046FDF7CF
:1027E000E7FE0A21FDF7E4FEC9B2062000F046F933
:1027F0000A212046FDF7DCFE0C460A21FDF7D8FE33
:10280000C9B2052000F03AF9E1B2042000F036F92F
:10281000C8E7012F02D0022F06D015E00A21009848
:10282000FDF7C6FEC9B20CE00A210098FDF7C0FE14
:102830000D460A21FDF7BCFEC9B2072000F01EF9C3
:10284000E9B2062000F01AF90A212046FDF7B0FE91
:102850000C460A21FDF7ACFEC9B2052000F00EF9C6
:10286000E1B2042000F00AF90321062098E7642170
:102870000098FDF79DFE0A21FDF79AFEC9B20720D8
:1028800000F0FCF80A210098FDF792FE0D460A219F
:10289000FDF78EFEC9B2062000F0F0F8E9B205E0BF
:1028A000FFE70A210098FDF783FEC9B2052000F07A
:1028B000E5F80A212046FDF77BFEC9B2042000F0AE
:1028C000DDF8032105206BE710B500F0EBFB10BD30
:1028D000F0B58BB00C4605461746202102A8FDF73F
:1028E0005BFE66007608002F06D0012F0BD0022F6A
:1028F0002FD0032F15D133E02046FDF7FFFE54A261
:102900000191009005E02046FDF7F8FE52A20191EA
:1029100000901E2102A8FDF7D9FC00282FDB1E28FD
:102920002DD24F4FFF213522C9057842D2044D4B9D
:10293000CC4243D2BC4224DA02A92846FFF75BFE10
:10294000002D14D00A21002000F098F80A2101205F
:1029500013E02046FDF7D2FE43A201910090D8E794
:102960002046FDF7CBFE42A201910090D1E70A215B
:10297000072000F083F80A21062000F07FF80BB052
:10298000F0BD2018904209D2002D02D00A2100206B
:1029900001E00A21072000F071F80AE0D920E118CF
:1029A0004004814205D33448211825208003814208
:1029B000E5D202A92846FFF71EFEE0E702A9BE42C3
:1029C00012DA2846491CFFF716FE002D04D00A2112
:1029D000012000F053F810E00A21062000F04EF824
:1029E0000DE000F0C3F8CAE73018904209D228463B
:1029F000491CFFF700FE002D01D001210DE001214F
:102A00000EE0D920F218400482420BD22846891CDD
:102A1000FFF7F1FD002D02D004210020E1E70421A1
:102A20000720DEE714483218252080038242A6D80A
:102A30002846891CFFF7DFFD002D04D0002101206E
:102A400000F01CF8E8E70021062000F017F8E6E7A0
:102A5000252E306600000000252E316600000000A3
:102A600000002041000038BD252E32660000000025
:102A7000252E336600000000000086BBF8B5064630
:102A80000B0001F0C6FB0B0B0D1014181C1E292C9B
:102A90002E07210000221546144615E00B221CE0EB
:102AA0000022154609E00A22062505240CE008222A
:102AB00018E00D2408E0012206250C2404E0092278
:102AC00000E00B2206250924330001F0A2FB080DCB
:102AD0001115191D2125292C00220025E9E70B22BB
:102AE00000E009220625E4E71421132712261AE044
:102AF000112110270F2616E00E210D270C2612E0BB
:102B00000B210A2709260EE00621072708260AE0DE
:102B100003210427052606E000210127022602E002
:102B2000172118271926052000F018FB2A463946D8
:102B3000052000F013FB22463146052000F00EFB75
:102B4000F8BD0FB43EB500210291044600910191F9
:102B5000092108AB6846079AFDF79CFB69462046A9
:102B6000FFF711FC3EBC08BC04B01847F3B583B0B6
:102B7000049F002002463B0001F04BFB05040A0EB7
:102B800019141900042301930023022600930EE078
:102B900000230193062302E0032301930023002670
:102BA000009304E00023019306230C260093039F67
:102BB0003B0001F02EFB08050A0F14181C21262AE1
:102BC00014211325122408201FE0112110250F24A1
:102BD00004201AE00E210D250C24022015E00B2103
:102BE0000A25092411E00621072508240DE0032108
:102BF00004250524022208E00021012502240422E4
:102C000003E01721182519240822049B032B0BD05D
:102C10000520019A00F0A2FA29460520009A00F04A
:102C20009DFA3246214605E0042F02D202461521C4
:102C300000E01621052000F091FA05B0F0BD00007B
:102C400070B50C46012862D10A2C06D20A21204612
:102C5000FDF7A4FC0320FFF711FF20460A385A288D
:102C60000ED20A212046FDF799FC0D460A21FDF7F8
:102C700095FC0220FFF702FF29460320FFF7FEFE26
:102C80002046E12164388900884218D26421204618
:102C9000FDF784FC0A21FDF781FC0120FFF7EEFE21
:102CA0000A212046FDF77AFC0D460A21FDF776FC45
:102CB0000220FFF7E3FE29460320FFF7DFFE7D2118
:102CC000C900184A601A904221D82046FDF766FCD8
:102CD0000A21FDF763FC0020FFF7D0FE64212046A7
:102CE000FDF75CFC0A21FDF759FC0120FFF7C6FE49
:102CF0000A212046FDF752FC0C460A21FDF74EFC46
:102D00000220FFF7BBFE21460320FFF7B7FE00229B
:102D10001521052000F022FA00221621052000F0DE
:102D20001DFA70BD2723000010B5044686B0084682
:102D3000FDF7E4FC0191009006A20A2102A8FDF72C
:102D4000C5FA0A2803DA02A92046FFF754FC06B0A8
:102D500010BD0000252E31660000000010B500F007
:102D6000FFFA0E4C002322460A210D4800F066F8B7
:102D70000B48012322460A21103000F05FF8084872
:102D8000022322460A21203000F058F80448032389
:102D900022460A21303000F051F810BD0000C84230
:102DA0008800002070B504460068A168884242D2BD
:102DB0000121090309266268CD00F6069042207BB6
:102DC0001AD2002803D10122304600F0BFFA207B3E
:102DD000012804D101221021304600F0B7FA207BEF
:102DE000022804D101222946304600F0AFFA207BA8
:102DF00003281FD1012219E0002803D10022304608
:102E000000F0A4FA207B012804D1002210213046D2
:102E100000F09CFA207B022804D10022294630468B
:102E200000F094FA207B032804D1002220213046B0
:102E300000F08CFA70BD0020206070BDF8B50D4622
:102E400004461F4609491046FDF782FC06462846FF
:102E5000FDF772FD314601F037FCFDF729FDA56055
:102E60006060002020602773F8BD00000000C842A9
:102E700010B500F0C2F810BD10B5022000F05CF8EB
:102E8000012804D100F046FB022000F019F80120CF
:102E900000F052F8012804D100F05AFB012000F0A4
:102EA0000FF810BD10B5FF240134204600F044F89F
:102EB000012804D100F06AFB204600F001F810BDA3
:102EC000014948617047000000040140837901799D
:102ED000184A002B04D0002910D0012913D016E085
:102EE000002906D0012903D151680068814351604F
:102EF000704711680068814311607047116803686A
:102F00001943116003E05168036819435160417926
:102F100000290AD0012903D0916803681943916000
:102F2000D16800680143D16070479168006801432F
:102F30009160704700040140034A01465269002035
:102F40000A4200D00120704700040140074842684F
:102F500007490A6382684A63C2688A630269CA636E
:102F600042690A64806948647047000000F0000804
:102F70000C00002081627047F0B500220325012378
:102F80000C8893401C422DD08B78012B01D0022B52
:102F900015D1846853002E469E40B44384600C795A
:102FA0009C4083681C4384604368CC789440A3436E
:102FB00043604368CC789440A4B2234343600668DE
:102FC00053002C469C40A64306608E7807689E40BE
:102FD0003E430660C668A643C6604C799C40C36801
:102FE0001C43C460521C102AC9D3F0BD00690840BC
:102FF00000D001207047816170471FB50120400457
:1030000000F00EFD0120400200F01AFD012000F04A
:1030100017FD402168460181032181720024447319
:10302000092002A9C006FFF7A7FFFFF719F86846B5
:10303000FEF7A2FF68460470447084700121C170DD
:1030400004714471FEF758FF07214020FEF78AFF04
:1030500002210C2000F0BCFA0820FEF79DFFFEF7CD
:10306000CFFFFEF791FFFFF705F81FBD10B5002455
:1030700000222146052000F071F8641CA4B2312C16
:10308000F6D310BD10B52921042000F023F8032148
:10309000042000F01FF80121042000F01BF8FFF7C6
:1030A000E5FF10BD1CB50120800400F0B9FCE02054
:1030B0006A461080012090700020D07003211171A9
:1030C000507169460248FFF757FFFFF7DBFF1CBD51
:1030D00000040048F8B50D4606460021084600F0F9
:1030E000A5F80120FFF702F80024042700210120A1
:1030F00000F09CF83946E1403140022000F096F89B
:103100000120FEF7F3FF0121084600F08FF80120AF
:10311000FEF7ECFF641C032CE8DB00248026002172
:10312000012000F083F83146E1402940022000F000
:103130007DF80120FEF7DAFF0121084600F076F85D
:103140000120FEF7D3FF641C092CE8DB01210020DD
:1031500000F06CF80120FEF7C9FFF8BDF8B50E4687
:10316000074600211546084600F060F80120FEF7EA
:10317000BDFF00240421E1403940022000F056F850
:103180000520FEF7B3FF0021012000F04FF80520D5
:10319000FEF7ACFF0121084600F048F80120FEF7D9
:1031A000A5FF641C032CE5DB002420273946E14001
:1031B0003140022000F03AF80520FEF797FF002189
:1031C000012000F033F80520FEF790FF01210846AA
:1031D00000F02CF80120FEF789FF641C062CE5DBCB
:1031E000002401263046A0402840C1B2022000F051
:1031F0001DF80520FEF77AFF0021012000F016F8E7
:103200000520FEF773FF0121084600F00FF8304655
:10321000FEF76CFF641C042CE4DB0121002000F0AD
:1032200005F80120FEF762FFF8BD000010B50F4A57
:10323000002807D001280BD002280FD1002913D075
:10324000202108E0002901D0802104E0802107E04E
:10325000002904D040211046FFF7CDFE10BD4021CB
:103260001046FFF787FE10BD2021F9E70004004853
:10327000F0B5012085B0400400F0D2FB01208004AD
:1032800000F0CEFB012000F0DBFB022569460D803B
:1032900000248C70032609200E71C006FFF76CFE17
:1032A000012769460F808C7009200E71C006FFF758
:1032B00063FEE801694608808C700E711448FFF7C0
:1032C0005BFE0121002000F0CDFB0021084600F04C
:1032D000C9FB0821012000F0C5FB694602958F73E8
:1032E0000C734D7302A8FFF7F1FD02A80297FFF7D8
:1032F000EDFDE801029002A8FFF7E8FD012105209D
:1033000000F066F90121072000F062F905B0F0BD78
:103310000004004810B5FFF769FE10BD10B5002885
:1033200006D00948002901D0022106E0022108E068
:103330000920C006002903D08021FFF75CFE10BDE4
:103340008021FFF717FE10BD0004004810B5002AC9
:1033500002D0FFF750FE10BDFFF70CFE10BD0000BD
:103360001CB50120400400F05BFB08486A46108051
:10337000012090700020D07003211171507109203C
:103380006946C006FFF7F8FD1CBD00003090000044
:10339000344801680122114301604168324A1140FA
:1033A00041600168314A11400160016801229204C4
:1033B0009143016041683F2212049143416041689A
:1033C000090909014160016BFF22543291430163F5
:1033D000416B490849004163002181600168012275
:1033E00012041143016000210522120203689B07A9
:1033F00002D4491C9142F9D30168890730D51C4990
:103400000A6810231A430A600A68D208D200521CC4
:103410000A604168F022914341604168072212022C
:103420009143416041680322D20391434160416866
:103430000F22920491430522D20489184160016849
:103440001A051143016001688901FCD541688908AA
:103450008900891C416041680907890F0229FAD156
:1034600070470000001002400CB8FF08FFFFF6FE96
:10347000002002403EB5012000F0DAFA0124A40742
:10348000204600F04FFE00216A46117291700C48F0
:1034900001902F20108051726946204600F048FEAE
:1034A0000121204600F03BFE0121204600F08BFE6A
:1034B00000210F2000F08CF8204600F07FFE3EBD7A
:1034C000E70300007CB50120400400F0A9FA0120C8
:1034D000800400F0A5FA80216846018001268670EC
:1034E0000024C47003250571447109206946C00693
:1034F000FFF742FD0221684601808670C4700571A5
:10350000447169460148FFF737FD7CBD000400485F
:103510007047000010B50A20FEF7CCFD09200221FB
:10352000C006FFF7F7FE0949002804D0087B4008D1
:103530004000087310BD0A7B012002430A734A7BD6
:1035400002434A738873087110BD000078000020A0
:1035500010B50A20FEF7AEFD09200121C006FFF7D5
:10356000D9FE0949002804D0087BFD2210400873C9
:1035700010BD0A7B022002430A734A7B02434A734E
:1035800001208873087110BD7800002010B50A2052
:10359000FEF790FDFF2101310A48FFF7BBFE0A4903
:1035A000002804D0087BFB221040087310BD0A7B62
:1035B000042002430A734A7B02434A730120887342
:1035C000087110BD0004004878000020704700001A
:1035D0008207D30EFF229A408907090E10B5994041
:1035E00000280BDA03071B0F083B9C080B4BA400B9
:1035F000E318DC6994430C43DC6107E08408084B62
:10360000A400E3181C6894430C431C60C106C90E57
:10361000012088400349086010BD000000ED00E073
:1036200000E400E000E100E0F8B5FEF7D8FFD64E78
:103630000222F37810272021012B18D00320042424
:103640000825022B77D0032B4CD13379012B73D073
:10365000022B7CD0032B71D0042B43D1727D082A1E
:103660006DD06DDC002A6CD0042A6BD194E03079E7
:10367000012401283BD002280DD003283FD0042884
:1036800030D1B07C00282ED0012819D010281FD0AE
:10369000202825D127E0707C00280ED0012802D0F8
:1036A000022808D109E01446F2730222B7A10020D3
:1036B000FFF747FA7474707C13E0F4730122F5E7A6
:1036C000F7730222B3A10020FFF73BFAB77407E0BB
:1036D0000C46F1730222B1A10020FFF732FAB47454
:1036E000B07C3077F8BDF4730122A8A1F4E7F4733D
:1036F0000122A6A10020FFF724FA3477F8BDF07C60
:10370000002820D0012804D010280AD0202810D169
:1037100019E0F77302229FA10020FFF712FAF77455
:1037200007E00C46F17302229CA10020FFF709FA82
:10373000F474F07CD5E78EE04CE008E05FE033E025
:1037400025E043E02FE0F473012290A1EDE7317D05
:10375000002917D0022904D004290AD008290FD142
:1037600010E0F07301228BA10020FFF7EAF9347515
:1037700006E0F573012289A10020FFF7E2F9357513
:10378000307DAEE71446F273022280A1ECE7102AE6
:1037900012D0202A18D119E0F47301227FA1002051
:1037A000FFF7CFF975750FE0F773022279A10020BA
:1037B000FFF7C7F9777507E00C46F173022277A18E
:1037C0000020FFF7BEF97475707D8AE7F07301225F
:1037D00070A1F5E7B17D042909D008298ED1F073D5
:1037E00001226CA10020FFF7ACF9B475F8BDF473A9
:1037F00001226AA10020FFF7A4F9B575F8BDF27D9A
:10380000082A12D004DC002A21D0042A1DD104E0A9
:10381000102A12D0202A18D119E0F47301225FA1D6
:103820000020FFF78EF9F5750FE0F773022259A11A
:103830000020FFF786F9F77507E00C46F1730222C6
:1038400056A10020FFF77DF9F475F07D49E7F0738C
:10385000012250A1F5E73379012B51D0022B0CD076
:10386000032B65D0042BC9D1727E082A32D024DC08
:10387000002A41D0042A3DD124E0317E002917D00E
:10388000022904D004290AD008290FD110E0F073CE
:10389000012240A10020FFF754F9347606E0F473CA
:1038A00001223EA10020FFF74CF93576307E18E763
:1038B0001446F273022235A1ECE7102A12D0202A16
:1038C00018D119E0F473012236A10020FFF739F96D
:1038D00075760FE0F77302222EA10020FFF731F971
:1038E000777607E00C46F17302222CA10020FFF747
:1038F00028F97476707EF4E6F073012225A1F5E7CD
:10390000F17E002903D0042909D008290ED1F073D3
:10391000012220A10020FFF714F9F47606E0F473E9
:1039200001221EA10020FFF70CF9F576F07ED8E603
:10393000B27E082A1BD004DC002A21D0042A1DD123
:1039400004E0102A0AD0202A18D119E0F4730222C8
:1039500014A10020FFF7F5F8B5760FE00C46F173DF
:10396000022212A10020FFF7ECF8B47606E0F7730C
:10397000022208A10020FFF7E4F8B776B07EB0E697
:10398000F073012203A1EDE70C00002020502D254B
:103990006400000048312D25640000004C6F2D2587
:1039A000640000004C6F312D256400004C6F322DF7
:1039B0002564000010B5144CE078012807D00228D7
:1039C00004D12079012801D1E07E207710BD207933
:1039D0000128FBD00228F9D1216B606D00F0CCFEEC
:1039E00001D2012100E000210120FFF797FC616B6B
:1039F000606D00F0C1FE01D2012100E00021002035
:103A0000FFF78CFC10BD00000C0000207047000088
:103A10000249CA688243CA60704700000010024031
:103A200002494A6902434A6170470000001002409F
:103A30000249CA690243CA6170470000001002408F
:103A400002498A6902438A617047000000100240FF
:103A50000249CA680243CA60704700000010024071
:103A6000704700000007000F8A07120F90400E4AAF
:103A7000032903D891680143916070470B1F032B02
:103A800003D8D1680143D16070470B46083B032B34
:103A900003D811690143116170470C390329FBD820
:103AA000516901435161704700000140F8B53C4D38
:103AB0000024287F082807DA012802D0022803D131
:103AC00001E02C6B00E06C6B36490026087B002877
:103AD00059D002282CD1698DA86C0091884201D25E
:103AE000401CA864A87F697F884202D2401CA87746
:103AF0004BE0AF6C642F08D90098874205D2AE77AF
:103B00002949204600F09AFD04460098874206D1D4
:103B10007F21AE77C905204600F090FD04460122C2
:103B200021460020FEF7D4FE1E48007B02282CD040
:103B30001C48007B042828D1698DA86C009188421C
:103B400001D2401CA864A87F697F8842CED3AF6CA5
:103B5000642F08D90098874205D2AE7712492046D3
:103B600000F036FE04460098874206D17F21AE77EA
:103B7000C905204600F02CFE044601222146002003
:103B8000FEF7A6FE01E0AE64AE77287F082804DACF
:103B9000012803D0022800D16C63F8BD2C63F8BD66
:103BA0000C00002078000020CDCCCC3DF8B51B4D9A
:103BB0000146287F0024082807DA012802D00228BD
:103BC00003D101E02C6B00E06C6B154F1548002908
:103BD00007D0BC4212DA0146204600F02FFD044611
:103BE0000CE0114EB44209D20146204600F0F0FD2F
:103BF000044640004008B84200DD34460122214618
:103C00000020FEF765FE287F082804DA012803D08B
:103C1000022800D16C63F8BD2C63F8BD0C000020B5
:103C20000000D242CDCCCC3D0000D2C270B5FEF730
:103C3000D6FC6F4C6F4D2078022809D0032819D08C
:103C4000042873D1A078030000F0E3FA02CBCCCBB8
:103C500000232A460A216848FFF7F0F802232A4683
:103C60000A216648FFF7EAF865A10120FEF78BFB01
:103C700063A1B3E06078030000F0CBFA08B3050756
:103C800024455B8095B360A1ADE000232A460A215C
:103C90005948FFF7D3F8022300220A215748FFF7BB
:103CA000CDF8E078012809D0022809D003283DD1B9
:103CB00057A10120FEF767FB57A18FE058A1F8E755
:103CC00059A1F6E700231A460A214B48FFF7B6F838
:103CD00002232A460A214948FFF7B0F82079012833
:103CE0000FD0022809D0032809D0042879D148A18F
:103CF0000120FEF748FB4EA170E049A1F8E74AA178
:103D0000F6E74DA1F4E76079012810D0022807D02A
:103D1000032803D0042864D149A102E04AA100E0AD
:103D20004BA10120FEF72FFB4BA157E059E04CA11E
:103D3000F7E733A10120FEF726FBA079030000F08E
:103D400068FA081B1605070C0E10131B0A2100E069
:103D500032210120FEF774FF0EE06421F9E7FA2119
:103D6000F7E7FF21F531F4E77D210901F1E70121B2
:103D700089070120FEF7D8FF3BA12FE0E079012859
:103D800009D0022805D003280BD0042829D138A156
:103D900002E039A100E03AA10120FEF7F4FA3AA1CD
:103DA0001CE03BA1F8E7207A030000F032FA081A81
:103DB0000F0D07051113151A37A100E038A10120D6
:103DC000FEF7E1FA38A109E039A1F8E73AA1F6E7F0
:103DD0003BA1F4E73CA1F2E73DA1F0E70020FEF7AC
:103DE000D2FA70BD3CA10120FEF7CDFA3CA1F5E767
:103DF0000C0000200000C84288000020A80000201D
:103E000020202020000000004E6F524D00000000D6
:103E100020485359000000004F7574310000000025
:103E2000454153590000000057434D500000000029
:103E30004F75743200000000204F4646000000001D
:103E40003163326F00000000316332630000000014
:103E5000316F3263000000004E4F4E4300000000FF
:103E6000316F326F00000000205245530000000007
:103E70004752454E00000000472D6F4E00000000E5
:103E8000522D6F4E00000000434C6F5200000000A6
:103E900020524544000000002062417200000000F2
:103EA000204B674600000000556E6974000000005A
:103EB000204B505200000000204D505200000000E6
:103EC00020505349000000004D4D484700000000BD
:103ED000696E4847000000002050524F000000006B
:103EE0004D6F64650000000004220449042808693D
:103EF00002D09043086170471043FBE700E000E008
:103F00007047000010B521490868012212041043CF
:103F1000086000200B689B0302D4401C9042F9D338
:103F20000868800330D51A480368102423430360CF
:103F30000368DB08DB005B1C03604868F0239843E0
:103F40004860486807231B02984348604868032379
:103F5000DB0398438018486048680F22920490431E
:103F6000220480184860086812011043086008683D
:103F70008001FCD5486880088000801C4860486843
:103F80000007800F0228FAD110BD00000010024087
:103F90000020024010B5164801680122114301605B
:103FA0004168144A114041600168134A11400160A0
:103FB0000168012292049143016041683F2212048A
:103FC000914341604168090909014160016BFF2289
:103FD000543291430163416B490849004163002118
:103FE0008160FFF78FFF01200449C006886010BD83
:103FF000001002400CB8FF08FFFFF6FE00ED00E0E5
:104000007047000070B501218C07204600F0DFF8F2
:1040100001286ED10121204600F07EF8354A7D2529
:10402000907BED0000240121334B00282BD0106839
:10403000401C10601679012E02D0032E10D107E02B
:10404000A8420DD9D07B02263043D073032006E06E
:104050002A4EB04204D9D67B04200643D673107191
:10406000107B00280FD11079012804D0032807D035
:10407000042806D104E0D07B0843D0731C8500E0FF
:10408000117194731460D87B002807D0188D401CE0
:104090001885188DA84205D9197403E0187C0028EA
:1040A00000D11C8516480268521C0260154A10682F
:1040B000401C106014480268521C026013480268D9
:1040C000521C02600C4820308279002A02D01A6EFD
:1040D000521C1A669A8D521C92B29A85642A01D19A
:1040E000C1709C85DA6D521CDA650A2A01D3DC6541
:1040F000417170BD780000200C000020B80B00005A
:104100008800002098000020A8000020B8000020AF
:1041100010B5FFF777FF10BDC94301617047C94370
:10412000016170478168C908C9008160704700005B
:104130001C4B10B5984202D01B4A904210D1026825
:104140001024A2438C78E407E40E22430260026844
:104150006024A2438C786407A40F640122430260A8
:10416000124A904208D0026803242402A2430C7A27
:10417000A407A40D224302604A68C2620A888262D0
:10418000984208D00A4A904205D00A4A904202D08A
:10419000094A904201D1497A0163416901221143E0
:1041A000416110BD002C014000040040001000409F
:1041B00000400140004401400048014001680122E4
:1041C000114301607047C2680A43C26070470269C8
:1041D0000A4204D0C068084201D001207047002084
:1041E0007047F8B5040C8BB2264682B25E43104687
:1041F00058430D0C370C36040021801916467941BE
:104200006E43370C36048019264679416E4389196E
:10421000F8BD30B47446641E2578641CAB4200D2ED
:104220001D46635D5B00E31830BC18474900CA02B5
:104230000243100000D004204A0D01D00122104397
:10424000044A490D914201D102210843012800D1BD
:1042500005207047FF07000030380A2801D20120EE
:104260007047002070470000FDF75CFF0A4C0025F6
:104270000A48FEF797FD0A48FEF794FD0948FEF745
:1042800091FD0948FEF78EFD60790028F0D000F01E
:104290000DF86571ECE700002C000020880000207C
:1042A00098000020A8000020B8000020F8B5BF4CFE
:1042B0000226227827462037012A0FD0BC4B012541
:1042C000587BD97B022A4AD0032A7CD0042A45D1C4
:1042D0001F46C90778D0012877D04DE1B5A101204C
:1042E000FEF72FFCB5A10020FEF72BFCE07FFCF7CA
:1042F00023FB024600230A21B248FEF79FFD3878CF
:10430000FCF71AFB024601230A21AF48FEF796FD8F
:104310007878FCF711FB024602230A21AB48FEF72E
:104320008DFDB878FCF708FB024603230A21A84854
:10433000FEF784FDFEF70AFE206EA066A06E616E99
:10434000401A7D21C900884208D9A2A10020FEF7A9
:10435000F8FBA0A10120FEF7F4FB2670F8BD1E4675
:10436000CA0718D049084900F173012801D1FFF7A5
:104370005BF9707B022802D10120FFF717FC707BEC
:10438000042802D10020FFF711FC00207073F07B9D
:1043900040084000F073F07B80070BD5307B01288C
:1043A00004D1032020706570FFF740FCF07BFD21F5
:1043B0000840F073FFF77AFBFDF7D0FEE06CFCF7E6
:1043C000BBFA864902E014E0DCE0CEE000F07CF9C4
:1043D000834900F0FDF96065F978002906D00021D5
:1043E000F970012201461046FEF772FAFFF7E2FA71
:1043F000F8BDC907042700296FD0012806D16078CD
:10440000072808D0401C6070FFF710FC6848407B0C
:10441000022803D03AE026706670F5E76078030062
:10442000FFF7F7FE083232050D151D252D32E07815
:10443000032802D0401CE07026E0E57024E02079DB
:10444000042802D0401C20711EE025711CE0607918
:10445000042802D0401C607116E0657114E0A07958
:10446000072802D0401CA0710EE0A5710CE0E07995
:10447000042802D0401CE07106E0E57104E0207AD7
:10448000072808D0401C2072FFF7D0FB4848407B2B
:10449000042802D03BE02572F6E76078072103008C
:1044A000FFF7B7FE083333050D151E262E33E078CF
:1044B000012802D0401EE07027E00320FBE72079AE
:1044C000012802D0401E20711FE027711DE0607995
:1044D000012803D0401E607117E01FE0677114E0EF
:1044E000A079012802D0401EA0710EE0A1710CE05D
:1044F000E079012802D0401EE07106E0E77104E097
:10450000207A012813D0401E2072FFF78FFB284825
:1045100000214173C17B49084900C1732448C07B15
:10452000800710D52248007B012802D006E02172C6
:10453000EBE726706570A570FFF778FB1C48FD223D
:10454000C17B1140C1731A4EF07B400700D44FE786
:10455000307B012804D127706570A570FFF766FBDA
:10456000F07BFB210840F073F8BDA078072810D03D
:10457000401CA070FFF75AFB00207873F87B4008BE
:104580004000F873F87B8007EED5387B012803D014
:1045900006E02670A570EDE72670A570FFF746FBD4
:1045A000F87BFD210840F873F8BD00000C000020E6
:1045B00078000020524C3031000000005F4E504E19
:1045C000000000008800002098000020A8000020C3
:1045D000B80000202020202000000000FCA9713D30
:1045E0005C8FDA4210B500290AD00878002807D07D
:1045F00005487844FDF7FCFB002801D0002010BDE1
:104600000248784410BD00002E040000260400007B
:1046100010B500290AD00878002807D0054878444A
:10462000FDF7E6FB002801D0002010BD02487844C9
:1046300010BD00001E0400001604000070B5012526
:104640000400ED074C4020D4441A01D2001B091984
:10465000C60D4B00F2B2FF2A29D01B0E2CD000024F
:104660000C02D31A2C43DC402843051910D2280A27
:1046700002D3401C6D0611D0761EF6058019FF2A64
:1046800000DA70BDC00DC00570BD694000F0A6F82D
:1046900001200543C541521C761CE8E764089C4094
:1046A000C90161408900E7D10124A043E4E71B0E62
:1046B000440200D0034870BD002AFCD1C00FC007DF
:1046C00070BD00BF0000C07F70B5420064414B0068
:1046D0005C41120E39D01B0E38D0FF2A3CD0FF2B84
:1046E0003AD040024902400A490A060045184E43A2
:1046F000000A090AD2184843ED017F3A0104731AEF
:104700004019190C4318990F04D001215B0849077F
:104710005B1A521CD80904D3401CF50301D19D0635
:1047200007D0FF2A08D2D50506D0E4072043401958
:1047300070BD0125A843F4E7002A01DCE00770BD45
:104740002402FF202043C00570BD1B0EFF2A03D0AA
:10475000FF2B01D0E00770BDFF2645003606B542AD
:1047600006D84D00B54203D8D218FF2A00D0E7E79B
:10477000004870BD0000C07F01230A00DB05024332
:104780000DD4DA4203D49A4207D481427047D94209
:1047900014D4D84212D48142704789427047DA4219
:1047A00003D59A42F9D5884270475B004A00DA4245
:1047B00004D24200DA4201D2884270474840414068
:1047C00010B5024A4840FCF723FD10BD090016044D
:1047D00070B501250400ED074C4022D4441A02D2E2
:1047E0006C40001B0919C60D4B00F2B2FF2A4BD0DA
:1047F0001B0E50D000020C02D31A2C43DC40A843FD
:10480000051B05D5AD0019D36D08761E521E37D095
:10481000F605280A01D2801970BD70416D0603D0DB
:1048200070BD6940FFF710FF9C40090261404900DC
:1048300001D0401E70BD0124A04370BD6D081DD085
:1048400001202B0C01D12D0410302B0E01D12D0293
:1048500008302B0F01D12D01001DAB0F01D1AD0090
:10486000801CEB0F01D16D00401C6D00361A121A2E
:10487000680AF5054019012A02DB70BD002070BDF1
:10488000C036300AC00770BD1B0E440201D1FF2B99
:1048900000D1024870BD002AF0D070BD0000C07F7A
:1048A00003B402487844844603BC6047D7C3FFFF83
:1048B00003B402487844844603BC604759CAFFFFEA
:1048C00004000008000000000000000200010000D9
:1048D000108182838485868788898B8C8D8E8F91C9
:1048E0009293959697999A9C9D9FA0A2A3A5A7A8FD
:1048F000AAACAEB0B2B3B5B7B9BCBEC0C2C5C7C929
:10490000CCCED1D4D7D9DCDFE2E6E9ECF0F3F7FA8C
:10491000FE000000000000000000000030313233D3
:1049200034353637383941424344454640305800E3
:104930003031323334353637383961626364656615
:1049400040307800303132333435363738396162AF
:104950006364656678700030313233343536373809
:10496000394142434445465850000000024000008F
:10497000000000A00000000005400000000000C88A
:10498000000000000C4000000000409C00000000FF
:10499000194000000020BCBE0000000034400000B0
:1049A000BFC91B8E00000004B5400000504BCFD0A3
:1049B0006607E2CF010000006C4100003E8251AA70
:1049C000DFEEA73401000000D9420000DCB5A0E210
:1049D0003A301F97FFFFFFFFB4450000FD25A0C838
:1049E000E9A3C14FFFFFFFFFFF3F00000000008071
:1049F00000000000FF3F00000000008000000000F9
:104A00004C4B000800000020780000000001000866
:104A1000C44B000878000020B01200001C01000800
:104A20001C00000043000000F8FFFFFF0C00000026
:104A30000E0000000F0000002E000000100100001A
:104A400043000000F8FFFFFF00404040404040406E
:104A50004040414141414140404040404040404051
:104A600040404040404040404005020202020202F5
:104A70000202020202020202022020202020202044
:104A80002020200202020202020290909090909058
:104A90001010101010101010101010101010101016
:104AA000101010100202020202028888888888888A
:104AB0000808080808080808080808080808080876
:104AC000080808080202020240000000000000007E
:104AD00000000000000000000000000000000000D6
:104AE00000000000000000000000000000000000C6
:104AF00000000000000000000000000000000000B6
:104B000000000000000000000000000000000000A5
:104B10000000000000000000000000000000000095
:104B20000000000000000000000000000000000085
:104B30000000000000000000000000000000000075
:104B4000000000000000000000000000006CDC021B
:104B5000000000000000000001010101020201014B
:104B60000100000000000000000000000000000044
:104B700000000000000A00640064640000000000FF
:104B80000000F40100000000000000000000000030
:104B90000000000000000000000000000000000015
:104BA0000000000000000000000000000000000005
:104BB00000000000000000000000000000000000F5
:044BC00000000000F1
:04000005080000BD32
:00000001FF
