:020000040800F2
:100000008806002061010008870A0008850A0008A8
:1000100000000000000000000000000000000000E0
:10002000000000000000000000000000790B000844
:100030000000000000000000250B0008A10B0008D4
:1000400073010008730100087301000873010008C0
:1000500073010008730100087301000873010008B0
:1000600073010008730100087301000873010008A0
:10007000610300087301000873010008590D0008AE
:10008000730100087301000800000000110D000852
:100090007301000873010008730100087301000870
:1000A0007301000873010008730100087301000860
:1000B00073010008000000007301000800F002F85E
:1000C00000F03EF80CA030C8083824182D18A246BD
:1000D000671EAB4654465D46AC4201D100F030F895
:1000E0007E460F3E0FCCB6460126334200D0FB1AA7
:1000F000A246AB4633431847740D0000940D000030
:10010000103A02D378C878C1FAD8520701D330C860
:1001100030C101D504680C60704700000023002442
:1001200000250026103A01D378C1FBD8520700D32E
:1001300030C100D50B6070471FB51FBD10B510BD95
:1001400000F0DAF81146FFF7F7FF00F086FE00F046
:10015000F2F803B4FFF7F2FF03BC00F0FBF8000075
:100160000748804707480047FEE7FEE7FEE7FEE74F
:10017000FEE7FEE704480549054A064B70470000C4
:10018000890C0008BD0000088800002088060020B7
:100190008802002088020020002203098B422CD311
:1001A000030A8B4211D300239C464EE003460B43C7
:1001B0003CD4002243088B4231D303098B421CD329
:1001C000030A8B4201D394463FE0C3098B4201D31B
:1001D000CB01C01A524183098B4201D38B01C01A53
:1001E000524143098B4201D34B01C01A52410309CA
:1001F0008B4201D30B01C01A5241C3088B4201D379
:10020000CB00C01A524183088B4201D38B00C01A25
:10021000524143088B4201D34B00C01A5241411A4C
:1002200000D201465241104670475DE0CA0F00D02F
:100230004942031000D34042534000229C46030928
:100240008B422DD3030A8B4212D3FC22890112BAAE
:10025000030A8B420CD3890192118B4208D3890186
:1002600092118B4204D389013AD0921100E089099E
:10027000C3098B4201D3CB01C01A524183098B427F
:1002800001D38B01C01A524143098B4201D34B0168
:10029000C01A524103098B4201D30B01C01A5241CB
:1002A000C3088B4201D3CB00C01A524183088B4252
:1002B00001D38B00C01A5241D9D243088B4201D3DB
:1002C0004B00C01A5241411A00D2014663465241C6
:1002D0005B10104601D34042002B00D549427047C5
:1002E00063465B1000D3404201B50020C046C046C3
:1002F00002BD704770477047754600F025F8AE465E
:10030000050069465346C008C000854618B020B5B0
:10031000FFF730FF60BC00274908B6460026C0C57D
:10032000C0C5C0C5C0C5C0C5C0C5C0C5C0C5403DAD
:1003300049008D46704710B50446C046C046204669
:10034000FFF707FF10BD00000048704724000020A1
:100350007047000001491820ABBEFEE726000200EE
:1003600010B500F077F810BD014908607047000033
:10037000002401402349C968182291430278D20021
:1003800018231A4011431F4AD1601146C968202220
:1003900091434278520120231A401143194AD160F7
:1003A0001146C968042291438278920004231A40BE
:1003B0001143144AD1601146C96852149143C2785E
:1003C0005203DB021A4011430E4AD1601146C9683C
:1003D0000322920291434279920203239B021A4024
:1003E0001143084AD1601146C968FF22C1329143C6
:1003F00002799201FF23C1331A401143014AD160AF
:100400007047000000240140044A926A0243034BF3
:100410009A621A4652690A435A61704700240140A1
:100420000021017041708170C1700171417170478C
:100430000348806840084000401C014988607047BC
:1004400000240140024949680143014A5160704754
:100450000024014010B5082000F048F801280FD111
:100460000820FFF781FF00F03BF8064908600968A3
:10047000054A514308460549FFF78EFE04490860C6
:1004800010BD000010000020E40C0000FF0F000071
:100490001400002010B50020002100220F4B9B68A3
:1004A0005B005B080124E4071B190C4CA36000BF30
:1004B0000A4B9B68DA0F491C0F231B03994201D09A
:1004C000002AF5D1054B9B68DB0F002B03D1034BB2
:1004D0004033186800E0002010BD000000240140F7
:1004E0000148006880B270474024014010B50146C1
:1004F000084840680840024606480068CCB22040E0
:100500000346002A03D0002B01D0012010BD00209B
:10051000FCE700000024014010B50120400200F07B
:1005200023FB0120400200F0FFFA10BD0348806861
:1005300004218843001D0149886070470024014060
:1005400010B5042000F01AFB074908480068FFF7BF
:1005500023FE074908600846008880B27D21C90053
:1005600048430449086010BD40420F0000000020CD
:10057000040000200800002010B500F0B5F9FFF7D6
:10058000DFFF00F009F800F01FF900F04FFA00F06B
:10059000C8F800F001F910BD10B500F04DF910BD1C
:1005A00010B502210920C00600F03EF9002845D10F
:1005B00031480079030000F042FC05041A0A2D3F7F
:1005C000400002202C4908710020086035E02A48CC
:1005D000C088401C80B22849C880022806DB012060
:1005E00008710846006888600020C88025E022481D
:1005F000006821498968441A7D200001844208D39B
:1006000003201D490871012109030920C00600F0DB
:1006100063F912E01848006817498968441A7D2078
:100620004001844207D30420134908718102092044
:10063000C00600F049F900E000BF1BE00E48007959
:10064000012806D0022808D003280AD0042810D197
:100650000BE00020084908710BE000200649C88023
:1006600007E000200449087103E0002002490871F6
:1006700000BF00BF10BD000018000020816270475D
:1006800070B50A4600213DE001238B4014881C40D0
:10069000002C00D135E09478012C02D09478022C03
:1006A00016D184684E000325B540AC4384601479AC
:1006B0004D00AC4085682C4384604468D5788D40FB
:1006C000AC4344604468D5788D40ADB22C4344605F
:1006D00005684E000324B440A543056094784D009E
:1006E000AC4005682C430460C4684E000325B54047
:1006F000AC43C46054794D00AC40C5682C43C46021
:1007000000BF491C1029BFD370BD024613690B40BE
:10071000002B01D0012300E00023184670478161BF
:1007200070471FB50120400400F006FA0120400286
:1007300000F012FA012000F00FFA40216846018112
:10074000032181720021417302A90920C006FFF72D
:1007500097FFFFF7E1FE6846FFF762FE002168465B
:100760000170417081700121C170002101714171DE
:10077000FFF700FE07214020FFF746FE02210C2074
:1007800000F082F90820FFF75DFEFFF783FEFFF718
:100790004FFEFFF7CBFE1FBD1CB50120400400F04B
:1007A000CBF9E02168460180012181700021C170F0
:1007B000032101710121417169460248FFF760FF81
:1007C0001CBD0000000400481CB50120400400F0DE
:1007D000B3F90120800400F0AFF9022168460180DE
:1007E000002181700321017169460920C006FFF7CD
:1007F00047FF0121684601800021817003210171BA
:1008000069460920C006FFF73BFFFF21013168461A
:100810000180002181700321017169460148FFF7C1
:100820002FFF1CBD0004004870B504460D46294644
:100830002046FFF76AFF70BD1CB50120400400F0A0
:100840007BF90121090368460180012181700021A3
:10085000C170032101710021417169460920C00660
:10086000FFF70EFF102168460180012181700021F1
:10087000C170032101710021417169460920C00640
:10088000FFF7FEFE0121C903684601800121817046
:100890000021C170032101710021417169460920C5
:1008A000C006FFF7EDFE202168460180012181701E
:1008B0000021C170032101710021417169460920A5
:1008C000C006FFF7DDFE1CBD70B504460D46294687
:1008D0002046FFF7D3FE70BD70B504460D4629468D
:1008E0002046FFF71CFF70BD4C49096849084900C4
:1008F000491C4A4A116011464968494A1140474A11
:10090000516011460968474A1140444A1160114636
:100910000968012292049143404A116011464968D6
:100920003F22120491433D4A51601146496809092A
:10093000090151601146096BFF2254329143374A35
:1009400011631146496B49084900516300219160C8
:100950001146096801221204914389182F4A116037
:10096000002007E02D4909688907C90F002900D038
:1009700004E0401C052109028842F3D300BF274947
:1009800009688907C90F002947D02749096810223B
:1009900091431031244A116011460968C908C90001
:1009A000491C11601D494968F02291431B4A51605E
:1009B00011464968072212029143184A51601146B4
:1009C00049680322D2039143144A51601146496891
:1009D0000F22920491430522D20489180F4A5160D4
:1009E0001146096801221206914389180B4A1160C9
:1009F00000BF0A4909688901C90F0029F9D00749D0
:100A0000496889088900891C044A516000BF03496C
:100A100049680907890F0229F9D17047001002407F
:100A20000CB8FF08FFFFF6FE002002400EB50120C3
:100A300000F08AF80120800700F098F9002168464C
:100A4000017281700E4801902F21684601800021BB
:100A5000417269460120800700F08EF90121880764
:100A600000F081F90121880700F0D8F900210F205A
:100A700000F00AF80120800700F0CAF90EBD00005E
:100A8000E70300007047704770B504460D462946DD
:100A9000204600F00BF800BFE106C90E0120884097
:100AA0000149086000BF70BD00E100E010B50028FA
:100AB00019DA1A4A03071B0F083B9B089B00D25800
:100AC0008307DC0EFF23A3409A438B071B0E84078A
:100AD000E40EA3401A43114B0407240F083CA4085A
:100AE000A4001A5118E00E4A03231B02D2188308EF
:100AF0009B00D2588307DC0EFF23A3409A438B0749
:100B00001B0E8407E40EA3401A43054B0324240262
:100B10001B198408A4001A5110BD00001CED00E050
:100B200000E100E0704700000249C9688143014AC2
:100B3000D160704700100240024949690143014AEF
:100B400051617047001002400249C9690143014ADE
:100B5000D161704700100240024989690143014A8E
:100B600091617047001002400249C9680143014A7F
:100B7000D16070470010024070470000042806D181
:100B80000649096904221143044A116105E0034939
:100B9000096904229143014A1161704700E000E0B5
:100BA00070470000344909680122120491438918F2
:100BB000314A1160002007E02F4909688903C90FF5
:100BC000002900D004E0401C012109048842F3D32D
:100BD00000BF294909688903C90F00294AD027495C
:100BE0000968102291431031244A116011460968A6
:100BF000C908C900491C11601F494968F022914386
:100C00001D4A5160114649680722120291431A4A4F
:100C10005160114649680322D20391430122120414
:100C20008918154A5160114649680F229204914370
:100C3000012212058918104A5160114609680122E3
:100C40001206914389180C4A116000BF0A490968CD
:100C50008901C90F0029F9D0074949688908890025
:100C6000891C054A516000BF034949680907890F7B
:100C70000229F9D170470000001002400020024014
:100C800010B5FFF78FFF10BD10B51D480068400874
:100C90004000401C1A49086008464068194908404D
:100CA0001749486008460068174908401449086019
:100CB00008460068012189048843114908600846F4
:100CC00040683F21090488430D4948600846406850
:100CD0000009000148600846006BFF215431884339
:100CE000074908630846406B4008400048630020FD
:100CF0008860FFF7C5FF0120C0060449886010BD69
:100D0000001002400CB8FF08FFFFF6FE00ED00E007
:100D10007047000010B50121880700F083F8012812
:100D200015D10121800700F01BF809480068401C1C
:100D300007490860084600680A2803D300200860B5
:100D400000F08FF803480068401C0249086010BD9D
:100D50000C0000201800002010B5FFF7DBFF10BDCD
:100D6000CA4302617047CA43026170478168C9087B
:100D7000C90081607047000010B51F4A904202D040
:100D80001E4A904212D1026810239A438B781B01AD
:100D9000102423401A430260026860239A438B7830
:100DA0005B105B01602423401A430260144A9042A6
:100DB0000AD0026803231B029A430B7A1B02032406
:100DC000240223401A4302604A68C2620A8882628F
:100DD000094A904208D00B4A904205D00A4A9042F4
:100DE00002D00A4A904201D14A7A0263426952080B
:100DF0005200521C426110BD002C01400004004012
:100E00000010004000400140004401400048014003
:100E1000016849084900491C01607047C2680A43DB
:100E2000C2607047024610690840002805D0D068AB
:100E30000840002801D0012070470020FCE730B4B2
:100E40007446641E2578641CAB4204D3635D5B006A
:100E5000E31830BC18471D46F8E7FFF78DFB00BFCD
:100E6000FEE710B5FFF79CFB10BD00008C0E0008DC
:100E7000000000201800000000010008A40E000877
:100E800018000020700600001C010008006CDC0245
:100E90000000000000000000000000000000000052
:040EA000000000004E
:04000005080000BD32
:00000001FF
