:020000040800F2
:10000000700700205D020008F74C0008F54C00085E
:1000100000000000000000000000000000000000E0
:100020000000000000000000000000004D5100082A
:100030000000000000000000954D00080D5700086A
:100040006F0200086F0200086F0200086F020008CC
:100050006F0200086F0200086F0200086F020008BC
:100060006F0200086F0200086F0200086F020008AC
:10007000A51D00086F0200086F0200082D5A000835
:100080006F0200086F020008000000007D580008A1
:100090006F0200086F0200086F0200086F0200087C
:1000A0006F0200086F0200086F0200086F0200086C
:1000B0006F020008000000006F02000800F002F864
:1000C00000F0BDF80CA030C8083824182D18A2463E
:1000D000671EAB4654465D46AC4201D100F0AFF816
:1000E0007E460F3E0FCCB6460126334200D0FB1AA7
:1000F000A246AB4633431847B05E0000D05E000016
:10010000103A02D378C878C1FAD8520701D330C860
:1001100030C101D504680C60704700000023002442
:1001200000250026103A01D378C1FBD8520700D32E
:1001300030C100D50B60704710B56E2902D100F0B8
:100140009DFC10BD702902D100F0E9FF10BD6629A9
:1001500002D105F079FE10BD652902D105F074FECB
:1001600010BD672902D105F06FFE10BD612902D1D3
:1001700005F072FE10BD03681B0A01D380231943EA
:10018000692902D100F0C0F810BD642902D100F045
:10019000BBF810BD752902D100F0B6F810BD6F296B
:1001A00002D100F067FF10BD782902D100F0A4FF52
:1001B00010BDE92902D100F003FF10BDE42902D1EE
:1001C00000F0FEFE10BDF52902D100F0F9FE10BDD1
:1001D000EF2902D100F05AFF10BDF82902D100F03A
:1001E00099FF10BD0368DB0901D3802319436329FC
:1001F00002D101F0F6F910BD732902D101F0F9F92D
:1002000010BDE32902D101F003FA10BDF32902D198
:1002100001F006FA10BD002010BD1FB500F0E4FF8C
:1002200004000020002105F0A1FD401C60600020BA
:10023000002105F085FDE0601FBD10B510BD01F087
:100240002FFD1146FFF7E9FF05F0A8FC01F056FD70
:1002500003B4FFF7F2FF03BC01F09EFD074880479F
:1002600007480047FEE7FEE7FEE7FEE7FEE7FEE79A
:1002700004480549054A064B70470000F557000839
:10028000BD000008700100207007002070030020EE
:10029000700300207CB51D4616460C00009001D06E
:1002A0000019401E084B7B442A466946019030469F
:1002B00000F007FE002C054603D06946002000F040
:1002C00013FE28467CBD0000490C00000FB47CB52D
:1002D0000C0009AA009001D00019401E094B7B4474
:1002E00069460190089800F0ECFD002C054603D00B
:1002F0006946002000F0F8FD28467CBC08BC04B02C
:1003000018470000110C0000F7B50025752910688A
:10031000009914A611D000F01EFB002802DA40421A
:1003200011A608E0009909688A0701D50FA602E026
:10033000490704D50EA6012501E000F015FB009F3A
:100340000024243704E000F02FFF30313955641CBD
:100350000028F8D12B4632462146009800F036FBA3
:10036000FEBD0000000000002D0000002B0000007A
:1003700020000000F3B50446002081B02062204632
:10038000E1688847002872D0252802D06268A168F9
:10039000ABE0594F00267F442046E168884720287B
:1003A000054608DB312D06D2781920380078002860
:1003B00001D00643F0E7B00701D5042086430020B2
:1003C000E0610746A0612A2D0AD0284605F0DEFB31
:1003D000002827D0B8000019303D0090856119E051
:1003E0000298BA00121902C8916102902046E16891
:1003F0008847012F054617D1E06900281FDA202021
:1004000086431CE000980A218069484300994019FE
:10041000303888612046E1688847054605F0B6FB1C
:100420000028EFD1012F0AD02E2D08D12046E168F7
:1004300088470546202006437F1C022FC3DBA069A6
:10044000002803DA4042A06101200643F00701D0F2
:10045000102086436C2D0BD0682D09D04C2D3CD03C
:100460006A2D38D0742D38D07A2D36D016E040E081
:10047000E1682F4620468847B842054609D16C2FCF
:1004800029D001208002E1680643204688470546BE
:1004900004E06C2F1DD0FF2001300643002D28D032
:1004A00028464138192803D80120C00206432035C8
:1004B000204626602946029A1646FFF73DFE002890
:1004C00010D001280BD0F61DF008C00008300290B3
:1004D00055E74020E1E78020D5E70020D3E7361D2F
:1004E00002964CE762682846A1689047206A401C43
:1004F00044E7206AFEBD0000CE5A000070B50646F3
:1005000000F0FEF90468054630460A22002100F09A
:1005100013FE2C6070BD000030B5441C03E0017870
:10052000401C00290DD08107F9D10B4BDD0104C817
:10053000D11A91432940FAD0001B0A0603D0C01EED
:1005400030BD001B30BD0A0401D0801E30BD090241
:10055000FCD0401E30BD0000010101010022030952
:100560008B422CD3030A8B4211D300239C464EE0CE
:1005700003460B433CD4002243088B4231D303098A
:100580008B421CD3030A8B4201D394463FE0C3093C
:100590008B4201D3CB01C01A524183098B4201D354
:1005A0008B01C01A524143098B4201D34B01C01A3F
:1005B000524103098B4201D30B01C01A5241C308B7
:1005C0008B4201D3CB00C01A524183088B4201D326
:1005D0008B00C01A524143088B4201D34B00C01A12
:1005E0005241411A00D201465241104670475DE027
:1005F000CA0F00D04942031000D3404253400022AA
:100600009C4603098B422DD3030A8B4212D3FC2252
:10061000890112BA030A8B420CD3890192118B42D1
:1006200008D3890192118B4204D389013AD09211E7
:1006300000E08909C3098B4201D3CB01C01A5241A2
:1006400083098B4201D38B01C01A524143098B426B
:1006500001D34B01C01A524103098B4201D30B0154
:10066000C01A5241C3088B4201D3CB00C01A524179
:1006700083088B4201D38B00C01A5241D9D2430860
:100680008B4201D34B00C01A5241411A00D201469D
:10069000634652415B10104601D34042002B00D507
:1006A0004942704763465B1000D3404201B50020C9
:1006B000C046C04602BD7047704770470121C9055A
:1006C0000123411842001B06D3185B0E0AD0C1104B
:1006D0000722D206891840075242D14201D5520062
:1006E00089187047090208D50146002A03D0C10FB6
:1006F000C9070020704710467047420202D0002010
:1007000002497047072109050143F4E70000F87F1B
:10071000F0B5FF252D04C609C209FF2704462E4067
:100720000137CB093E4348402A402B400746002A68
:100730006BD0002B69D0AA4267D0AB4265D00028AD
:1007400000DA32460125ED0529432C430902200237
:10075000090AD21A4B0C7F24E31A434C000A7C444A
:10076000E35C7D242404121914145B00A21888424F
:1007700001D3521C00E0400049420C465C43241166
:100780005C43DB016415E318040A5C43C502200DD9
:100790000C4644436419250A5D432303EC0C0D46C3
:1007A000654300030019EB184C42A34201D35B18C8
:1007B000401CD4052018002B07D05B00C91804D3B7
:1007C000401C002901D1400840003F2189048A4291
:1007D00009D3002A08DC1106090F04D003214907B8
:1007E0004018C00FC007F0BD012241001206891851
:1007F0007F2252069142F6D205214907C84201D50F
:100800009010F0BDFF20C005F0BD002F00DA324689
:100810001648AA4207D2AB4205D21902090E17D0D8
:10082000F80FC007F0BDFF2563002D06AB42F9D8D5
:100830004900A942F6D8AB4201D1A942F2D0A9425F
:1008400001D1002101E061004908D0050843F0BD55
:100850001102090EFBD0FF200243D005F0BD0A466D
:100860000146104654E70000175700000000C07F03
:100870000102C21504D00123DB071943002A0ADB59
:100880009E239A1A02D40846D0407047FF224100A6
:100890001206914201D900207047C017C04370472B
:1008A0001F22030C02D10F2200041CD0030E01D121
:1008B0000002083A030F01D10001121F830F01D17A
:1008C0008000921E002801DB4000521ED205511804
:1008D000021251181922904004D3491C002801D15A
:1008E0004908490008467047C10FC90700D0404277
:1008F000012292071143D3E701218907D0E70000C5
:10090000004870471001002070B5044685690068F2
:10091000C10601D5302600E02026C00707D070BDF3
:1009200062683046A1689047206A401C20626D1EB4
:10093000F6D570BD70B5044685690078C00707D14B
:1009400070BD6268A16820209047206A401C206228
:100950006D1EF6D570BD09684A0501D540B27047D5
:10096000C905FCD500B2704709684A0501D5C0B277
:100970007047C905FCD580B2704770B50C46054676
:10098000012A05D02878800600D5EA69002302E014
:10099000012305E05B1C934202D2E05C0028F9D100
:1009A000A869E618C01AA861286AC01828622846F3
:1009B000FFF7AAFF04E06A682078A968641C9047E2
:1009C000B442F8D32846FFF7B5FF70BDFFB5044623
:1009D0000D4681B0243000902168880604D510228D
:1009E000E0699143216000E00120A84201DD471B3E
:1009F00000E000270498A1697A191018081AA0616C
:100A00002078C00602D42046FFF77EFF002608E0CB
:100A100003986268A168805D9047206A401C761C3C
:100A2000206204988642F3DB2078C0060AD520466F
:100A3000FFF76AFF06E06268A16830209047206AED
:100A4000401C206238467F1E0028F4DC07E0009836
:100A50006268A168405D9047206A401C2062284679
:100A60006D1E0028F3DC2046FFF764FF20780006A7
:100A700002D5022005B0F0BD0120FBE71168026835
:100A8000006A530501D5087009E0D30501D5088037
:100A900005E0130602D5C21705C100E00860012079
:100AA000704700007047FFB50C461E468FB003CA62
:100AB000089009914F007D0D00D16D1E0021084660
:100AC0000020C0460321099A89050840002A03DA5C
:100AD0008200801840080840800D01280A9002DD3D
:100AE0000020C0430A90089807430DD0EF48F04912
:100AF000281848430714189800281DD07542291E4D
:100B00001DDD0A9842421BE01898012802D00020FF
:100B1000302104E00020F24305E02154401CB042A3
:100B2000FBDB30460022189B002121540F998B607B
:100B30000A60486013B0F0BDBD1B6D1CDFE70A9A68
:100B4000002900DA69420BA800F0C2FD0BAB07CB0D
:100B500003AB07C30899099800F01EFE6B4607C354
:100B60000146D4480918002D00910ADDD1490398A7
:100B70000A9A4942401803A90390684601F03FF8D9
:100B800007E003990A9A081803A90390684600F041
:100B9000FEFF6B4607C30004000C03D00020C043D7
:100BA000410800E01046189A002A03D00022009263
:100BB00015461EE0751E05D400F01AFB3032625552
:100BC0006D1EF9D501220843079602D000227F1C32
:100BD00004E02078302801D100227F1E002A0697E9
:100BE00089D01EE0112D07DA00F002FB3032625589
:100BF0006D1C02460A43F5D1084303D00098002833
:100C000019D00EE00021681E05E0235C625C63548D
:100C10002254401E491C8142F7DBA81B401E079549
:100C20000690079A18990020A0540F98079B069ADF
:100C300081600CC07EE71126002018905BE7D21D72
:100C4000F0B50D460446D10893B0C90003C90C9015
:100C50000D9104F085FF02460D98C00F01D02D20A4
:100C600007E02068810701D52B2002E04007C00F74
:100C70004001032A0F9001D0072A05DB03462946CD
:100C8000204600F05FFC0EE12078800601D5E76980
:100C900000E006272846652D04D0662814D0672D6D
:100CA00069D12DE00020112F009001DB112300E01D
:100CB0007B1C0CAA03A910A8FFF7F5FE11990026CA
:100CC00010987D1C0E9142E001203B460CAAC00703
:100CD0000B900120009003A910A8FFF7E4FE119DDE
:100CE00012981099002600280E9501D1781C0D1835
:100CF000781B02D446427D1C761EE81B00903AE029
:100D0000012F00DA01270020112F009001DD1123AF
:100D100000E03B460CAA03A910A8FFF7C4FE1199F6
:100D20003D46109800260E91217809070BD40E99A4
:100D3000A94200DA0D4603A9012D04DD4A19203A23
:100D4000D27F302A06D0B84201DA011D04DA01212F
:100D500000910FE06D1EEFE7002802DC86192D1AC6
:100D600003E0411CA94200DD0D46801B401C0090A1
:100D70000120C0070B902078000705D40098A842F6
:100D800002DB0020C043009069460020C8720B9827
:100D9000012102AF0337C907884225D002201090F5
:100DA0002B2011900B9800280BDA40420B902D203D
:100DB000119006E00B9800F0F7F930317F1E0B9090
:100DC00039701099481E00291090F3DC0B98002808
:100DD000F0D111987F1E38702088000501D545207C
:100DE00000E065207F1E387001A8C01BC01D0B905D
:100DF0000F98002800D0012041190098C017091849
:100E00000B980818A169081A401EA0612078C00636
:100E100002D42046FFF778FD0F98002805D06268BD
:100E2000A1689047206A401C20622078C00625D522
:100E30002046FFF769FD21E0002E07DB0E98B04247
:100E400004DD03A86268805DA16802E06268A168B1
:100E500030209047206A761C401C20620098401E7B
:100E6000002800900AD100F0BFF9C06862680168EC
:100E7000405CA1689047206A401C206228466D1E95
:100E80000028D9DC07E062683878A1687F1C9047A9
:100E9000206A401C20620B99481E00290B90F2DC4E
:100EA0002046FFF747FD032044E6000001FCFFFF5A
:100EB000104D0000E1DFFFFF01694A1C0261087864
:100EC000704700B58FB0029100210591054901934B
:100ED00079440391114604906846FFF74BFA0FB02E
:100EE00000BD0000E5FFFFFF0A681070521C0A6099
:100EF00070470CC908399A4202D2531C0B6010701B
:100F000070470000F7B50446154686B02B48784474
:100F1000002703C83E460090019111E007986A46F9
:100F20007100415A02A800F09BFE411C07D02178B5
:100F3000890603D5E269391891420ED83F18761C0C
:100F40002078800602D5E069B84206DDAE42E5DBD6
:100F500007987100405A0028E0D1A069C01BA06129
:100F60002046FFF7D1FC154878445A3803C8009052
:100F70000020019116E041006A460798415A02A8F4
:100F800000F06EFE0590401C0AD0002505E0626866
:100F900002A8A168405D90476D1C05988542F6D374
:100FA0000498401CB0420490E5DB206AC01920621E
:100FB0002046FFF7BFFC09B0F0BD0000AA4F0000BB
:100FC000F7B5D21D0025D20815A6D200F52905CA0D
:100FD00011D0002A05DA00214042914111A60A46AB
:100FE00008E0009909688B0701D50FA602E04907C0
:100FF00001D50EA601251146009F0024243704E0E8
:1010000000F0F6F830323A55641C02460A43F7D134
:101010002B46324621460098FFF7D8FCFEBD000063
:10102000000000002D0000002B0000002000000048
:1010300070B504460021243408E05507D2086D0F2E
:10104000303565545D072A43DB08491C15461D43AE
:10105000F3D10468002310A2250708D5A40601D403
:10106000002904D0C46901230CA2641EC461FFF7E7
:10107000ADFC70BD10B5044621461068FFF774FC46
:10108000002302462046FFF7D3FF10BDD21DD10832
:10109000C9000CC9CCE700000000000030000000CF
:1010A000F8B50F460188090502D5224C7C4402E0C0
:1010B000204C7C440E3405460021243508E01607F8
:1010C0001209360FA65D6E541E0732431B09491CD8
:1010D00016461E43F3D1224604780023240705D583
:1010E000702F06D0002901D002231132FFF76EFCC9
:1010F000F8BD01231032F9E770B504460D462146CC
:101100001068FFF731FC0023024629462046FFF70E
:10111000C7FF70BDD21DD308DB000CCBC0E730B4D5
:10112000036820241268234303600823C36130BC92
:101130000023B5E7144E0000F7B50F460026009CCB
:101140002578641C002D05D000F046F80068405D4D
:10115000C007F5D12B2D02D02D2D18D0641E394695
:10116000029A204600F060FA002F04D03968A142AC
:1011700001D1009939607105022400290BDA40423F
:10118000002803DDFFF7BCFB0460A007FEBD0120C3
:1011900080020643E3E70028F8DAFFF7B1FB0460BA
:1011A0000048FEBDFFFFFF7F01468008081A0209C4
:1011B0001018020A1018020C1018C0088200121829
:1011C0005200891A01E0401C0A390A29FBD27047F3
:1011D000004870471001002010B500F005F8001D10
:1011E00010BD00BF894B000000487047300100204F
:1011F0000B4670B5024689078008084319469D08CA
:10120000141AA94125090807054308092C19484162
:10121000250A01060D43010A2C194141200C0D0439
:1012200028430D0C00194D41002140194D41C008C3
:1012300069070843E908840F8D00254384002418BA
:101240004D4124196D41121BAB4107E00925ED43C7
:101250002C11521963410024401C61411C460A258F
:101260000026551BB441F1D270BD0000D21DF0B56F
:1012700004460D46D0088DB0C00046680768314668
:10128000384604F06DFC0246F00F01D02D2307E034
:101290002068810701D52B2302E04007C00F4301DE
:1012A0006846002B037001D0012000E00020032AD3
:1012B0000A9001D0072A04DB2946204600F042F9B3
:1012C0002DE12078800601D40D2500E0E56970004D
:1012D000400D0D2D01904BDA300D00210B9008468A
:1012E0000020C046032189050840002E05DA82004F
:1012F0008018C20F1018401008408015012801DD29
:101300000020C043A9000023182906D39C460A46A2
:101310000123183A1B07D34003E001221205CA40FB
:1013200094460C31202902D33A46203900E0324657
:101330008A40002802DD002A06D119E0002817D1D2
:101340000121C9078A4213D3194663467F185E41BB
:10135000002806D10120C007824202D108468743F7
:101360009E430B98310D814202D00198401C0190A0
:101370002088000502D57149794402E06F4979441B
:1013800019396B460A9830221A540A980A7C401C74
:101390001A54401C0A900198002801DC302000E01B
:1013A00031201872019A0120002A02D0644BD21811
:1013B00004E072003A4302D0614A521C0192002DAF
:1013C00002DC2278120703D56A462E2050720220D2
:1013D0000022864694460CE032033601120F6D1E41
:1013E0008B5C02AA13546246521C401C9446052A88
:1013F00001DA002DF0DC002202AE08E03B0F3F01D5
:10140000CB5C521C6D1E3354401C082A01DA002D9F
:10141000F4DC23689A0601D511E0401E704504DD16
:101420003218203AD27F302AF7D0002807DD321850
:10143000203AD27F2E2A02D11A0700D4401E002D56
:1014400003DD3E223254401C6D1E497C315401990B
:10145000401C002906DA2D21471C315401984042D6
:10146000019003E02B21471C315401987D21C900D4
:10147000884206DBFFF77CF83030F0557F1C019185
:1014800001E0642808DB01986421FFF771F830302F
:10149000F0557F1C019101E00A2806DB01980A2122
:1014A000FFF766F83030F0557F1C01980A21FFF7EE
:1014B0005FF83031F1550A98A1697F1C7A1910182C
:1014C000081AA0612078C00602D42046FFF71CFA53
:1014D000216A6E460A980818206204E06268307833
:1014E000A168761C90470A98401E0A90401CF5D1CE
:1014F0002078C00602D52046FFF706FA02AE09E0C2
:101500003078761C3E280DD06268A1689047206A2A
:10151000401C20627F1EF3D22046FFF70BFA0DB06D
:101520000320F0BD206A4019206203E06268A168D0
:10153000302090476D1EEDD3F8E70000834B00008C
:1015400001FCFFFFF8B51F46044601230068DB02DB
:10155000032601461840072A05DB002801D017A5FD
:1015600006E017A504E0002801D016A500E016A5A6
:10157000102081432160A069C01E002FA06101D00E
:10158000401EA0612046FFF7BFF9002F09D0384662
:101590006268A1689047206A401C2062C01C2062DB
:1015A00006E0206AFAE762682878A1686D1C904717
:1015B000761EF8D22046FFF7BDF9F8BD4E414E0029
:1015C0006E616E00494E4600696E660010B5436953
:1015D000002B02D0C046C04601E0FFF7CEF9012043
:1015E00010BD1278014624310A7000224A7001228F
:1015F000ECE711680022D243E8E710B54369002BFD
:1016000002D0C046C04601E0FFF77CFC012010BDBF
:1016100012880146243182840022C2840122ECE730
:1016200011680022D243E8E7F7B5154682B00027DB
:10163000029C2078641C0197302802D0002D15D020
:1016400015E020780127641C782804D0582802D09F
:10165000002D09D00BE0002D01D0102D07D12078EE
:1016600000271025641C02E0082500E00A2500265A
:10167000009610E000990127694308182946714334
:10168000020C80B200908E183804864201D30120EB
:1016900001902078641C294600F021FB0028E9DA3B
:1016A0000398002805D0002F01D0641E00E0029CA2
:1016B00004600198002806D0FFF722F9022101609A
:1016C000C81E05B0F0BD009930040843F9E70000DA
:1016D000F7B516468AB02F4878446C4603467C33EB
:1016E000C06F5A689B680DC42A487844763003ACB2
:1016F0000DC80DC43720C001081837211B30FEF774
:1017000037FF05460C46803D1B3C02D56442012054
:1017100000E00020002709900FE0E0070BD00C202C
:101720001C497843794432464C394118684600F0E8
:101730002EFA6B4607C364107F1C002CEDD1154FA9
:101740007F442C3F15E0E80711D02001C0190EC8D6
:101750000691089307920068F04201D19819089009
:10176000324606A903A800F012FA03AB07C36D10B6
:10177000641C002DE7D1324669460998002803A869
:1017800002D000F03CFA01E000F001FA0A9B07C326
:101790000DB0F0BD38480000034640000A4610B5C1
:1017A000400D0BD00121C9070F24A40200191C030E
:1017B00064082143540D2143D20207E00021012097
:1017C000F2E7D40F490021435200401E0029F8DA05
:1017D000DB0FDB07184310BDFFB50D46144685B07F
:1017E0004868516804F095F900910190A868A168D3
:1017F00004F08FF902910390A868616804F089F9F8
:10180000029A12188242029201D2012000E00020C6
:10181000019A0B18D2180028019202D08A4202D9EC
:1018200003E08A4201D2012000E00020009908185C
:1018300000906868A16804F06CF9029A121882425C
:10184000029201D2012000E00020019A0B18D21868
:101850000028019202D08A4202D903E08A4201D2D2
:10186000012000E0002000990818009028682168F5
:1018700040004900400849084018F549471814E05D
:1018800001994000C90F0843009001980299400057
:10189000C90F08430190029803994000C90F0843FB
:1018A0000290039840007F1E039000980028E7DA1A
:1018B0000898002801D0E74E00E00026B74228DA59
:1018C000F71BF806C00E15D0029B2021091A039AB7
:1018D0008B401A430392029A019BC2408B401A43E9
:1018E0000292019A009BC2408B4000991A430192D8
:1018F000C14000917A110BD06B460320811A01D5AB
:10190000002101E0890059588700401ED951F5D5C2
:10191000374603980299002800D001200143089817
:101920000291002808460CD0002800D0012001991F
:10193000019A490508430121D20AC902D202019243
:1019400000E001210E9B0122D207012B02D0002BC7
:1019500003D013E0002807D116E0904204D890424B
:101960000CD1019B0B4209D0019B5918019105D163
:101970000099491C009101D17F1C0092002803D0DE
:10198000102108460020C04628682168019B009A63
:101990004840C10F0598C90739430EC009B0F0BDD2
:1019A000FFB587B0099A089808995368926840680B
:1019B000896896460022039317469446089A12684F
:1019C0005300099A5B081268520052089A1AA24BF7
:1019D000D4180A9A002A01D0352200E0402206924B
:1019E0000022012315460492DB07059324E0002D15
:1019F00005D175460346039E4D1BB34109D3754679
:101A00006646039B491B049D9841059B7519AC468E
:101A10005F4163463B4308D0059B049EDD07760883
:101A20002E435B080496059301E0521E641EC50F09
:101A3000ED0749184041521C069B9A42D7DB002D06
:101A400004D17546039A6B1A824101D203200CE03F
:101A5000039A0B466B404240134303D0014303D02B
:101A6000012002E0022000E00020614601910021F7
:101A7000009702910A99002905D06146400201436E
:101A8000744B019102E08007002302909C423ADAF5
:101A90001A1BD006C00E15D0029D2021019C091AE8
:101AA000C5408C402543029C8C4000D00124254336
:101AB000019C02953D46C4408D4039462C43C140AF
:101AC0000194009154111DD06D460221002202297B
:101AD0000CD10320001B07E0002804DB8600AE5970
:101AE000002E00D00122401C0328F5DB081B02D584
:101AF00088002A5004E08000285810438A00A8502B
:101B0000491EE3D51C460A98002802980CD00028EC
:101B100000D001200199019A490508430121D20A08
:101B2000C902D202019200E00121109B0122D207DA
:101B3000012B02D0002B03D013E0002807D116E0C0
:101B4000904204D890420CD1019B0B4209D0019BDA
:101B50005918019105D10099491C009101D1641CCB
:101B60000092002803D0102108460020C0460898A3
:101B70000999019A0068096848400099C30F0798BD
:101B8000DB0723430360826041600BB0F0BD1FB5EB
:101B9000002300920A46014601A8FFF71DFE01AB93
:101BA00007CB04B010BDF0B585B0012300920A4602
:101BB000014601A8FFF710FE01990F220298920238
:101BC000CF0F4900039E49088C1AFF070021002807
:101BD00000DB0C46450021486D08844206D30D46C3
:101BE0000E460446102108460020C0462005E90A9A
:101BF000084369053843F20A05B01143F0BD1FB52B
:101C0000002300920A46014601A8FFF7C9FE01AB76
:101C100007CBC6E71FB5012300920A46014601A87B
:101C2000FFF7BEFE01AB0F2407CBA402C30F400099
:101C3000DB074008001B002900DB002049000005ED
:101C40004908CC0A204349051843D20A1143A8E7A2
:101C500002C0FFFF013C0000FF3F0000FF07000043
:101C600070B516460C460546FFF7B6FA0368FF2026
:101C70000230C05C012807D0FF2C0ED8185D002868
:101C80000BD001202C7070BDFF3332462146083343
:101C90001868C3182846984770BD0020C04370BD1F
:101CA0007546FFF795FAAE46050069465346C008EB
:101CB000C000854618B020B5FEF7DAFA60BC0027F0
:101CC0004908B6460026C0C5C0C5C0C5C0C5C0C508
:101CD000C0C5C0C5C0C5403D49008D4670473A28C3
:101CE00000D23038202302469A43412A01D31046BD
:101CF0003738884201D30020C043704710B50446EE
:101D0000C046C0462046FEF7A3FA10BD024670B595
:101D10000A4392072AD11E4DEE0104C808C9541B7C
:101D20009443344017D0D0B2D9B2401A21060143AF
:101D300010D190B299B2401A210401430AD1100285
:101D40001902000A090A401A2102014302D1100EA9
:101D5000190E401A70BD9A42DFD010BA19BA8842E3
:101D600001D9012070BD0020C04370BD02780B78FE
:101D7000401C491C002A09D09A4207D102780B78EE
:101D8000401C491C002A01D09A42EFD0D01A70BDE5
:101D9000010101017047000001491820ABBEFEE7B8
:101DA0002600020010B500F007F810BD01490860D8
:101DB000704700000024014010B5082000F006F82C
:101DC000012802D10820FFF7F1FF10BD10B5014630
:101DD000084840680840024606480068CCB22040E7
:101DE0000346002A03D0002B01D0012010BD0020A3
:101DF000FCE700000024014010B5042003F074FC4F
:101E0000074908480068FEF7A9FB0749086008462B
:101E1000008880B27D21C90048430449086010BD94
:101E200040420F00000000200400002008000020B5
:101E300001B5114A009912685143104A51610021BD
:101E4000916111460969012211430C4A116100BFD9
:101E50000A490869C107C90F002904D001210904F2
:101E600001400029F4D00549096949084900034A9D
:101E700011610021916108BD0400002000E000E034
:101E800010B502F069FE02F009FFFFF7B5FF00F0A0
:101E9000BDFF00F0BFFF00F038FD002002490860E0
:101EA00008460068486010BD8C000020F3B583B080
:101EB0000498030003F045FE351C2024282C303400
:101EC000383C4044484C5054585C6064686C7074B2
:101ED000787C8084888C9094989CA0A4A8ACB0B4A2
:101EE000B8BCC0C4C8CCD0D4D8DCE0E4E8ECF00086
:101EF000032406250D26CFE00D2402250D26CBE078
:101F00000B2400250126C7E00C2403250D26C3E081
:101F10000B2406250126BFE0032406250126BBE08D
:101F20000B2404250926B7E0032406250C26B3E07C
:101F3000032400250026AFE00A2400250C26ABE090
:101F400003240A250226A7E00B2400250026A3E08F
:101F5000032401250E269FE0032409250C269BE07F
:101F60000B2400250D2697E003240625052693E083
:101F70000B2400250D268FE003240E2505268BE07B
:101F800009240625092687E0082406250C2683E077
:101F90000B2400250C267FE00B2400250C267BE07B
:101FA000072408250C2677E004240925022673E07F
:101FB000092406250C266FE00C24002503266BE07F
:101FC000032406250D2667E00B240625082663E07A
:101FD0000A24062500265FE00A2406250C265BE07D
:101FE0000B240625012657E003240625012653E08D
:101FF000092406250D264FE00324062508264BE07C
:1020000000240025082647E00A2400250C2643E08A
:102010000324062500263FE00B24002500263BE094
:10202000032401250E2637E002240625082633E086
:102030000A24062508262FE00324062505262BE082
:10204000012406250D2627E002240625002623E08C
:102050000924062509261FE00B24062500261BE07F
:102060000A240025082617E00B2400250C2613E07F
:10207000072408250C260FE00424092502260BE07E
:10208000092406250C2607E00C240025032603E07E
:1020900000240025002600BF00BF0398030003F0C2
:1020A00050FD08050B11171D23292F351427132068
:1020B00002901220019029E01127102002900F2099
:1020C000019023E00E270D2002900C2001901DE0CE
:1020D0000B270A2002900920019017E0062707200D
:1020E00002900820019011E00327042002900520AF
:1020F00001900BE00027012002900220019005E0F2
:102100001727182002901920019000BF00BF224617
:102110003946052002F0B6FB2A460520029902F056
:10212000B1FB32460520019902F0ACFB05B0F0BDD1
:10213000FEB507460E460020019004200090019D48
:10214000BAE12C46002F0BD1002D00D10724012D20
:1021500000D10624022D00D10524032D00D1042432
:10216000705D612802DB705D7A2805DD705D4128B5
:1021700070DB705D5A286DDC705D4138030003F040
:10218000E0FC3AA1A6ABB0B5BABFC4C9CED3D8DD86
:10219000EFF4F9FEEAE9E8E7E6E5E4E3E2222222E9
:1021A0002222221E23282D32373C41464B50555ABD
:1021B0005F646A6F74797E83888D92979C22E0B207
:1021C0001A21FFF773FE0CE1E0B21B21FFF76EFE50
:1021D00007E1E0B21C21FFF769FE02E1E0B21D2138
:1021E000FFF764FEFDE0E0B21E21FFF75FFEF8E0BE
:1021F000E0B21F21FFF75AFEF3E0E0B22021FFF723
:1022000055FEEEE0E0B22121FFF750FEE9E0E0B23A
:102210002221FFF74BFEE4E0E0B22321FFF746FE68
:10222000DFE0E0B22421FFF741FEDAE0E0B2252151
:10223000FFF73CFED5E0E0B22621FFF737FED0E005
:10224000E0B22721FFF732FECBE0E0B22821FFF712
:102250002DFEC6E0C6E0E0B22921FFF727FEC0E070
:10226000E0B22A21FFF722FEBBE0E0B22B21FFF70C
:102270001DFEB6E0E0B22C21FFF718FEB1E0E0B29F
:102280002D21FFF713FEACE0E0B22E21FFF70EFE8A
:10229000A7E0E0B22F21FFF709FEA2E0E0B2302173
:1022A000FFF704FE9DE0E0B23121FFF7FFFD98E06B
:1022B000E0B23221FFF7FAFD93E0E0B23321FFF7FD
:1022C000F5FD8EE0E0B20021FFF7F0FD89E0E0B21D
:1022D0000121FFF7EBFD84E0E0B20221FFF7E6FD0C
:1022E0007FE0E0B20321FFF7E1FD7AE0E0B20421F4
:1022F000FFF7DCFD75E0E0B20521FFF7D7FD70E0E8
:10230000E0B20621FFF7D2FD6BE0E0B20721FFF754
:10231000CDFD66E0E0B20821FFF7C8FD61E0E0B264
:102320000921FFF7C3FD5CE0E0B20A21FFF7BEFD23
:1023300057E0E0B20B21FFF7B9FD52E0E0B20C210B
:10234000FFF7B4FD4DE047E041E03BE035E02FE032
:1023500029E023E01DE017E011E00BE005E0FFE7D6
:10236000E0B20D21FFF7A2FD3BE0E0B20E21FFF746
:102370009DFD36E0E0B20F21FFF798FD31E0E0B2BD
:102380001021FFF793FD2CE0E0B21121FFF78EFD45
:1023900027E0E0B21221FFF789FD22E0E0B213212D
:1023A000FFF784FD1DE0E0B21421FFF77FFD18E088
:1023B000E0B21521FFF77AFD13E0E0B21621FFF736
:1023C00075FD0EE0E0B21721FFF770FD09E0E0B205
:1023D0001821FFF76BFD04E0E0B21921FFF766FD5D
:1023E00000BF68E0705D302840DB705D39283DDC5F
:1023F000705D3038030003F0A4FB0A060B10151AB9
:102400001F24292E3338E0B2002100F082FA2CE09C
:10241000E0B2012100F07DFA27E0E0B2022100F0F5
:1024200078FA22E0E0B2032100F073FA1DE0E0B296
:10243000042100F06EFA18E0E0B2052100F069FA1C
:1024400013E0E0B2062100F064FA0EE0E0B20721EA
:1024500000F05FFA09E0E0B2082100F05AFA04E067
:10246000E0B2092100F055FA00BF24E0705D2D288C
:1024700005D0705D7C2802D0705D2F2817D1705D6B
:102480002D2804D02F280CD07C280FD104E0E0B2F6
:10249000012100F08BFB09E0E0B2022100F086FB95
:1024A00004E0E0B2002100F081FB00BF03E0E0B2F5
:1024B0000A2100F02EFA6D1C0098854200DA40E6F1
:1024C000FEBD000010B5064842791521052002F036
:1024D000D9F9034882791621052002F0D3F910BDFD
:1024E00008010020F3B58DB00F4600200A900B9034
:1024F0000C900790089009900A900B900C90079010
:102500000890099005900490002504E0785D2E283D
:1025100000D104956D1C3846FDF7FEFFA842F5D8A2
:10252000002507E0785D0AA948550698401CC0B20E
:1025300006906D1C04988542F4DB00210AAA0698D7
:1025400011540AA8FDF7DAFF03900AA8FDF7E4FF8B
:1025500004460498451C08E0795D07AA05981154C3
:102560000598401CC0B205906D1C785D0028F3D121
:10257000002107AA0598115407A8FDF7BFFF029094
:1025800007A8FDF7C9FF06460D9800287CD0032E4A
:1025900034D10A210398FDF7EBFFC8B20146019040
:1025A000002000F0B6F90321002000F0FFFA6421BA
:1025B0000298FDF7DDFF0A210090FDF7D9FFC8B2B0
:1025C00001460190012000F0A4F90A210298FDF7CC
:1025D000CFFF0A210090FDF7CBFFC8B20146019062
:1025E000022000F096F90A210298FDF7C1FFC8B257
:1025F00001460190032000F08CF984E1022E44D1C1
:10260000012C0AD10A210398FDF7B2FFC8B2014696
:102610000190012000F07DF919E0022C17D10A2168
:102620000398FDF7A5FF0A210090FDF7A1FFC8B2AE
:1026300001460190002000F06CF90A210398FDF793
:1026400097FFC8B201460190012000F062F90A210B
:102650000298FDF78DFF0A210090FDF789FFC8B2AF
:1026600001460190022000F054F90A210298FDF77A
:102670007FFFC8B201460190032000F04AF9032110
:10268000012000F093FA3EE160E0012EB5D1032C69
:1026900026D164210398FDF76BFF0A210090FDF716
:1026A00067FFC8B201460190002000F032F90A210C
:1026B0000398FDF75DFF0A210090FDF759FFC8B2AE
:1026C00001460190012000F024F90A210398FDF74A
:1026D0004FFFC8B201460190022000F01AF926E02F
:1026E000022C18D10A210398FDF742FF0A2100901D
:1026F000FDF73EFFC8B201460190012000F009F944
:102700000A210398FDF734FFC8B201460190022068
:1027100000F0FFF80BE0012C09D10A210398FDF726
:1027200027FFC8B201460190022000F0F2F80A210A
:102730000298FDF71DFFC8B201460190032000F08A
:10274000E8F80321022000F031FADCE0032E34D156
:102750000A210398FDF70CFFC8B20146019007203B
:1027600000F0D7F80321072000F020FA6421029836
:10277000FDF7FEFE0A210090FDF7FAFEC8B2014601
:102780000190062000F0C5F80A210298FDF7F0FE3E
:102790000A210090FDF7ECFEC8B201460190052029
:1027A00000F0B7F80A210298FDF7E2FEC8B2014630
:1027B0000190042000F0ADF8A5E0022E43D1012CD9
:1027C0000AD10A210398FDF7D3FEC8B20146019051
:1027D000062000F09EF819E0022C17D10A21039878
:1027E000FDF7C6FE0A210090FDF7C2FEC8B2014601
:1027F0000190072000F08DF80A210398FDF7B8FE3C
:10280000C8B201460190062000F083F80A21029820
:10281000FDF7AEFE0A210090FDF7AAFEC8B2014600
:102820000190052000F075F80A210298FDF7A0FE3E
:10283000C8B201460190042000F06BF80321062085
:1028400000F0B4F95FE0012E5DD1032C26D16421A4
:102850000398FDF78DFE0A210090FDF789FEC8B2AE
:1028600001460190072000F054F80A210398FDF773
:102870007FFE0A210090FDF77BFEC8B20146019061
:10288000062000F046F80A210398FDF771FEC8B251
:1028900001460190052000F03CF826E0022C18D1FA
:1028A0000A210398FDF764FE0A210090FDF760FEFF
:1028B000C8B201460190062000F02BF80A210398C7
:1028C000FDF756FEC8B201460190052000F021F840
:1028D0000BE0012C09D10A210398FDF749FEC8B28B
:1028E00001460190052000F014F80A210298FDF736
:1028F0003FFEC8B201460190042000F00AF803210F
:10290000052000F053F90FB0F0BD10B501F05AFFEB
:1029100010BDF3B583B00498030003F012F90B0B5C
:102920000F13171B1F23272B2F073300002400250D
:10293000002627E00B2400250D2623E00024002597
:102940000C261FE00A24062505261BE00824062580
:102950000D2617E0012406250C2613E00924062580
:1029600009260FE00B24062509260BE0002400258C
:102970000D2607E00B2406250D2603E00924062575
:102980000D2600BF00BF0398030003F0DAF8080526
:102990000B11171D23292F35142713200290122005
:1029A000019029E01127102002900F20019023E0D0
:1029B0000E270D2002900C2001901DE00B270A200D
:1029C00002900920019017E00627072002900820B6
:1029D000019011E0032704200290052001900BE0F4
:1029E0000027012002900220019005E017271820FF
:1029F00002901920019000BF00BF224639460520F1
:102A000001F040FF2A460520029901F03BFF3246C3
:102A10000520019901F036FF05B0F0BD10B5044660
:102A20000F480471007900280AD001280FD002282D
:102A300014D11A230B4A0021052001F08DFF0DE06F
:102A40001A23084A0021052001F086FF06E01A2318
:102A5000054A0021052001F07FFF00BF00BF10BD27
:102A600008010020580000207200002070B50546C3
:102A70000C46002D2ED00A2C05DA224632A1002069
:102A800000F07AF821E00A2C07DB642C05DA2246F4
:102A90002FA1002000F070F817E0642C09DB7D20E6
:102AA000C000844205DA22462BA1002000F064F821
:102AB0000BE07D20C000844207DB2848844204DA12
:102AC000224627A1002000F057F80321072000F03C
:102AD0006DF837E0002C05D122461BA1002000F044
:102AE0004BF82BE0002C07DD0A2C05DA22461DA14D
:102AF000002000F041F821E00A2C07DB642C05DA05
:102B000022461AA1002000F037F817E0642C09DBF8
:102B10007D20C000844205DA224616A1002000F084
:102B20002BF80BE07D20C000844207DB0B48844279
:102B300004DA22460AA1002000F01EF80321072033
:102B400000F034F870BD0000203030256400000033
:102B5000203025640000000020256400DC05000012
:102B6000256400002D303025640000002D302564E0
:102B7000000000002D2564000FB47FB5044600203E
:102B800001900290039009250AA80090294601A807
:102B9000009B099AFDF77EFB01A92046FFF7C8FAC2
:102BA000002000907FBC08BC04B01847F3B585B086
:102BB0000020029001900698030002F0C2FF050475
:102BC0000A1015161C000427002004900220039010
:102BD00011E0002706200490002003900BE003275B
:102BE00000200490039006E005E0002706200490F2
:102BF0000C20039000BF00BF0598030002F0A1FF66
:102C000008050B11171B1F252B3114241325122621
:102C10000820029025E0112410250F2604200290A0
:102C20001FE00E240D250C260220029019E00B2433
:102C30000A25092615E006240725082611E00324A5
:102C400004250526022001900BE000240125022620
:102C50000420019005E0172418251926082001906A
:102C600000BF00BF069803280AD115210520029A4B
:102C700001F008FE16210520019A01F003FE0EE086
:102C80003A462146052001F0FDFD29460520049A1B
:102C900001F0F8FD31460520039A01F0F3FD07B07D
:102CA000F0BD0000F8B505460C46012D7ED10A2C7A
:102CB00008DA0A212046FDF75BFCCEB2314603203C
:102CC000FFF727FE0A2C17DB642C15DA0A212046B1
:102CD000FDF74EFC07460A21FDF74AFCCEB231460D
:102CE0000220FFF716FE0A212046FDF741FCCEB276
:102CF00031460320FFF70DFE642C26DB7D20C0004B
:102D0000844222DA64212046FDF732FC07460A217C
:102D1000FDF72EFCCEB231460120FFF7FAFD0A2165
:102D20002046FDF725FC07460A21FDF721FCCEB21F
:102D300031460220FFF7EDFD0A212046FDF718FC81
:102D4000CEB231460320FFF7E4FD7D20C00084426F
:102D500035DB2048844232DC7D21C9002046FDF766
:102D600007FC07460A21FDF703FCCEB231460020DE
:102D7000FFF7CFFD64212046FDF7FAFB07460A2145
:102D8000FDF7F6FBCEB231460120FFF7C2FD0A2166
:102D90002046FDF7EDFB07460A21FDF7E9FBCEB221
:102DA00031460220FFF7B5FD0A2100E007E020468A
:102DB000FDF7DEFBCEB231460320FFF7AAFD00226D
:102DC0001521052001F05EFD00221621052001F0ED
:102DD00059FDF8BD0F270000F3B585B00C4620461D
:102DE000FDF76CFC07A2019100900A2102A8FDF7F3
:102DF0006DFA07460A2F03DA02A90598FFF772FB5E
:102E000007B0F0BD252E31660000000010B501F0BE
:102E100043FE10BD10B501F087FE00230B4A0A21C6
:102E20000B4800F075F80123084A0A21094800F010
:102E30006FF80223054A0A21074800F069F80323C6
:102E4000024A0A21054800F063F810BD0000C8429C
:102E5000A8000020B8000020C8000020D8000020F2
:102E600010B50446A168206888424ED26168206887
:102E7000884224D2207B002805D101221103092099
:102E8000C00601F041FE207B012805D1012210215E
:102E90000920C00601F038FE207B022805D101225E
:102EA00081030920C00601F02FFE207B03282ED1CC
:102EB000012220210920C00601F026FE27E0207B08
:102EC000002806D10022012109030920C00601F0D3
:102ED0001BFE207B012805D1002210210920C006FD
:102EE00001F012FE207B022805D100228103092077
:102EF000C00601F009FE207B032808D10022202112
:102F00000920C00601F000FE01E00020206010BD95
:102F1000FEB504460D4616461F460A493046FDF7E3
:102F2000F7FB06462846FDF7E7FC3146009002F025
:102F300033FF0190FDF79CFC6060A56000202060DD
:102F40002773FEBD0000C84210B5FC48407BC00797
:102F5000C00F002801D101F0FFF9F848407B40087C
:102F60004000F64948730846007B012876D1F448B2
:102F70000078012804D0022871D0032870D19AE388
:102F8000F0480078012804D002286AD0032869D1CB
:102F9000D6E0ED48007800287BD0012804D0022834
:102FA00076D003282CD12CE0E8480078012802D004
:102FB000022824D111E0E6480078C007C00F00289D
:102FC0000AD10220E24908700222E2A10020FFF7A4
:102FD000D3FD0220DD49087011E0DD4800780221B0
:102FE000084000280AD10120D94908700122D9A13E
:102FF0000020FFF7C1FD0120D449087000BF00BFC9
:1030000094E0D6480078012804D0102814D0202855
:103010003BD128E0CE480078C007C00F00280AD175
:103020001020CB4908700222CDA10020FFF7A4FD9B
:103030001020CA49087028E0C548007810210840CF
:1030400000280AD12020C24908700222C6A100200F
:10305000FFF792FD2020C149087016E0CEE3FCE2A4
:10306000CAE3C2E1F7E2BA4800782021084000280C
:103070000AD10120B64908700122B6A10020FFF74D
:103080007BFD0120B549087000BF00BF4EE000E0A5
:103090000BE00120AE4908700122AEA10020FFF72D
:1030A0006BFD0120A949087040E0B1480078012873
:1030B00004D0102814D0202836D123E0A44800786A
:1030C000C007C00F00280AD11020A14908700222B1
:1030D000A3A10020FFF750FD1020A549087023E0B0
:1030E0009B4800781021084000280AD120209849E8
:1030F000087002229CA10020FFF73EFD20209C4981
:10310000087011E0924800782021084000280AD178
:1031100001208F49087001228EA10020FFF72CFDAD
:1031200001209349087000BF00BF00BF00BFFFF738
:10313000C9F900208F4908600846006848608AE2A3
:1031400081480078002875D0012804D0022872D068
:1031500003283FD13FE088480078022815D0042892
:1031600025D0082835D17A48007808210840002861
:103170000AD1022076490870022276A10020FFF7CA
:10318000FBFC02207C49087023E071480078022192
:10319000084000280AD104206D490870012270A15E
:1031A0000020FFF7E9FC04207349087011E068482B
:1031B00000780421084000280AD1082064490870DA
:1031C000012269A10020FFF7D7FC08206A49087096
:1031D00000BF00BFFFE069480078042806D0082837
:1031E0002AD0102814D020284AD137E05848007837
:1031F0000421084000280AD11020554908700222F5
:1032000057A10020FFF7B8FC10205C49087037E098
:103210004F4800781021084000280AD108204C4966
:103220000870012250A10020FFF7A6FC0820534996
:10323000087025E026E052E0454800780821084063
:1032400000280AD1202042490870022246A100200D
:10325000FFF792FC20204949087011E03C480078B3
:103260002021084000280AD1042039490870012291
:103270003BA10020FFF780FC04204049087000BFFC
:1032800000BFA8E03E480078042802D0082824D1D6
:1032900011E02F4800780421084000280AD10820B6
:1032A0002B490870012230A10020FFF765FC08209F
:1032B0003349087011E026480078082108400028AA
:1032C0000AD1042022490870012225A10020FFF71D
:1032D00053FC04202A49087000BF00BF7BE0294846
:1032E0000078042806D0082816D010284CD02028B2
:1032F0006FD15BE0164800780421084000280AD10D
:10330000082013490870012217A10020FFF734FCA0
:1033100008201C4908705CE00D480078082108402E
:1033200000280AD110200A49087002220CA10020AE
:10333000FFF722FC1020134908704AE09800002093
:103340000C00002010000020110000203B00002095
:103350003A00002020502D2564000000430000208A
:1033600048312D25640000004C6F2D2564000000BD
:10337000440000208C0000203C0000203D00002084
:103380003E0000203F000020FB480078102108404C
:1033900000280AD12020F84908700222F7490020AD
:1033A000FFF7EAFB2020F649087012E0F2480078A7
:1033B0002021084000280BD10420EF490870012289
:1033C000EE4908390020FFF7D7FB0420EC490870CC
:1033D00000BF00BF00BF00BFFFF774F80020E9493D
:1033E000086008460068486035E1E7480078002832
:1033F00079D0012804D0022876D0032842D142E0B7
:10340000E2480078022804D0042815D0082838D1D2
:1034100024E0D94800780221084000280BD104207C
:10342000D54908700122D54908390020FFF7A4FBCF
:103430000420D749087024E0CF48007804210840D0
:1034400000280AD10820CC4908700122CB4900206D
:10345000FFF792FB0820CE49087012E0C6480078BA
:103460000821084000280BD10220C349087002221D
:10347000C24914390020FFF77FFB0220C4490870BD
:1034800000BF00BFDDE0C3480078042806D008284C
:103490002BD0102815D020284CD138E0B648007821
:1034A0000421084000280BD11020B34908700222E3
:1034B000B24908390020FFF75FFB1020B4490870BB
:1034C00038E0AD4800781021084000280AD10820D3
:1034D000A94908700122B0A10020FFF74DFB082088
:1034E000AB49087026E027E054E0A34800780821A3
:1034F000084000280AD120209F49087002229F49D5
:103500000020FFF739FB2020A149087012E09A48FB
:1035100000782021084000280BD10420964908702B
:103520000122964908390020FFF726FB042098491C
:10353000087000BF00BF84E099480078042802D0DA
:10354000082825D111E08C48007804210840002883
:103550000AD1082088490870012288490020FFF715
:103560000BFB08208A49087012E083480078082184
:10357000084000280BD104207F49087001227F49B0
:1035800008390020FFF7F8FA04208149087000BFCD
:1035900000BF56E083480078042806D0082829D0C8
:1035A000102815D020284AD136E07348007804212D
:1035B000084000280BD110206F49087002226F4983
:1035C00008390020FFF7D8FA10207149087036E05A
:1035D000694800781021084000280AD1082066496F
:1035E000087002226CA10020FFF7C6FA0820684983
:1035F000087024E0604800780821084000280AD1BB
:1036000020205D490870022267A10020FFF7B4FA6C
:1036100020205F49087012E05748007820210840B8
:1036200000280BD10420544908700122534908395D
:103630000020FFF7A1FA04205549087000BF00BF21
:1036400000BF00BFFEF73EFF00204E49086008465D
:103650000068486000BF00BFCFE055480078030015
:1036600002F06FFA0705090D1115191D240001203C
:103670004F4908701BE002204D49087017E00320F5
:103680004B49087013E00420494908700FE00520F9
:10369000474908700BE006204549087007E0002004
:1036A0004349087001204349087000E000BF00BF93
:1036B00001F090FDA1E040480078030002F041FADB
:1036C0000705111D2935414D59003CA10120FEF788
:1036D0002FFD3CA10020FEF72BFD0120364908708C
:1036E00047E03AA10120FEF723FD36A10020FEF7B6
:1036F0001FFD0220304908703BE036A10120FEF793
:1037000017FD30A10020FEF713FD03202A490870A1
:103710002FE032A10120FEF70BFD2AA10020FEF7C9
:1037200007FD04202449087023E02EA10120FEF7A4
:10373000FFFC24A10020FEF7FBFC05201E490870B9
:1037400017E02AA10120FEF7F3FC28A10020FEF7D4
:10375000EFFC0620184908700BE01CA10120FEF7C1
:10376000E7FC18A10020FEF7E3FC012012490870D5
:1037700000BF00BF41E000003A00002068330008AD
:103780003F0000208C00002011000020400000209D
:103790003C000020410000204C6F312D25640000CA
:1037A0003B000020420000204C6F322D25640000B9
:1037B0000D0000200C0000200E0000202053746437
:1037C00000000000207375620000000020323530D8
:1037D0000000000020207C7C000000004F75743148
:1037E00000000000204F464600000000204F4646E3
:1037F000207375620000000000BF00BFFA48007B24
:10380000022872D1F9480078012804D002287FD01C
:1038100003286CD167E1F6480078012804D002281B
:103820004CD0032872D124E0F2480078002812D04E
:10383000012804D0022814D0032818D105E0EE484E
:103840000178002001F084FC11E0EB4801780020B1
:1038500001F07EFC0BE0E8480178002001F078FCE4
:1038600005E0E5480178002001F072FC00BF00BFD0
:103870004CE0E0480078002812D0012804D002284B
:1038800014D0032818D105E0DC480178012001F0AC
:103890005FFC11E0DA480178012001F059FC0BE0EF
:1038A000D8480178012001F053FC05E0D6480178A2
:1038B000012001F04DFC00BF00BF27E0CD4800789B
:1038C000002815D0012804D0022817D003281BD1C6
:1038D00005E0CE480178012001F03AFC14E0CC4824
:1038E0000178012001F034FC0EE055E210E051E2D5
:1038F000C1480178012001F02BFC05E0C5480178A2
:10390000012001F025FC00BF00BF00BF00BF42E264
:10391000C1480078030002F014F907E3051F3F5F78
:103920009AB9E300B2480078012804D002280AD0EE
:1039300003280CD103E00320AD49087008E0022001
:10394000AB49087004E00120A949087000E000BFFD
:1039500000BF01F03FFCC4E0A6480078002812D068
:10396000012804D002280AD0032810D103E0032044
:10397000A04908700CE002209E49087008E0002071
:103980009C49087004E001209A49087000E000BFDB
:1039900000BF01F01FFCA4E0A0480078002812D06E
:1039A000012808D0022802D0032810D107E0012006
:1039B0009A4908700CE003209849087008E000203C
:1039C0009649087004E001209449087000E000BFA7
:1039D00000BF01F0FFFB84E0FEF774FD9048008813
:1039E00064281ED006DC02280FD00A2811D0322805
:1039F00029D112E0FA2818D0FF38F538002819D05C
:103A00008849401800281ED119E00A2084490880FE
:103A100019E032208249088015E06420804908803E
:103A200011E0FA207E4908800DE0FF20F5307C4946
:103A3000088008E07D2000017949088003E0022029
:103A40007749088000BF00BF01F0C4FB49E0764819
:103A5000007800280AD0012804D002280ED00328BC
:103A600010D107E00220704908700BE001206E4978
:103A7000087007E000206C49087003E003206A49E1
:103A8000087000BF00BF01F0A5FB2AE0674800787E
:103A9000030002F056F807110D090515191D210044
:103AA00004206249087017E003206049087013E0A1
:103AB00002205E4908700FE001205C4908700BE0AD
:103AC00005205A49087007E006205849087003E0AD
:103AD00000205649087000BF00BF01F07BFB00E0EA
:103AE00000BF00BF57E152480078030002F029F8F8
:103AF0000705065273E8F0EF050049E14D480078EC
:103B0000002806D0012810D002281ED003283FD15B
:103B100031E049A10120FEF70BFB49490020FEF7E7
:103B200007FB01204349087032E046A10120FEF75F
:103B3000FFFA43490020FEF7FBFA03210120FFF7BB
:103B400035F802203B49087022E0002215210520AB
:103B500000F098FE00221621052000F093FE3BA104
:103B60000120FEF7E5FA36490020FEF7E1FA0320CE
:103B7000304908700CE0324920310120FEF7D8FAB4
:103B80002F490020FEF7D4FA00202A49087000BF10
:103B900000BFFDE02F480078002802D0012818D18E
:103BA0000BE02DA10120FEF7C3FA2DA10020FEF7A6
:103BB000BFFA01201F4908700BE02BA10120FEF77E
:103BC000B7FA27A10020FEF7B3FA012019490870BF
:103BD00000BF00BFDCE02648007800284AD001285A
:103BE00054D002286AD15DE0980000200C0000202B
:103BF00010000020110000203B0000203C000020AD
:103C00003D0000203E0000203F000020400000203A
:103C100041000020420000200D0000201200002082
:103C20001400002024FAFFFF1600002017000020D7
:103C30000E00002018000020556E6974000000007E
:103C4000C43700084E6F7878000000004375537445
:103C50000000000019000020203530300000000076
:103C6000442D53500000000031303030000000007F
:103C70001A000020F6490120FEF75AFAF5A10020AB
:103C8000FEF756FA0120F549087017E0F4A101206B
:103C9000FEF74EFAEFA10020FEF74AFA0220EF49A4
:103CA00008700BE0F0A10120FEF742FAE9A1002024
:103CB000FEF73EFA0020E949087000BF00BF67E048
:103CC000EB480078002804D001281AD10DE03CE030
:103CD00019E0E8A10120FEF72BFAE8A10020FEF789
:103CE00027FA0120E24908700BE0E6A10120FEF767
:103CF0001FFAE2A10020FEF71BFA0020DC49087041
:103D000000BF00BF44E0E1480078002802D001284D
:103D100019D10BE0DEA10120FEF70AFADEA1002096
:103D2000FEF706FA0120D94908700CE0C849183995
:103D30000120FEF7FDF9D8A10020FEF7F9F90020D7
:103D4000D249087000BF00BF22E0D54800780028A3
:103D500002D001281AD10CE0BD4910310120FEF734
:103D6000E7F9CDA10020FEF7E3F90120CC49087066
:103D70000CE0B74910310120FEF7DAF9C6A10020A6
:103D8000FEF7D6F90020C649087000BF00BF00BF8B
:103D900000BF00E000BF00BFC248007B042872D112
:103DA000C1480078012804D002287FD003286CD1B4
:103DB000ABE1BE480078012804D002284CD003288B
:103DC00072D124E0BA480078002812D0012804D02B
:103DD000022814D0032818D105E0B6480178002045
:103DE00001F0B6F911E0B3480178002001F0B0F914
:103DF0000BE0B0480178002001F0AAF905E0AD48D9
:103E00000178002001F0A4F900BF00BF4CE0A848F1
:103E10000078002812D0012804D0022814D00328EA
:103E200018D105E0A4480178002001F091F911E0D3
:103E3000A2480178002001F08BF90BE0A04801783E
:103E4000002001F085F905E09E480178002001F08E
:103E50007FF900BF00BF27E095480078002815D003
:103E6000012804D0022817D003281BD105E096486A
:103E70000178002001F06CF914E0944801780020EA
:103E800001F066F90EE064E210E060E28948017832
:103E9000002001F05DF905E08D480178002001F077
:103EA00057F900BF00BF00BF00BF51E2894800784A
:103EB000030001F046FE07CC051D3A5891AECC0038
:103EC0007A480078012804D002280AD003280CD1AF
:103ED00003E002207549087008E00120734908706A
:103EE00004E003207149087000E000BF00BF08E152
:103EF0006F48007800280ED0012804D002280ED088
:103F0000032810D103E00020694908700BE001206C
:103F10006749087007E002206549087003E0032044
:103F20006349087000BF00BFEBE06B4800780028D1
:103F300012D0012808D0022802D0032810D107E0AF
:103F40000020654908700CE002206349087008E011
:103F500001206149087004E003205F49087000E017
:103F600000BF00BFCDE0FEF7ADFA5C4800886428D2
:103F70001FD006DC02280FD00A2812D0322829D1FF
:103F800013E0FA2819D0FF38F538002819D0544921
:103F9000401800281ED118E07D2000014F490880FC
:103FA00018E002204D49088014E00A204B4908809F
:103FB00010E03220494908800CE06420474908801D
:103FC00008E0FA204549088004E0FF20F530434925
:103FD000088000BF00BF94E04248007800280AD063
:103FE000012804D002280ED0032810D107E00020B9
:103FF0003C4908700BE003203A49087007E00220B2
:104000003849087003E001203649087000BF00BF3E
:1040100077E035480078030001F093FD07110D09A2
:104020000515686C700002202F49087066E00120B9
:104030002D49087062E000202B4908705EE00620E0
:10404000294908705AE003202749087056E057E0D4
:10405000D437000820485953000000001A000020FF
:10406000207C7C7C000000002020207C00000000E0
:104070001B0000204F55543200000000446953508B
:10408000000000004F555431000000001C000020CB
:1040900046554C4C0000000044697370000000005D
:1040A0001D000020980000200C00002010000020BF
:1040B000110000203B0000203C0000203D000020BB
:1040C0003E0000203F000020400000204100002072
:1040D000420000200D0000201200002014000020EB
:1040E00024FAFFFF16000020170000200420D84902
:1040F000087003E00520D649087000BF00BF00E04B
:1041000000BF00BF01F066F822E1D248007803004A
:1041100001F017FD0705065479ACD1F7050014E14D
:10412000CD480078002806D0012810D002281BD0E6
:10413000032841D12FE0C9490120FDF7F9FFC84903
:104140000020FDF7F5FF0320C349087034E0C4499F
:1041500020310120FDF7ECFFC1490020FDF7E8FF09
:104160000020BD49087027E000221521052000F03D
:1041700089FB00221621052000F084FBB749143981
:104180000120FDF7D5FFB6490020FDF7D1FF012042
:10419000B149087010E0B14908390120FDF7C8FFA6
:1041A000B0A10020FDF7C4FF03210120FEF7FEFCB3
:1041B0000220A949087000BF00BFC6E0AB480078E4
:1041C000002802D001281CD10DE0A4491C31012097
:1041D000FDF7AEFFA14914310020FDF7A9FF012032
:1041E0009D4908700DE09D490C310120FDF7A0FFAD
:1041F0009A4914310020FDF79BFF01209649087071
:1042000000BF00BFA1E09A480078002804D0012830
:104210000FD0022828D11AE096490120FDF788FF27
:1042200094490C390020FDF783FF02209049087063
:104230001AE0904908310120FDF77AFF8D490C39C9
:104240000020FDF775FF0020894908700CE08AA165
:104250000120FDF76DFF87490C390020FDF768FF4D
:1042600001208349087000BF00BF6EE084480078D9
:10427000002802D001281CD10DE07E492431012004
:10428000FDF756FF7B4938310020FDF751FF002034
:104290007B4908700DE0774914310120FDF748FF94
:1042A000744938310020FDF743FF0120744908703C
:1042B00000BF00BF49E073480078002802D0012801
:1042C0001CD10DE0664908390120FDF731FF69492D
:1042D00038310020FDF72CFF00206A4908700DE0FE
:1042E000644930310120FDF723FF62493831002055
:1042F000FDF71EFF01206349087000BF00BF24E0E6
:10430000FFE761480078002802D001281BD10CE0AB
:104310005EA10120FDF70CFF564938310020FDF762
:1043200007FF0120584908700DE04D492031012058
:10433000FDF7FEFE4F4938310020FDF7F9FE002061
:104340005149087000BF00BF00BF00BF00E000BFC0
:1043500000BF00204F4908734E48407B8007C00FC4
:10436000002838D04B48407B022188434949487394
:104370000846007B012820D147480078012806D153
:104380000220454908700120FEF748FB15E042482D
:104390000078022808D101203F49087000203F49D9
:1043A000087000F017FF08E03B480078032804D1AC
:1043B00001203949087000F00DFF3648007B0228C3
:1043C00001D1374908703348007B04283FD10320CE
:1043D000334908703BE02F48407B4007C00F00285E
:1043E00029D02C48407B042188432A494873084639
:1043F000007B01282BD12848007801280BD103200D
:104400002549087027A10120FDF792FE27A1002071
:10441000FDF78EFE1BE020480078022817D103200C
:104420001D4908701FA10120FDF782FE1FA1002079
:10443000FDF77EFE0BE01748407B0007C00F002809
:1044400005D01448407B082188431249487310BDA9
:10445000170000200E000020180000204C3C00082F
:10446000C4370008205375620000000019000020C6
:104470001A000020604000082020207C7C00000002
:104480001B0000201C0000201D00002020204F4E9B
:1044900000000000980000200C0000200D0000200B
:1044A000390000202050524F000000004D4F44457D
:1044B0000000000010B502210920C00600F01CFB1E
:1044C00000280DD001210920C00600F015FB0028AE
:1044D00006D0FF2101317E4800F00EFB00287DD17F
:1044E0007C480079030001F02CFB0504420A8CC9CA
:1044F000CA0002207749087100200860BFE07548B3
:10450000C088401C80B27349C88002282EDB01207D
:10451000087102210920C00600F0EEFA002805D13A
:104520006C48007B012108436A4908730121092076
:10453000C00600F0E1FA002805D16648007B0221A0
:10454000084364490873FF210131614800F0D4FA3F
:10455000002805D15F48007B042108435D490873AA
:104560005C4800685B4988600020C88087E0594843
:10457000006858498968441A7D20C00084423FD3AE
:104580000320544908710846407B02218843801C5F
:10459000504948730020087302210920C00600F02A
:1045A000ABFA002805D14B48007B0121084349495B
:1045B000087301210920C00600F09EFA002805D1E9
:1045C0004448007B0221084342490873FF2101311E
:1045D0003F4800F091FA002807D100E050E03D4844
:1045E000007B042108433B4908733A48007B0628B6
:1045F00006D13848407B0821884308303549487344
:104600003DE03448006833498968441A7D20000140
:10461000844232D304202F4908710846407B04218C
:104620008843001D2B49487300200873022109208C
:10463000C00600F061FA002805D12648007B012160
:1046400008432449087301210920C00600F054FAE8
:10465000002805D11F48007B022108431D4908732B
:10466000FF2101311A4800F047FA002805D1194806
:10467000007B042108431749087300E000BF25E0D0
:1046800014480079012806D002280ED0032812D041
:1046900004281AD114E00F48407B40084000401C19
:1046A0000C494873002008710FE000200949087385
:1046B000C880087109E0002006490873087104E009
:1046C000002004490873087100BF00BF10BD00003E
:1046D00000040048980000208162704770B50A46C7
:1046E00000213DE001238B4014881C40002C00D1A8
:1046F00035E09478012C02D09478022C16D184688D
:104700004E000325B540AC43846014794D00AC40A5
:1047100085682C4384604468D5788D40AC43446000
:104720004468D5788D40ADB22C43446005684E0096
:104730000324B440A543056094784D00AC4005685F
:104740002C430460C4684E000325B540AC43C460EC
:1047500054794D00AC40C5682C43C46000BF491C6F
:104760001029BFD370BD024613690B40002B01D046
:10477000012300E00023184670478161704710B59F
:10478000002406E000222146052000F07BF8601C92
:1047900084B2312CF6DB10BD10B52921042000F0C5
:1047A0002BF80321042000F027F80121042000F059
:1047B00023F8FFF7E4FF10BD10B504462046FDF7CF
:1047C00037FB10BD1CB50120800400F0F3FBE02195
:1047D00068460180012181700021C17003210171AF
:1047E0000021417169460348FFF778FFFFF7D4FFC6
:1047F0001CBD00000004004870B505460E460021AF
:10480000084600F017F90120FFF7D6FF002415E055
:104810000021012000F00EF904202041284001462B
:10482000022000F007F90120FFF7C6FF012108462A
:1048300000F000F90120FFF7BFFF641C032CE7DB49
:10484000002415E00021012000F0F4F88020204130
:1048500030400146022000F0EDF80120FFF7ACFFE8
:104860000121084600F0E6F80120FFF7A5FF641CCF
:10487000092CE7DB0121002000F0DCF80120FFF724
:104880009BFF70BDF8B505460E4617460021084649
:1048900000F0D0F80120FFF78FFF002418E004207B
:1048A000204128400146022000F0C4F80520FFF70F
:1048B00083FF0021012000F0BDF80520FFF77CFFF9
:1048C0000121084600F0B6F80120FFF775FF641CCF
:1048D000032CE4DB002418E0202020413040014676
:1048E000022000F0A7F80520FFF766FF0021012055
:1048F00000F0A0F80520FFF75FFF0121084600F057
:1049000099F80120FFF758FF641C062CE4DB002413
:1049100018E00120A0403840C1B2022000F08AF81F
:104920000520FFF749FF0021012000F083F8052052
:10493000FFF742FF0121084600F07CF80120FFF755
:104940003BFF641C042CE4DB0121002000F072F822
:104950000120FFF731FFF8BDFFB581B006460F46D5
:104960000021084600F066F80120FFF725FF00242B
:1049700015E00021012000F05DF8042020413040C6
:104980000146022000F056F80120FFF715FF012133
:10499000084600F04FF80120FFF70EFF641C032CBF
:1049A000E7DB002415E00021012000F043F820207F
:1049B000204138400146022000F03CF80120FFF77A
:1049C000FBFE0121084600F035F80120FFF7F4FE58
:1049D000641C062CE7DB00241FE000251AE0039886
:1049E000005D0122AA4010400146022000F022F89A
:1049F0000520FFF7E1FE0021012000F01BF8052053
:104A0000FFF7DAFE0121084600F014F80120FFF755
:104A1000D3FE6D1C042DE2DB641C04988442DCDBB5
:104A20000121002000F006F80120FFF7C5FE05B0C7
:104A3000F0BD000070B505460C46002D04D0012DD8
:104A40000ED0022D24D117E0002C04D08021114873
:104A5000FFF793FE03E080210E48FFF73DFE17E0CD
:104A6000002C04D040210B48FFF787FE03E04021D3
:104A70000848FFF731FE0BE0002C04D02021054848
:104A8000FFF77BFE03E020210248FFF725FE00BF71
:104A900000BF70BD000400481CB50120400400F0B8
:104AA00089FA0120800400F085FA0221684601801D
:104AB000002181700321017169460920C006FFF7BA
:104AC0000DFE0121684601800021817003210171E2
:104AD00069460920C006FFF701FEFF210131684643
:104AE0000180002181700321017169460148FFF7AF
:104AF000F5FD1CBD0004004870B504460D4629466E
:104B00002046FFF730FE70BD70B505460E461446D0
:104B1000002C04D031462846FFF72FFE03E0314633
:104B20002846FFF7D9FD70BD1CB50120400400F0F8
:104B300041FA084968460180012181700021C17055
:104B4000032101710021417169460920C006FFF768
:104B5000C5FD1CBD309000004C490968490849005A
:104B6000491C4A4A116011464968494A1140474A5E
:104B7000516011460968474A1140444A1160114684
:104B80000968012292049143404A11601146496824
:104B90003F22120491433D4A516011464968090978
:104BA000090151601146096BFF2254329143374A83
:104BB00011631146496B4908490051630021916016
:104BC0001146096801221204914389182F4A116085
:104BD000002007E02D4909688907C90F002900D086
:104BE00004E0401C052109028842F3D300BF274995
:104BF00009688907C90F002947D027490968102289
:104C000091431031244A116011460968C908C9004E
:104C1000491C11601D494968F02291431B4A5160AB
:104C200011464968072212029143184A5160114601
:104C300049680322D2039143144A516011464968DE
:104C40000F22920491430522D20489180F4A516021
:104C50001146096801221206914389180B4A116016
:104C600000BF0A4909688901C90F0029F9D007491D
:104C7000496889088900891C044A516000BF0349BA
:104C800049680907890F0229F9D1704700100240CD
:104C90000CB8FF08FFFFF6FE002002400EB5012011
:104CA00000F090F90120800700F0CAFE002168465C
:104CB000017281700E4801902F2168460180002109
:104CC000417269460120800700F0C0FE012188077B
:104CD00000F0B3FE0121880700F00AFF00210F2039
:104CE00000F00AF80120800700F0FCFE0EBD000075
:104CF000E70300007047704770B504460D4629462B
:104D0000204600F00BF800BFE106C90E01208840E4
:104D10000149086000BF70BD00E100E010B5002847
:104D200019DA1A4A03071B0F083B9B089B00D2584D
:104D30008307DC0EFF23A3409A438B071B0E8407D7
:104D4000E40EA3401A43114B0407240F083CA408A7
:104D5000A4001A5118E00E4A03231B02D21883083C
:104D60009B00D2588307DC0EFF23A3409A438B0796
:104D70001B0E8407E40EA3401A43054B03242402B0
:104D80001B198408A4001A5110BD00001CED00E09E
:104D900000E100E07047000010B504465D4800786F
:104DA00000285AD05C480078002855D020885B49FC
:104DB00008805B48007800281DD05A4800780128F8
:104DC00009D12088584988423BDA2088554909781A
:104DD0004018208035E020885349884204DA208832
:104DE000504909784018208020884F49884228DDA2
:104DF0000846208025E04B48007800280DD0208808
:104E0000002805DD208847490978401A208018E0ED
:104E1000012020804249087013E0208800280BDD23
:104E2000208840490978401A208020883E498842DD
:104E300007DD0020208004E00A202080012038497E
:104E40000870218836480078FDF710FE2088334925
:104E500008800020304908705AE02F480078002868
:104E600056D020882D4908802D480078002827D06A
:104E70002C48007800280ED02088002805DD2088E6
:104E800028490978401A208037E00120208000203E
:104E90002349087031E0208800280BDD2088214953
:104EA0000978401A208020881F49884225DD00208B
:104EB000208022E00A2020800020194908701CE090
:104EC00018480078012809D120881749884214DA47
:104ED000208814490978401820800EE02088124963
:104EE000884204DA20880F490978401820802088F9
:104EF0000D49884201DD0846208021880848007855
:104F0000FDF7B4FD2088054908800020024908709B
:104F100010BD0000460000204E0000205000002080
:104F2000380000204F0000201A04000070B505462C
:104F30000C46002D1CD01D480078002807D0208882
:104F40001B4988420EDA2088401C20800AE0208815
:104F5000002803DD2088401E208003E00120134943
:104F600008702080218811480078FDF77FFD1CE043
:104F70000E48007800280CD02088002803DD208807
:104F8000401E20800CE0002008490870012020808D
:104F900006E020880649884202DA2088401C2080EA
:104FA000218802480078FDF761FD70BD38000020BF
:104FB0001A040000024949690143014A51617047DE
:104FC000001002400249C9690143014AD16170479A
:104FD0000010024010B554480078082857D006DC6D
:104FE000012809D0022820D004281DD136E010283D
:104FF00066D02028F9D17CE04C4800684B49886095
:10500000084680684968401A7D21C90088420BD94A
:105010004748018847480078FDF728FD4248007856
:1050200040084000404908707CE0404800683F4923
:105030008860084680684968401A7D21C900884216
:105040000BD93D4801883B480078FDF70FFD3648F5
:105050000078022188433449087063E033480068CF
:1050600032498860084680684968401A7D21C90035
:1050700088420BD9314801882E480078FDF7F6FCAC
:105080002948007804218843274908704AE02748C6
:10509000006826498860084680684968401A7D2172
:1050A000C90088420BD92648018822480078FDF7BC
:1050B000DDFC1D480078082188431B49087031E059
:1050C0001A48006819498860084680684968401A8B
:1050D0007D21C90088420BD91A48018815480078FB
:1050E000FDF7C4FC10480078102188430E49087071
:1050F00018E00E4800680D498860084680684968D5
:10510000401A7D21C90088420BD90F4801880948FF
:105110000078FDF7ABFC0448007820218843024961
:10512000087000BF00BF10BD3A0000208C000020B6
:105130002400002038000020260000202800002045
:105140002A0000202C0000202E00002070470000C4
:1051500070B505460E460024002D00D00124082E0F
:1051600025D006DC012E09D0022E0CD0042E23D12E
:1051700018E0102E0CD0202E1ED10EE0E0B20F4908
:10518000FFF7D4FE18E0E0B20D49FFF7CFFE13E0C1
:10519000E0B20C49FFF7CAFE0EE0E0B20A49FFF7A1
:1051A000C5FE09E0E0B20949FFF7C0FE04E0E0B245
:1051B0000749FFF7BBFE00BF00BF70BD2400002001
:1051C000260000202C0000202E00002028000020B7
:1051D0002A00002010B5F8480088022800D100BF3E
:1051E000FDF770F9F5480078012804D0022817D09F
:1051F000032872D18BE10023F14A0A21F148FDF71F
:1052000087FE0223EE4A0A21EF48FDF781FEEFA157
:105210000120FCF78DFFEDA10020FCF789FF60E283
:10522000EC480078030000F08CFC07F2053877A901
:10523000F3F0F2000023E24A0A21E248FDF768FE9B
:10524000022300220A21E048FDF762FEE2480078CE
:10525000012804D0022814D003281BD108E0DFA1C4
:105260000120FCF765FFDFA10020FCF761FF12E0E1
:10527000DEA10120FCF75CFFDAA10020FCF758FF5B
:1052800009E0DCA10120FCF753FFD6A10020FCF7C8
:105290004FFF00E000BF00BF37E100231A460A219C
:1052A000C848FDF735FE0223C54A0A21C648FDF766
:1052B0002FFED2480078002822D0012804D00228EE
:1052C00015D0032825D109E0C4A10120FCF730FF47
:1052D000CBA10020FCF72CFF1CE001E2C3A10120C0
:1052E000FCF726FFC6A10020FCF722FF12E0C1A1B7
:1052F0000120FCF71DFFC2A10020FCF719FF09E007
:10530000C1A10120FCF714FFBDA10020FCF710FF94
:1053100000E000BF00BFF8E0BD480078002821D0C1
:1053200001280DD0022802D0032824D111E0B9A110
:105330000120FCF7FDFEB9A10020FCF7F9FE1BE0FF
:10534000B8A10120FCF7F4FEB4A10020FCF7F0FEA8
:1053500012E0B6A10120FCF7EBFEB0A10020FCF7A3
:10536000E7FE09E0B3A10120FCF7E2FEABA10020BB
:10537000FCF7DEFE00E000BF00BFC6E093A1012005
:10538000FCF7D6FE8C48008864281CD006DC022876
:105390002FD00A280DD0322831D10FE0FA2817D0AB
:1053A000FF38F538002818D0A4494018002826D125
:1053B00019E00A210120FDF775FC20E032210120CF
:1053C000FDF770FC1BE064210120FDF76BFC16E08B
:1053D000FA210120FDF766FC11E0FF21F5310120E3
:1053E000FDF760FC0BE07D2109010120FDF75AFC6F
:1053F00005E0012189070120FDF7EEFC00BF00BF99
:105400008FA10020FCF794FE7FE032E000E07BE01B
:105410008D48007800280FD0012804D002281DD024
:10542000032824D111E089A10120FCF781FE89A184
:105430000020FCF77DFE1AE088A10120FCF778FE31
:1054400084A10020FCF774FE11E086A10120FCF786
:105450006FFE80A10020FCF76BFE08E083A1012015
:10546000FCF766FE7BA10020FCF762FE00BF00BFD8
:105470004BE080480078030000F063FB0720170E24
:105480000529323B44007CA10120FCF751FE7CA1A0
:105490000020FCF74DFE35E07BA10120FCF748FE23
:1054A00077A10020FCF744FE2CE079A10120FCF755
:1054B0003FFE73A10020FCF73BFE23E076A1012014
:1054C000FCF736FE6EA10020FCF732FE1AE074A154
:1054D0000120FCF72DFE6AA10020FCF729FE11E057
:1054E00071A10120FCF724FE65A10020FCF720FE3D
:1054F00008E06FA10120FCF71BFE61A10020FCF772
:1055000017FE00BF00BF00E000BF00BFE9E06A482F
:105510000078030000F015FB0705061722303B4614
:10552000E200DBE065480078002806D0012805D0BD
:10553000022804D0032804D102E002E001E000E0E8
:1055400000BF00BFCAE05E480078002802D00128F2
:1055500002D100E000E000BF00BFBFE05948007882
:10556000002804D0012803D0022803D101E001E083
:1055700000E000BF00BFB1E053480078002802D02F
:10558000012802D100E000E000BF00BFA6E04F48C4
:105590000078002802D0012802D100E000E000BF1E
:1055A00000BF9BE04A480078002802D0012801D1C2
:1055B00091E08FE090E00000140000200C0000203B
:1055C0000000C842A8000020C800002020202020A1
:1055D000000000000D00002010000020454153593C
:1055E000000000004F75743100000000204853593E
:1055F0000000000057434D50000000001100002043
:105600004F75743200000000204F46460000000035
:105610001200002031633263000000004E4F4E4301
:1056200000000000316F3263000000003163326F10
:1056300000000000316F326F0000000024FAFFFF0D
:10564000205245530000000016000020472D6F4EE9
:1056500000000000434C6F5200000000522D6F4EBE
:10566000000000004752454E000000002052454413
:1056700000000000170000202062417200000000BE
:10568000556E697400000000204B67460000000062
:10569000204B505200000000204D505200000000EE
:1056A00020505349000000004D4D484700000000C5
:1056B000696E4847000000000E000020180000201E
:1056C000190000201A0000201B0000201C000020F0
:1056D0001D00002000E000BF00BF00BF00BF00E0D1
:1056E00000BF00BF10BD0000042806D106490969AB
:1056F00004221143044A116105E0034909690422A7
:105700009143014A1161704700E000E070470000DA
:10571000344909680122120491438918314A116001
:10572000002007E02F4909688903C90F002900D02C
:1057300004E0401C012109048842F3D300BF294939
:1057400009688903C90F00294AD02749096810222E
:1057500091431031244A116011460968C908C900F3
:10576000491C11601F494968F02291431D4A51604C
:10577000114649680722120291431A4A51601146A4
:1057800049680322D2039143012212048918154A61
:105790005160114649680F2292049143012212057B
:1057A0008918104A51601146096801221206914376
:1057B00089180C4A116000BF0A4909688901C90F9C
:1057C0000029F9D00749496889088900891C054AD8
:1057D000516000BF034949680907890F0229F9D1BF
:1057E00070470000001002400020024010B5FFF793
:1057F0008FFF10BD10B51D48006840084000401CD8
:105800001A49086008464068194908401749486025
:1058100008460068174908401449086008460068AF
:1058200001218904884311490860084640683F21E6
:10583000090488430D494860084640680009000192
:1058400048600846006BFF215431884307490863CC
:105850000846406B40084000486300208860FFF71E
:10586000C5FF0120C0060449886010BD0010024039
:105870000CB8FF08FFFFF6FE00ED00E070470000E7
:1058800010B50121880700F037F901287ED10121E8
:10589000800700F0CFF854480068401C5249086067
:1058A00052480068401C5149086051480068401C3B
:1058B0004F4908604F480068401C4E4908604E48F8
:1058C0000068401C4C4908604C480068401C4B492B
:1058D00008604B48007802282ED101204949087001
:1058E000494800884949884205DA47480088401CF1
:1058F000454908800EE0444800884449884209D15F
:105900000A2143480088FAF733FE002902D10A2011
:105910004049087040480088401C3F4908800846BC
:1059200000883E49098888423AD100203A490880D7
:1059300001203B49087033E03148007803282FD11B
:10594000002030490870304800883049884205DA24
:105950002D480088401C2C4908800EE02A48008809
:105960002A49884209D10A2129480088FAF700FE0D
:10597000002902D10A202749087027480088401CC6
:105980002549088008460088244900E02AE0098863
:10599000884205D100202049088001202049087054
:1059A0001748007800280FD00F48007900280BD145
:1059B00013490870144908801749088001201549C7
:1059C000087000201649087016480068401C1549E8
:1059D0000860084600680A2804D3002008600120F7
:1059E0001149087010BD000098000020A800002098
:1059F000B8000020C8000020D80000208C00002043
:105A000039000020460000204A00002088130000D2
:105A1000500000204F0000204C00002048000020D3
:105A20004E000020540000202200002010B5FFF797
:105A300027FF10BDCA4302617047CA430261704725
:105A40008168C908C90081607047000010B51F4A0D
:105A5000904202D01E4A904212D1026810239A430B
:105A60008B781B01102423401A43026002686023D4
:105A70009A438B785B105B01602423401A430260D9
:105A8000144A90420AD0026803231B029A430B7AFD
:105A90001B020324240223401A4302604A68C262A4
:105AA0000A888262094A904208D00B4A904205D087
:105AB0000A4A904202D00A4A904201D14A7A0263CD
:105AC000426952085200521C426110BD002C014034
:105AD000000400400010004000400140004401402C
