:020000040800F2
:10000000300700208D010008B72F0008B52F000829
:1000100000000000000000000000000000000000E0
:10002000000000000000000000000000793000081F
:10003000000000000000000055300008A13000085A
:100040009F0100089F0100089F0100089F01000810
:100050009F0100089F0100089F0100089F01000800
:100060009F0100089F0100089F0100089F010008F0
:10007000711500089F0100089F01000899320008CF
:100080009F0100089F0100080000000011320008D5
:100090009F0100089F0100089F0100089F010008C0
:1000A0009F0100089F0100089F0100089F010008B0
:1000B0009F010008000000009F01000800F002F806
:1000C00000F054F80CA030C8083824182D18A246A7
:1000D000671EAB4654465D46AC4201D100F046F87F
:1000E0007E460F3E0FCCB6460126334200D0FB1AA7
:1000F000A246AB4633431847BC370000DC3700004C
:10010000103A02D378C878C1FAD8520701D330C860
:1001100030C101D504680C60704700000023002442
:1001200000250026103A01D378C1FBD8520700D32E
:1001300030C100D50B60704710B5662902D103F0BD
:1001400047FB10BD002010BD1FB500F09FFD04004F
:100150000020002103F0F6F9401C6060002000211F
:1001600003F0DAF9E0601FBD10B510BD01F050F9E1
:100170001146FFF7E9FF03F047F901F077F903B4FF
:10018000FFF7F2FF03BC01F0EDF9000007488047DC
:1001900007480047FEE7FEE7FEE7FEE7FEE7FEE76B
:1001A00004480549054A064B70470000893100089C
:1001B000BD0000083001002030070020300300207F
:1001C000300300200FB47CB50C0009AA009001D0C8
:1001D0000019401E094B7B4469460190089800F0C5
:1001E000AAFC002C054603D06946002000F0B6FCAE
:1001F00028467CBC08BC04B0184700008D090000EC
:10020000F3B50446002081B020622046E1688847AB
:1002100000287AD0252802D06268A16871E0E168E0
:1002200020460025884706460020E0610746A06179
:100230002A2E0AD0304603F0DFF8002827D0B80075
:100240000019303E0090866119E00298BA00121938
:1002500002C8916102902046E1688847012F064656
:1002600017D1E06900281FDA202085431CE00098A0
:100270000A218069484300998019303888612046F6
:10028000E1688847064603F0B7F80028EFD1012F50
:100290000AD02E2E08D12046E16888470646202045
:1002A00005437F1C022FC3DBA069002803DA40420C
:1002B000A06101200543E80701D010208543002EEE
:1002C00023D030464138192803D80120C002054305
:1002D0002036204625603146029A1546FFF72CFF4E
:1002E00000280BD0012806D0ED1DE808C00008301A
:1002F00002908AE709E02D1D029586E76268304684
:10030000A1689047206A401C7EE7206AFEBD70B558
:10031000064600F0FDF90468054630460A22002131
:1003200000F02AFC2C6070BD30B5441C03E001785D
:10033000401C00290DD08107F9D10B4BDD0104C809
:10034000D11A91432940FAD0001B0A0603D0C01EDF
:1003500030BD001B30BD0A0401D0801E30BD090233
:10036000FCD0401E30BD0000010101010022030944
:100370008B422CD3030A8B4211D300239C464EE0C0
:1003800003460B433CD4002243088B4231D303097C
:100390008B421CD3030A8B4201D394463FE0C3092E
:1003A0008B4201D3CB01C01A524183098B4201D346
:1003B0008B01C01A524143098B4201D34B01C01A31
:1003C000524103098B4201D30B01C01A5241C308A9
:1003D0008B4201D3CB00C01A524183088B4201D318
:1003E0008B00C01A524143088B4201D34B00C01A04
:1003F0005241411A00D201465241104670475DE019
:10040000CA0F00D04942031000D34042534000229B
:100410009C4603098B422DD3030A8B4212D3FC2244
:10042000890112BA030A8B420CD3890192118B42C3
:1004300008D3890192118B4204D389013AD09211D9
:1004400000E08909C3098B4201D3CB01C01A524194
:1004500083098B4201D38B01C01A524143098B425D
:1004600001D34B01C01A524103098B4201D30B0146
:10047000C01A5241C3088B4201D3CB00C01A52416B
:1004800083088B4201D38B00C01A5241D9D2430852
:100490008B4201D34B00C01A5241411A00D201468F
:1004A000634652415B10104601D34042002B00D5F9
:1004B0004942704763465B1000D3404201B50020BB
:1004C000C046C04602BD7047704770470121C9054C
:1004D0000123411842001B06D3185B0E0AD0C1103D
:1004E0000722D206891840075242D14201D5520054
:1004F00089187047090208D50146002A03D0C10FA8
:10050000C9070020704710467047420202D0002001
:1005100002497047072109050143F4E70000F87F0D
:10052000F0B5FF252D04C609C209FF2704462E4059
:100530000137CB093E4348402A402B400746002A5A
:100540006BD0002B69D0AA4267D0AB4265D000289F
:1005500000DA32460125ED0529432C430902200229
:10056000090AD21A4B0C7F24E31A434C000A7C443C
:10057000E35C7D242404121914145B00A218884241
:1005800001D3521C00E0400049420C465C43241158
:100590005C43DB016415E318040A5C43C502200DCB
:1005A0000C4644436419250A5D432303EC0C0D46B5
:1005B000654300030019EB184C42A34201D35B18BA
:1005C000401CD4052018002B07D05B00C91804D3A9
:1005D000401C002901D1400840003F2189048A4283
:1005E00009D3002A08DC1106090F04D003214907AA
:1005F0004018C00FC007F0BD012241001206891843
:100600007F2252069142F6D205214907C84201D500
:100610009010F0BDFF20C005F0BD002F00DA32467B
:100620001648AA4207D2AB4205D21902090E17D0CA
:10063000F80FC007F0BDFF2563002D06AB42F9D8C7
:100640004900A942F6D8AB4201D1A942F2D0A94251
:1006500001D1002101E061004908D0050843F0BD47
:100660001102090EFBD0FF200243D005F0BD0A465F
:100670000146104654E700006E3200000000C07FC3
:100680000102C21504D00123DB071943002A0ADB4B
:100690009E239A1A02D40846D0407047FF22410098
:1006A0001206914201D900207047C017C04370471D
:1006B0001F22030C02D10F2200041CD0030E01D113
:1006C0000002083A030F01D10001121F830F01D16C
:1006D0008000921E002801DB4000521ED2055118F6
:1006E000021251181922904004D3491C002801D14C
:1006F0004908490008467047C10FC90700D0404269
:10070000012292071143D3E701218907D0E70000B6
:1007100000487047CC0000207047FFB50C461E46CD
:100720008FB003CA089009914F007D0D00D16D1E56
:10073000002108460020C0460321099A8905084087
:10074000002A03DA8200801840080840800D012842
:100750000A9002DD0020C0430A90089807430DD09C
:10076000EF48F049281848430714189800281DD06E
:100770007542291E1DDD0A9842421BE01898012887
:1007800002D00020302104E00020F24305E0215493
:10079000401CB042FBDB30460022189B0021215454
:1007A0000F998B600A60486013B0F0BDBD1B6D1CD3
:1007B000DFE70A9A002900DA69420BA800F040FB43
:1007C0000BAB07CB03AB07C30899099800F09CFB60
:1007D0006B4607C30146D4480918002D00910ADD75
:1007E000D14903980A9A4942401803A903906846E0
:1007F00000F0BDFD07E003990A9A081803A90390C9
:10080000684600F07CFD6B4607C30004000C03D073
:100810000020C043410800E01046189A002A03D087
:100820000022009215461EE0751E05D400F032FA33
:10083000303262556D1EF9D501220843079602D069
:1008400000227F1C04E02078302801D100227F1E86
:10085000002A069789D01EE0112D07DA00F01AFA57
:10086000303262556D1C02460A43F5D1084303D06D
:100870000098002819D00EE00021681E05E0235CD6
:10088000625C63542254401E491C8142F7DBA81B62
:10089000401E07950690079A18990020A0540F98BB
:1008A000079B069A81600CC07EE7112600201890F5
:1008B0005BE7D21DF0B50D460446D10893B0C900E0
:1008C00003C90C900D9102F081FD02460D98C00FF6
:1008D00001D02D2007E02068810701D52B2002E000
:1008E0004007C00F4001032A0F9001D0072A05DB03
:1008F00003462946204600F00BFA0EE120788006D8
:1009000001D5E76900E006272846652D04D0662852
:1009100014D0672D69D12DE00020112F009001DB4C
:10092000112300E07B1C0CAA03A910A8FFF7F5FE19
:100930001199002610987D1C0E9142E001203B4643
:100940000CAAC0070B900120009003A910A8FFF784
:10095000E4FE119D12981099002600280E9501D1F1
:10096000781C0D18781B02D446427D1C761EE81BAD
:1009700000903AE0012F00DA01270020112F0090AB
:1009800001DD112300E03B460CAA03A910A8FFF7E4
:10099000C4FE11993D46109800260E912178090752
:1009A0000BD40E99A94200DA0D4603A9012D04DDEE
:1009B0004A19203AD27F302A06D0B84201DA011D06
:1009C00004DA012100910FE06D1EEFE7002802DC40
:1009D00086192D1A03E0411CA94200DD0D46801B3B
:1009E000401C00900120C0070B902078000705D420
:1009F0000098A84202DB0020C04300906946002016
:100A0000C8720B98012102AF0337C907884225D06D
:100A1000022010902B2011900B9800280BDA4042F6
:100A20000B902D20119006E00B9800F0DDF830318E
:100A30007F1E0B9039701099481E00291090F3DC2E
:100A40000B980028F0D111987F1E3870208800057F
:100A500001D5452000E065207F1E387001A8C01B2D
:100A6000C01D0B900F98002800D00120411900985C
:100A7000C01709180B980818A169081A401EA06130
:100A80002078C00602D42046C046C0460F980028F1
:100A900005D06268A1689047206A401C20622078D7
:100AA000C00625D52046C046C04621E0002E07DB03
:100AB0000E98B04204DD03A86268805DA16802E080
:100AC0006268A16830209047206A761C401C206232
:100AD0000098401E002800900AD100F0D7F8C068A6
:100AE00062680168405CA1689047206A401C2062EF
:100AF00028466D1E0028D9DC07E062683878A168B6
:100B00007F1C9047206A401C20620B99481E0029D8
:100B10000B90F2DC2046C046C046032044E60000AD
:100B200001FCFFFF104D0000E1DFFFFF01694A1CDF
:100B300002610878704700B58FB0029100210591DD
:100B40000549019379440391114604906846FFF7E3
:100B500057FB0FB000BD0000E5FFFFFF0A681070F3
:100B6000521C0A6070470CC908399A4202D2531CC1
:100B70000B60107070470000F7B50F460026009C10
:100B80002578641C002D05D000F078F80068405DE1
:100B9000C007F5D12B2D02D02D2D18D0641E39465B
:100BA000029A204600F0F8F8002F04D03968A142DC
:100BB00001D1009939607105022400290BDA404205
:100BC000002803DDFFF7A4FD0460A007FEBD01209F
:100BD00080020643E3E70028F8DAFFF799FD046096
:100BE0000048FEBDFFFFFF7F01468008081A02098A
:100BF0001018020A1018020C1018C00882001218EF
:100C00005200891A01E0401C0A390A29FBD27047B8
:100C100010B5FF231B0644009C421DD84C009C428B
:100C20001AD80346124A0B4307D4401A02D3EFF3F3
:100C3000008010BDEFF3008010BD081A06D2EFF35C
:100C4000008001219043C907084302E0EFF30080D0
:100C5000904380F3008810BD0D231B041A4204D07A
:100C60001146002000F0B4FB10BD00F0C9FB10BD20
:100C70000000009000487047CC00002010B500F044
:100C800005F8001D10BD00BFBD28000000487047DA
:100C9000EC0000200B4670B5024689078008084327
:100CA00019469D08141AA941250908070543080992
:100CB0002C194841250A01060D43010A2C1941410E
:100CC000200C0D0428430D0C00194D410021401942
:100CD0004D41C00869070843E908840F8D0025438A
:100CE000840024184D4124196D41121BAB4107E0CB
:100CF0000925ED432C11521963410024401C614128
:100D00001C460A250026551BB441F1D270BD0000D7
:100D1000F8B51F46044601230068DB02032601469E
:100D20001840072A05DB002801D017A506E017A503
:100D300004E0002801D016A500E016A5102081438C
:100D40002160A069C01E002FA06101D0401EA061DB
:100D50002046C046C046002F09D038466268A168C8
:100D60009047206A401C2062C01C206206E0206A76
:100D7000FAE762682878A1686D1C9047761EF8D261
:100D80002046C046C046F8BD4E414E006E616E0022
:100D9000494E4600696E6600F7B5154682B00027D9
:100DA000029C2078641C0197302802D0002D15D0B9
:100DB00015E020780127641C782804D0582802D038
:100DC000002D09D00BE0002D01D0102D07D1207887
:100DD00000271025641C02E0082500E00A250026F3
:100DE000009610E0009901276943081829467143CD
:100DF000020C80B200908E183804864201D3012084
:100E000001902078641C294600F021FB0028E9DAD3
:100E10000398002805D0002F01D0641E00E0029C3A
:100E200004600198002806D0FFF772FC02210160DF
:100E3000C81E05B0F0BD009930040843F9E7000072
:100E4000F7B516468AB02F4878446C4603467C3383
:100E5000C06F5A689B680DC42A487844763003AC4A
:100E60000DC80DC43720C001081837211B30FFF70B
:100E700087FA05460C46803D1B3C02D564420120A2
:100E800000E00020002709900FE0E0070BD00C20C5
:100E90001C497843794432464C394118684600F081
:100EA0002EFA6B4607C364107F1C002CEDD1154F42
:100EB0007F442C3F15E0E80711D02001C0190EC86F
:100EC0000691089307920068F04201D198190890A2
:100ED000324606A903A800F012FA03AB07C36D104F
:100EE000641C002DE7D1324669460998002803A802
:100EF00002D000F03CFA01E000F001FA0A9B07C3BF
:100F00000DB0F0BDD4290000034640000A4610B5DC
:100F1000400D0BD00121C9070F24A40200191C03A6
:100F200064082143540D2143D20207E0002101202F
:100F3000F2E7D40F490021435200401E0029F8DA9D
:100F4000DB0FDB07184310BDFFB50D46144685B017
:100F50004868516802F013FA00910190A868A168EE
:100F600002F00DFA02910390A868616802F007FA96
:100F7000029A12188242029201D2012000E000205F
:100F8000019A0B18D2180028019202D08A4202D985
:100F900003E08A4201D2012000E0002000990818F5
:100FA00000906868A16802F0EAF9029A1218824279
:100FB000029201D2012000E00020019A0B18D21801
:100FC0000028019202D08A4202D903E08A4201D26B
:100FD000012000E00020009908180090286821688E
:100FE00040004900400849084018F549471814E0F6
:100FF00001994000C90F08430090019802994000F0
:10100000C90F08430190029803994000C90F084393
:101010000290039840007F1E039000980028E7DAB2
:101020000898002801D0E74E00E00026B74228DAF1
:10103000F71BF806C00E15D0029B2021091A039A4F
:101040008B401A430392029A019BC2408B401A4381
:101050000292019A009BC2408B4000991A43019270
:10106000C14000917A110BD06B460320811A01D543
:10107000002101E0890059588700401ED951F5D55B
:10108000374603980299002800D0012001430898B0
:101090000291002808460CD0002800D001200199B8
:1010A000019A490508430121D20AC902D2020192DC
:1010B00000E001210E9B0122D207012B02D0002B60
:1010C00003D013E0002807D116E0904204D89042E4
:1010D0000CD1019B0B4209D0019B5918019105D1FC
:1010E0000099491C009101D17F1C0092002803D077
:1010F000102108460020C04628682168019B009AFC
:101100004840C10F0598C90739430EC009B0F0BD6A
:10111000FFB587B0099A08980899536892684068A3
:10112000896896460022039317469446089A1268E7
:101130005300099A5B081268520052089A1AA24B8F
:10114000D4180A9A002A01D0352200E040220692E3
:101150000022012315460492DB07059324E0002DAD
:1011600005D175460346039E4D1BB34109D3754611
:101170006646039B491B049D9841059B7519AC4627
:101180005F4163463B4308D0059B049EDD0776081C
:101190002E435B080496059301E0521E641EC50FA2
:1011A000ED0749184041521C069B9A42D7DB002D9F
:1011B00004D17546039A6B1A824101D203200CE0D8
:1011C000039A0B466B404240134303D0014303D0C4
:1011D000012002E0022000E0002061460191002190
:1011E000009702910A99002905D061464002014307
:1011F000744B019102E08007002302909C423ADA8E
:101200001A1BD006C00E15D0029D2021019C091A80
:10121000C5408C402543029C8C4000D001242543CE
:10122000019C02953D46C4408D4039462C43C14047
:101230000194009154111DD06D4602210022022913
:101240000CD10320001B07E0002804DB8600AE5908
:10125000002E00D00122401C0328F5DB081B02D51C
:1012600088002A5004E08000285810438A00A850C3
:10127000491EE3D51C460A98002802980CD0002885
:1012800000D001200199019A490508430121D20AA1
:10129000C902D202019200E00121109B0122D20773
:1012A000012B02D0002B03D013E0002807D116E059
:1012B000904204D890420CD1019B0B4209D0019B73
:1012C0005918019105D10099491C009101D1641C64
:1012D0000092002803D0102108460020C04608983C
:1012E0000999019A0068096848400099C30F079856
:1012F000DB0723430360826041600BB0F0BD1FB584
:10130000002300920A46014601A8FFF71DFE01AB2B
:1013100007CB04B010BDF0B585B0012300920A469A
:10132000014601A8FFF710FE01990F2202989202D0
:10133000CF0F4900039E49088C1AFF07002100289F
:1013400000DB0C46450021486D08844206D30D465B
:101350000E460446102108460020C0462005E90A32
:10136000084369053843F20A05B01143F0BD1FB5C3
:10137000002300920A46014601A8FFF7C9FE01AB0F
:1013800007CBC6E71FB5012300920A46014601A814
:10139000FFF7BEFE01AB0F2407CBA402C30F400032
:1013A000DB074008001B002900DB00204900000586
:1013B0004908CC0A204349051843D20A1143A8E73B
:1013C00002C0FFFF013C0000FF3F0000FF070000DC
:1013D000C80212D54803400F002804D0C803C043F8
:1013E000012188407047EFF30080000100090321CC
:1013F0000907084380F30088704700207047000009
:1014000010B5024800F07EF810BD00000000C07F5B
:101410007546FFF72FFCAE46050069465346C008E7
:10142000C000854618B020B5FEF7BAFE60BC0027A4
:101430004908B6460026C0C5C0C5C0C5C0C5C0C5A0
:10144000C0C5C0C5C0C5403D49008D4670473A285B
:1014500000D23038202302469A43412A01D3104655
:101460003738884201D30020C043704710B5044686
:10147000C046C0462046FEF782FE10BD024670B54B
:101480000A4392072AD11E4DEE0104C808C9541B15
:101490009443344017D0D0B2D9B2401A2106014348
:1014A00010D190B299B2401A210401430AD110021E
:1014B0001902000A090A401A2102014302D1100E42
:1014C000190E401A70BD9A42DFD010BA19BA88427C
:1014D00001D9012070BD0020C04370BD02780B7897
:1014E000401C491C002A09D09A4207D102780B7887
:1014F000401C491C002A01D09A42EFD0D01A70BD7E
:101500000101010110B50C461107090F092904D08A
:101510000A290AD008290CD104E011460820FFF757
:1015200057FF06E0510606D501E0510601D501201E
:10153000C007214610BDD10607D501010909CC0815
:101540004907000E0006044309E0410F2002490745
:10155000000A0143200E00061D22D1410143084626
:10156000E7E7704701491820ABBEFEE726000200FE
:1015700010B500F007F810BD014908607047000081
:101580000024014010B5082000F006F8012802D11F
:101590000820FFF7F1FF10BD10B50146084840686C
:1015A0000840024606480068CCB220400346002AA4
:1015B00003D0002B01D0012010BD0020FCE700006B
:1015C0000024014010B5042001F058FD07490848E7
:1015D0000068FEF7CBFE074908600846008880B225
:1015E0007D21C90048430449086010BD40420F00F6
:1015F00000000020040000200800002001B5114A6E
:10160000009912685143104A5161002191611146BD
:101610000969012211430C4A116100BF0A49086996
:10162000C107C90F002904D0012109040140002984
:10163000F4D00549096949084900034A11610021AC
:10164000916108BD0400002000E000E010B501F049
:10165000E3FB01F083FCFFF7B5FF00F0CDFD00F0E8
:1016600038FC00F0CDFD10BDF3B583B00498030045
:1016700001F09DFE351C2024282C3034383C404499
:10168000484C5054585C6064686C7074787C8084FA
:10169000888C9094989CA0A4A8ACB0B4B8BCC0C4EA
:1016A000C8CCD0D4D8DCE0E4E8ECF0000324062574
:1016B0000D26CFE00D2402250D26CBE00B240025BE
:1016C0000126C7E00C2402250D26C3E00B240625C5
:1016D0000126BFE0032406250126BBE00D240425D6
:1016E0000926B7E0032406250C26B3E004240025D0
:1016F0000226AFE00A2400250C26ABE003240A25CD
:101700000226A7E00B2400250026A3E003240125E0
:101710000E269FE0032409250C269BE00B240025C0
:101720000D2697E003240625052693E00B240025CB
:101730000D268FE003240E2505268BE009240625BF
:10174000092687E0082406250C2683E00B240025C3
:101750000C267FE00B2400250C267BE007240825BF
:101760000C2677E004240925022673E009240625C7
:101770000C266FE00C24002503266BE003240625CD
:101780000D2667E00B240625082663E00A240625BB
:1017900000265FE00A2406250C265BE00B240625C4
:1017A000012657E003240625012653E001240625DF
:1017B0000D264FE00324062508264BE000240025D3
:1017C000082647E00A2400250C2643E003240625CA
:1017D00000263FE00B24002500263BE003240125E2
:1017E0000E2637E002240625082633E00A240625C3
:1017F00008262FE00324062505262BE001240625D4
:101800000D2627E002240625002623E009240625CC
:1018100009261FE00B24062500261BE00A240025CC
:10182000082617E00B2400250C2613E007240825C2
:101830000C260FE00424092502260BE009240625C6
:101840000C2607E00C240025032603E000240025D5
:10185000002600BF00BF0398030001F0A8FD0805A3
:101860000B11171D23292F35142713200290122046
:10187000019029E01127102002900F20019023E011
:101880000E270D2002900C2001901DE00B270A204E
:1018900002900920019017E00627072002900820F7
:1018A000019011E0032704200290052001900BE035
:1018B0000027012002900220019005E01727182040
:1018C00002901920019000BF00BF22463946052032
:1018D00001F038F92A460520029901F033F9324621
:1018E0000520019901F02EF905B0F0BDF8B50646C6
:1018F0003046FEF719FD87B20025B7E12C46042DCE
:1019000000D10724052D00D10624062D00D1052481
:10191000072D00D10424705D612802DB705D7A28F8
:1019200005DD705D412870DB705D5A286DDC705DEF
:101930004138030001F03BFD3AA1A6ABB0B5BABFF8
:10194000C4C9CED3D8DDE2F3F8FDEFEEEDECEBEA5F
:10195000E9E8E72222222222221E23282D32373CC8
:1019600041464B50555A5F646A6F74797E83888D07
:1019700092979C22E0B21A21FFF776FE0BE1E0B2CB
:101980001B21FFF771FE06E1E0B21C21FFF76CFEA0
:1019900001E1E0B21D21FFF767FEFCE0E0B21E218D
:1019A000FFF762FEF7E0E0B21F21FFF75DFEF2E015
:1019B000E0B22021FFF758FEEDE0E0B22121FFF771
:1019C00053FEE8E0E0B22221FFF74EFEE3E0E0B292
:1019D0002321FFF749FEDEE0E0B22421FFF744FEB9
:1019E000D9E0E0B22521FFF73FFED4E0E0B22621A6
:1019F000FFF73AFECFE0E0B22721FFF735FECAE05D
:101A0000E0B22821FFF730FEC5E0C5E0E0B22921B1
:101A1000FFF72AFEBFE0E0B22A21FFF725FEBAE079
:101A2000E0B22B21FFF720FEB5E0E0B22C21FFF75A
:101A30001BFEB0E0E0B22D21FFF716FEABE0E0B2F6
:101A40002E21FFF711FEA6E0E0B22F21FFF70CFEDA
:101A5000A1E0E0B23021FFF707FE9CE0E0B23121C7
:101A6000FFF702FE97E0E0B23221FFF7FDFD92E0C2
:101A7000E0B23321FFF7F8FD8DE0E0B20021FFF77F
:101A8000F3FD88E0E0B20121FFF7EEFD83E0E0B274
:101A90000221FFF7E9FD7EE0E0B20321FFF7E4FD5C
:101AA00079E0E0B20421FFF7DFFD74E0E0B2052148
:101AB000FFF7DAFD6FE0E0B20621FFF7D5FD6AE03F
:101AC000E0B20721FFF7D0FD65E0E0B20821FFF7A3
:101AD000CBFD60E0E0B20921FFF7C6FD5BE0E0B2BC
:101AE0000A21FFF7C1FD56E0E0B20B21FFF7BCFD74
:101AF00051E0E0B20C21FFF7B7FD4CE0E0B20D2160
:101B0000FFF7B2FD47E041E03BE035E02FE029E0A0
:101B100023E01DE017E011E00BE005E0FFE7E0B295
:101B20000E21FFF7A1FD36E0E0B20F21FFF79CFD8B
:101B300031E0E0B21021FFF797FD2CE0E0B2112177
:101B4000FFF792FD27E0E0B21221FFF78DFD22E0C2
:101B5000E0B21321FFF788FD1DE0E0B21421FFF78A
:101B600083FD18E0E0B21521FFF77EFD13E0E0B23F
:101B70001621FFF779FD0EE0E0B21721FFF774FDA3
:101B800009E0E0B21821FFF76FFD04E0E0B219218F
:101B9000FFF76AFD00BF68E0705D302840DB705DD4
:101BA00039283DDC705D3038030001F000FC0A0686
:101BB0000B10151A1F24292E3338E0B2002100F033
:101BC0008CF92CE0E0B2012100F087F927E0E0B2C7
:101BD000022100F082F922E0E0B2032100F07DF959
:101BE0001DE0E0B2042100F078F918E0E0B2052130
:101BF00000F073F913E0E0B2062100F06EF90EE098
:101C0000E0B2072100F069F909E0E0B2082100F034
:101C100064F904E0E0B2092100F05FF900BF24E0BC
:101C2000705D2D2805D0705D7C2802D0705D2F2856
:101C300017D1705D2D2804D02F280CD07C280FD10F
:101C400004E0E0B2012100F0F5F909E0E0B2022180
:101C500000F0F0F904E0E0B2002100F0EBF900BF81
:101C600003E0E0B20A2100F038F96D1CBD4200DA51
:101C700044E6F8BDF0B58DB0064600200A900B9002
:101C80000C900790089009900A900B900C90079088
:101C90000890099005900490002404E0305D2E28FF
:101CA00000D10494641C3046FEF73EFBA042F5D8F8
:101CB000002407E0305D0AA908550698401CC0B210
:101CC0000690641C04988442F4DB00210AAA06985A
:101CD00011540AA8FEF71BFB03900AA8FEF724FB89
:101CE00005460498441C08E0315D07AA0598115484
:101CF0000598401CC0B20590641C305D0028F3D1EB
:101D0000002107AA0598115407A8FEF700FB0290CE
:101D100007A8FEF709FB0746032F33D10A210398D2
:101D2000FEF72EFBC8B201460190002000F0D5F866
:101D30000321022000F07EF964210298FEF720FBC7
:101D40000A210090FEF71CFBC8B201460190012059
:101D500000F0C3F80A210298FEF712FB0A21009056
:101D6000FEF70EFBC8B201460190022000F0B5F864
:101D70000A210298FEF704FBC8B201460190032035
:101D800000F0ABF8022F42D1012D0AD10A210398AD
:101D9000FEF7F6FAC8B201460190012000F09DF866
:101DA00019E0022D17D10A210398FEF7E9FA0A215A
:101DB0000090FEF7E5FAC8B201460190002000F05D
:101DC0008CF80A210398FEF7DBFAC8B201460190AD
:101DD000012000F082F80A210298FEF7D1FA0A21C8
:101DE0000090FEF7CDFAC8B201460190022000F043
:101DF00074F80A210298FEF7C3FAC8B201460190AE
:101E0000032000F06AF80321012000F013F9012FEC
:101E10005DD1032D26D164210398FEF7B1FA0A2182
:101E20000090FEF7ADFAC8B201460190002000F024
:101E300054F80A210398FEF7A3FA0A210090FEF74E
:101E40009FFAC8B201460190012000F046F80A212D
:101E50000398FEF795FAC8B201460190012000F000
:101E60003CF826E0022D18D10A210398FEF788FAE3
:101E70000A210090FEF784FAC8B2014601900120C1
:101E800000F02BF80A210398FEF77AFAC8B201464F
:101E90000190022000F021F80BE0012D09D10A2168
:101EA0000398FEF76DFAC8B201460190022000F0D7
:101EB00014F80A210298FEF763FAC8B201460190AD
:101EC000032000F00AF80321022000F0B3F80DB05F
:101ED000F0BD10B500F0D6FD10BDF3B583B0049889
:101EE000030001F064FA0B0B0F13171B1F23272BA2
:101EF0002F07330000240025002627E00B240025AF
:101F00000D2623E0002400250C261FE00A240625C8
:101F100005261BE0082406250D2617E001240625CA
:101F20000C2613E00924062509260FE00B240625BC
:101F300009260BE0002400250D2607E00B240625CA
:101F40000D2603E0012406250D2600BF00BF0398DF
:101F5000030001F02CFA08050B11171D23292F355A
:101F60001427132002901220019029E0112710203D
:101F700002900F20019023E00E270D2002900C20EC
:101F800001901DE00B270A2002900920019017E024
:101F90000627072002900820019011E00327042063
:101FA0000290052001900BE0002701200290022002
:101FB000019005E01727182002901920019000BF1A
:101FC00000BF22463946052000F0BCFD2A46052008
:101FD000029900F0B7FD32460520019900F0B2FDEC
:101FE00005B0F0BD10B504460F4804710079002813
:101FF0000AD001280FD0022814D11A230B4A00213D
:10200000052000F009FE0DE01A23084A00210520F2
:1020100000F002FE06E01A23054A0021052000F028
:10202000FBFD00BF00BF10BDC40000202000002049
:102030003A000020F3B585B00020019006980028F2
:1020400006D001280BD0022810D0032815D113E0A8
:102050000420049000200390022002900DE0002054
:102060000490062003900020029006E003200490D4
:1020700000200390029000E000BF00BF059803001D
:1020800001F095F908050A0F14181C22282D1424B4
:1020900013251226082722E0112410250F260427D5
:1020A0001DE00E240D250C26022718E00B240A251E
:1020B000092614E006240725082610E00324042539
:1020C0000526022001900AE00024012502260420B2
:1020D000019004E0172418251926082700BF00BF27
:1020E000069803280AD13A461521052000F02AFD5A
:1020F00016210520019A00F025FD0EE0214605205D
:10210000049A00F01FFD29460520039A00F01AFDED
:1021100031460520029A00F015FD07B0F0BDF8B574
:1021200005460E46012D4CD17D21C9003046FEF7F3
:1021300027F907460A21FEF723F98CB2002C04D1B7
:102140000A210020FFF7C9FE03E0E1B20020FFF7FB
:10215000C4FE64213046FEF713F907460A21FEF754
:102160000FF98CB2002C04D10A210120FFF7B5FE33
:1021700003E0E1B20120FFF7B0FE0A213046FEF78E
:10218000FFF807460A21FEF7FBF88CB2002C04D1B9
:102190000A210220FFF7A1FE03E0E1B20220FFF7CF
:1021A0009CFE0A213046FEF7EBF88CB2002C04D1DD
:1021B0000A210220FFF791FE03E0E1B20320FFF7BE
:1021C0008CFEF8BDF0B585B00C462046FEF77EF9D2
:1021D00007A2019100900A2102A8FDF7F3FF07462C
:1021E0000A2F02DA02A8FFF745FD05B0F0BD000096
:1021F000252E31660000000010B500F0ADFD10BDC9
:1022000010B500F0F1FD10BD10B50446A1682068BE
:1022100088424ED261682068884224D2207B002800
:1022200005D1012211030920C00600F0CDFD207B5D
:10223000012805D1012210210920C00600F0C4FDAB
:10224000207B022805D1012281030920C00600F06D
:10225000BBFD207B03282ED1012220210920C006AE
:1022600000F0B2FD27E0207B002806D100220121EA
:1022700009030920C00600F0A7FD207B012805D135
:10228000002210210920C00600F09EFD207B0228BC
:1022900005D1002281030920C00600F095FD207BB6
:1022A000032808D1002220210920C00600F08CFD5F
:1022B00001E00020206010BDFEB504460D46164624
:1022C0001F460A493046FEF72BF906462846FEF718
:1022D0001BFA3146009001F0BBF90190FEF7D0F9EE
:1022E0006060A560002020602773FEBD0000C8422A
:1022F00010B5F248407BC007C00F002872D0EF48ED
:10230000407B40084000ED4948730846007B0128A7
:1023100070D1EB48007802286AD1EA48007800289A
:1023200006D001280DD0022855D003285DD15BE0EE
:10233000E5A0FFF7DBFA0120E6490870E1490870E3
:1023400054E0E4480078030001F031F80842051336
:102350000C1A24382E42E0A0FFF7C8FA0420DD4909
:10236000087036E0DFA0FFF7C1FA0420D9490870F1
:102370002FE0DCA0FFF7BAFA0420D649087028E065
:10238000D8A0FFF7B3FA0020D24908700220CD4947
:1023900008701EE0D3A0FFF7A9FA0020CD4908700D
:1023A0000220C849087014E0CEA0FFF79FFA002071
:1023B000C84908700220C34908700AE0C9A0FFF7A5
:1023C00095FA0020C34908700220BE49087000E059
:1023D00000BF00BF0AE0C6A0FFF788FA0320B94992
:1023E000087003E03CE105E000E000BF00BF00E052
:1023F00000BF00BFB148007B022871D1B04800780F
:1024000002286ED1AF480078012804D0022840D0BD
:10241000032867D16AE0AF480078030000F0C7FFE7
:10242000083605130C1A212F2836B4A0FFF75EFAE0
:102430000320A84908702AE0B3A0FFF757FA02204A
:10244000A449087023E0A0A0FFF750FA0120A14999
:1024500008701CE0AFA0FFF749FA05209D490870FD
:1024600015E0AFA0FFF742FA07209A4908700EE086
:10247000AEA0FFF73BFA06209649087007E096A049
:10248000FFF734FA04209349087000E000BF00BF52
:1024900043E0A948007800281BD001280BD002286F
:1024A00002D003281FD10DE0A4A0FFF71FFA0120DE
:1024B000A149087018E0A4A0FFF718FA03209E496C
:1024C000087011E0A3A0FFF711FA00209A490870E4
:1024D0000AE09AA0FFF70AFA01209749087003E082
:1024E0001FE01CE018E000BF00BF16E09C499D48BB
:1024F000006801F083F807D27F21C9059948006878
:1025000001F036F89749086079A0FFF7EFF996498E
:102510000120FFF757FE00E000BF00BF00E000BF52
:1025200000BF6648007B042871D165480078022806
:102530006ED164480078012804D0022840D00328D6
:1025400067D16AE063480078030000F030FF083686
:1025500005130C1A212F28366BA0FFF7C7F90220AC
:102560005C4908702AE058A0FFF7C0F901205949DA
:10257000087023E07DA0FFF7B9F9032055490870E2
:102580001CE06AA0FFF7B2F906205249087015E076
:1025900051A0FFF7ABF904204E4908700EE05DA092
:1025A000FFF7A4F905204B49087007E072A0FFF778
:1025B0009DF907204749087000E000BF00BF48E0D0
:1025C0005D48007800281BD001280BD0022802D0DB
:1025D00003281FD10DE05FA0FFF788F900205649BE
:1025E000087018E058A0FFF781F9022052490870DE
:1025F00011E052A0FFF77AF901204F4908700AE074
:1026000060A0FFF773F903204B49087003E024E052
:1026100021E01DE000BF00BF1BE0514951480068A8
:1026200000F0ECFF07D27F21C9054E48006801F099
:1026300067F84C4908602EA0FFF758F94948006830
:10264000FEF71EF884B221460120FFF768FD00E086
:1026500000BF00BF00E000BF00BF002017490873A3
:102660001648407B8007C00F002810D01348407BDD
:1026700002218843114948730846007B01281CD178
:1026800002200F4908700120FFF7ACFC15E00B4851
:10269000407B4007C00F00280FD00848407B042132
:1026A00088430649487306480078022805D101206E
:1026B000034908700020FFF795FC10BD540000206E
:1026C0001000002011000020454153594F7574310E
:1026D0000000000012000020204F46464F75743263
:1026E00000000000316F326F4E6F4E63000000003B
:1026F000202020202052455300000000204853593C
:102700004F7574310000000057434D504F757431C0
:1027100000000000454153594F757432000000001D
:10272000204853594F7574320000000057434D50F4
:102730004F7574320000000013000020316F3263C7
:102740004E4F4E4300000000316332634E4F4E4304
:1027500000000000316F326F4E4F4E43000000000A
:102760000000FA4414000020AE4735415F48535939
:102770004F757431000000005F4853594F75743233
:10278000000000003163326F4E4F4E4300000000E6
:1027900010B502210920C00600F00EFB00280DD064
:1027A00001210920C00600F007FB002806D0FF2108
:1027B0000131764800F000FB00287DD17448007993
:1027C000030000F0F4FD0504420A7EB9BA000220BD
:1027D0006F49087100200860AFE06D48C088401C58
:1027E00080B26B49C88002282EDB012008710221CB
:1027F0000920C00600F0E0FA002805D16448007BFB
:10280000012108436249087301210920C00600F034
:10281000D3FA002805D15E48007B022108435C49B9
:102820000873FF210131594800F0C6FA002805D18C
:102830005748007B042108435549087354480068F1
:10284000534988600020C88077E0514800685049AB
:102850008968441A4F48844232D303204C49087196
:102860000846407B02218843801C49494873022165
:102870000920C00600F0A0FA002805D14448007BDA
:10288000012108434249087301210920C00600F0D4
:1028900093FA002805D13E48007B022108433C49B9
:1028A0000873FF210131394800F086FA002807D16A
:1028B0003748007B042100E040E0084334490873B6
:1028C0003BE03348006832498968441A7D20400162
:1028D000844230D304202E4908710846407B0421ED
:1028E0008843001D2A49487302210920C00600F0D0
:1028F00063FA002805D12648007B012108432449BA
:10290000087301210920C00600F056FA002805D1FD
:102910001F48007B022108431D490873FF21013134
:102920001A4800F049FA002805D11948007B042113
:1029300008431749087300E000BF25E014480079F8
:10294000012806D002280ED0032812D004281AD15C
:1029500014E00F48407B40084000401C0C4948737D
:10296000002008710FE0002009490873C880087131
:1029700009E0002006490873087104E000200449BA
:102980000873087100BF00BF10BD000000040048BC
:1029900054000020DC0500008162704770B50A46D3
:1029A00000213DE001238B4014881C40002C00D105
:1029B00035E09478012C02D09478022C16D18468EA
:1029C0004E000325B540AC43846014794D00AC4003
:1029D00085682C4384604468D5788D40AC4344605E
:1029E0004468D5788D40ADB22C43446005684E00F4
:1029F0000324B440A543056094784D00AC400568BD
:102A00002C430460C4684E000325B540AC43C46049
:102A100054794D00AC40C5682C43C46000BF491CCC
:102A20001029BFD370BD024613690B40002B01D0A3
:102A3000012300E00023184670478161704710B5FC
:102A4000002406E000222146052000F07BF8601CEF
:102A500084B2312CF6DB10BD10B52921042000F022
:102A60002BF80321042000F027F80121042000F0B6
:102A700023F8FFF7E4FF10BD10B504462046FEF72B
:102A8000BDFD10BD1CB50120800400F0E5FAE02179
:102A900068460180012181700021C170032101710C
:102AA0000021417169460348FFF778FFFFF7D4FF23
:102AB0001CBD00000004004870B505460E4600210C
:102AC000084600F017F90120FFF7D6FF002415E0B3
:102AD0000021012000F00EF9042020412840014689
:102AE000022000F007F90120FFF7C6FF0121084688
:102AF00000F000F90120FFF7BFFF641C032CE7DBA7
:102B0000002415E00021012000F0F4F8802020418D
:102B100030400146022000F0EDF80120FFF7ACFF45
:102B20000121084600F0E6F80120FFF7A5FF641C2C
:102B3000092CE7DB0121002000F0DCF80120FFF781
:102B40009BFF70BDF8B505460E46174600210846A6
:102B500000F0D0F80120FFF78FFF002418E00420D8
:102B6000204128400146022000F0C4F80520FFF76C
:102B700083FF0021012000F0BDF80520FFF77CFF56
:102B80000121084600F0B6F80120FFF775FF641C2C
:102B9000032CE4DB002418E02020204130400146D3
:102BA000022000F0A7F80520FFF766FF00210120B2
:102BB00000F0A0F80520FFF75FFF0121084600F0B4
:102BC00099F80120FFF758FF641C062CE4DB002471
:102BD00018E00120A0403840C1B2022000F08AF87D
:102BE0000520FFF749FF0021012000F083F80520B0
:102BF000FFF742FF0121084600F07CF80120FFF7B3
:102C00003BFF641C042CE4DB0121002000F072F87F
:102C10000120FFF731FFF8BDFFB581B006460F4632
:102C20000021084600F066F80120FFF725FF002488
:102C300015E00021012000F05DF804202041304023
:102C40000146022000F056F80120FFF715FF012190
:102C5000084600F04FF80120FFF70EFF641C032C1C
:102C6000E7DB002415E00021012000F043F82020DC
:102C7000204138400146022000F03CF80120FFF7D7
:102C8000FBFE0121084600F035F80120FFF7F4FEB5
:102C9000641C062CE7DB00241FE000251AE00398E3
:102CA000005D0122AA4010400146022000F022F8F7
:102CB0000520FFF7E1FE0021012000F01BF80520B0
:102CC000FFF7DAFE0121084600F014F80120FFF7B3
:102CD000D3FE6D1C042DE2DB641C04988442DCDB13
:102CE0000121002000F006F80120FFF7C5FE05B025
:102CF000F0BD000070B505460C46002D04D0012D36
:102D00000ED0022D24D117E0002C04D080211148D0
:102D1000FFF793FE03E080210E48FFF73DFE17E02A
:102D2000002C04D040210B48FFF787FE03E0402130
:102D30000848FFF731FE0BE0002C04D020210548A5
:102D4000FFF77BFE03E020210248FFF725FE00BFCE
:102D500000BF70BD000400481CB50120400400F015
:102D60007BF90120800400F077F902216846018098
:102D7000002181700321017169460920C006FFF717
:102D80000DFE01216846018000218170032101713F
:102D900069460920C006FFF701FEFF2101316846A0
:102DA0000180002181700321017169460148FFF70C
:102DB000F5FD1CBD0004004870B504460D462946CB
:102DC0002046FFF730FE70BD70B505460E4614462E
:102DD000002C04D031462846FFF72FFE03E0314691
:102DE0002846FFF7D9FD70BD1CB50120400400F056
:102DF00033F9084968460180012181700021C170C2
:102E0000032101710021417169460920C006FFF7C5
:102E1000C5FD1CBD309000004C49096849084900B7
:102E2000491C4A4A116011464968494A1140474ABB
:102E3000516011460968474A1140444A11601146E1
:102E40000968012292049143404A11601146496881
:102E50003F22120491433D4A5160114649680909D5
:102E6000090151601146096BFF2254329143374AE0
:102E700011631146496B4908490051630021916073
:102E80001146096801221204914389182F4A1160E2
:102E9000002007E02D4909688907C90F002900D0E3
:102EA00004E0401C052109028842F3D300BF2749F2
:102EB00009688907C90F002947D0274909681022E6
:102EC00091431031244A116011460968C908C900AC
:102ED000491C11601D494968F02291431B4A516009
:102EE00011464968072212029143184A516011465F
:102EF00049680322D2039143144A5160114649683C
:102F00000F22920491430522D20489180F4A51607E
:102F10001146096801221206914389180B4A116073
:102F200000BF0A4909688901C90F0029F9D007497A
:102F3000496889088900891C044A516000BF034917
:102F400049680907890F0229F9D17047001002402A
:102F50000CB8FF08FFFFF6FE002002400EB501206E
:102F600000F082F80120800700F0A0F900216846F7
:102F7000017281700E4801902F2168460180002166
:102F8000417269460120800700F096F90121880707
:102F900000F089F90121880700F0E0F900210F20F5
:102FA00000F00AF80120800700F0D2F90EBD000001
:102FB000E70300007047704770B504460D46294688
:102FC000204600F00BF800BFE106C90E0120884042
:102FD0000149086000BF70BD00E100E010B50028A5
:102FE00019DA1A4A03071B0F083B9B089B00D258AB
:102FF0008307DC0EFF23A3409A438B071B0E840735
:10300000E40EA3401A43114B0407240F083CA40804
:10301000A4001A5118E00E4A03231B02D218830899
:103020009B00D2588307DC0EFF23A3409A438B07F3
:103030001B0E8407E40EA3401A43054B032424020D
:103040001B198408A4001A5110BD00001CED00E0FB
:1030500000E100E070470000024949690143014A6C
:1030600051617047001002400249C9690143014A99
:10307000D16170470010024070470000042806D15B
:103080000649096904221143044A116105E0034914
:10309000096904229143014A1161704700E000E090
:1030A00070470000344909680122120491438918CD
:1030B000314A1160002007E02F4909688903C90FD0
:1030C000002900D004E0401C012109048842F3D308
:1030D00000BF294909688903C90F00294AD0274937
:1030E0000968102291431031244A11601146096881
:1030F000C908C900491C11601F494968F022914361
:103100001D4A5160114649680722120291431A4A2A
:103110005160114649680322D203914301221204EF
:103120008918154A5160114649680F22920491434B
:10313000012212058918104A5160114609680122BE
:103140001206914389180C4A116000BF0A490968A8
:103150008901C90F0029F9D0074949688908890000
:10316000891C054A516000BF034949680907890F56
:103170000229F9D1704700000010024000200240EF
:1031800010B5FFF78FFF10BD10B51D48006840084F
:103190004000401C1A490860084640681949084028
:1031A00017494860084600681749084014490860F4
:1031B00008460068012189048843114908600846CF
:1031C00040683F21090488430D494860084640682B
:1031D0000009000148600846006BFF215431884314
:1031E000074908630846406B4008400048630020D8
:1031F0008860FFF7C5FF0120C0060449886010BD44
:10320000001002400CB8FF08FFFFF6FE00ED00E0E2
:103210007047000010B50121880700F0A3F80128CD
:103220002AD10121800700F03BF814480068401CB7
:103230001249086012480068401C11490860114892
:103240000068401C0F4908600F480068401C0E4988
:1032500008600E480068401C0C4908600C48006873
:10326000401C0B490860084600680A2804D3002067
:10327000086001200749087010BD000054000020BC
:1032800064000020740000208400002094000020CE
:103290001C0000201800002010B5FFF7BBFF10BD78
:1032A000CA4302617047CA43026170478168C90816
:1032B000C90081607047000010B51F4A904202D0DB
:1032C0001E4A904212D1026810239A438B781B0148
:1032D000102423401A430260026860239A438B78CB
:1032E0005B105B01602423401A430260144A904241
:1032F0000AD0026803231B029A430B7A1B020324A1
:10330000240223401A4302604A68C2620A88826229
:10331000094A904208D00B4A904205D00A4A90428E
:1033200002D00A4A904201D14A7A026342695208A5
:103330005200521C426110BD002C014000040040AC
:10334000001000400040014000440140004801409E
:10335000016849084900491C01607047C2680A4376
:10336000C2607047024610690840002805D0D06846
:103370000840002801D0012070470020FCE7F8B584
:10338000040C8BB2264682B25E43104658430D0CA5
:10339000370C360400218019164679416E43370CEC
:1033A00036048019264679416E438919F8BD30B438
:1033B0007446641E2578641CAB4204D3635D5B00D5
:1033C000E31830BC18471D46F8E700004900CA0260
:1033D0000243100000D004204A0D01D00122104306
:1033E000044A490D914201D102210843012800D12C
:1033F00005207047FF07000030380A2801D201205D
:103400007047002070470000FEF720F914E00B48D9
:10341000FEF7FAFE0A48FEF7F7FE0A48FEF7F4FE4A
:103420000948FEF7F1FE09480078002804D000F0B2
:103430006BF8002005490870E9E7000064000020EF
:103440007400002084000020940000201800002058
:1034500010B521480078002806D0012837D002286E
:1034600036D0032836D134E01C480078FDF74CF9FB
:103470000446002322460A211948FEF71DFF194879
:103480000078FDF741F90446012322460A21164837
:10349000FEF712FF15480078FDF736F904460223BF
:1034A00022460A211248FEF707FF12480078FDF76E
:1034B0002BF90446032322460A210F48FEF7FCFE9F
:1034C0000EA0FEF713FA01200349087002E001E0A4
:1034D00000E000BF00BF10BD100000200C00002065
:1034E000640000200D000020740000200E00002069
:1034F000840000200F00002094000020414830315B
:103500005F4E504E0000000010B5FFF741F9FEF786
:10351000EFFEFFF79DFF10BD10B500290AD0087817
:10352000002807D005487844FDF7A8FF002801D0FF
:10353000002010BD0248784410BD0000AE0300001A
:10354000A603000010B500290AD00878002807D08B
:1035500005487844FDF792FF002801D0002010BDF7
:103560000248784410BD00009E030000960300004E
:1035700070B501250400ED074C4020D4441A01D257
:10358000001B0919C60D4B00F2B2FF2A29D01B0EF1
:103590002CD000020C02D31A2C43DC40284305191E
:1035A00010D2280A02D3401C6D0611D0761EF605F3
:1035B0008019FF2A00DA70BDC00DC00570BD6940DA
:1035C00000F0A4F801200543C541521C761CE8E731
:1035D00064089C40C90161408900E7D10124A043EF
:1035E000E4E71B0E440200D0034870BD002AFCD162
:1035F000C00FC00770BD00BF0000C07F01230200E4
:10360000DB050A430DD4DA4203D49A4207D4884238
:103610007047D84214D4D94212D4884270478042AD
:103620007047DA4203D59A42F9D5814270475B0070
:103630004200DA4204D24A00DA4201D281427047A3
:1036400010B5024AFDF7E4FA10BD00BF09001604E8
:1036500070B5420064414B005C41120E39D01B0E24
:1036600038D0FF2A3CD0FF2B3AD040024902400A12
:10367000490A060045184E43000A090AD218484371
:10368000ED017F3A0104731A4019190C4318990F80
:1036900004D001215B0849075B1A521CD80904D3E6
:1036A000401CF50301D19D0607D0FF2A08D2D5059D
:1036B00006D0E4072043401970BD0125A843F4E774
:1036C000002A01DCE00770BD2402FF202043C00572
:1036D00070BD1B0EFF2A03D0FF2B01D0E00770BD89
:1036E000FF2645003606B54206D84D00B54203D840
:1036F000D218FF2A00D0E7E7004870BD0000C07F65
:1037000070B501250400ED074C4022D4441A02D2C2
:103710006C40001B0919C60D4B00F2B2FF2A4BD0BA
:103720001B0E50D000020C02D31A2C43DC40A843DD
:10373000051B05D5AD0019D36D08761E521E37D076
:10374000F605280A01D2801970BD70416D0603D0BC
:1037500070BD6940FFF712FF9C40090261404900BB
:1037600001D0401E70BD0124A04370BD6D081DD066
:1037700001202B0C01D12D0410302B0E01D12D0274
:1037800008302B0F01D12D01001DAB0F01D1AD0071
:10379000801CEB0F01D16D00401C6D00361A121A0F
:1037A000680AF5054019012A02DB70BD002070BDD2
:1037B000C036300AC00770BD1B0E440201D1FF2B7A
:1037C00000D1024870BD002AF0D070BD0000C07F5B
:1037D00003B402487844844603BC6047DBD0FFFF53
:1037E0008182838485868788898B8C8D8E8F919248
:1037F00093959697999A9C9D9FA0A2A3A5A7A8AAE6
:10380000ACAEB0B2B3B5B7B9BCBEC0C2C5C7C9CC07
:10381000CED1D4D7D9DCDFE2E6E9ECF0F3F7FAFE5B
:1038200002400000000000A0000000000540000071
:10383000000000C8000000000C4000000000409C98
:1038400000000000194000000020BCBE0000000085
:1038500034400000BFC91B8E00000004B5400000CA
:10386000504BCFD06607E2CF010000006C41000052
:103870003E8251AADFEEA73401000000D9420000C9
:10388000DCB5A0E23A301F97FFFFFFFFB445000010
:10389000FD25A0C8E9A3C14FFFFFFFFFFF3F0000C8
:1038A0000000008000000000FF3F000000000080DA
:1038B00000000000003A0008000000205400000052
:1038C00000010008543A000854000020DC06000003
:1038D0001C0100081C00000043000000F8FFFFFF6F
:1038E0000C0000000E0000000F0000002E00000081
:1038F0001001000043000000F8FFFFFF00404040BF
:1039000040404040404041414141414040404040B2
:10391000404040404040404040404040400502025E
:10392000020202020202020202020202022020201D
:103930002020202020202002020202020202909079
:103940009090909010101010101010101010101077
:1039500010101010101010100202020202028888CB
:1039600088888888080808080808080808080808D7
:1039700008080808080808080202020240000000BF
:103980000000000000000000000000000000000037
:103990000000000000000000000000000000000027
:1039A0000000000000000000000000000000000017
:1039B0000000000000000000000000000000000007
:1039C00000000000000000000000000000000000F7
:1039D00000000000000000000000000000000000E7
:1039E00000000000000000000000000000000000D7
:1039F00000000000000000000000000000000000C7
:103A0000006CDC0200000000000000006400646440
:103A1000000000010000C84100000000000000009C
:103A200003060503090C00000C0C00000D000B0C34
:103A300006030D0603010103090C0A06080A060C19
:103A40000B06010E0103050E0308060A0C0903010B
:043A50000103010E5F
:04000005080000BD32
:00000001FF
