:020000040800F2
:10000000700700205D02000829500008994C000884
:1000100000000000000000000000000000000000E0
:1000200000000000000000000000000099530008DC
:100030000000000000000000C95000087D590008C1
:100040006F0200086F0200086F0200086F020008CC
:100050006F0200086F0200086F0200086F020008BC
:100060006F0200086F0200086F0200086F020008AC
:10007000A51D00086F0200086F020008D55B00088C
:100080006F0200086F02000800000000ED5A00082F
:100090006F0200086F0200086F0200086F0200087C
:1000A0006F0200086F0200086F0200086F0200086C
:1000B0006F020008000000006F02000800F002F864
:1000C00000F0BDF80CA030C8083824182D18A2463E
:1000D000671EAB4654465D46AC4201D100F0AFF816
:1000E0007E460F3E0FCCB6460126334200D0FB1AA7
:1000F000A246AB4633431847746100009461000088
:10010000103A02D378C878C1FAD8520701D330C860
:1001100030C101D504680C60704700000023002442
:1001200000250026103A01D378C1FBD8520700D32E
:1001300030C100D50B60704710B56E2902D100F0B8
:100140009DFC10BD702902D100F0E9FF10BD6629A9
:1001500002D105F0DBFF10BD652902D105F0D6FF05
:1001600010BD672902D105F0D1FF10BD612902D170
:1001700005F0D4FF10BD03681B0A01D38023194387
:10018000692902D100F0C0F810BD642902D100F045
:10019000BBF810BD752902D100F0B6F810BD6F296B
:1001A00002D100F067FF10BD782902D100F0A4FF52
:1001B00010BDE92902D100F003FF10BDE42902D1EE
:1001C00000F0FEFE10BDF52902D100F0F9FE10BDD1
:1001D000EF2902D100F05AFF10BDF82902D100F03A
:1001E00099FF10BD0368DB0901D3802319436329FC
:1001F00002D101F0F6F910BD732902D101F0F9F92D
:1002000010BDE32902D101F003FA10BDF32902D198
:1002100001F006FA10BD002010BD1FB500F0E4FF8C
:1002200004000020002105F055FE401C6060002005
:10023000002105F039FEE0601FBD10B510BD01F0D2
:100240002FFD1146FFF7E9FF05F080FD01F056FD97
:1002500003B4FFF7F2FF03BC01F09EFD074880479F
:1002600007480047FEE7FEE7FEE7FEE7FEE7FEE79A
:1002700004480549054A064B70470000655A0008C6
:10028000BD000008700100207007002070030020EE
:10029000700300207CB51D4616460C00009001D06E
:1002A0000019401E084B7B442A466946019030469F
:1002B00000F007FE002C054603D06946002000F040
:1002C00013FE28467CBD0000490C00000FB47CB52D
:1002D0000C0009AA009001D00019401E094B7B4474
:1002E00069460190089800F0ECFD002C054603D00B
:1002F0006946002000F0F8FD28467CBC08BC04B02C
:1003000018470000110C0000F7B50025752910688A
:10031000009914A611D000F01EFB002802DA40421A
:1003200011A608E0009909688A0701D50FA602E026
:10033000490704D50EA6012501E000F015FB009F3A
:100340000024243704E000F02FFF30313955641CBD
:100350000028F8D12B4632462146009800F036FBA3
:10036000FEBD0000000000002D0000002B0000007A
:1003700020000000F3B50446002081B02062204632
:10038000E1688847002872D0252802D06268A168F9
:10039000ABE0594F00267F442046E168884720287B
:1003A000054608DB312D06D2781920380078002860
:1003B00001D00643F0E7B00701D5042086430020B2
:1003C000E0610746A0612A2D0AD0284605F0B6FC58
:1003D000002827D0B8000019303D0090856119E051
:1003E0000298BA00121902C8916102902046E16891
:1003F0008847012F054617D1E06900281FDA202021
:1004000086431CE000980A218069484300994019FE
:10041000303888612046E1688847054605F08EFC43
:100420000028EFD1012F0AD02E2D08D12046E168F7
:1004300088470546202006437F1C022FC3DBA069A6
:10044000002803DA4042A06101200643F00701D0F2
:10045000102086436C2D0BD0682D09D04C2D3CD03C
:100460006A2D38D0742D38D07A2D36D016E040E081
:10047000E1682F4620468847B842054609D16C2FCF
:1004800029D001208002E1680643204688470546BE
:1004900004E06C2F1DD0FF2001300643002D28D032
:1004A00028464138192803D80120C00206432035C8
:1004B000204626602946029A1646FFF73DFE002890
:1004C00010D001280BD0F61DF008C00008300290B3
:1004D00055E74020E1E78020D5E70020D3E7361D2F
:1004E00002964CE762682846A1689047206A401C43
:1004F00044E7206AFEBD0000925D000070B506462C
:1005000000F0FEF90468054630460A22002100F09A
:1005100013FE2C6070BD000030B5441C03E0017870
:10052000401C00290DD08107F9D10B4BDD0104C817
:10053000D11A91432940FAD0001B0A0603D0C01EED
:1005400030BD001B30BD0A0401D0801E30BD090241
:10055000FCD0401E30BD0000010101010022030952
:100560008B422CD3030A8B4211D300239C464EE0CE
:1005700003460B433CD4002243088B4231D303098A
:100580008B421CD3030A8B4201D394463FE0C3093C
:100590008B4201D3CB01C01A524183098B4201D354
:1005A0008B01C01A524143098B4201D34B01C01A3F
:1005B000524103098B4201D30B01C01A5241C308B7
:1005C0008B4201D3CB00C01A524183088B4201D326
:1005D0008B00C01A524143088B4201D34B00C01A12
:1005E0005241411A00D201465241104670475DE027
:1005F000CA0F00D04942031000D3404253400022AA
:100600009C4603098B422DD3030A8B4212D3FC2252
:10061000890112BA030A8B420CD3890192118B42D1
:1006200008D3890192118B4204D389013AD09211E7
:1006300000E08909C3098B4201D3CB01C01A5241A2
:1006400083098B4201D38B01C01A524143098B426B
:1006500001D34B01C01A524103098B4201D30B0154
:10066000C01A5241C3088B4201D3CB00C01A524179
:1006700083088B4201D38B00C01A5241D9D2430860
:100680008B4201D34B00C01A5241411A00D201469D
:10069000634652415B10104601D34042002B00D507
:1006A0004942704763465B1000D3404201B50020C9
:1006B000C046C04602BD7047704770470121C9055A
:1006C0000123411842001B06D3185B0E0AD0C1104B
:1006D0000722D206891840075242D14201D5520062
:1006E00089187047090208D50146002A03D0C10FB6
:1006F000C9070020704710467047420202D0002010
:1007000002497047072109050143F4E70000F87F1B
:10071000F0B5FF252D04C609C209FF2704462E4067
:100720000137CB093E4348402A402B400746002A68
:100730006BD0002B69D0AA4267D0AB4265D00028AD
:1007400000DA32460125ED0529432C430902200237
:10075000090AD21A4B0C7F24E31A434C000A7C444A
:10076000E35C7D242404121914145B00A21888424F
:1007700001D3521C00E0400049420C465C43241166
:100780005C43DB016415E318040A5C43C502200DD9
:100790000C4644436419250A5D432303EC0C0D46C3
:1007A000654300030019EB184C42A34201D35B18C8
:1007B000401CD4052018002B07D05B00C91804D3B7
:1007C000401C002901D1400840003F2189048A4291
:1007D00009D3002A08DC1106090F04D003214907B8
:1007E0004018C00FC007F0BD012241001206891851
:1007F0007F2252069142F6D205214907C84201D50F
:100800009010F0BDFF20C005F0BD002F00DA324689
:100810001648AA4207D2AB4205D21902090E17D0D8
:10082000F80FC007F0BDFF2563002D06AB42F9D8D5
:100830004900A942F6D8AB4201D1A942F2D0A9425F
:1008400001D1002101E061004908D0050843F0BD55
:100850001102090EFBD0FF200243D005F0BD0A466D
:100860000146104654E70000DB5900000000C07F3D
:100870000102C21504D00123DB071943002A0ADB59
:100880009E239A1A02D40846D0407047FF224100A6
:100890001206914201D900207047C017C04370472B
:1008A0001F22030C02D10F2200041CD0030E01D121
:1008B0000002083A030F01D10001121F830F01D17A
:1008C0008000921E002801DB4000521ED205511804
:1008D000021251181922904004D3491C002801D15A
:1008E0004908490008467047C10FC90700D0404277
:1008F000012292071143D3E701218907D0E70000C5
:10090000004870470C01002070B5044685690068F6
:10091000C10601D5302600E02026C00707D070BDF3
:1009200062683046A1689047206A401C20626D1EB4
:10093000F6D570BD70B5044685690078C00707D14B
:1009400070BD6268A16820209047206A401C206228
:100950006D1EF6D570BD09684A0501D540B27047D5
:10096000C905FCD500B2704709684A0501D5C0B277
:100970007047C905FCD580B2704770B50C46054676
:10098000012A05D02878800600D5EA69002302E014
:10099000012305E05B1C934202D2E05C0028F9D100
:1009A000A869E618C01AA861286AC01828622846F3
:1009B000FFF7AAFF04E06A682078A968641C9047E2
:1009C000B442F8D32846FFF7B5FF70BDFFB5044623
:1009D0000D4681B0243000902168880604D510228D
:1009E000E0699143216000E00120A84201DD471B3E
:1009F00000E000270498A1697A191018081AA0616C
:100A00002078C00602D42046FFF77EFF002608E0CB
:100A100003986268A168805D9047206A401C761C3C
:100A2000206204988642F3DB2078C0060AD520466F
:100A3000FFF76AFF06E06268A16830209047206AED
:100A4000401C206238467F1E0028F4DC07E0009836
:100A50006268A168405D9047206A401C2062284679
:100A60006D1E0028F3DC2046FFF764FF20780006A7
:100A700002D5022005B0F0BD0120FBE71168026835
:100A8000006A530501D5087009E0D30501D5088037
:100A900005E0130602D5C21705C100E00860012079
:100AA000704700007047FFB50C461E468FB003CA62
:100AB000089009914F007D0D00D16D1E0021084660
:100AC0000020C0460321099A89050840002A03DA5C
:100AD0008200801840080840800D01280A9002DD3D
:100AE0000020C0430A90089807430DD0EF48F04912
:100AF000281848430714189800281DD07542291E4D
:100B00001DDD0A9842421BE01898012802D00020FF
:100B1000302104E00020F24305E02154401CB042A3
:100B2000FBDB30460022189B002121540F998B607B
:100B30000A60486013B0F0BDBD1B6D1CDFE70A9A68
:100B4000002900DA69420BA800F0C2FD0BAB07CB0D
:100B500003AB07C30899099800F01EFE6B4607C354
:100B60000146D4480918002D00910ADDD1490398A7
:100B70000A9A4942401803A90390684601F03FF8D9
:100B800007E003990A9A081803A90390684600F041
:100B9000FEFF6B4607C30004000C03D00020C043D7
:100BA000410800E01046189A002A03D00022009263
:100BB00015461EE0751E05D400F01AFB3032625552
:100BC0006D1EF9D501220843079602D000227F1C32
:100BD00004E02078302801D100227F1E002A0697E9
:100BE00089D01EE0112D07DA00F002FB3032625589
:100BF0006D1C02460A43F5D1084303D00098002833
:100C000019D00EE00021681E05E0235C625C63548D
:100C10002254401E491C8142F7DBA81B401E079549
:100C20000690079A18990020A0540F98079B069ADF
:100C300081600CC07EE71126002018905BE7D21D72
:100C4000F0B50D460446D10893B0C90003C90C9015
:100C50000D9105F05DF802460D98C00F01D02D20D2
:100C600007E02068810701D52B2002E04007C00F74
:100C70004001032A0F9001D0072A05DB03462946CD
:100C8000204600F05FFC0EE12078800601D5E76980
:100C900000E006272846652D04D0662814D0672D6D
:100CA00069D12DE00020112F009001DB112300E01D
:100CB0007B1C0CAA03A910A8FFF7F5FE11990026CA
:100CC00010987D1C0E9142E001203B460CAAC00703
:100CD0000B900120009003A910A8FFF7E4FE119DDE
:100CE00012981099002600280E9501D1781C0D1835
:100CF000781B02D446427D1C761EE81B00903AE029
:100D0000012F00DA01270020112F009001DD1123AF
:100D100000E03B460CAA03A910A8FFF7C4FE1199F6
:100D20003D46109800260E91217809070BD40E99A4
:100D3000A94200DA0D4603A9012D04DD4A19203A23
:100D4000D27F302A06D0B84201DA011D04DA01212F
:100D500000910FE06D1EEFE7002802DC86192D1AC6
:100D600003E0411CA94200DD0D46801B401C0090A1
:100D70000120C0070B902078000705D40098A842F6
:100D800002DB0020C043009069460020C8720B9827
:100D9000012102AF0337C907884225D002201090F5
:100DA0002B2011900B9800280BDA40420B902D203D
:100DB000119006E00B9800F0F7F930317F1E0B9090
:100DC00039701099481E00291090F3DC0B98002808
:100DD000F0D111987F1E38702088000501D545207C
:100DE00000E065207F1E387001A8C01BC01D0B905D
:100DF0000F98002800D0012041190098C017091849
:100E00000B980818A169081A401EA0612078C00636
:100E100002D42046FFF778FD0F98002805D06268BD
:100E2000A1689047206A401C20622078C00625D522
:100E30002046FFF769FD21E0002E07DB0E98B04247
:100E400004DD03A86268805DA16802E06268A168B1
:100E500030209047206A761C401C20620098401E7B
:100E6000002800900AD100F0BFF9C06862680168EC
:100E7000405CA1689047206A401C206228466D1E95
:100E80000028D9DC07E062683878A1687F1C9047A9
:100E9000206A401C20620B99481E00290B90F2DC4E
:100EA0002046FFF747FD032044E6000001FCFFFF5A
:100EB000104D0000E1DFFFFF01694A1C0261087864
:100EC000704700B58FB0029100210591054901934B
:100ED00079440391114604906846FFF74BFA0FB02E
:100EE00000BD0000E5FFFFFF0A681070521C0A6099
:100EF00070470CC908399A4202D2531C0B6010701B
:100F000070470000F7B50446154686B02B48784474
:100F1000002703C83E460090019111E007986A46F9
:100F20007100415A02A800F09BFE411C07D02178B5
:100F3000890603D5E269391891420ED83F18761C0C
:100F40002078800602D5E069B84206DDAE42E5DBD6
:100F500007987100405A0028E0D1A069C01BA06129
:100F60002046FFF7D1FC154878445A3803C8009052
:100F70000020019116E041006A460798415A02A8F4
:100F800000F06EFE0590401C0AD0002505E0626866
:100F900002A8A168405D90476D1C05988542F6D374
:100FA0000498401CB0420490E5DB206AC01920621E
:100FB0002046FFF7BFFC09B0F0BD00006E520000F4
:100FC000F7B5D21D0025D20815A6D200F52905CA0D
:100FD00011D0002A05DA00214042914111A60A46AB
:100FE00008E0009909688B0701D50FA602E04907C0
:100FF00001D50EA601251146009F0024243704E0E8
:1010000000F0F6F830323A55641C02460A43F7D134
:101010002B46324621460098FFF7D8FCFEBD000063
:10102000000000002D0000002B0000002000000048
:1010300070B504460021243408E05507D2086D0F2E
:10104000303565545D072A43DB08491C15461D43AE
:10105000F3D10468002310A2250708D5A40601D403
:10106000002904D0C46901230CA2641EC461FFF7E7
:10107000ADFC70BD10B5044621461068FFF774FC46
:10108000002302462046FFF7D3FF10BDD21DD10832
:10109000C9000CC9CCE700000000000030000000CF
:1010A000F8B50F460188090502D5224C7C4402E0C0
:1010B000204C7C440E3405460021243508E01607F8
:1010C0001209360FA65D6E541E0732431B09491CD8
:1010D00016461E43F3D1224604780023240705D583
:1010E000702F06D0002901D002231132FFF76EFCC9
:1010F000F8BD01231032F9E770B504460D462146CC
:101100001068FFF731FC0023024629462046FFF70E
:10111000C7FF70BDD21DD308DB000CCBC0E730B4D5
:10112000036820241268234303600823C36130BC92
:101130000023B5E7D8500000F7B50F460026009C05
:101140002578641C002D05D000F046F80068405D4D
:10115000C007F5D12B2D02D02D2D18D0641E394695
:10116000029A204600F060FA002F04D03968A142AC
:1011700001D1009939607105022400290BDA40423F
:10118000002803DDFFF7BCFB0460A007FEBD0120C3
:1011900080020643E3E70028F8DAFFF7B1FB0460BA
:1011A0000048FEBDFFFFFF7F01468008081A0209C4
:1011B0001018020A1018020C1018C0088200121829
:1011C0005200891A01E0401C0A390A29FBD27047F3
:1011D000004870470C01002010B500F005F8001D14
:1011E00010BD00BFF14C0000004870472C010020EA
:1011F0000B4670B5024689078008084319469D08CA
:10120000141AA94125090807054308092C19484162
:10121000250A01060D43010A2C194141200C0D0439
:1012200028430D0C00194D41002140194D41C008C3
:1012300069070843E908840F8D00254384002418BA
:101240004D4124196D41121BAB4107E00925ED43C7
:101250002C11521963410024401C61411C460A258F
:101260000026551BB441F1D270BD0000D21DF0B56F
:1012700004460D46D0088DB0C00046680768314668
:10128000384604F045FD0246F00F01D02D2307E05B
:101290002068810701D52B2302E04007C00F4301DE
:1012A0006846002B037001D0012000E00020032AD3
:1012B0000A9001D0072A04DB2946204600F042F9B3
:1012C0002DE12078800601D40D2500E0E56970004D
:1012D000400D0D2D01904BDA300D00210B9008468A
:1012E0000020C046032189050840002E05DA82004F
:1012F0008018C20F1018401008408015012801DD29
:101300000020C043A9000023182906D39C460A46A2
:101310000123183A1B07D34003E001221205CA40FB
:1013200094460C31202902D33A46203900E0324657
:101330008A40002802DD002A06D119E0002817D1D2
:101340000121C9078A4213D3194663467F185E41BB
:10135000002806D10120C007824202D108468743F7
:101360009E430B98310D814202D00198401C0190A0
:101370002088000502D57149794402E06F4979441B
:1013800019396B460A9830221A540A980A7C401C74
:101390001A54401C0A900198002801DC302000E01B
:1013A00031201872019A0120002A02D0644BD21811
:1013B00004E072003A4302D0614A521C0192002DAF
:1013C00002DC2278120703D56A462E2050720220D2
:1013D0000022864694460CE032033601120F6D1E41
:1013E0008B5C02AA13546246521C401C9446052A88
:1013F00001DA002DF0DC002202AE08E03B0F3F01D5
:10140000CB5C521C6D1E3354401C082A01DA002D9F
:10141000F4DC23689A0601D511E0401E704504DD16
:101420003218203AD27F302AF7D0002807DD321850
:10143000203AD27F2E2A02D11A0700D4401E002D56
:1014400003DD3E223254401C6D1E497C315401990B
:10145000401C002906DA2D21471C315401984042D6
:10146000019003E02B21471C315401987D21C900D4
:10147000884206DBFFF77CF83030F0557F1C019185
:1014800001E0642808DB01986421FFF771F830302F
:10149000F0557F1C019101E00A2806DB01980A2122
:1014A000FFF766F83030F0557F1C01980A21FFF7EE
:1014B0005FF83031F1550A98A1697F1C7A1910182C
:1014C000081AA0612078C00602D42046FFF71CFA53
:1014D000216A6E460A980818206204E06268307833
:1014E000A168761C90470A98401E0A90401CF5D1CE
:1014F0002078C00602D52046FFF706FA02AE09E0C2
:101500003078761C3E280DD06268A1689047206A2A
:10151000401C20627F1EF3D22046FFF70BFA0DB06D
:101520000320F0BD206A4019206203E06268A168D0
:10153000302090476D1EEDD3F8E70000474E0000C5
:1015400001FCFFFFF8B51F46044601230068DB02DB
:10155000032601461840072A05DB002801D017A5FD
:1015600006E017A504E0002801D016A500E016A5A6
:10157000102081432160A069C01E002FA06101D00E
:10158000401EA0612046FFF7BFF9002F09D0384662
:101590006268A1689047206A401C2062C01C2062DB
:1015A00006E0206AFAE762682878A1686D1C904717
:1015B000761EF8D22046FFF7BDF9F8BD4E414E0029
:1015C0006E616E00494E4600696E660010B5436953
:1015D000002B02D0C046C04601E0FFF7CEF9012043
:1015E00010BD1278014624310A7000224A7001228F
:1015F000ECE711680022D243E8E710B54369002BFD
:1016000002D0C046C04601E0FFF77CFC012010BDBF
:1016100012880146243182840022C2840122ECE730
:1016200011680022D243E8E7F7B5154682B00027DB
:10163000029C2078641C0197302802D0002D15D020
:1016400015E020780127641C782804D0582802D09F
:10165000002D09D00BE0002D01D0102D07D12078EE
:1016600000271025641C02E0082500E00A2500265A
:10167000009610E000990127694308182946714334
:10168000020C80B200908E183804864201D30120EB
:1016900001902078641C294600F021FB0028E9DA3B
:1016A0000398002805D0002F01D0641E00E0029CA2
:1016B00004600198002806D0FFF722F9022101609A
:1016C000C81E05B0F0BD009930040843F9E70000DA
:1016D000F7B516468AB02F4878446C4603467C33EB
:1016E000C06F5A689B680DC42A487844763003ACB2
:1016F0000DC80DC43720C001081837211B30FEF774
:1017000037FF05460C46803D1B3C02D56442012054
:1017100000E00020002709900FE0E0070BD00C202C
:101720001C497843794432464C394118684600F0E8
:101730002EFA6B4607C364107F1C002CEDD1154FA9
:101740007F442C3F15E0E80711D02001C0190EC8D6
:101750000691089307920068F04201D19819089009
:10176000324606A903A800F012FA03AB07C36D10B6
:10177000641C002DE7D1324669460998002803A869
:1017800002D000F03CFA01E000F001FA0A9B07C326
:101790000DB0F0BDFC4A0000034640000A4610B5FB
:1017A000400D0BD00121C9070F24A40200191C030E
:1017B00064082143540D2143D20207E00021012097
:1017C000F2E7D40F490021435200401E0029F8DA05
:1017D000DB0FDB07184310BDFFB50D46144685B07F
:1017E0004868516804F06DFA00910190A868A168FA
:1017F00004F067FA02910390A868616804F061FA46
:10180000029A12188242029201D2012000E00020C6
:10181000019A0B18D2180028019202D08A4202D9EC
:1018200003E08A4201D2012000E00020009908185C
:1018300000906868A16804F044FA029A1218824283
:10184000029201D2012000E00020019A0B18D21868
:101850000028019202D08A4202D903E08A4201D2D2
:10186000012000E0002000990818009028682168F5
:1018700040004900400849084018F549471814E05D
:1018800001994000C90F0843009001980299400057
:10189000C90F08430190029803994000C90F0843FB
:1018A0000290039840007F1E039000980028E7DA1A
:1018B0000898002801D0E74E00E00026B74228DA59
:1018C000F71BF806C00E15D0029B2021091A039AB7
:1018D0008B401A430392029A019BC2408B401A43E9
:1018E0000292019A009BC2408B4000991A430192D8
:1018F000C14000917A110BD06B460320811A01D5AB
:10190000002101E0890059588700401ED951F5D5C2
:10191000374603980299002800D001200143089817
:101920000291002808460CD0002800D0012001991F
:10193000019A490508430121D20AC902D202019243
:1019400000E001210E9B0122D207012B02D0002BC7
:1019500003D013E0002807D116E0904204D890424B
:101960000CD1019B0B4209D0019B5918019105D163
:101970000099491C009101D17F1C0092002803D0DE
:10198000102108460020C04628682168019B009A63
:101990004840C10F0598C90739430EC009B0F0BDD2
:1019A000FFB587B0099A089808995368926840680B
:1019B000896896460022039317469446089A12684F
:1019C0005300099A5B081268520052089A1AA24BF7
:1019D000D4180A9A002A01D0352200E0402206924B
:1019E0000022012315460492DB07059324E0002D15
:1019F00005D175460346039E4D1BB34109D3754679
:101A00006646039B491B049D9841059B7519AC468E
:101A10005F4163463B4308D0059B049EDD07760883
:101A20002E435B080496059301E0521E641EC50F09
:101A3000ED0749184041521C069B9A42D7DB002D06
:101A400004D17546039A6B1A824101D203200CE03F
:101A5000039A0B466B404240134303D0014303D02B
:101A6000012002E0022000E00020614601910021F7
:101A7000009702910A99002905D06146400201436E
:101A8000744B019102E08007002302909C423ADAF5
:101A90001A1BD006C00E15D0029D2021019C091AE8
:101AA000C5408C402543029C8C4000D00124254336
:101AB000019C02953D46C4408D4039462C43C140AF
:101AC0000194009154111DD06D460221002202297B
:101AD0000CD10320001B07E0002804DB8600AE5970
:101AE000002E00D00122401C0328F5DB081B02D584
:101AF00088002A5004E08000285810438A00A8502B
:101B0000491EE3D51C460A98002802980CD00028EC
:101B100000D001200199019A490508430121D20A08
:101B2000C902D202019200E00121109B0122D207DA
:101B3000012B02D0002B03D013E0002807D116E0C0
:101B4000904204D890420CD1019B0B4209D0019BDA
:101B50005918019105D10099491C009101D1641CCB
:101B60000092002803D0102108460020C0460898A3
:101B70000999019A0068096848400099C30F0798BD
:101B8000DB0723430360826041600BB0F0BD1FB5EB
:101B9000002300920A46014601A8FFF71DFE01AB93
:101BA00007CB04B010BDF0B585B0012300920A4602
:101BB000014601A8FFF710FE01990F220298920238
:101BC000CF0F4900039E49088C1AFF070021002807
:101BD00000DB0C46450021486D08844206D30D46C3
:101BE0000E460446102108460020C0462005E90A9A
:101BF000084369053843F20A05B01143F0BD1FB52B
:101C0000002300920A46014601A8FFF7C9FE01AB76
:101C100007CBC6E71FB5012300920A46014601A87B
:101C2000FFF7BEFE01AB0F2407CBA402C30F400099
:101C3000DB074008001B002900DB002049000005ED
:101C40004908CC0A204349051843D20A1143A8E7A2
:101C500002C0FFFF013C0000FF3F0000FF07000043
:101C600070B516460C460546FFF7B6FA0368FF2026
:101C70000230C05C012807D0FF2C0ED8185D002868
:101C80000BD001202C7070BDFF3332462146083343
:101C90001868C3182846984770BD0020C04370BD1F
:101CA0007546FFF795FAAE46050069465346C008EB
:101CB000C000854618B020B5FEF7DAFA60BC0027F0
:101CC0004908B6460026C0C5C0C5C0C5C0C5C0C508
:101CD000C0C5C0C5C0C5403D49008D4670473A28C3
:101CE00000D23038202302469A43412A01D31046BD
:101CF0003738884201D30020C043704710B50446EE
:101D0000C046C0462046FEF7A3FA10BD024670B595
:101D10000A4392072AD11E4DEE0104C808C9541B7C
:101D20009443344017D0D0B2D9B2401A21060143AF
:101D300010D190B299B2401A210401430AD1100285
:101D40001902000A090A401A2102014302D1100EA9
:101D5000190E401A70BD9A42DFD010BA19BA8842E3
:101D600001D9012070BD0020C04370BD02780B78FE
:101D7000401C491C002A09D09A4207D102780B78EE
:101D8000401C491C002A01D09A42EFD0D01A70BDE5
:101D9000010101017047000001491820ABBEFEE7B8
:101DA0002600020010B500F007F810BD01490860D8
:101DB000704700000024014010B5082000F006F82C
:101DC000012802D10820FFF7F1FF10BD10B5014630
:101DD000084840680840024606480068CCB22040E7
:101DE0000346002A03D0002B01D0012010BD0020A3
:101DF000FCE700000024014010B5042003F0ACFD16
:101E0000074908480068FEF7A9FB0749086008462B
:101E1000008880B27D21C90048430449086010BD94
:101E200040420F00000000200400002008000020B5
:101E300001B5114A009912685143104A51610021BD
:101E4000916111460969012211430C4A116100BFD9
:101E50000A490869C107C90F002904D001210904F2
:101E600001400029F4D00549096949084900034A9D
:101E700011610021916108BD0400002000E000E034
:101E800010B502F03BFE02F0DBFEFFF7B5FF00F0FD
:101E9000CFFF00F0D1FF00F040FD012004490870A1
:101EA000002004490860084600680349086010BD26
:101EB000300000202400002028000020F3B583B06B
:101EC0000498030003F015FF351C2024282C30341F
:101ED000383C4044484C5054585C6064686C7074A2
:101EE000787C8084888C9094989CA0A4A8ACB0B492
:101EF000B8BCC0C4C8CCD0D4D8DCE0E4E8ECF00076
:101F0000032406250D26CFE00D2402250D26CBE067
:101F10000B2400250126C7E00C2403250D26C3E071
:101F20000B2406250126BFE0032406250126BBE07D
:101F30000B2404250926B7E0032406250C26B3E06C
:101F4000032400250026AFE00A2400250C26ABE080
:101F500003240A250226A7E00B2400250026A3E07F
:101F6000032401250E269FE0032409250C269BE06F
:101F70000B2400250D2697E003240625052693E073
:101F80000B2400250D268FE003240E2505268BE06B
:101F900009240625092687E0082406250C2683E067
:101FA0000B2400250C267FE00B2400250C267BE06B
:101FB000072408250C2677E004240925022673E06F
:101FC000092406250C266FE00C24002503266BE06F
:101FD000032406250D2667E00B240625082663E06A
:101FE0000A24062500265FE00A2406250C265BE06D
:101FF0000B240625012657E003240625012653E07D
:10200000092406250D264FE00324062508264BE06B
:1020100000240025082647E00A2400250C2643E07A
:102020000324062500263FE00B24002500263BE084
:10203000032401250E2637E002240625082633E076
:102040000A24062508262FE00324062505262BE072
:10205000012406250D2627E002240625002623E07C
:102060000924062509261FE00B24062500261BE06F
:102070000A240025082617E00B2400250C2613E06F
:10208000072408250C260FE00424092502260BE06E
:10209000092406250C2607E00C240025032603E06E
:1020A00000240025002600BF00BF0398030003F0B2
:1020B00020FE08050B11171D23292F351427132087
:1020C00002901220019029E01127102002900F2089
:1020D000019023E00E270D2002900C2001901DE0BE
:1020E0000B270A2002900920019017E006270720FD
:1020F00002900820019011E003270420029005209F
:1021000001900BE00027012002900220019005E0E1
:102110001727182002901920019000BF00BF224607
:102120003946052002F080FB2A460520029902F07C
:102130007BFB32460520019902F076FB05B0F0BD2D
:10214000FEB507460E460020019004200090019D38
:10215000BAE12C46002F0BD1002D00D10724012D10
:1021600000D10624022D00D10524032D00D1042422
:10217000705D612802DB705D7A2805DD705D4128A5
:1021800070DB705D5A286DDC705D4138030003F030
:10219000B0FD3AA1A6ABB0B5BABFC4C9CED3D8DDA5
:1021A000EFF4F9FEEAE9E8E7E6E5E4E3E2222222D9
:1021B0002222221E23282D32373C41464B50555AAD
:1021C0005F646A6F74797E83888D92979C22E0B2F7
:1021D0001A21FFF773FE0CE1E0B21B21FFF76EFE40
:1021E00007E1E0B21C21FFF769FE02E1E0B21D2128
:1021F000FFF764FEFDE0E0B21E21FFF75FFEF8E0AE
:10220000E0B21F21FFF75AFEF3E0E0B22021FFF712
:1022100055FEEEE0E0B22121FFF750FEE9E0E0B22A
:102220002221FFF74BFEE4E0E0B22321FFF746FE58
:10223000DFE0E0B22421FFF741FEDAE0E0B2252141
:10224000FFF73CFED5E0E0B22621FFF737FED0E0F5
:10225000E0B22721FFF732FECBE0E0B22821FFF702
:102260002DFEC6E0C6E0E0B22921FFF727FEC0E060
:10227000E0B22A21FFF722FEBBE0E0B22B21FFF7FC
:102280001DFEB6E0E0B22C21FFF718FEB1E0E0B28F
:102290002D21FFF713FEACE0E0B22E21FFF70EFE7A
:1022A000A7E0E0B22F21FFF709FEA2E0E0B2302163
:1022B000FFF704FE9DE0E0B23121FFF7FFFD98E05B
:1022C000E0B23221FFF7FAFD93E0E0B23321FFF7ED
:1022D000F5FD8EE0E0B20021FFF7F0FD89E0E0B20D
:1022E0000121FFF7EBFD84E0E0B20221FFF7E6FDFC
:1022F0007FE0E0B20321FFF7E1FD7AE0E0B20421E4
:10230000FFF7DCFD75E0E0B20521FFF7D7FD70E0D7
:10231000E0B20621FFF7D2FD6BE0E0B20721FFF744
:10232000CDFD66E0E0B20821FFF7C8FD61E0E0B254
:102330000921FFF7C3FD5CE0E0B20A21FFF7BEFD13
:1023400057E0E0B20B21FFF7B9FD52E0E0B20C21FB
:10235000FFF7B4FD4DE047E041E03BE035E02FE022
:1023600029E023E01DE017E011E00BE005E0FFE7C6
:10237000E0B20D21FFF7A2FD3BE0E0B20E21FFF736
:102380009DFD36E0E0B20F21FFF798FD31E0E0B2AD
:102390001021FFF793FD2CE0E0B21121FFF78EFD35
:1023A00027E0E0B21221FFF789FD22E0E0B213211D
:1023B000FFF784FD1DE0E0B21421FFF77FFD18E078
:1023C000E0B21521FFF77AFD13E0E0B21621FFF726
:1023D00075FD0EE0E0B21721FFF770FD09E0E0B2F5
:1023E0001821FFF76BFD04E0E0B21921FFF766FD4D
:1023F00000BF68E0705D302840DB705D39283DDC4F
:10240000705D3038030003F074FC0A060B10151AD7
:102410001F24292E3338E0B2002100F082FA2CE08C
:10242000E0B2012100F07DFA27E0E0B2022100F0E5
:1024300078FA22E0E0B2032100F073FA1DE0E0B286
:10244000042100F06EFA18E0E0B2052100F069FA0C
:1024500013E0E0B2062100F064FA0EE0E0B20721DA
:1024600000F05FFA09E0E0B2082100F05AFA04E057
:10247000E0B2092100F055FA00BF24E0705D2D287C
:1024800005D0705D7C2802D0705D2F2817D1705D5B
:102490002D2804D02F280CD07C280FD104E0E0B2E6
:1024A000012100F091FB09E0E0B2022100F08CFB79
:1024B00004E0E0B2002100F087FB00BF03E0E0B2DF
:1024C0000A2100F02EFA6D1C0098854200DA40E6E1
:1024D000FEBD000010B5064842791521052002F026
:1024E000A3F9034882791621052002F09DF910BD59
:1024F00004010020F3B58DB00F4600200A900B9028
:102500000C900790089009900A900B900C900790FF
:102510000890099005900490002504E0785D2E282D
:1025200000D104956D1C3846FDF7F6FFA842F5D89A
:10253000002507E0785D0AA948550698401CC0B2FE
:1025400006906D1C04988542F4DB00210AAA0698C7
:1025500011540AA8FDF7D2FF03900AA8FDF7DCFF8B
:1025600004460498451C08E0795D07AA05981154B3
:102570000598401CC0B205906D1C785D0028F3D111
:10258000002107AA0598115407A8FDF7B7FF02908C
:1025900007A8FDF7C1FF06460D9800287CD0032E42
:1025A00034D10A210398FDF7E3FFC8B20146019038
:1025B000002000F0B6F90321002000F005FB6421A3
:1025C0000298FDF7D5FF0A210090FDF7D1FFC8B2B0
:1025D00001460190012000F0A4F90A210298FDF7BC
:1025E000C7FF0A210090FDF7C3FFC8B20146019062
:1025F000022000F096F90A210298FDF7B9FFC8B24F
:1026000001460190032000F08CF984E1022E44D1B0
:10261000012C0AD10A210398FDF7AAFFC8B201468E
:102620000190012000F07DF919E0022C17D10A2158
:102630000398FDF79DFF0A210090FDF799FFC8B2AE
:1026400001460190002000F06CF90A210398FDF783
:102650008FFFC8B201460190012000F062F90A2103
:102660000298FDF785FF0A210090FDF781FFC8B2AF
:1026700001460190022000F054F90A210298FDF76A
:1026800077FFC8B201460190032000F04AF9032108
:10269000012000F099FA3EE160E0012EB5D1032C53
:1026A00026D164210398FDF763FF0A210090FDF70E
:1026B0005FFFC8B201460190002000F032F90A2104
:1026C0000398FDF755FF0A210090FDF751FFC8B2AE
:1026D00001460190012000F024F90A210398FDF73A
:1026E00047FFC8B201460190022000F01AF926E027
:1026F000022C18D10A210398FDF73AFF0A21009015
:10270000FDF736FFC8B201460190012000F009F93B
:102710000A210398FDF72CFFC8B201460190022060
:1027200000F0FFF80BE0012C09D10A210398FDF716
:102730001FFFC8B201460190022000F0F2F80A2102
:102740000298FDF715FFC8B201460190032000F082
:10275000E8F80321022000F037FADCE0032E34D140
:102760000A210398FDF704FFC8B201460190072033
:1027700000F0D7F80321072000F026FA6421029820
:10278000FDF7F6FE0A210090FDF7F2FEC8B2014601
:102790000190062000F0C5F80A210298FDF7E8FE36
:1027A0000A210090FDF7E4FEC8B201460190052021
:1027B00000F0B7F80A210298FDF7DAFEC8B2014628
:1027C0000190042000F0ADF8A5E0022E43D1012CC9
:1027D0000AD10A210398FDF7CBFEC8B20146019049
:1027E000062000F09EF819E0022C17D10A21039868
:1027F000FDF7BEFE0A210090FDF7BAFEC8B2014601
:102800000190072000F08DF80A210398FDF7B0FE33
:10281000C8B201460190062000F083F80A21029810
:10282000FDF7A6FE0A210090FDF7A2FEC8B2014600
:102830000190052000F075F80A210298FDF798FE36
:10284000C8B201460190042000F06BF80321062075
:1028500000F0BAF95FE0012E5DD1032C26D164218E
:102860000398FDF785FE0A210090FDF781FEC8B2AE
:1028700001460190072000F054F80A210398FDF763
:1028800077FE0A210090FDF773FEC8B20146019061
:10289000062000F046F80A210398FDF769FEC8B249
:1028A00001460190052000F03CF826E0022C18D1EA
:1028B0000A210398FDF75CFE0A210090FDF758FEFF
:1028C000C8B201460190062000F02BF80A210398B7
:1028D000FDF74EFEC8B201460190052000F021F838
:1028E0000BE0012C09D10A210398FDF741FEC8B283
:1028F00001460190052000F014F80A210298FDF726
:1029000037FEC8B201460190042000F00AF8032106
:10291000052000F059F90FB0F0BD10B501F024FF0B
:1029200010BDF3B583B00498030003F0E2F90B0B7C
:102930000F13171B1F23272B2F07330000240025FD
:10294000002627E00B2400250D2623E00024002587
:102950000C261FE00A24062505261BE00824062570
:102960000D2617E0012406250C2613E00924062570
:1029700009260FE00B24062509260BE0002400257C
:102980000D2607E00B2406250D2603E00924062565
:102990000D2600BF00BF0398030003F0AAF9080545
:1029A0000B11171D23292F351427132002901220F5
:1029B000019029E01127102002900F20019023E0C0
:1029C0000E270D2002900C2001901DE00B270A20FD
:1029D00002900920019017E00627072002900820A6
:1029E000019011E0032704200290052001900BE0E4
:1029F0000027012002900220019005E017271820EF
:102A000002901920019000BF00BF224639460520E0
:102A100001F00AFF2A460520029901F005FF32461F
:102A20000520019901F000FF05B0F0BD10B5044686
:102A30000F480471007900280AD001280FD002281D
:102A400014D11A230B4A0021052001F057FF0DE095
:102A50001A23084A0021052001F050FF06E01A233E
:102A6000054A0021052001F049FF00BF00BF10BD4D
:102A700004010020600000207A000020FEB5054619
:102A80000C461646102E7AD008DC012E0DD0022EF0
:102A900072D0042E71D0082E75D16FE0202E6FD029
:102AA000402E6ED0802E6ED16CE0002D14D07D2093
:102AB000C000844210DA0A210720FFF732FF2046C7
:102AC000FDF71AFF31490190FDF722FE074639460E
:102AD000002000F093F949E0002D14D17D20C000C2
:102AE000844210DA2046FDF707FF28490190FDF7E0
:102AF0000FFE07463946002000F080F9012107202B
:102B000000F062F832E00421072000F05DF8642153
:102B10002046FDF72DFD07460A21FDF729FD002976
:102B200010D02046FDF7E8FE18490090FDF7F0FDB3
:102B30001749019003F082FA07463946002000F059
:102B40005DF913E000210620FFF7EBFE0A21204685
:102B5000FDF70EFD0090FDF7C7FE0D49019003F053
:102B60006DFA07463946002000F048F90BE006E010
:102B700002E002E004E004E005E004E003E002E03B
:102B800001E000E000BF00BFFEBD000000002041EA
:102B90000000C8420FB47FB50446002001900290A7
:102BA000039009250AA80090294601A8009B099ACC
:102BB000FDF770FB01A92046FFF7C2FA0020009044
:102BC0007FBC08BC04B01847F3B585B00020029064
:102BD00001900698030003F08CF805040A101516FE
:102BE0001C000427002004900220039011E000271D
:102BF00006200490002003900BE00327002004909F
:102C0000039006E005E00027062004900C200390C6
:102C100000BF00BF0598030003F06BF808050B1117
:102C2000171B1F252B311424132512260820029070
:102C300025E0112410250F26042002901FE00E2409
:102C40000D250C260220029019E00B240A250926E6
:102C500015E006240725082611E00324042505268F
:102C6000022001900BE0002401250226042001909F
:102C700005E01724182519260820019000BF00BF81
:102C8000069803280ED10598042805DA1521052099
:102C9000029A01F0C9FD14E016210520019A01F005
:102CA000C3FD0EE03A462146052001F0BDFD294650
:102CB0000520049A01F0B8FD31460520039A01F081
:102CC000B3FD07B0F0BD0000F8B505460C46012D78
:102CD0007ED10A2C08DA0A212046FDF749FCCEB243
:102CE00031460320FFF71DFE0A2C17DB642C15DA92
:102CF0000A212046FDF73CFC07460A21FDF738FC77
:102D0000CEB231460220FFF70CFE0A212046FDF725
:102D10002FFCCEB231460320FFF703FE642C26DBE6
:102D20007D20C000844222DA64212046FDF720FC89
:102D300007460A21FDF71CFCCEB231460120FFF701
:102D4000F0FD0A212046FDF713FC07460A21FDF796
:102D50000FFCCEB231460220FFF7E3FD0A212046E8
:102D6000FDF706FCCEB231460320FFF7DAFD7D20E9
:102D7000C000844235DB2048844232DC7D21C9001A
:102D80002046FDF7F5FB07460A21FDF7F1FBCEB221
:102D900031460020FFF7C5FD64212046FDF7E8FB22
:102DA00007460A21FDF7E4FBCEB231460120FFF7CA
:102DB000B8FD0A212046FDF7DBFB07460A21FDF797
:102DC000D7FBCEB231460220FFF7ABFD0A2100E06F
:102DD00007E02046FDF7CCFBCEB231460320FFF7DB
:102DE000A0FD00221521052001F01EFD0022162164
:102DF000052001F019FDF8BD0F270000F3B585B0DF
:102E00000C462046FDF75AFC07A2019100900A21CA
:102E100002A8FDF75BFA07460A2F03DA02A9059814
:102E2000FFF768FB07B0F0BD252E316600000000FB
:102E300010B501F003FE10BD10B501F047FE0023F0
:102E40000B4A0A210B4800F075F80123084A0A21B1
:102E5000094800F06FF80223054A0A21074800F0EC
:102E600069F80323024A0A21054800F063F810BDFF
:102E70000000C842A4000020B4000020C4000020CC
:102E8000D400002010B50446A168206888424ED2C4
:102E900061682068884224D2207B002805D1012265
:102EA00011030920C00601F001FE207B012805D195
:102EB000012210210920C00601F0F8FD207B022824
:102EC00005D1012281030920C00601F0EFFD207B1E
:102ED00003282ED1012220210920C00601F0E6FDA1
:102EE00027E0207B002806D10022012109030920C8
:102EF000C00601F0DBFD207B012805D10022102156
:102F00000920C00601F0D2FD207B022805D1002255
:102F100081030920C00601F0C9FD207B032808D1E8
:102F2000002220210920C00601F0C0FD01E00020A0
:102F3000206010BDFEB504460D4616461F460A49E0
:102F40003046FDF7E5FB06462846FDF7D5FC314641
:102F5000009003F01BF80190FDF78AFC6060A5600B
:102F6000002020602773FEBD0000C84210B548480D
:102F7000007800287ED047480078082842D006DC38
:102F8000012809D0022819D0042871D128E010287E
:102F90004AD020286CD159E03FA10020FFF7D0F89B
:102FA00001223F4801883F480078FFF767FD394814
:102FB0000078400840003749087059E036A10020E9
:102FC000FFF7BEF801223848018836480078FFF73D
:102FD00055FD30480078022188432E49087047E0AB
:102FE0002DA10020FFF7ACF80122304801882D48C0
:102FF0000078FFF743FD27480078042188432549DE
:10300000087035E024A10020FFF79AF80122284833
:10301000018824480078FFF731FD1E480078082118
:1030200088431C49087023E01BA10020FFF788F8A3
:103030000122204801881B480078FFF71FFD154832
:103040000078102188431349087011E012A1002074
:10305000FFF776F801221848018812480078FFF738
:103060000DFD0C480078202188430A49087000BFF4
:1030700000BF00E00AE00121880702F007FE0020FF
:10308000034908700121880702F00AFE10BD000004
:10309000310000204A0000202020202000000000F5
:1030A00038000020480000203A0000203C000020AA
:1030B0003E000020400000204200002010B5F748EC
:1030C000407BC007C00F002801D101F02AF9F34866
:1030D000407B40084000F14948730846007B0128C6
:1030E00078D1EF480078012804D0022873D0032853
:1030F00072D1BBE2EB480078012804D002286CD0E2
:1031000003286BD19EE0E8480078002856D00128BB
:1031100004D0022863D0032820D120E0E3480078BF
:10312000012802D0022818D10BE00220E0490870E3
:103130000222E0A10020FFF72DFD0220DB490870EC
:103140000BE00120DA4908700122DAA10020FFF724
:1031500021FD0120D549087000BF00BF6EE0D748AF
:103160000078012804D010280ED0202824D117E0A0
:103170001020CF4908700222D1A10020FFF70AFDDC
:103180001020CE49087017E02020C949087002229B
:10319000CDA10020FFF7FEFC2020C84908700BE0FD
:1031A0000120C34908700122C2A10020FFF7F2FCF0
:1031B0000120C249087000BF00BF3FE00120BC49A8
:1031C00008700122BBA10020FFF7E4FC0120B749F1
:1031D000087033E0ACE21BE2A8E20DE113E2BC4868
:1031E0000078012804D010280ED0202824D117E020
:1031F0001020AF4908700222B1A10020FFF7CAFCDD
:103200001020B349087017E02020A9490870022255
:10321000ADA10020FFF7BEFC2020AD4908700BE0F7
:103220000120A34908700122A2A10020FFF7B2FCEF
:103230000120A749087000BF00BF00BF00BFFFF713
:1032400049F9E0E198480078002873D0012804D0BB
:1032500002286ED003282DD12DE09E480078022848
:103260000FD0042819D0082823D1022090490870D3
:10327000022290A10020FFF78DFC022095490870E2
:1032800017E004208A49087001228DA10020FFF771
:1032900081FC04208F4908700BE0082084490870E5
:1032A000012289A10020FFF775FC082089490870D8
:1032B00000BF00BF9CE088480078042806D008289A
:1032C0001CD010280ED0202830D123E010207849BF
:1032D000087002227AA10020FFF75CFC10207E49D2
:1032E000087023E0082072490870012276A10020AE
:1032F000FFF750FC08207849087017E020206C493F
:103300000870022270A10020FFF744FC20207249BF
:1033100008700BE0042066490870012268A10020B3
:10332000FFF738FC04206C49087000BF00BF5FE065
:1033300000E020E069480078042802D0082818D16D
:103340000BE008205A49087001225FA10020FFF716
:1033500021FC0820614908700BE0042054490870E2
:10336000012257A10020FFF715FC04205B490870DB
:1033700000BF00BF3CE05A480078042806D0082867
:1033800010D010281AD0202830D123E00820484936
:10339000087001224CA10020FFF7FCFB08205049D7
:1033A000087023E0102042490870022244A1002046
:1033B000FFF7F0FB10204A49087017E020203C4935
:1033C0000870022240A10020FFF7E4FB20204449BE
:1033D00008700BE0042036490870012238A1002053
:1033E000FFF7D8FB04203E49087000BF00BF00BFB4
:1033F00000BFFFF76FF806E12B48007800284CD09B
:10340000012804D0022871D003282ED12EE035489F
:103410000078022804D004280ED0082824D117E010
:10342000042023490870012225A10020FFF7B2FBE8
:1034300004202849087017E008201D49087001225F
:1034400021A10020FFF7A6FB0820224908700BE00D
:10345000022017490870022216A10020FFF79AFBEC
:1034600002201C49087000BF00BFC8E01E48007859
:10347000042806D0082846D0102838D020285BD150
:103480004DE010200A49087002220DA10020FFF72C
:1034900081FB10200F4908704EE04FE0940000209F
:1034A0000C00002010000020110000204B00002024
:1034B0004A00002020502D25640000005300002009
:1034C00048312D25640000004C6F2D25640000005C
:1034D000540000204C0000204D0000204E00002031
:1034E0004F000020500000205100002048E008203C
:1034F000FC4908700122FCA10020FFF74BFB0820CB
:10350000FB49087018E02020F64908700222F949AA
:103510000020FFF73FFB2020F54908700CE0042055
:10352000F04908700122F34908390020FFF732FB07
:103530000420EF49087000BF00BF60E0EE4800784B
:10354000042802D0082819D10BE00820E5490870AA
:103550000122E8490020FFF71DFB0820E44908701C
:103560000CE00420DF4908700122E24908390020FC
:10357000FFF710FB0420DE49087000BF00BF3EE0EB
:10358000DE480078042806D008281DD010280FD067
:10359000202832D124E01020D24908700222D549D7
:1035A00008390020FFF7F6FA1020D149087024E00E
:1035B0000820CC4908700222CBA10020FFF7EAFACC
:1035C0000820CB49087018E02020C6490870022264
:1035D000CBA10020FFF7DEFA2020C54908700CE0DF
:1035E0000420C04908700122C24908390020FFF7B1
:1035F000D1FA0420BE49087000BF00BF00BF00BF61
:10360000FEF768FF00BF00BF0020BF4908808EE0C2
:10361000BE480078030002F06CFB0705090D111588
:10362000191D24000120B94908701BE00220B74988
:10363000087017E00320B549087013E00420B3496F
:1036400008700FE00520B14908700BE00620AF4973
:10365000087007E00020AD4908700120AC490870EF
:1036600000E000BF00BF01F0EDFE60E0A948007877
:10367000030002F03EFB0705111D2935414D59009D
:10368000A5A10120FEF75CFDA5A10020FEF758FDD5
:103690000120A049087047E0A3A10120FEF750FDDA
:1036A0009FA10020FEF74CFD02209A4908703BE0E4
:1036B0009FA10120FEF744FD99A10020FEF740FDE7
:1036C0000320944908702FE09BA10120FEF738FDEC
:1036D00093A10020FEF734FD04208E49087023E0FA
:1036E00097A10120FEF72CFD8DA10020FEF728FDFB
:1036F00005208849087017E093A10120FEF720FDFE
:1037000091A10020FEF71CFD0620824908700BE005
:1037100085A10120FEF714FD81A10020FEF710FD18
:1037200001207C49087000BF00BF00E000BF00BF5F
:103730008848007B022872D175480078012804D09F
:1037400002287FD003286CD1B4E183480078012897
:1037500004D002284CD0032872D124E07F4800789E
:10376000002812D0012804D0022814D0032818D130
:1037700005E061480178012001F010FE11E05E488B
:103780000178012001F00AFE0BE05B48017801207E
:1037900001F004FE05E058480178012001F0FEFD2B
:1037A00000BF00BF4CE06D480078002812D001280F
:1037B00004D0022814D0032818D105E04C48017821
:1037C000012001F0EBFD11E065480178012001F0D6
:1037D000E5FD0BE063480178012001F0DFFD05E025
:1037E00061480178012001F0D9FD00BF00BF27E04A
:1037F0005A480078002815D0012804D0022817D094
:1038000003281BD105E059480178012001F0C6FDCD
:1038100014E057480178012001F0C0FD0EE05BE2A2
:1038200010E057E234480178012001F0B7FD05E0CF
:1038300032480178012001F0B1FD00BF00BF00BF98
:1038400000BF48E231480078030002F052FA07F165
:10385000051F3FAAE5F0F1003F480078012804D099
:1038600002280AD003280CD103E003203A4908704B
:1038700008E002203849087004E001203649087049
:1038800000E000BF00BF01F0DDFD11E1334800782A
:10389000002812D0012804D002280AD0032810D111
:1038A00003E003202D4908700CE002202B4908702A
:1038B00008E000202949087004E001202749087029
:1038C00000E000BF00BF01F0BDFDF1E02948007835
:1038D00000285DD0012853D002284DD003285BD1A9
:1038E00052E000004A0000204C6F312D256400009A
:1038F0004C000020C83400084B000020520000207B
:103900004C6F322D25640000320000200D00002095
:103910000C0000200E000020205374640000000002
:103920002073756200000000203235300000000076
:1039300020207C7C000000004F75743100000000E6
:10394000204F464600000000204F46462073756217
:103950000000000094000020100000201100002052
:103960004D0000204E0000204F000020500000209D
:1039700051000020120000200120F74908700CE0DF
:103980000320F549087008E00020F349087004E0BE
:103990000120F149087000E000BF00BF01F052FDB6
:1039A00086E0FEF797FDED48008864281ED006DC0F
:1039B00002280FD00A2811D0322829D112E0FA2883
:1039C00018D0FF38F538002819D0E54940180028EC
:1039D0001ED119E00A20E149088019E03220DF49B0
:1039E000088015E06420DD49088011E0FA20DB49F9
:1039F00008800DE0FF20F530D849088008E07D20E0
:103A00000001D649088003E00220D449088000BFA5
:103A100000BF01F017FD4BE0D248007800280CD021
:103A2000012806D0022810D0032812D109E014E0A2
:103A30003DE00220CB4908700BE00120C949087025
:103A400007E00020C749087003E00320C54908705B
:103A500000BF00BF01F0F6FC2AE0C3480078030075
:103A600002F047F907110D090515191D2100042061
:103A7000BD49087017E00320BB49087013E002201D
:103A8000B94908700FE00120B74908700BE0052024
:103A9000B549087007E00620B349087003E000202C
:103AA000B149087000BF00BF01F0CCFC00E000BFCE
:103AB00000BF10E1AD480078030002F01AF90705D5
:103AC000065273A3C4E6050002E1A9480078002865
:103AD00006D0012810D002281ED003283FD131E0A3
:103AE000A4A10120FEF72CFBA4490020FEF728FB2F
:103AF00001209F49087032E0A1A10120FEF720FBC0
:103B00009E490020FEF71CFB03210120FFF75CF813
:103B100002209749087022E000221521052000F0BC
:103B200083FE00221621052000F07EFE96A10120D2
:103B3000FEF706FB91490020FEF702FB03208C49AB
:103B400008700CE08D4920310120FEF7F9FA8B490D
:103B50000020FEF7F5FA00208549087000BF00BF7D
:103B6000B6E08B480078002802D0012818D10BE07D
:103B700088A10120FEF7E4FA88A10020FEF7E0FA10
:103B800001207B4908700BE086A10120FEF7D8FADE
:103B900082A10020FEF7D4FA01207549087000BF09
:103BA00000BF95E081480078002804D001280FD09C
:103BB000022825D118E0714910310120FEF7C0FA22
:103BC0007BA10020FEF7BCFA01207849087017E0BD
:103BD00079A10120FEF7B4FA75A10020FEF7B0FA32
:103BE0000220724908700BE075A10120FEF7A8FAC7
:103BF0006FA10020FEF7A4FA00206C49087000BFF6
:103C000000BF65E070480078002802D0012818D174
:103C10000BE06EA10120FEF793FA6EA10020FEF7E3
:103C20008FFA0120684908700BE06CA10120FEF7B3
:103C300087FA68A10020FEF783FA00206249087025
:103C400000BF00BF44E067480078002802D0012888
:103C500019D10BE064A10120FEF772FA64A10020E3
:103C6000FEF76EFA01205F4908700CE043490839FD
:103C70000120FEF765FA5EA10020FEF761FA002040
:103C80005849087000BF00BF22E05B480078002858
:103C900002D001281AD10CE0384920310120FEF76A
:103CA0004FFA53A10020FEF74BFA01205249087049
:103CB0000CE0324920310120FEF742FA4CA10020ED
:103CC000FEF73EFA00204C49087000BF00BF00BF5D
:103CD00000BF00E000BF00BF4848007B042836D189
:103CE00047480078012804D0022831D0032830D179
:103CF000BAE144480078012804D002282AD00328D9
:103D000024D185E040480078002812D0012804D052
:103D1000022814D0032818D105E03C48017800207F
:103D200001F03CFB11E039480178002001F036FB3E
:103D30000BE036480178002001F030FB05E0334805
:103D40000178002001F02AFB00BF00BFAAE0E5E2F5
:103D5000AAE0E1E281E0000012000020140000204F
:103D600024FAFFFF16000020170000200E0000209C
:103D700018000020556E697400000000203900080A
:103D80004E6F787800000000437553740000000007
:103D9000190000202035303000000000442D535021
:103DA0000000000031303030000000001A00002018
:103DB0002048595300000000207C7C7C000000005B
:103DC0002020207C000000001B0000204F555432B2
:103DD0000000000044695350000000004F5554316A
:103DE000000000001C00002046554C4C0000000064
:103DF00044697370000000001D0000209400002042
:103E00000C00002010000020110000204B000020BA
:103E1000F9480078002812D0012804D0022814D0D4
:103E2000032818D105E0F5480178002001F0B6FA22
:103E300011E0F3480178002001F0B0FA0BE0F148FE
:103E40000178002001F0AAFA05E0EF48017800208F
:103E500001F0A4FA00BF00BF24E0E7480078002882
:103E600012D0012804D0022814D0032818D105E06C
:103E7000E6480178002001F091FA11E0E448017869
:103E8000002001F08BFA0BE0E2480178002001F0FD
:103E900085FA05E0E0480178002001F07FFA00BFD4
:103EA00000BF00BF00BF38E2DC480078030001F02B
:103EB00020FF07D6051D3A5891AED600D8480078A5
:103EC000012804D002280AD003280CD103E00220E4
:103ED000D349087008E00120D149087004E00320AC
:103EE000CF49087000E000BF00BFB9E0C2480078C9
:103EF00000280ED0012804D002280ED0032810D1AB
:103F000003E00020BC4908700BE00120BA490870AA
:103F100007E00220B849087003E00320B6490870A2
:103F200000BF00BF9CE0BF480078002812D00128E5
:103F300008D0022802D0032810D107E00020B94998
:103F400008700CE00220B749087008E00120B5496C
:103F5000087004E00320B349087000E000BF00BF10
:103F60007EE0FEF7B7FAB048008864281FD006DC70
:103F700002280FD00A2812D0322829D113E0FA28BB
:103F800019D0FF38F538002819D0A8494018002862
:103F90001ED118E07D200001A349088018E002200E
:103FA000A149088014E00A209F49088010E03220CF
:103FB0009D4908800CE064209B49088008E0FA20B5
:103FC0009949088004E0FF20F5309749088000BF38
:103FD00000BF45E09648007800280AD0012804D0A8
:103FE00002280ED0032810D107E000209049087065
:103FF0000BE003208E49087007E002208C4908700E
:1040000003E001208A49087000BF00BF28E089480A
:104010000078030001F06DFE07110D090515191D4B
:10402000210002208349087017E0012081490870AF
:1040300013E000207F4908700FE006207D490870DA
:104040000BE003207B49087007E0042079490870E1
:1040500003E005207749087000BF00BF00E000BF03
:1040600000BF01F0EFF958E173480078030001F058
:1040700040FE0705065479ADF9C205004AE16F48D4
:104080000078002806D0012810D002281BD0032871
:1040900041D12FE06A490120FEF752F8694900201A
:1040A000FEF74EF803206549087034E06549203179
:1040B0000120FEF745F863490020FEF741F8002093
:1040C0005E49087027E000221521052000F0ACFBB6
:1040D00000221621052000F0A7FB594914390120C0
:1040E000FEF72EF857490020FEF72AF80120534921
:1040F000087010E0524908390120FEF721F852A15A
:104100000020FEF71DF803210120FEF75DFD0220CF
:104110004A49087000BF00BFFCE04D480078002805
:1041200002D001281CD10DE045491C310120FEF7C9
:1041300007F8434914310020FEF702F801203F49F7
:1041400008700DE03E490C310120FDF7F9FF3C49B4
:1041500014310020FDF7F4FF01203849087000BF3A
:1041600000BFD7E03B480078002804D0012810D0D9
:10417000022829D11BE0324930310120FDF7E0FF50
:104180002F4928310020FDF7DBFF0220314908705C
:104190001AE02B4938310120FDF7D2FF2849283198
:1041A0000020FDF7CDFF00202A4908700CE02AA16D
:1041B0000120FDF7C5FF224928310020FDF7C0FF8F
:1041C00001202449087000BF00BFA3E02448007804
:1041D000002802D0012853D145E01949543101206B
:1041E000FDF7AEFF164968310020FDF7A9FF00205A
:1041F0001B49087044E069E0110000204C000020D9
:104200004D0000204E0000204F00002050000020F4
:10421000510000204B000020520000200D00002023
:1042200010000020120000201400002024FAFFFFDC
:1042300016000020170000200E00002018000020AB
:10424000883D0008203900082053756200000000F6
:10425000190000201A0000202020207C7C00000093
:104260001B0000200EE06D490120FDF769FF6B493E
:1042700024310020FDF764FF01206949087000BF68
:1042800000BF47E067480078002802D001281BD112
:104290000CE065490120FDF753FF604924310020FF
:1042A000FDF74EFF00205F4908700DE05B491C31AF
:1042B0000120FDF745FF594924310020FDF740FF5B
:1042C00001205849087000BF00BF23E0574800781C
:1042D000002802D001281BD10CE055A10120FDF7D8
:1042E0002FFF4E4924310020FDF72AFF01204F49BE
:1042F00008700DE04C4928310120FDF721FF4749A6
:1043000024310020FDF71CFF00204849087000BF41
:1043100000BF00BF00BF00E000BF00BF0020464953
:1043200008734548407B8007C00F002838D04248BA
:10433000407B02218843404948730846007B01289E
:1043400020D13E480078012806D102203B49087060
:104350000120FEF76BFB15E038480078022808D1F1
:1043600001203649087000203549087001F06AF8CC
:1043700008E032480078032804D101202F49087052
:1043800001F060F82C48007B022801D12D4908700B
:104390002948007B04283FD103202A4908703BE0CC
:1043A0002548407B4007C00F002829D02248407B89
:1043B00004218843204948730846007B01282BD1FB
:1043C0001E48007801280BD103201C4908701EA14B
:1043D0000120FDF7B5FE1EA10020FDF7B1FE1BE098
:1043E00016480078022817D103201449087016A136
:1043F0000120FDF7A5FE16A10020FDF7A1FE0BE0B0
:104400000D48407B0007C00F002805D00A48407BBC
:10441000082188430849487310BD0000CC3D0008BE
:104420001B0000201C000020183900081D0000207F
:1044300020204F4E00000000940000200C000020BF
:104440000D000020490000202050524F00000000C5
:104450004D4F44450000000010B502210920C00660
:1044600000F01CFB00280DD001210920C00600F03F
:1044700015FB002806D0FF2101317E4800F00EFB1D
:1044800000287DD17C480079030001F032FC05044E
:10449000420A8CC9CA0002207749087100200860CE
:1044A000BFE07548C088401C80B27349C8800228AC
:1044B0002EDB0120087102210920C00600F0EEFA6F
:1044C000002805D16C48007B012108436A49087324
:1044D00001210920C00600F0E1FA002805D1664854
:1044E000007B0221084364490873FF2101316148C0
:1044F00000F0D4FA002805D15F48007B042108436E
:104500005D4908735C4800685B4988600020C8808A
:1045100087E05948006858498968441A7D20C000DE
:1045200084423FD30320544908710846407B02214E
:104530008843801C504948730020087302210920D9
:10454000C00600F0ABFA002805D14B48007B0121E2
:1045500008434949087301210920C00600F09EFA6A
:10456000002805D14448007B0221084342490873D2
:10457000FF2101313F4800F091FA002807D100E007
:1045800050E03D48007B042108433B4908733A480A
:10459000007B062806D13848407B08218843083034
:1045A000354948733DE03448006833498968441A06
:1045B0007D200001844232D304202F49087108462F
:1045C000407B04218843001D2B4948730020087359
:1045D00002210920C00600F061FA002805D1264812
:1045E000007B012108432449087301210920C006EA
:1045F00000F054FA002805D11F48007B022108432F
:104600001D490873FF2101311A4800F047FA0028BC
:1046100005D11948007B042108431749087300E0BD
:1046200000BF25E014480079012806D002280ED0EA
:10463000032812D004281AD114E00F48407B400808
:104640004000401C0C494873002008710FE0002016
:1046500009490873C880087109E0002006490873F9
:10466000087104E0002004490873087100BF00BF0E
:1046700010BD0000000400489400002081627047D3
:1046800070B50A4600213DE001238B4014881C4090
:10469000002C00D135E09478012C02D09478022CC3
:1046A00016D184684E000325B540AC43846014796C
:1046B0004D00AC4085682C4384604468D5788D40BB
:1046C000AC4344604468D5788D40ADB22C4344601F
:1046D00005684E000324B440A543056094784D005E
:1046E000AC4005682C430460C4684E000325B54007
:1046F000AC43C46054794D00AC40C5682C43C460E1
:1047000000BF491C1029BFD370BD024613690B407E
:10471000002B01D0012300E000231846704781617F
:10472000704710B5002406E000222146052000F065
:104730007BF8601C84B2312CF6DB10BD10B529214A
:10474000042000F02BF80321042000F027F80121B9
:10475000042000F023F8FFF7E4FF10BD10B5044675
:104760002046FDF765FB10BD1CB50120800400F05C
:1047700003FEE02168460180012181700021C170A3
:10478000032101710021417169460348FFF778FF59
:10479000FFF7D4FF1CBD00000004004870B50546BB
:1047A0000E460021084600F017F90120FFF7D6FF5A
:1047B000002415E00021012000F00EF90420204122
:1047C00028400146022000F007F90120FFF7C6FF4C
:1047D0000121084600F000F90120FFF7BFFF641C2B
:1047E000032CE7DB002415E00021012000F0F4F8A1
:1047F0008020204130400146022000F0EDF80120E9
:10480000FFF7ACFF0121084600F0E6F80120FFF7B2
:10481000A5FF641C092CE7DB0121002000F0DCF877
:104820000120FFF79BFF70BDF8B505460E46174601
:104830000021084600F0D0F80120FFF78FFF002488
:1048400018E00420204128400146022000F0C4F86E
:104850000520FFF783FF0021012000F0BDF80520AF
:10486000FFF77CFF0121084600F0B6F80120FFF7B2
:1048700075FF641C032CE4DB002418E02020204199
:1048800030400146022000F0A7F80520FFF766FF40
:104890000021012000F0A0F80520FFF75FFF0121B3
:1048A000084600F099F80120FFF758FF641C062C19
:1048B000E4DB002418E00120A0403840C1B202200F
:1048C00000F08AF80520FFF749FF0021012000F0E1
:1048D00083F80520FFF742FF0121084600F07CF82D
:1048E0000120FFF73BFF641C042CE4DB01210020C6
:1048F00000F072F80120FFF731FFF8BDFFB581B07D
:1049000006460F460021084600F066F80120FFF732
:1049100025FF002415E00021012000F05DF80420AF
:10492000204130400146022000F056F80120FFF7F8
:1049300015FF0121084600F04FF80120FFF70EFF98
:10494000641C032CE7DB002415E00021012000F0AB
:1049500043F82020204138400146022000F03CF876
:104960000120FFF7FBFE0121084600F035F8012089
:10497000FFF7F4FE641C062CE7DB00241FE0002593
:104980001AE00398005D0122AA401040014602206F
:1049900000F022F80520FFF7E1FE0021012000F0E1
:1049A0001BF80520FFF7DAFE0121084600F014F895
:1049B0000120FFF7D3FE6D1C042DE2DB641C04987C
:1049C0008442DCDB0121002000F006F80120FFF723
:1049D000C5FE05B0F0BD000070B505460C46002DC3
:1049E00004D0012D0ED0022D24D117E0002C04D0CC
:1049F00080211148FFF793FE03E080210E48FFF766
:104A00003DFE17E0002C04D040210B48FFF787FE45
:104A100003E040210848FFF731FE0BE0002C04D0F2
:104A200020210548FFF77BFE03E020210248FFF725
:104A300025FE00BF00BF70BD000400481CB501206A
:104A4000400400F099FC0120800400F095FC022154
:104A500068460180002181700321017169460920A7
:104A6000C006FFF70DFE012168460180002181701C
:104A70000321017169460920C006FFF701FEFF21ED
:104A8000013168460180002181700321017169466E
:104A90000148FFF7F5FD1CBD0004004870B5044651
:104AA0000D4629462046FFF730FE70BD70B505461D
:104AB0000E461446002C04D031462846FFF72FFE40
:104AC00003E031462846FFF7D9FD70BD1CB5012033
:104AD000400400F051FC08496846018001218170C2
:104AE0000021C17003210171002141716946092033
:104AF000C006FFF7C5FD1CBD309000004C49096899
:104B000049084900491C4A4A116011464968494A06
:104B10001140474A516011460968474A1140444ACA
:104B2000116011460968012292049143404A1160C4
:104B3000114649683F22120491433D4A5160114693
:104B400049680909090151601146096BFF22543275
:104B50009143374A11631146496B49084900516333
:104B600000219160114609680122120491438918BD
:104B70002F4A1160002007E02D4909688907C90FF5
:104B8000002900D004E0401C052109028842F3D32B
:104B900000BF274909688907C90F002947D027495D
:104BA0000968102291431031244A116011460968A6
:104BB000C908C900491C11601D494968F022914388
:104BC0001B4A516011464968072212029143184A54
:104BD0005160114649680322D2039143144A51603F
:104BE000114649680F22920491430522D204891884
:104BF0000F4A516011460968012212069143891833
:104C00000B4A116000BF0A4909688901C90F0029D0
:104C1000F9D00749496889088900891C044A51600C
:104C200000BF034949680907890F0229F9D1704774
:104C3000001002400CB8FF08FFFFF6FE0020024003
:104C40000EB5012000F0A0FB0120800700F0CCFF92
:104C500000216846017281700E4801902F2168463C
:104C600001800021417269460120800700F0C2FFE7
:104C70000121880700F0B5FF0121880701F010F835
:104C800000210F2000F0D2F90120800701F002F886
:104C90000EBD0000E70300007047000010B5D048CB
:104CA0000078012804D0022877D0032869D169E070
:104CB000CC48007800283CD0012804D002283FD0FE
:104CC00003285DD115E0C8480078012808D00228E3
:104CD0000DD1C648008800F0F9F9C449088006E003
:104CE000C348008800F0F2F9C149088000BF00BF46
:104CF00046E0C0480078012804D0102809D02028B8
:104D000015D10DE0BA48008800F0E0F9B8490880F4
:104D10000DE0B948008800F0D9F9B749088006E0ED
:104D2000B648008800F0D2F9B449088000BF00BF3F
:104D300026E0AF48008800F0C9F9AD4908801FE0BF
:104D4000AF480078012804D0102809D0202815D1B8
:104D50000DE0A748008800F0B9F9A54908800DE0EA
:104D6000A548008800F0B2F9A349088006E0A248EF
:104D7000008800F0ABF9A049088000BF00BF00BF69
:104D800000BF2BE19748007800284FD0012805D0BC
:104D9000022862D003281FD11FE089E099480078DB
:104DA00002280AD004280FD0082814D19648008879
:104DB00000F08CF9944908800DE08C48008800F0E0
:104DC00085F98A49088006E09048008800F07EF95D
:104DD0008E49088000BF00BF68E08D480078042835
:104DE00006D0082812D0102809D020281CD114E0A1
:104DF0008648008800F06AF98449088014E07E48FB
:104E0000008800F063F97C4908800DE07E48008846
:104E100000F05CF97C49088006E07848008800F0E2
:104E200055F97649088000BF00BF3FE07948007817
:104E3000042802D008280ED106E07448008800F04B
:104E400045F97249088006E06F48008800F03EF995
:104E50006D49088000BF00BF28E06F480078042833
:104E600006D008280BD0102810D020281CD114E020
:104E70006648008800F02AF96449088014E0624816
:104E8000008800F023F9604908800DE05A48008846
:104E900000F01CF95849088006E05848008800F0E6
:104EA00015F95649088000BF00BF00BF00BF95E05C
:104EB0004C48007800284FD0012804D0022862D046
:104EC00003281FD11FE055480078022804D0042889
:104ED00009D0082815D10DE04448008800F0F6F804
:104EE000424908800DE04948008800F0EFF8474942
:104EF000088006E04448008800F0E8F8424908804D
:104F000000BF00BF68E046480078042806D00828A3
:104F100012D0102809D020281CD114E03B4800886A
:104F200000F0D4F83949088014E03348008800F0D4
:104F3000CDF8314908800DE03348008800F0C6F80C
:104F40003149088006E03048008800F0BFF82B495E
:104F5000088000BF00BF3FE023480078042802D04B
:104F600008280ED106E02948008800F0AFF827494C
:104F7000088006E02448008800F0A8F8224908804C
:104F800000BF00BF28E027480078042806D0082882
:104F900012D0102809D020281CD114E01B4800880A
:104FA00000F094F81949088014E01348008800F0D4
:104FB0008DF8114908800DE01348008800F086F84C
:104FC0001149088006E00D48008800F07FF80B4981
:104FD000088000BF00BF00BF00BF00BF00BF10BD02
:104FE00010000020110000204B0000203A0000209B
:104FF0003800002053000020400000204200002024
:10500000540000204C0000203E0000203C00002006
:105010004D0000204E0000204F00002050000020D6
:1050200051000020520000207047000070B5044677
:105030000D462946204600F00BF800BFE106C90ED8
:10504000012088400149086000BF70BD00E100E018
:1050500010B5002819DA1A4A03071B0F083B9B08F2
:105060009B00D2588307DC0EFF23A3409A438B0793
:105070001B0E8407E40EA3401A43114B0407240FB0
:10508000083CA408A4001A5118E00E4A03231B028E
:10509000D21883089B00D2588307DC0EFF23A3405D
:1050A0009A438B071B0E8407E40EA3401A43054B5B
:1050B000032424021B198408A4001A5110BD000007
:1050C0001CED00E000E100E07047000010B5044670
:1050D00082480078022876D181480078002802D0E2
:1050E000012866D13AE07F480088FF21F5318842E7
:1050F00004DA7C480088401C7A4908807A48008895
:105100000A2805DA78480088401C7749088015E0AD
:1051100000207549088075480078002805D074483B
:1051200084420BDA601C84B208E0002C02DD601EB1
:1051300084B203E001206D490870012469480088A9
:10514000FF21F531884208D10A212046FBF710FAE9
:10515000002902D10120624908702AE062480088D3
:105160000A2805DA60480088401C5F4908801FE073
:1051700000205D4908805D48007800280AD05C481E
:10518000844215DA20460A3084B2594884420FDD41
:1051900004460DE0002C07DD20460A3884B254484E
:1051A000844205DD044603E00120504908700A24CA
:1051B00000BF00BF4F48027821464C480078FDF7F9
:1051C0005DFC79E0FFE745480078032874D1444846
:1051D0000078002802D0012866D13AE041480088D2
:1051E000FF21F531884204DA3E480088401C3D49E1
:1051F00008803D4800880A2805DA3B480088401CA2
:105200003949088015E00020374908803748007880
:10521000002809D0002C02DD601E84B209E00020C5
:1052200032490870012404E03148844201DA601CEC
:1052300084B22C480088FF21F531884208D10A2128
:105240002046FBF795F9002902D101202449087076
:105250002AE0254800880A2805DA23480088401CEF
:10526000214908801FE000201F4908801F4800785E
:1052700000280ED0002C07DD20460A3884B21C48D6
:10528000844210DD04460EE00020184908700A240C
:1052900009E01748844206DA20460A3084B21448EE
:1052A000844200DD044600BF00BF12480278214658
:1052B0000E480078FDF7E2FB0848007800280BD084
:1052C0000D480079002807D1054908700549088074
:1052D0000549088001490870204610BD490000209A
:1052E0005A000020560000205800002048000020EE
:1052F0001A040000550000209400002070B50546F7
:105300000C46002D19D01A480078002805D01948FD
:1053100084420BDA601C84B208E0002C02DD601EBF
:1053200084B203E0012012490870012401222146C1
:105330000F480078FDF7A2FB18E00D480078002820
:1053400009D0002C02DD601E84B209E0002008496B
:105350000870012404E00748844201DA601C84B22A
:105360000122214602480078FDF788FB204670BDE7
:10537000480000201A040000024949690143014A1B
:1053800051617047001002400249C9690143014A56
:10539000D1617047001002407047000070B50546AB
:1053A0000E460024002D00D00124082E34D006DC47
:1053B000012E09D0022E0FD0042E35D124E0102E5C
:1053C00012D0202E30D117E0E0B218490988FFF73B
:1053D00095FF1649088027E0E0B215490988FFF7D4
:1053E0008DFF134908801FE0E0B212490988FFF7DA
:1053F00085FF1049088017E0E0B20F490988FFF7E0
:105400007DFF0D4908800FE0E0B20C490988FFF7E5
:1054100075FF0A49088007E0E0B209490988FFF7EB
:105420006DFF0749088000BF00BF70BD3800002035
:105430003A00002040000020420000203C000020F4
:105440003E00002010B5F8480088022800D100BFB7
:10545000FDF740F8F5480078012804D0022817D05D
:10546000032872D18BE10023F14A0A21F148FDF7AC
:1054700061FD0223EE4A0A21EF48FDF75BFDEFA133
:105480000120FCF75DFEEDA10020FCF759FE60E273
:10549000EC480078030000F02CFC07F2053877A9EF
:1054A000F3F0F2000023E24A0A21E248FDF742FD50
:1054B000022300220A21E048FDF73CFDE248007883
:1054C000012804D0022814D003281BD108E0DFA152
:1054D0000120FCF735FEDFA10020FCF731FE12E0D1
:1054E000DEA10120FCF72CFEDAA10020FCF728FE4B
:1054F00009E0DCA10120FCF723FED6A10020FCF787
:105500001FFE00E000BF00BF37E100231A460A215A
:10551000C848FDF70FFD0223C54A0A21C648FDF71A
:1055200009FDD2480078002822D0012804D00228A2
:1055300015D0032825D109E0C4A10120FCF700FE05
:10554000CBA10020FCF7FCFD1CE001E2C3A101207F
:10555000FCF7F6FDC6A10020FCF7F2FD12E0C1A1A8
:105560000120FCF7EDFDC2A10020FCF7E9FD09E0F8
:10557000C1A10120FCF7E4FDBDA10020FCF7E0FD86
:1055800000E000BF00BFF8E0BD480078002821D04F
:1055900001280DD0022802D0032824D111E0B9A19E
:1055A0000120FCF7CDFDB9A10020FCF7C9FD1BE0EF
:1055B000B8A10120FCF7C4FDB4A10020FCF7C0FD98
:1055C00012E0B6A10120FCF7BBFDB0A10020FCF762
:1055D000B7FD09E0B3A10120FCF7B2FDABA10020AB
:1055E000FCF7AEFD00E000BF00BFC6E093A10120C4
:1055F000FCF7A6FD8C48008864281CD006DC022835
:105600002FD00A280DD0322831D10FE0FA2817D038
:10561000FF38F538002818D0A4494018002826D1B2
:1056200019E00A210120FDF74FFB20E03221012083
:10563000FDF74AFB1BE064210120FDF745FB16E066
:10564000FA210120FDF740FB11E0FF21F531012097
:10565000FDF73AFB0BE07D2109010120FDF734FB4A
:1056600005E0012189070120FDF7C8FB00BF00BF4D
:105670008FA10020FCF764FD7FE032E000E07BE0DA
:105680008D48007800280FD0012804D002281DD0B2
:10569000032824D111E089A10120FCF751FD89A143
:1056A0000020FCF74DFD1AE088A10120FCF748FD21
:1056B00084A10020FCF744FD11E086A10120FCF745
:1056C0003FFD80A10020FCF73BFD08E083A1012005
:1056D000FCF736FD7BA10020FCF732FD00BF00BFC8
:1056E0004BE080480078030000F003FB0720170E12
:1056F0000529323B44007CA10120FCF721FD7CA15F
:105700000020FCF71DFD35E07BA10120FCF718FD12
:1057100077A10020FCF714FD2CE079A10120FCF713
:105720000FFD73A10020FCF70BFD23E076A1012003
:10573000FCF706FD6EA10020FCF702FD1AE074A143
:105740000120FCF7FDFC6AA10020FCF7F9FC11E048
:1057500071A10120FCF7F4FC65A10020FCF7F0FC2E
:1057600008E06FA10120FCF7EBFC61A10020FCF731
:10577000E7FC00BF00BF00E000BF00BFE9E06A48EF
:105780000078030000F0B5FA0705061722303B4603
:10579000E200DBE065480078002806D0012805D04B
:1057A000022804D0032804D102E002E001E000E076
:1057B00000BF00BFCAE05E480078002802D0012880
:1057C00002D100E000E000BF00BFBFE05948007810
:1057D000002804D0012803D0022803D101E001E011
:1057E00000E000BF00BFB1E053480078002802D0BD
:1057F000012802D100E000E000BF00BFA6E04F4852
:105800000078002802D0012802D100E000E000BFAB
:1058100000BF9BE04A480078002802D0012801D14F
:1058200091E08FE090E00000140000200C000020C8
:105830000000C842A4000020C40000202020202036
:10584000000000000D0000201000002045415359C9
:10585000000000004F7574310000000020485359CB
:105860000000000057434D500000000011000020D0
:105870004F75743200000000204F464600000000C3
:105880001200002031633263000000004E4F4E438F
:1058900000000000316F3263000000003163326F9E
:1058A00000000000316F326F0000000024FAFFFF9B
:1058B000205245530000000016000020472D6F4E77
:1058C00000000000434C6F5200000000522D6F4E4C
:1058D000000000004752454E0000000020524544A1
:1058E000000000001700002020624172000000004C
:1058F000556E697400000000204B674600000000F0
:10590000204B505200000000204D5052000000007B
:1059100020505349000000004D4D48470000000052
:10592000696E4847000000000E00002018000020AB
:10593000190000201A0000201B0000201C0000207D
:105940001D00002000E000BF00BF00BF00BF00E05E
:1059500000BF00BF10BD0000042806D10649096938
:1059600004221143044A116105E003490969042234
:105970009143014A1161704700E000E07047000068
:10598000344909680122120491438918314A11608F
:10599000002007E02F4909688903C90F002900D0BA
:1059A00004E0401C012109048842F3D300BF2949C7
:1059B00009688903C90F00294AD0274909681022BC
:1059C00091431031244A116011460968C908C90081
:1059D000491C11601F494968F02291431D4A5160DA
:1059E000114649680722120291431A4A5160114632
:1059F00049680322D2039143012212048918154AEF
:105A00005160114649680F22920491430122120508
:105A10008918104A51601146096801221206914303
:105A200089180C4A116000BF0A4909688901C90F29
:105A30000029F9D00749496889088900891C054A65
:105A4000516000BF034949680907890F0229F9D14C
:105A500070470000001002400020024010B5FFF720
:105A60008FFF10BD10B51D48006840084000401C65
:105A70001A490860084640681949084017494860B3
:105A8000084600681749084014490860084600683D
:105A900001218904884311490860084640683F2174
:105AA000090488430D494860084640680009000120
:105AB00048600846006BFF2154318843074908635A
:105AC0000846406B40084000486300208860FFF7AC
:105AD000C5FF0120C0060449886010BD00100240C7
