:020000040800F2
:10000000881500205D020008AD3E00084D3A00084A
:1000100000000000000000000000000000000000E0
:100020000000000000000000000000008542000801
:100030000000000000000000A9410008C5480008B9
:100040006F0200086F0200086F0200086F020008CC
:100050006F020008213400086F0200084D340008C8
:100060006F0200086F0200086F0200086F020008AC
:10007000EB2100086F0200086F020008F549000834
:100080006F0200086F02000800000000C549000868
:100090006F0200086F0200086F0200086F0200087C
:1000A0006F0200086F0200086F020008C74A0008CC
:1000B0006F020008000000006F02000800F002F864
:1000C00000F0BDF80CA030C8083824182D18A2463E
:1000D000671EAB4654465D46AC4201D100F0AFF816
:1000E0007E460F3E0FCCB6460126334200D0FB1AA7
:1000F000A246AB4633431847E055000000560000C7
:10010000103A02D378C878C1FAD8520701D330C860
:1001100030C101D504680C60704700000023002442
:1001200000250026103A01D378C1FBD8520700D32E
:1001300030C100D50B60704710B56E2902D100F0B8
:1001400047FE10BD702902D101F093F910BD662958
:1001500002D105F0E1F910BD652902D105F0DCF905
:1001600010BD672902D105F0D7F910BD612902D170
:1001700005F0DAF910BD03681B0A01D38023194387
:10018000692902D100F0C2F810BD642902D100F043
:10019000BDF810BD752902D100F0B8F810BD6F2967
:1001A00002D101F011F910BD782902D101F04EF908
:1001B00010BDE92902D101F0ADF810BDE42902D14A
:1001C00001F0A8F810BDF52902D101F0A3F810BD87
:1001D000EF2902D101F004F910BDF82902D101F094
:1001E00043F910BD0368DB0901D380231943632958
:1001F00002D101F0D2FB10BD732902D101F0D5FB71
:1002000010BDE32902D101F0DFFB10BDF32902D1BB
:1002100001F0E2FB10BD002010BD1FB501F0C0F9D8
:1002200004000020002105F005F8401C606000205B
:10023000002104F0E9FFE0601FBD10B510BD01F022
:100240002BFF1146FFF7E9FF04F056FF01F052FFC4
:1002500003B4FFF7F2FF03BC04F0FFFE074880473A
:1002600007480047FEE7FEE7FEE7FEE7FEE7FEE79A
:1002700004480549054A064B7047000059490008E3
:10028000BD00000888030020881500208805002094
:1002900088050020704700007CB51D4616460C00FE
:1002A000009001D00019401E084B7B442A46694645
:1002B0000190304600F0AFFF002C054603D06946A0
:1002C000002000F0BBFF28467CBD0000990F000015
:1002D0000FB47CB50C0009AA009001D00019401E93
:1002E000094B7B4469460190089800F094FF002C6C
:1002F000054603D06946002000F0A0FF28467CBCDC
:1003000008BC04B018470000610F0000F7B50025D5
:1003100075291068009914A611D000F0C6FC0028B9
:1003200002DA404211A608E0009909688A0701D55F
:100330000FA602E0490704D50EA6012501E000F052
:10034000BDFC009F0024243704E001F0D7F83031D1
:100350003955641C0028F8D12B46324621460098B6
:1003600000F0DEFCFEBD0000000000002D000000DB
:100370002B00000020000000F3B50446002081B0EF
:1003800020622046E1688847002872D0252802D0E4
:100390006268A168ABE0594F00267F442046E168BF
:1003A00088472028054608DB312D06D278192038E9
:1003B0000078002801D00643F0E7B00701D50420FB
:1003C00086430020E0610746A0612A2D0AD0284616
:1003D00004F03CFE002827D0B8000019303D009002
:1003E000856119E00298BA00121902C89161029061
:1003F0002046E1688847012F054617D1E0690028AB
:100400001FDA202086431CE000980A2180694843B7
:1004100000994019303888612046E16888470546D0
:1004200004F014FE0028EFD1012F0AD02E2D08D1A0
:100430002046E16888470546202006437F1C022F9E
:10044000C3DBA069002803DA4042A0610120064313
:10045000F00701D0102086436C2D0BD0682D09D0F9
:100460004C2D3CD06A2D38D0742D38D07A2D36D012
:1004700016E040E0E1682F4620468847B84205462E
:1004800009D16C2F29D001208002E1680643204663
:100490008847054604E06C2F1DD0FF20013006433D
:1004A000002D28D028464138192803D80120C00241
:1004B00006432035204626602946029A1646FFF755
:1004C0003BFE002810D001280BD0F61DF008C0001C
:1004D0000830029055E74020E1E78020D5E7002072
:1004E000D3E7361D02964CE762682846A16890471C
:1004F000206A401C44E7206AFEBD0000FA5100005B
:1005000070B5064600F0A6FB0468054630460A2290
:10051000002100F0BBFF2C6070BD000030B5441C12
:1005200003E00178401C00290DD08107F9D10B4B65
:10053000DD0104C8D11A91432940FAD0001B0A06F4
:1005400003D0C01E30BD001B30BD0A0401D0801E88
:1005500030BD0902FCD0401E30BD00000101010188
:1005600001E004C0091F0429FBD28B0701D50280DA
:10057000801CC90700D00270704700290BD0C30748
:1005800002D00270401C491E022904D3830702D501
:100590000280801C891EE3E70022EEE70022DFE7ED
:1005A000002203098B422CD3030A8B4211D3002370
:1005B0009C464EE003460B433CD4002243088B424A
:1005C00031D303098B421CD3030A8B4201D39446D7
:1005D0003FE0C3098B4201D3CB01C01A52418309CA
:1005E0008B4201D38B01C01A524143098B4201D384
:1005F0004B01C01A524103098B4201D30B01C01AAF
:100600005241C3088B4201D3CB00C01A5241830828
:100610008B4201D38B00C01A524143088B4201D355
:100620004B00C01A5241411A00D2014652411046B5
:1006300070475DE0CA0F00D04942031000D340422A
:10064000534000229C4603098B422DD3030A8B4260
:1006500012D3FC22890112BA030A8B420CD38901FE
:1006600092118B4208D3890192118B4204D38901E4
:100670003AD0921100E08909C3098B4201D3CB0122
:10068000C01A524183098B4201D38B01C01A5241D7
:1006900043098B4201D34B01C01A524103098B42DB
:1006A00001D30B01C01A5241C3088B4201D3CB00C6
:1006B000C01A524183088B4201D38B00C01A5241A9
:1006C000D9D243088B4201D34B00C01A5241411A80
:1006D00000D20146634652415B10104601D34042AE
:1006E000002B00D54942704763465B1000D340425F
:1006F00001B50020C046C04602BD70477047704734
:100700000246C80FC00781434B0030B54B405B0029
:100710009B0D20D01923DB06C91801231B05994224
:1007200020DB0324A40704251346AB400BD3002B86
:1007300004D1EB0613409B00E34204D40124640778
:10074000002312195941FF231B0599420BD2C900FE
:100750000143500F09E0CB0204D5014308030243D3
:1007600005D0054830BDFF21C905084330BD084606
:1007700007210905884330BD0000C07FF0B58B4CD0
:100780000F09254689B0BD437BD01D092646AE43DF
:10079000FAD00E465E402740F60F3E43254071D00A
:1007A00024012142FBD0FF24AD19A4042D1B039585
:1007B00001252D05DB02DB0AC9022B43C90A2943A7
:1007C0001E010901040F130F050121431701880BB6
:1007D000820391432D098C46A90B1E438A0395433E
:1007E000B30B9A0396433F09BA0B9403A7430296AF
:1007F0002E467E430497B6464E19D7190C460196ED
:10080000544305977E43371B7646BF1B3601B646D9
:10081000BE0B361900967646BC043719009C01D3EE
:10082000641C00946400002F01D001263443029E12
:10083000049F754366467E430496760034196E0025
:1008400034190094029C019E1C196643751BAE4628
:10085000069465464519059C05956C4359437546B4
:100860000891691A0191049E01465143A41B049109
:10087000611A009C0791E10605D06109012211432C
:1008800002E072E06EE06109089D00272C0A2D0647
:100890006918049D7C412A0A2D066918019D624150
:1008A000AC0DAD026D185441079A910D9202551985
:1008B0006141029A644658435443069B059A5A4341
:1008C000121A131B9A0E9B015B187A41010B00054B
:1008D000C3185141220A200644195A419A4200D2B3
:1008E000491C01204002814203D315230226F6430E
:1008F00002E014230326F6432020C51AA940174618
:10090000AF40DA400A4320460399D84009147318CF
:1009100019055118039A3843D2075140AC4009D009
:100920000122944006D30022401C5141002C01D1E9
:10093000400840001E4A934212D3012203989206B7
:10094000904207DB0520400709181A480143C012EE
:10095000414004E0032040070818C10FC9070020E8
:1009600009B0F0BD0020F107FAE705180C464C412C
:1009700011486D42A04115D394181A465A410E48A9
:10098000644290410ED301204A004005824209D3BF
:100990005A00824206D35940C90F084AC9070020AD
:1009A0001143DDE700200649DAE700000000FF07F9
:1009B000FE070000FFFFFF7F0000E0FF0000F07F68
:1009C0000000F87F0121C9050123411842001B06E0
:1009D000D3185B0E0AD0C1100722D206891840072F
:1009E0005242D14201D5520089187047090208D5F8
:1009F0000146002A03D0C10FC907002070471046E6
:100A00007047420202D000200249704707210905C1
:100A10000143F4E70000F87FF0B5FF252D04C60977
:100A2000C209FF2704462E400137CB093E43484008
:100A30002A402B400746002A6BD0002B69D0AA42DF
:100A400067D0AB4265D0002800DA32460125ED05BB
:100A500029432C4309022002090AD21A4B0C7F2495
:100A6000E31A434C000A7C44E35C7D2424041219FD
:100A700014145B00A218884201D3521C00E040000D
:100A800049420C465C4324115C43DB016415E318C6
:100A9000040A5C43C502200D0C4644436419250A30
:100AA0005D432303EC0C0D46654300030019EB186E
:100AB0004C42A34201D35B18401CD4052018002BE4
:100AC00007D05B00C91804D3401C002901D140089D
:100AD00040003F2189048A4209D3002A08DC11061C
:100AE000090F04D0032149074018C00FC007F0BD0B
:100AF00001224100120689187F2252069142F6D245
:100B000005214907C84201D59010F0BDFF20C0055E
:100B1000F0BD002F00DA32461648AA4207D2AB4297
:100B200005D21902090E17D0F80FC007F0BDFF2536
:100B300063002D06AB42F9D84900A942F6D8AB4272
:100B400001D1A942F2D0A94201D1002101E0610006
:100B50004908D0050843F0BD1102090EFBD0FF2063
:100B60000243D005F0BD0A460146104654E7000096
:100B70003F4B00000000C07F10B501469E240002DC
:100B8000CA15A307002A02D01843002A04DBA21AC0
:100B9000002A0CDDD04010BD1206120E01D140001B
:100BA0004008A21A03D4D04040420028F3DDFF22BF
:100BB00048001206904201D9002010BDC817C0435A
:100BC000584010BD0102C21504D00123DB071943B0
:100BD000002A0ADB9E239A1A02D40846D0407047A6
:100BE000FF2241001206914201D900207047C01730
:100BF000C04370471F22030C02D10F2200041CD0F7
:100C0000030E01D10002083A030F01D10001121FA7
:100C1000830F01D18000921E002801DB4000521E8C
:100C2000D2055118021251181922904004D3491CC0
:100C3000002801D14908490008467047C10FC9077B
:100C400000D04042012292071143D3E701218907D6
:100C5000D0E77047004870472403002070B5044671
:100C600085690068C10601D5302600E02026C0074E
:100C700007D070BD62683046A1689047206A401C6A
:100C800020626D1EF6D570BD70B50446856900788A
:100C9000C00707D170BD6268A16820209047206A14
:100CA000401C20626D1EF6D570BD09684A0501D54D
:100CB00040B27047C905FCD500B2704709684A05C3
:100CC00001D5C0B27047C905FCD580B2704770B578
:100CD0000C460546012A05D02878800600D5EA6929
:100CE000002302E0012305E05B1C934202D2E05C9A
:100CF0000028F9D1A869E618C01AA861286AC018A6
:100D000028622846FFF7AAFF04E06A682078A968ED
:100D1000641C9047B442F8D32846FFF7B5FF70BD76
:100D2000FFB504460D4681B0243000902168880646
:100D300004D51022E0699143216000E00120A8421F
:100D400001DD471B00E000270498A1697A191018FB
:100D5000081AA0612078C00602D42046FFF77EFF63
:100D6000002608E003986268A168805D9047206AC9
:100D7000401C761C206204988642F3DB2078C00673
:100D80000AD52046FFF76AFF06E06268A1683020B6
:100D90009047206A401C206238467F1E0028F4DC01
:100DA00007E000986268A168405D9047206A401C97
:100DB000206228466D1E0028F3DC2046FFF764FF02
:100DC0002078000602D5022005B0F0BD0120FBE727
:100DD00011680268006A530501D5087009E0D3055F
:100DE00001D5088005E0130602D5C21705C100E051
:100DF00008600120704700007047FFB50C461E4692
:100E00008FB003CA089009914F007D0D00D16D1E6F
:100E1000002108460020C0460321099A89050840A0
:100E2000002A03DA8200801840080840800D01285B
:100E30000A9002DD0020C0430A90089807430DD0B5
:100E4000EF48F049281848430714189800281DD087
:100E50007542291E1DDD0A9842421BE018980128A0
:100E600002D00020302104E00020F24305E02154AC
:100E7000401CB042FBDB30460022189B002121546D
:100E80000F998B600A60486013B0F0BDBD1B6D1CEC
:100E9000DFE70A9A002900DA69420BA800F0F4FDA6
:100EA0000BAB07CB03AB07C30899099800F050FEC2
:100EB0006B4607C30146D4480918002D00910ADD8E
:100EC000D14903980A9A4942401803A903906846F9
:100ED00001F071F807E003990A9A081803A9039032
:100EE000684601F030F86B4607C30004000C03D0DD
:100EF0000020C043410800E01046189A002A03D0A1
:100F00000022009215461EE0751E05D400F04CFB31
:100F1000303262556D1EF9D501220843079602D082
:100F200000227F1C04E02078302801D100227F1E9F
:100F3000002A069789D01EE0112D07DA00F034FB55
:100F4000303262556D1C02460A43F5D1084303D086
:100F50000098002819D00EE00021681E05E0235CEF
:100F6000625C63542254401E491C8142F7DBA81B7B
:100F7000401E07950690079A18990020A0540F98D4
:100F8000079B069A81600CC07EE71126002018900E
:100F90005BE7D21DF0B50D460446D10893B0C900F9
:100FA00003C90C900D9104F03BF802460D98C00F58
:100FB00001D02D2007E02068810701D52B2002E019
:100FC0004007C00F4001032A0F9001D0072A05DB1C
:100FD00003462946204600F091FC0EE12078800669
:100FE00001D5E76900E006272846652D04D066286C
:100FF00014D0672D69D12DE00020112F009001DB66
:10100000112300E07B1C0CAA03A910A8FFF7F5FE32
:101010001199002610987D1C0E9142E001203B465C
:101020000CAAC0070B900120009003A910A8FFF79D
:10103000E4FE119D12981099002600280E9501D10A
:10104000781C0D18781B02D446427D1C761EE81BC6
:1010500000903AE0012F00DA01270020112F0090C4
:1010600001DD112300E03B460CAA03A910A8FFF7FD
:10107000C4FE11993D46109800260E91217809076B
:101080000BD40E99A94200DA0D4603A9012D04DD07
:101090004A19203AD27F302A06D0B84201DA011D1F
:1010A00004DA012100910FE06D1EEFE7002802DC59
:1010B00086192D1A03E0411CA94200DD0D46801B54
:1010C000401C00900120C0070B902078000705D439
:1010D0000098A84202DB0020C0430090694600202F
:1010E000C8720B98012102AF0337C907884225D087
:1010F000022010902B2011900B9800280BDA404210
:101100000B902D20119006E00B9800F0F7F930318C
:101110007F1E0B9039701099481E00291090F3DC47
:101120000B980028F0D111987F1E38702088000598
:1011300001D5452000E065207F1E387001A8C01B46
:10114000C01D0B900F98002800D001204119009875
:10115000C01709180B980818A169081A401EA06149
:101160002078C00602D42046FFF778FD0F980028AB
:1011700005D06268A1689047206A401C20622078F0
:10118000C00625D52046FFF769FD21E0002E07DBCC
:101190000E98B04204DD03A86268805DA16802E099
:1011A0006268A16830209047206A761C401C20624B
:1011B0000098401E002800900AD100F0F1F9C068A4
:1011C00062680168405CA1689047206A401C206208
:1011D00028466D1E0028D9DC07E062683878A168CF
:1011E0007F1C9047206A401C20620B99481E0029F2
:1011F0000B90F2DC2046FFF747FD032044E6000099
:1012000001FCFFFF104D0000E1DFFFFF01694A1CF8
:1012100002610878704700B58FB0029100210591F6
:101220000549019379440391114604906846FFF7FC
:10123000A3F80FB000BD0000E5FFFFFF0A681070C3
:10124000521C0A6070470CC908399A4202D2531CDA
:101250000B60107070470000F7B50446154686B065
:101260002B487844002703C83E460090019111E0C6
:1012700007986A467100415A02A800F0CDFE411C51
:1012800007D02178890603D5E269391891420ED832
:101290003F18761C2078800602D5E069B84206DD4A
:1012A000AE42E5DB07987100405A0028E0D1A06902
:1012B000C01BA0612046FFF7D1FC154878445A387E
:1012C00003C800900020019116E041006A4607988B
:1012D000415A02A800F0A0FE0590401C0AD000254B
:1012E00005E0626802A8A168405D90476D1C059802
:1012F0008542F6D30498401CB0420490E5DB206A96
:10130000C01920622046FFF7BFFC09B0F0BD000005
:1013100086430000F7B5D21D0025D20815A6D200DD
:10132000F52905CA11D0002A05DA00214042914171
:1013300011A60A4608E0009909688B0701D50FA697
:1013400002E0490701D50EA601251146009F0024A1
:10135000243704E000F028F930323A55641C024684
:101360000A43F7D12B46324621460098FFF7D8FCB6
:10137000FEBD0000000000002D0000002B0000005A
:101380002000000070B504460021243408E0550711
:10139000D2086D0F303565545D072A43DB08491CC0
:1013A00015461D43F3D10468002310A2250708D574
:1013B000A40601D4002904D0C46901230CA2641E30
:1013C000C461FFF7ADFC70BD10B50446214610683E
:1013D000FFF774FC002302462046FFF7D3FF10BD41
:1013E000D21DD108C9000CC9CCE7000000000000E4
:1013F00030000000F8B50F460188090502D5224CDF
:101400007C4402E0204C7C440E3405460021243507
:1014100008E016071209360FA65D6E541E07324308
:101420001B09491C16461E43F3D1224604780023AB
:10143000240705D5702F06D0002901D002231132D0
:10144000FFF76EFCF8BD01231032F9E770B50446D2
:101450000D4621461068FFF731FC0023024629465D
:101460002046FFF7C7FF70BDD21DD308DB000CCBB1
:10147000C0E730B4036820241268234303600823C4
:10148000C36130BC0023B5E7F0410000F7B50F465B
:101490000026009C2578641C002D05D000F078F80B
:1014A0000068405DC007F5D12B2D02D02D2D18D03E
:1014B000641E3946029A204600F092FA002F04D0AA
:1014C0003968A14201D100993960710502240029CF
:1014D0000BDA4042002803DDFFF7BCFB0460A007E5
:1014E000FEBD012080020643E3E70028F8DAFFF79B
:1014F000B1FB04600048FEBDFFFFFF7F014680088E
:10150000081A02091018020A1018020C1018C00854
:10151000820012185200891A01E0401C0A390A2977
:10152000FBD2704710B5FF231B0644009C421DD818
:101530004C009C421AD80346124A0B4307D4401A67
:1015400002D3EFF3008010BDEFF3008010BD081A46
:1015500006D2EFF3008001219043C907084302E05F
:10156000EFF30080904380F3008810BD0D231B042F
:101570001A4204D01146002000F06EFD10BD00F0AC
:1015800083FD10BD00000090004870472403002038
:1015900010B500F005F8001D10BD00BF993C00001B
:1015A00000487047440300200B4670B50246890787
:1015B0008008084319469D08141AA94125090807FF
:1015C000054308092C194841250A01060D43010A63
:1015D0002C194141200C0D0428430D0C00194D41DC
:1015E000002140194D41C00869070843E908840FEC
:1015F0008D002543840024184D4124196D41121B90
:10160000AB4107E00925ED432C1152196341002439
:10161000401C61411C460A250026551BB441F1D2ED
:1016200070BD0000D21DF0B504460D46D0088DB047
:10163000C000466807683146384603F0F1FC0246B0
:10164000F00F01D02D2307E02068810701D52B235F
:1016500002E04007C00F43016846002B037001D031
:10166000012000E00020032A0A9001D0072A04DBB1
:101670002946204600F042F92DE12078800601D469
:101680000D2500E0E5697000400D0D2D01904BDA4D
:10169000300D00210B9008460020C046032189052B
:1016A0000840002E05DA82008018C20F1018401082
:1016B00008408015012801DD0020C043A900002357
:1016C000182906D39C460A460123183A1B07D34023
:1016D00003E001221205CA4094460C31202902D3AE
:1016E0003A46203900E032468A40002802DD002ACE
:1016F00006D119E0002817D10121C9078A4213D366
:10170000194663467F185E41002806D10120C007B4
:10171000824202D1084687439E430B98310D814295
:1017200002D00198401C01902088000502D5714923
:10173000794402E06F49794419396B460A9830229E
:101740001A540A980A7C401C1A54401C0A900198AA
:10175000002801DC302000E031201872019A0120BD
:10176000002A02D0644BD21804E072003A4302D03F
:10177000614A521C0192002D02DC2278120703D527
:101780006A462E20507202200022864694460CE0C3
:1017900032033601120F6D1E8B5C02AA135462468F
:1017A000521C401C9446052A01DA002DF0DC002270
:1017B00002AE08E03B0F3F01CB5C521C6D1E335460
:1017C000401C082A01DA002DF4DC23689A0601D5B2
:1017D00011E0401E704504DD3218203AD27F302AD5
:1017E000F7D0002807DD3218203AD27F2E2A02D106
:1017F0001A0700D4401E002D03DD3E223254401C47
:101800006D1E497C31540199401C002906DA2D21B6
:10181000471C315401984042019003E02B21471CA2
:10182000315401987D21C900884206DBFEF7C2FED3
:101830003030F0557F1C019101E0642808DB0198ED
:101840006421FEF7B7FE3030F0557F1C019101E0B6
:101850000A2806DB01980A21FEF7ACFE3030F0556D
:101860007F1C01980A21FEF7A5FE3031F1550A9838
:10187000A1697F1C7A191018081AA0612078C00687
:1018800002D42046FFF7EAF9216A6E460A98081842
:10189000206204E062683078A168761C90470A985C
:1018A000401E0A90401CF5D12078C00602D5204683
:1018B000FFF7D4F902AE09E03078761C3E280DD04F
:1018C0006268A1689047206A401C20627F1EF3D2A4
:1018D0002046FFF7D9F90DB00320F0BD206A40196A
:1018E000206203E06268A168302090476D1EEDD34E
:1018F000F8E70000FB3E000001FCFFFFF8B51F46C3
:10190000044601230068DB02032601461840072A2B
:1019100005DB002801D017A506E017A504E0002884
:1019200001D016A500E016A5102081432160A06912
:10193000C01E002FA06101D0401EA0612046FFF70D
:101940008DF9002F09D038466268A1689047206A57
:10195000401C2062C01C206206E0206AFAE7626830
:101960002878A1686D1C9047761EF8D22046FFF7B4
:101970008BF9F8BD4E414E006E616E00494E460037
:10198000696E660010B54369002B02D0C046C046A0
:1019900001E0FFF79CF9012010BD127801462431C7
:1019A0000A7000224A700122ECE711680022D2433B
:1019B000E8E710B54369002B02D0C046C04601E0FD
:1019C000FFF74AFC012010BD1288014624318284B1
:1019D0000022C2840122ECE711680022D243E8E72A
:1019E000F7B5154682B00027029C2078641C019749
:1019F000302802D0002D15D015E020780127641C76
:101A0000782804D0582802D0002D09D00BE0002DF2
:101A100001D0102D07D1207800271025641C02E08A
:101A2000082500E00A250026009610E0009901270D
:101A30006943081829467143020C80B200908E1841
:101A40003804864201D3012001902078641C294685
:101A500000F041FB0028E9DA0398002805D0002FA8
:101A600001D0641E00E0029C04600198002806D0AA
:101A7000FFF7F0F802210160C81E05B0F0BD009923
:101A800030040843F9E70000F7B516468AB02F483E
:101A900078446C4603467C33C06F5A689B680DC41B
:101AA0002A487844763003AC0DC80DC43720C001F5
:101AB000081837211B30FEF77DFD05460C46803D9A
:101AC0001B3C02D56442012000E000200027099061
:101AD0000FE0E0070BD00C201C49784379443246D4
:101AE0004C394118684600F02EFA6B4607C3641063
:101AF0007F1C002CEDD1154F7F442C3F15E0E807EB
:101B000011D02001C0190EC80691089307920068F1
:101B1000F04201D198190890324606A903A800F0B6
:101B200012FA03AB07C36D10641C002DE7D13246D7
:101B300069460998002803A802D000F03CFA01E0A9
:101B400000F001FA0A9B07C30DB0F0BDB03B0000E6
:101B5000034640000A4610B5400D0BD00121C907CD
:101B60000F24A40200191C0364082143540D2143CF
:101B7000D20207E000210120F2E7D40F49002143FF
:101B80005200401E0029F8DADB0FDB07184310BDB6
:101B9000FFB50D46144685B04868516803F01AFA3F
:101BA00000910190A868A16803F014FA02910390D3
:101BB000A868616803F00EFA029A12188242029233
:101BC00001D2012000E00020019A0B18D218002851
:101BD000019202D08A4202D903E08A4201D2012056
:101BE00000E000200099081800906868A16803F0E0
:101BF000F1F9029A12188242029201D2012000E009
:101C00000020019A0B18D2180028019202D08A42B3
:101C100002D903E08A4201D2012000E000200099AD
:101C200008180090286821684000490040084908C9
:101C30004018F549471814E001994000C90F0843BE
:101C40000090019802994000C90F08430190029842
:101C500003994000C90F08430290039840007F1E7B
:101C6000039000980028E7DA0898002801D0E74E92
:101C700000E00026B74228DAF71BF806C00E15D0A0
:101C8000029B2021091A039A8B401A430392029A5D
:101C9000019BC2408B401A430292019A009BC240B2
:101CA0008B4000991A430192C14000917A110BD0E8
:101CB0006B460320811A01D5002101E089005958A3
:101CC0008700401ED951F5D5374603980299002860
:101CD00000D00120014308980291002808460CD04A
:101CE000002800D001200199019A490508430121EB
:101CF000D20AC902D202019200E001210E9B012208
:101D0000D207012B02D0002B03D013E0002807D10B
:101D100016E0904204D890420CD1019B0B4209D0AE
:101D2000019B5918019105D10099491C009101D1DD
:101D30007F1C0092002803D0102108460020C046D6
:101D400028682168019B009A4840C10F0598C9077F
:101D500039430EC009B0F0BDFFB587B0099A0898A5
:101D600008995368926840688968964600220393F0
:101D700017469446089A12685300099A5B0812683D
:101D8000520052089A1AA24BD4180A9A002A01D07B
:101D9000352200E0402206920022012315460492DB
:101DA000DB07059324E0002D05D175460346039E0D
:101DB0004D1BB34109D375466646039B491B049DE1
:101DC0009841059B7519AC465F4163463B4308D07B
:101DD000059B049EDD0776082E435B080496059359
:101DE00001E0521E641EC50FED0749184041521C08
:101DF000069B9A42D7DB002D04D17546039A6B1AD5
:101E0000824101D203200CE0039A0B466B40424012
:101E1000134303D0014303D0012002E0022000E07D
:101E20000020614601910021009702910A99002942
:101E300005D0614640020143744B019102E08007E6
:101E4000002302909C423ADA1A1BD006C00E15D02D
:101E5000029D2021019C091AC5408C402543029C0B
:101E60008C4000D001242543019C02953D46C4408E
:101E70008D4039462C43C1400194009154111DD02E
:101E80006D460221002202290CD10320001B07E02D
:101E9000002804DB8600AE59002E00D00122401C31
:101EA0000328F5DB081B02D588002A5004E08000D7
:101EB000285810438A00A850491EE3D51C460A98AA
:101EC000002802980CD0002800D001200199019A26
:101ED000490508430121D20AC902D202019200E059
:101EE0000121109B0122D207012B02D0002B03D02D
:101EF00013E0002807D116E0904204D890420CD19C
:101F0000019B0B4209D0019B5918019105D1009901
:101F1000491C009101D1641C0092002803D01021BB
:101F200008460020C04608980999019A0068096887
:101F300048400099C30F0798DB0723430360826082
:101F400041600BB0F0BD1FB5002300920A46014668
:101F500001A8FFF71DFE01AB07CB04B010BDF0B523
:101F600085B0012300920A46014601A8FFF710FE42
:101F700001990F2202989202CF0F4900039E49084F
:101F80008C1AFF070021002800DB0C464500214881
:101F90006D08844206D30D460E46044610210846BD
:101FA0000020C0462005E90A084369053843F20AC3
:101FB00005B01143F0BD1FB5002300920A4601464B
:101FC00001A8FFF7C9FE01AB07CBC6E71FB5012388
:101FD00000920A46014601A8FFF7BEFE01AB0F249E
:101FE00007CBA402C30F4000DB074008001B0029F9
:101FF00000DB0020490000054908CC0A20434905C0
:102000001843D20A1143A8E702C0FFFF013C0000B9
:10201000FF3F0000FF07000070B516460C4605465E
:10202000FFF7B6FA0368FF200230C05C012807D032
:10203000FF2C0ED8185D00280BD001202C7070BD2D
:10204000FF333246214608331868C318284698479C
:1020500070BD0020C04370BDC80212D54803400FB8
:10206000002804D0C803C043012188407047EFF323
:1020700000800001000903210907084380F300885C
:10208000704700207047000010B5024800F07EF84D
:1020900010BD00000000C07F7546FFF775FAAE4620
:1020A000050069465346C008C000854618B020B5F3
:1020B000FEF7DEF860BC00274908B6460026C0C51A
:1020C000C0C5C0C5C0C5C0C5C0C5C0C5C0C5403DF0
:1020D00049008D4670473A2800D230382023024606
:1020E0009A43412A01D310463738884201D3002051
:1020F000C043704710B50446C046C0462046FEF7B0
:10210000A7F810BD024670B50A4392072AD11E4DAA
:10211000EE0104C808C9541B9443344017D0D0B210
:10212000D9B2401A2106014310D190B299B2401A97
:10213000210401430AD110021902000A090A401AB7
:102140002102014302D1100E190E401A70BD9A42AD
:10215000DFD010BA19BA884201D9012070BD002021
:10216000C04370BD02780B78401C491C002A09D07E
:102170009A4207D102780B78401C491C002A01D0F2
:102180009A42EFD0D01A70BD0101010110B50C4682
:102190001107090F092904D00A290AD008290CD1EE
:1021A00004E011460820FFF757FF06E0510606D568
:1021B00001E0510601D50120C007214610BDD1061E
:1021C00007D501010909CC084907000E00060443A0
:1021D00009E0410F20024907000A0143200E0006D2
:1021E0001D22D14101430846E7E710B500F060F831
:1021F00010BD000001490860704700000024014044
:102200001949CA6818239A4303789B07DB0E1A43BF
:10221000CA60CA6820239A434378DB079B0E1A439F
:10222000CA60CA6804239A438378DB075B0F1A43AA
:10223000CA60CA684B149A43C378DB079B0C1A43E5
:10224000CA60CA6803239B029A4343799B071B0D0C
:102250001A43CA60CA68FF230079C13340079A4312
:10226000C00D0243CA60704700240140034A936ACC
:102270000343936250690843506170470024014052
:102280000021017041708170C1700171417170470E
:102290000248816801221143816070470024014097
:1022A00002494A6802434A60704700000024014026
:1022B00070B5082000F04CF8012820D10820FFF765
:1022C00099FF00F03FF80E4C0E4DA064627AE66C68
:1022D00051006B5A6852F31A1D186421501CE564B2
:1022E000FEF75EF9617264212846FEF759F980B263
:1022F0000549206448430549FEF752F9606470BD02
:102300000C000020DC000020E40C0000FF0F0000A7
:102310000B4B002099685A05114399600F22120354
:102320009968401CC90F904201D00029F8D19868E3
:10233000002803DB024840300068704700207047E7
:10234000002401400148006880B2704740240140E9
:1023500006494A68096802400140002A03D0002962
:1023600001D0012070470020704700000024014088
:1023700010B501246402204601F046FF204601F01A
:1023800023FF10BD02488168042211438160704719
:102390000024014010B50420C04302F087FA07482A
:1023A00005490068FEF7FCF805497D22086080B207
:1023B000D2005043486010BD00127A000000002097
:1023C0000400002001B50B490098496848430A49B8
:1023D000486100238B610869012210430861086984
:1023E000C20701D0C003FAD508694008400008615F
:1023F0008B6108BD0400002000E000E001B50B493E
:102400000098096848430A49486100238B610869BC
:102410000122104308610869C20701D0C003FAD540
:1024200008694008400008618B6108BD0400002075
:1024300000E000E0F8B506460B0002F0E3FD351CB5
:102440001E2225282C2F3234363A3D4145487B4800
:102450004B835153538C8F585A1C5E6062282C65F5
:10246000677236743D4176787B7E81838689538C92
:102470008F585A926A00032260E00D2202250D2433
:1024800047E00B22002504E00C220325F7E70B228E
:1024900002E001243DE003220625FAE70B22042591
:1024A0001CE003222EE003225CE00A221BE00C2445
:1024B0002FE003220A2518E00B2253E0002428E035
:1024C000032201250E2424E003220925EFE70B2235
:1024D0000025D4E703220E2505241AE0092418E07C
:1024E00008220FE00B220025E1E7022411E0092277
:1024F00008E00C22002503240BE00B2218E00A223E
:1025000024E00A220625D2E7092217E003220FE081
:102510000824330002F076FD08282C3034383C4083
:102520004447002215E0032210E0022200E00A22C4
:102530000625EDE703220625CEE7012206259EE7C4
:10254000022203E009220625C8E70B220625B5E78B
:102550000A220025DCE707220825A8E7042209252E
:10256000C3E700220025A9E71421132712261AE049
:10257000112110270F2616E00E210D270C2612E040
:102580000B210A2709260EE00621072708260AE064
:1025900003210427052606E000210127022602E088
:1025A000172118271926052001F098F82A463946E0
:1025B000052001F093F822463146052001F08EF8FF
:1025C000F8BDF8B500240E46074604252046002F26
:1025D0000FD1002C06D0012C06D0022C06D0032CE3
:1025E00006D006E0072004E0062002E0052000E017
:1025F0000420315D0A46613A192A02D92032192A8B
:102600006FD841390B0002F0FDFC3A6D707376799A
:102610007C7F8285888B8E9194979A9DA0A3A6A992
:10262000ACAFB2B5B8F2F2F2F2F2F21E2124272AD0
:102630002D303336393C3F4245484B4E5154575A62
:102640005D60636669F2C0B21A2198E0C0B21B21D6
:1026500095E0C0B21C2192E0C0B21D218FE0C0B253
:102660001E218CE0C0B21F2189E0C0B2202186E08B
:10267000C0B2212183E0C0B2222180E0C0B2232178
:102680007DE0C0B224217AE0C0B2252177E0C0B25B
:10269000262174E0C0B2272171E0C0B228216EE08B
:1026A000C0B229216BE0C0B22A2168E0C0B22B2160
:1026B00065E0C0B22C2162E0C0B22D215FE0C0B263
:1026C0002E215CE0C0B22F2159E0C0B2302156E08B
:1026D000C0B2312153E0C0B2322150E0C0B2332148
:1026E0004DE04FE0C0B2002149E0C0B2012146E018
:1026F000C0B2022143E0C0B2032140E0C0B20421D5
:102700003DE0C0B205213AE0C0B2062137E0C0B2D8
:10271000072134E0C0B2082131E0C0B209212EE027
:10272000C0B20A212BE0C0B20B2128E0C0B20C21BC
:1027300025E0C0B20D2122E0C0B20E211FE0C0B2E0
:102740000F211CE0C0B2102119E0C0B2112116E027
:10275000C0B2122113E0C0B2132110E0C0B21421A4
:102760000DE0C0B215210AE0C0B2162107E0C0B2E8
:10277000172104E0C0B2182101E0C0B21921FFF70F
:1027800059FE34E00A46303A092A26D8130002F0EE
:1027900039FC0A06090C0F1215181B1E212EC0B297
:1027A000002122E0C0B201211FE0C0B202211CE0E2
:1027B000C0B2032119E0C0B2042116E0C0B2052165
:1027C00013E0C0B2062110E0C0B207210DE0C0B294
:1027D00008210AE0C0B2092107E02D290CD07C298C
:1027E0000AD02F2908D0C0B20A2100F0ADFB641C2A
:1027F000AC4200DAEAE6F8BD2D2908D02F2909D02D
:102800007C29F4D1C0B2022100F031FCEFE7C0B264
:102810000121F9E7C0B20021F6E70000F1220549E5
:10282000002803D0487910404871704788791040DB
:102830008871704714020020F3B587B00D46084632
:10284000FDF76CFE024614286ADA0027009701970C
:1028500002970397049738463B463C46394605970E
:1028600004E06E5C2E2E00D10C46491C9142F8DB30
:10287000944214DA0022694604E0AE5C401C8E5497
:10288000C0B2521CA242F8DB0F5403A902E0C854A4
:102890005B1CDBB2641C285D0028F8D1CF5468466D
:1028A000FDF72EFE05466846FDF738FE044603A8F0
:1028B000FDF726FE064603A8FDF730FE079900291E
:1028C0007ED003282ED002284AD0012879D00028B3
:1028D00026D17D21C9002846FDF76CFE0A21FDF7AF
:1028E00069FEC9B2002000F02FFB64212846FDF7E5
:1028F00061FE0A21FDF75EFEC9B2012000F024FB53
:102900000A212846FDF756FE0C460A21FDF752FE25
:10291000C9B2022000F018FBE1B2032000F014FB62
:1029200009B0F0BD002D19D00A212846FDF742FE5E
:10293000C9B2002000F008FB0821012000F068FB6C
:1029400064213046FDF736FE0A21FDF733FEC9B299
:10295000012000F0F9FA0A213046D3E70A21E8E71E
:10296000012C02D0022C0AD01BE0002D05D00A2138
:102970002846FDF71FFEC9B210E00A210EE0002D27
:1029800024D00A212846FDF715FE0C460A21FDF742
:1029900011FEC9B2002000F0D7FAE1B2012000F028
:1029A000D3FA0A213046FDF705FE0C460A21FDF751
:1029B00001FEC9B2022000F0C7FAE1B2032001E033
:1029C0003EE008E000F0C0FA042135E00A210020D2
:1029D00000F0BAFAD1E7032C04D0022C0DD0012C60
:1029E00019D020E064212846FDF7E4FD0A21FDF717
:1029F000E1FDC9B2002000F0A7FA0A212846FDF740
:102A0000D9FD0C460A21FDF7D5FDC9B2012000F021
:102A10009BFAE1B204E00A212846FDF7CBFDC9B2DA
:102A2000022000F091FA0A213046FDF7C3FDC9B239
:102A3000032000F089FA0221012000F0E9FA6FE793
:102A400003281FD002283BD0012874D00028F6D1DB
:102A500064212846FDF7AEFD0A21FDF7ABFDC9B2A2
:102A6000062000F071FA0A212846FDF7A3FD0C4666
:102A70000A21FDF79FFDC9B2052000F065FAE1B219
:102A800004204BE7002D19D00A212846FDF792FDBE
:102A9000C9B2072000F058FA0821002000F0B8FA67
:102AA00064213046FDF786FD0A21FDF783FDC9B29A
:102AB000062000F049FA0A213046D6E70A21E8E765
:102AC000012C02D0022C0BD01CE0002D06D00A21D4
:102AD0002846FDF76FFDC9B2062011E00A21FBE789
:102AE000002D21D00A212846FDF764FD0C460A215D
:102AF000FDF760FDC9B2002000F026FAE1B2012026
:102B000000F022FA0A213046FDF754FD0C460A2156
:102B1000FDF750FDC9B2052000F016FAE1B204201D
:102B200000F012FA042137E00A21002000F00CFA2C
:102B30000A21E4E7FFE7032C04D0022C0DD0012C7E
:102B400019D020E064212846FDF734FD0A21FDF765
:102B500031FDC9B2072000F0F7F90A212846FDF738
:102B600029FD0C460A21FDF725FDC9B2062000F01B
:102B7000EBF9E1B204E00A212846FDF71BFDC9B2DA
:102B8000052000F0E1F90A213046FDF713FDC9B236
:102B9000042000F0D9F9022100204EE710B500F022
:102BA00041FD10BDF7B590B00D460446202102A8A6
:102BB000FDF7F4FC680040080A901298002702AE66
:102BC000002806D001280BD0022850D0032818D1A5
:102BD00054E02846FDF7F6FECDA20191009005E0F5
:102BE0002846FDF7EFFECCA2019100901E2102A81D
:102BF000FDF76EFB31182039CF77002877DB1E28D0
:102C000075D20122D205A91A0F91C549C54B691881
:102C10000E911298E918C44F0D91E9190C916900B1
:102C200049088A1A0B92BE4ACF198A180192CA180B
:102C30000092002829D001286FD002286ED00328E6
:102C400055D1FF20C005C54269D2B848854267DB2F
:102C5000B7490F98884263D335200E99C00481424A
:102C6000F9D3D9210D9849048842F4D3CBE0284602
:102C7000FDF7A8FEAFA201910090B7E72846FDF747
:102C8000A1FEAEA201910090B0E7FF20C005C542B1
:102C90002ED2A648854203DBA5480F9981420FD268
:102CA00002A92046FFF7C8FD002C04D00A2100200D
:102CB00000F04AF92AE00A21072000F045F934E043
:102CC00035210E98C90488427CD3D9200D9940043F
:102CD000814202D20A21002006E025210C988903B6
:102CE00088425DD20A21072000F02EF990E057E0DB
:102CF00094490A9888421FDA711C2046FFF79CFD10
:102D0000002C0ED00121002000F0B1F90A21012091
:102D100000F01AF90A21022096E05AE0AEE0E1E064
:102D200064E00121072000F0A2F90A21062000F04A
:102D30000BF90A21052087E07D490B98884217D2BC
:102D4000711C2046FFF778FD002C08D00A210120D5
:102D500000F0FAF80121002000F089F9DAE70A21F1
:102D6000062000F0F1F80121072000F080F9E0E7EB
:102D700035210198C904884279D2711C2046FFF799
:102D80005BFD002C71D177E0B11C2046FFF754FDAC
:102D9000002C15D11BE0002000E0072000F067F9AF
:102DA00013B0F0BD252080038742F9D8B11C20461E
:102DB000FFF742FD002C06D00021012000F0C4F8EE
:102DC0000421E8E710E00021062000F0BDF804210E
:102DD000E3E7FF20C005C5421FD25448854203DB0C
:102DE00053480F99814258D202A961E002A97EE0BE
:102DF0000A21002028E00A21072025E0D9210D988A
:102E00004904884204D325210C9889038842C7D2FB
:102E100002A92046FFF710FDC2E744490A988842FC
:102E200015DA711C2046FFF707FD002C06D00121A2
:102E3000002000F089F80A21012005E00121072087
:102E400000F082F80A21062000F07EF8A8E7384951
:102E50000B9888428CD2711C2046FFF7EDFC002CA9
:102E600006D00A21012000F06FF8012193E74AE023
:102E70000A21062000F068F801218EE702A9204609
:102E8000FFF7DAFCFF20C005C5420CD22748854277
:102E9000AADB27480F998142A8D335210E98C9048F
:102EA0008842ABD2A2E727490A98884209DA711C06
:102EB0002046FFF7C1FC002C01D00A21B8E70A2107
:102EC000BDE71B490B98884200D256E7352101988F
:102ED000C9048842F9D3D92100984904884200D313
:102EE00060E751E717490A98884207DA711C2046C3
:102EF000FFF7A2FC002C00D17DE779E70C490B9885
:102F00008842E2D334E7D92149048A42E8D23BE738
:102F1000252E316600000000252E326600000000DC
:102F20000000E0BE000038BD000086BBBD3786351E
:102F30000000A040252E336600000000252E3466D8
:102F400000000000CDCCCC3DF8B506460B0002F0E9
:102F500059F80B0B0D1014181C1E292C2E072100DC
:102F600000221546144615E00B221CE000221546EF
:102F700009E00A22062505240CE0082218E00D24A9
:102F800008E0012206250C2404E0092200E00B22BF
:102F900006250924330002F035F8080D1115191D16
:102FA0002125292C00220025E9E70B2200E0092237
:102FB0000625E4E71421132712261AE01121102711
:102FC0000F2616E00E210D270C2612E00B210A27F2
:102FD00009260EE00621072708260AE00321042718
:102FE000052606E000210127022602E01721182706
:102FF0001926052000F072FB2A463946052000F00C
:103000006DFB22463146052000F068FBF8BD00004C
:1030100030B50E22551A0A4A012854790AD01346AF
:103020009B7900280AD0022805D0032801D10B4340
:10303000937130BDAC430C43547130BDAB43F6E7E4
:10304000140200200FB43EB5002102910446009105
:103050000191092108AB6846079AFDF71DF96946F9
:103060002046FFF7AEFA3EBC08BC04B01847F3B5E3
:1030700083B00020019000900498030001F0C2FF8B
:103080000604070A150E1215042200270CE0002280
:10309000062701E003220027002606E0002206277B
:1030A0000C2602E00422092702260398030001F0FF
:1030B000A9FF08050A1015191D223527142113250B
:1030C0001224082003E0112110250F240420019070
:1030D00016E00E210D250C240220F8E70B210A250D
:1030E00009240DE006210725082409E00321042511
:1030F0000524022003E00021012502240420009081
:10310000049803280FD0052000F0E8FA3A46294633
:10311000052000F0E3FA324621460CE0172118257D
:1031200019240820EBE70398042802D21521019AFC
:1031300001E0009A1621052000F0D0FA05B0F0BD9C
:1031400070B50C46012862D10A2C06D20A2120460D
:10315000FDF726FA0320FFF7F7FE20460A385A2823
:103160000ED20A212046FDF71BFA0D460A21FDF773
:1031700017FA0220FFF7E8FE29460320FFF7E4FED6
:103180002046E12164388900884218D26421204613
:10319000FDF706FA0A21FDF703FA0120FFF7D4FE36
:1031A0000A212046FDF7FCF90D460A21FDF7F8F942
:1031B0000220FFF7C9FE29460320FFF7C5FE7D2147
:1031C000C900184A601A904221D82046FDF7E8F954
:1031D0000A21FDF7E5F90020FFF7B6FE642120463D
:1031E000FDF7DEF90A21FDF7DBF90120FFF7ACFE60
:1031F0000A212046FDF7D4F90C460A21FDF7D0F943
:103200000220FFF7A1FE21460320FFF79DFE0022CA
:103210001521052000F062FA00221621052000F099
:103220005DFA70BD2723000010B5044686B008463D
:10323000FDF7C8FB0191009006A20A2102A8FDF744
:1032400047F80A2803DA02A92046FFF7F5FA06B084
:1032500010BD0000252E31660000000010B500F002
:10326000C7FA02490120887310BD0000A4010020A4
:10327000F8B50D4604461F4609491046FDF7CCFB3C
:1032800006462846FDF7E2FC314602F059F8FDF704
:1032900099FCA5606060002020602773F8BD0000E5
:1032A0000000C84210B500F068F910BD10B506491D
:1032B0000A884B88521CD2B2934204D00B88CC1F90
:1032C000F93CE0540A8010BD1C03002010B5064CE8
:1032D00015216279052000F001FAA2791621052056
:1032E00000F0FCF910BD00001402002010B51B49CD
:1032F000887B002830D00A680846521C0A600B7987
:103300000024C07B012B02D0032B12D10AE07D23C5
:10331000DB009A420DD902224C731043C87303207C
:10332000087106E00E4B9A4203D904221043C87379
:103330000A71087B00280FD108790122012804D0E6
:10334000032806D0042805D103E0C87B1043C873C6
:1033500000E00A718C730C6010BD0000A401002015
:10336000B80B000010B5224C206CFDF76FFCA16D6E
:1033700001F0E6FFE16D01F073FF20656065012259
:10338000E16B52068B1A914221D010DC194A891A3E
:1033900024D0891A21D0520091421ED1FDF712FB90
:1033A000154A164BFDF7EAF9FDF7AAF914E07F215B
:1033B0004906591817D03F229206891809D05200A1
:1033C000D1420AD1FDF7FEFA0D4A0E4BEAE70E494B
:1033D00000E00E4901F0B4FF606510BDFDF7F2FAA0
:1033E0000B4A0C4BDEE7FDF7EDFA0B4A0B4BD9E726
:1033F0000C000020000040006AF6402B3064953F2E
:103400002E90A0F831E6D23F0AD7233C0000F040CE
:10341000FCA9F1D24D62503F8FC2F5285C8FC23FAC
:1034200010B5022000F05CF8012804D100F01EFB6A
:10343000022000F019F8012000F052F8012804D110
:1034400000F032FB012000F00FF810BD10B5FF2492
:103450000134204600F044F8012804D100F042FB7A
:10346000204600F001F810BD014948617047000096
:103470000004014083790179184A002B04D0002907
:1034800010D0012913D016E0002906D0012903D15C
:10349000516800688143516070471168006881433A
:1034A00011607047116803681943116003E05168A7
:1034B000036819435160417900290AD0012903D0DA
:1034C0009168036819439160D16800680143D16035
:1034D00070479168006801439160704700040140A3
:1034E000034A0146526900200A4200D00120704779
:1034F0000004014081627047F0B5002203250123DA
:103500000C8893401C422DD08B78012B01D0022BCC
:1035100015D1846853002E469E40B44384600C79D4
:103520009C4083681C4384604368CC789440A343E8
:1035300043604368CC789440A4B223434360066858
:1035400053002C469C40A64306608E7807689E4038
:103550003E430660C668A643C6604C799C40C3687B
:103560001C43C460521C102AC9D3F0BD0069084036
:1035700000D001207047816170471FB501204004D1
:1035800000F02AFE0120400200F036FE012000F08B
:1035900033FE402168460181032181720024447377
:1035A000092002A9C006FFF7A7FFFEF7E1FE684663
:1035B000FEF766FE68460470447084700121C17095
:1035C00004714471FEF71CFE07214020FEF74EFEF9
:1035D00002210C2000F06CFC0820FEF761FEFEF7D3
:1035E00097FEFEF755FEFEF7CDFE1FBD10B5002479
:1035F00000222146052000F071F8641CA4B2312C91
:10360000F6D310BD10B52921042000F023F80321C2
:10361000042000F01FF80121042000F01BF8FFF740
:10362000E5FF10BD1CB50120800400F0D5FDE020B1
:103630006A461080012090700020D0700321117123
:10364000507169460248FFF757FFFFF7DBFF1CBDCB
:1036500000040048F8B50D4606460021084600F073
:10366000A5F80120FEF7CAFE00240427002101204E
:1036700000F09CF83946E1403140022000F096F815
:103680000120FEF7BBFE0121084600F08FF8012063
:10369000FEF7B4FE641C032CE8DB00248026002126
:1036A000012000F083F83146E1402940022000F07B
:1036B0007DF80120FEF7A2FE0121084600F076F811
:1036C0000120FEF79BFE641C092CE8DB0121002091
:1036D00000F06CF80120FEF791FEF8BDF8B50E463B
:1036E000074600211546084600F060F80120FEF765
:1036F00085FE00240421E1403940022000F056F804
:103700000520FEF77BFE0021012000F04FF8052088
:10371000FEF774FE0121084600F048F80120FEF78C
:103720006DFE641C032CE5DB002420273946E140B4
:103730003140022000F03AF80520FEF75FFE00213C
:10374000012000F033F80520FEF758FE012108465D
:1037500000F02CF80120FEF751FE641C062CE5DB7E
:10376000002401263046A0402840C1B2022000F0CB
:103770001DF80520FEF742FE0021012000F016F89A
:103780000520FEF73BFE0121084600F00FF8304609
:10379000FEF734FE641C042CE4DB0121002000F061
:1037A00005F80120FEF72AFEF8BD000010B50F4A0B
:1037B000002807D001280BD002280FD1002913D0F0
:1037C000202108E0002901D0802104E0802107E0C9
:1037D000002904D040211046FFF7CDFE10BD402146
:1037E0001046FFF787FE10BD2021F9E700040048CE
:1037F000F0B5012085B0400400F0EEFC012080040B
:1038000000F0EAFC012000F0F7FC022569460D807B
:1038100000248C70032609200E71C006FFF76CFE91
:10382000012769460F808C7009200E71C006FFF7D2
:1038300063FEE801694608808C700E711448FFF73A
:103840005BFE0121002000F01FFD0021084600F072
:103850001BFD0821012000F017FD694602958F73BA
:103860000C734D7302A8FFF705FE02A80297FFF73D
:1038700001FEE801029002A8FFF7FCFD01210520EE
:1038800000F016FB0121072000F012FB05B0F0BD8F
:103890000004004810B5FFF769FE10BD10B5002800
:1038A00006D00948002901D0022106E0022108E0E3
:1038B0000920C006002903D08021FFF75CFE10BD5F
:1038C0008021FFF717FE10BD00040048344801684E
:1038D0000122114301604168324A11404160016890
:1038E000314A114001600168012292049143016054
:1038F00041683F221204914341604168090909016E
:103900004160016BFF22543291430163416B4908CE
:1039100049004163002181600168012212041143C2
:10392000016000210522120203689B0702D4491C92
:103930009142F9D30168890730D51C490A681023E0
:103940001A430A600A68D208D200521C0A60416811
:10395000F022914341604168072212029143416085
:1039600041680322D2039143416041680F229204CF
:1039700091430522D2048918416001681A05114358
:10398000016001688901FCD5416889088900891CAA
:10399000416041680907890F0229FAD17047000088
:1039A000001002400CB8FF08FFFFF6FE00200240A6
:1039B0003EB5012000F018FC0124A407204601F0C8
:1039C00023F800216A46117291700C4801902F2053
:1039D000108051726946204601F01CF801212046F2
:1039E00001F00FF80121204601F05FF800210F20BF
:1039F00000F05EFA204601F053F83EBDE7030000F8
:103A00007CB50120400400F0E7FB0120800400F0B9
:103A1000E3FB802168460180012686700024C47083
:103A200003250571447109206946C006FFF764FD4E
:103A30000221684601808670C47005714471694630
:103A40000148FFF759FD7CBD00040048704710B5E0
:103A5000FCF7E2FFFDF790F80A21FCF7ABFD002927
:103A600001D0002010BD012010BD000010B50A20BB
:103A7000FEF7A8FC09200221C006FFF70BFF094949
:103A8000002804D0087B40084000087310BD0A7B62
:103A9000012002430A734A7B02434A738873087108
:103AA00010BD0000A401002010B50A20FEF78AFC1A
:103AB00009200121C006FFF7EDFE0949002804D0C6
:103AC000087BFD221040087310BD0A7B02200243D0
:103AD0000A734A7B02434A7301208873087110BD40
:103AE000A401002010B50A20FEF76CFCFF21013173
:103AF0000A48FFF7CFFE0A49002804D0087BFB22C2
:103B00001040087310BD0A7B042002430A734A7BED
:103B100002434A7301208873087110BD00040048F5
:103B2000A4010020F8B5002871D001270025BF05A9
:103B30009D4C01280CD002286AD0032867D19BA194
:103B40000120FFF77FFA9BA10020FFF77BFA24E119
:103B50000120FEF763FE2078984E022802D0032849
:103B6000F5D111E0002332460A219548FFF780FB8A
:103B7000022332460A219348FFF77AFB92A10120E3
:103B8000FEF71FFD90A19DE06078030001F03AFA76
:103B9000089D050B294D679EB79D8DA10120FEF75D
:103BA00010FD8DA18EE0002332460A218448FFF7E4
:103BB0005FFB022300220A218248FFF759FBA0780D
:103BC000012804D0022806D00428C0D101E084A135
:103BD00002E085A100E086A10120FEF7F2FC86A1AB
:103BE00070E000231A460A217548FFF741FB0223C3
:103BF00032460A217348FFF73BFBE07808280ED0D5
:103C0000102806D0202808D04028A0D103E0C5E025
:103C1000A1E073A104E074A102E075A100E078A125
:103C20000120FEF7CEFC78A14CE0E08B802810D07C
:103C3000FF38401E09D0FF38401E04D0FF38FF383F
:103C4000022884D103E072A104E073A102E074A110
:103C500000E075A10120FEF7B4FC75A132E05AA185
:103C60000120FEF7AEFC0121606B8903421A8842F5
:103C70001BD00CDC7049401A1ED0401A13D04900EA
:103C800088421ED132210120FFF75AFA19E0501A5A
:103C90000DD00121C903401A0BD04900884210D130
:103CA0007D210901EFE70A21EDE76421EBE7FA2125
:103CB000E9E7FF21F531E6E7012189070120FFF758
:103CC000B3FA5EA10020FEF77CFC66E00121A06B48
:103CD0008904401A0BD0401A07D04900401A08D076
:103CE0004900884259D157A104E058A102E059A1E6
:103CF00000E05AA10120FEF764FC5AA1E2E701218D
:103D0000E06B4906421A88421BD009DCC01B1CD05C
:103D1000C01B18D00121C90588423ED153A10BE038
:103D20007F204006101812D03F218906401810D07D
:103D30004900C84231D14FA10120FEF742FC4FA1FA
:103D4000C0E750A1F8E751A1F6E752A1F4E753A16B
:103D5000F2E754A1F0E70122E06B13495206831AFF
:103D6000496D904208D009DCC01B05D0C01B10D0A3
:103D70000122D205904210D103220BE07F204006A1
:103D800018180ED03F229206801808D05200D04258
:103D900003D101220120FEF705FF6571F8BD002265
:103DA000F8E70222F6E700000C000020524C303108
:103DB000000000005F4E504E000000000000C842AE
:103DC000B4010020D40100202020202000000000A9
:103DD0004E6F524D000000004D6F64650000000002
:103DE000454153590000000020485359000000008D
:103DF00057434D50000000004F7574310000000023
:103E0000204F4646000000004F757432000000004D
:103E10003163326300000000316F32630000000044
:103E20003163326F00000000316F326F000000001C
:103E30004E4F4E4300000000000800002052455342
:103E4000000000004752454E00000000472D6F4E15
:103E500000000000522D6F4E00000000205245442B
:103E600000000000434C6F5200000000204B6746EA
:103E700000000000696E484700000000556E69743C
:103E8000000000002062417200000000204B5052F0
:103E900000000000204D5052000000002050534907
:103EA000000000004D4D4847000000007047000032
:103EB0008207D30EFF229A408907090E10B5994058
:103EC00000280BDA03071B0F083B9C080B4BA400D0
:103ED000E318DC6994430C43DC6107E08408084B79
:103EE000A400E3181C6894430C431C60C106C90E6F
:103EF000012088400349086010BD000000ED00E08B
:103F000000E400E000E100E0F8B55948C07B009013
:103F1000C0075FD05648437B5648012B47780AD0EC
:103F20008678C578C48B426B816BC06B022B0DD039
:103F3000042B5DD047E0072F04D07F1C4770012180
:103F4000417140E0022101704170F8E73B0001F04F
:103F500059F8083737050C131C252E374548042E11
:103F600001D0710051E001214FE04248402D01D0C5
:103F7000690052E0082150E001213E4889028C424C
:103F800001D1802151E061004FE00121394849040D
:103F90008A4201D1891155E0510053E00122354890
:103FA0005205914201D1C91056E0490054E0012266
:103FB00030491207904201D1801157E0400055E08E
:103FC0002C49012048712A48002141730099490871
:103FD0004900C1732649C87B820702D5FD221040E3
:103FE000C873C0B2420702D5FB221040C873F8BDA7
:103FF0003B0001F007F8080505060E161F293305DA
:10400000DEE71C48012E02D071088170D8E7042138
:10401000FBE71848082D02D06908C170D0E740219D
:10402000FBE71448802C02D06108C183C8E7012156
:104030008902FAE701210F48C9028A4201D18901A8
:1040400000E051084163BBE701220A489204914213
:1040500001D1C90000E049088163B1E701220549A7
:104060009205904201D1800100E04008C863A7E7B3
:10407000A40100200C000020F8B5054600F07EFDEC
:10408000474C0127E08B0026802811D0FF38401EC6
:104090000BD0FF38401E04D0FF38FF38022809D16A
:1040A00001E0A67202E0A67203E0A772E67201E0E8
:1040B000A772E7720121606B8903421A884216D009
:1040C00009DC3849401A21D0401A12D049008842F0
:1040D00012D132200EE0501A16D00121C903401A25
:1040E00016D04900884207D17D20000102E06420FB
:1040F00000E00A206084A0842878030000F082FF9A
:10410000052D0B2E1C3F2D00FA20F3E70220F1E7CE
:10411000FF20F530EEE7A773E08C618C88421CD35A
:10412000A673A07A002801D0012100E0002101201F
:10413000FFF7B4FB27730FE0A773E08C618C884214
:104140000BD3A673A07A002801D0002100E0012142
:104150000120FFF7A3FB26732E70F8BDE773208DB7
:10416000A18C8842F9D3E673E07A002801D00121BE
:1041700000E000210020FFF791FB6773ECE7E77395
:10418000208DA18C8842E8D3E673E07A002801D024
:10419000002100E001210020FFF780FB6673DBE7D0
:1041A0000C000020000800007047000010B5054C0E
:1041B000032060717D20C000FEF704F9022020700A
:1041C00010BD00000C0000200249CA688243CA608A
:1041D000704700000010024002494A6902434A61E8
:1041E00070470000001002400249CA690243CA61D8
:1041F000704700000010024002498A6902438A6148
:1042000070470000001002400249CA680243CA60B9
:10421000704700000010024070B5184B0326D97B90
:104220000124C807164A0025002812D0587B01280F
:1042300004D0022805D0042805D006E01672947137
:1042400003E0147201E00220107248085D73400020
:10425000D873D87B810708D5197B012902D1167044
:1042600054705471FD210840D873C0B2410703D582
:10427000FB215D730840D87370BD0000A4010020CD
:104280000C000020704700000007000F8A07120F83
:1042900090400E4A032903D891680143916070470A
:1042A0000B1F032B03D8D1680143D16070470B4625
:1042B000083B032B03D811690143116170470C3986
:1042C0000329FBD851690143516170470000014047
:1042D000F8B54B4C05004BD1FEF7A0FA2079042825
:1042E00005D045DC012843D0022841D12AE0012134
:1042F000E06B4906421A88421AD009DC4149401A4B
:104300001CD0401A16D04900884231D13EA10BE0A2
:104310007F204006101813D03F21890640180BD08B
:104320004900C84224D13AA10020FEF78BFE1FE0CD
:1043300039A1F9E73AA1F7E73BA1F5E73CA1F3E79B
:104340003DA1F1E7A07C082820D006DC012809D097
:10435000022809D004280BD116E0102818D02028F4
:1043600006D117E0216E00E0616E002000F0DEFB58
:1043700028467D2700250126FF00030000F042FEAD
:1043800005310C3132373100A16EEEE7E16EECE71A
:10439000216FEAE7616FE8E70020FEF73FFAA07CB3
:1043A000082812D006DC012809D0022809D00428E8
:1043B00011D108E010280AD020280CD109E020A152
:1043C00019E021A117E022A115E023A113E024A107
:1043D00011E025A10FE06675608DB84201D36575C7
:1043E000A571F8BD0020FEF719FA21A103E0002015
:1043F000FEF714FA20A10020FEF724FEEBE70000F0
:104400000C00002000004000204B67460000000028
:10441000696E484700000000206241720000000001
:10442000204B5041000000004D4D48470000000067
:10443000204D504100000000205053490000000072
:1044400020502D310000000020502D3200000000CF
:1044500048692D31000000004C6F2D310000000034
:1044600048692D32000000004C6F2D320000000022
:104470002020555000000000444F574E000000001F
:1044800070B5044600F0EAFD00F0CAF8002C13D025
:1044900000260D4D012C10D0022C10D0032C0BD176
:1044A000287F297D401CC0B2FCF77AF8284629777E
:1044B0008030405CA8742E7270BD012000E00020A6
:1044C00000F004F8F7E700000C000020F8B54849B8
:1044D0008446887C00286FD000252E462C4608286C
:1044E00014D006DC012809D0022809D0042815D1EF
:1044F00009E010280DD0202810D10DE03D4C0DE032
:104500003C4C10340AE03B4C203407E0394C30344A
:1045100004E0384C403401E0364C5034344801213A
:10452000C06B49062768421A334B88421AD00BDC0D
:104530003249401A1DD0324A324B401A02D049004B
:1045400088421AD115460EE07F2040062E491018E9
:1045500011D03F229206801807D05200D0420CD1D1
:104560002A4D09E02A4D1E4607E07F26294DF60513
:1045700003E0294DF7E7294D0E46386800900120E9
:104580006146C00700290BD02946009800F0AEFE16
:1045900004D23146009800F063FE0BE003210DE0E9
:1045A00045402846009900F0A1FE06D23146009809
:1045B00000F04AFF054603E019E004210C48817130
:1045C000A068002812D00668207B012806D1314659
:1045D000284600F08BFE01D2354607E0207B0228FA
:1045E00004D13146284600F003FFF5D33D60F8BD05
:1045F0000C000020385500086F12833A000040007C
:104600000000D242CDCCCC3D0AD7233C0000F8417B
:104610006666863F00E044443D0AD73D1F857341EE
:10462000FEB59449887C00287ED000263746344663
:10463000082814D006DC012809D0022809D0042853
:1046400015D109E010280DD0202810D10DE08A4C9A
:104650000DE0894C10340AE0874C203407E0864C8A
:10466000303404E0844C403401E0834C5034012267
:10467000C86B52062568831A90421AD00BDC7F4A19
:10468000801A1CD07E4B801A02D0520090421BD15F
:104690001E467C4F18E07F2040067B4A181811D038
:1046A0003F239B06C01806D05B00D8420CD1774E42
:1046B00009E0774E04E07F27764EFF0504E0764E52
:1046C000764F01E0764E174676480097007B00282B
:1046D0006FD0022802D0042802D003E0012000E0BD
:1046E000002088766349088E401C80B208860190BD
:1046F00064280AD30846C17D002906D10121C1756D
:104700006949384600F01CFE0746FF210198F53143
:1047100088420FD35748007E00280FD1286800999F
:10472000FFF795F9002800E00EE003D05149012081
:10473000087603E04F49087E00284BD04D4F787E25
:10474000072802D2401C7876FEBD002078762868C3
:104750000099FCF761F9FCF70FFAB97E01291AD02C
:104760000A38FCF76BFA009900F0EAFD0146286070
:1047700001223046D2075040064600F039FE02D2F0
:1047800004202E60B871A0680028DDD00668207B68
:1047900001280FD015E00A30FCF750FA009900F01C
:1047A000CFFD3146286000F023FEECD203202E60BE
:1047B000E8E759E03146286800F098FD01D22E6004
:1047C000FEBD207B0228FBD13146286800F010FE98
:1047D000F6D2F4E7C87D0028F2D028680090C87EA1
:1047E0000A2802D2401CC87625E022480022C27660
:1047F000807E00280CD03146009800F077FD04D26E
:104800003946009800F02CFD0FE00320009610E0E0
:1048100001213046C90748400646009900F066FD70
:1048200005D23946009800F00FFE009003E0042006
:10483000009610498871A068002812D00668207B75
:10484000012806D13146009800F050FD01D20096B3
:1048500007E0207B022804D13146009800F0C8FD13
:10486000F5D300982860FEBD00200886C87508763C
:10487000FEBD00000C00002038550008000040007C
:104880000000D242CDCCCC3D0AD7233C0000F841F9
:104890006666863F00E044443D0AD73D6F12833A86
:1048A0001F857341A4010020000020410422044917
:1048B0000428086902D09043086170471043FBE761
:1048C00000E000E07047000010B5214908680122AF
:1048D00012041043086000200B689B0302D4401CA4
:1048E0009042F9D30868800330D51A480368102431
:1048F000234303600368DB08DB005B1C036048683C
:10490000F02398434860486807231B029843486097
:1049100048680323DB0398438018486048680F22E7
:1049200092049043220480184860086812011043E2
:10493000086008688001FCD5486880088000801CF9
:10494000486048680007800F0228FAD110BD0000B7
:10495000001002400020024010B5164801680122F4
:10496000114301604168144A114041600168134AD3
:104970001140016001680122920491430160416885
:104980003F221204914341604168090909014160D5
:10499000016BFF22543291430163416B4908490086
:1049A000416300218160FFF78FFF01200449C006A9
:1049B000886010BD001002400CB8FF08FFFFF6FE33
:1049C00000ED00E0704710B501218C07204600F093
:1049D00070F801280DD10121204600F00FF800F0F9
:1049E000DBFB00F0CBFB00F0E5FB00F0FFFBFEF78C
:1049F0007DFC10BD10B5FFF7E6FF10BDC943016196
:104A00007047C943016170478168C908C900816066
:104A1000704700001C4B10B5984202D01B4A9042D0
:104A200010D102681024A2438C78E407E40E2243DC
:104A3000026002686024A2438C786407A40F6401BA
:104A400022430260124A904208D0026803242402E2
:104A5000A2430C7AA407A40D224302604A68C262F2
:104A60000A888262984208D00A4A904205D00A4ACF
:104A7000904202D0094A904201D1497A01634169CA
:104A800001221143416110BD002C0140000400408F
:104A90000010004000400140004401400048014037
:104AA00001680122114301607047C2680A43C26075
:104AB000704702690A4204D0C068084201D0012050
:104AC00070470020704710B500F008F810BD016273
:104AD0007047C069084000D00120704710B50F4CE6
:104AE00020212046FFF7F5FF012809D1204600F0DC
:104AF00019F8C0B2FEF7DAFB20212046FFF7E7FFE6
:104B000010212046FFF7E5FF002806D004480121C8
:104B1000017110212046FFF7DAFF10BD0038014077
:104B20001C030020406AC005C00D704710B5114A33
:104B30000123D26B5B06D41A9A4208D009DC0E4BD3
:104B4000D21A04D0D21A0FD05B009A4211D103229C
:104B50000DE07F225206A21808D03F239B06D218F0
:104B600005D05B00DA4204D1012200E00222FEF708
:104B700019F810BD0C00002000004000F8B500201E
:104B800004460090F74801263603058CF302C06BFB
:104B90009900411A8C465910421A511AAF1BCB1A70
:104BA000B5426ED019DCFF3D6D1E2BD0FF3D6D1E52
:104BB0004AD0FF3DFF3DAD1E69D00126B602B54289
:104BC00072D1E84DF603B04206D06EDC002A03D065
:104BD00000296BD0002B67D18FE0BD1B67D0012669
:104BE0007603AD1B72D07600B5425DD1DD4DF60285
:104BF000B04206D06BDC002A03D0002968D0002B1D
:104C000052D1F4E00126D74D7606B04215D006DC2D
:104C1000002A12D000290ED0002B45D10DE07F20B4
:104C20004006604400280DD03F218906401806D078
:104C30004900C84238D1CC48DFE0CC48DDE07F20D5
:104C4000C005DAE0CA48D8E00126C64D7606B04273
:104C500015D006DC002A12D000290ED0002B23D15B
:104C60000DE07F204006604400280ED03F218906D9
:104C7000401807D04900C84216D1BE48BDE0BE4822
:104C8000BBE041E001208007B7E0BC48B5E0012669
:104C9000B44D7606B0421CD00ADC002A19D0002997
:104CA00012D0002B00D114E07EE018E023E04DE0AC
:104CB0007F204006604400280FD03F21890640181D
:104CC00009D04900C8426FD1AD4896E05FE080E06E
:104CD0008BE0AC4891E0AC488FE0AC488DE07F20A1
:104CE0004006604400280DD03F218906401806D0B8
:104CF0004900C84258D1A6487FE0A6487DE08120FF
:104D0000C0057AE0A44878E00126964D7606B042C8
:104D100016D006DC002A13D000290ED0002B6DD14E
:104D20000EE07F204006604400280DD03F21890618
:104D3000401807D04900C84260D13F2000065CE01F
:104D400096485AE0964858E0964856E00126854D28
:104D50007606B04215D006DC002A12D000290ED00B
:104D6000002B4BD10DE07F204006604400280CD082
:104D70003F218906401806D04900C8423ED18A48E2
:104D80003BE08A4839E08A4837E08A4835E0012626
:104D9000744D7606B04216D007DC002A13D00029E5
:104DA0000FD0002B2AD10EE028E07F20400660447F
:104DB00000280CD03F218906401806D04900C8427F
:104DC0001CD17D4819E07D4817E07D4815E07D48FD
:104DD00013E07F204006604400280DD03F21890663
:104DE000401806D04900C84208D1774805E0774806
:104DF00003E04120000600E07548A867594DA978F6
:104E00002846C078012904D002290DD0042914D1E4
:104E100008E0022107E010280AD020280CD0402802
:104E20000BD107E0012100910828F4D1062404E009
:104E3000052402E0042400E003244A480099027B90
:104E4000436D00930127806E032600291FD001299E
:104E50000FD002293FD14348002A006E02D0012A18
:104E600039D104E0A96F00F0FBF9009920E0014678
:104E70000BE0002A02D0012A2DD105E00146184698
:104E800000F0B6FA27D216E0E96E184620E0002AB4
:104E900002D0012A1FD110E0A96F00F0E1F90099BA
:104EA00000F0A6FA17D2A96FE86E00F0D9F9696D83
:104EB00000F01CFA0FD2EF710DE0A96F00F0D0F9ED
:104EC000009900F013FA01D2EE7104E0E96E686D0A
:104ED00000F00CFAF8D302270426032C22D0042C6D
:104EE0000FD0052C0AD1687B002803D0012805D1FA
:104EF000696E12E0A96F686E2DE0EF71F8BDEE717A
:104F0000F8BD687B002802D00128F9D117E0296F8D
:104F1000686D00F06DFAF3D2EFE7686D00F0E6F926
:104F2000EED2ECE7687B00280BD00128E8D1A96F0E
:104F3000286F00F095F9696D00F0D8F9DFD3696F3B
:104F4000EBE7A96F286F00F08BF9696D00F050FA5C
:104F5000D6D2A96F686F00F083F9696D00F0C6F9C9
:104F6000CBD3F8BD0C000020CDCCCC3D6F12833AE2
:104F70000AD7233CCDCC4C3E6F12033B0AD7A33C4F
:104F80009A99993EA69B443B000040408FC2F53C55
:104F9000CDCCCC3E6F12833B0AD7233D0AD7A33B2F
:104FA0000000A040CDCC4C3D9A99193FA69BC43B34
:104FB0000000C0408FC2753D3333333F4260E53B54
:104FC0000000E040295C8F3DCDCC4C3F6F12033C8C
:104FD0000AD7A33DF8B5040C8BB2264682B25E43D5
:104FE000104658430D0C370C360400218019164624
:104FF00079416E43370C36048019264679416E4359
:105000008919F8BD30B47446641E2578641CAB421F
:1050100000D21D46635D5B00E31830BC18470000FA
:105020004900CA020243100000D004204A0D01D0FA
:1050300001221043044A490D914201D10221084343
:10504000012800D105207047FF07000030380A28EA
:1050500001D2012070470020704770477CB5234A79
:105060000223907801240021012804D0022804D0D2
:10507000042804D004E0117402E0137400E01474F6
:10508000D078102806D0202806D0402806D008283E
:1050900006D007E0517405E0537403E0547401E056
:1050A00003205074D174117511A10AC901930091A4
:1050B0000E4C137C182586346B43517C1B19062437
:1050C00061430A4C00205D186E468034295C00293B
:1050D00007D0335CD17C1943D174117D6354491CD2
:1050E0001175401C0628F1DB7CBD00000C0000207F
:1050F0000102040810200000FEF7E8FBFDF74AF962
:10510000FEF756FCFEF7AAF8FEF7CCF8FEF778FC9F
:10511000FDF744FD094C0025E08D0028FCD0E58515
:1051200000F00EF8FEF71EF96079FEF7FBFCA0799F
:10513000FFF7CEF8FEF7CAF8EEE700000C000020FB
:1051400010B50D490878012806D0022807D0032899
:1051500001D1FEF7D9FE10BDFFF728F810BD0220DF
:105160004871087AFFF78CF90348C01DFEF784FFE9
:10517000FFF752F810BD00000C0000200549C86F71
:10518000401CC8670A2803D30020C8670120C885CF
:10519000704700000C0000200549887D002805D0DC
:1051A000888D7D22D200904201D2401C88857047B4
:1051B0000C0000200C4A0023917B1046408C0029F3
:1051C00005D0D18C814203D2491CD18400E0D38424
:1051D000D17B002905D0118D814201D2491C118556
:1051E00070471385704700000C0000200549487D7A
:1051F000002805D0488D7D22D200904201D2401C6B
:10520000488570470C00002010B500290AD00878A6
:10521000002807D005487844FCF774FF002801D027
:10522000002010BD0248784410BD0000E2040000D8
:10523000DA04000010B500290AD00878002807D049
:1052400005487844FCF75EFF002801D0002010BD1F
:105250000248784410BD0000D2040000CA040000D7
:1052600070B501250400ED074C4020D4441A01D24A
:10527000001B0919C60D4B00F2B2FF2A29D01B0EE4
:105280002CD000020C02D31A2C43DC402843051911
:1052900010D2280A02D3401C6D0611D0761EF605E6
:1052A0008019FF2A00DA70BDC00DC00570BD6940CD
:1052B00000F0D0F801200543C541521C761CE8E7F8
:1052C00064089C40C90161408900E7D10124A043E2
:1052D000E4E71B0E440200D0034870BD002AFCD155
:1052E000C00FC00770BD00BF0000C07F01230200D7
:1052F000DB050A430DD4DA4203D49A4207D488422C
:105300007047D84214D4D94212D4884270478042A0
:105310007047DA4203D59A42F9D5814270475B0063
:105320004200DA4204D24A00DA4201D28142704796
:1053300010B5024AFCF7F6F810BD00BF09001604CC
:1053400070B5420064414B005C41120E39D01B0E17
:1053500038D0FF2A3CD0FF2B3AD040024902400A05
:10536000490A060045184E43000A090AD218484364
:10537000ED017F3A0104731A4019190C4318990F73
:1053800004D001215B0849075B1A521CD80904D3D9
:10539000401CF50301D19D0607D0FF2A08D2D50590
:1053A00006D0E4072043401970BD0125A843F4E767
:1053B000002A01DCE00770BD2402FF202043C00565
:1053C00070BD1B0EFF2A03D0FF2B01D0E00770BD7C
:1053D000FF2645003606B54206D84D00B54203D833
:1053E000D218FF2A00D0E7E7004870BD0000C07F58
:1053F00001230A00DB0502430DD4DA4203D49A42AA
:1054000007D481427047D94214D4D84212D4814281
:10541000704789427047DA4203D59A42F9D58842EB
:1054200070475B004A00DA4204D24200DA4201D2FD
:10543000884270474840414010B5024A4840FCF756
:1054400071F810BD0900160470B501250400ED07C0
:105450004C4022D4441A02D26C40001B0919C60DDC
:105460004B00F2B2FF2A4BD01B0E50D000020C02B0
:10547000D31A2C43DC40A843051B05D5AD0019D336
:105480006D08761E521E37D0F605280A01D2801903
:1054900070BD70416D0603D070BD6940FFF7E6FE38
:1054A0009C4009026140490001D0401E70BD0124AA
:1054B000A04370BD6D081DD001202B0C01D12D041F
:1054C00010302B0E01D12D0208302B0F01D12D01F0
:1054D000001DAB0F01D1AD00801CEB0F01D16D00A1
:1054E000401C6D00361A121A680AF5054019012A87
:1054F00002DB70BD002070BDC036300AC00770BD31
:105500001B0E440201D1FF2B00D1024870BD002ABE
:10551000F0D070BD0000C07F03B4024878448446D8
:1055200003BC604773BAFFFF03B402487844844663
:1055300003BC6047F5C0FFFF6C0000206666863F35
:105540000000000000000000700000206666863F3A
:105550000000000000000000740000206666863F26
:105560007800002001000000780000206666863F79
:1055700074000020020000007C0000206666863F68
:105580008000002001000000800000206666863F49
:105590007C00002002000000040000080000000061
:1055A000000000020001000010818283848586874C
:1055B00088898B8C8D8E8F919293959697999A9CD2
:1055C0009D9FA0A2A3A5A7A8AAACAEB0B2B3B5B741
:1055D000B9BCBEC0C2C5C7C9CCCED1D4D7D9DCDF17
:1055E000E2E6E9ECF0F3F7FAFE000000000000004C
:1055F000000000003031323334353637383941421B
:105600004344454640305800303132333435363724
:105610003839616263646566403078003031323316
:1056200034353637383961626364656678700030C6
:1056300031323334353637383941424344454658A0
:105640005000000002400000000000A00000000028
:1056500005400000000000C8000000000C400000F1
:105660000000409C00000000194000000020BCBE6B
:105670000000000034400000BFC91B8E0000000481
:10568000B5400000504BCFD06607E2CF01000000CC
:105690006C4100003E8251AADFEEA73401000000F9
:1056A000D9420000DCB5A0E23A301F97FFFFFFFFB0
:1056B000B4450000FD25A0C8E9A3C14FFFFFFFFFCF
:1056C000FF3F00000000008000000000FF3F0000DE
:1056D00000000080000000002458000800000020A6
:1056E000DC0000000001000800590008DC00002078
:1056F000AC1400001C0100081C0000004300000066
:10570000F8FFFFFF0C0000000E0000000F0000007B
:105710002E0000001001000043000000F8FFFFFF12
:1057200000404040404040404040414141414140B4
:105730004040404040404040404040404040404069
:1057400040050202020202020202020202020202F8
:1057500002202020202020202020200202020202FD
:105760000202909090909090101010101010101055
:105770001010101010101010101010100202020261
:1057800002028888888888880808080808080808A5
:1057900008080808080808080808080802020202A1
:1057A00040000000000000000000000000000000B9
:1057B00000000000000000000000000000000000E9
:1057C00000000000000000000000000000000000D9
:1057D00000000000000000000000000000000000C9
:1057E00000000000000000000000000000000000B9
:1057F00000000000000000000000000000000000A9
:105800000000000000000000000000000000000098
:105810000000000000000000000000000000000088
:1058200000000000006CDC0200000000000000002E
:105830000101011002000000000000000000000053
:1058400000000000000000000000000000008000D8
:105850000001020002000000000000000000000043
:1058600000000000000800000000040000008000AC
:105870000000000000000000000000000000000028
:1058800000000000000000006C09793DF628E2C22B
:105890000000000000000000000000000000000008
:1058A00000000000000000000000000000000000F8
:1058B00000000000000001010000000001000000E5
:1058C00001010100000001010100000000000001D1
:1058D00001010000000001010101000001010101BE
:1058E00000000101000000010101000000000101B1
:1058F00001010000010101010000010100000000A0
:04000005080000BD32
:00000001FF
